{"contracts/BLI.sol":{"BLI":{"abi":[{"inputs":[{"internalType":"address","name":"initialOwner","type":"address"}],"stateMutability":"nonpayable","type":"constructor"},{"inputs":[],"name":"AccessControlBadConfirmation","type":"error"},{"inputs":[{"internalType":"address","name":"account","type":"address"},{"internalType":"bytes32","name":"neededRole","type":"bytes32"}],"name":"AccessControlUnauthorizedAccount","type":"error"},{"inputs":[{"internalType":"address","name":"have","type":"address"},{"internalType":"address","name":"want","type":"address"}],"name":"OnlyCoordinatorCanFulfill","type":"error"},{"inputs":[{"internalType":"address","name":"owner","type":"address"}],"name":"OwnableInvalidOwner","type":"error"},{"inputs":[{"internalType":"address","name":"account","type":"address"}],"name":"OwnableUnauthorizedAccount","type":"error"},{"anonymous":false,"inputs":[{"indexed":true,"internalType":"address","name":"owner","type":"address"},{"indexed":true,"internalType":"address","name":"spender","type":"address"},{"indexed":false,"internalType":"uint256","name":"value","type":"uint256"}],"name":"Approval","type":"event"},{"anonymous":false,"inputs":[{"indexed":false,"internalType":"uint256","name":"amountETH","type":"uint256"},{"indexed":false,"internalType":"uint256","name":"amountBOG","type":"uint256"}],"name":"AutoLiquify","type":"event"},{"anonymous":false,"inputs":[{"indexed":true,"internalType":"address","name":"user","type":"address"},{"indexed":false,"internalType":"uint256","name":"id","type":"uint256"}],"name":"CapsuleBought","type":"event"},{"anonymous":false,"inputs":[{"indexed":true,"internalType":"address","name":"user","type":"address"},{"indexed":false,"internalType":"uint256","name":"vaccine","type":"uint256"},{"indexed":false,"internalType":"bool","name":"vaccine4","type":"bool"}],"name":"CapsuleOpened","type":"event"},{"anonymous":false,"inputs":[{"indexed":false,"internalType":"uint256","name":"epochId","type":"uint256"}],"name":"NewEpochStarted","type":"event"},{"anonymous":false,"inputs":[{"indexed":true,"internalType":"address","name":"previousOwner","type":"address"},{"indexed":true,"internalType":"address","name":"newOwner","type":"address"}],"name":"OwnershipTransferred","type":"event"},{"anonymous":false,"inputs":[{"indexed":false,"internalType":"uint256","name":"requestId","type":"uint256"},{"indexed":false,"internalType":"uint256[]","name":"randomWords","type":"uint256[]"}],"name":"RequestFulfilled","type":"event"},{"anonymous":false,"inputs":[{"indexed":false,"internalType":"uint256","name":"requestId","type":"uint256"},{"indexed":false,"internalType":"uint32","name":"numWords","type":"uint32"}],"name":"RequestSent","type":"event"},{"anonymous":false,"inputs":[{"indexed":true,"internalType":"bytes32","name":"role","type":"bytes32"},{"indexed":true,"internalType":"bytes32","name":"previousAdminRole","type":"bytes32"},{"indexed":true,"internalType":"bytes32","name":"newAdminRole","type":"bytes32"}],"name":"RoleAdminChanged","type":"event"},{"anonymous":false,"inputs":[{"indexed":true,"internalType":"bytes32","name":"role","type":"bytes32"},{"indexed":true,"internalType":"address","name":"account","type":"address"},{"indexed":true,"internalType":"address","name":"sender","type":"address"}],"name":"RoleGranted","type":"event"},{"anonymous":false,"inputs":[{"indexed":true,"internalType":"bytes32","name":"role","type":"bytes32"},{"indexed":true,"internalType":"address","name":"account","type":"address"},{"indexed":true,"internalType":"address","name":"sender","type":"address"}],"name":"RoleRevoked","type":"event"},{"anonymous":false,"inputs":[{"indexed":true,"internalType":"address","name":"from","type":"address"},{"indexed":true,"internalType":"address","name":"to","type":"address"},{"indexed":false,"internalType":"uint256","name":"value","type":"uint256"}],"name":"Transfer","type":"event"},{"anonymous":false,"inputs":[{"indexed":true,"internalType":"address","name":"user","type":"address"},{"indexed":false,"internalType":"uint256","name":"amount","type":"uint256"}],"name":"_claim","type":"event"},{"inputs":[],"name":"ADMIN_ROLE","outputs":[{"internalType":"bytes32","name":"","type":"bytes32"}],"stateMutability":"view","type":"function"},{"inputs":[],"name":"DEFAULT_ADMIN_ROLE","outputs":[{"internalType":"bytes32","name":"","type":"bytes32"}],"stateMutability":"view","type":"function"},{"inputs":[],"name":"MarketingWallet","outputs":[{"internalType":"address","name":"","type":"address"}],"stateMutability":"view","type":"function"},{"inputs":[{"internalType":"address","name":"holder","type":"address"},{"internalType":"address","name":"spender","type":"address"}],"name":"allowance","outputs":[{"internalType":"uint256","name":"","type":"uint256"}],"stateMutability":"view","type":"function"},{"inputs":[],"name":"amountOfAllInfection","outputs":[{"internalType":"uint256","name":"","type":"uint256"}],"stateMutability":"view","type":"function"},{"inputs":[{"internalType":"address","name":"","type":"address"}],"name":"amountOfInfection","outputs":[{"internalType":"uint256","name":"","type":"uint256"}],"stateMutability":"view","type":"function"},{"inputs":[{"internalType":"address","name":"spender","type":"address"},{"internalType":"uint256","name":"amount","type":"uint256"}],"name":"approve","outputs":[{"internalType":"bool","name":"","type":"bool"}],"stateMutability":"nonpayable","type":"function"},{"inputs":[{"internalType":"address","name":"spender","type":"address"}],"name":"approveMax","outputs":[{"internalType":"bool","name":"","type":"bool"}],"stateMutability":"nonpayable","type":"function"},{"inputs":[{"internalType":"address","name":"account","type":"address"}],"name":"balanceOf","outputs":[{"internalType":"uint256","name":"","type":"uint256"}],"stateMutability":"view","type":"function"},{"inputs":[],"name":"buyCapsule","outputs":[],"stateMutability":"nonpayable","type":"function"},{"inputs":[],"name":"capsuleCount","outputs":[{"internalType":"uint256","name":"","type":"uint256"}],"stateMutability":"view","type":"function"},{"inputs":[],"name":"capsuleCurrentCount","outputs":[{"internalType":"uint256","name":"","type":"uint256"}],"stateMutability":"view","type":"function"},{"inputs":[],"name":"capsulePrice","outputs":[{"internalType":"uint256","name":"","type":"uint256"}],"stateMutability":"view","type":"function"},{"inputs":[],"name":"claim","outputs":[],"stateMutability":"nonpayable","type":"function"},{"inputs":[],"name":"decimals","outputs":[{"internalType":"uint8","name":"","type":"uint8"}],"stateMutability":"pure","type":"function"},{"inputs":[],"name":"endGame","outputs":[],"stateMutability":"nonpayable","type":"function"},{"inputs":[],"name":"epochId","outputs":[{"internalType":"uint256","name":"","type":"uint256"}],"stateMutability":"view","type":"function"},{"inputs":[{"internalType":"uint256","name":"","type":"uint256"}],"name":"epochs","outputs":[{"internalType":"uint256","name":"id","type":"uint256"},{"internalType":"uint256","name":"startTime","type":"uint256"},{"internalType":"uint256","name":"endTime","type":"uint256"}],"stateMutability":"view","type":"function"},{"inputs":[],"name":"getBestInfectors","outputs":[{"internalType":"address[5]","name":"","type":"address[5]"}],"stateMutability":"view","type":"function"},{"inputs":[],"name":"getGotLuckyVaccine","outputs":[{"internalType":"address[]","name":"","type":"address[]"}],"stateMutability":"view","type":"function"},{"inputs":[{"internalType":"address","name":"user","type":"address"}],"name":"getHasOpenedCapsule","outputs":[{"internalType":"bool","name":"","type":"bool"}],"stateMutability":"view","type":"function"},{"inputs":[{"internalType":"address","name":"user","type":"address"}],"name":"getHasUpgrade","outputs":[{"internalType":"bool","name":"","type":"bool"}],"stateMutability":"view","type":"function"},{"inputs":[{"internalType":"address","name":"user","type":"address"}],"name":"getIsBuyer","outputs":[{"internalType":"bool","name":"","type":"bool"}],"stateMutability":"view","type":"function"},{"inputs":[{"internalType":"address","name":"user","type":"address"}],"name":"getRequestFullfilled","outputs":[{"internalType":"bool","name":"","type":"bool"}],"stateMutability":"view","type":"function"},{"inputs":[{"internalType":"bytes32","name":"role","type":"bytes32"}],"name":"getRoleAdmin","outputs":[{"internalType":"bytes32","name":"","type":"bytes32"}],"stateMutability":"view","type":"function"},{"inputs":[{"internalType":"bytes32","name":"role","type":"bytes32"},{"internalType":"address","name":"account","type":"address"}],"name":"grantRole","outputs":[],"stateMutability":"nonpayable","type":"function"},{"inputs":[{"internalType":"bytes32","name":"role","type":"bytes32"},{"internalType":"address","name":"account","type":"address"}],"name":"hasRole","outputs":[{"internalType":"bool","name":"","type":"bool"}],"stateMutability":"view","type":"function"},{"inputs":[{"internalType":"address","name":"_toInfect","type":"address"}],"name":"infect","outputs":[],"stateMutability":"nonpayable","type":"function"},{"inputs":[{"internalType":"address[]","name":"_toInfect","type":"address[]"}],"name":"infectOG","outputs":[],"stateMutability":"nonpayable","type":"function"},{"inputs":[{"internalType":"address","name":"","type":"address"}],"name":"infected","outputs":[{"internalType":"bool","name":"","type":"bool"}],"stateMutability":"view","type":"function"},{"inputs":[{"internalType":"address","name":"","type":"address"}],"name":"infecter","outputs":[{"internalType":"address","name":"","type":"address"}],"stateMutability":"view","type":"function"},{"inputs":[],"name":"isGameOver","outputs":[{"internalType":"bool","name":"","type":"bool"}],"stateMutability":"view","type":"function"},{"inputs":[],"name":"isGameStarted","outputs":[{"internalType":"bool","name":"","type":"bool"}],"stateMutability":"view","type":"function"},{"inputs":[],"name":"isTradingEnabled","outputs":[{"internalType":"bool","name":"","type":"bool"}],"stateMutability":"view","type":"function"},{"inputs":[],"name":"lastRequestId","outputs":[{"internalType":"uint256","name":"","type":"uint256"}],"stateMutability":"view","type":"function"},{"inputs":[],"name":"name","outputs":[{"internalType":"string","name":"","type":"string"}],"stateMutability":"view","type":"function"},{"inputs":[{"internalType":"address","name":"user","type":"address"}],"name":"openCapsule","outputs":[],"stateMutability":"nonpayable","type":"function"},{"inputs":[],"name":"owner","outputs":[{"internalType":"address","name":"","type":"address"}],"stateMutability":"view","type":"function"},{"inputs":[],"name":"pair","outputs":[{"internalType":"address","name":"","type":"address"}],"stateMutability":"view","type":"function"},{"inputs":[{"internalType":"address","name":"","type":"address"}],"name":"pendingRewards","outputs":[{"internalType":"uint256","name":"","type":"uint256"}],"stateMutability":"view","type":"function"},{"inputs":[{"internalType":"uint256","name":"requestId","type":"uint256"},{"internalType":"uint256[]","name":"randomWords","type":"uint256[]"}],"name":"rawFulfillRandomWords","outputs":[],"stateMutability":"nonpayable","type":"function"},{"inputs":[],"name":"renounceOwnership","outputs":[],"stateMutability":"nonpayable","type":"function"},{"inputs":[{"internalType":"bytes32","name":"role","type":"bytes32"},{"internalType":"address","name":"callerConfirmation","type":"address"}],"name":"renounceRole","outputs":[],"stateMutability":"nonpayable","type":"function"},{"inputs":[{"internalType":"uint256","name":"","type":"uint256"}],"name":"requestIds","outputs":[{"internalType":"uint256","name":"","type":"uint256"}],"stateMutability":"view","type":"function"},{"inputs":[{"internalType":"bytes32","name":"role","type":"bytes32"},{"internalType":"address","name":"account","type":"address"}],"name":"revokeRole","outputs":[],"stateMutability":"nonpayable","type":"function"},{"inputs":[],"name":"rewardPool","outputs":[{"internalType":"contract RewardPool","name":"","type":"address"}],"stateMutability":"view","type":"function"},{"inputs":[],"name":"router","outputs":[{"internalType":"contract IUniswapV2Router02","name":"","type":"address"}],"stateMutability":"view","type":"function"},{"inputs":[{"internalType":"address","name":"_MarketingWallet","type":"address"}],"name":"setFeesWallet","outputs":[],"stateMutability":"nonpayable","type":"function"},{"inputs":[{"internalType":"address","name":"holder","type":"address"},{"internalType":"bool","name":"exempt","type":"bool"}],"name":"setIsFeeExempt","outputs":[],"stateMutability":"nonpayable","type":"function"},{"inputs":[],"name":"setIsTradingEnabled","outputs":[],"stateMutability":"nonpayable","type":"function"},{"inputs":[{"internalType":"address","name":"holder","type":"address"},{"internalType":"bool","name":"exempt","type":"bool"}],"name":"setIsWalletLimitExempt","outputs":[],"stateMutability":"nonpayable","type":"function"},{"inputs":[],"name":"setMaxWallet","outputs":[],"stateMutability":"nonpayable","type":"function"},{"inputs":[{"internalType":"uint256","name":"_range","type":"uint256"}],"name":"setProbabilityMaxRange","outputs":[],"stateMutability":"nonpayable","type":"function"},{"inputs":[{"internalType":"uint256","name":"_amount","type":"uint256"}],"name":"setSpecialVaccineSupply","outputs":[],"stateMutability":"nonpayable","type":"function"},{"inputs":[{"internalType":"bool","name":"_enabled","type":"bool"},{"internalType":"uint256","name":"_amount","type":"uint256"}],"name":"setSwapBackSettings","outputs":[],"stateMutability":"nonpayable","type":"function"},{"inputs":[{"internalType":"address","name":"pairaddr","type":"address"}],"name":"setSwapPair","outputs":[],"stateMutability":"nonpayable","type":"function"},{"inputs":[],"name":"startNewEpoch","outputs":[],"stateMutability":"nonpayable","type":"function"},{"inputs":[{"internalType":"bytes4","name":"interfaceId","type":"bytes4"}],"name":"supportsInterface","outputs":[{"internalType":"bool","name":"","type":"bool"}],"stateMutability":"view","type":"function"},{"inputs":[],"name":"swapEnabled","outputs":[{"internalType":"bool","name":"","type":"bool"}],"stateMutability":"view","type":"function"},{"inputs":[],"name":"symbol","outputs":[{"internalType":"string","name":"","type":"string"}],"stateMutability":"view","type":"function"},{"inputs":[],"name":"totalAllRewards","outputs":[{"internalType":"uint256","name":"","type":"uint256"}],"stateMutability":"view","type":"function"},{"inputs":[{"internalType":"address","name":"","type":"address"}],"name":"totalRewards","outputs":[{"internalType":"uint256","name":"","type":"uint256"}],"stateMutability":"view","type":"function"},{"inputs":[],"name":"totalSupply","outputs":[{"internalType":"uint256","name":"","type":"uint256"}],"stateMutability":"view","type":"function"},{"inputs":[{"internalType":"address","name":"recipient","type":"address"},{"internalType":"uint256","name":"amount","type":"uint256"}],"name":"transfer","outputs":[{"internalType":"bool","name":"","type":"bool"}],"stateMutability":"nonpayable","type":"function"},{"inputs":[{"internalType":"address","name":"sender","type":"address"},{"internalType":"address","name":"recipient","type":"address"},{"internalType":"uint256","name":"amount","type":"uint256"}],"name":"transferFrom","outputs":[{"internalType":"bool","name":"","type":"bool"}],"stateMutability":"nonpayable","type":"function"},{"inputs":[{"internalType":"address","name":"newOwner","type":"address"}],"name":"transferOwnership","outputs":[],"stateMutability":"nonpayable","type":"function"},{"inputs":[],"name":"upgradeVaccine","outputs":[],"stateMutability":"nonpayable","type":"function"},{"inputs":[{"internalType":"address","name":"","type":"address"}],"name":"userCurrentVaccine","outputs":[{"internalType":"uint256","name":"","type":"uint256"}],"stateMutability":"view","type":"function"},{"inputs":[{"internalType":"address","name":"","type":"address"}],"name":"userHasBoughtVaccine","outputs":[{"internalType":"bool","name":"","type":"bool"}],"stateMutability":"view","type":"function"},{"inputs":[],"name":"vaccineFourSupply","outputs":[{"internalType":"uint256","name":"","type":"uint256"}],"stateMutability":"view","type":"function"},{"stateMutability":"payable","type":"receive"}],"evm":{"bytecode":{"linkReferences":{},"object":"60e0604052600e60a09081526d109b1a59da1d08141c9bda9958dd60921b60c0526002906200002f9082620008fc565b5060408051808201909152600380825262424c4960e81b602083015290620000589082620008fc565b50620000676012600a62000adb565b6200007790633b9aca0062000af3565b60045569d3c21bcecceda10000006005556103e8600454600a6200009c919062000af3565b620000a8919062000b0d565b600655600554620000bc9061025862000af3565b600b5560c8600c55600554620000d59061038462000af3565b600d5561012c600e5560108054733e98da13e184ea1467639bf642f804144539694d6001600160a01b03199182161790915560118054732ca8e0c643bde4c2e08ab1fa0da3401adad7734d9216919091179055601280546001600160e01b0319167537f32ca8e0c643bde4c2e08ab1fa0da3401adad7734d1790557f79d3d8832d904592c0bf9818b621522c988bb8b0c05cdc3b15aea1b6e8db0c15601555601680546001600160501b03191666010003000186a01790556019805461ffff60a01b19169055600454620001ad906103e89062000b0d565b620001ba90600362000af3565b601a5560646022556000602655600060285560006029556934f086f3b33b68400000602a556000602b556000602c556000602d556000602e556000602f55600060305560006031556000603255600a60335560055460e56200021d919062000af3565b603a55600554620002319061016562000af3565b603b55600554620002459061020262000af3565b603c5560055462000259906102bc62000af3565b603d556005546200026d9061039262000af3565b603e55600554620002819061048562000af3565b603f556040805461ffff191690553480156200029c57600080fd5b5060405162005bfe38038062005bfe833981016040819052620002bf9162000b30565b6011546001600160a01b039081169082908116620002f757604051631e4fbdf760e01b81526000600482015260240160405180910390fd5b620003028162000762565b506001600160a01b0316608052601880546001600160a01b031916737a250d5630b4cf539739df2c5dacb4c659f2488d9081179091556040805163c45a015560e01b8152905163c45a0155916004808201926020929091908290030181865afa15801562000374573d6000803e3d6000fd5b505050506040513d601f19601f820116820180604052508101906200039a919062000b30565b6001600160a01b031663c9c65396601860009054906101000a90046001600160a01b03166001600160a01b031663ad5c46486040518163ffffffff1660e01b8152600401602060405180830381865afa158015620003fc573d6000803e3d6000fd5b505050506040513d601f19601f8201168201806040525081019062000422919062000b30565b6040516001600160e01b031960e084901b1681526001600160a01b0390911660048201523060248201526044016020604051808303816000875af11580156200046f573d6000803e3d6000fd5b505050506040513d601f19601f8201168201806040525081019062000495919062000b30565b601980546001600160a01b0319166001600160a01b0392831617905530600090815260086020908152604080832060185490941683529290529081206000199055620004e29082620007b2565b506200050f7fa49807205ce4d355092ef5a8a18f56e8913cf4a201fbe287825b095693c2177582620007b2565b503081604051620005209062000849565b6001600160a01b03928316815291166020820152604001604051809103906000f08015801562000554573d6000803e3d6000fd5b50602180546001600160a01b0319166001600160a01b03928316179055336000818152600960209081526040808320805460ff19908116600190811790925530808652838620805483168417905560108054891687528487208054841685179055878752600a8652848720805484168517905580548916875284872080548416851790557f20677881080440a9b3c87e826370bb5d9c2f74efd4dede686d52d77a6a09f8bb80548416851790558187528487208054841685179055601980548a16885285882080548516861790557fc90215bb1b0ac6bfa50a3c02c4b559c695b6a8e828048a88e327592fc55c5d2c8054851686179055888852601c8752858820805485168617905590548916875284872080548416851790557fa48bd8e7b1565515cde2859b6cc48308ba05b5325bcf90fb096b9ac0b8087dfc8054841685179055908652838620805483168417905554909616845281842080548716821790557fb1e2e88b6a3e9d36c6d6d48756ca9ed8312cfcb5a15208f81170ade3bd2b4a95805490961617909455600454928252600790529182208054919290916200070090849062000b5b565b909155505060045433906000907fddf252ad1be2c89b69c2b068fc378daa952ba7f163c4a11628f55a4df523b3ef906064906200073e908262000af3565b6200074a919062000b0d565b60405190815260200160405180910390a35062000b71565b600080546001600160a01b038381166001600160a01b0319831681178455604051919092169283917f8be0079c531659141344cd1fd0a4f28419497f9722a3daafe3b4186f6b6457e09190a35050565b60008281526001602090815260408083206001600160a01b038516845290915281205460ff166200083f5760008381526001602081815260408084206001600160a01b0387168086529252808420805460ff19169093179092559051339286917f2f8788117e7eff1d82e926ec794901d17c78024a50270940304540a733656f0d9190a450600162000843565b5060005b92915050565b61096f806200528f83390190565b634e487b7160e01b600052604160045260246000fd5b600181811c908216806200088257607f821691505b602082108103620008a357634e487b7160e01b600052602260045260246000fd5b50919050565b601f821115620008f757600081815260208120601f850160051c81016020861015620008d25750805b601f850160051c820191505b81811015620008f357828155600101620008de565b5050505b505050565b81516001600160401b0381111562000918576200091862000857565b62000930816200092984546200086d565b84620008a9565b602080601f8311600181146200096857600084156200094f5750858301515b600019600386901b1c1916600185901b178555620008f3565b600085815260208120601f198616915b82811015620009995788860151825594840194600190910190840162000978565b5085821015620009b85787850151600019600388901b60f8161c191681555b5050505050600190811b01905550565b634e487b7160e01b600052601160045260246000fd5b600181815b8085111562000a1f57816000190482111562000a035762000a03620009c8565b8085161562000a1157918102915b93841c9390800290620009e3565b509250929050565b60008262000a385750600162000843565b8162000a475750600062000843565b816001811462000a60576002811462000a6b5762000a8b565b600191505062000843565b60ff84111562000a7f5762000a7f620009c8565b50506001821b62000843565b5060208310610133831016604e8410600b841016171562000ab0575081810a62000843565b62000abc8383620009de565b806000190482111562000ad35762000ad3620009c8565b029392505050565b600062000aec60ff84168362000a27565b9392505050565b8082028115828204841417620008435762000843620009c8565b60008262000b2b57634e487b7160e01b600052601260045260246000fd5b500490565b60006020828403121562000b4357600080fd5b81516001600160a01b038116811462000aec57600080fd5b80820180821115620008435762000843620009c8565b6080516146fb62000b94600039600081816115e5015261162701526146fb6000f3fe6080604052600436106104085760003560e01c806366666aa911610213578063aa9bbc0c11610123578063dd62ed3e116100ab578063f5415cbb1161007a578063f5415cbb14610d07578063f887ea4014610d27578063fc2a88c314610d47578063fd39ef7814610d5d578063fd6e28cf14610d7d57600080fd5b8063dd62ed3e14610c61578063df20fd4914610ca7578063f25c7ea414610cc7578063f2fde38b14610ce757600080fd5b8063c3ec8897116100f2578063c3ec889714610baa578063c6b61e4c14610bc0578063d02c639414610c17578063d3a9ffc414610c2c578063d547741f14610c4157600080fd5b8063aa9bbc0c14610b2b578063ab7573dd14610b41578063c26d68f914610b6e578063c315432a14610b9057600080fd5b80638796ba8c116101a657806395d89b411161017557806395d89b4114610aa157806396eb64a914610ab6578063a217fddf14610ad6578063a8aa1b3114610aeb578063a9059cbb14610b0b57600080fd5b80638796ba8c14610a135780638c5799ce14610a335780638da5cb5b14610a6357806391d1485414610a8157600080fd5b806370a08231116101e257806370a082311461099c578063715018a6146109bc57806373a432bb146109d157806375b238fc146109f157600080fd5b806366666aa9146109245780636789c92c146109445780636cbc2ded146109665780636ddd17131461097b57600080fd5b806323b872dd1161031957806343d4f92b116102a157806354d41b5b1161027057806354d41b5b14610871578063571ac8b01461089e5780635bc04469146108be578063636ee0db146108d4578063658d4b7f1461090457600080fd5b806343d4f92b146108105780634726319f146108305780634e71d92d146108465780635119c9711461085b57600080fd5b8063313ce567116102e8578063313ce5671461075c57806331d7a2621461077857806336568abe146107a55780633aab0a62146107c55780633eca5343146107da57600080fd5b806323b872dd146106b3578063248a9ca3146106d35780632598cdb2146107045780632f2ff15d1461073c57600080fd5b80630e04a7d81161039c578063196228c01161036b578063196228c0146106335780631bd8ebe1146106485780631ce78ac81461065e5780631fe543e3146106735780632198cf6c1461069357600080fd5b80630e04a7d8146105885780630f44e894146105a75780631781e17c146105d357806318160ddd1461061e57600080fd5b806305dc0394116103d857806305dc039414610501578063064a59d01461052557806306fdde0314610546578063095ea7b31461056857600080fd5b80627f27ae14610414578063014c58a31461043657806301ffc9a71461049657806302b2553e146104b657600080fd5b3661040f57005b600080fd5b34801561042057600080fd5b5061043461042f366004614026565b610dc8565b005b34801561044257600080fd5b50610481610451366004614026565b60265460009081526027602090815260408083206001600160a01b03909416835260049093019052205460ff1690565b60405190151581526020015b60405180910390f35b3480156104a257600080fd5b506104816104b1366004614043565b611174565b3480156104c257600080fd5b506104816104d1366004614026565b60265460009081526027602090815260408083206001600160a01b03909416835260059093019052205460ff1690565b34801561050d57600080fd5b5061051760295481565b60405190815260200161048d565b34801561053157600080fd5b5060195461048190600160a01b900460ff1681565b34801561055257600080fd5b5061055b6111ab565b60405161048d919061406d565b34801561057457600080fd5b506104816105833660046140bb565b61123d565b34801561059457600080fd5b5060405461048190610100900460ff1681565b3480156105b357600080fd5b506105176105c2366004614026565b602080526000908152604090205481565b3480156105df57600080fd5b506104816105ee366004614026565b60265460009081526027602090815260408083206001600160a01b03909416835260089093019052205460ff1690565b34801561062a57600080fd5b50600454610517565b34801561063f57600080fd5b506104346112a9565b34801561065457600080fd5b5061051760285481565b34801561066a57600080fd5b506104346115a4565b34801561067f57600080fd5b5061043461068e366004614152565b6115da565b34801561069f57600080fd5b506104346106ae366004614209565b61165e565b3480156106bf57600080fd5b506104816106ce36600461423e565b611691565b3480156106df57600080fd5b506105176106ee36600461427f565b6000908152600160208190526040909120015490565b34801561071057600080fd5b50601054610724906001600160a01b031681565b6040516001600160a01b03909116815260200161048d565b34801561074857600080fd5b50610434610757366004614298565b611766565b34801561076857600080fd5b506040516012815260200161048d565b34801561078457600080fd5b50610517610793366004614026565b601f6020526000908152604090205481565b3480156107b157600080fd5b506104346107c0366004614298565b611792565b3480156107d157600080fd5b506104346117ca565b3480156107e657600080fd5b506107246107f5366004614026565b601d602052600090815260409020546001600160a01b031681565b34801561081c57600080fd5b5061043461082b366004614026565b611828565b34801561083c57600080fd5b5061051760335481565b34801561085257600080fd5b50610434611889565b34801561086757600080fd5b5061051760425481565b34801561087d57600080fd5b5061051761088c366004614026565b60236020526000908152604090205481565b3480156108aa57600080fd5b506104816108b9366004614026565b611a6e565b3480156108ca57600080fd5b50610517602a5481565b3480156108e057600080fd5b506104816108ef366004614026565b601c6020526000908152604090205460ff1681565b34801561091057600080fd5b5061043461091f366004614209565b611a7c565b34801561093057600080fd5b50602154610724906001600160a01b031681565b34801561095057600080fd5b50610959611aaf565b60405161048d919061430c565b34801561097257600080fd5b50610434611b1e565b34801561098757600080fd5b5060195461048190600160a81b900460ff1681565b3480156109a857600080fd5b506105176109b7366004614026565b611b9c565b3480156109c857600080fd5b50610434611bb7565b3480156109dd57600080fd5b506104346109ec366004614026565b611bc9565b3480156109fd57600080fd5b506105176000805160206146a683398151915281565b348015610a1f57600080fd5b50610517610a2e36600461427f565b611c0b565b348015610a3f57600080fd5b50610481610a4e366004614026565b60246020526000908152604090205460ff1681565b348015610a6f57600080fd5b506000546001600160a01b0316610724565b348015610a8d57600080fd5b50610481610a9c366004614298565b611c2c565b348015610aad57600080fd5b5061055b611c57565b348015610ac257600080fd5b50610434610ad1366004614026565b611c66565b348015610ae257600080fd5b50610517600081565b348015610af757600080fd5b50601954610724906001600160a01b031681565b348015610b1757600080fd5b50610481610b263660046140bb565b611df7565b348015610b3757600080fd5b5061051760265481565b348015610b4d57600080fd5b50610517610b5c366004614026565b601e6020526000908152604090205481565b348015610b7a57600080fd5b50610b83611e29565b60405161048d919061431f565b348015610b9c57600080fd5b506040546104819060ff1681565b348015610bb657600080fd5b5061051760435481565b348015610bcc57600080fd5b50610bfc610bdb36600461427f565b60276020526000908152604090208054600182015460029092015490919083565b6040805193845260208401929092529082015260600161048d565b348015610c2357600080fd5b50610434611e68565b348015610c3857600080fd5b50610434611e78565b348015610c4d57600080fd5b50610434610c5c366004614298565b6121f3565b348015610c6d57600080fd5b50610517610c7c366004614359565b6001600160a01b03918216600090815260086020908152604080832093909416825291909152205490565b348015610cb357600080fd5b50610434610cc2366004614387565b612219565b348015610cd357600080fd5b50610434610ce236600461427f565b612294565b348015610cf357600080fd5b50610434610d02366004614026565b612318565b348015610d1357600080fd5b50610434610d223660046143a3565b612356565b348015610d3357600080fd5b50601854610724906001600160a01b031681565b348015610d5357600080fd5b5061051760145481565b348015610d6957600080fd5b50610434610d7836600461427f565b6125b7565b348015610d8957600080fd5b50610481610d98366004614026565b60265460009081526027602090815260408083206001600160a01b03909416835260039093019052205460ff1690565b6001600160a01b0381163314610e165760405162461bcd60e51b815260206004820152600e60248201526d139bdd08185d5d1a1bdc9a5e995960921b60448201526064015b60405180910390fd5b6026546000908152602760205260409020600201544210610e495760405162461bcd60e51b8152600401610e0d9061443d565b60265460009081526027602090815260408083203384526007019091528120549003610ece5760405162461bcd60e51b815260206004820152602e60248201527f596f7520686176656e277420626f7567687420612063617073756c652064757260448201526d0d2dcce40e8d0d2e640cae0dec6d60931b6064820152608401610e0d565b602654600090815260276020908152604080832033845260050190915290205460ff1615610f495760405162461bcd60e51b815260206004820152602260248201527f596f7527766520616c7265616479206f70656e656420796f75722063617073756044820152616c6560f01b6064820152608401610e0d565b602654600090815260276020908152604080832033845260080190915290205460ff161515600114610fcd5760405162461bcd60e51b815260206004820152602760248201527f596f75722072657175657374206861736e2774206265656e2066756c6c66696c6044820152661b1959081e595d60ca1b6064820152608401610e0d565b6026546000908152602760209081526040808320338452600701909152812054610ff6906125d5565b90506001811015801561100a575060288111155b1561104a57602f805490600061101f83614497565b9091555050602b805490600061103483614497565b9190505550611046826001600061271a565b5050565b6029811015801561105c5750604b8111155b15611098576030805490600061107183614497565b9091555050602c805490600061108683614497565b9190505550611046826002600061271a565b604c81101580156110aa575060618111155b156110e657603180549060006110bf83614497565b9091555050602d80549060006110d483614497565b9190505550611046826003600061271a565b606281101580156110f957506022548111155b15611046576032805490600061110e83614497565b9091555050602e805490600061112383614497565b909155505060265460009081526027602090815260408220600901805460018082018355918452919092200180546001600160a01b0319166001600160a01b0385161790556110469083908061271a565b60006001600160e01b03198216637965db0b60e01b14806111a557506301ffc9a760e01b6001600160e01b03198316145b92915050565b6060600280546111ba906144b0565b80601f01602080910402602001604051908101604052809291908181526020018280546111e6906144b0565b80156112335780601f1061120857610100808354040283529160200191611233565b820191906000526020600020905b81548152906001019060200180831161121657829003601f168201915b5050505050905090565b3360008181526008602090815260408083206001600160a01b038716808552925280832085905551919290917f8c5be1e5ebec7d5bd14f71427d1e84f3dd0314c0f7b2291e5b200ac8c7c3b925906112989086815260200190565b60405180910390a350600192915050565b60006103e8602a546102ee6112be91906144e4565b6112c89190614511565b602654600090815260276020908152604080832033845260030190915290205490915060ff16156113575760405162461bcd60e51b815260206004820152603360248201527f596f752068617665206f6e6c79206f6e6520616374696f6e207065722065706f6044820152726368203a20627579206f72207570677261646560681b6064820152608401610e0d565b602654600090815260276020908152604080832033845260040190915290205460ff16156113e65760405162461bcd60e51b815260206004820152603660248201527f596f7527766520616c726561647920757067726164656420796f7572207661636044820152750c6d2dcca40c8eae4d2dcce40e8d0d2e640cae0dec6d60531b6064820152608401610e0d565b33600090815260236020526040902054158015906114135750336000908152602360205260409020546003115b61146b5760405162461bcd60e51b815260206004820152602360248201527f596f7520646f6e2774206861766520612076616363696e6520746f207570677260448201526261646560e81b6064820152608401610e0d565b8061147533611b9c565b10156114d55760405162461bcd60e51b815260206004820152602960248201527f4e6f7420656e6f75676820746f6b656e7320746f207570677261646520796f75604482015268722076616363696e6560b81b6064820152608401610e0d565b60265460009081526027602052604090206002015442106115085760405162461bcd60e51b8152600401610e0d9061443d565b60265460009081526027602090815260408083203384526004019091528120805460ff191660011790556103e86115408360326144e4565b61154a9190614511565b6021549091506000906115719033906001600160a01b031661156c8587614525565b612816565b905061157e333084612816565b5033600090815260236020526040812080549161159a83614497565b9190505550505050565b6115ac6128be565b6019805461ffff60a01b191661010160a01b179081905560ff600160a01b90910416156115d857426049555b565b336001600160a01b037f000000000000000000000000000000000000000000000000000000000000000016146116545760405163073e64fd60e21b81523360048201526001600160a01b037f0000000000000000000000000000000000000000000000000000000000000000166024820152604401610e0d565b61104682826128eb565b6116666128be565b6001600160a01b03919091166000908152600a60205260409020805460ff1916911515919091179055565b6001600160a01b03831660009081526008602090815260408083203384529091528120548211156117155760405162461bcd60e51b815260206004820152602860248201527f45524332303a207472616e7366657220616d6f756e74206578636565647320616044820152676c6c6f77616e636560c01b6064820152608401610e0d565b6117208484846129f1565b506001600160a01b03841660009081526008602090815260408083203380855292529091205461175c918691611757908690614525565b612d3a565b5060019392505050565b6000828152600160208190526040909120015461178281612e5e565b61178c8383612e68565b50505050565b6001600160a01b03811633146117bb5760405163334bd91960e11b815260040160405180910390fd5b6117c58282612ee1565b505050565b6000805160206146a68339815191526117e281612e5e565b6117ea612f4e565b7fa7ef457c4bdaa5cf9805314ebb0d85316230de6508df8ba03db8e27901cc147d60265460405161181d91815260200190565b60405180910390a150565b6118306128be565b601080546001600160a01b0319166001600160a01b0392831690811782556000908152600960209081526040808320805460ff19908116600190811790925594549095168352600a909152902080549091169091179055565b3332146118c05760405162461bcd60e51b815260206004820152600560248201526432b93937b960d91b6044820152606401610e0d565b336000908152601f60205260409020546119115760405162461bcd60e51b81526020600482015260126024820152716e6f2070656e64696e67207265776172647360701b6044820152606401610e0d565b336000908152601f602052604081208054908290556049549091906119399062015180614538565b42101561196657606461194d8360196144e4565b6119579190614511565b90506119638183614525565b91505b8015611986576021546119849030906001600160a01b031683612816565b505b6000611993303385612816565b9050806119d45760405162461bcd60e51b815260206004820152600f60248201526e1d1c985b9cd9995c8819985a5b1959608a1b6044820152606401610e0d565b336000908152601e6020526040812080548592906119f3908490614538565b925050819055508260426000828254611a0c9190614538565b925050819055508260416000828254611a259190614525565b90915550611a339050613126565b60405183815233907f620fc7379f7c67f4289f23e24a7f28f721792b0e898e2af03581b2e73e604a53906020015b60405180910390a2505050565b60006111a58260001961123d565b611a846128be565b6001600160a01b03919091166000908152600960205260409020805460ff1916911515919091179055565b60265460009081526027602090815260409182902060090180548351818402810184019094528084526060939283018282801561123357602002820191906000526020600020905b81546001600160a01b03168152600190910190602001808311611af7575050505050905090565b6000805160206146a6833981519152611b3681612e5e565b604954611b469062093a80614538565b421015611b8a5760405162461bcd60e51b815260206004820152601260248201527143616e277420656e64207468652067616d6560701b6044820152606401610e0d565b506040805461ff001916610100179055565b6001600160a01b031660009081526007602052604090205490565b611bbf6128be565b6115d86000613328565b611bd16128be565b601980546001600160a01b039092166001600160a01b0319909216821790556000908152600a60205260409020805460ff19166001179055565b60138181548110611c1b57600080fd5b600091825260209091200154905081565b60009182526001602090815260408084206001600160a01b0393909316845291905290205460ff1690565b6060600380546111ba906144b0565b6001600160a01b0381166000908152601c602052604090205460ff1615611cc25760405162461bcd60e51b815260206004820152601060248201526f105b1c9958591e481a5b999958dd195960821b6044820152606401610e0d565b6001611ccd33611b9c565b1015611d1b5760405162461bcd60e51b815260206004820152601b60248201527f4e6f7420656e6f75676820746f6b656e7320746f20696e6665637400000000006044820152606401610e0d565b336000908152601c602052604090205460ff161515600114611d755760405162461bcd60e51b8152602060048201526013602482015272165bdd49dc99481b9bdd081a5b999958dd1959606a1b6044820152606401610e0d565b6001600160a01b0381166000908152601d6020908152604080832080546001600160a01b03191633908117909155601c8352818420805460ff1916600117905583529080528120805491611dc883614497565b909155505060438054906000611ddd83614497565b919050555060006117c53383670de0b6b3a7640000612816565b6019546000906001600160a01b03163303611e1e57611e173384846129f1565b90506111a5565b611e17338484612816565b611e31613f4b565b6040805160a0810191829052604480546001600160a01b031682529091600590604560208501808311611af7575050505050905090565b611e706128be565b600454600655565b602a54336000908152601c602052604090205460ff16611ed15760405162461bcd60e51b8152602060048201526014602482015273165bdd48185c99481b9bdd081a5b999958dd195960621b6044820152606401610e0d565b60405460ff16611f1a5760405162461bcd60e51b815260206004820152601460248201527311d85b59481a185cc81b9bdd081cdd185c9d195960621b6044820152606401610e0d565b80611f2433611b9c565b1015611f7d5760405162461bcd60e51b815260206004820152602260248201527f4e6f7420656e6f75676820746f6b656e7320746f2062757920612063617073756044820152616c6560f01b6064820152608401610e0d565b6026546000908152602760205260409020600201544210611fb05760405162461bcd60e51b8152600401610e0d9061443d565b602654600090815260276020908152604080832033845260030190915290205460ff161561203a5760405162461bcd60e51b815260206004820152603160248201527f596f7527766520616c726561647920626f7567687420612063617073756c65206044820152700c8eae4d2dcce40e8d0d2e640cae0dec6d607b1b6064820152608401610e0d565b602654600090815260276020908152604080832033845260040190915290205460ff16156120c65760405162461bcd60e51b815260206004820152603360248201527f596f75206f6e6c792068617665206f6e6520616374696f6e207065722065706f6044820152726368203a20627579206f72207570677261646560681b6064820152608401610e0d565b602980549060006120d683614497565b9091555050602880549060006120eb83614497565b909155505060265460009081526027602090815260408083203384526003019091528120805460ff191660011790556103e86121288360c86144e4565b6121329190614511565b90506121413361dead83612816565b506021546000906121619033906001600160a01b031661156c8587614525565b9050600061216d613378565b602680546000908152602760208181526040808420868552600601825280842080546001600160a01b03191633908117909155945484529181528183208484526007018152918190208490555183815292935090917f56e18f08766f396148d5b13331a86d9ce4ea3d9c08821cf829ccf881a6fff8bf910160405180910390a250505050565b6000828152600160208190526040909120015461220f81612e5e565b61178c8383612ee1565b6122216128be565b60018110156122725760405162461bcd60e51b815260206004820152601f60248201527f43616e27742073657420537761705468726573686f6c6420746f205a45524f006044820152606401610e0d565b60198054921515600160a81b0260ff60a81b1990931692909217909155601a55565b6000805160206146a68339815191526122ac81612e5e565b602e548210156123125760405162461bcd60e51b815260206004820152602b60248201527f43616e2774207265647563652076616363696e6520737570706c79206475726960448201526a0dcce40c2dc40cae0dec6d60ab1b6064820152608401610e0d565b50603355565b6123206128be565b6001600160a01b03811661234a57604051631e4fbdf760e01b815260006004820152602401610e0d565b61235381613328565b50565b61235e6128be565b60005b815181101561104657601c60008383815181106123805761238061454b565b6020908102919091018101516001600160a01b031682528101919091526040016000205460ff16156123e75760405162461bcd60e51b815260206004820152601060248201526f105b1c9958591e481a5b999958dd195960821b6044820152606401610e0d565b60016123f233611b9c565b10156124405760405162461bcd60e51b815260206004820152601b60248201527f6e6f7420656e6f75676820746f6b656e7320746f20696e6665637400000000006044820152606401610e0d565b336000908152601c602052604090205460ff1615156001146124935760405162461bcd60e51b815260206004820152600c60248201526b1b9bdd081a5b999958dd195960a21b6044820152606401610e0d565b33601d60008484815181106124aa576124aa61454b565b60200260200101516001600160a01b03166001600160a01b0316815260200190815260200160002060006101000a8154816001600160a01b0302191690836001600160a01b031602179055506001601c600084848151811061250e5761250e61454b565b6020908102919091018101516001600160a01b031682528181019290925260409081016000908120805460ff191694151594909417909355338352908052812080549161255a83614497565b90915550506043805490600061256f83614497565b919050555060006125a23384848151811061258c5761258c61454b565b6020026020010151670de0b6b3a7640000612816565b508190506125af81614497565b915050612361565b6000805160206146a68339815191526125cf81612e5e565b50602255565b600081815260176020526040812054610100900460ff1661262c5760405162461bcd60e51b81526020600482015260116024820152701c995c5d595cdd081b9bdd08199bdd5b99607a1b6044820152606401610e0d565b60008281526017602090815260408083208151606081018352815460ff80821615158352610100909104161515818501526001820180548451818702810187018652818152929593948601938301828280156126a757602002820191906000526020600020905b815481526020019060010190808311612693575b5050505050815250509050603354602e54106126fa57606181604001516000815181106126d6576126d661454b565b60200260200101516126e89190614561565b6126f3906001614538565b9392505050565b60225481604001516000815181106126d6576126d661454b565b50919050565b6001600160a01b03831660009081526024602052604090205460ff1661279e576025805460018082019092557f401968ff42a154441da5f6c4c935ac46b8671f0e062baaa62a7545ba53bb6e4c0180546001600160a01b0319166001600160a01b0386169081179091556000908152602460205260409020805460ff191690911790555b6001600160a01b0383166000818152602360209081526040808320869055602654835260278252808320848452600501825291829020805460ff191660011790558151858152841515918101919091527fc05909672b3730633581d6cf7b807382b3572d7805ace294b8d4b3558c5cc7ff9101611a61565b6001600160a01b03831660009081526007602052604081205461283a908390614525565b6001600160a01b03808616600090815260076020526040808220939093559085168152205461286a908390614538565b6001600160a01b038085166000818152600760205260409081902093909355915190861690600080516020614686833981519152906128ac9086815260200190565b60405180910390a35060019392505050565b6000546001600160a01b031633146115d85760405163118cdaa760e01b8152336004820152602401610e0d565b600082815260176020526040902054610100900460ff166129425760405162461bcd60e51b81526020600482015260116024820152701c995c5d595cdd081b9bdd08199bdd5b99607a1b6044820152606401610e0d565b6000828152601760209081526040909120805460ff1916600190811782558351612973939290910191840190613f69565b506026546000908152602760209081526040808320858452600681018352818420546001600160a01b0316845260080190915290819020805460ff19166001179055517ffe2e2d779dba245964d4e3ef9b994be63856fd568bf7d3ca9e224755cb1bd54d906129e59084908490614575565b60405180910390a15050565b6001600160a01b03831660009081526009602052604081205460ff1680612a3057506001600160a01b03831660009081526009602052604090205460ff165b80612a445750601954600160a01b900460ff165b612a905760405162461bcd60e51b815260206004820152601b60248201527f4e6f7420617574686f72697a656420746f2074726164652079657400000000006044820152606401610e0d565b6019546001600160a01b03848116911614612afc576001600160a01b0383166000908152601c602052604090205460ff16612afc5760405162461bcd60e51b815260206004820152600c60248201526b139bdd081a5b999958dd195960a21b6044820152606401610e0d565b6000546001600160a01b03858116911614801590612b2857506000546001600160a01b03848116911614155b8015612b3f57506001600160a01b03831661dead14155b15612c05576019546001600160a01b03848116911614612c05576001600160a01b0383166000908152600a602052604090205460ff1680612ba557506006546001600160a01b038416600090815260076020526040902054612ba2908490614538565b11155b612c055760405162461bcd60e51b815260206004820152602b60248201527f5472616e7366657220616d6f756e74206578636565647320746865204d61785760448201526a30b63632ba1039b4bd329760a91b6064820152608401610e0d565b612c0d613534565b8015612c2657506019546001600160a01b038481169116145b15612c3357612c33613592565b6001600160a01b038416600090815260076020526040902054612c57908390614525565b6001600160a01b038516600090815260076020908152604080832093909355600990529081205460ff16151580612ca857506001600160a01b03841660009081526009602052604090205460ff1615155b612cbc57612cb7858585613778565b612cbe565b825b6001600160a01b038516600090815260076020526040902054909150612ce5908290614538565b6001600160a01b03808616600081815260076020526040908190209390935591519087169060008051602061468683398151915290612d279085815260200190565b60405180910390a3506001949350505050565b6001600160a01b038316612d9c5760405162461bcd60e51b8152602060048201526024808201527f45524332303a20617070726f76652066726f6d20746865207a65726f206164646044820152637265737360e01b6064820152608401610e0d565b6001600160a01b038216612dfd5760405162461bcd60e51b815260206004820152602260248201527f45524332303a20617070726f766520746f20746865207a65726f206164647265604482015261737360f01b6064820152608401610e0d565b6001600160a01b0383811660008181526008602090815260408083209487168084529482529182902085905590518481527f8c5be1e5ebec7d5bd14f71427d1e84f3dd0314c0f7b2291e5b200ac8c7c3b925910160405180910390a3505050565b6123538133613c32565b6000612e748383611c2c565b612ed95760008381526001602081815260408084206001600160a01b0387168086529252808420805460ff19169093179092559051339286917f2f8788117e7eff1d82e926ec794901d17c78024a50270940304540a733656f0d9190a45060016111a5565b5060006111a5565b6000612eed8383611c2c565b15612ed95760008381526001602090815260408083206001600160a01b0386168085529252808320805460ff1916905551339286917ff6391f5c32d9c69d2a47ea670b442974b53935d1edc7fd64eb21e047a839171b9190a45060016111a5565b60265460009081526027602052604090206009015415612fe15760215460265460009081526027602052604090819020905163f25addf560e01b81526001600160a01b039092169163f25addf591612fae916009909101906004016145c3565b600060405180830381600087803b158015612fc857600080fd5b505af1158015612fdc573d6000803e3d6000fd5b505050505b60268054906000612ff183614497565b909155505060265460008181526027602052604090209081554260019091018190556130209062014370614538565b602654600090815260276020526040812060020191909155602b819055602c819055602d819055602e81905560288190555b60255481101561310557600060236000602584815481106130755761307561454b565b60009182526020808320909101546001600160a01b0316835282019290925260400190205411156130f357600160236000602584815481106130b9576130b961454b565b60009182526020808320909101546001600160a01b03168352820192909252604001812080549091906130ed908490614525565b90915550505b806130fd81614497565b915050613052565b5060405460ff1661311e576040805460ff191660011790555b6115d8613c6b565b3361312f613f4b565b613137613f4b565b6000805b60058110156131a057601e60006044836005811061315b5761315b61454b565b01546001600160a01b031681526020810191909152604001600020548482600581106131895761318961454b565b60200201528061319881614497565b91505061313b565b5060005b60058110156131f057846001600160a01b0316604482600581106131ca576131ca61454b565b01546001600160a01b0316036131de578091505b806131e881614497565b9150506131a4565b506001600160a01b0384166000908152601e60205260409020548351108015613224575061322060016005614525565b8114155b1561178c578060000361323e576001600160a01b03841682525b600061324b826001614538565b90505b6005811015613313576001600160a01b0385166000908152601e60205260409020548482600581106132825761328261454b565b6020020151101561330157604481600581106132a0576132a061454b565b01546001600160a01b0316836132b7600184614525565b600581106132c7576132c761454b565b6001600160a01b039092166020929092020152848382600581106132ed576132ed61454b565b6001600160a01b0390921660209290920201525b8061330b81614497565b91505061324e565b506133216044836005613fb4565b5050505050565b600080546001600160a01b038381166001600160a01b0319831681178455604051919092169283917f8be0079c531659141344cd1fd0a4f28419497f9722a3daafe3b4186f6b6457e09190a35050565b6012546015546016546040516305d3b1d360e41b81526004810192909252600160a01b830467ffffffffffffffff166024830152640100000000810461ffff16604483015263ffffffff808216606484015266010000000000009091041660848201526000916001600160a01b031690635d3b1d309060a4016020604051808303816000875af1158015613410573d6000803e3d6000fd5b505050506040513d601f19601f820116820180604052508101906134349190614613565b6040805160608101825260008082526001602080840182815285518481528083018752858701908152878552601783529590932084518154945161ffff1990951690151561ff001916176101009415159490940293909317835593518051959650929491936134a99391850192910190613f69565b5050601380546001810182556000919091527f66de8ffda797e3de9c05e8fc57b3bf0ec28a930d40b0d285d93c06501cf6a0900182905550601481905560165460408051838152660100000000000090920463ffffffff1660208301527fcc58b13ad3eab50626c6a6300b1d139cd6ebb1688a7cced9461c2f7e762665ee910160405180910390a190565b6019546000906001600160a01b031633148015906135555750601b5460ff16155b801561356a5750601954600160a81b900460ff165b801561358d5750601a5460415461358030611b9c565b61358a9190614525565b10155b905090565b601b805460ff191660011790556041546000906135ae30611b9c565b6135b89190614525565b604080516002808252606082018352929350600092909160208301908036833701905050905030816000815181106135f2576135f261454b565b6001600160a01b03928316602091820292909201810191909152601854604080516315ab88c960e31b81529051919093169263ad5c46489260048083019391928290030181865afa15801561364b573d6000803e3d6000fd5b505050506040513d601f19601f8201168201806040525081019061366f919061462c565b816001815181106136825761368261454b565b6001600160a01b0392831660209182029290920101526018541663791ac94783600084306136b24261012c614538565b6040518663ffffffff1660e01b81526004016136d2959493929190614649565b600060405180830381600087803b1580156136ec57600080fd5b505af1158015613700573d6000803e3d6000fd5b504792505081159050613769576010546040516000916001600160a01b03169061753090849084818181858888f193505050503d806000811461375f576040519150601f19603f3d011682016040523d82523d6000602084013e613764565b606091505b505050505b5050601b805460ff1916905550565b60195460009081908190819081906001600160a01b0389811691161480156137ae57506019546001600160a01b03888116911614155b1561397b57604054610100900460ff16156137e3576127106137d2876126ac6144e4565b6137dc9190614511565b9350613b38565b6001600160a01b0387166000908152602360205260409020546001036138925760036127106034548861381691906144e4565b6138209190614511565b61382a9190614511565b6001600160a01b038089166000908152601d60209081526040808320549093168252601f90529081208054929650869550859450849290919061386e908490614538565b9250508190555082604160008282546138879190614538565b909155506139769050565b6001600160a01b0387166000908152602360205260409020546002036138c55760036127106035548861381691906144e4565b6001600160a01b0387166000908152602360205260409020546003036138f85760036127106036548861381691906144e4565b612710600c548761390991906144e4565b6139139190614511565b6001600160a01b038089166000908152601d60209081526040808320549093168252601f905290812080549296508695508594508492909190613957908490614538565b9250508190555082604160008282546139709190614538565b90915550505b613b38565b6019546001600160a01b038981169116148015906139a657506019546001600160a01b038881169116145b15613b3857604054610100900460ff16156139c9576127106137d287600a6144e4565b6001600160a01b038816600090815260236020526040902054600103613a54576003612710603754886139fc91906144e4565b613a069190614511565b613a109190614511565b6001600160a01b03808a166000908152601d60209081526040808320549093168252601f905290812080549296508695508594508492909190613957908490614538565b6001600160a01b038816600090815260236020526040902054600203613a87576003612710603854886139fc91906144e4565b6001600160a01b038816600090815260236020526040902054600303613aba576003612710603954886139fc91906144e4565b612710600e5487613acb91906144e4565b613ad59190614511565b6001600160a01b03808a166000908152601d60209081526040808320549093168252601f905290812080549296508695508594508492909190613b19908490614538565b925050819055508260416000828254613b329190614538565b90915550505b81613b438486614538565b613b4d9190614538565b90508015613c1c57613b5f8282614525565b3060009081526007602052604081208054909190613b7e908490614538565b90915550506021546001600160a01b031660009081526007602052604081208054849290613bad908490614538565b909155503090506001600160a01b038916600080516020614686833981519152613bd78585614525565b60405190815260200160405180910390a36021546040518381526001600160a01b03918216918a16906000805160206146868339815191529060200160405180910390a35b613c268187614525565b98975050505050505050565b613c3c8282611c2c565b6110465760405163e2517d3f60e01b81526001600160a01b038216600482015260248101839052604401610e0d565b600554613c9e600554602654603a54613c8491906144e4565b613c8f9060646144e4565b613c9991906144e4565b613db9565b600b54613cab9190614525565b613cb59190614511565b603455600554602654603b54613cd1918391613c8491906144e4565b600b54613cde9190614525565b613ce89190614511565b603555600554602654603c54613d04918391613c8491906144e4565b600b54613d119190614525565b613d1b9190614511565b603655600554602654603d54613d37918391613c8491906144e4565b600d54613d449190614525565b613d4e9190614511565b603755600554602654603e54613d6a918391613c8491906144e4565b600d54613d779190614525565b613d819190614511565b603855600554602654603f54613d9d918391613c8491906144e4565b600d54613daa9190614525565b613db49190614511565b603955565b600081600003613dcb57506000919050565b60006001613dd884613ea1565b901c6001901b90506001818481613df157613df16144fb565b048201901c90506001818481613e0957613e096144fb565b048201901c90506001818481613e2157613e216144fb565b048201901c90506001818481613e3957613e396144fb565b048201901c90506001818481613e5157613e516144fb565b048201901c90506001818481613e6957613e696144fb565b048201901c90506001818481613e8157613e816144fb565b048201901c90506126f381828581613e9b57613e9b6144fb565b04613f35565b600080608083901c15613eb657608092831c92015b604083901c15613ec857604092831c92015b602083901c15613eda57602092831c92015b601083901c15613eec57601092831c92015b600883901c15613efe57600892831c92015b600483901c15613f1057600492831c92015b600283901c15613f2257600292831c92015b600183901c156111a55760010192915050565b6000818310613f4457816126f3565b5090919050565b6040518060a001604052806005906020820280368337509192915050565b828054828255906000526020600020908101928215613fa4579160200282015b82811115613fa4578251825591602001919060010190613f89565b50613fb0929150613ffc565b5090565b8260058101928215613fa4579160200282015b82811115613fa457825182546001600160a01b0319166001600160a01b03909116178255602090920191600190910190613fc7565b5b80821115613fb05760008155600101613ffd565b6001600160a01b038116811461235357600080fd5b60006020828403121561403857600080fd5b81356126f381614011565b60006020828403121561405557600080fd5b81356001600160e01b0319811681146126f357600080fd5b600060208083528351808285015260005b8181101561409a5785810183015185820160400152820161407e565b506000604082860101526040601f19601f8301168501019250505092915050565b600080604083850312156140ce57600080fd5b82356140d981614011565b946020939093013593505050565b634e487b7160e01b600052604160045260246000fd5b604051601f8201601f1916810167ffffffffffffffff81118282101715614126576141266140e7565b604052919050565b600067ffffffffffffffff821115614148576141486140e7565b5060051b60200190565b6000806040838503121561416557600080fd5b8235915060208084013567ffffffffffffffff81111561418457600080fd5b8401601f8101861361419557600080fd5b80356141a86141a38261412e565b6140fd565b81815260059190911b820183019083810190888311156141c757600080fd5b928401925b828410156141e5578335825292840192908401906141cc565b80955050505050509250929050565b8035801515811461420457600080fd5b919050565b6000806040838503121561421c57600080fd5b823561422781614011565b9150614235602084016141f4565b90509250929050565b60008060006060848603121561425357600080fd5b833561425e81614011565b9250602084013561426e81614011565b929592945050506040919091013590565b60006020828403121561429157600080fd5b5035919050565b600080604083850312156142ab57600080fd5b8235915060208301356142bd81614011565b809150509250929050565b600081518084526020808501945080840160005b838110156143015781516001600160a01b0316875295820195908201906001016142dc565b509495945050505050565b6020815260006126f360208301846142c8565b60a08101818360005b60058110156143505781516001600160a01b0316835260209283019290910190600101614328565b50505092915050565b6000806040838503121561436c57600080fd5b823561437781614011565b915060208301356142bd81614011565b6000806040838503121561439a57600080fd5b6140d9836141f4565b600060208083850312156143b657600080fd5b823567ffffffffffffffff8111156143cd57600080fd5b8301601f810185136143de57600080fd5b80356143ec6141a38261412e565b81815260059190911b8201830190838101908783111561440b57600080fd5b928401925b8284101561443257833561442381614011565b82529284019290840190614410565b979650505050505050565b60208082526024908201527f45706f6368206973206f7665722c207761697420666f7220746865206e657874604082015263206f6e6560e01b606082015260800190565b634e487b7160e01b600052601160045260246000fd5b6000600182016144a9576144a9614481565b5060010190565b600181811c908216806144c457607f821691505b60208210810361271457634e487b7160e01b600052602260045260246000fd5b80820281158282048414176111a5576111a5614481565b634e487b7160e01b600052601260045260246000fd5b600082614520576145206144fb565b500490565b818103818111156111a5576111a5614481565b808201808211156111a5576111a5614481565b634e487b7160e01b600052603260045260246000fd5b600082614570576145706144fb565b500690565b6000604082018483526020604081850152818551808452606086019150828701935060005b818110156145b65784518352938301939183019160010161459a565b5090979650505050505050565b6020808252825482820181905260008481528281209092916040850190845b818110156146075783546001600160a01b0316835260019384019392850192016145e2565b50909695505050505050565b60006020828403121561462557600080fd5b5051919050565b60006020828403121561463e57600080fd5b81516126f381614011565b85815284602082015260a06040820152600061466860a08301866142c8565b6001600160a01b039490941660608301525060800152939250505056feddf252ad1be2c89b69c2b068fc378daa952ba7f163c4a11628f55a4df523b3efa49807205ce4d355092ef5a8a18f56e8913cf4a201fbe287825b095693c21775a26469706673582212208c7a4c930eab2fd45d0595f9f1fc19b76435f545c8a98b5b9351803f28bf5d5064736f6c63430008140033608060408190526001546318160ddd60e01b82526103e8916001600160a01b03909116906318160ddd90608490602090600481865afa158015610046573d6000803e3d6000fd5b505050506040513d601f19601f8201168201806040525081019061006a919061016b565b610075906019610184565b61007f91906101af565b600355600060045534801561009357600080fd5b5060405161096f38038061096f8339810160408190526100b2916101ed565b806001600160a01b0381166100e157604051631e4fbdf760e01b81526000600482015260240160405180910390fd5b6100ea8161011b565b5050600180546001600160a01b039092166001600160a01b0319928316811790915560028054909216179055610220565b600080546001600160a01b038381166001600160a01b0319831681178455604051919092169283917f8be0079c531659141344cd1fd0a4f28419497f9722a3daafe3b4186f6b6457e09190a35050565b60006020828403121561017d57600080fd5b5051919050565b80820281158282048414176101a957634e487b7160e01b600052601160045260246000fd5b92915050565b6000826101cc57634e487b7160e01b600052601260045260246000fd5b500490565b80516001600160a01b03811681146101e857600080fd5b919050565b6000806040838503121561020057600080fd5b610209836101d1565b9150610217602084016101d1565b90509250929050565b6107408061022f6000396000f3fe608060405234801561001057600080fd5b50600436106100885760003560e01c8063efca2eed1161005b578063efca2eed146100dc578063f25addf5146100f3578063f2fde38b14610106578063fc0c546a1461011957600080fd5b8063715018a61461008d578063853828b6146100975780638da5cb5b1461009f5780639d76ea58146100c9575b600080fd5b61009561012c565b005b610095610140565b6000546001600160a01b03165b6040516001600160a01b0390911681526020015b60405180910390f35b6002546100ac906001600160a01b031681565b6100e560045481565b6040519081526020016100c0565b610095610101366004610568565b610230565b61009561011436600461062d565b61047e565b6001546100ac906001600160a01b031681565b6101346104b9565b61013e60006104e6565b565b6101486104b9565b6001546040516370a0823160e01b81523060048201526001600160a01b039091169063a9059cbb90339083906370a0823190602401602060405180830381865afa15801561019a573d6000803e3d6000fd5b505050506040513d601f19601f820116820180604052508101906101be919061064f565b6040516001600160e01b031960e085901b1681526001600160a01b03909216600483015260248201526044016020604051808303816000875af1158015610209573d6000803e3d6000fd5b505050506040513d601f19601f8201168201806040525081019061022d9190610668565b50565b6002546001600160a01b031633146102a25760405162461bcd60e51b815260206004820152602a60248201527f4f6e6c7920746f6b656e20636f6e74726163742063616e2063616c6c207468696044820152693990333ab731ba34b7b760b11b60648201526084015b60405180910390fd5b6003546001546040516370a0823160e01b8152306004820152600092916001600160a01b0316906370a0823190602401602060405180830381865afa1580156102ef573d6000803e3d6000fd5b505050506040513d601f19601f82011682018060405250810190610313919061064f565b11610389576001546040516370a0823160e01b81523060048201526001600160a01b03909116906370a0823190602401602060405180830381865afa158015610360573d6000803e3d6000fd5b505050506040513d601f19601f82011682018060405250810190610384919061064f565b61038d565b6003545b905080600460008282546103a191906106a0565b9091555050801561047a5760005b82518110156104785760015483516001600160a01b039091169063a9059cbb908590849081106103e1576103e16106b9565b60200260200101518551856103f691906106cf565b6040516001600160e01b031960e085901b1681526001600160a01b03909216600483015260248201526044016020604051808303816000875af1158015610441573d6000803e3d6000fd5b505050506040513d601f19601f820116820180604052508101906104659190610668565b5080610470816106f1565b9150506103af565b505b5050565b6104866104b9565b6001600160a01b0381166104b057604051631e4fbdf760e01b815260006004820152602401610299565b61022d816104e6565b6000546001600160a01b0316331461013e5760405163118cdaa760e01b8152336004820152602401610299565b600080546001600160a01b038381166001600160a01b0319831681178455604051919092169283917f8be0079c531659141344cd1fd0a4f28419497f9722a3daafe3b4186f6b6457e09190a35050565b634e487b7160e01b600052604160045260246000fd5b80356001600160a01b038116811461056357600080fd5b919050565b6000602080838503121561057b57600080fd5b823567ffffffffffffffff8082111561059357600080fd5b818501915085601f8301126105a757600080fd5b8135818111156105b9576105b9610536565b8060051b604051601f19603f830116810181811085821117156105de576105de610536565b6040529182528482019250838101850191888311156105fc57600080fd5b938501935b82851015610621576106128561054c565b84529385019392850192610601565b98975050505050505050565b60006020828403121561063f57600080fd5b6106488261054c565b9392505050565b60006020828403121561066157600080fd5b5051919050565b60006020828403121561067a57600080fd5b8151801515811461064857600080fd5b634e487b7160e01b600052601160045260246000fd5b808201808211156106b3576106b361068a565b92915050565b634e487b7160e01b600052603260045260246000fd5b6000826106ec57634e487b7160e01b600052601260045260246000fd5b500490565b6000600182016107035761070361068a565b506001019056fea2646970667358221220480f85240ef5fd16c433297b133f3117f582cd938358cfb6c83d312feb7041e064736f6c63430008140033","opcodes":"PUSH1 0xE0 PUSH1 0x40 MSTORE PUSH1 0xE PUSH1 0xA0 SWAP1 DUP2 MSTORE PUSH14 0x109B1A59DA1D08141C9BDA9958DD PUSH1 0x92 SHL PUSH1 0xC0 MSTORE PUSH1 0x2 SWAP1 PUSH3 0x2F SWAP1 DUP3 PUSH3 0x8FC JUMP JUMPDEST POP PUSH1 0x40 DUP1 MLOAD DUP1 DUP3 ADD SWAP1 SWAP2 MSTORE PUSH1 0x3 DUP1 DUP3 MSTORE PUSH3 0x424C49 PUSH1 0xE8 SHL PUSH1 0x20 DUP4 ADD MSTORE SWAP1 PUSH3 0x58 SWAP1 DUP3 PUSH3 0x8FC JUMP JUMPDEST POP PUSH3 0x67 PUSH1 0x12 PUSH1 0xA PUSH3 0xADB JUMP JUMPDEST PUSH3 0x77 SWAP1 PUSH4 0x3B9ACA00 PUSH3 0xAF3 JUMP JUMPDEST PUSH1 0x4 SSTORE PUSH10 0xD3C21BCECCEDA1000000 PUSH1 0x5 SSTORE PUSH2 0x3E8 PUSH1 0x4 SLOAD PUSH1 0xA PUSH3 0x9C SWAP2 SWAP1 PUSH3 0xAF3 JUMP JUMPDEST PUSH3 0xA8 SWAP2 SWAP1 PUSH3 0xB0D JUMP JUMPDEST PUSH1 0x6 SSTORE PUSH1 0x5 SLOAD PUSH3 0xBC SWAP1 PUSH2 0x258 PUSH3 0xAF3 JUMP JUMPDEST PUSH1 0xB SSTORE PUSH1 0xC8 PUSH1 0xC SSTORE PUSH1 0x5 SLOAD PUSH3 0xD5 SWAP1 PUSH2 0x384 PUSH3 0xAF3 JUMP JUMPDEST PUSH1 0xD SSTORE PUSH2 0x12C PUSH1 0xE SSTORE PUSH1 0x10 DUP1 SLOAD PUSH20 0x3E98DA13E184EA1467639BF642F804144539694D PUSH1 0x1 PUSH1 0x1 PUSH1 0xA0 SHL SUB NOT SWAP2 DUP3 AND OR SWAP1 SWAP2 SSTORE PUSH1 0x11 DUP1 SLOAD PUSH20 0x2CA8E0C643BDE4C2E08AB1FA0DA3401ADAD7734D SWAP3 AND SWAP2 SWAP1 SWAP2 OR SWAP1 SSTORE PUSH1 0x12 DUP1 SLOAD PUSH1 0x1 PUSH1 0x1 PUSH1 0xE0 SHL SUB NOT AND PUSH22 0x37F32CA8E0C643BDE4C2E08AB1FA0DA3401ADAD7734D OR SWAP1 SSTORE PUSH32 0x79D3D8832D904592C0BF9818B621522C988BB8B0C05CDC3B15AEA1B6E8DB0C15 PUSH1 0x15 SSTORE PUSH1 0x16 DUP1 SLOAD PUSH1 0x1 PUSH1 0x1 PUSH1 0x50 SHL SUB NOT AND PUSH7 0x10003000186A0 OR SWAP1 SSTORE PUSH1 0x19 DUP1 SLOAD PUSH2 0xFFFF PUSH1 0xA0 SHL NOT AND SWAP1 SSTORE PUSH1 0x4 SLOAD PUSH3 0x1AD SWAP1 PUSH2 0x3E8 SWAP1 PUSH3 0xB0D JUMP JUMPDEST PUSH3 0x1BA SWAP1 PUSH1 0x3 PUSH3 0xAF3 JUMP JUMPDEST PUSH1 0x1A SSTORE PUSH1 0x64 PUSH1 0x22 SSTORE PUSH1 0x0 PUSH1 0x26 SSTORE PUSH1 0x0 PUSH1 0x28 SSTORE PUSH1 0x0 PUSH1 0x29 SSTORE PUSH10 0x34F086F3B33B68400000 PUSH1 0x2A SSTORE PUSH1 0x0 PUSH1 0x2B SSTORE PUSH1 0x0 PUSH1 0x2C SSTORE PUSH1 0x0 PUSH1 0x2D SSTORE PUSH1 0x0 PUSH1 0x2E SSTORE PUSH1 0x0 PUSH1 0x2F SSTORE PUSH1 0x0 PUSH1 0x30 SSTORE PUSH1 0x0 PUSH1 0x31 SSTORE PUSH1 0x0 PUSH1 0x32 SSTORE PUSH1 0xA PUSH1 0x33 SSTORE PUSH1 0x5 SLOAD PUSH1 0xE5 PUSH3 0x21D SWAP2 SWAP1 PUSH3 0xAF3 JUMP JUMPDEST PUSH1 0x3A SSTORE PUSH1 0x5 SLOAD PUSH3 0x231 SWAP1 PUSH2 0x165 PUSH3 0xAF3 JUMP JUMPDEST PUSH1 0x3B SSTORE PUSH1 0x5 SLOAD PUSH3 0x245 SWAP1 PUSH2 0x202 PUSH3 0xAF3 JUMP JUMPDEST PUSH1 0x3C SSTORE PUSH1 0x5 SLOAD PUSH3 0x259 SWAP1 PUSH2 0x2BC PUSH3 0xAF3 JUMP JUMPDEST PUSH1 0x3D SSTORE PUSH1 0x5 SLOAD PUSH3 0x26D SWAP1 PUSH2 0x392 PUSH3 0xAF3 JUMP JUMPDEST PUSH1 0x3E SSTORE PUSH1 0x5 SLOAD PUSH3 0x281 SWAP1 PUSH2 0x485 PUSH3 0xAF3 JUMP JUMPDEST PUSH1 0x3F SSTORE PUSH1 0x40 DUP1 SLOAD PUSH2 0xFFFF NOT AND SWAP1 SSTORE CALLVALUE DUP1 ISZERO PUSH3 0x29C JUMPI PUSH1 0x0 DUP1 REVERT JUMPDEST POP PUSH1 0x40 MLOAD PUSH3 0x5BFE CODESIZE SUB DUP1 PUSH3 0x5BFE DUP4 CODECOPY DUP2 ADD PUSH1 0x40 DUP2 SWAP1 MSTORE PUSH3 0x2BF SWAP2 PUSH3 0xB30 JUMP JUMPDEST PUSH1 0x11 SLOAD PUSH1 0x1 PUSH1 0x1 PUSH1 0xA0 SHL SUB SWAP1 DUP2 AND SWAP1 DUP3 SWAP1 DUP2 AND PUSH3 0x2F7 JUMPI PUSH1 0x40 MLOAD PUSH4 0x1E4FBDF7 PUSH1 0xE0 SHL DUP2 MSTORE PUSH1 0x0 PUSH1 0x4 DUP3 ADD MSTORE PUSH1 0x24 ADD PUSH1 0x40 MLOAD DUP1 SWAP2 SUB SWAP1 REVERT JUMPDEST PUSH3 0x302 DUP2 PUSH3 0x762 JUMP JUMPDEST POP PUSH1 0x1 PUSH1 0x1 PUSH1 0xA0 SHL SUB AND PUSH1 0x80 MSTORE PUSH1 0x18 DUP1 SLOAD PUSH1 0x1 PUSH1 0x1 PUSH1 0xA0 SHL SUB NOT AND PUSH20 0x7A250D5630B4CF539739DF2C5DACB4C659F2488D SWAP1 DUP2 OR SWAP1 SWAP2 SSTORE PUSH1 0x40 DUP1 MLOAD PUSH4 0xC45A0155 PUSH1 0xE0 SHL DUP2 MSTORE SWAP1 MLOAD PUSH4 0xC45A0155 SWAP2 PUSH1 0x4 DUP1 DUP3 ADD SWAP3 PUSH1 0x20 SWAP3 SWAP1 SWAP2 SWAP1 DUP3 SWAP1 SUB ADD DUP2 DUP7 GAS STATICCALL ISZERO DUP1 ISZERO PUSH3 0x374 JUMPI RETURNDATASIZE PUSH1 0x0 DUP1 RETURNDATACOPY RETURNDATASIZE PUSH1 0x0 REVERT JUMPDEST POP POP POP POP PUSH1 0x40 MLOAD RETURNDATASIZE PUSH1 0x1F NOT PUSH1 0x1F DUP3 ADD AND DUP3 ADD DUP1 PUSH1 0x40 MSTORE POP DUP2 ADD SWAP1 PUSH3 0x39A SWAP2 SWAP1 PUSH3 0xB30 JUMP JUMPDEST PUSH1 0x1 PUSH1 0x1 PUSH1 0xA0 SHL SUB AND PUSH4 0xC9C65396 PUSH1 0x18 PUSH1 0x0 SWAP1 SLOAD SWAP1 PUSH2 0x100 EXP SWAP1 DIV PUSH1 0x1 PUSH1 0x1 PUSH1 0xA0 SHL SUB AND PUSH1 0x1 PUSH1 0x1 PUSH1 0xA0 SHL SUB AND PUSH4 0xAD5C4648 PUSH1 0x40 MLOAD DUP2 PUSH4 0xFFFFFFFF AND PUSH1 0xE0 SHL DUP2 MSTORE PUSH1 0x4 ADD PUSH1 0x20 PUSH1 0x40 MLOAD DUP1 DUP4 SUB DUP2 DUP7 GAS STATICCALL ISZERO DUP1 ISZERO PUSH3 0x3FC JUMPI RETURNDATASIZE PUSH1 0x0 DUP1 RETURNDATACOPY RETURNDATASIZE PUSH1 0x0 REVERT JUMPDEST POP POP POP POP PUSH1 0x40 MLOAD RETURNDATASIZE PUSH1 0x1F NOT PUSH1 0x1F DUP3 ADD AND DUP3 ADD DUP1 PUSH1 0x40 MSTORE POP DUP2 ADD SWAP1 PUSH3 0x422 SWAP2 SWAP1 PUSH3 0xB30 JUMP JUMPDEST PUSH1 0x40 MLOAD PUSH1 0x1 PUSH1 0x1 PUSH1 0xE0 SHL SUB NOT PUSH1 0xE0 DUP5 SWAP1 SHL AND DUP2 MSTORE PUSH1 0x1 PUSH1 0x1 PUSH1 0xA0 SHL SUB SWAP1 SWAP2 AND PUSH1 0x4 DUP3 ADD MSTORE ADDRESS PUSH1 0x24 DUP3 ADD MSTORE PUSH1 0x44 ADD PUSH1 0x20 PUSH1 0x40 MLOAD DUP1 DUP4 SUB DUP2 PUSH1 0x0 DUP8 GAS CALL ISZERO DUP1 ISZERO PUSH3 0x46F JUMPI RETURNDATASIZE PUSH1 0x0 DUP1 RETURNDATACOPY RETURNDATASIZE PUSH1 0x0 REVERT JUMPDEST POP POP POP POP PUSH1 0x40 MLOAD RETURNDATASIZE PUSH1 0x1F NOT PUSH1 0x1F DUP3 ADD AND DUP3 ADD DUP1 PUSH1 0x40 MSTORE POP DUP2 ADD SWAP1 PUSH3 0x495 SWAP2 SWAP1 PUSH3 0xB30 JUMP JUMPDEST PUSH1 0x19 DUP1 SLOAD PUSH1 0x1 PUSH1 0x1 PUSH1 0xA0 SHL SUB NOT AND PUSH1 0x1 PUSH1 0x1 PUSH1 0xA0 SHL SUB SWAP3 DUP4 AND OR SWAP1 SSTORE ADDRESS PUSH1 0x0 SWAP1 DUP2 MSTORE PUSH1 0x8 PUSH1 0x20 SWAP1 DUP2 MSTORE PUSH1 0x40 DUP1 DUP4 KECCAK256 PUSH1 0x18 SLOAD SWAP1 SWAP5 AND DUP4 MSTORE SWAP3 SWAP1 MSTORE SWAP1 DUP2 KECCAK256 PUSH1 0x0 NOT SWAP1 SSTORE PUSH3 0x4E2 SWAP1 DUP3 PUSH3 0x7B2 JUMP JUMPDEST POP PUSH3 0x50F PUSH32 0xA49807205CE4D355092EF5A8A18F56E8913CF4A201FBE287825B095693C21775 DUP3 PUSH3 0x7B2 JUMP JUMPDEST POP ADDRESS DUP2 PUSH1 0x40 MLOAD PUSH3 0x520 SWAP1 PUSH3 0x849 JUMP JUMPDEST PUSH1 0x1 PUSH1 0x1 PUSH1 0xA0 SHL SUB SWAP3 DUP4 AND DUP2 MSTORE SWAP2 AND PUSH1 0x20 DUP3 ADD MSTORE PUSH1 0x40 ADD PUSH1 0x40 MLOAD DUP1 SWAP2 SUB SWAP1 PUSH1 0x0 CREATE DUP1 ISZERO DUP1 ISZERO PUSH3 0x554 JUMPI RETURNDATASIZE PUSH1 0x0 DUP1 RETURNDATACOPY RETURNDATASIZE PUSH1 0x0 REVERT JUMPDEST POP PUSH1 0x21 DUP1 SLOAD PUSH1 0x1 PUSH1 0x1 PUSH1 0xA0 SHL SUB NOT AND PUSH1 0x1 PUSH1 0x1 PUSH1 0xA0 SHL SUB SWAP3 DUP4 AND OR SWAP1 SSTORE CALLER PUSH1 0x0 DUP2 DUP2 MSTORE PUSH1 0x9 PUSH1 0x20 SWAP1 DUP2 MSTORE PUSH1 0x40 DUP1 DUP4 KECCAK256 DUP1 SLOAD PUSH1 0xFF NOT SWAP1 DUP2 AND PUSH1 0x1 SWAP1 DUP2 OR SWAP1 SWAP3 SSTORE ADDRESS DUP1 DUP7 MSTORE DUP4 DUP7 KECCAK256 DUP1 SLOAD DUP4 AND DUP5 OR SWAP1 SSTORE PUSH1 0x10 DUP1 SLOAD DUP10 AND DUP8 MSTORE DUP5 DUP8 KECCAK256 DUP1 SLOAD DUP5 AND DUP6 OR SWAP1 SSTORE DUP8 DUP8 MSTORE PUSH1 0xA DUP7 MSTORE DUP5 DUP8 KECCAK256 DUP1 SLOAD DUP5 AND DUP6 OR SWAP1 SSTORE DUP1 SLOAD DUP10 AND DUP8 MSTORE DUP5 DUP8 KECCAK256 DUP1 SLOAD DUP5 AND DUP6 OR SWAP1 SSTORE PUSH32 0x20677881080440A9B3C87E826370BB5D9C2F74EFD4DEDE686D52D77A6A09F8BB DUP1 SLOAD DUP5 AND DUP6 OR SWAP1 SSTORE DUP2 DUP8 MSTORE DUP5 DUP8 KECCAK256 DUP1 SLOAD DUP5 AND DUP6 OR SWAP1 SSTORE PUSH1 0x19 DUP1 SLOAD DUP11 AND DUP9 MSTORE DUP6 DUP9 KECCAK256 DUP1 SLOAD DUP6 AND DUP7 OR SWAP1 SSTORE PUSH32 0xC90215BB1B0AC6BFA50A3C02C4B559C695B6A8E828048A88E327592FC55C5D2C DUP1 SLOAD DUP6 AND DUP7 OR SWAP1 SSTORE DUP9 DUP9 MSTORE PUSH1 0x1C DUP8 MSTORE DUP6 DUP9 KECCAK256 DUP1 SLOAD DUP6 AND DUP7 OR SWAP1 SSTORE SWAP1 SLOAD DUP10 AND DUP8 MSTORE DUP5 DUP8 KECCAK256 DUP1 SLOAD DUP5 AND DUP6 OR SWAP1 SSTORE PUSH32 0xA48BD8E7B1565515CDE2859B6CC48308BA05B5325BCF90FB096B9AC0B8087DFC DUP1 SLOAD DUP5 AND DUP6 OR SWAP1 SSTORE SWAP1 DUP7 MSTORE DUP4 DUP7 KECCAK256 DUP1 SLOAD DUP4 AND DUP5 OR SWAP1 SSTORE SLOAD SWAP1 SWAP7 AND DUP5 MSTORE DUP2 DUP5 KECCAK256 DUP1 SLOAD DUP8 AND DUP3 OR SWAP1 SSTORE PUSH32 0xB1E2E88B6A3E9D36C6D6D48756CA9ED8312CFCB5A15208F81170ADE3BD2B4A95 DUP1 SLOAD SWAP1 SWAP7 AND OR SWAP1 SWAP5 SSTORE PUSH1 0x4 SLOAD SWAP3 DUP3 MSTORE PUSH1 0x7 SWAP1 MSTORE SWAP2 DUP3 KECCAK256 DUP1 SLOAD SWAP2 SWAP3 SWAP1 SWAP2 PUSH3 0x700 SWAP1 DUP5 SWAP1 PUSH3 0xB5B JUMP JUMPDEST SWAP1 SWAP2 SSTORE POP POP PUSH1 0x4 SLOAD CALLER SWAP1 PUSH1 0x0 SWAP1 PUSH32 0xDDF252AD1BE2C89B69C2B068FC378DAA952BA7F163C4A11628F55A4DF523B3EF SWAP1 PUSH1 0x64 SWAP1 PUSH3 0x73E SWAP1 DUP3 PUSH3 0xAF3 JUMP JUMPDEST PUSH3 0x74A SWAP2 SWAP1 PUSH3 0xB0D JUMP JUMPDEST PUSH1 0x40 MLOAD SWAP1 DUP2 MSTORE PUSH1 0x20 ADD PUSH1 0x40 MLOAD DUP1 SWAP2 SUB SWAP1 LOG3 POP PUSH3 0xB71 JUMP JUMPDEST PUSH1 0x0 DUP1 SLOAD PUSH1 0x1 PUSH1 0x1 PUSH1 0xA0 SHL SUB DUP4 DUP2 AND PUSH1 0x1 PUSH1 0x1 PUSH1 0xA0 SHL SUB NOT DUP4 AND DUP2 OR DUP5 SSTORE PUSH1 0x40 MLOAD SWAP2 SWAP1 SWAP3 AND SWAP3 DUP4 SWAP2 PUSH32 0x8BE0079C531659141344CD1FD0A4F28419497F9722A3DAAFE3B4186F6B6457E0 SWAP2 SWAP1 LOG3 POP POP JUMP JUMPDEST PUSH1 0x0 DUP3 DUP2 MSTORE PUSH1 0x1 PUSH1 0x20 SWAP1 DUP2 MSTORE PUSH1 0x40 DUP1 DUP4 KECCAK256 PUSH1 0x1 PUSH1 0x1 PUSH1 0xA0 SHL SUB DUP6 AND DUP5 MSTORE SWAP1 SWAP2 MSTORE DUP2 KECCAK256 SLOAD PUSH1 0xFF AND PUSH3 0x83F JUMPI PUSH1 0x0 DUP4 DUP2 MSTORE PUSH1 0x1 PUSH1 0x20 DUP2 DUP2 MSTORE PUSH1 0x40 DUP1 DUP5 KECCAK256 PUSH1 0x1 PUSH1 0x1 PUSH1 0xA0 SHL SUB DUP8 AND DUP1 DUP7 MSTORE SWAP3 MSTORE DUP1 DUP5 KECCAK256 DUP1 SLOAD PUSH1 0xFF NOT AND SWAP1 SWAP4 OR SWAP1 SWAP3 SSTORE SWAP1 MLOAD CALLER SWAP3 DUP7 SWAP2 PUSH32 0x2F8788117E7EFF1D82E926EC794901D17C78024A50270940304540A733656F0D SWAP2 SWAP1 LOG4 POP PUSH1 0x1 PUSH3 0x843 JUMP JUMPDEST POP PUSH1 0x0 JUMPDEST SWAP3 SWAP2 POP POP JUMP JUMPDEST PUSH2 0x96F DUP1 PUSH3 0x528F DUP4 CODECOPY ADD SWAP1 JUMP JUMPDEST PUSH4 0x4E487B71 PUSH1 0xE0 SHL PUSH1 0x0 MSTORE PUSH1 0x41 PUSH1 0x4 MSTORE PUSH1 0x24 PUSH1 0x0 REVERT JUMPDEST PUSH1 0x1 DUP2 DUP2 SHR SWAP1 DUP3 AND DUP1 PUSH3 0x882 JUMPI PUSH1 0x7F DUP3 AND SWAP2 POP JUMPDEST PUSH1 0x20 DUP3 LT DUP2 SUB PUSH3 0x8A3 JUMPI PUSH4 0x4E487B71 PUSH1 0xE0 SHL PUSH1 0x0 MSTORE PUSH1 0x22 PUSH1 0x4 MSTORE PUSH1 0x24 PUSH1 0x0 REVERT JUMPDEST POP SWAP2 SWAP1 POP JUMP JUMPDEST PUSH1 0x1F DUP3 GT ISZERO PUSH3 0x8F7 JUMPI PUSH1 0x0 DUP2 DUP2 MSTORE PUSH1 0x20 DUP2 KECCAK256 PUSH1 0x1F DUP6 ADD PUSH1 0x5 SHR DUP2 ADD PUSH1 0x20 DUP7 LT ISZERO PUSH3 0x8D2 JUMPI POP DUP1 JUMPDEST PUSH1 0x1F DUP6 ADD PUSH1 0x5 SHR DUP3 ADD SWAP2 POP JUMPDEST DUP2 DUP2 LT ISZERO PUSH3 0x8F3 JUMPI DUP3 DUP2 SSTORE PUSH1 0x1 ADD PUSH3 0x8DE JUMP JUMPDEST POP POP POP JUMPDEST POP POP POP JUMP JUMPDEST DUP2 MLOAD PUSH1 0x1 PUSH1 0x1 PUSH1 0x40 SHL SUB DUP2 GT ISZERO PUSH3 0x918 JUMPI PUSH3 0x918 PUSH3 0x857 JUMP JUMPDEST PUSH3 0x930 DUP2 PUSH3 0x929 DUP5 SLOAD PUSH3 0x86D JUMP JUMPDEST DUP5 PUSH3 0x8A9 JUMP JUMPDEST PUSH1 0x20 DUP1 PUSH1 0x1F DUP4 GT PUSH1 0x1 DUP2 EQ PUSH3 0x968 JUMPI PUSH1 0x0 DUP5 ISZERO PUSH3 0x94F JUMPI POP DUP6 DUP4 ADD MLOAD JUMPDEST PUSH1 0x0 NOT PUSH1 0x3 DUP7 SWAP1 SHL SHR NOT AND PUSH1 0x1 DUP6 SWAP1 SHL OR DUP6 SSTORE PUSH3 0x8F3 JUMP JUMPDEST PUSH1 0x0 DUP6 DUP2 MSTORE PUSH1 0x20 DUP2 KECCAK256 PUSH1 0x1F NOT DUP7 AND SWAP2 JUMPDEST DUP3 DUP2 LT ISZERO PUSH3 0x999 JUMPI DUP9 DUP7 ADD MLOAD DUP3 SSTORE SWAP5 DUP5 ADD SWAP5 PUSH1 0x1 SWAP1 SWAP2 ADD SWAP1 DUP5 ADD PUSH3 0x978 JUMP JUMPDEST POP DUP6 DUP3 LT ISZERO PUSH3 0x9B8 JUMPI DUP8 DUP6 ADD MLOAD PUSH1 0x0 NOT PUSH1 0x3 DUP9 SWAP1 SHL PUSH1 0xF8 AND SHR NOT AND DUP2 SSTORE JUMPDEST POP POP POP POP POP PUSH1 0x1 SWAP1 DUP2 SHL ADD SWAP1 SSTORE POP JUMP JUMPDEST PUSH4 0x4E487B71 PUSH1 0xE0 SHL PUSH1 0x0 MSTORE PUSH1 0x11 PUSH1 0x4 MSTORE PUSH1 0x24 PUSH1 0x0 REVERT JUMPDEST PUSH1 0x1 DUP2 DUP2 JUMPDEST DUP1 DUP6 GT ISZERO PUSH3 0xA1F JUMPI DUP2 PUSH1 0x0 NOT DIV DUP3 GT ISZERO PUSH3 0xA03 JUMPI PUSH3 0xA03 PUSH3 0x9C8 JUMP JUMPDEST DUP1 DUP6 AND ISZERO PUSH3 0xA11 JUMPI SWAP2 DUP2 MUL SWAP2 JUMPDEST SWAP4 DUP5 SHR SWAP4 SWAP1 DUP1 MUL SWAP1 PUSH3 0x9E3 JUMP JUMPDEST POP SWAP3 POP SWAP3 SWAP1 POP JUMP JUMPDEST PUSH1 0x0 DUP3 PUSH3 0xA38 JUMPI POP PUSH1 0x1 PUSH3 0x843 JUMP JUMPDEST DUP2 PUSH3 0xA47 JUMPI POP PUSH1 0x0 PUSH3 0x843 JUMP JUMPDEST DUP2 PUSH1 0x1 DUP2 EQ PUSH3 0xA60 JUMPI PUSH1 0x2 DUP2 EQ PUSH3 0xA6B JUMPI PUSH3 0xA8B JUMP JUMPDEST PUSH1 0x1 SWAP2 POP POP PUSH3 0x843 JUMP JUMPDEST PUSH1 0xFF DUP5 GT ISZERO PUSH3 0xA7F JUMPI PUSH3 0xA7F PUSH3 0x9C8 JUMP JUMPDEST POP POP PUSH1 0x1 DUP3 SHL PUSH3 0x843 JUMP JUMPDEST POP PUSH1 0x20 DUP4 LT PUSH2 0x133 DUP4 LT AND PUSH1 0x4E DUP5 LT PUSH1 0xB DUP5 LT AND OR ISZERO PUSH3 0xAB0 JUMPI POP DUP2 DUP2 EXP PUSH3 0x843 JUMP JUMPDEST PUSH3 0xABC DUP4 DUP4 PUSH3 0x9DE JUMP JUMPDEST DUP1 PUSH1 0x0 NOT DIV DUP3 GT ISZERO PUSH3 0xAD3 JUMPI PUSH3 0xAD3 PUSH3 0x9C8 JUMP JUMPDEST MUL SWAP4 SWAP3 POP POP POP JUMP JUMPDEST PUSH1 0x0 PUSH3 0xAEC PUSH1 0xFF DUP5 AND DUP4 PUSH3 0xA27 JUMP JUMPDEST SWAP4 SWAP3 POP POP POP JUMP JUMPDEST DUP1 DUP3 MUL DUP2 ISZERO DUP3 DUP3 DIV DUP5 EQ OR PUSH3 0x843 JUMPI PUSH3 0x843 PUSH3 0x9C8 JUMP JUMPDEST PUSH1 0x0 DUP3 PUSH3 0xB2B JUMPI PUSH4 0x4E487B71 PUSH1 0xE0 SHL PUSH1 0x0 MSTORE PUSH1 0x12 PUSH1 0x4 MSTORE PUSH1 0x24 PUSH1 0x0 REVERT JUMPDEST POP DIV SWAP1 JUMP JUMPDEST PUSH1 0x0 PUSH1 0x20 DUP3 DUP5 SUB SLT ISZERO PUSH3 0xB43 JUMPI PUSH1 0x0 DUP1 REVERT JUMPDEST DUP2 MLOAD PUSH1 0x1 PUSH1 0x1 PUSH1 0xA0 SHL SUB DUP2 AND DUP2 EQ PUSH3 0xAEC JUMPI PUSH1 0x0 DUP1 REVERT JUMPDEST DUP1 DUP3 ADD DUP1 DUP3 GT ISZERO PUSH3 0x843 JUMPI PUSH3 0x843 PUSH3 0x9C8 JUMP JUMPDEST PUSH1 0x80 MLOAD PUSH2 0x46FB PUSH3 0xB94 PUSH1 0x0 CODECOPY PUSH1 0x0 DUP2 DUP2 PUSH2 0x15E5 ADD MSTORE PUSH2 0x1627 ADD MSTORE PUSH2 0x46FB PUSH1 0x0 RETURN INVALID PUSH1 0x80 PUSH1 0x40 MSTORE PUSH1 0x4 CALLDATASIZE LT PUSH2 0x408 JUMPI PUSH1 0x0 CALLDATALOAD PUSH1 0xE0 SHR DUP1 PUSH4 0x66666AA9 GT PUSH2 0x213 JUMPI DUP1 PUSH4 0xAA9BBC0C GT PUSH2 0x123 JUMPI DUP1 PUSH4 0xDD62ED3E GT PUSH2 0xAB JUMPI DUP1 PUSH4 0xF5415CBB GT PUSH2 0x7A JUMPI DUP1 PUSH4 0xF5415CBB EQ PUSH2 0xD07 JUMPI DUP1 PUSH4 0xF887EA40 EQ PUSH2 0xD27 JUMPI DUP1 PUSH4 0xFC2A88C3 EQ PUSH2 0xD47 JUMPI DUP1 PUSH4 0xFD39EF78 EQ PUSH2 0xD5D JUMPI DUP1 PUSH4 0xFD6E28CF EQ PUSH2 0xD7D JUMPI PUSH1 0x0 DUP1 REVERT JUMPDEST DUP1 PUSH4 0xDD62ED3E EQ PUSH2 0xC61 JUMPI DUP1 PUSH4 0xDF20FD49 EQ PUSH2 0xCA7 JUMPI DUP1 PUSH4 0xF25C7EA4 EQ PUSH2 0xCC7 JUMPI DUP1 PUSH4 0xF2FDE38B EQ PUSH2 0xCE7 JUMPI PUSH1 0x0 DUP1 REVERT JUMPDEST DUP1 PUSH4 0xC3EC8897 GT PUSH2 0xF2 JUMPI DUP1 PUSH4 0xC3EC8897 EQ PUSH2 0xBAA JUMPI DUP1 PUSH4 0xC6B61E4C EQ PUSH2 0xBC0 JUMPI DUP1 PUSH4 0xD02C6394 EQ PUSH2 0xC17 JUMPI DUP1 PUSH4 0xD3A9FFC4 EQ PUSH2 0xC2C JUMPI DUP1 PUSH4 0xD547741F EQ PUSH2 0xC41 JUMPI PUSH1 0x0 DUP1 REVERT JUMPDEST DUP1 PUSH4 0xAA9BBC0C EQ PUSH2 0xB2B JUMPI DUP1 PUSH4 0xAB7573DD EQ PUSH2 0xB41 JUMPI DUP1 PUSH4 0xC26D68F9 EQ PUSH2 0xB6E JUMPI DUP1 PUSH4 0xC315432A EQ PUSH2 0xB90 JUMPI PUSH1 0x0 DUP1 REVERT JUMPDEST DUP1 PUSH4 0x8796BA8C GT PUSH2 0x1A6 JUMPI DUP1 PUSH4 0x95D89B41 GT PUSH2 0x175 JUMPI DUP1 PUSH4 0x95D89B41 EQ PUSH2 0xAA1 JUMPI DUP1 PUSH4 0x96EB64A9 EQ PUSH2 0xAB6 JUMPI DUP1 PUSH4 0xA217FDDF EQ PUSH2 0xAD6 JUMPI DUP1 PUSH4 0xA8AA1B31 EQ PUSH2 0xAEB JUMPI DUP1 PUSH4 0xA9059CBB EQ PUSH2 0xB0B JUMPI PUSH1 0x0 DUP1 REVERT JUMPDEST DUP1 PUSH4 0x8796BA8C EQ PUSH2 0xA13 JUMPI DUP1 PUSH4 0x8C5799CE EQ PUSH2 0xA33 JUMPI DUP1 PUSH4 0x8DA5CB5B EQ PUSH2 0xA63 JUMPI DUP1 PUSH4 0x91D14854 EQ PUSH2 0xA81 JUMPI PUSH1 0x0 DUP1 REVERT JUMPDEST DUP1 PUSH4 0x70A08231 GT PUSH2 0x1E2 JUMPI DUP1 PUSH4 0x70A08231 EQ PUSH2 0x99C JUMPI DUP1 PUSH4 0x715018A6 EQ PUSH2 0x9BC JUMPI DUP1 PUSH4 0x73A432BB EQ PUSH2 0x9D1 JUMPI DUP1 PUSH4 0x75B238FC EQ PUSH2 0x9F1 JUMPI PUSH1 0x0 DUP1 REVERT JUMPDEST DUP1 PUSH4 0x66666AA9 EQ PUSH2 0x924 JUMPI DUP1 PUSH4 0x6789C92C EQ PUSH2 0x944 JUMPI DUP1 PUSH4 0x6CBC2DED EQ PUSH2 0x966 JUMPI DUP1 PUSH4 0x6DDD1713 EQ PUSH2 0x97B JUMPI PUSH1 0x0 DUP1 REVERT JUMPDEST DUP1 PUSH4 0x23B872DD GT PUSH2 0x319 JUMPI DUP1 PUSH4 0x43D4F92B GT PUSH2 0x2A1 JUMPI DUP1 PUSH4 0x54D41B5B GT PUSH2 0x270 JUMPI DUP1 PUSH4 0x54D41B5B EQ PUSH2 0x871 JUMPI DUP1 PUSH4 0x571AC8B0 EQ PUSH2 0x89E JUMPI DUP1 PUSH4 0x5BC04469 EQ PUSH2 0x8BE JUMPI DUP1 PUSH4 0x636EE0DB EQ PUSH2 0x8D4 JUMPI DUP1 PUSH4 0x658D4B7F EQ PUSH2 0x904 JUMPI PUSH1 0x0 DUP1 REVERT JUMPDEST DUP1 PUSH4 0x43D4F92B EQ PUSH2 0x810 JUMPI DUP1 PUSH4 0x4726319F EQ PUSH2 0x830 JUMPI DUP1 PUSH4 0x4E71D92D EQ PUSH2 0x846 JUMPI DUP1 PUSH4 0x5119C971 EQ PUSH2 0x85B JUMPI PUSH1 0x0 DUP1 REVERT JUMPDEST DUP1 PUSH4 0x313CE567 GT PUSH2 0x2E8 JUMPI DUP1 PUSH4 0x313CE567 EQ PUSH2 0x75C JUMPI DUP1 PUSH4 0x31D7A262 EQ PUSH2 0x778 JUMPI DUP1 PUSH4 0x36568ABE EQ PUSH2 0x7A5 JUMPI DUP1 PUSH4 0x3AAB0A62 EQ PUSH2 0x7C5 JUMPI DUP1 PUSH4 0x3ECA5343 EQ PUSH2 0x7DA JUMPI PUSH1 0x0 DUP1 REVERT JUMPDEST DUP1 PUSH4 0x23B872DD EQ PUSH2 0x6B3 JUMPI DUP1 PUSH4 0x248A9CA3 EQ PUSH2 0x6D3 JUMPI DUP1 PUSH4 0x2598CDB2 EQ PUSH2 0x704 JUMPI DUP1 PUSH4 0x2F2FF15D EQ PUSH2 0x73C JUMPI PUSH1 0x0 DUP1 REVERT JUMPDEST DUP1 PUSH4 0xE04A7D8 GT PUSH2 0x39C JUMPI DUP1 PUSH4 0x196228C0 GT PUSH2 0x36B JUMPI DUP1 PUSH4 0x196228C0 EQ PUSH2 0x633 JUMPI DUP1 PUSH4 0x1BD8EBE1 EQ PUSH2 0x648 JUMPI DUP1 PUSH4 0x1CE78AC8 EQ PUSH2 0x65E JUMPI DUP1 PUSH4 0x1FE543E3 EQ PUSH2 0x673 JUMPI DUP1 PUSH4 0x2198CF6C EQ PUSH2 0x693 JUMPI PUSH1 0x0 DUP1 REVERT JUMPDEST DUP1 PUSH4 0xE04A7D8 EQ PUSH2 0x588 JUMPI DUP1 PUSH4 0xF44E894 EQ PUSH2 0x5A7 JUMPI DUP1 PUSH4 0x1781E17C EQ PUSH2 0x5D3 JUMPI DUP1 PUSH4 0x18160DDD EQ PUSH2 0x61E JUMPI PUSH1 0x0 DUP1 REVERT JUMPDEST DUP1 PUSH4 0x5DC0394 GT PUSH2 0x3D8 JUMPI DUP1 PUSH4 0x5DC0394 EQ PUSH2 0x501 JUMPI DUP1 PUSH4 0x64A59D0 EQ PUSH2 0x525 JUMPI DUP1 PUSH4 0x6FDDE03 EQ PUSH2 0x546 JUMPI DUP1 PUSH4 0x95EA7B3 EQ PUSH2 0x568 JUMPI PUSH1 0x0 DUP1 REVERT JUMPDEST DUP1 PUSH3 0x7F27AE EQ PUSH2 0x414 JUMPI DUP1 PUSH4 0x14C58A3 EQ PUSH2 0x436 JUMPI DUP1 PUSH4 0x1FFC9A7 EQ PUSH2 0x496 JUMPI DUP1 PUSH4 0x2B2553E EQ PUSH2 0x4B6 JUMPI PUSH1 0x0 DUP1 REVERT JUMPDEST CALLDATASIZE PUSH2 0x40F JUMPI STOP JUMPDEST PUSH1 0x0 DUP1 REVERT JUMPDEST CALLVALUE DUP1 ISZERO PUSH2 0x420 JUMPI PUSH1 0x0 DUP1 REVERT JUMPDEST POP PUSH2 0x434 PUSH2 0x42F CALLDATASIZE PUSH1 0x4 PUSH2 0x4026 JUMP JUMPDEST PUSH2 0xDC8 JUMP JUMPDEST STOP JUMPDEST CALLVALUE DUP1 ISZERO PUSH2 0x442 JUMPI PUSH1 0x0 DUP1 REVERT JUMPDEST POP PUSH2 0x481 PUSH2 0x451 CALLDATASIZE PUSH1 0x4 PUSH2 0x4026 JUMP JUMPDEST PUSH1 0x26 SLOAD PUSH1 0x0 SWAP1 DUP2 MSTORE PUSH1 0x27 PUSH1 0x20 SWAP1 DUP2 MSTORE PUSH1 0x40 DUP1 DUP4 KECCAK256 PUSH1 0x1 PUSH1 0x1 PUSH1 0xA0 SHL SUB SWAP1 SWAP5 AND DUP4 MSTORE PUSH1 0x4 SWAP1 SWAP4 ADD SWAP1 MSTORE KECCAK256 SLOAD PUSH1 0xFF AND SWAP1 JUMP JUMPDEST PUSH1 0x40 MLOAD SWAP1 ISZERO ISZERO DUP2 MSTORE PUSH1 0x20 ADD JUMPDEST PUSH1 0x40 MLOAD DUP1 SWAP2 SUB SWAP1 RETURN JUMPDEST CALLVALUE DUP1 ISZERO PUSH2 0x4A2 JUMPI PUSH1 0x0 DUP1 REVERT JUMPDEST POP PUSH2 0x481 PUSH2 0x4B1 CALLDATASIZE PUSH1 0x4 PUSH2 0x4043 JUMP JUMPDEST PUSH2 0x1174 JUMP JUMPDEST CALLVALUE DUP1 ISZERO PUSH2 0x4C2 JUMPI PUSH1 0x0 DUP1 REVERT JUMPDEST POP PUSH2 0x481 PUSH2 0x4D1 CALLDATASIZE PUSH1 0x4 PUSH2 0x4026 JUMP JUMPDEST PUSH1 0x26 SLOAD PUSH1 0x0 SWAP1 DUP2 MSTORE PUSH1 0x27 PUSH1 0x20 SWAP1 DUP2 MSTORE PUSH1 0x40 DUP1 DUP4 KECCAK256 PUSH1 0x1 PUSH1 0x1 PUSH1 0xA0 SHL SUB SWAP1 SWAP5 AND DUP4 MSTORE PUSH1 0x5 SWAP1 SWAP4 ADD SWAP1 MSTORE KECCAK256 SLOAD PUSH1 0xFF AND SWAP1 JUMP JUMPDEST CALLVALUE DUP1 ISZERO PUSH2 0x50D JUMPI PUSH1 0x0 DUP1 REVERT JUMPDEST POP PUSH2 0x517 PUSH1 0x29 SLOAD DUP2 JUMP JUMPDEST PUSH1 0x40 MLOAD SWAP1 DUP2 MSTORE PUSH1 0x20 ADD PUSH2 0x48D JUMP JUMPDEST CALLVALUE DUP1 ISZERO PUSH2 0x531 JUMPI PUSH1 0x0 DUP1 REVERT JUMPDEST POP PUSH1 0x19 SLOAD PUSH2 0x481 SWAP1 PUSH1 0x1 PUSH1 0xA0 SHL SWAP1 DIV PUSH1 0xFF AND DUP2 JUMP JUMPDEST CALLVALUE DUP1 ISZERO PUSH2 0x552 JUMPI PUSH1 0x0 DUP1 REVERT JUMPDEST POP PUSH2 0x55B PUSH2 0x11AB JUMP JUMPDEST PUSH1 0x40 MLOAD PUSH2 0x48D SWAP2 SWAP1 PUSH2 0x406D JUMP JUMPDEST CALLVALUE DUP1 ISZERO PUSH2 0x574 JUMPI PUSH1 0x0 DUP1 REVERT JUMPDEST POP PUSH2 0x481 PUSH2 0x583 CALLDATASIZE PUSH1 0x4 PUSH2 0x40BB JUMP JUMPDEST PUSH2 0x123D JUMP JUMPDEST CALLVALUE DUP1 ISZERO PUSH2 0x594 JUMPI PUSH1 0x0 DUP1 REVERT JUMPDEST POP PUSH1 0x40 SLOAD PUSH2 0x481 SWAP1 PUSH2 0x100 SWAP1 DIV PUSH1 0xFF AND DUP2 JUMP JUMPDEST CALLVALUE DUP1 ISZERO PUSH2 0x5B3 JUMPI PUSH1 0x0 DUP1 REVERT JUMPDEST POP PUSH2 0x517 PUSH2 0x5C2 CALLDATASIZE PUSH1 0x4 PUSH2 0x4026 JUMP JUMPDEST PUSH1 0x20 DUP1 MSTORE PUSH1 0x0 SWAP1 DUP2 MSTORE PUSH1 0x40 SWAP1 KECCAK256 SLOAD DUP2 JUMP JUMPDEST CALLVALUE DUP1 ISZERO PUSH2 0x5DF JUMPI PUSH1 0x0 DUP1 REVERT JUMPDEST POP PUSH2 0x481 PUSH2 0x5EE CALLDATASIZE PUSH1 0x4 PUSH2 0x4026 JUMP JUMPDEST PUSH1 0x26 SLOAD PUSH1 0x0 SWAP1 DUP2 MSTORE PUSH1 0x27 PUSH1 0x20 SWAP1 DUP2 MSTORE PUSH1 0x40 DUP1 DUP4 KECCAK256 PUSH1 0x1 PUSH1 0x1 PUSH1 0xA0 SHL SUB SWAP1 SWAP5 AND DUP4 MSTORE PUSH1 0x8 SWAP1 SWAP4 ADD SWAP1 MSTORE KECCAK256 SLOAD PUSH1 0xFF AND SWAP1 JUMP JUMPDEST CALLVALUE DUP1 ISZERO PUSH2 0x62A JUMPI PUSH1 0x0 DUP1 REVERT JUMPDEST POP PUSH1 0x4 SLOAD PUSH2 0x517 JUMP JUMPDEST CALLVALUE DUP1 ISZERO PUSH2 0x63F JUMPI PUSH1 0x0 DUP1 REVERT JUMPDEST POP PUSH2 0x434 PUSH2 0x12A9 JUMP JUMPDEST CALLVALUE DUP1 ISZERO PUSH2 0x654 JUMPI PUSH1 0x0 DUP1 REVERT JUMPDEST POP PUSH2 0x517 PUSH1 0x28 SLOAD DUP2 JUMP JUMPDEST CALLVALUE DUP1 ISZERO PUSH2 0x66A JUMPI PUSH1 0x0 DUP1 REVERT JUMPDEST POP PUSH2 0x434 PUSH2 0x15A4 JUMP JUMPDEST CALLVALUE DUP1 ISZERO PUSH2 0x67F JUMPI PUSH1 0x0 DUP1 REVERT JUMPDEST POP PUSH2 0x434 PUSH2 0x68E CALLDATASIZE PUSH1 0x4 PUSH2 0x4152 JUMP JUMPDEST PUSH2 0x15DA JUMP JUMPDEST CALLVALUE DUP1 ISZERO PUSH2 0x69F JUMPI PUSH1 0x0 DUP1 REVERT JUMPDEST POP PUSH2 0x434 PUSH2 0x6AE CALLDATASIZE PUSH1 0x4 PUSH2 0x4209 JUMP JUMPDEST PUSH2 0x165E JUMP JUMPDEST CALLVALUE DUP1 ISZERO PUSH2 0x6BF JUMPI PUSH1 0x0 DUP1 REVERT JUMPDEST POP PUSH2 0x481 PUSH2 0x6CE CALLDATASIZE PUSH1 0x4 PUSH2 0x423E JUMP JUMPDEST PUSH2 0x1691 JUMP JUMPDEST CALLVALUE DUP1 ISZERO PUSH2 0x6DF JUMPI PUSH1 0x0 DUP1 REVERT JUMPDEST POP PUSH2 0x517 PUSH2 0x6EE CALLDATASIZE PUSH1 0x4 PUSH2 0x427F JUMP JUMPDEST PUSH1 0x0 SWAP1 DUP2 MSTORE PUSH1 0x1 PUSH1 0x20 DUP2 SWAP1 MSTORE PUSH1 0x40 SWAP1 SWAP2 KECCAK256 ADD SLOAD SWAP1 JUMP JUMPDEST CALLVALUE DUP1 ISZERO PUSH2 0x710 JUMPI PUSH1 0x0 DUP1 REVERT JUMPDEST POP PUSH1 0x10 SLOAD PUSH2 0x724 SWAP1 PUSH1 0x1 PUSH1 0x1 PUSH1 0xA0 SHL SUB AND DUP2 JUMP JUMPDEST PUSH1 0x40 MLOAD PUSH1 0x1 PUSH1 0x1 PUSH1 0xA0 SHL SUB SWAP1 SWAP2 AND DUP2 MSTORE PUSH1 0x20 ADD PUSH2 0x48D JUMP JUMPDEST CALLVALUE DUP1 ISZERO PUSH2 0x748 JUMPI PUSH1 0x0 DUP1 REVERT JUMPDEST POP PUSH2 0x434 PUSH2 0x757 CALLDATASIZE PUSH1 0x4 PUSH2 0x4298 JUMP JUMPDEST PUSH2 0x1766 JUMP JUMPDEST CALLVALUE DUP1 ISZERO PUSH2 0x768 JUMPI PUSH1 0x0 DUP1 REVERT JUMPDEST POP PUSH1 0x40 MLOAD PUSH1 0x12 DUP2 MSTORE PUSH1 0x20 ADD PUSH2 0x48D JUMP JUMPDEST CALLVALUE DUP1 ISZERO PUSH2 0x784 JUMPI PUSH1 0x0 DUP1 REVERT JUMPDEST POP PUSH2 0x517 PUSH2 0x793 CALLDATASIZE PUSH1 0x4 PUSH2 0x4026 JUMP JUMPDEST PUSH1 0x1F PUSH1 0x20 MSTORE PUSH1 0x0 SWAP1 DUP2 MSTORE PUSH1 0x40 SWAP1 KECCAK256 SLOAD DUP2 JUMP JUMPDEST CALLVALUE DUP1 ISZERO PUSH2 0x7B1 JUMPI PUSH1 0x0 DUP1 REVERT JUMPDEST POP PUSH2 0x434 PUSH2 0x7C0 CALLDATASIZE PUSH1 0x4 PUSH2 0x4298 JUMP JUMPDEST PUSH2 0x1792 JUMP JUMPDEST CALLVALUE DUP1 ISZERO PUSH2 0x7D1 JUMPI PUSH1 0x0 DUP1 REVERT JUMPDEST POP PUSH2 0x434 PUSH2 0x17CA JUMP JUMPDEST CALLVALUE DUP1 ISZERO PUSH2 0x7E6 JUMPI PUSH1 0x0 DUP1 REVERT JUMPDEST POP PUSH2 0x724 PUSH2 0x7F5 CALLDATASIZE PUSH1 0x4 PUSH2 0x4026 JUMP JUMPDEST PUSH1 0x1D PUSH1 0x20 MSTORE PUSH1 0x0 SWAP1 DUP2 MSTORE PUSH1 0x40 SWAP1 KECCAK256 SLOAD PUSH1 0x1 PUSH1 0x1 PUSH1 0xA0 SHL SUB AND DUP2 JUMP JUMPDEST CALLVALUE DUP1 ISZERO PUSH2 0x81C JUMPI PUSH1 0x0 DUP1 REVERT JUMPDEST POP PUSH2 0x434 PUSH2 0x82B CALLDATASIZE PUSH1 0x4 PUSH2 0x4026 JUMP JUMPDEST PUSH2 0x1828 JUMP JUMPDEST CALLVALUE DUP1 ISZERO PUSH2 0x83C JUMPI PUSH1 0x0 DUP1 REVERT JUMPDEST POP PUSH2 0x517 PUSH1 0x33 SLOAD DUP2 JUMP JUMPDEST CALLVALUE DUP1 ISZERO PUSH2 0x852 JUMPI PUSH1 0x0 DUP1 REVERT JUMPDEST POP PUSH2 0x434 PUSH2 0x1889 JUMP JUMPDEST CALLVALUE DUP1 ISZERO PUSH2 0x867 JUMPI PUSH1 0x0 DUP1 REVERT JUMPDEST POP PUSH2 0x517 PUSH1 0x42 SLOAD DUP2 JUMP JUMPDEST CALLVALUE DUP1 ISZERO PUSH2 0x87D JUMPI PUSH1 0x0 DUP1 REVERT JUMPDEST POP PUSH2 0x517 PUSH2 0x88C CALLDATASIZE PUSH1 0x4 PUSH2 0x4026 JUMP JUMPDEST PUSH1 0x23 PUSH1 0x20 MSTORE PUSH1 0x0 SWAP1 DUP2 MSTORE PUSH1 0x40 SWAP1 KECCAK256 SLOAD DUP2 JUMP JUMPDEST CALLVALUE DUP1 ISZERO PUSH2 0x8AA JUMPI PUSH1 0x0 DUP1 REVERT JUMPDEST POP PUSH2 0x481 PUSH2 0x8B9 CALLDATASIZE PUSH1 0x4 PUSH2 0x4026 JUMP JUMPDEST PUSH2 0x1A6E JUMP JUMPDEST CALLVALUE DUP1 ISZERO PUSH2 0x8CA JUMPI PUSH1 0x0 DUP1 REVERT JUMPDEST POP PUSH2 0x517 PUSH1 0x2A SLOAD DUP2 JUMP JUMPDEST CALLVALUE DUP1 ISZERO PUSH2 0x8E0 JUMPI PUSH1 0x0 DUP1 REVERT JUMPDEST POP PUSH2 0x481 PUSH2 0x8EF CALLDATASIZE PUSH1 0x4 PUSH2 0x4026 JUMP JUMPDEST PUSH1 0x1C PUSH1 0x20 MSTORE PUSH1 0x0 SWAP1 DUP2 MSTORE PUSH1 0x40 SWAP1 KECCAK256 SLOAD PUSH1 0xFF AND DUP2 JUMP JUMPDEST CALLVALUE DUP1 ISZERO PUSH2 0x910 JUMPI PUSH1 0x0 DUP1 REVERT JUMPDEST POP PUSH2 0x434 PUSH2 0x91F CALLDATASIZE PUSH1 0x4 PUSH2 0x4209 JUMP JUMPDEST PUSH2 0x1A7C JUMP JUMPDEST CALLVALUE DUP1 ISZERO PUSH2 0x930 JUMPI PUSH1 0x0 DUP1 REVERT JUMPDEST POP PUSH1 0x21 SLOAD PUSH2 0x724 SWAP1 PUSH1 0x1 PUSH1 0x1 PUSH1 0xA0 SHL SUB AND DUP2 JUMP JUMPDEST CALLVALUE DUP1 ISZERO PUSH2 0x950 JUMPI PUSH1 0x0 DUP1 REVERT JUMPDEST POP PUSH2 0x959 PUSH2 0x1AAF JUMP JUMPDEST PUSH1 0x40 MLOAD PUSH2 0x48D SWAP2 SWAP1 PUSH2 0x430C JUMP JUMPDEST CALLVALUE DUP1 ISZERO PUSH2 0x972 JUMPI PUSH1 0x0 DUP1 REVERT JUMPDEST POP PUSH2 0x434 PUSH2 0x1B1E JUMP JUMPDEST CALLVALUE DUP1 ISZERO PUSH2 0x987 JUMPI PUSH1 0x0 DUP1 REVERT JUMPDEST POP PUSH1 0x19 SLOAD PUSH2 0x481 SWAP1 PUSH1 0x1 PUSH1 0xA8 SHL SWAP1 DIV PUSH1 0xFF AND DUP2 JUMP JUMPDEST CALLVALUE DUP1 ISZERO PUSH2 0x9A8 JUMPI PUSH1 0x0 DUP1 REVERT JUMPDEST POP PUSH2 0x517 PUSH2 0x9B7 CALLDATASIZE PUSH1 0x4 PUSH2 0x4026 JUMP JUMPDEST PUSH2 0x1B9C JUMP JUMPDEST CALLVALUE DUP1 ISZERO PUSH2 0x9C8 JUMPI PUSH1 0x0 DUP1 REVERT JUMPDEST POP PUSH2 0x434 PUSH2 0x1BB7 JUMP JUMPDEST CALLVALUE DUP1 ISZERO PUSH2 0x9DD JUMPI PUSH1 0x0 DUP1 REVERT JUMPDEST POP PUSH2 0x434 PUSH2 0x9EC CALLDATASIZE PUSH1 0x4 PUSH2 0x4026 JUMP JUMPDEST PUSH2 0x1BC9 JUMP JUMPDEST CALLVALUE DUP1 ISZERO PUSH2 0x9FD JUMPI PUSH1 0x0 DUP1 REVERT JUMPDEST POP PUSH2 0x517 PUSH1 0x0 DUP1 MLOAD PUSH1 0x20 PUSH2 0x46A6 DUP4 CODECOPY DUP2 MLOAD SWAP2 MSTORE DUP2 JUMP JUMPDEST CALLVALUE DUP1 ISZERO PUSH2 0xA1F JUMPI PUSH1 0x0 DUP1 REVERT JUMPDEST POP PUSH2 0x517 PUSH2 0xA2E CALLDATASIZE PUSH1 0x4 PUSH2 0x427F JUMP JUMPDEST PUSH2 0x1C0B JUMP JUMPDEST CALLVALUE DUP1 ISZERO PUSH2 0xA3F JUMPI PUSH1 0x0 DUP1 REVERT JUMPDEST POP PUSH2 0x481 PUSH2 0xA4E CALLDATASIZE PUSH1 0x4 PUSH2 0x4026 JUMP JUMPDEST PUSH1 0x24 PUSH1 0x20 MSTORE PUSH1 0x0 SWAP1 DUP2 MSTORE PUSH1 0x40 SWAP1 KECCAK256 SLOAD PUSH1 0xFF AND DUP2 JUMP JUMPDEST CALLVALUE DUP1 ISZERO PUSH2 0xA6F JUMPI PUSH1 0x0 DUP1 REVERT JUMPDEST POP PUSH1 0x0 SLOAD PUSH1 0x1 PUSH1 0x1 PUSH1 0xA0 SHL SUB AND PUSH2 0x724 JUMP JUMPDEST CALLVALUE DUP1 ISZERO PUSH2 0xA8D JUMPI PUSH1 0x0 DUP1 REVERT JUMPDEST POP PUSH2 0x481 PUSH2 0xA9C CALLDATASIZE PUSH1 0x4 PUSH2 0x4298 JUMP JUMPDEST PUSH2 0x1C2C JUMP JUMPDEST CALLVALUE DUP1 ISZERO PUSH2 0xAAD JUMPI PUSH1 0x0 DUP1 REVERT JUMPDEST POP PUSH2 0x55B PUSH2 0x1C57 JUMP JUMPDEST CALLVALUE DUP1 ISZERO PUSH2 0xAC2 JUMPI PUSH1 0x0 DUP1 REVERT JUMPDEST POP PUSH2 0x434 PUSH2 0xAD1 CALLDATASIZE PUSH1 0x4 PUSH2 0x4026 JUMP JUMPDEST PUSH2 0x1C66 JUMP JUMPDEST CALLVALUE DUP1 ISZERO PUSH2 0xAE2 JUMPI PUSH1 0x0 DUP1 REVERT JUMPDEST POP PUSH2 0x517 PUSH1 0x0 DUP2 JUMP JUMPDEST CALLVALUE DUP1 ISZERO PUSH2 0xAF7 JUMPI PUSH1 0x0 DUP1 REVERT JUMPDEST POP PUSH1 0x19 SLOAD PUSH2 0x724 SWAP1 PUSH1 0x1 PUSH1 0x1 PUSH1 0xA0 SHL SUB AND DUP2 JUMP JUMPDEST CALLVALUE DUP1 ISZERO PUSH2 0xB17 JUMPI PUSH1 0x0 DUP1 REVERT JUMPDEST POP PUSH2 0x481 PUSH2 0xB26 CALLDATASIZE PUSH1 0x4 PUSH2 0x40BB JUMP JUMPDEST PUSH2 0x1DF7 JUMP JUMPDEST CALLVALUE DUP1 ISZERO PUSH2 0xB37 JUMPI PUSH1 0x0 DUP1 REVERT JUMPDEST POP PUSH2 0x517 PUSH1 0x26 SLOAD DUP2 JUMP JUMPDEST CALLVALUE DUP1 ISZERO PUSH2 0xB4D JUMPI PUSH1 0x0 DUP1 REVERT JUMPDEST POP PUSH2 0x517 PUSH2 0xB5C CALLDATASIZE PUSH1 0x4 PUSH2 0x4026 JUMP JUMPDEST PUSH1 0x1E PUSH1 0x20 MSTORE PUSH1 0x0 SWAP1 DUP2 MSTORE PUSH1 0x40 SWAP1 KECCAK256 SLOAD DUP2 JUMP JUMPDEST CALLVALUE DUP1 ISZERO PUSH2 0xB7A JUMPI PUSH1 0x0 DUP1 REVERT JUMPDEST POP PUSH2 0xB83 PUSH2 0x1E29 JUMP JUMPDEST PUSH1 0x40 MLOAD PUSH2 0x48D SWAP2 SWAP1 PUSH2 0x431F JUMP JUMPDEST CALLVALUE DUP1 ISZERO PUSH2 0xB9C JUMPI PUSH1 0x0 DUP1 REVERT JUMPDEST POP PUSH1 0x40 SLOAD PUSH2 0x481 SWAP1 PUSH1 0xFF AND DUP2 JUMP JUMPDEST CALLVALUE DUP1 ISZERO PUSH2 0xBB6 JUMPI PUSH1 0x0 DUP1 REVERT JUMPDEST POP PUSH2 0x517 PUSH1 0x43 SLOAD DUP2 JUMP JUMPDEST CALLVALUE DUP1 ISZERO PUSH2 0xBCC JUMPI PUSH1 0x0 DUP1 REVERT JUMPDEST POP PUSH2 0xBFC PUSH2 0xBDB CALLDATASIZE PUSH1 0x4 PUSH2 0x427F JUMP JUMPDEST PUSH1 0x27 PUSH1 0x20 MSTORE PUSH1 0x0 SWAP1 DUP2 MSTORE PUSH1 0x40 SWAP1 KECCAK256 DUP1 SLOAD PUSH1 0x1 DUP3 ADD SLOAD PUSH1 0x2 SWAP1 SWAP3 ADD SLOAD SWAP1 SWAP2 SWAP1 DUP4 JUMP JUMPDEST PUSH1 0x40 DUP1 MLOAD SWAP4 DUP5 MSTORE PUSH1 0x20 DUP5 ADD SWAP3 SWAP1 SWAP3 MSTORE SWAP1 DUP3 ADD MSTORE PUSH1 0x60 ADD PUSH2 0x48D JUMP JUMPDEST CALLVALUE DUP1 ISZERO PUSH2 0xC23 JUMPI PUSH1 0x0 DUP1 REVERT JUMPDEST POP PUSH2 0x434 PUSH2 0x1E68 JUMP JUMPDEST CALLVALUE DUP1 ISZERO PUSH2 0xC38 JUMPI PUSH1 0x0 DUP1 REVERT JUMPDEST POP PUSH2 0x434 PUSH2 0x1E78 JUMP JUMPDEST CALLVALUE DUP1 ISZERO PUSH2 0xC4D JUMPI PUSH1 0x0 DUP1 REVERT JUMPDEST POP PUSH2 0x434 PUSH2 0xC5C CALLDATASIZE PUSH1 0x4 PUSH2 0x4298 JUMP JUMPDEST PUSH2 0x21F3 JUMP JUMPDEST CALLVALUE DUP1 ISZERO PUSH2 0xC6D JUMPI PUSH1 0x0 DUP1 REVERT JUMPDEST POP PUSH2 0x517 PUSH2 0xC7C CALLDATASIZE PUSH1 0x4 PUSH2 0x4359 JUMP JUMPDEST PUSH1 0x1 PUSH1 0x1 PUSH1 0xA0 SHL SUB SWAP2 DUP3 AND PUSH1 0x0 SWAP1 DUP2 MSTORE PUSH1 0x8 PUSH1 0x20 SWAP1 DUP2 MSTORE PUSH1 0x40 DUP1 DUP4 KECCAK256 SWAP4 SWAP1 SWAP5 AND DUP3 MSTORE SWAP2 SWAP1 SWAP2 MSTORE KECCAK256 SLOAD SWAP1 JUMP JUMPDEST CALLVALUE DUP1 ISZERO PUSH2 0xCB3 JUMPI PUSH1 0x0 DUP1 REVERT JUMPDEST POP PUSH2 0x434 PUSH2 0xCC2 CALLDATASIZE PUSH1 0x4 PUSH2 0x4387 JUMP JUMPDEST PUSH2 0x2219 JUMP JUMPDEST CALLVALUE DUP1 ISZERO PUSH2 0xCD3 JUMPI PUSH1 0x0 DUP1 REVERT JUMPDEST POP PUSH2 0x434 PUSH2 0xCE2 CALLDATASIZE PUSH1 0x4 PUSH2 0x427F JUMP JUMPDEST PUSH2 0x2294 JUMP JUMPDEST CALLVALUE DUP1 ISZERO PUSH2 0xCF3 JUMPI PUSH1 0x0 DUP1 REVERT JUMPDEST POP PUSH2 0x434 PUSH2 0xD02 CALLDATASIZE PUSH1 0x4 PUSH2 0x4026 JUMP JUMPDEST PUSH2 0x2318 JUMP JUMPDEST CALLVALUE DUP1 ISZERO PUSH2 0xD13 JUMPI PUSH1 0x0 DUP1 REVERT JUMPDEST POP PUSH2 0x434 PUSH2 0xD22 CALLDATASIZE PUSH1 0x4 PUSH2 0x43A3 JUMP JUMPDEST PUSH2 0x2356 JUMP JUMPDEST CALLVALUE DUP1 ISZERO PUSH2 0xD33 JUMPI PUSH1 0x0 DUP1 REVERT JUMPDEST POP PUSH1 0x18 SLOAD PUSH2 0x724 SWAP1 PUSH1 0x1 PUSH1 0x1 PUSH1 0xA0 SHL SUB AND DUP2 JUMP JUMPDEST CALLVALUE DUP1 ISZERO PUSH2 0xD53 JUMPI PUSH1 0x0 DUP1 REVERT JUMPDEST POP PUSH2 0x517 PUSH1 0x14 SLOAD DUP2 JUMP JUMPDEST CALLVALUE DUP1 ISZERO PUSH2 0xD69 JUMPI PUSH1 0x0 DUP1 REVERT JUMPDEST POP PUSH2 0x434 PUSH2 0xD78 CALLDATASIZE PUSH1 0x4 PUSH2 0x427F JUMP JUMPDEST PUSH2 0x25B7 JUMP JUMPDEST CALLVALUE DUP1 ISZERO PUSH2 0xD89 JUMPI PUSH1 0x0 DUP1 REVERT JUMPDEST POP PUSH2 0x481 PUSH2 0xD98 CALLDATASIZE PUSH1 0x4 PUSH2 0x4026 JUMP JUMPDEST PUSH1 0x26 SLOAD PUSH1 0x0 SWAP1 DUP2 MSTORE PUSH1 0x27 PUSH1 0x20 SWAP1 DUP2 MSTORE PUSH1 0x40 DUP1 DUP4 KECCAK256 PUSH1 0x1 PUSH1 0x1 PUSH1 0xA0 SHL SUB SWAP1 SWAP5 AND DUP4 MSTORE PUSH1 0x3 SWAP1 SWAP4 ADD SWAP1 MSTORE KECCAK256 SLOAD PUSH1 0xFF AND SWAP1 JUMP JUMPDEST PUSH1 0x1 PUSH1 0x1 PUSH1 0xA0 SHL SUB DUP2 AND CALLER EQ PUSH2 0xE16 JUMPI PUSH1 0x40 MLOAD PUSH3 0x461BCD PUSH1 0xE5 SHL DUP2 MSTORE PUSH1 0x20 PUSH1 0x4 DUP3 ADD MSTORE PUSH1 0xE PUSH1 0x24 DUP3 ADD MSTORE PUSH14 0x139BDD08185D5D1A1BDC9A5E9959 PUSH1 0x92 SHL PUSH1 0x44 DUP3 ADD MSTORE PUSH1 0x64 ADD JUMPDEST PUSH1 0x40 MLOAD DUP1 SWAP2 SUB SWAP1 REVERT JUMPDEST PUSH1 0x26 SLOAD PUSH1 0x0 SWAP1 DUP2 MSTORE PUSH1 0x27 PUSH1 0x20 MSTORE PUSH1 0x40 SWAP1 KECCAK256 PUSH1 0x2 ADD SLOAD TIMESTAMP LT PUSH2 0xE49 JUMPI PUSH1 0x40 MLOAD PUSH3 0x461BCD PUSH1 0xE5 SHL DUP2 MSTORE PUSH1 0x4 ADD PUSH2 0xE0D SWAP1 PUSH2 0x443D JUMP JUMPDEST PUSH1 0x26 SLOAD PUSH1 0x0 SWAP1 DUP2 MSTORE PUSH1 0x27 PUSH1 0x20 SWAP1 DUP2 MSTORE PUSH1 0x40 DUP1 DUP4 KECCAK256 CALLER DUP5 MSTORE PUSH1 0x7 ADD SWAP1 SWAP2 MSTORE DUP2 KECCAK256 SLOAD SWAP1 SUB PUSH2 0xECE JUMPI PUSH1 0x40 MLOAD PUSH3 0x461BCD PUSH1 0xE5 SHL DUP2 MSTORE PUSH1 0x20 PUSH1 0x4 DUP3 ADD MSTORE PUSH1 0x2E PUSH1 0x24 DUP3 ADD MSTORE PUSH32 0x596F7520686176656E277420626F7567687420612063617073756C6520647572 PUSH1 0x44 DUP3 ADD MSTORE PUSH14 0xD2DCCE40E8D0D2E640CAE0DEC6D PUSH1 0x93 SHL PUSH1 0x64 DUP3 ADD MSTORE PUSH1 0x84 ADD PUSH2 0xE0D JUMP JUMPDEST PUSH1 0x26 SLOAD PUSH1 0x0 SWAP1 DUP2 MSTORE PUSH1 0x27 PUSH1 0x20 SWAP1 DUP2 MSTORE PUSH1 0x40 DUP1 DUP4 KECCAK256 CALLER DUP5 MSTORE PUSH1 0x5 ADD SWAP1 SWAP2 MSTORE SWAP1 KECCAK256 SLOAD PUSH1 0xFF AND ISZERO PUSH2 0xF49 JUMPI PUSH1 0x40 MLOAD PUSH3 0x461BCD PUSH1 0xE5 SHL DUP2 MSTORE PUSH1 0x20 PUSH1 0x4 DUP3 ADD MSTORE PUSH1 0x22 PUSH1 0x24 DUP3 ADD MSTORE PUSH32 0x596F7527766520616C7265616479206F70656E656420796F7572206361707375 PUSH1 0x44 DUP3 ADD MSTORE PUSH2 0x6C65 PUSH1 0xF0 SHL PUSH1 0x64 DUP3 ADD MSTORE PUSH1 0x84 ADD PUSH2 0xE0D JUMP JUMPDEST PUSH1 0x26 SLOAD PUSH1 0x0 SWAP1 DUP2 MSTORE PUSH1 0x27 PUSH1 0x20 SWAP1 DUP2 MSTORE PUSH1 0x40 DUP1 DUP4 KECCAK256 CALLER DUP5 MSTORE PUSH1 0x8 ADD SWAP1 SWAP2 MSTORE SWAP1 KECCAK256 SLOAD PUSH1 0xFF AND ISZERO ISZERO PUSH1 0x1 EQ PUSH2 0xFCD JUMPI PUSH1 0x40 MLOAD PUSH3 0x461BCD PUSH1 0xE5 SHL DUP2 MSTORE PUSH1 0x20 PUSH1 0x4 DUP3 ADD MSTORE PUSH1 0x27 PUSH1 0x24 DUP3 ADD MSTORE PUSH32 0x596F75722072657175657374206861736E2774206265656E2066756C6C66696C PUSH1 0x44 DUP3 ADD MSTORE PUSH7 0x1B1959081E595D PUSH1 0xCA SHL PUSH1 0x64 DUP3 ADD MSTORE PUSH1 0x84 ADD PUSH2 0xE0D JUMP JUMPDEST PUSH1 0x26 SLOAD PUSH1 0x0 SWAP1 DUP2 MSTORE PUSH1 0x27 PUSH1 0x20 SWAP1 DUP2 MSTORE PUSH1 0x40 DUP1 DUP4 KECCAK256 CALLER DUP5 MSTORE PUSH1 0x7 ADD SWAP1 SWAP2 MSTORE DUP2 KECCAK256 SLOAD PUSH2 0xFF6 SWAP1 PUSH2 0x25D5 JUMP JUMPDEST SWAP1 POP PUSH1 0x1 DUP2 LT ISZERO DUP1 ISZERO PUSH2 0x100A JUMPI POP PUSH1 0x28 DUP2 GT ISZERO JUMPDEST ISZERO PUSH2 0x104A JUMPI PUSH1 0x2F DUP1 SLOAD SWAP1 PUSH1 0x0 PUSH2 0x101F DUP4 PUSH2 0x4497 JUMP JUMPDEST SWAP1 SWAP2 SSTORE POP POP PUSH1 0x2B DUP1 SLOAD SWAP1 PUSH1 0x0 PUSH2 0x1034 DUP4 PUSH2 0x4497 JUMP JUMPDEST SWAP2 SWAP1 POP SSTORE POP PUSH2 0x1046 DUP3 PUSH1 0x1 PUSH1 0x0 PUSH2 0x271A JUMP JUMPDEST POP POP JUMP JUMPDEST PUSH1 0x29 DUP2 LT ISZERO DUP1 ISZERO PUSH2 0x105C JUMPI POP PUSH1 0x4B DUP2 GT ISZERO JUMPDEST ISZERO PUSH2 0x1098 JUMPI PUSH1 0x30 DUP1 SLOAD SWAP1 PUSH1 0x0 PUSH2 0x1071 DUP4 PUSH2 0x4497 JUMP JUMPDEST SWAP1 SWAP2 SSTORE POP POP PUSH1 0x2C DUP1 SLOAD SWAP1 PUSH1 0x0 PUSH2 0x1086 DUP4 PUSH2 0x4497 JUMP JUMPDEST SWAP2 SWAP1 POP SSTORE POP PUSH2 0x1046 DUP3 PUSH1 0x2 PUSH1 0x0 PUSH2 0x271A JUMP JUMPDEST PUSH1 0x4C DUP2 LT ISZERO DUP1 ISZERO PUSH2 0x10AA JUMPI POP PUSH1 0x61 DUP2 GT ISZERO JUMPDEST ISZERO PUSH2 0x10E6 JUMPI PUSH1 0x31 DUP1 SLOAD SWAP1 PUSH1 0x0 PUSH2 0x10BF DUP4 PUSH2 0x4497 JUMP JUMPDEST SWAP1 SWAP2 SSTORE POP POP PUSH1 0x2D DUP1 SLOAD SWAP1 PUSH1 0x0 PUSH2 0x10D4 DUP4 PUSH2 0x4497 JUMP JUMPDEST SWAP2 SWAP1 POP SSTORE POP PUSH2 0x1046 DUP3 PUSH1 0x3 PUSH1 0x0 PUSH2 0x271A JUMP JUMPDEST PUSH1 0x62 DUP2 LT ISZERO DUP1 ISZERO PUSH2 0x10F9 JUMPI POP PUSH1 0x22 SLOAD DUP2 GT ISZERO JUMPDEST ISZERO PUSH2 0x1046 JUMPI PUSH1 0x32 DUP1 SLOAD SWAP1 PUSH1 0x0 PUSH2 0x110E DUP4 PUSH2 0x4497 JUMP JUMPDEST SWAP1 SWAP2 SSTORE POP POP PUSH1 0x2E DUP1 SLOAD SWAP1 PUSH1 0x0 PUSH2 0x1123 DUP4 PUSH2 0x4497 JUMP JUMPDEST SWAP1 SWAP2 SSTORE POP POP PUSH1 0x26 SLOAD PUSH1 0x0 SWAP1 DUP2 MSTORE PUSH1 0x27 PUSH1 0x20 SWAP1 DUP2 MSTORE PUSH1 0x40 DUP3 KECCAK256 PUSH1 0x9 ADD DUP1 SLOAD PUSH1 0x1 DUP1 DUP3 ADD DUP4 SSTORE SWAP2 DUP5 MSTORE SWAP2 SWAP1 SWAP3 KECCAK256 ADD DUP1 SLOAD PUSH1 0x1 PUSH1 0x1 PUSH1 0xA0 SHL SUB NOT AND PUSH1 0x1 PUSH1 0x1 PUSH1 0xA0 SHL SUB DUP6 AND OR SWAP1 SSTORE PUSH2 0x1046 SWAP1 DUP4 SWAP1 DUP1 PUSH2 0x271A JUMP JUMPDEST PUSH1 0x0 PUSH1 0x1 PUSH1 0x1 PUSH1 0xE0 SHL SUB NOT DUP3 AND PUSH4 0x7965DB0B PUSH1 0xE0 SHL EQ DUP1 PUSH2 0x11A5 JUMPI POP PUSH4 0x1FFC9A7 PUSH1 0xE0 SHL PUSH1 0x1 PUSH1 0x1 PUSH1 0xE0 SHL SUB NOT DUP4 AND EQ JUMPDEST SWAP3 SWAP2 POP POP JUMP JUMPDEST PUSH1 0x60 PUSH1 0x2 DUP1 SLOAD PUSH2 0x11BA SWAP1 PUSH2 0x44B0 JUMP JUMPDEST DUP1 PUSH1 0x1F ADD PUSH1 0x20 DUP1 SWAP2 DIV MUL PUSH1 0x20 ADD PUSH1 0x40 MLOAD SWAP1 DUP2 ADD PUSH1 0x40 MSTORE DUP1 SWAP3 SWAP2 SWAP1 DUP2 DUP2 MSTORE PUSH1 0x20 ADD DUP3 DUP1 SLOAD PUSH2 0x11E6 SWAP1 PUSH2 0x44B0 JUMP JUMPDEST DUP1 ISZERO PUSH2 0x1233 JUMPI DUP1 PUSH1 0x1F LT PUSH2 0x1208 JUMPI PUSH2 0x100 DUP1 DUP4 SLOAD DIV MUL DUP4 MSTORE SWAP2 PUSH1 0x20 ADD SWAP2 PUSH2 0x1233 JUMP JUMPDEST DUP3 ADD SWAP2 SWAP1 PUSH1 0x0 MSTORE PUSH1 0x20 PUSH1 0x0 KECCAK256 SWAP1 JUMPDEST DUP2 SLOAD DUP2 MSTORE SWAP1 PUSH1 0x1 ADD SWAP1 PUSH1 0x20 ADD DUP1 DUP4 GT PUSH2 0x1216 JUMPI DUP3 SWAP1 SUB PUSH1 0x1F AND DUP3 ADD SWAP2 JUMPDEST POP POP POP POP POP SWAP1 POP SWAP1 JUMP JUMPDEST CALLER PUSH1 0x0 DUP2 DUP2 MSTORE PUSH1 0x8 PUSH1 0x20 SWAP1 DUP2 MSTORE PUSH1 0x40 DUP1 DUP4 KECCAK256 PUSH1 0x1 PUSH1 0x1 PUSH1 0xA0 SHL SUB DUP8 AND DUP1 DUP6 MSTORE SWAP3 MSTORE DUP1 DUP4 KECCAK256 DUP6 SWAP1 SSTORE MLOAD SWAP2 SWAP3 SWAP1 SWAP2 PUSH32 0x8C5BE1E5EBEC7D5BD14F71427D1E84F3DD0314C0F7B2291E5B200AC8C7C3B925 SWAP1 PUSH2 0x1298 SWAP1 DUP7 DUP2 MSTORE PUSH1 0x20 ADD SWAP1 JUMP JUMPDEST PUSH1 0x40 MLOAD DUP1 SWAP2 SUB SWAP1 LOG3 POP PUSH1 0x1 SWAP3 SWAP2 POP POP JUMP JUMPDEST PUSH1 0x0 PUSH2 0x3E8 PUSH1 0x2A SLOAD PUSH2 0x2EE PUSH2 0x12BE SWAP2 SWAP1 PUSH2 0x44E4 JUMP JUMPDEST PUSH2 0x12C8 SWAP2 SWAP1 PUSH2 0x4511 JUMP JUMPDEST PUSH1 0x26 SLOAD PUSH1 0x0 SWAP1 DUP2 MSTORE PUSH1 0x27 PUSH1 0x20 SWAP1 DUP2 MSTORE PUSH1 0x40 DUP1 DUP4 KECCAK256 CALLER DUP5 MSTORE PUSH1 0x3 ADD SWAP1 SWAP2 MSTORE SWAP1 KECCAK256 SLOAD SWAP1 SWAP2 POP PUSH1 0xFF AND ISZERO PUSH2 0x1357 JUMPI PUSH1 0x40 MLOAD PUSH3 0x461BCD PUSH1 0xE5 SHL DUP2 MSTORE PUSH1 0x20 PUSH1 0x4 DUP3 ADD MSTORE PUSH1 0x33 PUSH1 0x24 DUP3 ADD MSTORE PUSH32 0x596F752068617665206F6E6C79206F6E6520616374696F6E207065722065706F PUSH1 0x44 DUP3 ADD MSTORE PUSH19 0x6368203A20627579206F722075706772616465 PUSH1 0x68 SHL PUSH1 0x64 DUP3 ADD MSTORE PUSH1 0x84 ADD PUSH2 0xE0D JUMP JUMPDEST PUSH1 0x26 SLOAD PUSH1 0x0 SWAP1 DUP2 MSTORE PUSH1 0x27 PUSH1 0x20 SWAP1 DUP2 MSTORE PUSH1 0x40 DUP1 DUP4 KECCAK256 CALLER DUP5 MSTORE PUSH1 0x4 ADD SWAP1 SWAP2 MSTORE SWAP1 KECCAK256 SLOAD PUSH1 0xFF AND ISZERO PUSH2 0x13E6 JUMPI PUSH1 0x40 MLOAD PUSH3 0x461BCD PUSH1 0xE5 SHL DUP2 MSTORE PUSH1 0x20 PUSH1 0x4 DUP3 ADD MSTORE PUSH1 0x36 PUSH1 0x24 DUP3 ADD MSTORE PUSH32 0x596F7527766520616C726561647920757067726164656420796F757220766163 PUSH1 0x44 DUP3 ADD MSTORE PUSH22 0xC6D2DCCA40C8EAE4D2DCCE40E8D0D2E640CAE0DEC6D PUSH1 0x53 SHL PUSH1 0x64 DUP3 ADD MSTORE PUSH1 0x84 ADD PUSH2 0xE0D JUMP JUMPDEST CALLER PUSH1 0x0 SWAP1 DUP2 MSTORE PUSH1 0x23 PUSH1 0x20 MSTORE PUSH1 0x40 SWAP1 KECCAK256 SLOAD ISZERO DUP1 ISZERO SWAP1 PUSH2 0x1413 JUMPI POP CALLER PUSH1 0x0 SWAP1 DUP2 MSTORE PUSH1 0x23 PUSH1 0x20 MSTORE PUSH1 0x40 SWAP1 KECCAK256 SLOAD PUSH1 0x3 GT JUMPDEST PUSH2 0x146B JUMPI PUSH1 0x40 MLOAD PUSH3 0x461BCD PUSH1 0xE5 SHL DUP2 MSTORE PUSH1 0x20 PUSH1 0x4 DUP3 ADD MSTORE PUSH1 0x23 PUSH1 0x24 DUP3 ADD MSTORE PUSH32 0x596F7520646F6E2774206861766520612076616363696E6520746F2075706772 PUSH1 0x44 DUP3 ADD MSTORE PUSH3 0x616465 PUSH1 0xE8 SHL PUSH1 0x64 DUP3 ADD MSTORE PUSH1 0x84 ADD PUSH2 0xE0D JUMP JUMPDEST DUP1 PUSH2 0x1475 CALLER PUSH2 0x1B9C JUMP JUMPDEST LT ISZERO PUSH2 0x14D5 JUMPI PUSH1 0x40 MLOAD PUSH3 0x461BCD PUSH1 0xE5 SHL DUP2 MSTORE PUSH1 0x20 PUSH1 0x4 DUP3 ADD MSTORE PUSH1 0x29 PUSH1 0x24 DUP3 ADD MSTORE PUSH32 0x4E6F7420656E6F75676820746F6B656E7320746F207570677261646520796F75 PUSH1 0x44 DUP3 ADD MSTORE PUSH9 0x722076616363696E65 PUSH1 0xB8 SHL PUSH1 0x64 DUP3 ADD MSTORE PUSH1 0x84 ADD PUSH2 0xE0D JUMP JUMPDEST PUSH1 0x26 SLOAD PUSH1 0x0 SWAP1 DUP2 MSTORE PUSH1 0x27 PUSH1 0x20 MSTORE PUSH1 0x40 SWAP1 KECCAK256 PUSH1 0x2 ADD SLOAD TIMESTAMP LT PUSH2 0x1508 JUMPI PUSH1 0x40 MLOAD PUSH3 0x461BCD PUSH1 0xE5 SHL DUP2 MSTORE PUSH1 0x4 ADD PUSH2 0xE0D SWAP1 PUSH2 0x443D JUMP JUMPDEST PUSH1 0x26 SLOAD PUSH1 0x0 SWAP1 DUP2 MSTORE PUSH1 0x27 PUSH1 0x20 SWAP1 DUP2 MSTORE PUSH1 0x40 DUP1 DUP4 KECCAK256 CALLER DUP5 MSTORE PUSH1 0x4 ADD SWAP1 SWAP2 MSTORE DUP2 KECCAK256 DUP1 SLOAD PUSH1 0xFF NOT AND PUSH1 0x1 OR SWAP1 SSTORE PUSH2 0x3E8 PUSH2 0x1540 DUP4 PUSH1 0x32 PUSH2 0x44E4 JUMP JUMPDEST PUSH2 0x154A SWAP2 SWAP1 PUSH2 0x4511 JUMP JUMPDEST PUSH1 0x21 SLOAD SWAP1 SWAP2 POP PUSH1 0x0 SWAP1 PUSH2 0x1571 SWAP1 CALLER SWAP1 PUSH1 0x1 PUSH1 0x1 PUSH1 0xA0 SHL SUB AND PUSH2 0x156C DUP6 DUP8 PUSH2 0x4525 JUMP JUMPDEST PUSH2 0x2816 JUMP JUMPDEST SWAP1 POP PUSH2 0x157E CALLER ADDRESS DUP5 PUSH2 0x2816 JUMP JUMPDEST POP CALLER PUSH1 0x0 SWAP1 DUP2 MSTORE PUSH1 0x23 PUSH1 0x20 MSTORE PUSH1 0x40 DUP2 KECCAK256 DUP1 SLOAD SWAP2 PUSH2 0x159A DUP4 PUSH2 0x4497 JUMP JUMPDEST SWAP2 SWAP1 POP SSTORE POP POP POP POP JUMP JUMPDEST PUSH2 0x15AC PUSH2 0x28BE JUMP JUMPDEST PUSH1 0x19 DUP1 SLOAD PUSH2 0xFFFF PUSH1 0xA0 SHL NOT AND PUSH2 0x101 PUSH1 0xA0 SHL OR SWAP1 DUP2 SWAP1 SSTORE PUSH1 0xFF PUSH1 0x1 PUSH1 0xA0 SHL SWAP1 SWAP2 DIV AND ISZERO PUSH2 0x15D8 JUMPI TIMESTAMP PUSH1 0x49 SSTORE JUMPDEST JUMP JUMPDEST CALLER PUSH1 0x1 PUSH1 0x1 PUSH1 0xA0 SHL SUB PUSH32 0x0 AND EQ PUSH2 0x1654 JUMPI PUSH1 0x40 MLOAD PUSH4 0x73E64FD PUSH1 0xE2 SHL DUP2 MSTORE CALLER PUSH1 0x4 DUP3 ADD MSTORE PUSH1 0x1 PUSH1 0x1 PUSH1 0xA0 SHL SUB PUSH32 0x0 AND PUSH1 0x24 DUP3 ADD MSTORE PUSH1 0x44 ADD PUSH2 0xE0D JUMP JUMPDEST PUSH2 0x1046 DUP3 DUP3 PUSH2 0x28EB JUMP JUMPDEST PUSH2 0x1666 PUSH2 0x28BE JUMP JUMPDEST PUSH1 0x1 PUSH1 0x1 PUSH1 0xA0 SHL SUB SWAP2 SWAP1 SWAP2 AND PUSH1 0x0 SWAP1 DUP2 MSTORE PUSH1 0xA PUSH1 0x20 MSTORE PUSH1 0x40 SWAP1 KECCAK256 DUP1 SLOAD PUSH1 0xFF NOT AND SWAP2 ISZERO ISZERO SWAP2 SWAP1 SWAP2 OR SWAP1 SSTORE JUMP JUMPDEST PUSH1 0x1 PUSH1 0x1 PUSH1 0xA0 SHL SUB DUP4 AND PUSH1 0x0 SWAP1 DUP2 MSTORE PUSH1 0x8 PUSH1 0x20 SWAP1 DUP2 MSTORE PUSH1 0x40 DUP1 DUP4 KECCAK256 CALLER DUP5 MSTORE SWAP1 SWAP2 MSTORE DUP2 KECCAK256 SLOAD DUP3 GT ISZERO PUSH2 0x1715 JUMPI PUSH1 0x40 MLOAD PUSH3 0x461BCD PUSH1 0xE5 SHL DUP2 MSTORE PUSH1 0x20 PUSH1 0x4 DUP3 ADD MSTORE PUSH1 0x28 PUSH1 0x24 DUP3 ADD MSTORE PUSH32 0x45524332303A207472616E7366657220616D6F756E7420657863656564732061 PUSH1 0x44 DUP3 ADD MSTORE PUSH8 0x6C6C6F77616E6365 PUSH1 0xC0 SHL PUSH1 0x64 DUP3 ADD MSTORE PUSH1 0x84 ADD PUSH2 0xE0D JUMP JUMPDEST PUSH2 0x1720 DUP5 DUP5 DUP5 PUSH2 0x29F1 JUMP JUMPDEST POP PUSH1 0x1 PUSH1 0x1 PUSH1 0xA0 SHL SUB DUP5 AND PUSH1 0x0 SWAP1 DUP2 MSTORE PUSH1 0x8 PUSH1 0x20 SWAP1 DUP2 MSTORE PUSH1 0x40 DUP1 DUP4 KECCAK256 CALLER DUP1 DUP6 MSTORE SWAP3 MSTORE SWAP1 SWAP2 KECCAK256 SLOAD PUSH2 0x175C SWAP2 DUP7 SWAP2 PUSH2 0x1757 SWAP1 DUP7 SWAP1 PUSH2 0x4525 JUMP JUMPDEST PUSH2 0x2D3A JUMP JUMPDEST POP PUSH1 0x1 SWAP4 SWAP3 POP POP POP JUMP JUMPDEST PUSH1 0x0 DUP3 DUP2 MSTORE PUSH1 0x1 PUSH1 0x20 DUP2 SWAP1 MSTORE PUSH1 0x40 SWAP1 SWAP2 KECCAK256 ADD SLOAD PUSH2 0x1782 DUP2 PUSH2 0x2E5E JUMP JUMPDEST PUSH2 0x178C DUP4 DUP4 PUSH2 0x2E68 JUMP JUMPDEST POP POP POP POP JUMP JUMPDEST PUSH1 0x1 PUSH1 0x1 PUSH1 0xA0 SHL SUB DUP2 AND CALLER EQ PUSH2 0x17BB JUMPI PUSH1 0x40 MLOAD PUSH4 0x334BD919 PUSH1 0xE1 SHL DUP2 MSTORE PUSH1 0x4 ADD PUSH1 0x40 MLOAD DUP1 SWAP2 SUB SWAP1 REVERT JUMPDEST PUSH2 0x17C5 DUP3 DUP3 PUSH2 0x2EE1 JUMP JUMPDEST POP POP POP JUMP JUMPDEST PUSH1 0x0 DUP1 MLOAD PUSH1 0x20 PUSH2 0x46A6 DUP4 CODECOPY DUP2 MLOAD SWAP2 MSTORE PUSH2 0x17E2 DUP2 PUSH2 0x2E5E JUMP JUMPDEST PUSH2 0x17EA PUSH2 0x2F4E JUMP JUMPDEST PUSH32 0xA7EF457C4BDAA5CF9805314EBB0D85316230DE6508DF8BA03DB8E27901CC147D PUSH1 0x26 SLOAD PUSH1 0x40 MLOAD PUSH2 0x181D SWAP2 DUP2 MSTORE PUSH1 0x20 ADD SWAP1 JUMP JUMPDEST PUSH1 0x40 MLOAD DUP1 SWAP2 SUB SWAP1 LOG1 POP JUMP JUMPDEST PUSH2 0x1830 PUSH2 0x28BE JUMP JUMPDEST PUSH1 0x10 DUP1 SLOAD PUSH1 0x1 PUSH1 0x1 PUSH1 0xA0 SHL SUB NOT AND PUSH1 0x1 PUSH1 0x1 PUSH1 0xA0 SHL SUB SWAP3 DUP4 AND SWAP1 DUP2 OR DUP3 SSTORE PUSH1 0x0 SWAP1 DUP2 MSTORE PUSH1 0x9 PUSH1 0x20 SWAP1 DUP2 MSTORE PUSH1 0x40 DUP1 DUP4 KECCAK256 DUP1 SLOAD PUSH1 0xFF NOT SWAP1 DUP2 AND PUSH1 0x1 SWAP1 DUP2 OR SWAP1 SWAP3 SSTORE SWAP5 SLOAD SWAP1 SWAP6 AND DUP4 MSTORE PUSH1 0xA SWAP1 SWAP2 MSTORE SWAP1 KECCAK256 DUP1 SLOAD SWAP1 SWAP2 AND SWAP1 SWAP2 OR SWAP1 SSTORE JUMP JUMPDEST CALLER ORIGIN EQ PUSH2 0x18C0 JUMPI PUSH1 0x40 MLOAD PUSH3 0x461BCD PUSH1 0xE5 SHL DUP2 MSTORE PUSH1 0x20 PUSH1 0x4 DUP3 ADD MSTORE PUSH1 0x5 PUSH1 0x24 DUP3 ADD MSTORE PUSH5 0x32B93937B9 PUSH1 0xD9 SHL PUSH1 0x44 DUP3 ADD MSTORE PUSH1 0x64 ADD PUSH2 0xE0D JUMP JUMPDEST CALLER PUSH1 0x0 SWAP1 DUP2 MSTORE PUSH1 0x1F PUSH1 0x20 MSTORE PUSH1 0x40 SWAP1 KECCAK256 SLOAD PUSH2 0x1911 JUMPI PUSH1 0x40 MLOAD PUSH3 0x461BCD PUSH1 0xE5 SHL DUP2 MSTORE PUSH1 0x20 PUSH1 0x4 DUP3 ADD MSTORE PUSH1 0x12 PUSH1 0x24 DUP3 ADD MSTORE PUSH18 0x6E6F2070656E64696E672072657761726473 PUSH1 0x70 SHL PUSH1 0x44 DUP3 ADD MSTORE PUSH1 0x64 ADD PUSH2 0xE0D JUMP JUMPDEST CALLER PUSH1 0x0 SWAP1 DUP2 MSTORE PUSH1 0x1F PUSH1 0x20 MSTORE PUSH1 0x40 DUP2 KECCAK256 DUP1 SLOAD SWAP1 DUP3 SWAP1 SSTORE PUSH1 0x49 SLOAD SWAP1 SWAP2 SWAP1 PUSH2 0x1939 SWAP1 PUSH3 0x15180 PUSH2 0x4538 JUMP JUMPDEST TIMESTAMP LT ISZERO PUSH2 0x1966 JUMPI PUSH1 0x64 PUSH2 0x194D DUP4 PUSH1 0x19 PUSH2 0x44E4 JUMP JUMPDEST PUSH2 0x1957 SWAP2 SWAP1 PUSH2 0x4511 JUMP JUMPDEST SWAP1 POP PUSH2 0x1963 DUP2 DUP4 PUSH2 0x4525 JUMP JUMPDEST SWAP2 POP JUMPDEST DUP1 ISZERO PUSH2 0x1986 JUMPI PUSH1 0x21 SLOAD PUSH2 0x1984 SWAP1 ADDRESS SWAP1 PUSH1 0x1 PUSH1 0x1 PUSH1 0xA0 SHL SUB AND DUP4 PUSH2 0x2816 JUMP JUMPDEST POP JUMPDEST PUSH1 0x0 PUSH2 0x1993 ADDRESS CALLER DUP6 PUSH2 0x2816 JUMP JUMPDEST SWAP1 POP DUP1 PUSH2 0x19D4 JUMPI PUSH1 0x40 MLOAD PUSH3 0x461BCD PUSH1 0xE5 SHL DUP2 MSTORE PUSH1 0x20 PUSH1 0x4 DUP3 ADD MSTORE PUSH1 0xF PUSH1 0x24 DUP3 ADD MSTORE PUSH15 0x1D1C985B9CD9995C8819985A5B1959 PUSH1 0x8A SHL PUSH1 0x44 DUP3 ADD MSTORE PUSH1 0x64 ADD PUSH2 0xE0D JUMP JUMPDEST CALLER PUSH1 0x0 SWAP1 DUP2 MSTORE PUSH1 0x1E PUSH1 0x20 MSTORE PUSH1 0x40 DUP2 KECCAK256 DUP1 SLOAD DUP6 SWAP3 SWAP1 PUSH2 0x19F3 SWAP1 DUP5 SWAP1 PUSH2 0x4538 JUMP JUMPDEST SWAP3 POP POP DUP2 SWAP1 SSTORE POP DUP3 PUSH1 0x42 PUSH1 0x0 DUP3 DUP3 SLOAD PUSH2 0x1A0C SWAP2 SWAP1 PUSH2 0x4538 JUMP JUMPDEST SWAP3 POP POP DUP2 SWAP1 SSTORE POP DUP3 PUSH1 0x41 PUSH1 0x0 DUP3 DUP3 SLOAD PUSH2 0x1A25 SWAP2 SWAP1 PUSH2 0x4525 JUMP JUMPDEST SWAP1 SWAP2 SSTORE POP PUSH2 0x1A33 SWAP1 POP PUSH2 0x3126 JUMP JUMPDEST PUSH1 0x40 MLOAD DUP4 DUP2 MSTORE CALLER SWAP1 PUSH32 0x620FC7379F7C67F4289F23E24A7F28F721792B0E898E2AF03581B2E73E604A53 SWAP1 PUSH1 0x20 ADD JUMPDEST PUSH1 0x40 MLOAD DUP1 SWAP2 SUB SWAP1 LOG2 POP POP POP JUMP JUMPDEST PUSH1 0x0 PUSH2 0x11A5 DUP3 PUSH1 0x0 NOT PUSH2 0x123D JUMP JUMPDEST PUSH2 0x1A84 PUSH2 0x28BE JUMP JUMPDEST PUSH1 0x1 PUSH1 0x1 PUSH1 0xA0 SHL SUB SWAP2 SWAP1 SWAP2 AND PUSH1 0x0 SWAP1 DUP2 MSTORE PUSH1 0x9 PUSH1 0x20 MSTORE PUSH1 0x40 SWAP1 KECCAK256 DUP1 SLOAD PUSH1 0xFF NOT AND SWAP2 ISZERO ISZERO SWAP2 SWAP1 SWAP2 OR SWAP1 SSTORE JUMP JUMPDEST PUSH1 0x26 SLOAD PUSH1 0x0 SWAP1 DUP2 MSTORE PUSH1 0x27 PUSH1 0x20 SWAP1 DUP2 MSTORE PUSH1 0x40 SWAP2 DUP3 SWAP1 KECCAK256 PUSH1 0x9 ADD DUP1 SLOAD DUP4 MLOAD DUP2 DUP5 MUL DUP2 ADD DUP5 ADD SWAP1 SWAP5 MSTORE DUP1 DUP5 MSTORE PUSH1 0x60 SWAP4 SWAP3 DUP4 ADD DUP3 DUP3 DUP1 ISZERO PUSH2 0x1233 JUMPI PUSH1 0x20 MUL DUP3 ADD SWAP2 SWAP1 PUSH1 0x0 MSTORE PUSH1 0x20 PUSH1 0x0 KECCAK256 SWAP1 JUMPDEST DUP2 SLOAD PUSH1 0x1 PUSH1 0x1 PUSH1 0xA0 SHL SUB AND DUP2 MSTORE PUSH1 0x1 SWAP1 SWAP2 ADD SWAP1 PUSH1 0x20 ADD DUP1 DUP4 GT PUSH2 0x1AF7 JUMPI POP POP POP POP POP SWAP1 POP SWAP1 JUMP JUMPDEST PUSH1 0x0 DUP1 MLOAD PUSH1 0x20 PUSH2 0x46A6 DUP4 CODECOPY DUP2 MLOAD SWAP2 MSTORE PUSH2 0x1B36 DUP2 PUSH2 0x2E5E JUMP JUMPDEST PUSH1 0x49 SLOAD PUSH2 0x1B46 SWAP1 PUSH3 0x93A80 PUSH2 0x4538 JUMP JUMPDEST TIMESTAMP LT ISZERO PUSH2 0x1B8A JUMPI PUSH1 0x40 MLOAD PUSH3 0x461BCD PUSH1 0xE5 SHL DUP2 MSTORE PUSH1 0x20 PUSH1 0x4 DUP3 ADD MSTORE PUSH1 0x12 PUSH1 0x24 DUP3 ADD MSTORE PUSH18 0x43616E277420656E64207468652067616D65 PUSH1 0x70 SHL PUSH1 0x44 DUP3 ADD MSTORE PUSH1 0x64 ADD PUSH2 0xE0D JUMP JUMPDEST POP PUSH1 0x40 DUP1 SLOAD PUSH2 0xFF00 NOT AND PUSH2 0x100 OR SWAP1 SSTORE JUMP JUMPDEST PUSH1 0x1 PUSH1 0x1 PUSH1 0xA0 SHL SUB AND PUSH1 0x0 SWAP1 DUP2 MSTORE PUSH1 0x7 PUSH1 0x20 MSTORE PUSH1 0x40 SWAP1 KECCAK256 SLOAD SWAP1 JUMP JUMPDEST PUSH2 0x1BBF PUSH2 0x28BE JUMP JUMPDEST PUSH2 0x15D8 PUSH1 0x0 PUSH2 0x3328 JUMP JUMPDEST PUSH2 0x1BD1 PUSH2 0x28BE JUMP JUMPDEST PUSH1 0x19 DUP1 SLOAD PUSH1 0x1 PUSH1 0x1 PUSH1 0xA0 SHL SUB SWAP1 SWAP3 AND PUSH1 0x1 PUSH1 0x1 PUSH1 0xA0 SHL SUB NOT SWAP1 SWAP3 AND DUP3 OR SWAP1 SSTORE PUSH1 0x0 SWAP1 DUP2 MSTORE PUSH1 0xA PUSH1 0x20 MSTORE PUSH1 0x40 SWAP1 KECCAK256 DUP1 SLOAD PUSH1 0xFF NOT AND PUSH1 0x1 OR SWAP1 SSTORE JUMP JUMPDEST PUSH1 0x13 DUP2 DUP2 SLOAD DUP2 LT PUSH2 0x1C1B JUMPI PUSH1 0x0 DUP1 REVERT JUMPDEST PUSH1 0x0 SWAP2 DUP3 MSTORE PUSH1 0x20 SWAP1 SWAP2 KECCAK256 ADD SLOAD SWAP1 POP DUP2 JUMP JUMPDEST PUSH1 0x0 SWAP2 DUP3 MSTORE PUSH1 0x1 PUSH1 0x20 SWAP1 DUP2 MSTORE PUSH1 0x40 DUP1 DUP5 KECCAK256 PUSH1 0x1 PUSH1 0x1 PUSH1 0xA0 SHL SUB SWAP4 SWAP1 SWAP4 AND DUP5 MSTORE SWAP2 SWAP1 MSTORE SWAP1 KECCAK256 SLOAD PUSH1 0xFF AND SWAP1 JUMP JUMPDEST PUSH1 0x60 PUSH1 0x3 DUP1 SLOAD PUSH2 0x11BA SWAP1 PUSH2 0x44B0 JUMP JUMPDEST PUSH1 0x1 PUSH1 0x1 PUSH1 0xA0 SHL SUB DUP2 AND PUSH1 0x0 SWAP1 DUP2 MSTORE PUSH1 0x1C PUSH1 0x20 MSTORE PUSH1 0x40 SWAP1 KECCAK256 SLOAD PUSH1 0xFF AND ISZERO PUSH2 0x1CC2 JUMPI PUSH1 0x40 MLOAD PUSH3 0x461BCD PUSH1 0xE5 SHL DUP2 MSTORE PUSH1 0x20 PUSH1 0x4 DUP3 ADD MSTORE PUSH1 0x10 PUSH1 0x24 DUP3 ADD MSTORE PUSH16 0x105B1C9958591E481A5B999958DD1959 PUSH1 0x82 SHL PUSH1 0x44 DUP3 ADD MSTORE PUSH1 0x64 ADD PUSH2 0xE0D JUMP JUMPDEST PUSH1 0x1 PUSH2 0x1CCD CALLER PUSH2 0x1B9C JUMP JUMPDEST LT ISZERO PUSH2 0x1D1B JUMPI PUSH1 0x40 MLOAD PUSH3 0x461BCD PUSH1 0xE5 SHL DUP2 MSTORE PUSH1 0x20 PUSH1 0x4 DUP3 ADD MSTORE PUSH1 0x1B PUSH1 0x24 DUP3 ADD MSTORE PUSH32 0x4E6F7420656E6F75676820746F6B656E7320746F20696E666563740000000000 PUSH1 0x44 DUP3 ADD MSTORE PUSH1 0x64 ADD PUSH2 0xE0D JUMP JUMPDEST CALLER PUSH1 0x0 SWAP1 DUP2 MSTORE PUSH1 0x1C PUSH1 0x20 MSTORE PUSH1 0x40 SWAP1 KECCAK256 SLOAD PUSH1 0xFF AND ISZERO ISZERO PUSH1 0x1 EQ PUSH2 0x1D75 JUMPI PUSH1 0x40 MLOAD PUSH3 0x461BCD PUSH1 0xE5 SHL DUP2 MSTORE PUSH1 0x20 PUSH1 0x4 DUP3 ADD MSTORE PUSH1 0x13 PUSH1 0x24 DUP3 ADD MSTORE PUSH19 0x165BDD49DC99481B9BDD081A5B999958DD1959 PUSH1 0x6A SHL PUSH1 0x44 DUP3 ADD MSTORE PUSH1 0x64 ADD PUSH2 0xE0D JUMP JUMPDEST PUSH1 0x1 PUSH1 0x1 PUSH1 0xA0 SHL SUB DUP2 AND PUSH1 0x0 SWAP1 DUP2 MSTORE PUSH1 0x1D PUSH1 0x20 SWAP1 DUP2 MSTORE PUSH1 0x40 DUP1 DUP4 KECCAK256 DUP1 SLOAD PUSH1 0x1 PUSH1 0x1 PUSH1 0xA0 SHL SUB NOT AND CALLER SWAP1 DUP2 OR SWAP1 SWAP2 SSTORE PUSH1 0x1C DUP4 MSTORE DUP2 DUP5 KECCAK256 DUP1 SLOAD PUSH1 0xFF NOT AND PUSH1 0x1 OR SWAP1 SSTORE DUP4 MSTORE SWAP1 DUP1 MSTORE DUP2 KECCAK256 DUP1 SLOAD SWAP2 PUSH2 0x1DC8 DUP4 PUSH2 0x4497 JUMP JUMPDEST SWAP1 SWAP2 SSTORE POP POP PUSH1 0x43 DUP1 SLOAD SWAP1 PUSH1 0x0 PUSH2 0x1DDD DUP4 PUSH2 0x4497 JUMP JUMPDEST SWAP2 SWAP1 POP SSTORE POP PUSH1 0x0 PUSH2 0x17C5 CALLER DUP4 PUSH8 0xDE0B6B3A7640000 PUSH2 0x2816 JUMP JUMPDEST PUSH1 0x19 SLOAD PUSH1 0x0 SWAP1 PUSH1 0x1 PUSH1 0x1 PUSH1 0xA0 SHL SUB AND CALLER SUB PUSH2 0x1E1E JUMPI PUSH2 0x1E17 CALLER DUP5 DUP5 PUSH2 0x29F1 JUMP JUMPDEST SWAP1 POP PUSH2 0x11A5 JUMP JUMPDEST PUSH2 0x1E17 CALLER DUP5 DUP5 PUSH2 0x2816 JUMP JUMPDEST PUSH2 0x1E31 PUSH2 0x3F4B JUMP JUMPDEST PUSH1 0x40 DUP1 MLOAD PUSH1 0xA0 DUP2 ADD SWAP2 DUP3 SWAP1 MSTORE PUSH1 0x44 DUP1 SLOAD PUSH1 0x1 PUSH1 0x1 PUSH1 0xA0 SHL SUB AND DUP3 MSTORE SWAP1 SWAP2 PUSH1 0x5 SWAP1 PUSH1 0x45 PUSH1 0x20 DUP6 ADD DUP1 DUP4 GT PUSH2 0x1AF7 JUMPI POP POP POP POP POP SWAP1 POP SWAP1 JUMP JUMPDEST PUSH2 0x1E70 PUSH2 0x28BE JUMP JUMPDEST PUSH1 0x4 SLOAD PUSH1 0x6 SSTORE JUMP JUMPDEST PUSH1 0x2A SLOAD CALLER PUSH1 0x0 SWAP1 DUP2 MSTORE PUSH1 0x1C PUSH1 0x20 MSTORE PUSH1 0x40 SWAP1 KECCAK256 SLOAD PUSH1 0xFF AND PUSH2 0x1ED1 JUMPI PUSH1 0x40 MLOAD PUSH3 0x461BCD PUSH1 0xE5 SHL DUP2 MSTORE PUSH1 0x20 PUSH1 0x4 DUP3 ADD MSTORE PUSH1 0x14 PUSH1 0x24 DUP3 ADD MSTORE PUSH20 0x165BDD48185C99481B9BDD081A5B999958DD1959 PUSH1 0x62 SHL PUSH1 0x44 DUP3 ADD MSTORE PUSH1 0x64 ADD PUSH2 0xE0D JUMP JUMPDEST PUSH1 0x40 SLOAD PUSH1 0xFF AND PUSH2 0x1F1A JUMPI PUSH1 0x40 MLOAD PUSH3 0x461BCD PUSH1 0xE5 SHL DUP2 MSTORE PUSH1 0x20 PUSH1 0x4 DUP3 ADD MSTORE PUSH1 0x14 PUSH1 0x24 DUP3 ADD MSTORE PUSH20 0x11D85B59481A185CC81B9BDD081CDD185C9D1959 PUSH1 0x62 SHL PUSH1 0x44 DUP3 ADD MSTORE PUSH1 0x64 ADD PUSH2 0xE0D JUMP JUMPDEST DUP1 PUSH2 0x1F24 CALLER PUSH2 0x1B9C JUMP JUMPDEST LT ISZERO PUSH2 0x1F7D JUMPI PUSH1 0x40 MLOAD PUSH3 0x461BCD PUSH1 0xE5 SHL DUP2 MSTORE PUSH1 0x20 PUSH1 0x4 DUP3 ADD MSTORE PUSH1 0x22 PUSH1 0x24 DUP3 ADD MSTORE PUSH32 0x4E6F7420656E6F75676820746F6B656E7320746F206275792061206361707375 PUSH1 0x44 DUP3 ADD MSTORE PUSH2 0x6C65 PUSH1 0xF0 SHL PUSH1 0x64 DUP3 ADD MSTORE PUSH1 0x84 ADD PUSH2 0xE0D JUMP JUMPDEST PUSH1 0x26 SLOAD PUSH1 0x0 SWAP1 DUP2 MSTORE PUSH1 0x27 PUSH1 0x20 MSTORE PUSH1 0x40 SWAP1 KECCAK256 PUSH1 0x2 ADD SLOAD TIMESTAMP LT PUSH2 0x1FB0 JUMPI PUSH1 0x40 MLOAD PUSH3 0x461BCD PUSH1 0xE5 SHL DUP2 MSTORE PUSH1 0x4 ADD PUSH2 0xE0D SWAP1 PUSH2 0x443D JUMP JUMPDEST PUSH1 0x26 SLOAD PUSH1 0x0 SWAP1 DUP2 MSTORE PUSH1 0x27 PUSH1 0x20 SWAP1 DUP2 MSTORE PUSH1 0x40 DUP1 DUP4 KECCAK256 CALLER DUP5 MSTORE PUSH1 0x3 ADD SWAP1 SWAP2 MSTORE SWAP1 KECCAK256 SLOAD PUSH1 0xFF AND ISZERO PUSH2 0x203A JUMPI PUSH1 0x40 MLOAD PUSH3 0x461BCD PUSH1 0xE5 SHL DUP2 MSTORE PUSH1 0x20 PUSH1 0x4 DUP3 ADD MSTORE PUSH1 0x31 PUSH1 0x24 DUP3 ADD MSTORE PUSH32 0x596F7527766520616C726561647920626F7567687420612063617073756C6520 PUSH1 0x44 DUP3 ADD MSTORE PUSH17 0xC8EAE4D2DCCE40E8D0D2E640CAE0DEC6D PUSH1 0x7B SHL PUSH1 0x64 DUP3 ADD MSTORE PUSH1 0x84 ADD PUSH2 0xE0D JUMP JUMPDEST PUSH1 0x26 SLOAD PUSH1 0x0 SWAP1 DUP2 MSTORE PUSH1 0x27 PUSH1 0x20 SWAP1 DUP2 MSTORE PUSH1 0x40 DUP1 DUP4 KECCAK256 CALLER DUP5 MSTORE PUSH1 0x4 ADD SWAP1 SWAP2 MSTORE SWAP1 KECCAK256 SLOAD PUSH1 0xFF AND ISZERO PUSH2 0x20C6 JUMPI PUSH1 0x40 MLOAD PUSH3 0x461BCD PUSH1 0xE5 SHL DUP2 MSTORE PUSH1 0x20 PUSH1 0x4 DUP3 ADD MSTORE PUSH1 0x33 PUSH1 0x24 DUP3 ADD MSTORE PUSH32 0x596F75206F6E6C792068617665206F6E6520616374696F6E207065722065706F PUSH1 0x44 DUP3 ADD MSTORE PUSH19 0x6368203A20627579206F722075706772616465 PUSH1 0x68 SHL PUSH1 0x64 DUP3 ADD MSTORE PUSH1 0x84 ADD PUSH2 0xE0D JUMP JUMPDEST PUSH1 0x29 DUP1 SLOAD SWAP1 PUSH1 0x0 PUSH2 0x20D6 DUP4 PUSH2 0x4497 JUMP JUMPDEST SWAP1 SWAP2 SSTORE POP POP PUSH1 0x28 DUP1 SLOAD SWAP1 PUSH1 0x0 PUSH2 0x20EB DUP4 PUSH2 0x4497 JUMP JUMPDEST SWAP1 SWAP2 SSTORE POP POP PUSH1 0x26 SLOAD PUSH1 0x0 SWAP1 DUP2 MSTORE PUSH1 0x27 PUSH1 0x20 SWAP1 DUP2 MSTORE PUSH1 0x40 DUP1 DUP4 KECCAK256 CALLER DUP5 MSTORE PUSH1 0x3 ADD SWAP1 SWAP2 MSTORE DUP2 KECCAK256 DUP1 SLOAD PUSH1 0xFF NOT AND PUSH1 0x1 OR SWAP1 SSTORE PUSH2 0x3E8 PUSH2 0x2128 DUP4 PUSH1 0xC8 PUSH2 0x44E4 JUMP JUMPDEST PUSH2 0x2132 SWAP2 SWAP1 PUSH2 0x4511 JUMP JUMPDEST SWAP1 POP PUSH2 0x2141 CALLER PUSH2 0xDEAD DUP4 PUSH2 0x2816 JUMP JUMPDEST POP PUSH1 0x21 SLOAD PUSH1 0x0 SWAP1 PUSH2 0x2161 SWAP1 CALLER SWAP1 PUSH1 0x1 PUSH1 0x1 PUSH1 0xA0 SHL SUB AND PUSH2 0x156C DUP6 DUP8 PUSH2 0x4525 JUMP JUMPDEST SWAP1 POP PUSH1 0x0 PUSH2 0x216D PUSH2 0x3378 JUMP JUMPDEST PUSH1 0x26 DUP1 SLOAD PUSH1 0x0 SWAP1 DUP2 MSTORE PUSH1 0x27 PUSH1 0x20 DUP2 DUP2 MSTORE PUSH1 0x40 DUP1 DUP5 KECCAK256 DUP7 DUP6 MSTORE PUSH1 0x6 ADD DUP3 MSTORE DUP1 DUP5 KECCAK256 DUP1 SLOAD PUSH1 0x1 PUSH1 0x1 PUSH1 0xA0 SHL SUB NOT AND CALLER SWAP1 DUP2 OR SWAP1 SWAP2 SSTORE SWAP5 SLOAD DUP5 MSTORE SWAP2 DUP2 MSTORE DUP2 DUP4 KECCAK256 DUP5 DUP5 MSTORE PUSH1 0x7 ADD DUP2 MSTORE SWAP2 DUP2 SWAP1 KECCAK256 DUP5 SWAP1 SSTORE MLOAD DUP4 DUP2 MSTORE SWAP3 SWAP4 POP SWAP1 SWAP2 PUSH32 0x56E18F08766F396148D5B13331A86D9CE4EA3D9C08821CF829CCF881A6FFF8BF SWAP2 ADD PUSH1 0x40 MLOAD DUP1 SWAP2 SUB SWAP1 LOG2 POP POP POP POP JUMP JUMPDEST PUSH1 0x0 DUP3 DUP2 MSTORE PUSH1 0x1 PUSH1 0x20 DUP2 SWAP1 MSTORE PUSH1 0x40 SWAP1 SWAP2 KECCAK256 ADD SLOAD PUSH2 0x220F DUP2 PUSH2 0x2E5E JUMP JUMPDEST PUSH2 0x178C DUP4 DUP4 PUSH2 0x2EE1 JUMP JUMPDEST PUSH2 0x2221 PUSH2 0x28BE JUMP JUMPDEST PUSH1 0x1 DUP2 LT ISZERO PUSH2 0x2272 JUMPI PUSH1 0x40 MLOAD PUSH3 0x461BCD PUSH1 0xE5 SHL DUP2 MSTORE PUSH1 0x20 PUSH1 0x4 DUP3 ADD MSTORE PUSH1 0x1F PUSH1 0x24 DUP3 ADD MSTORE PUSH32 0x43616E27742073657420537761705468726573686F6C6420746F205A45524F00 PUSH1 0x44 DUP3 ADD MSTORE PUSH1 0x64 ADD PUSH2 0xE0D JUMP JUMPDEST PUSH1 0x19 DUP1 SLOAD SWAP3 ISZERO ISZERO PUSH1 0x1 PUSH1 0xA8 SHL MUL PUSH1 0xFF PUSH1 0xA8 SHL NOT SWAP1 SWAP4 AND SWAP3 SWAP1 SWAP3 OR SWAP1 SWAP2 SSTORE PUSH1 0x1A SSTORE JUMP JUMPDEST PUSH1 0x0 DUP1 MLOAD PUSH1 0x20 PUSH2 0x46A6 DUP4 CODECOPY DUP2 MLOAD SWAP2 MSTORE PUSH2 0x22AC DUP2 PUSH2 0x2E5E JUMP JUMPDEST PUSH1 0x2E SLOAD DUP3 LT ISZERO PUSH2 0x2312 JUMPI PUSH1 0x40 MLOAD PUSH3 0x461BCD PUSH1 0xE5 SHL DUP2 MSTORE PUSH1 0x20 PUSH1 0x4 DUP3 ADD MSTORE PUSH1 0x2B PUSH1 0x24 DUP3 ADD MSTORE PUSH32 0x43616E2774207265647563652076616363696E6520737570706C792064757269 PUSH1 0x44 DUP3 ADD MSTORE PUSH11 0xDCCE40C2DC40CAE0DEC6D PUSH1 0xAB SHL PUSH1 0x64 DUP3 ADD MSTORE PUSH1 0x84 ADD PUSH2 0xE0D JUMP JUMPDEST POP PUSH1 0x33 SSTORE JUMP JUMPDEST PUSH2 0x2320 PUSH2 0x28BE JUMP JUMPDEST PUSH1 0x1 PUSH1 0x1 PUSH1 0xA0 SHL SUB DUP2 AND PUSH2 0x234A JUMPI PUSH1 0x40 MLOAD PUSH4 0x1E4FBDF7 PUSH1 0xE0 SHL DUP2 MSTORE PUSH1 0x0 PUSH1 0x4 DUP3 ADD MSTORE PUSH1 0x24 ADD PUSH2 0xE0D JUMP JUMPDEST PUSH2 0x2353 DUP2 PUSH2 0x3328 JUMP JUMPDEST POP JUMP JUMPDEST PUSH2 0x235E PUSH2 0x28BE JUMP JUMPDEST PUSH1 0x0 JUMPDEST DUP2 MLOAD DUP2 LT ISZERO PUSH2 0x1046 JUMPI PUSH1 0x1C PUSH1 0x0 DUP4 DUP4 DUP2 MLOAD DUP2 LT PUSH2 0x2380 JUMPI PUSH2 0x2380 PUSH2 0x454B JUMP JUMPDEST PUSH1 0x20 SWAP1 DUP2 MUL SWAP2 SWAP1 SWAP2 ADD DUP2 ADD MLOAD PUSH1 0x1 PUSH1 0x1 PUSH1 0xA0 SHL SUB AND DUP3 MSTORE DUP2 ADD SWAP2 SWAP1 SWAP2 MSTORE PUSH1 0x40 ADD PUSH1 0x0 KECCAK256 SLOAD PUSH1 0xFF AND ISZERO PUSH2 0x23E7 JUMPI PUSH1 0x40 MLOAD PUSH3 0x461BCD PUSH1 0xE5 SHL DUP2 MSTORE PUSH1 0x20 PUSH1 0x4 DUP3 ADD MSTORE PUSH1 0x10 PUSH1 0x24 DUP3 ADD MSTORE PUSH16 0x105B1C9958591E481A5B999958DD1959 PUSH1 0x82 SHL PUSH1 0x44 DUP3 ADD MSTORE PUSH1 0x64 ADD PUSH2 0xE0D JUMP JUMPDEST PUSH1 0x1 PUSH2 0x23F2 CALLER PUSH2 0x1B9C JUMP JUMPDEST LT ISZERO PUSH2 0x2440 JUMPI PUSH1 0x40 MLOAD PUSH3 0x461BCD PUSH1 0xE5 SHL DUP2 MSTORE PUSH1 0x20 PUSH1 0x4 DUP3 ADD MSTORE PUSH1 0x1B PUSH1 0x24 DUP3 ADD MSTORE PUSH32 0x6E6F7420656E6F75676820746F6B656E7320746F20696E666563740000000000 PUSH1 0x44 DUP3 ADD MSTORE PUSH1 0x64 ADD PUSH2 0xE0D JUMP JUMPDEST CALLER PUSH1 0x0 SWAP1 DUP2 MSTORE PUSH1 0x1C PUSH1 0x20 MSTORE PUSH1 0x40 SWAP1 KECCAK256 SLOAD PUSH1 0xFF AND ISZERO ISZERO PUSH1 0x1 EQ PUSH2 0x2493 JUMPI PUSH1 0x40 MLOAD PUSH3 0x461BCD PUSH1 0xE5 SHL DUP2 MSTORE PUSH1 0x20 PUSH1 0x4 DUP3 ADD MSTORE PUSH1 0xC PUSH1 0x24 DUP3 ADD MSTORE PUSH12 0x1B9BDD081A5B999958DD1959 PUSH1 0xA2 SHL PUSH1 0x44 DUP3 ADD MSTORE PUSH1 0x64 ADD PUSH2 0xE0D JUMP JUMPDEST CALLER PUSH1 0x1D PUSH1 0x0 DUP5 DUP5 DUP2 MLOAD DUP2 LT PUSH2 0x24AA JUMPI PUSH2 0x24AA PUSH2 0x454B JUMP JUMPDEST PUSH1 0x20 MUL PUSH1 0x20 ADD ADD MLOAD PUSH1 0x1 PUSH1 0x1 PUSH1 0xA0 SHL SUB AND PUSH1 0x1 PUSH1 0x1 PUSH1 0xA0 SHL SUB AND DUP2 MSTORE PUSH1 0x20 ADD SWAP1 DUP2 MSTORE PUSH1 0x20 ADD PUSH1 0x0 KECCAK256 PUSH1 0x0 PUSH2 0x100 EXP DUP2 SLOAD DUP2 PUSH1 0x1 PUSH1 0x1 PUSH1 0xA0 SHL SUB MUL NOT AND SWAP1 DUP4 PUSH1 0x1 PUSH1 0x1 PUSH1 0xA0 SHL SUB AND MUL OR SWAP1 SSTORE POP PUSH1 0x1 PUSH1 0x1C PUSH1 0x0 DUP5 DUP5 DUP2 MLOAD DUP2 LT PUSH2 0x250E JUMPI PUSH2 0x250E PUSH2 0x454B JUMP JUMPDEST PUSH1 0x20 SWAP1 DUP2 MUL SWAP2 SWAP1 SWAP2 ADD DUP2 ADD MLOAD PUSH1 0x1 PUSH1 0x1 PUSH1 0xA0 SHL SUB AND DUP3 MSTORE DUP2 DUP2 ADD SWAP3 SWAP1 SWAP3 MSTORE PUSH1 0x40 SWAP1 DUP2 ADD PUSH1 0x0 SWAP1 DUP2 KECCAK256 DUP1 SLOAD PUSH1 0xFF NOT AND SWAP5 ISZERO ISZERO SWAP5 SWAP1 SWAP5 OR SWAP1 SWAP4 SSTORE CALLER DUP4 MSTORE SWAP1 DUP1 MSTORE DUP2 KECCAK256 DUP1 SLOAD SWAP2 PUSH2 0x255A DUP4 PUSH2 0x4497 JUMP JUMPDEST SWAP1 SWAP2 SSTORE POP POP PUSH1 0x43 DUP1 SLOAD SWAP1 PUSH1 0x0 PUSH2 0x256F DUP4 PUSH2 0x4497 JUMP JUMPDEST SWAP2 SWAP1 POP SSTORE POP PUSH1 0x0 PUSH2 0x25A2 CALLER DUP5 DUP5 DUP2 MLOAD DUP2 LT PUSH2 0x258C JUMPI PUSH2 0x258C PUSH2 0x454B JUMP JUMPDEST PUSH1 0x20 MUL PUSH1 0x20 ADD ADD MLOAD PUSH8 0xDE0B6B3A7640000 PUSH2 0x2816 JUMP JUMPDEST POP DUP2 SWAP1 POP PUSH2 0x25AF DUP2 PUSH2 0x4497 JUMP JUMPDEST SWAP2 POP POP PUSH2 0x2361 JUMP JUMPDEST PUSH1 0x0 DUP1 MLOAD PUSH1 0x20 PUSH2 0x46A6 DUP4 CODECOPY DUP2 MLOAD SWAP2 MSTORE PUSH2 0x25CF DUP2 PUSH2 0x2E5E JUMP JUMPDEST POP PUSH1 0x22 SSTORE JUMP JUMPDEST PUSH1 0x0 DUP2 DUP2 MSTORE PUSH1 0x17 PUSH1 0x20 MSTORE PUSH1 0x40 DUP2 KECCAK256 SLOAD PUSH2 0x100 SWAP1 DIV PUSH1 0xFF AND PUSH2 0x262C JUMPI PUSH1 0x40 MLOAD PUSH3 0x461BCD PUSH1 0xE5 SHL DUP2 MSTORE PUSH1 0x20 PUSH1 0x4 DUP3 ADD MSTORE PUSH1 0x11 PUSH1 0x24 DUP3 ADD MSTORE PUSH17 0x1C995C5D595CDD081B9BDD08199BDD5B99 PUSH1 0x7A SHL PUSH1 0x44 DUP3 ADD MSTORE PUSH1 0x64 ADD PUSH2 0xE0D JUMP JUMPDEST PUSH1 0x0 DUP3 DUP2 MSTORE PUSH1 0x17 PUSH1 0x20 SWAP1 DUP2 MSTORE PUSH1 0x40 DUP1 DUP4 KECCAK256 DUP2 MLOAD PUSH1 0x60 DUP2 ADD DUP4 MSTORE DUP2 SLOAD PUSH1 0xFF DUP1 DUP3 AND ISZERO ISZERO DUP4 MSTORE PUSH2 0x100 SWAP1 SWAP2 DIV AND ISZERO ISZERO DUP2 DUP6 ADD MSTORE PUSH1 0x1 DUP3 ADD DUP1 SLOAD DUP5 MLOAD DUP2 DUP8 MUL DUP2 ADD DUP8 ADD DUP7 MSTORE DUP2 DUP2 MSTORE SWAP3 SWAP6 SWAP4 SWAP5 DUP7 ADD SWAP4 DUP4 ADD DUP3 DUP3 DUP1 ISZERO PUSH2 0x26A7 JUMPI PUSH1 0x20 MUL DUP3 ADD SWAP2 SWAP1 PUSH1 0x0 MSTORE PUSH1 0x20 PUSH1 0x0 KECCAK256 SWAP1 JUMPDEST DUP2 SLOAD DUP2 MSTORE PUSH1 0x20 ADD SWAP1 PUSH1 0x1 ADD SWAP1 DUP1 DUP4 GT PUSH2 0x2693 JUMPI JUMPDEST POP POP POP POP POP DUP2 MSTORE POP POP SWAP1 POP PUSH1 0x33 SLOAD PUSH1 0x2E SLOAD LT PUSH2 0x26FA JUMPI PUSH1 0x61 DUP2 PUSH1 0x40 ADD MLOAD PUSH1 0x0 DUP2 MLOAD DUP2 LT PUSH2 0x26D6 JUMPI PUSH2 0x26D6 PUSH2 0x454B JUMP JUMPDEST PUSH1 0x20 MUL PUSH1 0x20 ADD ADD MLOAD PUSH2 0x26E8 SWAP2 SWAP1 PUSH2 0x4561 JUMP JUMPDEST PUSH2 0x26F3 SWAP1 PUSH1 0x1 PUSH2 0x4538 JUMP JUMPDEST SWAP4 SWAP3 POP POP POP JUMP JUMPDEST PUSH1 0x22 SLOAD DUP2 PUSH1 0x40 ADD MLOAD PUSH1 0x0 DUP2 MLOAD DUP2 LT PUSH2 0x26D6 JUMPI PUSH2 0x26D6 PUSH2 0x454B JUMP JUMPDEST POP SWAP2 SWAP1 POP JUMP JUMPDEST PUSH1 0x1 PUSH1 0x1 PUSH1 0xA0 SHL SUB DUP4 AND PUSH1 0x0 SWAP1 DUP2 MSTORE PUSH1 0x24 PUSH1 0x20 MSTORE PUSH1 0x40 SWAP1 KECCAK256 SLOAD PUSH1 0xFF AND PUSH2 0x279E JUMPI PUSH1 0x25 DUP1 SLOAD PUSH1 0x1 DUP1 DUP3 ADD SWAP1 SWAP3 SSTORE PUSH32 0x401968FF42A154441DA5F6C4C935AC46B8671F0E062BAAA62A7545BA53BB6E4C ADD DUP1 SLOAD PUSH1 0x1 PUSH1 0x1 PUSH1 0xA0 SHL SUB NOT AND PUSH1 0x1 PUSH1 0x1 PUSH1 0xA0 SHL SUB DUP7 AND SWAP1 DUP2 OR SWAP1 SWAP2 SSTORE PUSH1 0x0 SWAP1 DUP2 MSTORE PUSH1 0x24 PUSH1 0x20 MSTORE PUSH1 0x40 SWAP1 KECCAK256 DUP1 SLOAD PUSH1 0xFF NOT AND SWAP1 SWAP2 OR SWAP1 SSTORE JUMPDEST PUSH1 0x1 PUSH1 0x1 PUSH1 0xA0 SHL SUB DUP4 AND PUSH1 0x0 DUP2 DUP2 MSTORE PUSH1 0x23 PUSH1 0x20 SWAP1 DUP2 MSTORE PUSH1 0x40 DUP1 DUP4 KECCAK256 DUP7 SWAP1 SSTORE PUSH1 0x26 SLOAD DUP4 MSTORE PUSH1 0x27 DUP3 MSTORE DUP1 DUP4 KECCAK256 DUP5 DUP5 MSTORE PUSH1 0x5 ADD DUP3 MSTORE SWAP2 DUP3 SWAP1 KECCAK256 DUP1 SLOAD PUSH1 0xFF NOT AND PUSH1 0x1 OR SWAP1 SSTORE DUP2 MLOAD DUP6 DUP2 MSTORE DUP5 ISZERO ISZERO SWAP2 DUP2 ADD SWAP2 SWAP1 SWAP2 MSTORE PUSH32 0xC05909672B3730633581D6CF7B807382B3572D7805ACE294B8D4B3558C5CC7FF SWAP2 ADD PUSH2 0x1A61 JUMP JUMPDEST PUSH1 0x1 PUSH1 0x1 PUSH1 0xA0 SHL SUB DUP4 AND PUSH1 0x0 SWAP1 DUP2 MSTORE PUSH1 0x7 PUSH1 0x20 MSTORE PUSH1 0x40 DUP2 KECCAK256 SLOAD PUSH2 0x283A SWAP1 DUP4 SWAP1 PUSH2 0x4525 JUMP JUMPDEST PUSH1 0x1 PUSH1 0x1 PUSH1 0xA0 SHL SUB DUP1 DUP7 AND PUSH1 0x0 SWAP1 DUP2 MSTORE PUSH1 0x7 PUSH1 0x20 MSTORE PUSH1 0x40 DUP1 DUP3 KECCAK256 SWAP4 SWAP1 SWAP4 SSTORE SWAP1 DUP6 AND DUP2 MSTORE KECCAK256 SLOAD PUSH2 0x286A SWAP1 DUP4 SWAP1 PUSH2 0x4538 JUMP JUMPDEST PUSH1 0x1 PUSH1 0x1 PUSH1 0xA0 SHL SUB DUP1 DUP6 AND PUSH1 0x0 DUP2 DUP2 MSTORE PUSH1 0x7 PUSH1 0x20 MSTORE PUSH1 0x40 SWAP1 DUP2 SWAP1 KECCAK256 SWAP4 SWAP1 SWAP4 SSTORE SWAP2 MLOAD SWAP1 DUP7 AND SWAP1 PUSH1 0x0 DUP1 MLOAD PUSH1 0x20 PUSH2 0x4686 DUP4 CODECOPY DUP2 MLOAD SWAP2 MSTORE SWAP1 PUSH2 0x28AC SWAP1 DUP7 DUP2 MSTORE PUSH1 0x20 ADD SWAP1 JUMP JUMPDEST PUSH1 0x40 MLOAD DUP1 SWAP2 SUB SWAP1 LOG3 POP PUSH1 0x1 SWAP4 SWAP3 POP POP POP JUMP JUMPDEST PUSH1 0x0 SLOAD PUSH1 0x1 PUSH1 0x1 PUSH1 0xA0 SHL SUB AND CALLER EQ PUSH2 0x15D8 JUMPI PUSH1 0x40 MLOAD PUSH4 0x118CDAA7 PUSH1 0xE0 SHL DUP2 MSTORE CALLER PUSH1 0x4 DUP3 ADD MSTORE PUSH1 0x24 ADD PUSH2 0xE0D JUMP JUMPDEST PUSH1 0x0 DUP3 DUP2 MSTORE PUSH1 0x17 PUSH1 0x20 MSTORE PUSH1 0x40 SWAP1 KECCAK256 SLOAD PUSH2 0x100 SWAP1 DIV PUSH1 0xFF AND PUSH2 0x2942 JUMPI PUSH1 0x40 MLOAD PUSH3 0x461BCD PUSH1 0xE5 SHL DUP2 MSTORE PUSH1 0x20 PUSH1 0x4 DUP3 ADD MSTORE PUSH1 0x11 PUSH1 0x24 DUP3 ADD MSTORE PUSH17 0x1C995C5D595CDD081B9BDD08199BDD5B99 PUSH1 0x7A SHL PUSH1 0x44 DUP3 ADD MSTORE PUSH1 0x64 ADD PUSH2 0xE0D JUMP JUMPDEST PUSH1 0x0 DUP3 DUP2 MSTORE PUSH1 0x17 PUSH1 0x20 SWAP1 DUP2 MSTORE PUSH1 0x40 SWAP1 SWAP2 KECCAK256 DUP1 SLOAD PUSH1 0xFF NOT AND PUSH1 0x1 SWAP1 DUP2 OR DUP3 SSTORE DUP4 MLOAD PUSH2 0x2973 SWAP4 SWAP3 SWAP1 SWAP2 ADD SWAP2 DUP5 ADD SWAP1 PUSH2 0x3F69 JUMP JUMPDEST POP PUSH1 0x26 SLOAD PUSH1 0x0 SWAP1 DUP2 MSTORE PUSH1 0x27 PUSH1 0x20 SWAP1 DUP2 MSTORE PUSH1 0x40 DUP1 DUP4 KECCAK256 DUP6 DUP5 MSTORE PUSH1 0x6 DUP2 ADD DUP4 MSTORE DUP2 DUP5 KECCAK256 SLOAD PUSH1 0x1 PUSH1 0x1 PUSH1 0xA0 SHL SUB AND DUP5 MSTORE PUSH1 0x8 ADD SWAP1 SWAP2 MSTORE SWAP1 DUP2 SWAP1 KECCAK256 DUP1 SLOAD PUSH1 0xFF NOT AND PUSH1 0x1 OR SWAP1 SSTORE MLOAD PUSH32 0xFE2E2D779DBA245964D4E3EF9B994BE63856FD568BF7D3CA9E224755CB1BD54D SWAP1 PUSH2 0x29E5 SWAP1 DUP5 SWAP1 DUP5 SWAP1 PUSH2 0x4575 JUMP JUMPDEST PUSH1 0x40 MLOAD DUP1 SWAP2 SUB SWAP1 LOG1 POP POP JUMP JUMPDEST PUSH1 0x1 PUSH1 0x1 PUSH1 0xA0 SHL SUB DUP4 AND PUSH1 0x0 SWAP1 DUP2 MSTORE PUSH1 0x9 PUSH1 0x20 MSTORE PUSH1 0x40 DUP2 KECCAK256 SLOAD PUSH1 0xFF AND DUP1 PUSH2 0x2A30 JUMPI POP PUSH1 0x1 PUSH1 0x1 PUSH1 0xA0 SHL SUB DUP4 AND PUSH1 0x0 SWAP1 DUP2 MSTORE PUSH1 0x9 PUSH1 0x20 MSTORE PUSH1 0x40 SWAP1 KECCAK256 SLOAD PUSH1 0xFF AND JUMPDEST DUP1 PUSH2 0x2A44 JUMPI POP PUSH1 0x19 SLOAD PUSH1 0x1 PUSH1 0xA0 SHL SWAP1 DIV PUSH1 0xFF AND JUMPDEST PUSH2 0x2A90 JUMPI PUSH1 0x40 MLOAD PUSH3 0x461BCD PUSH1 0xE5 SHL DUP2 MSTORE PUSH1 0x20 PUSH1 0x4 DUP3 ADD MSTORE PUSH1 0x1B PUSH1 0x24 DUP3 ADD MSTORE PUSH32 0x4E6F7420617574686F72697A656420746F207472616465207965740000000000 PUSH1 0x44 DUP3 ADD MSTORE PUSH1 0x64 ADD PUSH2 0xE0D JUMP JUMPDEST PUSH1 0x19 SLOAD PUSH1 0x1 PUSH1 0x1 PUSH1 0xA0 SHL SUB DUP5 DUP2 AND SWAP2 AND EQ PUSH2 0x2AFC JUMPI PUSH1 0x1 PUSH1 0x1 PUSH1 0xA0 SHL SUB DUP4 AND PUSH1 0x0 SWAP1 DUP2 MSTORE PUSH1 0x1C PUSH1 0x20 MSTORE PUSH1 0x40 SWAP1 KECCAK256 SLOAD PUSH1 0xFF AND PUSH2 0x2AFC JUMPI PUSH1 0x40 MLOAD PUSH3 0x461BCD PUSH1 0xE5 SHL DUP2 MSTORE PUSH1 0x20 PUSH1 0x4 DUP3 ADD MSTORE PUSH1 0xC PUSH1 0x24 DUP3 ADD MSTORE PUSH12 0x139BDD081A5B999958DD1959 PUSH1 0xA2 SHL PUSH1 0x44 DUP3 ADD MSTORE PUSH1 0x64 ADD PUSH2 0xE0D JUMP JUMPDEST PUSH1 0x0 SLOAD PUSH1 0x1 PUSH1 0x1 PUSH1 0xA0 SHL SUB DUP6 DUP2 AND SWAP2 AND EQ DUP1 ISZERO SWAP1 PUSH2 0x2B28 JUMPI POP PUSH1 0x0 SLOAD PUSH1 0x1 PUSH1 0x1 PUSH1 0xA0 SHL SUB DUP5 DUP2 AND SWAP2 AND EQ ISZERO JUMPDEST DUP1 ISZERO PUSH2 0x2B3F JUMPI POP PUSH1 0x1 PUSH1 0x1 PUSH1 0xA0 SHL SUB DUP4 AND PUSH2 0xDEAD EQ ISZERO JUMPDEST ISZERO PUSH2 0x2C05 JUMPI PUSH1 0x19 SLOAD PUSH1 0x1 PUSH1 0x1 PUSH1 0xA0 SHL SUB DUP5 DUP2 AND SWAP2 AND EQ PUSH2 0x2C05 JUMPI PUSH1 0x1 PUSH1 0x1 PUSH1 0xA0 SHL SUB DUP4 AND PUSH1 0x0 SWAP1 DUP2 MSTORE PUSH1 0xA PUSH1 0x20 MSTORE PUSH1 0x40 SWAP1 KECCAK256 SLOAD PUSH1 0xFF AND DUP1 PUSH2 0x2BA5 JUMPI POP PUSH1 0x6 SLOAD PUSH1 0x1 PUSH1 0x1 PUSH1 0xA0 SHL SUB DUP5 AND PUSH1 0x0 SWAP1 DUP2 MSTORE PUSH1 0x7 PUSH1 0x20 MSTORE PUSH1 0x40 SWAP1 KECCAK256 SLOAD PUSH2 0x2BA2 SWAP1 DUP5 SWAP1 PUSH2 0x4538 JUMP JUMPDEST GT ISZERO JUMPDEST PUSH2 0x2C05 JUMPI PUSH1 0x40 MLOAD PUSH3 0x461BCD PUSH1 0xE5 SHL DUP2 MSTORE PUSH1 0x20 PUSH1 0x4 DUP3 ADD MSTORE PUSH1 0x2B PUSH1 0x24 DUP3 ADD MSTORE PUSH32 0x5472616E7366657220616D6F756E74206578636565647320746865204D617857 PUSH1 0x44 DUP3 ADD MSTORE PUSH11 0x30B63632BA1039B4BD3297 PUSH1 0xA9 SHL PUSH1 0x64 DUP3 ADD MSTORE PUSH1 0x84 ADD PUSH2 0xE0D JUMP JUMPDEST PUSH2 0x2C0D PUSH2 0x3534 JUMP JUMPDEST DUP1 ISZERO PUSH2 0x2C26 JUMPI POP PUSH1 0x19 SLOAD PUSH1 0x1 PUSH1 0x1 PUSH1 0xA0 SHL SUB DUP5 DUP2 AND SWAP2 AND EQ JUMPDEST ISZERO PUSH2 0x2C33 JUMPI PUSH2 0x2C33 PUSH2 0x3592 JUMP JUMPDEST PUSH1 0x1 PUSH1 0x1 PUSH1 0xA0 SHL SUB DUP5 AND PUSH1 0x0 SWAP1 DUP2 MSTORE PUSH1 0x7 PUSH1 0x20 MSTORE PUSH1 0x40 SWAP1 KECCAK256 SLOAD PUSH2 0x2C57 SWAP1 DUP4 SWAP1 PUSH2 0x4525 JUMP JUMPDEST PUSH1 0x1 PUSH1 0x1 PUSH1 0xA0 SHL SUB DUP6 AND PUSH1 0x0 SWAP1 DUP2 MSTORE PUSH1 0x7 PUSH1 0x20 SWAP1 DUP2 MSTORE PUSH1 0x40 DUP1 DUP4 KECCAK256 SWAP4 SWAP1 SWAP4 SSTORE PUSH1 0x9 SWAP1 MSTORE SWAP1 DUP2 KECCAK256 SLOAD PUSH1 0xFF AND ISZERO ISZERO DUP1 PUSH2 0x2CA8 JUMPI POP PUSH1 0x1 PUSH1 0x1 PUSH1 0xA0 SHL SUB DUP5 AND PUSH1 0x0 SWAP1 DUP2 MSTORE PUSH1 0x9 PUSH1 0x20 MSTORE PUSH1 0x40 SWAP1 KECCAK256 SLOAD PUSH1 0xFF AND ISZERO ISZERO JUMPDEST PUSH2 0x2CBC JUMPI PUSH2 0x2CB7 DUP6 DUP6 DUP6 PUSH2 0x3778 JUMP JUMPDEST PUSH2 0x2CBE JUMP JUMPDEST DUP3 JUMPDEST PUSH1 0x1 PUSH1 0x1 PUSH1 0xA0 SHL SUB DUP6 AND PUSH1 0x0 SWAP1 DUP2 MSTORE PUSH1 0x7 PUSH1 0x20 MSTORE PUSH1 0x40 SWAP1 KECCAK256 SLOAD SWAP1 SWAP2 POP PUSH2 0x2CE5 SWAP1 DUP3 SWAP1 PUSH2 0x4538 JUMP JUMPDEST PUSH1 0x1 PUSH1 0x1 PUSH1 0xA0 SHL SUB DUP1 DUP7 AND PUSH1 0x0 DUP2 DUP2 MSTORE PUSH1 0x7 PUSH1 0x20 MSTORE PUSH1 0x40 SWAP1 DUP2 SWAP1 KECCAK256 SWAP4 SWAP1 SWAP4 SSTORE SWAP2 MLOAD SWAP1 DUP8 AND SWAP1 PUSH1 0x0 DUP1 MLOAD PUSH1 0x20 PUSH2 0x4686 DUP4 CODECOPY DUP2 MLOAD SWAP2 MSTORE SWAP1 PUSH2 0x2D27 SWAP1 DUP6 DUP2 MSTORE PUSH1 0x20 ADD SWAP1 JUMP JUMPDEST PUSH1 0x40 MLOAD DUP1 SWAP2 SUB SWAP1 LOG3 POP PUSH1 0x1 SWAP5 SWAP4 POP POP POP POP JUMP JUMPDEST PUSH1 0x1 PUSH1 0x1 PUSH1 0xA0 SHL SUB DUP4 AND PUSH2 0x2D9C JUMPI PUSH1 0x40 MLOAD PUSH3 0x461BCD PUSH1 0xE5 SHL DUP2 MSTORE PUSH1 0x20 PUSH1 0x4 DUP3 ADD MSTORE PUSH1 0x24 DUP1 DUP3 ADD MSTORE PUSH32 0x45524332303A20617070726F76652066726F6D20746865207A65726F20616464 PUSH1 0x44 DUP3 ADD MSTORE PUSH4 0x72657373 PUSH1 0xE0 SHL PUSH1 0x64 DUP3 ADD MSTORE PUSH1 0x84 ADD PUSH2 0xE0D JUMP JUMPDEST PUSH1 0x1 PUSH1 0x1 PUSH1 0xA0 SHL SUB DUP3 AND PUSH2 0x2DFD JUMPI PUSH1 0x40 MLOAD PUSH3 0x461BCD PUSH1 0xE5 SHL DUP2 MSTORE PUSH1 0x20 PUSH1 0x4 DUP3 ADD MSTORE PUSH1 0x22 PUSH1 0x24 DUP3 ADD MSTORE PUSH32 0x45524332303A20617070726F766520746F20746865207A65726F206164647265 PUSH1 0x44 DUP3 ADD MSTORE PUSH2 0x7373 PUSH1 0xF0 SHL PUSH1 0x64 DUP3 ADD MSTORE PUSH1 0x84 ADD PUSH2 0xE0D JUMP JUMPDEST PUSH1 0x1 PUSH1 0x1 PUSH1 0xA0 SHL SUB DUP4 DUP2 AND PUSH1 0x0 DUP2 DUP2 MSTORE PUSH1 0x8 PUSH1 0x20 SWAP1 DUP2 MSTORE PUSH1 0x40 DUP1 DUP4 KECCAK256 SWAP5 DUP8 AND DUP1 DUP5 MSTORE SWAP5 DUP3 MSTORE SWAP2 DUP3 SWAP1 KECCAK256 DUP6 SWAP1 SSTORE SWAP1 MLOAD DUP5 DUP2 MSTORE PUSH32 0x8C5BE1E5EBEC7D5BD14F71427D1E84F3DD0314C0F7B2291E5B200AC8C7C3B925 SWAP2 ADD PUSH1 0x40 MLOAD DUP1 SWAP2 SUB SWAP1 LOG3 POP POP POP JUMP JUMPDEST PUSH2 0x2353 DUP2 CALLER PUSH2 0x3C32 JUMP JUMPDEST PUSH1 0x0 PUSH2 0x2E74 DUP4 DUP4 PUSH2 0x1C2C JUMP JUMPDEST PUSH2 0x2ED9 JUMPI PUSH1 0x0 DUP4 DUP2 MSTORE PUSH1 0x1 PUSH1 0x20 DUP2 DUP2 MSTORE PUSH1 0x40 DUP1 DUP5 KECCAK256 PUSH1 0x1 PUSH1 0x1 PUSH1 0xA0 SHL SUB DUP8 AND DUP1 DUP7 MSTORE SWAP3 MSTORE DUP1 DUP5 KECCAK256 DUP1 SLOAD PUSH1 0xFF NOT AND SWAP1 SWAP4 OR SWAP1 SWAP3 SSTORE SWAP1 MLOAD CALLER SWAP3 DUP7 SWAP2 PUSH32 0x2F8788117E7EFF1D82E926EC794901D17C78024A50270940304540A733656F0D SWAP2 SWAP1 LOG4 POP PUSH1 0x1 PUSH2 0x11A5 JUMP JUMPDEST POP PUSH1 0x0 PUSH2 0x11A5 JUMP JUMPDEST PUSH1 0x0 PUSH2 0x2EED DUP4 DUP4 PUSH2 0x1C2C JUMP JUMPDEST ISZERO PUSH2 0x2ED9 JUMPI PUSH1 0x0 DUP4 DUP2 MSTORE PUSH1 0x1 PUSH1 0x20 SWAP1 DUP2 MSTORE PUSH1 0x40 DUP1 DUP4 KECCAK256 PUSH1 0x1 PUSH1 0x1 PUSH1 0xA0 SHL SUB DUP7 AND DUP1 DUP6 MSTORE SWAP3 MSTORE DUP1 DUP4 KECCAK256 DUP1 SLOAD PUSH1 0xFF NOT AND SWAP1 SSTORE MLOAD CALLER SWAP3 DUP7 SWAP2 PUSH32 0xF6391F5C32D9C69D2A47EA670B442974B53935D1EDC7FD64EB21E047A839171B SWAP2 SWAP1 LOG4 POP PUSH1 0x1 PUSH2 0x11A5 JUMP JUMPDEST PUSH1 0x26 SLOAD PUSH1 0x0 SWAP1 DUP2 MSTORE PUSH1 0x27 PUSH1 0x20 MSTORE PUSH1 0x40 SWAP1 KECCAK256 PUSH1 0x9 ADD SLOAD ISZERO PUSH2 0x2FE1 JUMPI PUSH1 0x21 SLOAD PUSH1 0x26 SLOAD PUSH1 0x0 SWAP1 DUP2 MSTORE PUSH1 0x27 PUSH1 0x20 MSTORE PUSH1 0x40 SWAP1 DUP2 SWAP1 KECCAK256 SWAP1 MLOAD PUSH4 0xF25ADDF5 PUSH1 0xE0 SHL DUP2 MSTORE PUSH1 0x1 PUSH1 0x1 PUSH1 0xA0 SHL SUB SWAP1 SWAP3 AND SWAP2 PUSH4 0xF25ADDF5 SWAP2 PUSH2 0x2FAE SWAP2 PUSH1 0x9 SWAP1 SWAP2 ADD SWAP1 PUSH1 0x4 ADD PUSH2 0x45C3 JUMP JUMPDEST PUSH1 0x0 PUSH1 0x40 MLOAD DUP1 DUP4 SUB DUP2 PUSH1 0x0 DUP8 DUP1 EXTCODESIZE ISZERO DUP1 ISZERO PUSH2 0x2FC8 JUMPI PUSH1 0x0 DUP1 REVERT JUMPDEST POP GAS CALL ISZERO DUP1 ISZERO PUSH2 0x2FDC JUMPI RETURNDATASIZE PUSH1 0x0 DUP1 RETURNDATACOPY RETURNDATASIZE PUSH1 0x0 REVERT JUMPDEST POP POP POP POP JUMPDEST PUSH1 0x26 DUP1 SLOAD SWAP1 PUSH1 0x0 PUSH2 0x2FF1 DUP4 PUSH2 0x4497 JUMP JUMPDEST SWAP1 SWAP2 SSTORE POP POP PUSH1 0x26 SLOAD PUSH1 0x0 DUP2 DUP2 MSTORE PUSH1 0x27 PUSH1 0x20 MSTORE PUSH1 0x40 SWAP1 KECCAK256 SWAP1 DUP2 SSTORE TIMESTAMP PUSH1 0x1 SWAP1 SWAP2 ADD DUP2 SWAP1 SSTORE PUSH2 0x3020 SWAP1 PUSH3 0x14370 PUSH2 0x4538 JUMP JUMPDEST PUSH1 0x26 SLOAD PUSH1 0x0 SWAP1 DUP2 MSTORE PUSH1 0x27 PUSH1 0x20 MSTORE PUSH1 0x40 DUP2 KECCAK256 PUSH1 0x2 ADD SWAP2 SWAP1 SWAP2 SSTORE PUSH1 0x2B DUP2 SWAP1 SSTORE PUSH1 0x2C DUP2 SWAP1 SSTORE PUSH1 0x2D DUP2 SWAP1 SSTORE PUSH1 0x2E DUP2 SWAP1 SSTORE PUSH1 0x28 DUP2 SWAP1 SSTORE JUMPDEST PUSH1 0x25 SLOAD DUP2 LT ISZERO PUSH2 0x3105 JUMPI PUSH1 0x0 PUSH1 0x23 PUSH1 0x0 PUSH1 0x25 DUP5 DUP2 SLOAD DUP2 LT PUSH2 0x3075 JUMPI PUSH2 0x3075 PUSH2 0x454B JUMP JUMPDEST PUSH1 0x0 SWAP2 DUP3 MSTORE PUSH1 0x20 DUP1 DUP4 KECCAK256 SWAP1 SWAP2 ADD SLOAD PUSH1 0x1 PUSH1 0x1 PUSH1 0xA0 SHL SUB AND DUP4 MSTORE DUP3 ADD SWAP3 SWAP1 SWAP3 MSTORE PUSH1 0x40 ADD SWAP1 KECCAK256 SLOAD GT ISZERO PUSH2 0x30F3 JUMPI PUSH1 0x1 PUSH1 0x23 PUSH1 0x0 PUSH1 0x25 DUP5 DUP2 SLOAD DUP2 LT PUSH2 0x30B9 JUMPI PUSH2 0x30B9 PUSH2 0x454B JUMP JUMPDEST PUSH1 0x0 SWAP2 DUP3 MSTORE PUSH1 0x20 DUP1 DUP4 KECCAK256 SWAP1 SWAP2 ADD SLOAD PUSH1 0x1 PUSH1 0x1 PUSH1 0xA0 SHL SUB AND DUP4 MSTORE DUP3 ADD SWAP3 SWAP1 SWAP3 MSTORE PUSH1 0x40 ADD DUP2 KECCAK256 DUP1 SLOAD SWAP1 SWAP2 SWAP1 PUSH2 0x30ED SWAP1 DUP5 SWAP1 PUSH2 0x4525 JUMP JUMPDEST SWAP1 SWAP2 SSTORE POP POP JUMPDEST DUP1 PUSH2 0x30FD DUP2 PUSH2 0x4497 JUMP JUMPDEST SWAP2 POP POP PUSH2 0x3052 JUMP JUMPDEST POP PUSH1 0x40 SLOAD PUSH1 0xFF AND PUSH2 0x311E JUMPI PUSH1 0x40 DUP1 SLOAD PUSH1 0xFF NOT AND PUSH1 0x1 OR SWAP1 SSTORE JUMPDEST PUSH2 0x15D8 PUSH2 0x3C6B JUMP JUMPDEST CALLER PUSH2 0x312F PUSH2 0x3F4B JUMP JUMPDEST PUSH2 0x3137 PUSH2 0x3F4B JUMP JUMPDEST PUSH1 0x0 DUP1 JUMPDEST PUSH1 0x5 DUP2 LT ISZERO PUSH2 0x31A0 JUMPI PUSH1 0x1E PUSH1 0x0 PUSH1 0x44 DUP4 PUSH1 0x5 DUP2 LT PUSH2 0x315B JUMPI PUSH2 0x315B PUSH2 0x454B JUMP JUMPDEST ADD SLOAD PUSH1 0x1 PUSH1 0x1 PUSH1 0xA0 SHL SUB AND DUP2 MSTORE PUSH1 0x20 DUP2 ADD SWAP2 SWAP1 SWAP2 MSTORE PUSH1 0x40 ADD PUSH1 0x0 KECCAK256 SLOAD DUP5 DUP3 PUSH1 0x5 DUP2 LT PUSH2 0x3189 JUMPI PUSH2 0x3189 PUSH2 0x454B JUMP JUMPDEST PUSH1 0x20 MUL ADD MSTORE DUP1 PUSH2 0x3198 DUP2 PUSH2 0x4497 JUMP JUMPDEST SWAP2 POP POP PUSH2 0x313B JUMP JUMPDEST POP PUSH1 0x0 JUMPDEST PUSH1 0x5 DUP2 LT ISZERO PUSH2 0x31F0 JUMPI DUP5 PUSH1 0x1 PUSH1 0x1 PUSH1 0xA0 SHL SUB AND PUSH1 0x44 DUP3 PUSH1 0x5 DUP2 LT PUSH2 0x31CA JUMPI PUSH2 0x31CA PUSH2 0x454B JUMP JUMPDEST ADD SLOAD PUSH1 0x1 PUSH1 0x1 PUSH1 0xA0 SHL SUB AND SUB PUSH2 0x31DE JUMPI DUP1 SWAP2 POP JUMPDEST DUP1 PUSH2 0x31E8 DUP2 PUSH2 0x4497 JUMP JUMPDEST SWAP2 POP POP PUSH2 0x31A4 JUMP JUMPDEST POP PUSH1 0x1 PUSH1 0x1 PUSH1 0xA0 SHL SUB DUP5 AND PUSH1 0x0 SWAP1 DUP2 MSTORE PUSH1 0x1E PUSH1 0x20 MSTORE PUSH1 0x40 SWAP1 KECCAK256 SLOAD DUP4 MLOAD LT DUP1 ISZERO PUSH2 0x3224 JUMPI POP PUSH2 0x3220 PUSH1 0x1 PUSH1 0x5 PUSH2 0x4525 JUMP JUMPDEST DUP2 EQ ISZERO JUMPDEST ISZERO PUSH2 0x178C JUMPI DUP1 PUSH1 0x0 SUB PUSH2 0x323E JUMPI PUSH1 0x1 PUSH1 0x1 PUSH1 0xA0 SHL SUB DUP5 AND DUP3 MSTORE JUMPDEST PUSH1 0x0 PUSH2 0x324B DUP3 PUSH1 0x1 PUSH2 0x4538 JUMP JUMPDEST SWAP1 POP JUMPDEST PUSH1 0x5 DUP2 LT ISZERO PUSH2 0x3313 JUMPI PUSH1 0x1 PUSH1 0x1 PUSH1 0xA0 SHL SUB DUP6 AND PUSH1 0x0 SWAP1 DUP2 MSTORE PUSH1 0x1E PUSH1 0x20 MSTORE PUSH1 0x40 SWAP1 KECCAK256 SLOAD DUP5 DUP3 PUSH1 0x5 DUP2 LT PUSH2 0x3282 JUMPI PUSH2 0x3282 PUSH2 0x454B JUMP JUMPDEST PUSH1 0x20 MUL ADD MLOAD LT ISZERO PUSH2 0x3301 JUMPI PUSH1 0x44 DUP2 PUSH1 0x5 DUP2 LT PUSH2 0x32A0 JUMPI PUSH2 0x32A0 PUSH2 0x454B JUMP JUMPDEST ADD SLOAD PUSH1 0x1 PUSH1 0x1 PUSH1 0xA0 SHL SUB AND DUP4 PUSH2 0x32B7 PUSH1 0x1 DUP5 PUSH2 0x4525 JUMP JUMPDEST PUSH1 0x5 DUP2 LT PUSH2 0x32C7 JUMPI PUSH2 0x32C7 PUSH2 0x454B JUMP JUMPDEST PUSH1 0x1 PUSH1 0x1 PUSH1 0xA0 SHL SUB SWAP1 SWAP3 AND PUSH1 0x20 SWAP3 SWAP1 SWAP3 MUL ADD MSTORE DUP5 DUP4 DUP3 PUSH1 0x5 DUP2 LT PUSH2 0x32ED JUMPI PUSH2 0x32ED PUSH2 0x454B JUMP JUMPDEST PUSH1 0x1 PUSH1 0x1 PUSH1 0xA0 SHL SUB SWAP1 SWAP3 AND PUSH1 0x20 SWAP3 SWAP1 SWAP3 MUL ADD MSTORE JUMPDEST DUP1 PUSH2 0x330B DUP2 PUSH2 0x4497 JUMP JUMPDEST SWAP2 POP POP PUSH2 0x324E JUMP JUMPDEST POP PUSH2 0x3321 PUSH1 0x44 DUP4 PUSH1 0x5 PUSH2 0x3FB4 JUMP JUMPDEST POP POP POP POP POP JUMP JUMPDEST PUSH1 0x0 DUP1 SLOAD PUSH1 0x1 PUSH1 0x1 PUSH1 0xA0 SHL SUB DUP4 DUP2 AND PUSH1 0x1 PUSH1 0x1 PUSH1 0xA0 SHL SUB NOT DUP4 AND DUP2 OR DUP5 SSTORE PUSH1 0x40 MLOAD SWAP2 SWAP1 SWAP3 AND SWAP3 DUP4 SWAP2 PUSH32 0x8BE0079C531659141344CD1FD0A4F28419497F9722A3DAAFE3B4186F6B6457E0 SWAP2 SWAP1 LOG3 POP POP JUMP JUMPDEST PUSH1 0x12 SLOAD PUSH1 0x15 SLOAD PUSH1 0x16 SLOAD PUSH1 0x40 MLOAD PUSH4 0x5D3B1D3 PUSH1 0xE4 SHL DUP2 MSTORE PUSH1 0x4 DUP2 ADD SWAP3 SWAP1 SWAP3 MSTORE PUSH1 0x1 PUSH1 0xA0 SHL DUP4 DIV PUSH8 0xFFFFFFFFFFFFFFFF AND PUSH1 0x24 DUP4 ADD MSTORE PUSH5 0x100000000 DUP2 DIV PUSH2 0xFFFF AND PUSH1 0x44 DUP4 ADD MSTORE PUSH4 0xFFFFFFFF DUP1 DUP3 AND PUSH1 0x64 DUP5 ADD MSTORE PUSH7 0x1000000000000 SWAP1 SWAP2 DIV AND PUSH1 0x84 DUP3 ADD MSTORE PUSH1 0x0 SWAP2 PUSH1 0x1 PUSH1 0x1 PUSH1 0xA0 SHL SUB AND SWAP1 PUSH4 0x5D3B1D30 SWAP1 PUSH1 0xA4 ADD PUSH1 0x20 PUSH1 0x40 MLOAD DUP1 DUP4 SUB DUP2 PUSH1 0x0 DUP8 GAS CALL ISZERO DUP1 ISZERO PUSH2 0x3410 JUMPI RETURNDATASIZE PUSH1 0x0 DUP1 RETURNDATACOPY RETURNDATASIZE PUSH1 0x0 REVERT JUMPDEST POP POP POP POP PUSH1 0x40 MLOAD RETURNDATASIZE PUSH1 0x1F NOT PUSH1 0x1F DUP3 ADD AND DUP3 ADD DUP1 PUSH1 0x40 MSTORE POP DUP2 ADD SWAP1 PUSH2 0x3434 SWAP2 SWAP1 PUSH2 0x4613 JUMP JUMPDEST PUSH1 0x40 DUP1 MLOAD PUSH1 0x60 DUP2 ADD DUP3 MSTORE PUSH1 0x0 DUP1 DUP3 MSTORE PUSH1 0x1 PUSH1 0x20 DUP1 DUP5 ADD DUP3 DUP2 MSTORE DUP6 MLOAD DUP5 DUP2 MSTORE DUP1 DUP4 ADD DUP8 MSTORE DUP6 DUP8 ADD SWAP1 DUP2 MSTORE DUP8 DUP6 MSTORE PUSH1 0x17 DUP4 MSTORE SWAP6 SWAP1 SWAP4 KECCAK256 DUP5 MLOAD DUP2 SLOAD SWAP5 MLOAD PUSH2 0xFFFF NOT SWAP1 SWAP6 AND SWAP1 ISZERO ISZERO PUSH2 0xFF00 NOT AND OR PUSH2 0x100 SWAP5 ISZERO ISZERO SWAP5 SWAP1 SWAP5 MUL SWAP4 SWAP1 SWAP4 OR DUP4 SSTORE SWAP4 MLOAD DUP1 MLOAD SWAP6 SWAP7 POP SWAP3 SWAP5 SWAP2 SWAP4 PUSH2 0x34A9 SWAP4 SWAP2 DUP6 ADD SWAP3 SWAP2 ADD SWAP1 PUSH2 0x3F69 JUMP JUMPDEST POP POP PUSH1 0x13 DUP1 SLOAD PUSH1 0x1 DUP2 ADD DUP3 SSTORE PUSH1 0x0 SWAP2 SWAP1 SWAP2 MSTORE PUSH32 0x66DE8FFDA797E3DE9C05E8FC57B3BF0EC28A930D40B0D285D93C06501CF6A090 ADD DUP3 SWAP1 SSTORE POP PUSH1 0x14 DUP2 SWAP1 SSTORE PUSH1 0x16 SLOAD PUSH1 0x40 DUP1 MLOAD DUP4 DUP2 MSTORE PUSH7 0x1000000000000 SWAP1 SWAP3 DIV PUSH4 0xFFFFFFFF AND PUSH1 0x20 DUP4 ADD MSTORE PUSH32 0xCC58B13AD3EAB50626C6A6300B1D139CD6EBB1688A7CCED9461C2F7E762665EE SWAP2 ADD PUSH1 0x40 MLOAD DUP1 SWAP2 SUB SWAP1 LOG1 SWAP1 JUMP JUMPDEST PUSH1 0x19 SLOAD PUSH1 0x0 SWAP1 PUSH1 0x1 PUSH1 0x1 PUSH1 0xA0 SHL SUB AND CALLER EQ DUP1 ISZERO SWAP1 PUSH2 0x3555 JUMPI POP PUSH1 0x1B SLOAD PUSH1 0xFF AND ISZERO JUMPDEST DUP1 ISZERO PUSH2 0x356A JUMPI POP PUSH1 0x19 SLOAD PUSH1 0x1 PUSH1 0xA8 SHL SWAP1 DIV PUSH1 0xFF AND JUMPDEST DUP1 ISZERO PUSH2 0x358D JUMPI POP PUSH1 0x1A SLOAD PUSH1 0x41 SLOAD PUSH2 0x3580 ADDRESS PUSH2 0x1B9C JUMP JUMPDEST PUSH2 0x358A SWAP2 SWAP1 PUSH2 0x4525 JUMP JUMPDEST LT ISZERO JUMPDEST SWAP1 POP SWAP1 JUMP JUMPDEST PUSH1 0x1B DUP1 SLOAD PUSH1 0xFF NOT AND PUSH1 0x1 OR SWAP1 SSTORE PUSH1 0x41 SLOAD PUSH1 0x0 SWAP1 PUSH2 0x35AE ADDRESS PUSH2 0x1B9C JUMP JUMPDEST PUSH2 0x35B8 SWAP2 SWAP1 PUSH2 0x4525 JUMP JUMPDEST PUSH1 0x40 DUP1 MLOAD PUSH1 0x2 DUP1 DUP3 MSTORE PUSH1 0x60 DUP3 ADD DUP4 MSTORE SWAP3 SWAP4 POP PUSH1 0x0 SWAP3 SWAP1 SWAP2 PUSH1 0x20 DUP4 ADD SWAP1 DUP1 CALLDATASIZE DUP4 CALLDATACOPY ADD SWAP1 POP POP SWAP1 POP ADDRESS DUP2 PUSH1 0x0 DUP2 MLOAD DUP2 LT PUSH2 0x35F2 JUMPI PUSH2 0x35F2 PUSH2 0x454B JUMP JUMPDEST PUSH1 0x1 PUSH1 0x1 PUSH1 0xA0 SHL SUB SWAP3 DUP4 AND PUSH1 0x20 SWAP2 DUP3 MUL SWAP3 SWAP1 SWAP3 ADD DUP2 ADD SWAP2 SWAP1 SWAP2 MSTORE PUSH1 0x18 SLOAD PUSH1 0x40 DUP1 MLOAD PUSH4 0x15AB88C9 PUSH1 0xE3 SHL DUP2 MSTORE SWAP1 MLOAD SWAP2 SWAP1 SWAP4 AND SWAP3 PUSH4 0xAD5C4648 SWAP3 PUSH1 0x4 DUP1 DUP4 ADD SWAP4 SWAP2 SWAP3 DUP3 SWAP1 SUB ADD DUP2 DUP7 GAS STATICCALL ISZERO DUP1 ISZERO PUSH2 0x364B JUMPI RETURNDATASIZE PUSH1 0x0 DUP1 RETURNDATACOPY RETURNDATASIZE PUSH1 0x0 REVERT JUMPDEST POP POP POP POP PUSH1 0x40 MLOAD RETURNDATASIZE PUSH1 0x1F NOT PUSH1 0x1F DUP3 ADD AND DUP3 ADD DUP1 PUSH1 0x40 MSTORE POP DUP2 ADD SWAP1 PUSH2 0x366F SWAP2 SWAP1 PUSH2 0x462C JUMP JUMPDEST DUP2 PUSH1 0x1 DUP2 MLOAD DUP2 LT PUSH2 0x3682 JUMPI PUSH2 0x3682 PUSH2 0x454B JUMP JUMPDEST PUSH1 0x1 PUSH1 0x1 PUSH1 0xA0 SHL SUB SWAP3 DUP4 AND PUSH1 0x20 SWAP2 DUP3 MUL SWAP3 SWAP1 SWAP3 ADD ADD MSTORE PUSH1 0x18 SLOAD AND PUSH4 0x791AC947 DUP4 PUSH1 0x0 DUP5 ADDRESS PUSH2 0x36B2 TIMESTAMP PUSH2 0x12C PUSH2 0x4538 JUMP JUMPDEST PUSH1 0x40 MLOAD DUP7 PUSH4 0xFFFFFFFF AND PUSH1 0xE0 SHL DUP2 MSTORE PUSH1 0x4 ADD PUSH2 0x36D2 SWAP6 SWAP5 SWAP4 SWAP3 SWAP2 SWAP1 PUSH2 0x4649 JUMP JUMPDEST PUSH1 0x0 PUSH1 0x40 MLOAD DUP1 DUP4 SUB DUP2 PUSH1 0x0 DUP8 DUP1 EXTCODESIZE ISZERO DUP1 ISZERO PUSH2 0x36EC JUMPI PUSH1 0x0 DUP1 REVERT JUMPDEST POP GAS CALL ISZERO DUP1 ISZERO PUSH2 0x3700 JUMPI RETURNDATASIZE PUSH1 0x0 DUP1 RETURNDATACOPY RETURNDATASIZE PUSH1 0x0 REVERT JUMPDEST POP SELFBALANCE SWAP3 POP POP DUP2 ISZERO SWAP1 POP PUSH2 0x3769 JUMPI PUSH1 0x10 SLOAD PUSH1 0x40 MLOAD PUSH1 0x0 SWAP2 PUSH1 0x1 PUSH1 0x1 PUSH1 0xA0 SHL SUB AND SWAP1 PUSH2 0x7530 SWAP1 DUP5 SWAP1 DUP5 DUP2 DUP2 DUP2 DUP6 DUP9 DUP9 CALL SWAP4 POP POP POP POP RETURNDATASIZE DUP1 PUSH1 0x0 DUP2 EQ PUSH2 0x375F JUMPI PUSH1 0x40 MLOAD SWAP2 POP PUSH1 0x1F NOT PUSH1 0x3F RETURNDATASIZE ADD AND DUP3 ADD PUSH1 0x40 MSTORE RETURNDATASIZE DUP3 MSTORE RETURNDATASIZE PUSH1 0x0 PUSH1 0x20 DUP5 ADD RETURNDATACOPY PUSH2 0x3764 JUMP JUMPDEST PUSH1 0x60 SWAP2 POP JUMPDEST POP POP POP POP JUMPDEST POP POP PUSH1 0x1B DUP1 SLOAD PUSH1 0xFF NOT AND SWAP1 SSTORE POP JUMP JUMPDEST PUSH1 0x19 SLOAD PUSH1 0x0 SWAP1 DUP2 SWAP1 DUP2 SWAP1 DUP2 SWAP1 DUP2 SWAP1 PUSH1 0x1 PUSH1 0x1 PUSH1 0xA0 SHL SUB DUP10 DUP2 AND SWAP2 AND EQ DUP1 ISZERO PUSH2 0x37AE JUMPI POP PUSH1 0x19 SLOAD PUSH1 0x1 PUSH1 0x1 PUSH1 0xA0 SHL SUB DUP9 DUP2 AND SWAP2 AND EQ ISZERO JUMPDEST ISZERO PUSH2 0x397B JUMPI PUSH1 0x40 SLOAD PUSH2 0x100 SWAP1 DIV PUSH1 0xFF AND ISZERO PUSH2 0x37E3 JUMPI PUSH2 0x2710 PUSH2 0x37D2 DUP8 PUSH2 0x26AC PUSH2 0x44E4 JUMP JUMPDEST PUSH2 0x37DC SWAP2 SWAP1 PUSH2 0x4511 JUMP JUMPDEST SWAP4 POP PUSH2 0x3B38 JUMP JUMPDEST PUSH1 0x1 PUSH1 0x1 PUSH1 0xA0 SHL SUB DUP8 AND PUSH1 0x0 SWAP1 DUP2 MSTORE PUSH1 0x23 PUSH1 0x20 MSTORE PUSH1 0x40 SWAP1 KECCAK256 SLOAD PUSH1 0x1 SUB PUSH2 0x3892 JUMPI PUSH1 0x3 PUSH2 0x2710 PUSH1 0x34 SLOAD DUP9 PUSH2 0x3816 SWAP2 SWAP1 PUSH2 0x44E4 JUMP JUMPDEST PUSH2 0x3820 SWAP2 SWAP1 PUSH2 0x4511 JUMP JUMPDEST PUSH2 0x382A SWAP2 SWAP1 PUSH2 0x4511 JUMP JUMPDEST PUSH1 0x1 PUSH1 0x1 PUSH1 0xA0 SHL SUB DUP1 DUP10 AND PUSH1 0x0 SWAP1 DUP2 MSTORE PUSH1 0x1D PUSH1 0x20 SWAP1 DUP2 MSTORE PUSH1 0x40 DUP1 DUP4 KECCAK256 SLOAD SWAP1 SWAP4 AND DUP3 MSTORE PUSH1 0x1F SWAP1 MSTORE SWAP1 DUP2 KECCAK256 DUP1 SLOAD SWAP3 SWAP7 POP DUP7 SWAP6 POP DUP6 SWAP5 POP DUP5 SWAP3 SWAP1 SWAP2 SWAP1 PUSH2 0x386E SWAP1 DUP5 SWAP1 PUSH2 0x4538 JUMP JUMPDEST SWAP3 POP POP DUP2 SWAP1 SSTORE POP DUP3 PUSH1 0x41 PUSH1 0x0 DUP3 DUP3 SLOAD PUSH2 0x3887 SWAP2 SWAP1 PUSH2 0x4538 JUMP JUMPDEST SWAP1 SWAP2 SSTORE POP PUSH2 0x3976 SWAP1 POP JUMP JUMPDEST PUSH1 0x1 PUSH1 0x1 PUSH1 0xA0 SHL SUB DUP8 AND PUSH1 0x0 SWAP1 DUP2 MSTORE PUSH1 0x23 PUSH1 0x20 MSTORE PUSH1 0x40 SWAP1 KECCAK256 SLOAD PUSH1 0x2 SUB PUSH2 0x38C5 JUMPI PUSH1 0x3 PUSH2 0x2710 PUSH1 0x35 SLOAD DUP9 PUSH2 0x3816 SWAP2 SWAP1 PUSH2 0x44E4 JUMP JUMPDEST PUSH1 0x1 PUSH1 0x1 PUSH1 0xA0 SHL SUB DUP8 AND PUSH1 0x0 SWAP1 DUP2 MSTORE PUSH1 0x23 PUSH1 0x20 MSTORE PUSH1 0x40 SWAP1 KECCAK256 SLOAD PUSH1 0x3 SUB PUSH2 0x38F8 JUMPI PUSH1 0x3 PUSH2 0x2710 PUSH1 0x36 SLOAD DUP9 PUSH2 0x3816 SWAP2 SWAP1 PUSH2 0x44E4 JUMP JUMPDEST PUSH2 0x2710 PUSH1 0xC SLOAD DUP8 PUSH2 0x3909 SWAP2 SWAP1 PUSH2 0x44E4 JUMP JUMPDEST PUSH2 0x3913 SWAP2 SWAP1 PUSH2 0x4511 JUMP JUMPDEST PUSH1 0x1 PUSH1 0x1 PUSH1 0xA0 SHL SUB DUP1 DUP10 AND PUSH1 0x0 SWAP1 DUP2 MSTORE PUSH1 0x1D PUSH1 0x20 SWAP1 DUP2 MSTORE PUSH1 0x40 DUP1 DUP4 KECCAK256 SLOAD SWAP1 SWAP4 AND DUP3 MSTORE PUSH1 0x1F SWAP1 MSTORE SWAP1 DUP2 KECCAK256 DUP1 SLOAD SWAP3 SWAP7 POP DUP7 SWAP6 POP DUP6 SWAP5 POP DUP5 SWAP3 SWAP1 SWAP2 SWAP1 PUSH2 0x3957 SWAP1 DUP5 SWAP1 PUSH2 0x4538 JUMP JUMPDEST SWAP3 POP POP DUP2 SWAP1 SSTORE POP DUP3 PUSH1 0x41 PUSH1 0x0 DUP3 DUP3 SLOAD PUSH2 0x3970 SWAP2 SWAP1 PUSH2 0x4538 JUMP JUMPDEST SWAP1 SWAP2 SSTORE POP POP JUMPDEST PUSH2 0x3B38 JUMP JUMPDEST PUSH1 0x19 SLOAD PUSH1 0x1 PUSH1 0x1 PUSH1 0xA0 SHL SUB DUP10 DUP2 AND SWAP2 AND EQ DUP1 ISZERO SWAP1 PUSH2 0x39A6 JUMPI POP PUSH1 0x19 SLOAD PUSH1 0x1 PUSH1 0x1 PUSH1 0xA0 SHL SUB DUP9 DUP2 AND SWAP2 AND EQ JUMPDEST ISZERO PUSH2 0x3B38 JUMPI PUSH1 0x40 SLOAD PUSH2 0x100 SWAP1 DIV PUSH1 0xFF AND ISZERO PUSH2 0x39C9 JUMPI PUSH2 0x2710 PUSH2 0x37D2 DUP8 PUSH1 0xA PUSH2 0x44E4 JUMP JUMPDEST PUSH1 0x1 PUSH1 0x1 PUSH1 0xA0 SHL SUB DUP9 AND PUSH1 0x0 SWAP1 DUP2 MSTORE PUSH1 0x23 PUSH1 0x20 MSTORE PUSH1 0x40 SWAP1 KECCAK256 SLOAD PUSH1 0x1 SUB PUSH2 0x3A54 JUMPI PUSH1 0x3 PUSH2 0x2710 PUSH1 0x37 SLOAD DUP9 PUSH2 0x39FC SWAP2 SWAP1 PUSH2 0x44E4 JUMP JUMPDEST PUSH2 0x3A06 SWAP2 SWAP1 PUSH2 0x4511 JUMP JUMPDEST PUSH2 0x3A10 SWAP2 SWAP1 PUSH2 0x4511 JUMP JUMPDEST PUSH1 0x1 PUSH1 0x1 PUSH1 0xA0 SHL SUB DUP1 DUP11 AND PUSH1 0x0 SWAP1 DUP2 MSTORE PUSH1 0x1D PUSH1 0x20 SWAP1 DUP2 MSTORE PUSH1 0x40 DUP1 DUP4 KECCAK256 SLOAD SWAP1 SWAP4 AND DUP3 MSTORE PUSH1 0x1F SWAP1 MSTORE SWAP1 DUP2 KECCAK256 DUP1 SLOAD SWAP3 SWAP7 POP DUP7 SWAP6 POP DUP6 SWAP5 POP DUP5 SWAP3 SWAP1 SWAP2 SWAP1 PUSH2 0x3957 SWAP1 DUP5 SWAP1 PUSH2 0x4538 JUMP JUMPDEST PUSH1 0x1 PUSH1 0x1 PUSH1 0xA0 SHL SUB DUP9 AND PUSH1 0x0 SWAP1 DUP2 MSTORE PUSH1 0x23 PUSH1 0x20 MSTORE PUSH1 0x40 SWAP1 KECCAK256 SLOAD PUSH1 0x2 SUB PUSH2 0x3A87 JUMPI PUSH1 0x3 PUSH2 0x2710 PUSH1 0x38 SLOAD DUP9 PUSH2 0x39FC SWAP2 SWAP1 PUSH2 0x44E4 JUMP JUMPDEST PUSH1 0x1 PUSH1 0x1 PUSH1 0xA0 SHL SUB DUP9 AND PUSH1 0x0 SWAP1 DUP2 MSTORE PUSH1 0x23 PUSH1 0x20 MSTORE PUSH1 0x40 SWAP1 KECCAK256 SLOAD PUSH1 0x3 SUB PUSH2 0x3ABA JUMPI PUSH1 0x3 PUSH2 0x2710 PUSH1 0x39 SLOAD DUP9 PUSH2 0x39FC SWAP2 SWAP1 PUSH2 0x44E4 JUMP JUMPDEST PUSH2 0x2710 PUSH1 0xE SLOAD DUP8 PUSH2 0x3ACB SWAP2 SWAP1 PUSH2 0x44E4 JUMP JUMPDEST PUSH2 0x3AD5 SWAP2 SWAP1 PUSH2 0x4511 JUMP JUMPDEST PUSH1 0x1 PUSH1 0x1 PUSH1 0xA0 SHL SUB DUP1 DUP11 AND PUSH1 0x0 SWAP1 DUP2 MSTORE PUSH1 0x1D PUSH1 0x20 SWAP1 DUP2 MSTORE PUSH1 0x40 DUP1 DUP4 KECCAK256 SLOAD SWAP1 SWAP4 AND DUP3 MSTORE PUSH1 0x1F SWAP1 MSTORE SWAP1 DUP2 KECCAK256 DUP1 SLOAD SWAP3 SWAP7 POP DUP7 SWAP6 POP DUP6 SWAP5 POP DUP5 SWAP3 SWAP1 SWAP2 SWAP1 PUSH2 0x3B19 SWAP1 DUP5 SWAP1 PUSH2 0x4538 JUMP JUMPDEST SWAP3 POP POP DUP2 SWAP1 SSTORE POP DUP3 PUSH1 0x41 PUSH1 0x0 DUP3 DUP3 SLOAD PUSH2 0x3B32 SWAP2 SWAP1 PUSH2 0x4538 JUMP JUMPDEST SWAP1 SWAP2 SSTORE POP POP JUMPDEST DUP2 PUSH2 0x3B43 DUP5 DUP7 PUSH2 0x4538 JUMP JUMPDEST PUSH2 0x3B4D SWAP2 SWAP1 PUSH2 0x4538 JUMP JUMPDEST SWAP1 POP DUP1 ISZERO PUSH2 0x3C1C JUMPI PUSH2 0x3B5F DUP3 DUP3 PUSH2 0x4525 JUMP JUMPDEST ADDRESS PUSH1 0x0 SWAP1 DUP2 MSTORE PUSH1 0x7 PUSH1 0x20 MSTORE PUSH1 0x40 DUP2 KECCAK256 DUP1 SLOAD SWAP1 SWAP2 SWAP1 PUSH2 0x3B7E SWAP1 DUP5 SWAP1 PUSH2 0x4538 JUMP JUMPDEST SWAP1 SWAP2 SSTORE POP POP PUSH1 0x21 SLOAD PUSH1 0x1 PUSH1 0x1 PUSH1 0xA0 SHL SUB AND PUSH1 0x0 SWAP1 DUP2 MSTORE PUSH1 0x7 PUSH1 0x20 MSTORE PUSH1 0x40 DUP2 KECCAK256 DUP1 SLOAD DUP5 SWAP3 SWAP1 PUSH2 0x3BAD SWAP1 DUP5 SWAP1 PUSH2 0x4538 JUMP JUMPDEST SWAP1 SWAP2 SSTORE POP ADDRESS SWAP1 POP PUSH1 0x1 PUSH1 0x1 PUSH1 0xA0 SHL SUB DUP10 AND PUSH1 0x0 DUP1 MLOAD PUSH1 0x20 PUSH2 0x4686 DUP4 CODECOPY DUP2 MLOAD SWAP2 MSTORE PUSH2 0x3BD7 DUP6 DUP6 PUSH2 0x4525 JUMP JUMPDEST PUSH1 0x40 MLOAD SWAP1 DUP2 MSTORE PUSH1 0x20 ADD PUSH1 0x40 MLOAD DUP1 SWAP2 SUB SWAP1 LOG3 PUSH1 0x21 SLOAD PUSH1 0x40 MLOAD DUP4 DUP2 MSTORE PUSH1 0x1 PUSH1 0x1 PUSH1 0xA0 SHL SUB SWAP2 DUP3 AND SWAP2 DUP11 AND SWAP1 PUSH1 0x0 DUP1 MLOAD PUSH1 0x20 PUSH2 0x4686 DUP4 CODECOPY DUP2 MLOAD SWAP2 MSTORE SWAP1 PUSH1 0x20 ADD PUSH1 0x40 MLOAD DUP1 SWAP2 SUB SWAP1 LOG3 JUMPDEST PUSH2 0x3C26 DUP2 DUP8 PUSH2 0x4525 JUMP JUMPDEST SWAP9 SWAP8 POP POP POP POP POP POP POP POP JUMP JUMPDEST PUSH2 0x3C3C DUP3 DUP3 PUSH2 0x1C2C JUMP JUMPDEST PUSH2 0x1046 JUMPI PUSH1 0x40 MLOAD PUSH4 0xE2517D3F PUSH1 0xE0 SHL DUP2 MSTORE PUSH1 0x1 PUSH1 0x1 PUSH1 0xA0 SHL SUB DUP3 AND PUSH1 0x4 DUP3 ADD MSTORE PUSH1 0x24 DUP2 ADD DUP4 SWAP1 MSTORE PUSH1 0x44 ADD PUSH2 0xE0D JUMP JUMPDEST PUSH1 0x5 SLOAD PUSH2 0x3C9E PUSH1 0x5 SLOAD PUSH1 0x26 SLOAD PUSH1 0x3A SLOAD PUSH2 0x3C84 SWAP2 SWAP1 PUSH2 0x44E4 JUMP JUMPDEST PUSH2 0x3C8F SWAP1 PUSH1 0x64 PUSH2 0x44E4 JUMP JUMPDEST PUSH2 0x3C99 SWAP2 SWAP1 PUSH2 0x44E4 JUMP JUMPDEST PUSH2 0x3DB9 JUMP JUMPDEST PUSH1 0xB SLOAD PUSH2 0x3CAB SWAP2 SWAP1 PUSH2 0x4525 JUMP JUMPDEST PUSH2 0x3CB5 SWAP2 SWAP1 PUSH2 0x4511 JUMP JUMPDEST PUSH1 0x34 SSTORE PUSH1 0x5 SLOAD PUSH1 0x26 SLOAD PUSH1 0x3B SLOAD PUSH2 0x3CD1 SWAP2 DUP4 SWAP2 PUSH2 0x3C84 SWAP2 SWAP1 PUSH2 0x44E4 JUMP JUMPDEST PUSH1 0xB SLOAD PUSH2 0x3CDE SWAP2 SWAP1 PUSH2 0x4525 JUMP JUMPDEST PUSH2 0x3CE8 SWAP2 SWAP1 PUSH2 0x4511 JUMP JUMPDEST PUSH1 0x35 SSTORE PUSH1 0x5 SLOAD PUSH1 0x26 SLOAD PUSH1 0x3C SLOAD PUSH2 0x3D04 SWAP2 DUP4 SWAP2 PUSH2 0x3C84 SWAP2 SWAP1 PUSH2 0x44E4 JUMP JUMPDEST PUSH1 0xB SLOAD PUSH2 0x3D11 SWAP2 SWAP1 PUSH2 0x4525 JUMP JUMPDEST PUSH2 0x3D1B SWAP2 SWAP1 PUSH2 0x4511 JUMP JUMPDEST PUSH1 0x36 SSTORE PUSH1 0x5 SLOAD PUSH1 0x26 SLOAD PUSH1 0x3D SLOAD PUSH2 0x3D37 SWAP2 DUP4 SWAP2 PUSH2 0x3C84 SWAP2 SWAP1 PUSH2 0x44E4 JUMP JUMPDEST PUSH1 0xD SLOAD PUSH2 0x3D44 SWAP2 SWAP1 PUSH2 0x4525 JUMP JUMPDEST PUSH2 0x3D4E SWAP2 SWAP1 PUSH2 0x4511 JUMP JUMPDEST PUSH1 0x37 SSTORE PUSH1 0x5 SLOAD PUSH1 0x26 SLOAD PUSH1 0x3E SLOAD PUSH2 0x3D6A SWAP2 DUP4 SWAP2 PUSH2 0x3C84 SWAP2 SWAP1 PUSH2 0x44E4 JUMP JUMPDEST PUSH1 0xD SLOAD PUSH2 0x3D77 SWAP2 SWAP1 PUSH2 0x4525 JUMP JUMPDEST PUSH2 0x3D81 SWAP2 SWAP1 PUSH2 0x4511 JUMP JUMPDEST PUSH1 0x38 SSTORE PUSH1 0x5 SLOAD PUSH1 0x26 SLOAD PUSH1 0x3F SLOAD PUSH2 0x3D9D SWAP2 DUP4 SWAP2 PUSH2 0x3C84 SWAP2 SWAP1 PUSH2 0x44E4 JUMP JUMPDEST PUSH1 0xD SLOAD PUSH2 0x3DAA SWAP2 SWAP1 PUSH2 0x4525 JUMP JUMPDEST PUSH2 0x3DB4 SWAP2 SWAP1 PUSH2 0x4511 JUMP JUMPDEST PUSH1 0x39 SSTORE JUMP JUMPDEST PUSH1 0x0 DUP2 PUSH1 0x0 SUB PUSH2 0x3DCB JUMPI POP PUSH1 0x0 SWAP2 SWAP1 POP JUMP JUMPDEST PUSH1 0x0 PUSH1 0x1 PUSH2 0x3DD8 DUP5 PUSH2 0x3EA1 JUMP JUMPDEST SWAP1 SHR PUSH1 0x1 SWAP1 SHL SWAP1 POP PUSH1 0x1 DUP2 DUP5 DUP2 PUSH2 0x3DF1 JUMPI PUSH2 0x3DF1 PUSH2 0x44FB JUMP JUMPDEST DIV DUP3 ADD SWAP1 SHR SWAP1 POP PUSH1 0x1 DUP2 DUP5 DUP2 PUSH2 0x3E09 JUMPI PUSH2 0x3E09 PUSH2 0x44FB JUMP JUMPDEST DIV DUP3 ADD SWAP1 SHR SWAP1 POP PUSH1 0x1 DUP2 DUP5 DUP2 PUSH2 0x3E21 JUMPI PUSH2 0x3E21 PUSH2 0x44FB JUMP JUMPDEST DIV DUP3 ADD SWAP1 SHR SWAP1 POP PUSH1 0x1 DUP2 DUP5 DUP2 PUSH2 0x3E39 JUMPI PUSH2 0x3E39 PUSH2 0x44FB JUMP JUMPDEST DIV DUP3 ADD SWAP1 SHR SWAP1 POP PUSH1 0x1 DUP2 DUP5 DUP2 PUSH2 0x3E51 JUMPI PUSH2 0x3E51 PUSH2 0x44FB JUMP JUMPDEST DIV DUP3 ADD SWAP1 SHR SWAP1 POP PUSH1 0x1 DUP2 DUP5 DUP2 PUSH2 0x3E69 JUMPI PUSH2 0x3E69 PUSH2 0x44FB JUMP JUMPDEST DIV DUP3 ADD SWAP1 SHR SWAP1 POP PUSH1 0x1 DUP2 DUP5 DUP2 PUSH2 0x3E81 JUMPI PUSH2 0x3E81 PUSH2 0x44FB JUMP JUMPDEST DIV DUP3 ADD SWAP1 SHR SWAP1 POP PUSH2 0x26F3 DUP2 DUP3 DUP6 DUP2 PUSH2 0x3E9B JUMPI PUSH2 0x3E9B PUSH2 0x44FB JUMP JUMPDEST DIV PUSH2 0x3F35 JUMP JUMPDEST PUSH1 0x0 DUP1 PUSH1 0x80 DUP4 SWAP1 SHR ISZERO PUSH2 0x3EB6 JUMPI PUSH1 0x80 SWAP3 DUP4 SHR SWAP3 ADD JUMPDEST PUSH1 0x40 DUP4 SWAP1 SHR ISZERO PUSH2 0x3EC8 JUMPI PUSH1 0x40 SWAP3 DUP4 SHR SWAP3 ADD JUMPDEST PUSH1 0x20 DUP4 SWAP1 SHR ISZERO PUSH2 0x3EDA JUMPI PUSH1 0x20 SWAP3 DUP4 SHR SWAP3 ADD JUMPDEST PUSH1 0x10 DUP4 SWAP1 SHR ISZERO PUSH2 0x3EEC JUMPI PUSH1 0x10 SWAP3 DUP4 SHR SWAP3 ADD JUMPDEST PUSH1 0x8 DUP4 SWAP1 SHR ISZERO PUSH2 0x3EFE JUMPI PUSH1 0x8 SWAP3 DUP4 SHR SWAP3 ADD JUMPDEST PUSH1 0x4 DUP4 SWAP1 SHR ISZERO PUSH2 0x3F10 JUMPI PUSH1 0x4 SWAP3 DUP4 SHR SWAP3 ADD JUMPDEST PUSH1 0x2 DUP4 SWAP1 SHR ISZERO PUSH2 0x3F22 JUMPI PUSH1 0x2 SWAP3 DUP4 SHR SWAP3 ADD JUMPDEST PUSH1 0x1 DUP4 SWAP1 SHR ISZERO PUSH2 0x11A5 JUMPI PUSH1 0x1 ADD SWAP3 SWAP2 POP POP JUMP JUMPDEST PUSH1 0x0 DUP2 DUP4 LT PUSH2 0x3F44 JUMPI DUP2 PUSH2 0x26F3 JUMP JUMPDEST POP SWAP1 SWAP2 SWAP1 POP JUMP JUMPDEST PUSH1 0x40 MLOAD DUP1 PUSH1 0xA0 ADD PUSH1 0x40 MSTORE DUP1 PUSH1 0x5 SWAP1 PUSH1 0x20 DUP3 MUL DUP1 CALLDATASIZE DUP4 CALLDATACOPY POP SWAP2 SWAP3 SWAP2 POP POP JUMP JUMPDEST DUP3 DUP1 SLOAD DUP3 DUP3 SSTORE SWAP1 PUSH1 0x0 MSTORE PUSH1 0x20 PUSH1 0x0 KECCAK256 SWAP1 DUP2 ADD SWAP3 DUP3 ISZERO PUSH2 0x3FA4 JUMPI SWAP2 PUSH1 0x20 MUL DUP3 ADD JUMPDEST DUP3 DUP2 GT ISZERO PUSH2 0x3FA4 JUMPI DUP3 MLOAD DUP3 SSTORE SWAP2 PUSH1 0x20 ADD SWAP2 SWAP1 PUSH1 0x1 ADD SWAP1 PUSH2 0x3F89 JUMP JUMPDEST POP PUSH2 0x3FB0 SWAP3 SWAP2 POP PUSH2 0x3FFC JUMP JUMPDEST POP SWAP1 JUMP JUMPDEST DUP3 PUSH1 0x5 DUP2 ADD SWAP3 DUP3 ISZERO PUSH2 0x3FA4 JUMPI SWAP2 PUSH1 0x20 MUL DUP3 ADD JUMPDEST DUP3 DUP2 GT ISZERO PUSH2 0x3FA4 JUMPI DUP3 MLOAD DUP3 SLOAD PUSH1 0x1 PUSH1 0x1 PUSH1 0xA0 SHL SUB NOT AND PUSH1 0x1 PUSH1 0x1 PUSH1 0xA0 SHL SUB SWAP1 SWAP2 AND OR DUP3 SSTORE PUSH1 0x20 SWAP1 SWAP3 ADD SWAP2 PUSH1 0x1 SWAP1 SWAP2 ADD SWAP1 PUSH2 0x3FC7 JUMP JUMPDEST JUMPDEST DUP1 DUP3 GT ISZERO PUSH2 0x3FB0 JUMPI PUSH1 0x0 DUP2 SSTORE PUSH1 0x1 ADD PUSH2 0x3FFD JUMP JUMPDEST PUSH1 0x1 PUSH1 0x1 PUSH1 0xA0 SHL SUB DUP2 AND DUP2 EQ PUSH2 0x2353 JUMPI PUSH1 0x0 DUP1 REVERT JUMPDEST PUSH1 0x0 PUSH1 0x20 DUP3 DUP5 SUB SLT ISZERO PUSH2 0x4038 JUMPI PUSH1 0x0 DUP1 REVERT JUMPDEST DUP2 CALLDATALOAD PUSH2 0x26F3 DUP2 PUSH2 0x4011 JUMP JUMPDEST PUSH1 0x0 PUSH1 0x20 DUP3 DUP5 SUB SLT ISZERO PUSH2 0x4055 JUMPI PUSH1 0x0 DUP1 REVERT JUMPDEST DUP2 CALLDATALOAD PUSH1 0x1 PUSH1 0x1 PUSH1 0xE0 SHL SUB NOT DUP2 AND DUP2 EQ PUSH2 0x26F3 JUMPI PUSH1 0x0 DUP1 REVERT JUMPDEST PUSH1 0x0 PUSH1 0x20 DUP1 DUP4 MSTORE DUP4 MLOAD DUP1 DUP3 DUP6 ADD MSTORE PUSH1 0x0 JUMPDEST DUP2 DUP2 LT ISZERO PUSH2 0x409A JUMPI DUP6 DUP2 ADD DUP4 ADD MLOAD DUP6 DUP3 ADD PUSH1 0x40 ADD MSTORE DUP3 ADD PUSH2 0x407E JUMP JUMPDEST POP PUSH1 0x0 PUSH1 0x40 DUP3 DUP7 ADD ADD MSTORE PUSH1 0x40 PUSH1 0x1F NOT PUSH1 0x1F DUP4 ADD AND DUP6 ADD ADD SWAP3 POP POP POP SWAP3 SWAP2 POP POP JUMP JUMPDEST PUSH1 0x0 DUP1 PUSH1 0x40 DUP4 DUP6 SUB SLT ISZERO PUSH2 0x40CE JUMPI PUSH1 0x0 DUP1 REVERT JUMPDEST DUP3 CALLDATALOAD PUSH2 0x40D9 DUP2 PUSH2 0x4011 JUMP JUMPDEST SWAP5 PUSH1 0x20 SWAP4 SWAP1 SWAP4 ADD CALLDATALOAD SWAP4 POP POP POP JUMP JUMPDEST PUSH4 0x4E487B71 PUSH1 0xE0 SHL PUSH1 0x0 MSTORE PUSH1 0x41 PUSH1 0x4 MSTORE PUSH1 0x24 PUSH1 0x0 REVERT JUMPDEST PUSH1 0x40 MLOAD PUSH1 0x1F DUP3 ADD PUSH1 0x1F NOT AND DUP2 ADD PUSH8 0xFFFFFFFFFFFFFFFF DUP2 GT DUP3 DUP3 LT OR ISZERO PUSH2 0x4126 JUMPI PUSH2 0x4126 PUSH2 0x40E7 JUMP JUMPDEST PUSH1 0x40 MSTORE SWAP2 SWAP1 POP JUMP JUMPDEST PUSH1 0x0 PUSH8 0xFFFFFFFFFFFFFFFF DUP3 GT ISZERO PUSH2 0x4148 JUMPI PUSH2 0x4148 PUSH2 0x40E7 JUMP JUMPDEST POP PUSH1 0x5 SHL PUSH1 0x20 ADD SWAP1 JUMP JUMPDEST PUSH1 0x0 DUP1 PUSH1 0x40 DUP4 DUP6 SUB SLT ISZERO PUSH2 0x4165 JUMPI PUSH1 0x0 DUP1 REVERT JUMPDEST DUP3 CALLDATALOAD SWAP2 POP PUSH1 0x20 DUP1 DUP5 ADD CALLDATALOAD PUSH8 0xFFFFFFFFFFFFFFFF DUP2 GT ISZERO PUSH2 0x4184 JUMPI PUSH1 0x0 DUP1 REVERT JUMPDEST DUP5 ADD PUSH1 0x1F DUP2 ADD DUP7 SGT PUSH2 0x4195 JUMPI PUSH1 0x0 DUP1 REVERT JUMPDEST DUP1 CALLDATALOAD PUSH2 0x41A8 PUSH2 0x41A3 DUP3 PUSH2 0x412E JUMP JUMPDEST PUSH2 0x40FD JUMP JUMPDEST DUP2 DUP2 MSTORE PUSH1 0x5 SWAP2 SWAP1 SWAP2 SHL DUP3 ADD DUP4 ADD SWAP1 DUP4 DUP2 ADD SWAP1 DUP9 DUP4 GT ISZERO PUSH2 0x41C7 JUMPI PUSH1 0x0 DUP1 REVERT JUMPDEST SWAP3 DUP5 ADD SWAP3 JUMPDEST DUP3 DUP5 LT ISZERO PUSH2 0x41E5 JUMPI DUP4 CALLDATALOAD DUP3 MSTORE SWAP3 DUP5 ADD SWAP3 SWAP1 DUP5 ADD SWAP1 PUSH2 0x41CC JUMP JUMPDEST DUP1 SWAP6 POP POP POP POP POP POP SWAP3 POP SWAP3 SWAP1 POP JUMP JUMPDEST DUP1 CALLDATALOAD DUP1 ISZERO ISZERO DUP2 EQ PUSH2 0x4204 JUMPI PUSH1 0x0 DUP1 REVERT JUMPDEST SWAP2 SWAP1 POP JUMP JUMPDEST PUSH1 0x0 DUP1 PUSH1 0x40 DUP4 DUP6 SUB SLT ISZERO PUSH2 0x421C JUMPI PUSH1 0x0 DUP1 REVERT JUMPDEST DUP3 CALLDATALOAD PUSH2 0x4227 DUP2 PUSH2 0x4011 JUMP JUMPDEST SWAP2 POP PUSH2 0x4235 PUSH1 0x20 DUP5 ADD PUSH2 0x41F4 JUMP JUMPDEST SWAP1 POP SWAP3 POP SWAP3 SWAP1 POP JUMP JUMPDEST PUSH1 0x0 DUP1 PUSH1 0x0 PUSH1 0x60 DUP5 DUP7 SUB SLT ISZERO PUSH2 0x4253 JUMPI PUSH1 0x0 DUP1 REVERT JUMPDEST DUP4 CALLDATALOAD PUSH2 0x425E DUP2 PUSH2 0x4011 JUMP JUMPDEST SWAP3 POP PUSH1 0x20 DUP5 ADD CALLDATALOAD PUSH2 0x426E DUP2 PUSH2 0x4011 JUMP JUMPDEST SWAP3 SWAP6 SWAP3 SWAP5 POP POP POP PUSH1 0x40 SWAP2 SWAP1 SWAP2 ADD CALLDATALOAD SWAP1 JUMP JUMPDEST PUSH1 0x0 PUSH1 0x20 DUP3 DUP5 SUB SLT ISZERO PUSH2 0x4291 JUMPI PUSH1 0x0 DUP1 REVERT JUMPDEST POP CALLDATALOAD SWAP2 SWAP1 POP JUMP JUMPDEST PUSH1 0x0 DUP1 PUSH1 0x40 DUP4 DUP6 SUB SLT ISZERO PUSH2 0x42AB JUMPI PUSH1 0x0 DUP1 REVERT JUMPDEST DUP3 CALLDATALOAD SWAP2 POP PUSH1 0x20 DUP4 ADD CALLDATALOAD PUSH2 0x42BD DUP2 PUSH2 0x4011 JUMP JUMPDEST DUP1 SWAP2 POP POP SWAP3 POP SWAP3 SWAP1 POP JUMP JUMPDEST PUSH1 0x0 DUP2 MLOAD DUP1 DUP5 MSTORE PUSH1 0x20 DUP1 DUP6 ADD SWAP5 POP DUP1 DUP5 ADD PUSH1 0x0 JUMPDEST DUP4 DUP2 LT ISZERO PUSH2 0x4301 JUMPI DUP2 MLOAD PUSH1 0x1 PUSH1 0x1 PUSH1 0xA0 SHL SUB AND DUP8 MSTORE SWAP6 DUP3 ADD SWAP6 SWAP1 DUP3 ADD SWAP1 PUSH1 0x1 ADD PUSH2 0x42DC JUMP JUMPDEST POP SWAP5 SWAP6 SWAP5 POP POP POP POP POP JUMP JUMPDEST PUSH1 0x20 DUP2 MSTORE PUSH1 0x0 PUSH2 0x26F3 PUSH1 0x20 DUP4 ADD DUP5 PUSH2 0x42C8 JUMP JUMPDEST PUSH1 0xA0 DUP2 ADD DUP2 DUP4 PUSH1 0x0 JUMPDEST PUSH1 0x5 DUP2 LT ISZERO PUSH2 0x4350 JUMPI DUP2 MLOAD PUSH1 0x1 PUSH1 0x1 PUSH1 0xA0 SHL SUB AND DUP4 MSTORE PUSH1 0x20 SWAP3 DUP4 ADD SWAP3 SWAP1 SWAP2 ADD SWAP1 PUSH1 0x1 ADD PUSH2 0x4328 JUMP JUMPDEST POP POP POP SWAP3 SWAP2 POP POP JUMP JUMPDEST PUSH1 0x0 DUP1 PUSH1 0x40 DUP4 DUP6 SUB SLT ISZERO PUSH2 0x436C JUMPI PUSH1 0x0 DUP1 REVERT JUMPDEST DUP3 CALLDATALOAD PUSH2 0x4377 DUP2 PUSH2 0x4011 JUMP JUMPDEST SWAP2 POP PUSH1 0x20 DUP4 ADD CALLDATALOAD PUSH2 0x42BD DUP2 PUSH2 0x4011 JUMP JUMPDEST PUSH1 0x0 DUP1 PUSH1 0x40 DUP4 DUP6 SUB SLT ISZERO PUSH2 0x439A JUMPI PUSH1 0x0 DUP1 REVERT JUMPDEST PUSH2 0x40D9 DUP4 PUSH2 0x41F4 JUMP JUMPDEST PUSH1 0x0 PUSH1 0x20 DUP1 DUP4 DUP6 SUB SLT ISZERO PUSH2 0x43B6 JUMPI PUSH1 0x0 DUP1 REVERT JUMPDEST DUP3 CALLDATALOAD PUSH8 0xFFFFFFFFFFFFFFFF DUP2 GT ISZERO PUSH2 0x43CD JUMPI PUSH1 0x0 DUP1 REVERT JUMPDEST DUP4 ADD PUSH1 0x1F DUP2 ADD DUP6 SGT PUSH2 0x43DE JUMPI PUSH1 0x0 DUP1 REVERT JUMPDEST DUP1 CALLDATALOAD PUSH2 0x43EC PUSH2 0x41A3 DUP3 PUSH2 0x412E JUMP JUMPDEST DUP2 DUP2 MSTORE PUSH1 0x5 SWAP2 SWAP1 SWAP2 SHL DUP3 ADD DUP4 ADD SWAP1 DUP4 DUP2 ADD SWAP1 DUP8 DUP4 GT ISZERO PUSH2 0x440B JUMPI PUSH1 0x0 DUP1 REVERT JUMPDEST SWAP3 DUP5 ADD SWAP3 JUMPDEST DUP3 DUP5 LT ISZERO PUSH2 0x4432 JUMPI DUP4 CALLDATALOAD PUSH2 0x4423 DUP2 PUSH2 0x4011 JUMP JUMPDEST DUP3 MSTORE SWAP3 DUP5 ADD SWAP3 SWAP1 DUP5 ADD SWAP1 PUSH2 0x4410 JUMP JUMPDEST SWAP8 SWAP7 POP POP POP POP POP POP POP JUMP JUMPDEST PUSH1 0x20 DUP1 DUP3 MSTORE PUSH1 0x24 SWAP1 DUP3 ADD MSTORE PUSH32 0x45706F6368206973206F7665722C207761697420666F7220746865206E657874 PUSH1 0x40 DUP3 ADD MSTORE PUSH4 0x206F6E65 PUSH1 0xE0 SHL PUSH1 0x60 DUP3 ADD MSTORE PUSH1 0x80 ADD SWAP1 JUMP JUMPDEST PUSH4 0x4E487B71 PUSH1 0xE0 SHL PUSH1 0x0 MSTORE PUSH1 0x11 PUSH1 0x4 MSTORE PUSH1 0x24 PUSH1 0x0 REVERT JUMPDEST PUSH1 0x0 PUSH1 0x1 DUP3 ADD PUSH2 0x44A9 JUMPI PUSH2 0x44A9 PUSH2 0x4481 JUMP JUMPDEST POP PUSH1 0x1 ADD SWAP1 JUMP JUMPDEST PUSH1 0x1 DUP2 DUP2 SHR SWAP1 DUP3 AND DUP1 PUSH2 0x44C4 JUMPI PUSH1 0x7F DUP3 AND SWAP2 POP JUMPDEST PUSH1 0x20 DUP3 LT DUP2 SUB PUSH2 0x2714 JUMPI PUSH4 0x4E487B71 PUSH1 0xE0 SHL PUSH1 0x0 MSTORE PUSH1 0x22 PUSH1 0x4 MSTORE PUSH1 0x24 PUSH1 0x0 REVERT JUMPDEST DUP1 DUP3 MUL DUP2 ISZERO DUP3 DUP3 DIV DUP5 EQ OR PUSH2 0x11A5 JUMPI PUSH2 0x11A5 PUSH2 0x4481 JUMP JUMPDEST PUSH4 0x4E487B71 PUSH1 0xE0 SHL PUSH1 0x0 MSTORE PUSH1 0x12 PUSH1 0x4 MSTORE PUSH1 0x24 PUSH1 0x0 REVERT JUMPDEST PUSH1 0x0 DUP3 PUSH2 0x4520 JUMPI PUSH2 0x4520 PUSH2 0x44FB JUMP JUMPDEST POP DIV SWAP1 JUMP JUMPDEST DUP2 DUP2 SUB DUP2 DUP2 GT ISZERO PUSH2 0x11A5 JUMPI PUSH2 0x11A5 PUSH2 0x4481 JUMP JUMPDEST DUP1 DUP3 ADD DUP1 DUP3 GT ISZERO PUSH2 0x11A5 JUMPI PUSH2 0x11A5 PUSH2 0x4481 JUMP JUMPDEST PUSH4 0x4E487B71 PUSH1 0xE0 SHL PUSH1 0x0 MSTORE PUSH1 0x32 PUSH1 0x4 MSTORE PUSH1 0x24 PUSH1 0x0 REVERT JUMPDEST PUSH1 0x0 DUP3 PUSH2 0x4570 JUMPI PUSH2 0x4570 PUSH2 0x44FB JUMP JUMPDEST POP MOD SWAP1 JUMP JUMPDEST PUSH1 0x0 PUSH1 0x40 DUP3 ADD DUP5 DUP4 MSTORE PUSH1 0x20 PUSH1 0x40 DUP2 DUP6 ADD MSTORE DUP2 DUP6 MLOAD DUP1 DUP5 MSTORE PUSH1 0x60 DUP7 ADD SWAP2 POP DUP3 DUP8 ADD SWAP4 POP PUSH1 0x0 JUMPDEST DUP2 DUP2 LT ISZERO PUSH2 0x45B6 JUMPI DUP5 MLOAD DUP4 MSTORE SWAP4 DUP4 ADD SWAP4 SWAP2 DUP4 ADD SWAP2 PUSH1 0x1 ADD PUSH2 0x459A JUMP JUMPDEST POP SWAP1 SWAP8 SWAP7 POP POP POP POP POP POP POP JUMP JUMPDEST PUSH1 0x20 DUP1 DUP3 MSTORE DUP3 SLOAD DUP3 DUP3 ADD DUP2 SWAP1 MSTORE PUSH1 0x0 DUP5 DUP2 MSTORE DUP3 DUP2 KECCAK256 SWAP1 SWAP3 SWAP2 PUSH1 0x40 DUP6 ADD SWAP1 DUP5 JUMPDEST DUP2 DUP2 LT ISZERO PUSH2 0x4607 JUMPI DUP4 SLOAD PUSH1 0x1 PUSH1 0x1 PUSH1 0xA0 SHL SUB AND DUP4 MSTORE PUSH1 0x1 SWAP4 DUP5 ADD SWAP4 SWAP3 DUP6 ADD SWAP3 ADD PUSH2 0x45E2 JUMP JUMPDEST POP SWAP1 SWAP7 SWAP6 POP POP POP POP POP POP JUMP JUMPDEST PUSH1 0x0 PUSH1 0x20 DUP3 DUP5 SUB SLT ISZERO PUSH2 0x4625 JUMPI PUSH1 0x0 DUP1 REVERT JUMPDEST POP MLOAD SWAP2 SWAP1 POP JUMP JUMPDEST PUSH1 0x0 PUSH1 0x20 DUP3 DUP5 SUB SLT ISZERO PUSH2 0x463E JUMPI PUSH1 0x0 DUP1 REVERT JUMPDEST DUP2 MLOAD PUSH2 0x26F3 DUP2 PUSH2 0x4011 JUMP JUMPDEST DUP6 DUP2 MSTORE DUP5 PUSH1 0x20 DUP3 ADD MSTORE PUSH1 0xA0 PUSH1 0x40 DUP3 ADD MSTORE PUSH1 0x0 PUSH2 0x4668 PUSH1 0xA0 DUP4 ADD DUP7 PUSH2 0x42C8 JUMP JUMPDEST PUSH1 0x1 PUSH1 0x1 PUSH1 0xA0 SHL SUB SWAP5 SWAP1 SWAP5 AND PUSH1 0x60 DUP4 ADD MSTORE POP PUSH1 0x80 ADD MSTORE SWAP4 SWAP3 POP POP POP JUMP INVALID 0xDD CALLCODE MSTORE 0xAD SHL 0xE2 0xC8 SWAP12 PUSH10 0xC2B068FC378DAA952BA7 CALL PUSH4 0xC4A11628 CREATE2 GAS 0x4D CREATE2 0x23 0xB3 0xEF LOG4 SWAP9 SMOD KECCAK256 0x5C 0xE4 0xD3 SSTORE MULMOD 0x2E CREATE2 0xA8 LOG1 DUP16 JUMP 0xE8 SWAP2 EXTCODECOPY DELEGATECALL LOG2 ADD 0xFB 0xE2 DUP8 DUP3 JUMPDEST MULMOD JUMP SWAP4 0xC2 OR PUSH22 0xA26469706673582212208C7A4C930EAB2FD45D0595F9 CALL 0xFC NOT 0xB7 PUSH5 0x35F545C8A9 DUP12 JUMPDEST SWAP4 MLOAD DUP1 EXTCODEHASH 0x28 0xBF 0x5D POP PUSH5 0x736F6C6343 STOP ADDMOD EQ STOP CALLER PUSH1 0x80 PUSH1 0x40 DUP2 SWAP1 MSTORE PUSH1 0x1 SLOAD PUSH4 0x18160DDD PUSH1 0xE0 SHL DUP3 MSTORE PUSH2 0x3E8 SWAP2 PUSH1 0x1 PUSH1 0x1 PUSH1 0xA0 SHL SUB SWAP1 SWAP2 AND SWAP1 PUSH4 0x18160DDD SWAP1 PUSH1 0x84 SWAP1 PUSH1 0x20 SWAP1 PUSH1 0x4 DUP2 DUP7 GAS STATICCALL ISZERO DUP1 ISZERO PUSH2 0x46 JUMPI RETURNDATASIZE PUSH1 0x0 DUP1 RETURNDATACOPY RETURNDATASIZE PUSH1 0x0 REVERT JUMPDEST POP POP POP POP PUSH1 0x40 MLOAD RETURNDATASIZE PUSH1 0x1F NOT PUSH1 0x1F DUP3 ADD AND DUP3 ADD DUP1 PUSH1 0x40 MSTORE POP DUP2 ADD SWAP1 PUSH2 0x6A SWAP2 SWAP1 PUSH2 0x16B JUMP JUMPDEST PUSH2 0x75 SWAP1 PUSH1 0x19 PUSH2 0x184 JUMP JUMPDEST PUSH2 0x7F SWAP2 SWAP1 PUSH2 0x1AF JUMP JUMPDEST PUSH1 0x3 SSTORE PUSH1 0x0 PUSH1 0x4 SSTORE CALLVALUE DUP1 ISZERO PUSH2 0x93 JUMPI PUSH1 0x0 DUP1 REVERT JUMPDEST POP PUSH1 0x40 MLOAD PUSH2 0x96F CODESIZE SUB DUP1 PUSH2 0x96F DUP4 CODECOPY DUP2 ADD PUSH1 0x40 DUP2 SWAP1 MSTORE PUSH2 0xB2 SWAP2 PUSH2 0x1ED JUMP JUMPDEST DUP1 PUSH1 0x1 PUSH1 0x1 PUSH1 0xA0 SHL SUB DUP2 AND PUSH2 0xE1 JUMPI PUSH1 0x40 MLOAD PUSH4 0x1E4FBDF7 PUSH1 0xE0 SHL DUP2 MSTORE PUSH1 0x0 PUSH1 0x4 DUP3 ADD MSTORE PUSH1 0x24 ADD PUSH1 0x40 MLOAD DUP1 SWAP2 SUB SWAP1 REVERT JUMPDEST PUSH2 0xEA DUP2 PUSH2 0x11B JUMP JUMPDEST POP POP PUSH1 0x1 DUP1 SLOAD PUSH1 0x1 PUSH1 0x1 PUSH1 0xA0 SHL SUB SWAP1 SWAP3 AND PUSH1 0x1 PUSH1 0x1 PUSH1 0xA0 SHL SUB NOT SWAP3 DUP4 AND DUP2 OR SWAP1 SWAP2 SSTORE PUSH1 0x2 DUP1 SLOAD SWAP1 SWAP3 AND OR SWAP1 SSTORE PUSH2 0x220 JUMP JUMPDEST PUSH1 0x0 DUP1 SLOAD PUSH1 0x1 PUSH1 0x1 PUSH1 0xA0 SHL SUB DUP4 DUP2 AND PUSH1 0x1 PUSH1 0x1 PUSH1 0xA0 SHL SUB NOT DUP4 AND DUP2 OR DUP5 SSTORE PUSH1 0x40 MLOAD SWAP2 SWAP1 SWAP3 AND SWAP3 DUP4 SWAP2 PUSH32 0x8BE0079C531659141344CD1FD0A4F28419497F9722A3DAAFE3B4186F6B6457E0 SWAP2 SWAP1 LOG3 POP POP JUMP JUMPDEST PUSH1 0x0 PUSH1 0x20 DUP3 DUP5 SUB SLT ISZERO PUSH2 0x17D JUMPI PUSH1 0x0 DUP1 REVERT JUMPDEST POP MLOAD SWAP2 SWAP1 POP JUMP JUMPDEST DUP1 DUP3 MUL DUP2 ISZERO DUP3 DUP3 DIV DUP5 EQ OR PUSH2 0x1A9 JUMPI PUSH4 0x4E487B71 PUSH1 0xE0 SHL PUSH1 0x0 MSTORE PUSH1 0x11 PUSH1 0x4 MSTORE PUSH1 0x24 PUSH1 0x0 REVERT JUMPDEST SWAP3 SWAP2 POP POP JUMP JUMPDEST PUSH1 0x0 DUP3 PUSH2 0x1CC JUMPI PUSH4 0x4E487B71 PUSH1 0xE0 SHL PUSH1 0x0 MSTORE PUSH1 0x12 PUSH1 0x4 MSTORE PUSH1 0x24 PUSH1 0x0 REVERT JUMPDEST POP DIV SWAP1 JUMP JUMPDEST DUP1 MLOAD PUSH1 0x1 PUSH1 0x1 PUSH1 0xA0 SHL SUB DUP2 AND DUP2 EQ PUSH2 0x1E8 JUMPI PUSH1 0x0 DUP1 REVERT JUMPDEST SWAP2 SWAP1 POP JUMP JUMPDEST PUSH1 0x0 DUP1 PUSH1 0x40 DUP4 DUP6 SUB SLT ISZERO PUSH2 0x200 JUMPI PUSH1 0x0 DUP1 REVERT JUMPDEST PUSH2 0x209 DUP4 PUSH2 0x1D1 JUMP JUMPDEST SWAP2 POP PUSH2 0x217 PUSH1 0x20 DUP5 ADD PUSH2 0x1D1 JUMP JUMPDEST SWAP1 POP SWAP3 POP SWAP3 SWAP1 POP JUMP JUMPDEST PUSH2 0x740 DUP1 PUSH2 0x22F PUSH1 0x0 CODECOPY PUSH1 0x0 RETURN INVALID PUSH1 0x80 PUSH1 0x40 MSTORE CALLVALUE DUP1 ISZERO PUSH2 0x10 JUMPI PUSH1 0x0 DUP1 REVERT JUMPDEST POP PUSH1 0x4 CALLDATASIZE LT PUSH2 0x88 JUMPI PUSH1 0x0 CALLDATALOAD PUSH1 0xE0 SHR DUP1 PUSH4 0xEFCA2EED GT PUSH2 0x5B JUMPI DUP1 PUSH4 0xEFCA2EED EQ PUSH2 0xDC JUMPI DUP1 PUSH4 0xF25ADDF5 EQ PUSH2 0xF3 JUMPI DUP1 PUSH4 0xF2FDE38B EQ PUSH2 0x106 JUMPI DUP1 PUSH4 0xFC0C546A EQ PUSH2 0x119 JUMPI PUSH1 0x0 DUP1 REVERT JUMPDEST DUP1 PUSH4 0x715018A6 EQ PUSH2 0x8D JUMPI DUP1 PUSH4 0x853828B6 EQ PUSH2 0x97 JUMPI DUP1 PUSH4 0x8DA5CB5B EQ PUSH2 0x9F JUMPI DUP1 PUSH4 0x9D76EA58 EQ PUSH2 0xC9 JUMPI JUMPDEST PUSH1 0x0 DUP1 REVERT JUMPDEST PUSH2 0x95 PUSH2 0x12C JUMP JUMPDEST STOP JUMPDEST PUSH2 0x95 PUSH2 0x140 JUMP JUMPDEST PUSH1 0x0 SLOAD PUSH1 0x1 PUSH1 0x1 PUSH1 0xA0 SHL SUB AND JUMPDEST PUSH1 0x40 MLOAD PUSH1 0x1 PUSH1 0x1 PUSH1 0xA0 SHL SUB SWAP1 SWAP2 AND DUP2 MSTORE PUSH1 0x20 ADD JUMPDEST PUSH1 0x40 MLOAD DUP1 SWAP2 SUB SWAP1 RETURN JUMPDEST PUSH1 0x2 SLOAD PUSH2 0xAC SWAP1 PUSH1 0x1 PUSH1 0x1 PUSH1 0xA0 SHL SUB AND DUP2 JUMP JUMPDEST PUSH2 0xE5 PUSH1 0x4 SLOAD DUP2 JUMP JUMPDEST PUSH1 0x40 MLOAD SWAP1 DUP2 MSTORE PUSH1 0x20 ADD PUSH2 0xC0 JUMP JUMPDEST PUSH2 0x95 PUSH2 0x101 CALLDATASIZE PUSH1 0x4 PUSH2 0x568 JUMP JUMPDEST PUSH2 0x230 JUMP JUMPDEST PUSH2 0x95 PUSH2 0x114 CALLDATASIZE PUSH1 0x4 PUSH2 0x62D JUMP JUMPDEST PUSH2 0x47E JUMP JUMPDEST PUSH1 0x1 SLOAD PUSH2 0xAC SWAP1 PUSH1 0x1 PUSH1 0x1 PUSH1 0xA0 SHL SUB AND DUP2 JUMP JUMPDEST PUSH2 0x134 PUSH2 0x4B9 JUMP JUMPDEST PUSH2 0x13E PUSH1 0x0 PUSH2 0x4E6 JUMP JUMPDEST JUMP JUMPDEST PUSH2 0x148 PUSH2 0x4B9 JUMP JUMPDEST PUSH1 0x1 SLOAD PUSH1 0x40 MLOAD PUSH4 0x70A08231 PUSH1 0xE0 SHL DUP2 MSTORE ADDRESS PUSH1 0x4 DUP3 ADD MSTORE PUSH1 0x1 PUSH1 0x1 PUSH1 0xA0 SHL SUB SWAP1 SWAP2 AND SWAP1 PUSH4 0xA9059CBB SWAP1 CALLER SWAP1 DUP4 SWAP1 PUSH4 0x70A08231 SWAP1 PUSH1 0x24 ADD PUSH1 0x20 PUSH1 0x40 MLOAD DUP1 DUP4 SUB DUP2 DUP7 GAS STATICCALL ISZERO DUP1 ISZERO PUSH2 0x19A JUMPI RETURNDATASIZE PUSH1 0x0 DUP1 RETURNDATACOPY RETURNDATASIZE PUSH1 0x0 REVERT JUMPDEST POP POP POP POP PUSH1 0x40 MLOAD RETURNDATASIZE PUSH1 0x1F NOT PUSH1 0x1F DUP3 ADD AND DUP3 ADD DUP1 PUSH1 0x40 MSTORE POP DUP2 ADD SWAP1 PUSH2 0x1BE SWAP2 SWAP1 PUSH2 0x64F JUMP JUMPDEST PUSH1 0x40 MLOAD PUSH1 0x1 PUSH1 0x1 PUSH1 0xE0 SHL SUB NOT PUSH1 0xE0 DUP6 SWAP1 SHL AND DUP2 MSTORE PUSH1 0x1 PUSH1 0x1 PUSH1 0xA0 SHL SUB SWAP1 SWAP3 AND PUSH1 0x4 DUP4 ADD MSTORE PUSH1 0x24 DUP3 ADD MSTORE PUSH1 0x44 ADD PUSH1 0x20 PUSH1 0x40 MLOAD DUP1 DUP4 SUB DUP2 PUSH1 0x0 DUP8 GAS CALL ISZERO DUP1 ISZERO PUSH2 0x209 JUMPI RETURNDATASIZE PUSH1 0x0 DUP1 RETURNDATACOPY RETURNDATASIZE PUSH1 0x0 REVERT JUMPDEST POP POP POP POP PUSH1 0x40 MLOAD RETURNDATASIZE PUSH1 0x1F NOT PUSH1 0x1F DUP3 ADD AND DUP3 ADD DUP1 PUSH1 0x40 MSTORE POP DUP2 ADD SWAP1 PUSH2 0x22D SWAP2 SWAP1 PUSH2 0x668 JUMP JUMPDEST POP JUMP JUMPDEST PUSH1 0x2 SLOAD PUSH1 0x1 PUSH1 0x1 PUSH1 0xA0 SHL SUB AND CALLER EQ PUSH2 0x2A2 JUMPI PUSH1 0x40 MLOAD PUSH3 0x461BCD PUSH1 0xE5 SHL DUP2 MSTORE PUSH1 0x20 PUSH1 0x4 DUP3 ADD MSTORE PUSH1 0x2A PUSH1 0x24 DUP3 ADD MSTORE PUSH32 0x4F6E6C7920746F6B656E20636F6E74726163742063616E2063616C6C20746869 PUSH1 0x44 DUP3 ADD MSTORE PUSH10 0x3990333AB731BA34B7B7 PUSH1 0xB1 SHL PUSH1 0x64 DUP3 ADD MSTORE PUSH1 0x84 ADD JUMPDEST PUSH1 0x40 MLOAD DUP1 SWAP2 SUB SWAP1 REVERT JUMPDEST PUSH1 0x3 SLOAD PUSH1 0x1 SLOAD PUSH1 0x40 MLOAD PUSH4 0x70A08231 PUSH1 0xE0 SHL DUP2 MSTORE ADDRESS PUSH1 0x4 DUP3 ADD MSTORE PUSH1 0x0 SWAP3 SWAP2 PUSH1 0x1 PUSH1 0x1 PUSH1 0xA0 SHL SUB AND SWAP1 PUSH4 0x70A08231 SWAP1 PUSH1 0x24 ADD PUSH1 0x20 PUSH1 0x40 MLOAD DUP1 DUP4 SUB DUP2 DUP7 GAS STATICCALL ISZERO DUP1 ISZERO PUSH2 0x2EF JUMPI RETURNDATASIZE PUSH1 0x0 DUP1 RETURNDATACOPY RETURNDATASIZE PUSH1 0x0 REVERT JUMPDEST POP POP POP POP PUSH1 0x40 MLOAD RETURNDATASIZE PUSH1 0x1F NOT PUSH1 0x1F DUP3 ADD AND DUP3 ADD DUP1 PUSH1 0x40 MSTORE POP DUP2 ADD SWAP1 PUSH2 0x313 SWAP2 SWAP1 PUSH2 0x64F JUMP JUMPDEST GT PUSH2 0x389 JUMPI PUSH1 0x1 SLOAD PUSH1 0x40 MLOAD PUSH4 0x70A08231 PUSH1 0xE0 SHL DUP2 MSTORE ADDRESS PUSH1 0x4 DUP3 ADD MSTORE PUSH1 0x1 PUSH1 0x1 PUSH1 0xA0 SHL SUB SWAP1 SWAP2 AND SWAP1 PUSH4 0x70A08231 SWAP1 PUSH1 0x24 ADD PUSH1 0x20 PUSH1 0x40 MLOAD DUP1 DUP4 SUB DUP2 DUP7 GAS STATICCALL ISZERO DUP1 ISZERO PUSH2 0x360 JUMPI RETURNDATASIZE PUSH1 0x0 DUP1 RETURNDATACOPY RETURNDATASIZE PUSH1 0x0 REVERT JUMPDEST POP POP POP POP PUSH1 0x40 MLOAD RETURNDATASIZE PUSH1 0x1F NOT PUSH1 0x1F DUP3 ADD AND DUP3 ADD DUP1 PUSH1 0x40 MSTORE POP DUP2 ADD SWAP1 PUSH2 0x384 SWAP2 SWAP1 PUSH2 0x64F JUMP JUMPDEST PUSH2 0x38D JUMP JUMPDEST PUSH1 0x3 SLOAD JUMPDEST SWAP1 POP DUP1 PUSH1 0x4 PUSH1 0x0 DUP3 DUP3 SLOAD PUSH2 0x3A1 SWAP2 SWAP1 PUSH2 0x6A0 JUMP JUMPDEST SWAP1 SWAP2 SSTORE POP POP DUP1 ISZERO PUSH2 0x47A JUMPI PUSH1 0x0 JUMPDEST DUP3 MLOAD DUP2 LT ISZERO PUSH2 0x478 JUMPI PUSH1 0x1 SLOAD DUP4 MLOAD PUSH1 0x1 PUSH1 0x1 PUSH1 0xA0 SHL SUB SWAP1 SWAP2 AND SWAP1 PUSH4 0xA9059CBB SWAP1 DUP6 SWAP1 DUP5 SWAP1 DUP2 LT PUSH2 0x3E1 JUMPI PUSH2 0x3E1 PUSH2 0x6B9 JUMP JUMPDEST PUSH1 0x20 MUL PUSH1 0x20 ADD ADD MLOAD DUP6 MLOAD DUP6 PUSH2 0x3F6 SWAP2 SWAP1 PUSH2 0x6CF JUMP JUMPDEST PUSH1 0x40 MLOAD PUSH1 0x1 PUSH1 0x1 PUSH1 0xE0 SHL SUB NOT PUSH1 0xE0 DUP6 SWAP1 SHL AND DUP2 MSTORE PUSH1 0x1 PUSH1 0x1 PUSH1 0xA0 SHL SUB SWAP1 SWAP3 AND PUSH1 0x4 DUP4 ADD MSTORE PUSH1 0x24 DUP3 ADD MSTORE PUSH1 0x44 ADD PUSH1 0x20 PUSH1 0x40 MLOAD DUP1 DUP4 SUB DUP2 PUSH1 0x0 DUP8 GAS CALL ISZERO DUP1 ISZERO PUSH2 0x441 JUMPI RETURNDATASIZE PUSH1 0x0 DUP1 RETURNDATACOPY RETURNDATASIZE PUSH1 0x0 REVERT JUMPDEST POP POP POP POP PUSH1 0x40 MLOAD RETURNDATASIZE PUSH1 0x1F NOT PUSH1 0x1F DUP3 ADD AND DUP3 ADD DUP1 PUSH1 0x40 MSTORE POP DUP2 ADD SWAP1 PUSH2 0x465 SWAP2 SWAP1 PUSH2 0x668 JUMP JUMPDEST POP DUP1 PUSH2 0x470 DUP2 PUSH2 0x6F1 JUMP JUMPDEST SWAP2 POP POP PUSH2 0x3AF JUMP JUMPDEST POP JUMPDEST POP POP JUMP JUMPDEST PUSH2 0x486 PUSH2 0x4B9 JUMP JUMPDEST PUSH1 0x1 PUSH1 0x1 PUSH1 0xA0 SHL SUB DUP2 AND PUSH2 0x4B0 JUMPI PUSH1 0x40 MLOAD PUSH4 0x1E4FBDF7 PUSH1 0xE0 SHL DUP2 MSTORE PUSH1 0x0 PUSH1 0x4 DUP3 ADD MSTORE PUSH1 0x24 ADD PUSH2 0x299 JUMP JUMPDEST PUSH2 0x22D DUP2 PUSH2 0x4E6 JUMP JUMPDEST PUSH1 0x0 SLOAD PUSH1 0x1 PUSH1 0x1 PUSH1 0xA0 SHL SUB AND CALLER EQ PUSH2 0x13E JUMPI PUSH1 0x40 MLOAD PUSH4 0x118CDAA7 PUSH1 0xE0 SHL DUP2 MSTORE CALLER PUSH1 0x4 DUP3 ADD MSTORE PUSH1 0x24 ADD PUSH2 0x299 JUMP JUMPDEST PUSH1 0x0 DUP1 SLOAD PUSH1 0x1 PUSH1 0x1 PUSH1 0xA0 SHL SUB DUP4 DUP2 AND PUSH1 0x1 PUSH1 0x1 PUSH1 0xA0 SHL SUB NOT DUP4 AND DUP2 OR DUP5 SSTORE PUSH1 0x40 MLOAD SWAP2 SWAP1 SWAP3 AND SWAP3 DUP4 SWAP2 PUSH32 0x8BE0079C531659141344CD1FD0A4F28419497F9722A3DAAFE3B4186F6B6457E0 SWAP2 SWAP1 LOG3 POP POP JUMP JUMPDEST PUSH4 0x4E487B71 PUSH1 0xE0 SHL PUSH1 0x0 MSTORE PUSH1 0x41 PUSH1 0x4 MSTORE PUSH1 0x24 PUSH1 0x0 REVERT JUMPDEST DUP1 CALLDATALOAD PUSH1 0x1 PUSH1 0x1 PUSH1 0xA0 SHL SUB DUP2 AND DUP2 EQ PUSH2 0x563 JUMPI PUSH1 0x0 DUP1 REVERT JUMPDEST SWAP2 SWAP1 POP JUMP JUMPDEST PUSH1 0x0 PUSH1 0x20 DUP1 DUP4 DUP6 SUB SLT ISZERO PUSH2 0x57B JUMPI PUSH1 0x0 DUP1 REVERT JUMPDEST DUP3 CALLDATALOAD PUSH8 0xFFFFFFFFFFFFFFFF DUP1 DUP3 GT ISZERO PUSH2 0x593 JUMPI PUSH1 0x0 DUP1 REVERT JUMPDEST DUP2 DUP6 ADD SWAP2 POP DUP6 PUSH1 0x1F DUP4 ADD SLT PUSH2 0x5A7 JUMPI PUSH1 0x0 DUP1 REVERT JUMPDEST DUP2 CALLDATALOAD DUP2 DUP2 GT ISZERO PUSH2 0x5B9 JUMPI PUSH2 0x5B9 PUSH2 0x536 JUMP JUMPDEST DUP1 PUSH1 0x5 SHL PUSH1 0x40 MLOAD PUSH1 0x1F NOT PUSH1 0x3F DUP4 ADD AND DUP2 ADD DUP2 DUP2 LT DUP6 DUP3 GT OR ISZERO PUSH2 0x5DE JUMPI PUSH2 0x5DE PUSH2 0x536 JUMP JUMPDEST PUSH1 0x40 MSTORE SWAP2 DUP3 MSTORE DUP5 DUP3 ADD SWAP3 POP DUP4 DUP2 ADD DUP6 ADD SWAP2 DUP9 DUP4 GT ISZERO PUSH2 0x5FC JUMPI PUSH1 0x0 DUP1 REVERT JUMPDEST SWAP4 DUP6 ADD SWAP4 JUMPDEST DUP3 DUP6 LT ISZERO PUSH2 0x621 JUMPI PUSH2 0x612 DUP6 PUSH2 0x54C JUMP JUMPDEST DUP5 MSTORE SWAP4 DUP6 ADD SWAP4 SWAP3 DUP6 ADD SWAP3 PUSH2 0x601 JUMP JUMPDEST SWAP9 SWAP8 POP POP POP POP POP POP POP POP JUMP JUMPDEST PUSH1 0x0 PUSH1 0x20 DUP3 DUP5 SUB SLT ISZERO PUSH2 0x63F JUMPI PUSH1 0x0 DUP1 REVERT JUMPDEST PUSH2 0x648 DUP3 PUSH2 0x54C JUMP JUMPDEST SWAP4 SWAP3 POP POP POP JUMP JUMPDEST PUSH1 0x0 PUSH1 0x20 DUP3 DUP5 SUB SLT ISZERO PUSH2 0x661 JUMPI PUSH1 0x0 DUP1 REVERT JUMPDEST POP MLOAD SWAP2 SWAP1 POP JUMP JUMPDEST PUSH1 0x0 PUSH1 0x20 DUP3 DUP5 SUB SLT ISZERO PUSH2 0x67A JUMPI PUSH1 0x0 DUP1 REVERT JUMPDEST DUP2 MLOAD DUP1 ISZERO ISZERO DUP2 EQ PUSH2 0x648 JUMPI PUSH1 0x0 DUP1 REVERT JUMPDEST PUSH4 0x4E487B71 PUSH1 0xE0 SHL PUSH1 0x0 MSTORE PUSH1 0x11 PUSH1 0x4 MSTORE PUSH1 0x24 PUSH1 0x0 REVERT JUMPDEST DUP1 DUP3 ADD DUP1 DUP3 GT ISZERO PUSH2 0x6B3 JUMPI PUSH2 0x6B3 PUSH2 0x68A JUMP JUMPDEST SWAP3 SWAP2 POP POP JUMP JUMPDEST PUSH4 0x4E487B71 PUSH1 0xE0 SHL PUSH1 0x0 MSTORE PUSH1 0x32 PUSH1 0x4 MSTORE PUSH1 0x24 PUSH1 0x0 REVERT JUMPDEST PUSH1 0x0 DUP3 PUSH2 0x6EC JUMPI PUSH4 0x4E487B71 PUSH1 0xE0 SHL PUSH1 0x0 MSTORE PUSH1 0x12 PUSH1 0x4 MSTORE PUSH1 0x24 PUSH1 0x0 REVERT JUMPDEST POP DIV SWAP1 JUMP JUMPDEST PUSH1 0x0 PUSH1 0x1 DUP3 ADD PUSH2 0x703 JUMPI PUSH2 0x703 PUSH2 0x68A JUMP JUMPDEST POP PUSH1 0x1 ADD SWAP1 JUMP INVALID LOG2 PUSH5 0x6970667358 0x22 SLT KECCAK256 BASEFEE 0xF DUP6 0x24 0xE CREATE2 REVERT AND 0xC4 CALLER 0x29 PUSH28 0x133F3117F582CD938358CFB6C83D312FEB7041E064736F6C63430008 EQ STOP CALLER "},"methodIdentifiers":{"ADMIN_ROLE()":"75b238fc","DEFAULT_ADMIN_ROLE()":"a217fddf","MarketingWallet()":"2598cdb2","allowance(address,address)":"dd62ed3e","amountOfAllInfection()":"c3ec8897","amountOfInfection(address)":"0f44e894","approve(address,uint256)":"095ea7b3","approveMax(address)":"571ac8b0","balanceOf(address)":"70a08231","buyCapsule()":"d3a9ffc4","capsuleCount()":"05dc0394","capsuleCurrentCount()":"1bd8ebe1","capsulePrice()":"5bc04469","claim()":"4e71d92d","decimals()":"313ce567","endGame()":"6cbc2ded","epochId()":"aa9bbc0c","epochs(uint256)":"c6b61e4c","getBestInfectors()":"c26d68f9","getGotLuckyVaccine()":"6789c92c","getHasOpenedCapsule(address)":"02b2553e","getHasUpgrade(address)":"014c58a3","getIsBuyer(address)":"fd6e28cf","getRequestFullfilled(address)":"1781e17c","getRoleAdmin(bytes32)":"248a9ca3","grantRole(bytes32,address)":"2f2ff15d","hasRole(bytes32,address)":"91d14854","infect(address)":"96eb64a9","infectOG(address[])":"f5415cbb","infected(address)":"636ee0db","infecter(address)":"3eca5343","isGameOver()":"0e04a7d8","isGameStarted()":"c315432a","isTradingEnabled()":"064a59d0","lastRequestId()":"fc2a88c3","name()":"06fdde03","openCapsule(address)":"007f27ae","owner()":"8da5cb5b","pair()":"a8aa1b31","pendingRewards(address)":"31d7a262","rawFulfillRandomWords(uint256,uint256[])":"1fe543e3","renounceOwnership()":"715018a6","renounceRole(bytes32,address)":"36568abe","requestIds(uint256)":"8796ba8c","revokeRole(bytes32,address)":"d547741f","rewardPool()":"66666aa9","router()":"f887ea40","setFeesWallet(address)":"43d4f92b","setIsFeeExempt(address,bool)":"658d4b7f","setIsTradingEnabled()":"1ce78ac8","setIsWalletLimitExempt(address,bool)":"2198cf6c","setMaxWallet()":"d02c6394","setProbabilityMaxRange(uint256)":"fd39ef78","setSpecialVaccineSupply(uint256)":"f25c7ea4","setSwapBackSettings(bool,uint256)":"df20fd49","setSwapPair(address)":"73a432bb","startNewEpoch()":"3aab0a62","supportsInterface(bytes4)":"01ffc9a7","swapEnabled()":"6ddd1713","symbol()":"95d89b41","totalAllRewards()":"5119c971","totalRewards(address)":"ab7573dd","totalSupply()":"18160ddd","transfer(address,uint256)":"a9059cbb","transferFrom(address,address,uint256)":"23b872dd","transferOwnership(address)":"f2fde38b","upgradeVaccine()":"196228c0","userCurrentVaccine(address)":"54d41b5b","userHasBoughtVaccine(address)":"8c5799ce","vaccineFourSupply()":"4726319f"}}}}}