{"contracts/BLI.sol":{"BLI":{"abi":[{"inputs":[{"internalType":"address","name":"initialOwner","type":"address"}],"stateMutability":"nonpayable","type":"constructor"},{"inputs":[],"name":"AccessControlBadConfirmation","type":"error"},{"inputs":[{"internalType":"address","name":"account","type":"address"},{"internalType":"bytes32","name":"neededRole","type":"bytes32"}],"name":"AccessControlUnauthorizedAccount","type":"error"},{"inputs":[{"internalType":"address","name":"have","type":"address"},{"internalType":"address","name":"want","type":"address"}],"name":"OnlyCoordinatorCanFulfill","type":"error"},{"inputs":[{"internalType":"address","name":"owner","type":"address"}],"name":"OwnableInvalidOwner","type":"error"},{"inputs":[{"internalType":"address","name":"account","type":"address"}],"name":"OwnableUnauthorizedAccount","type":"error"},{"anonymous":false,"inputs":[{"indexed":true,"internalType":"address","name":"owner","type":"address"},{"indexed":true,"internalType":"address","name":"spender","type":"address"},{"indexed":false,"internalType":"uint256","name":"value","type":"uint256"}],"name":"Approval","type":"event"},{"anonymous":false,"inputs":[{"indexed":false,"internalType":"uint256","name":"amountETH","type":"uint256"},{"indexed":false,"internalType":"uint256","name":"amountBOG","type":"uint256"}],"name":"AutoLiquify","type":"event"},{"anonymous":false,"inputs":[{"indexed":true,"internalType":"address","name":"user","type":"address"},{"indexed":false,"internalType":"uint256","name":"id","type":"uint256"}],"name":"CapsuleBought","type":"event"},{"anonymous":false,"inputs":[{"indexed":true,"internalType":"address","name":"user","type":"address"},{"indexed":false,"internalType":"uint256","name":"vaccine","type":"uint256"},{"indexed":false,"internalType":"bool","name":"vaccine4","type":"bool"}],"name":"CapsuleOpened","type":"event"},{"anonymous":false,"inputs":[{"indexed":false,"internalType":"uint256","name":"epochId","type":"uint256"}],"name":"NewEpochStarted","type":"event"},{"anonymous":false,"inputs":[{"indexed":true,"internalType":"address","name":"previousOwner","type":"address"},{"indexed":true,"internalType":"address","name":"newOwner","type":"address"}],"name":"OwnershipTransferred","type":"event"},{"anonymous":false,"inputs":[{"indexed":false,"internalType":"uint256","name":"requestId","type":"uint256"},{"indexed":false,"internalType":"uint256[]","name":"randomWords","type":"uint256[]"}],"name":"RequestFulfilled","type":"event"},{"anonymous":false,"inputs":[{"indexed":false,"internalType":"uint256","name":"requestId","type":"uint256"},{"indexed":false,"internalType":"uint32","name":"numWords","type":"uint32"}],"name":"RequestSent","type":"event"},{"anonymous":false,"inputs":[{"indexed":true,"internalType":"bytes32","name":"role","type":"bytes32"},{"indexed":true,"internalType":"bytes32","name":"previousAdminRole","type":"bytes32"},{"indexed":true,"internalType":"bytes32","name":"newAdminRole","type":"bytes32"}],"name":"RoleAdminChanged","type":"event"},{"anonymous":false,"inputs":[{"indexed":true,"internalType":"bytes32","name":"role","type":"bytes32"},{"indexed":true,"internalType":"address","name":"account","type":"address"},{"indexed":true,"internalType":"address","name":"sender","type":"address"}],"name":"RoleGranted","type":"event"},{"anonymous":false,"inputs":[{"indexed":true,"internalType":"bytes32","name":"role","type":"bytes32"},{"indexed":true,"internalType":"address","name":"account","type":"address"},{"indexed":true,"internalType":"address","name":"sender","type":"address"}],"name":"RoleRevoked","type":"event"},{"anonymous":false,"inputs":[{"indexed":true,"internalType":"address","name":"from","type":"address"},{"indexed":true,"internalType":"address","name":"to","type":"address"},{"indexed":false,"internalType":"uint256","name":"value","type":"uint256"}],"name":"Transfer","type":"event"},{"anonymous":false,"inputs":[{"indexed":true,"internalType":"address","name":"user","type":"address"},{"indexed":false,"internalType":"uint256","name":"amount","type":"uint256"}],"name":"_claim","type":"event"},{"inputs":[],"name":"ADMIN_ROLE","outputs":[{"internalType":"bytes32","name":"","type":"bytes32"}],"stateMutability":"view","type":"function"},{"inputs":[],"name":"DEFAULT_ADMIN_ROLE","outputs":[{"internalType":"bytes32","name":"","type":"bytes32"}],"stateMutability":"view","type":"function"},{"inputs":[],"name":"MarketingWallet","outputs":[{"internalType":"address","name":"","type":"address"}],"stateMutability":"view","type":"function"},{"inputs":[{"internalType":"address","name":"holder","type":"address"},{"internalType":"address","name":"spender","type":"address"}],"name":"allowance","outputs":[{"internalType":"uint256","name":"","type":"uint256"}],"stateMutability":"view","type":"function"},{"inputs":[],"name":"amountOfAllInfection","outputs":[{"internalType":"uint256","name":"","type":"uint256"}],"stateMutability":"view","type":"function"},{"inputs":[{"internalType":"address","name":"","type":"address"}],"name":"amountOfInfection","outputs":[{"internalType":"uint256","name":"","type":"uint256"}],"stateMutability":"view","type":"function"},{"inputs":[{"internalType":"address","name":"spender","type":"address"},{"internalType":"uint256","name":"amount","type":"uint256"}],"name":"approve","outputs":[{"internalType":"bool","name":"","type":"bool"}],"stateMutability":"nonpayable","type":"function"},{"inputs":[{"internalType":"address","name":"spender","type":"address"}],"name":"approveMax","outputs":[{"internalType":"bool","name":"","type":"bool"}],"stateMutability":"nonpayable","type":"function"},{"inputs":[{"internalType":"address","name":"account","type":"address"}],"name":"balanceOf","outputs":[{"internalType":"uint256","name":"","type":"uint256"}],"stateMutability":"view","type":"function"},{"inputs":[],"name":"buyCapsule","outputs":[],"stateMutability":"nonpayable","type":"function"},{"inputs":[],"name":"capsuleCount","outputs":[{"internalType":"uint256","name":"","type":"uint256"}],"stateMutability":"view","type":"function"},{"inputs":[],"name":"capsuleCurrentCount","outputs":[{"internalType":"uint256","name":"","type":"uint256"}],"stateMutability":"view","type":"function"},{"inputs":[],"name":"capsulePrice","outputs":[{"internalType":"uint256","name":"","type":"uint256"}],"stateMutability":"view","type":"function"},{"inputs":[],"name":"claim","outputs":[],"stateMutability":"nonpayable","type":"function"},{"inputs":[],"name":"decimals","outputs":[{"internalType":"uint8","name":"","type":"uint8"}],"stateMutability":"pure","type":"function"},{"inputs":[],"name":"endGame","outputs":[],"stateMutability":"nonpayable","type":"function"},{"inputs":[],"name":"epochId","outputs":[{"internalType":"uint256","name":"","type":"uint256"}],"stateMutability":"view","type":"function"},{"inputs":[{"internalType":"uint256","name":"","type":"uint256"}],"name":"epochs","outputs":[{"internalType":"uint256","name":"id","type":"uint256"},{"internalType":"uint256","name":"startTime","type":"uint256"},{"internalType":"uint256","name":"endTime","type":"uint256"}],"stateMutability":"view","type":"function"},{"inputs":[],"name":"getBestInfectors","outputs":[{"internalType":"address[5]","name":"","type":"address[5]"}],"stateMutability":"view","type":"function"},{"inputs":[],"name":"getGotLuckyVaccine","outputs":[{"internalType":"address[]","name":"","type":"address[]"}],"stateMutability":"view","type":"function"},{"inputs":[{"internalType":"address","name":"user","type":"address"}],"name":"getHasOpenedCapsule","outputs":[{"internalType":"bool","name":"","type":"bool"}],"stateMutability":"view","type":"function"},{"inputs":[{"internalType":"address","name":"user","type":"address"}],"name":"getHasUpgrade","outputs":[{"internalType":"bool","name":"","type":"bool"}],"stateMutability":"view","type":"function"},{"inputs":[{"internalType":"address","name":"user","type":"address"}],"name":"getIsBuyer","outputs":[{"internalType":"bool","name":"","type":"bool"}],"stateMutability":"view","type":"function"},{"inputs":[{"internalType":"address","name":"user","type":"address"}],"name":"getRequestFullfilled","outputs":[{"internalType":"bool","name":"","type":"bool"}],"stateMutability":"view","type":"function"},{"inputs":[{"internalType":"bytes32","name":"role","type":"bytes32"}],"name":"getRoleAdmin","outputs":[{"internalType":"bytes32","name":"","type":"bytes32"}],"stateMutability":"view","type":"function"},{"inputs":[{"internalType":"bytes32","name":"role","type":"bytes32"},{"internalType":"address","name":"account","type":"address"}],"name":"grantRole","outputs":[],"stateMutability":"nonpayable","type":"function"},{"inputs":[{"internalType":"bytes32","name":"role","type":"bytes32"},{"internalType":"address","name":"account","type":"address"}],"name":"hasRole","outputs":[{"internalType":"bool","name":"","type":"bool"}],"stateMutability":"view","type":"function"},{"inputs":[{"internalType":"address","name":"_toInfect","type":"address"}],"name":"infect","outputs":[],"stateMutability":"nonpayable","type":"function"},{"inputs":[{"internalType":"address[]","name":"_toInfect","type":"address[]"}],"name":"infectOG","outputs":[],"stateMutability":"nonpayable","type":"function"},{"inputs":[{"internalType":"address","name":"","type":"address"}],"name":"infected","outputs":[{"internalType":"bool","name":"","type":"bool"}],"stateMutability":"view","type":"function"},{"inputs":[{"internalType":"address","name":"","type":"address"}],"name":"infecter","outputs":[{"internalType":"address","name":"","type":"address"}],"stateMutability":"view","type":"function"},{"inputs":[],"name":"isGameOver","outputs":[{"internalType":"bool","name":"","type":"bool"}],"stateMutability":"view","type":"function"},{"inputs":[],"name":"isGameStarted","outputs":[{"internalType":"bool","name":"","type":"bool"}],"stateMutability":"view","type":"function"},{"inputs":[],"name":"isTradingEnabled","outputs":[{"internalType":"bool","name":"","type":"bool"}],"stateMutability":"view","type":"function"},{"inputs":[],"name":"lastRequestId","outputs":[{"internalType":"uint256","name":"","type":"uint256"}],"stateMutability":"view","type":"function"},{"inputs":[],"name":"name","outputs":[{"internalType":"string","name":"","type":"string"}],"stateMutability":"view","type":"function"},{"inputs":[{"internalType":"address","name":"user","type":"address"}],"name":"openCapsule","outputs":[],"stateMutability":"nonpayable","type":"function"},{"inputs":[],"name":"owner","outputs":[{"internalType":"address","name":"","type":"address"}],"stateMutability":"view","type":"function"},{"inputs":[],"name":"pair","outputs":[{"internalType":"address","name":"","type":"address"}],"stateMutability":"view","type":"function"},{"inputs":[{"internalType":"address","name":"","type":"address"}],"name":"pendingRewards","outputs":[{"internalType":"uint256","name":"","type":"uint256"}],"stateMutability":"view","type":"function"},{"inputs":[{"internalType":"uint256","name":"requestId","type":"uint256"},{"internalType":"uint256[]","name":"randomWords","type":"uint256[]"}],"name":"rawFulfillRandomWords","outputs":[],"stateMutability":"nonpayable","type":"function"},{"inputs":[],"name":"renounceOwnership","outputs":[],"stateMutability":"nonpayable","type":"function"},{"inputs":[{"internalType":"bytes32","name":"role","type":"bytes32"},{"internalType":"address","name":"callerConfirmation","type":"address"}],"name":"renounceRole","outputs":[],"stateMutability":"nonpayable","type":"function"},{"inputs":[{"internalType":"uint256","name":"","type":"uint256"}],"name":"requestIds","outputs":[{"internalType":"uint256","name":"","type":"uint256"}],"stateMutability":"view","type":"function"},{"inputs":[{"internalType":"bytes32","name":"role","type":"bytes32"},{"internalType":"address","name":"account","type":"address"}],"name":"revokeRole","outputs":[],"stateMutability":"nonpayable","type":"function"},{"inputs":[],"name":"router","outputs":[{"internalType":"contract IUniswapV2Router02","name":"","type":"address"}],"stateMutability":"view","type":"function"},{"inputs":[{"internalType":"uint256","name":"_price","type":"uint256"}],"name":"setCapsulePrice","outputs":[],"stateMutability":"nonpayable","type":"function"},{"inputs":[{"internalType":"address","name":"_MarketingWallet","type":"address"}],"name":"setFeesWallet","outputs":[],"stateMutability":"nonpayable","type":"function"},{"inputs":[{"internalType":"address","name":"holder","type":"address"},{"internalType":"bool","name":"exempt","type":"bool"}],"name":"setIsFeeExempt","outputs":[],"stateMutability":"nonpayable","type":"function"},{"inputs":[],"name":"setIsTradingEnabled","outputs":[],"stateMutability":"nonpayable","type":"function"},{"inputs":[{"internalType":"address","name":"holder","type":"address"},{"internalType":"bool","name":"exempt","type":"bool"}],"name":"setIsWalletLimitExempt","outputs":[],"stateMutability":"nonpayable","type":"function"},{"inputs":[],"name":"setMaxWallet","outputs":[],"stateMutability":"nonpayable","type":"function"},{"inputs":[{"internalType":"uint256","name":"_range","type":"uint256"}],"name":"setProbabilityMaxRange","outputs":[],"stateMutability":"nonpayable","type":"function"},{"inputs":[{"internalType":"uint256","name":"_amount","type":"uint256"}],"name":"setSpecialVaccineSupply","outputs":[],"stateMutability":"nonpayable","type":"function"},{"inputs":[{"internalType":"bool","name":"_enabled","type":"bool"},{"internalType":"uint256","name":"_amount","type":"uint256"}],"name":"setSwapBackSettings","outputs":[],"stateMutability":"nonpayable","type":"function"},{"inputs":[{"internalType":"address","name":"pairaddr","type":"address"}],"name":"setSwapPair","outputs":[],"stateMutability":"nonpayable","type":"function"},{"inputs":[],"name":"startNewEpoch","outputs":[],"stateMutability":"nonpayable","type":"function"},{"inputs":[{"internalType":"bytes4","name":"interfaceId","type":"bytes4"}],"name":"supportsInterface","outputs":[{"internalType":"bool","name":"","type":"bool"}],"stateMutability":"view","type":"function"},{"inputs":[],"name":"swapEnabled","outputs":[{"internalType":"bool","name":"","type":"bool"}],"stateMutability":"view","type":"function"},{"inputs":[],"name":"symbol","outputs":[{"internalType":"string","name":"","type":"string"}],"stateMutability":"view","type":"function"},{"inputs":[],"name":"totalAllRewards","outputs":[{"internalType":"uint256","name":"","type":"uint256"}],"stateMutability":"view","type":"function"},{"inputs":[{"internalType":"address","name":"","type":"address"}],"name":"totalRewards","outputs":[{"internalType":"uint256","name":"","type":"uint256"}],"stateMutability":"view","type":"function"},{"inputs":[],"name":"totalSupply","outputs":[{"internalType":"uint256","name":"","type":"uint256"}],"stateMutability":"view","type":"function"},{"inputs":[{"internalType":"address","name":"recipient","type":"address"},{"internalType":"uint256","name":"amount","type":"uint256"}],"name":"transfer","outputs":[{"internalType":"bool","name":"","type":"bool"}],"stateMutability":"nonpayable","type":"function"},{"inputs":[{"internalType":"address","name":"sender","type":"address"},{"internalType":"address","name":"recipient","type":"address"},{"internalType":"uint256","name":"amount","type":"uint256"}],"name":"transferFrom","outputs":[{"internalType":"bool","name":"","type":"bool"}],"stateMutability":"nonpayable","type":"function"},{"inputs":[{"internalType":"address","name":"newOwner","type":"address"}],"name":"transferOwnership","outputs":[],"stateMutability":"nonpayable","type":"function"},{"inputs":[],"name":"upgradeVaccine","outputs":[],"stateMutability":"nonpayable","type":"function"},{"inputs":[{"internalType":"address","name":"","type":"address"}],"name":"userCurrentVaccine","outputs":[{"internalType":"uint256","name":"","type":"uint256"}],"stateMutability":"view","type":"function"},{"inputs":[{"internalType":"address","name":"","type":"address"}],"name":"userHasBoughtVaccine","outputs":[{"internalType":"bool","name":"","type":"bool"}],"stateMutability":"view","type":"function"},{"inputs":[],"name":"vaccineFourSupply","outputs":[{"internalType":"uint256","name":"","type":"uint256"}],"stateMutability":"view","type":"function"},{"inputs":[],"name":"vault","outputs":[{"internalType":"contract Vault","name":"","type":"address"}],"stateMutability":"view","type":"function"},{"stateMutability":"payable","type":"receive"}],"evm":{"bytecode":{"linkReferences":{},"object":"60e0604052600e60a09081526d109b1a59da1d08141c9bda9958dd60921b60c0526002906200002f9082620008cf565b5060408051808201909152600380825262424c4960e81b602083015290620000589082620008cf565b50620000676012600a62000aa4565b6200007790633b9aca0062000abb565b60045569d3c21bcecceda10000006005556103e8600454600a6200009c919062000abb565b620000a8919062000ad5565b600655600554620000bc9061025862000abb565b600b5560c8600c55600554620000d59061038462000abb565b600d5561012c600e5560108054733e98da13e184ea1467639bf642f804144539694d6001600160a01b03199182161790915560118054732ca8e0c643bde4c2e08ab1fa0da3401adad7734d9216919091179055601280546001600160e01b0319167537f32ca8e0c643bde4c2e08ab1fa0da3401adad7734d1790557f79d3d8832d904592c0bf9818b621522c988bb8b0c05cdc3b15aea1b6e8db0c15601555601680546001600160501b03191666010003000186a01790556019805461ffff60a01b19169055600454620001ad906103e89062000ad5565b620001ba90600362000abb565b601a5560646022555f6026555f6028555f6029556934f086f3b33b68400000602a555f602b555f602c555f602d555f602e555f602f555f6030555f6031555f603255600a60335560055460e562000212919062000abb565b603a55600554620002269061016562000abb565b603b556005546200023a9061020262000abb565b603c556005546200024e906102bc62000abb565b603d55600554620002629061039262000abb565b603e55600554620002769061048562000abb565b603f556040805461ffff1916905534801562000290575f80fd5b5060405162005bc538038062005bc5833981016040819052620002b39162000af5565b6011546001600160a01b039081169082908116620002ea57604051631e4fbdf760e01b81525f600482015260240160405180910390fd5b620002f5816200073e565b506001600160a01b0316608052601880546001600160a01b031916737a250d5630b4cf539739df2c5dacb4c659f2488d9081179091556040805163c45a015560e01b8152905163c45a0155916004808201926020929091908290030181865afa15801562000365573d5f803e3d5ffd5b505050506040513d601f19601f820116820180604052508101906200038b919062000af5565b6001600160a01b031663c9c6539660185f9054906101000a90046001600160a01b03166001600160a01b031663ad5c46486040518163ffffffff1660e01b8152600401602060405180830381865afa158015620003ea573d5f803e3d5ffd5b505050506040513d601f19601f8201168201806040525081019062000410919062000af5565b6040516001600160e01b031960e084901b1681526001600160a01b0390911660048201523060248201526044016020604051808303815f875af11580156200045a573d5f803e3d5ffd5b505050506040513d601f19601f8201168201806040525081019062000480919062000af5565b601980546001600160a01b0319166001600160a01b03928316179055305f90815260086020908152604080832060185490941683529290529081205f199055620004cb90826200078d565b50620004f87fa49807205ce4d355092ef5a8a18f56e8913cf4a201fbe287825b095693c21775826200078d565b503081604051620005099062000821565b6001600160a01b03928316815291166020820152604001604051809103905ff0801580156200053a573d5f803e3d5ffd5b50602180546001600160a01b0319166001600160a01b03928316178155335f818152600960209081526040808320805460ff199081166001908117909255308086528386208054831684179055601080548a1687528487208054841685179055878752600a8652848720805484168517905580548a16875284872080548416851790557f20677881080440a9b3c87e826370bb5d9c2f74efd4dede686d52d77a6a09f8bb805484168517905597548916865283862080548316841790558086528386208054831684179055601980548a16875284872080548416851790557fc90215bb1b0ac6bfa50a3c02c4b559c695b6a8e828048a88e327592fc55c5d2c8054841685179055878752601c8652848720805484168517905597548916865283862080548316841790557fa48bd8e7b1565515cde2859b6cc48308ba05b5325bcf90fb096b9ac0b8087dfc8054831684179055855282852080548216831790559554909616835280832080548616871790557fb1e2e88b6a3e9d36c6d6d48756ca9ed8312cfcb5a15208f81170ade3bd2b4a95805490951690951790935560045491815260079092529181208054909190620006f890849062000b1d565b909155505060045460405190815233905f907fddf252ad1be2c89b69c2b068fc378daa952ba7f163c4a11628f55a4df523b3ef9060200160405180910390a35062000b33565b5f80546001600160a01b038381166001600160a01b0319831681178455604051919092169283917f8be0079c531659141344cd1fd0a4f28419497f9722a3daafe3b4186f6b6457e09190a35050565b5f8281526001602090815260408083206001600160a01b038516845290915281205460ff1662000818575f8381526001602081815260408084206001600160a01b0387168086529252808420805460ff19169093179092559051339286917f2f8788117e7eff1d82e926ec794901d17c78024a50270940304540a733656f0d9190a45060016200081b565b505f5b92915050565b610862806200536383390190565b634e487b7160e01b5f52604160045260245ffd5b600181811c908216806200085857607f821691505b6020821081036200087757634e487b7160e01b5f52602260045260245ffd5b50919050565b601f821115620008ca575f81815260208120601f850160051c81016020861015620008a55750805b601f850160051c820191505b81811015620008c657828155600101620008b1565b5050505b505050565b81516001600160401b03811115620008eb57620008eb6200082f565b6200090381620008fc845462000843565b846200087d565b602080601f83116001811462000939575f8415620009215750858301515b5f19600386901b1c1916600185901b178555620008c6565b5f85815260208120601f198616915b82811015620009695788860151825594840194600190910190840162000948565b50858210156200098757878501515f19600388901b60f8161c191681555b5050505050600190811b01905550565b634e487b7160e01b5f52601160045260245ffd5b600181815b80851115620009eb57815f1904821115620009cf57620009cf62000997565b80851615620009dd57918102915b93841c9390800290620009b0565b509250929050565b5f8262000a03575060016200081b565b8162000a1157505f6200081b565b816001811462000a2a576002811462000a355762000a55565b60019150506200081b565b60ff84111562000a495762000a4962000997565b50506001821b6200081b565b5060208310610133831016604e8410600b841016171562000a7a575081810a6200081b565b62000a868383620009ab565b805f190482111562000a9c5762000a9c62000997565b029392505050565b5f62000ab460ff841683620009f3565b9392505050565b80820281158282048414176200081b576200081b62000997565b5f8262000af057634e487b7160e01b5f52601260045260245ffd5b500490565b5f6020828403121562000b06575f80fd5b81516001600160a01b038116811462000ab4575f80fd5b808201808211156200081b576200081b62000997565b60805161481062000b535f395f81816115cd015261160f01526148105ff3fe608060405260043610610402575f3560e01c8063658d4b7f11610215578063ab7573dd1161011e578063df20fd49116100a8578063f887ea4011610078578063f887ea4014610cce578063fbfa77cf14610ced578063fc2a88c314610d0c578063fd39ef7814610d21578063fd6e28cf14610d40575f80fd5b8063df20fd4914610c52578063f25c7ea414610c71578063f2fde38b14610c90578063f5415cbb14610caf575f80fd5b8063c6b61e4c116100ee578063c6b61e4c14610b72578063d02c639414610bc7578063d3a9ffc414610bdb578063d547741f14610bef578063dd62ed3e14610c0e575f80fd5b8063ab7573dd14610af8578063c26d68f914610b23578063c315432a14610b44578063c3ec889714610b5d575f80fd5b80638c5799ce1161019f57806396eb64a91161016f57806396eb64a914610a73578063a217fddf14610a92578063a8aa1b3114610aa5578063a9059cbb14610ac4578063aa9bbc0c14610ae3575f80fd5b80638c5799ce146109f65780638da5cb5b14610a2457806391d1485414610a4057806395d89b4114610a5f575f80fd5b806370a08231116101e557806370a0823114610965578063715018a61461098457806373a432bb1461099857806375b238fc146109b75780638796ba8c146109d7575f80fd5b8063658d4b7f146108f15780636789c92c146109105780636cbc2ded146109315780636ddd171314610945575f80fd5b80632198cf6c116103175780633eca5343116102a15780635119c971116102715780635119c9711461084f57806354d41b5b14610864578063571ac8b01461088f5780635bc04469146108ae578063636ee0db146108c3575f80fd5b80633eca5343146107d357806343d4f92b146108075780634726319f146108265780634e71d92d1461083b575f80fd5b80632f2ff15d116102e75780632f2ff15d1461073b578063313ce5671461075a57806331d7a2621461077557806336568abe146107a05780633aab0a62146107bf575f80fd5b80632198cf6c1461069757806323b872dd146106b6578063248a9ca3146106d55780632598cdb214610704575f80fd5b80630e04a7d81161039857806318160ddd1161036857806318160ddd14610627578063196228c01461063b5780631bd8ebe11461064f5780631ce78ac8146106645780631fe543e314610678575f80fd5b80630e04a7d8146105775780630f44e894146105955780631299d7f7146105bf5780631781e17c146105de575f80fd5b806305dc0394116103d357806305dc0394146104f4578063064a59d01461051757806306fdde0314610537578063095ea7b314610558575f80fd5b80627f27ae1461040d578063014c58a31461042e57806301ffc9a71461048c57806302b2553e146104ab575f80fd5b3661040957005b5f80fd5b348015610418575f80fd5b5061042c610427366004614151565b610d89565b005b348015610439575f80fd5b50610477610448366004614151565b6026545f9081526027602090815260408083206001600160a01b03909416835260049093019052205460ff1690565b60405190151581526020015b60405180910390f35b348015610497575f80fd5b506104776104a636600461416c565b611124565b3480156104b6575f80fd5b506104776104c5366004614151565b6026545f9081526027602090815260408083206001600160a01b03909416835260059093019052205460ff1690565b3480156104ff575f80fd5b5061050960295481565b604051908152602001610483565b348015610522575f80fd5b5060195461047790600160a01b900460ff1681565b348015610542575f80fd5b5061054b61115a565b6040516104839190614193565b348015610563575f80fd5b506104776105723660046141de565b6111ea565b348015610582575f80fd5b5060405461047790610100900460ff1681565b3480156105a0575f80fd5b506105096105af366004614151565b602080525f908152604090205481565b3480156105ca575f80fd5b5061042c6105d9366004614208565b611255565b3480156105e9575f80fd5b506104776105f8366004614151565b6026545f9081526027602090815260408083206001600160a01b03909416835260089093019052205460ff1690565b348015610632575f80fd5b50600454610509565b348015610646575f80fd5b5061042c611272565b34801561065a575f80fd5b5061050960285481565b34801561066f575f80fd5b5061042c61158c565b348015610683575f80fd5b5061042c610692366004614287565b6115c2565b3480156106a2575f80fd5b5061042c6106b1366004614338565b611646565b3480156106c1575f80fd5b506104776106d036600461436b565b611678565b3480156106e0575f80fd5b506105096106ef366004614208565b5f908152600160208190526040909120015490565b34801561070f575f80fd5b50601054610723906001600160a01b031681565b6040516001600160a01b039091168152602001610483565b348015610746575f80fd5b5061042c6107553660046143a9565b61174b565b348015610765575f80fd5b5060405160128152602001610483565b348015610780575f80fd5b5061050961078f366004614151565b601f6020525f908152604090205481565b3480156107ab575f80fd5b5061042c6107ba3660046143a9565b611776565b3480156107ca575f80fd5b5061042c6117ae565b3480156107de575f80fd5b506107236107ed366004614151565b601d6020525f90815260409020546001600160a01b031681565b348015610812575f80fd5b5061042c610821366004614151565b611833565b348015610831575f80fd5b5061050960335481565b348015610846575f80fd5b5061042c611893565b34801561085a575f80fd5b5061050960425481565b34801561086f575f80fd5b5061050961087e366004614151565b60236020525f908152604090205481565b34801561089a575f80fd5b506104776108a9366004614151565b611a8f565b3480156108b9575f80fd5b50610509602a5481565b3480156108ce575f80fd5b506104776108dd366004614151565b601c6020525f908152604090205460ff1681565b3480156108fc575f80fd5b5061042c61090b366004614338565b611a9b565b34801561091b575f80fd5b50610924611acd565b6040516104839190614419565b34801561093c575f80fd5b5061042c611b39565b348015610950575f80fd5b5060195461047790600160a81b900460ff1681565b348015610970575f80fd5b5061050961097f366004614151565b611c8e565b34801561098f575f80fd5b5061042c611ca8565b3480156109a3575f80fd5b5061042c6109b2366004614151565b611cb9565b3480156109c2575f80fd5b506105095f805160206147bb83398151915281565b3480156109e2575f80fd5b506105096109f1366004614208565b611cfa565b348015610a01575f80fd5b50610477610a10366004614151565b60246020525f908152604090205460ff1681565b348015610a2f575f80fd5b505f546001600160a01b0316610723565b348015610a4b575f80fd5b50610477610a5a3660046143a9565b611d19565b348015610a6a575f80fd5b5061054b611d43565b348015610a7e575f80fd5b5061042c610a8d366004614151565b611d52565b348015610a9d575f80fd5b506105095f81565b348015610ab0575f80fd5b50601954610723906001600160a01b031681565b348015610acf575f80fd5b50610477610ade3660046141de565b611ede565b348015610aee575f80fd5b5061050960265481565b348015610b03575f80fd5b50610509610b12366004614151565b601e6020525f908152604090205481565b348015610b2e575f80fd5b50610b37611f0f565b604051610483919061442b565b348015610b4f575f80fd5b506040546104779060ff1681565b348015610b68575f80fd5b5061050960435481565b348015610b7d575f80fd5b50610bac610b8c366004614208565b60276020525f908152604090208054600182015460029092015490919083565b60408051938452602084019290925290820152606001610483565b348015610bd2575f80fd5b5061042c611f4e565b348015610be6575f80fd5b5061042c611f5e565b348015610bfa575f80fd5b5061042c610c093660046143a9565b612300565b348015610c19575f80fd5b50610509610c28366004614464565b6001600160a01b039182165f90815260086020908152604080832093909416825291909152205490565b348015610c5d575f80fd5b5061042c610c6c366004614490565b612325565b348015610c7c575f80fd5b5061042c610c8b366004614208565b6123a0565b348015610c9b575f80fd5b5061042c610caa366004614151565b612423565b348015610cba575f80fd5b5061042c610cc93660046144aa565b61245d565b348015610cd9575f80fd5b50601854610723906001600160a01b031681565b348015610cf8575f80fd5b50602154610723906001600160a01b031681565b348015610d17575f80fd5b5061050960145481565b348015610d2c575f80fd5b5061042c610d3b366004614208565b6126b3565b348015610d4b575f80fd5b50610477610d5a366004614151565b6026545f9081526027602090815260408083206001600160a01b03909416835260039093019052205460ff1690565b6001600160a01b0381163314610dd75760405162461bcd60e51b815260206004820152600e60248201526d139bdd08185d5d1a1bdc9a5e995960921b60448201526064015b60405180910390fd5b6026545f908152602760205260409020600201544210610e095760405162461bcd60e51b8152600401610dce9061453f565b6026545f9081526027602090815260408083203384526007019091528120549003610e8d5760405162461bcd60e51b815260206004820152602e60248201527f596f7520686176656e277420626f7567687420612063617073756c652064757260448201526d0d2dcce40e8d0d2e640cae0dec6d60931b6064820152608401610dce565b6026545f90815260276020908152604080832033845260050190915290205460ff1615610f075760405162461bcd60e51b815260206004820152602260248201527f596f7527766520616c7265616479206f70656e656420796f75722063617073756044820152616c6560f01b6064820152608401610dce565b6026545f90815260276020908152604080832033845260080190915290205460ff161515600114610f8a5760405162461bcd60e51b815260206004820152602760248201527f596f75722072657175657374206861736e2774206265656e2066756c6c66696c6044820152661b1959081e595d60ca1b6064820152608401610dce565b6026545f908152602760209081526040808320338452600701909152812054610fb2906126d0565b905060018110158015610fc6575060288111155b1561100357602f8054905f610fda83614597565b9091555050602b8054905f610fee83614597565b9190505550610fff8260015f61280f565b5050565b602981101580156110155750604b8111155b1561104e5760308054905f61102983614597565b9091555050602c8054905f61103d83614597565b9190505550610fff8260025f61280f565b604c8110158015611060575060618111155b156110995760318054905f61107483614597565b9091555050602d8054905f61108883614597565b9190505550610fff8260035f61280f565b606281101580156110ac57506022548111155b15610fff5760328054905f6110c083614597565b9091555050602e8054905f6110d483614597565b90915550506026545f9081526027602090815260408220600901805460018082018355918452919092200180546001600160a01b0319166001600160a01b038516179055610fff9083908061280f565b5f6001600160e01b03198216637965db0b60e01b148061115457506301ffc9a760e01b6001600160e01b03198316145b92915050565b606060028054611169906145af565b80601f0160208091040260200160405190810160405280929190818152602001828054611195906145af565b80156111e05780601f106111b7576101008083540402835291602001916111e0565b820191905f5260205f20905b8154815290600101906020018083116111c357829003601f168201915b5050505050905090565b335f8181526008602090815260408083206001600160a01b038716808552925280832085905551919290917f8c5be1e5ebec7d5bd14f71427d1e84f3dd0314c0f7b2291e5b200ac8c7c3b925906112449086815260200190565b60405180910390a350600192915050565b5f805160206147bb83398151915261126c81612908565b50602a55565b5f6103e8602a546102ee61128691906145e1565b611290919061460c565b6026545f90815260276020908152604080832033845260030190915290205490915060ff161561131e5760405162461bcd60e51b815260206004820152603360248201527f596f752068617665206f6e6c79206f6e6520616374696f6e207065722065706f6044820152726368203a20627579206f72207570677261646560681b6064820152608401610dce565b6026545f90815260276020908152604080832033845260040190915290205460ff16156113ac5760405162461bcd60e51b815260206004820152603660248201527f596f7527766520616c726561647920757067726164656420796f7572207661636044820152750c6d2dcca40c8eae4d2dcce40e8d0d2e640cae0dec6d60531b6064820152608401610dce565b335f90815260236020526040902054158015906113d75750335f908152602360205260409020546003115b61142f5760405162461bcd60e51b815260206004820152602360248201527f596f7520646f6e2774206861766520612076616363696e6520746f207570677260448201526261646560e81b6064820152608401610dce565b8061143933611c8e565b10156114995760405162461bcd60e51b815260206004820152602960248201527f4e6f7420656e6f75676820746f6b656e7320746f207570677261646520796f75604482015268722076616363696e6560b81b6064820152608401610dce565b6026545f9081526027602052604090206002015442106114cb5760405162461bcd60e51b8152600401610dce9061453f565b604054610100900460ff16156114f35760405162461bcd60e51b8152600401610dce9061461f565b6026545f9081526027602090815260408083203384526004019091528120805460ff191660011790556103e861152a8360326145e1565b611534919061460c565b6021549091505f9061155a9033906001600160a01b03166115558587614645565b612912565b9050611567333084612912565b50335f90815260236020526040812080549161158283614597565b9190505550505050565b6115946129b6565b6019805461ffff60a01b191661010160a01b179081905560ff600160a01b90910416156115c057426049555b565b336001600160a01b037f0000000000000000000000000000000000000000000000000000000000000000161461163c5760405163073e64fd60e21b81523360048201526001600160a01b037f0000000000000000000000000000000000000000000000000000000000000000166024820152604401610dce565b610fff82826129e2565b61164e6129b6565b6001600160a01b03919091165f908152600a60205260409020805460ff1916911515919091179055565b6001600160a01b0383165f9081526008602090815260408083203384529091528120548211156116fb5760405162461bcd60e51b815260206004820152602860248201527f45524332303a207472616e7366657220616d6f756e74206578636565647320616044820152676c6c6f77616e636560c01b6064820152608401610dce565b611706848484612ae5565b506001600160a01b0384165f9081526008602090815260408083203380855292529091205461174191869161173c908690614645565b612ed5565b5060019392505050565b5f828152600160208190526040909120015461176681612908565b6117708383612ff8565b50505050565b6001600160a01b038116331461179f5760405163334bd91960e11b815260040160405180910390fd5b6117a9828261306e565b505050565b5f805160206147bb8339815191526117c581612908565b604054610100900460ff16156117ed5760405162461bcd60e51b8152600401610dce9061461f565b6117f56130d9565b7fa7ef457c4bdaa5cf9805314ebb0d85316230de6508df8ba03db8e27901cc147d60265460405161182891815260200190565b60405180910390a150565b61183b6129b6565b601080546001600160a01b0319166001600160a01b0392831690811782555f908152600960209081526040808320805460ff19908116600190811790925594549095168352600a909152902080549091169091179055565b3332146118ca5760405162461bcd60e51b815260206004820152600560248201526432b93937b960d91b6044820152606401610dce565b335f908152601f602052604090205461191a5760405162461bcd60e51b81526020600482015260126024820152716e6f2070656e64696e67207265776172647360701b6044820152606401610dce565b335f908152601f6020908152604082208054908390556001835260279091527fb6915e519d5f9dd23c62986e48578ddfa8cde5c92608222904fd87ad04df4fff5490919042101561198b5760646119728360196145e1565b61197c919061460c565b90506119888183614645565b91505b80156119ab576021546119a99030906001600160a01b031683612912565b505b5f6119b7303385612912565b9050806119f85760405162461bcd60e51b815260206004820152600f60248201526e1d1c985b9cd9995c8819985a5b1959608a1b6044820152606401610dce565b335f908152601e602052604081208054859290611a16908490614658565b925050819055508260425f828254611a2e9190614658565b925050819055508260415f828254611a469190614645565b90915550611a5490506132a2565b60405183815233907f620fc7379f7c67f4289f23e24a7f28f721792b0e898e2af03581b2e73e604a53906020015b60405180910390a2505050565b5f611154825f196111ea565b611aa36129b6565b6001600160a01b03919091165f908152600960205260409020805460ff1916911515919091179055565b6026545f908152602760209081526040918290206009018054835181840281018401909452808452606093928301828280156111e057602002820191905f5260205f20905b81546001600160a01b03168152600190910190602001808311611b12575050505050905090565b5f805160206147bb833981519152611b5081612908565b604954611b609062093a80614658565b421015611ba45760405162461bcd60e51b815260206004820152601260248201527143616e277420656e64207468652067616d6560701b6044820152606401610dce565b604054610100900460ff1615611bf35760405162461bcd60e51b815260206004820152601460248201527323b0b6b29034b99030b63932b0b23c9037bb32b960611b6044820152606401610dce565b6040805461ff0019166101001781556026545f9081526027602052206009015415611c8b576021546026545f9081526027602052604090819020905163f25addf560e01b81526001600160a01b039092169163f25addf591611c5d9160099091019060040161466b565b5f604051808303815f87803b158015611c74575f80fd5b505af1158015611c86573d5f803e3d5ffd5b505050505b50565b6001600160a01b03165f9081526007602052604090205490565b611cb06129b6565b6115c05f613495565b611cc16129b6565b601980546001600160a01b039092166001600160a01b0319909216821790555f908152600a60205260409020805460ff19166001179055565b60138181548110611d09575f80fd5b5f91825260209091200154905081565b5f9182526001602090815260408084206001600160a01b0393909316845291905290205460ff1690565b606060038054611169906145af565b6001600160a01b0381165f908152601c602052604090205460ff1615611dad5760405162461bcd60e51b815260206004820152601060248201526f105b1c9958591e481a5b999958dd195960821b6044820152606401610dce565b6001611db833611c8e565b1015611e065760405162461bcd60e51b815260206004820152601b60248201527f4e6f7420656e6f75676820746f6b656e7320746f20696e6665637400000000006044820152606401610dce565b335f908152601c602052604090205460ff161515600114611e5f5760405162461bcd60e51b8152602060048201526013602482015272165bdd49dc99481b9bdd081a5b999958dd1959606a1b6044820152606401610dce565b6001600160a01b0381165f908152601d6020908152604080832080546001600160a01b03191633908117909155601c8352818420805460ff1916600117905583529080528120805491611eb183614597565b909155505060438054905f611ec583614597565b91905055505f6117a93383670de0b6b3a7640000612912565b6019545f906001600160a01b03163303611f0457611efd338484612ae5565b9050611154565b611efd338484612912565b611f1761407a565b6040805160a0810191829052604480546001600160a01b031682529091600590604560208501808311611b12575050505050905090565b611f566129b6565b600454600655565b602a54335f908152601c602052604090205460ff16611fb65760405162461bcd60e51b8152602060048201526014602482015273165bdd48185c99481b9bdd081a5b999958dd195960621b6044820152606401610dce565b60405460ff166120085760405162461bcd60e51b815260206004820152601760248201527f47616d65206973206e6f742073746172746564207965740000000000000000006044820152606401610dce565b604054610100900460ff16156120305760405162461bcd60e51b8152600401610dce9061461f565b8061203a33611c8e565b10156120935760405162461bcd60e51b815260206004820152602260248201527f4e6f7420656e6f75676820746f6b656e7320746f2062757920612063617073756044820152616c6560f01b6064820152608401610dce565b6026545f9081526027602052604090206002015442106120c55760405162461bcd60e51b8152600401610dce9061453f565b6026545f90815260276020908152604080832033845260030190915290205460ff161561214e5760405162461bcd60e51b815260206004820152603160248201527f596f7527766520616c726561647920626f7567687420612063617073756c65206044820152700c8eae4d2dcce40e8d0d2e640cae0dec6d607b1b6064820152608401610dce565b6026545f90815260276020908152604080832033845260040190915290205460ff16156121d95760405162461bcd60e51b815260206004820152603360248201527f596f75206f6e6c792068617665206f6e6520616374696f6e207065722065706f6044820152726368203a20627579206f72207570677261646560681b6064820152608401610dce565b60298054905f6121e883614597565b909155505060288054905f6121fc83614597565b90915550506026545f9081526027602090815260408083203384526003019091528120805460ff191660011790556103e86122388360c86145e1565b612242919061460c565b90506122513361dead83612912565b506021545f906122709033906001600160a01b03166115558587614645565b90505f61227b6134e4565b602680545f908152602760208181526040808420868552600601825280842080546001600160a01b03191633908117909155945484529181528183208484526007018152918190208490555183815292935090917f56e18f08766f396148d5b13331a86d9ce4ea3d9c08821cf829ccf881a6fff8bf910160405180910390a250505050565b5f828152600160208190526040909120015461231b81612908565b611770838361306e565b61232d6129b6565b600181101561237e5760405162461bcd60e51b815260206004820152601f60248201527f43616e27742073657420537761705468726573686f6c6420746f205a45524f006044820152606401610dce565b60198054921515600160a81b0260ff60a81b1990931692909217909155601a55565b5f805160206147bb8339815191526123b781612908565b602e5482101561241d5760405162461bcd60e51b815260206004820152602b60248201527f43616e2774207265647563652076616363696e6520737570706c79206475726960448201526a0dcce40c2dc40cae0dec6d60ab1b6064820152608401610dce565b50603355565b61242b6129b6565b6001600160a01b03811661245457604051631e4fbdf760e01b81525f6004820152602401610dce565b611c8b81613495565b6124656129b6565b5f5b8151811015610fff57601c5f838381518110612485576124856146ba565b6020908102919091018101516001600160a01b031682528101919091526040015f205460ff16156124eb5760405162461bcd60e51b815260206004820152601060248201526f105b1c9958591e481a5b999958dd195960821b6044820152606401610dce565b60016124f633611c8e565b10156125445760405162461bcd60e51b815260206004820152601b60248201527f6e6f7420656e6f75676820746f6b656e7320746f20696e6665637400000000006044820152606401610dce565b335f908152601c602052604090205460ff1615156001146125965760405162461bcd60e51b815260206004820152600c60248201526b1b9bdd081a5b999958dd195960a21b6044820152606401610dce565b33601d5f8484815181106125ac576125ac6146ba565b60200260200101516001600160a01b03166001600160a01b031681526020019081526020015f205f6101000a8154816001600160a01b0302191690836001600160a01b031602179055506001601c5f84848151811061260d5761260d6146ba565b6020908102919091018101516001600160a01b031682528181019290925260409081015f908120805460ff191694151594909417909355338352908052812080549161265883614597565b909155505060438054905f61266c83614597565b91905055505f61269e33848481518110612688576126886146ba565b6020026020010151670de0b6b3a7640000612912565b508190506126ab81614597565b915050612467565b5f805160206147bb8339815191526126ca81612908565b50602255565b5f81815260176020526040812054610100900460ff166127265760405162461bcd60e51b81526020600482015260116024820152701c995c5d595cdd081b9bdd08199bdd5b99607a1b6044820152606401610dce565b5f8281526017602090815260408083208151606081018352815460ff808216151583526101009091041615158185015260018201805484518187028101870186528181529295939486019383018282801561279e57602002820191905f5260205f20905b81548152602001906001019080831161278a575b5050505050815250509050603354602e54106127f057606181604001515f815181106127cc576127cc6146ba565b60200260200101516127de91906146ce565b6127e9906001614658565b9392505050565b60225481604001515f815181106127cc576127cc6146ba565b50919050565b6001600160a01b0383165f9081526024602052604090205460ff16612891576025805460018082019092557f401968ff42a154441da5f6c4c935ac46b8671f0e062baaa62a7545ba53bb6e4c0180546001600160a01b0319166001600160a01b0386169081179091555f908152602460205260409020805460ff191690911790555b6001600160a01b0383165f818152602360209081526040808320869055602654835260278252808320848452600501825291829020805460ff191660011790558151858152841515918101919091527fc05909672b3730633581d6cf7b807382b3572d7805ace294b8d4b3558c5cc7ff9101611a82565b611c8b813361369a565b6001600160a01b0383165f90815260076020526040812054612935908390614645565b6001600160a01b038086165f908152600760205260408082209390935590851681522054612964908390614658565b6001600160a01b038085165f8181526007602052604090819020939093559151908616905f8051602061479b833981519152906129a49086815260200190565b60405180910390a35060019392505050565b5f546001600160a01b031633146115c05760405163118cdaa760e01b8152336004820152602401610dce565b5f82815260176020526040902054610100900460ff16612a385760405162461bcd60e51b81526020600482015260116024820152701c995c5d595cdd081b9bdd08199bdd5b99607a1b6044820152606401610dce565b5f828152601760209081526040909120805460ff1916600190811782558351612a68939290910191840190614098565b506026545f908152602760209081526040808320858452600681018352818420546001600160a01b0316845260080190915290819020805460ff19166001179055517ffe2e2d779dba245964d4e3ef9b994be63856fd568bf7d3ca9e224755cb1bd54d90612ad990849084906146e1565b60405180910390a15050565b6001600160a01b0383165f9081526009602052604081205460ff1680612b2257506001600160a01b0383165f9081526009602052604090205460ff165b80612b365750601954600160a01b900460ff165b612b825760405162461bcd60e51b815260206004820152601b60248201527f4e6f7420617574686f72697a656420746f2074726164652079657400000000006044820152606401610dce565b6019546001600160a01b03848116911614612bed576001600160a01b0383165f908152601c602052604090205460ff16612bed5760405162461bcd60e51b815260206004820152600c60248201526b139bdd081a5b999958dd195960a21b6044820152606401610dce565b604054610100900460ff168015612c1257506019546001600160a01b03848116911614155b15612ca157612c2e5f805160206147bb83398151915285611d19565b80612c4b5750612c4b5f805160206147bb83398151915284611d19565b612ca15760405162461bcd60e51b815260206004820152602160248201527f47616d65206973206f7665722c206f6e6c792061646d696e732063616e2062756044820152607960f81b6064820152608401610dce565b5f546001600160a01b03858116911614801590612ccb57505f546001600160a01b03848116911614155b8015612ce257506001600160a01b03831661dead14155b15612da6576019546001600160a01b03848116911614612da6576001600160a01b0383165f908152600a602052604090205460ff1680612d4657506006546001600160a01b0384165f90815260076020526040902054612d43908490614658565b11155b612da65760405162461bcd60e51b815260206004820152602b60248201527f5472616e7366657220616d6f756e74206578636565647320746865204d61785760448201526a30b63632ba1039b4bd329760a91b6064820152608401610dce565b612dae6136d3565b8015612dc757506019546001600160a01b038481169116145b15612dd457612dd4613730565b6001600160a01b0384165f90815260076020526040902054612df7908390614645565b6001600160a01b0385165f90815260076020908152604080832093909355600990529081205460ff16151580612e4657506001600160a01b0384165f9081526009602052604090205460ff1615155b612e5a57612e55858585613908565b612e5c565b825b6001600160a01b0385165f90815260076020526040902054909150612e82908290614658565b6001600160a01b038086165f8181526007602052604090819020939093559151908716905f8051602061479b83398151915290612ec29085815260200190565b60405180910390a3506001949350505050565b6001600160a01b038316612f375760405162461bcd60e51b8152602060048201526024808201527f45524332303a20617070726f76652066726f6d20746865207a65726f206164646044820152637265737360e01b6064820152608401610dce565b6001600160a01b038216612f985760405162461bcd60e51b815260206004820152602260248201527f45524332303a20617070726f766520746f20746865207a65726f206164647265604482015261737360f01b6064820152608401610dce565b6001600160a01b038381165f8181526008602090815260408083209487168084529482529182902085905590518481527f8c5be1e5ebec7d5bd14f71427d1e84f3dd0314c0f7b2291e5b200ac8c7c3b925910160405180910390a3505050565b5f6130038383611d19565b613067575f8381526001602081815260408084206001600160a01b0387168086529252808420805460ff19169093179092559051339286917f2f8788117e7eff1d82e926ec794901d17c78024a50270940304540a733656f0d9190a4506001611154565b505f611154565b5f6130798383611d19565b15613067575f8381526001602090815260408083206001600160a01b0386168085529252808320805460ff1916905551339286917ff6391f5c32d9c69d2a47ea670b442974b53935d1edc7fd64eb21e047a839171b9190a4506001611154565b6026545f9081526027602052604090206009015415613165576021546026545f9081526027602052604090819020905163f25addf560e01b81526001600160a01b039092169163f25addf5916131379160099091019060040161466b565b5f604051808303815f87803b15801561314e575f80fd5b505af1158015613160573d5f803e3d5ffd5b505050505b60268054905f61317483614597565b90915550506026545f8181526027602052604090209081554260019091018190556131a29062014370614658565b6026545f90815260276020526040812060020191909155602b819055602c819055602d819055602e81905560288190555b602554811015613281575f60235f602584815481106131f4576131f46146ba565b5f9182526020808320909101546001600160a01b03168352820192909252604001902054111561326f57600160235f60258481548110613236576132366146ba565b5f9182526020808320909101546001600160a01b0316835282019290925260400181208054909190613269908490614645565b90915550505b8061327981614597565b9150506131d3565b5060405460ff1661329a576040805460ff191660011790555b6115c0613da0565b336132ab61407a565b6132b361407a565b5f805b600581101561331957601e5f604483600581106132d5576132d56146ba565b01546001600160a01b0316815260208101919091526040015f2054848260058110613302576133026146ba565b60200201528061331181614597565b9150506132b6565b505f5b600581101561336857846001600160a01b031660448260058110613342576133426146ba565b01546001600160a01b031603613356578091505b8061336081614597565b91505061331c565b506001600160a01b0384165f908152601e6020526040902054835110801561339b575061339760016005614645565b8114155b1561177057805f036133b4576001600160a01b03841682525b5f6133c0826001614658565b90505b6005811015613487576001600160a01b0385165f908152601e60205260409020548482600581106133f6576133f66146ba565b602002015110156134755760448160058110613414576134146146ba565b01546001600160a01b03168361342b600184614645565b6005811061343b5761343b6146ba565b6001600160a01b03909216602092909202015284838260058110613461576134616146ba565b6001600160a01b0390921660209290920201525b8061347f81614597565b9150506133c3565b50611c8660448360056140e1565b5f80546001600160a01b038381166001600160a01b0319831681178455604051919092169283917f8be0079c531659141344cd1fd0a4f28419497f9722a3daafe3b4186f6b6457e09190a35050565b6012546015546016546040516305d3b1d360e41b81526004810192909252600160a01b830467ffffffffffffffff166024830152640100000000810461ffff16604483015263ffffffff808216606484015266010000000000009091041660848201525f916001600160a01b031690635d3b1d309060a4016020604051808303815f875af1158015613578573d5f803e3d5ffd5b505050506040513d601f19601f8201168201806040525081019061359c919061472d565b604080516060810182525f8082526001602080840182815285518481528083018752858701908152878552601783529590932084518154945161ffff1990951690151561ff001916176101009415159490940293909317835593518051959650929491936136109391850192910190614098565b5050601380546001810182555f919091527f66de8ffda797e3de9c05e8fc57b3bf0ec28a930d40b0d285d93c06501cf6a0900182905550601481905560165460408051838152660100000000000090920463ffffffff1660208301527fcc58b13ad3eab50626c6a6300b1d139cd6ebb1688a7cced9461c2f7e762665ee910160405180910390a190565b6136a48282611d19565b610fff5760405163e2517d3f60e01b81526001600160a01b038216600482015260248101839052604401610dce565b6019545f906001600160a01b031633148015906136f35750601b5460ff16155b80156137085750601954600160a81b900460ff165b801561372b5750601a5460415461371e30611c8e565b6137289190614645565b10155b905090565b601b805460ff191660011790556041545f9061374b30611c8e565b6137559190614645565b6040805160028082526060820183529293505f92909160208301908036833701905050905030815f8151811061378d5761378d6146ba565b6001600160a01b03928316602091820292909201810191909152601854604080516315ab88c960e31b81529051919093169263ad5c46489260048083019391928290030181865afa1580156137e4573d5f803e3d5ffd5b505050506040513d601f19601f820116820180604052508101906138089190614744565b8160018151811061381b5761381b6146ba565b6001600160a01b0392831660209182029290920101526018541663791ac947835f843061384a4261012c614658565b6040518663ffffffff1660e01b815260040161386a95949392919061475f565b5f604051808303815f87803b158015613881575f80fd5b505af1158015613893573d5f803e3d5ffd5b5047925050811590506138f9576010546040515f916001600160a01b03169061753090849084818181858888f193505050503d805f81146138ef576040519150601f19603f3d011682016040523d82523d5f602084013e6138f4565b606091505b505050505b5050601b805460ff1916905550565b6019545f9081908190819081906001600160a01b03898116911614801561393d57506019546001600160a01b03888116911614155b15613ae2576001600160a01b0387165f908152602360205260409020546001036139ee5760036127106034548861397491906145e1565b61397e919061460c565b613988919061460c565b6001600160a01b038089165f908152601d60209081526040808320549093168252601f9052908120805492965086955085945084929091906139cb908490614658565b925050819055508260415f8282546139e39190614658565b90915550613caa9050565b6001600160a01b0387165f90815260236020526040902054600203613a9a57600361271060355488613a2091906145e1565b613a2a919061460c565b613a34919061460c565b6001600160a01b038089165f908152601d60209081526040808320549093168252601f905290812080549296508695508594508492909190613a77908490614658565b925050819055508260415f828254613a8f9190614658565b90915550613add9050565b6001600160a01b0387165f90815260236020526040902054600303613acc57600361271060365488613a2091906145e1565b612710600c548761397e91906145e1565b613caa565b6019546001600160a01b03898116911614801590613b0d57506019546001600160a01b038881169116145b15613caa57604054610100900460ff1615613b4157612710613b3087600a6145e1565b613b3a919061460c565b9350613caa565b6001600160a01b0388165f90815260236020526040902054600103613bca57600361271060375488613b7391906145e1565b613b7d919061460c565b613b87919061460c565b6001600160a01b03808a165f908152601d60209081526040808320549093168252601f9052908120805492965086955085945084929091906139cb908490614658565b6001600160a01b0388165f90815260236020526040902054600203613bfc57600361271060385488613b7391906145e1565b6001600160a01b0388165f90815260236020526040902054600303613c2e57600361271060395488613b7391906145e1565b612710600e5487613c3f91906145e1565b613c49919061460c565b6001600160a01b03808a165f908152601d60209081526040808320549093168252601f905290812080549296508695508594508492909190613c8c908490614658565b925050819055508260415f828254613ca49190614658565b90915550505b81613cb58486614658565b613cbf9190614658565b90508015613d8a57613cd18282614645565b305f9081526007602052604081208054909190613cef908490614658565b90915550506021546001600160a01b03165f9081526007602052604081208054849290613d1d908490614658565b909155503090506001600160a01b0389165f8051602061479b833981519152613d468585614645565b60405190815260200160405180910390a36021546040518381526001600160a01b03918216918a16905f8051602061479b8339815191529060200160405180910390a35b613d948187614645565b98975050505050505050565b600554613dd3600554602654603a54613db991906145e1565b613dc49060646145e1565b613dce91906145e1565b613eee565b600b54613de09190614645565b613dea919061460c565b603455600554602654603b54613e06918391613db991906145e1565b600b54613e139190614645565b613e1d919061460c565b603555600554602654603c54613e39918391613db991906145e1565b600b54613e469190614645565b613e50919061460c565b603655600554602654603d54613e6c918391613db991906145e1565b600d54613e799190614645565b613e83919061460c565b603755600554602654603e54613e9f918391613db991906145e1565b600d54613eac9190614645565b613eb6919061460c565b603855600554602654603f54613ed2918391613db991906145e1565b600d54613edf9190614645565b613ee9919061460c565b603955565b5f815f03613efd57505f919050565b5f6001613f0984613fd2565b901c6001901b90506001818481613f2257613f226145f8565b048201901c90506001818481613f3a57613f3a6145f8565b048201901c90506001818481613f5257613f526145f8565b048201901c90506001818481613f6a57613f6a6145f8565b048201901c90506001818481613f8257613f826145f8565b048201901c90506001818481613f9a57613f9a6145f8565b048201901c90506001818481613fb257613fb26145f8565b048201901c90506127e981828581613fcc57613fcc6145f8565b04614065565b5f80608083901c15613fe657608092831c92015b604083901c15613ff857604092831c92015b602083901c1561400a57602092831c92015b601083901c1561401c57601092831c92015b600883901c1561402e57600892831c92015b600483901c1561404057600492831c92015b600283901c1561405257600292831c92015b600183901c156111545760010192915050565b5f81831061407357816127e9565b5090919050565b6040518060a001604052806005906020820280368337509192915050565b828054828255905f5260205f209081019282156140d1579160200282015b828111156140d15782518255916020019190600101906140b6565b506140dd929150614129565b5090565b82600581019282156140d1579160200282015b828111156140d157825182546001600160a01b0319166001600160a01b039091161782556020909201916001909101906140f4565b5b808211156140dd575f815560010161412a565b6001600160a01b0381168114611c8b575f80fd5b5f60208284031215614161575f80fd5b81356127e98161413d565b5f6020828403121561417c575f80fd5b81356001600160e01b0319811681146127e9575f80fd5b5f6020808352835180828501525f5b818110156141be578581018301518582016040015282016141a2565b505f604082860101526040601f19601f8301168501019250505092915050565b5f80604083850312156141ef575f80fd5b82356141fa8161413d565b946020939093013593505050565b5f60208284031215614218575f80fd5b5035919050565b634e487b7160e01b5f52604160045260245ffd5b604051601f8201601f1916810167ffffffffffffffff8111828210171561425c5761425c61421f565b604052919050565b5f67ffffffffffffffff82111561427d5761427d61421f565b5060051b60200190565b5f8060408385031215614298575f80fd5b8235915060208084013567ffffffffffffffff8111156142b6575f80fd5b8401601f810186136142c6575f80fd5b80356142d96142d482614264565b614233565b81815260059190911b820183019083810190888311156142f7575f80fd5b928401925b82841015614315578335825292840192908401906142fc565b80955050505050509250929050565b80358015158114614333575f80fd5b919050565b5f8060408385031215614349575f80fd5b82356143548161413d565b915061436260208401614324565b90509250929050565b5f805f6060848603121561437d575f80fd5b83356143888161413d565b925060208401356143988161413d565b929592945050506040919091013590565b5f80604083850312156143ba575f80fd5b8235915060208301356143cc8161413d565b809150509250929050565b5f8151808452602080850194508084015f5b8381101561440e5781516001600160a01b0316875295820195908201906001016143e9565b509495945050505050565b602081525f6127e960208301846143d7565b60a0810181835f5b600581101561445b5781516001600160a01b0316835260209283019290910190600101614433565b50505092915050565b5f8060408385031215614475575f80fd5b82356144808161413d565b915060208301356143cc8161413d565b5f80604083850312156144a1575f80fd5b6141fa83614324565b5f60208083850312156144bb575f80fd5b823567ffffffffffffffff8111156144d1575f80fd5b8301601f810185136144e1575f80fd5b80356144ef6142d482614264565b81815260059190911b8201830190838101908783111561450d575f80fd5b928401925b828410156145345783356145258161413d565b82529284019290840190614512565b979650505050505050565b60208082526024908201527f45706f6368206973206f7665722c207761697420666f7220746865206e657874604082015263206f6e6560e01b606082015260800190565b634e487b7160e01b5f52601160045260245ffd5b5f600182016145a8576145a8614583565b5060010190565b600181811c908216806145c357607f821691505b60208210810361280957634e487b7160e01b5f52602260045260245ffd5b808202811582820484141761115457611154614583565b634e487b7160e01b5f52601260045260245ffd5b5f8261461a5761461a6145f8565b500490565b6020808252600c908201526b23b0b6b29034b99037bb32b960a11b604082015260600190565b8181038181111561115457611154614583565b8082018082111561115457611154614583565b602080825282548282018190525f8481528281209092916040850190845b818110156146ae5783546001600160a01b031683526001938401939285019201614689565b50909695505050505050565b634e487b7160e01b5f52603260045260245ffd5b5f826146dc576146dc6145f8565b500690565b5f60408201848352602060408185015281855180845260608601915082870193505f5b8181101561472057845183529383019391830191600101614704565b5090979650505050505050565b5f6020828403121561473d575f80fd5b5051919050565b5f60208284031215614754575f80fd5b81516127e98161413d565b85815284602082015260a060408201525f61477d60a08301866143d7565b6001600160a01b039490941660608301525060800152939250505056feddf252ad1be2c89b69c2b068fc378daa952ba7f163c4a11628f55a4df523b3efa49807205ce4d355092ef5a8a18f56e8913cf4a201fbe287825b095693c21775a2646970667358221220682a83256c627a6d583130ea63c7757475d5d34c523e09a00ef1158a3d66e40464736f6c6343000814003360806040526a14adf4b7320334b90000006003555f600455348015610022575f80fd5b5060405161086238038061086283398101604081905261004191610113565b806001600160a01b03811661006f57604051631e4fbdf760e01b81525f600482015260240160405180910390fd5b610078816100a9565b5050600180546001600160a01b039092166001600160a01b0319928316811790915560028054909216179055610144565b5f80546001600160a01b038381166001600160a01b0319831681178455604051919092169283917f8be0079c531659141344cd1fd0a4f28419497f9722a3daafe3b4186f6b6457e09190a35050565b80516001600160a01b038116811461010e575f80fd5b919050565b5f8060408385031215610124575f80fd5b61012d836100f8565b915061013b602084016100f8565b90509250929050565b610711806101515f395ff3fe608060405234801561000f575f80fd5b5060043610610085575f3560e01c8063efca2eed11610058578063efca2eed146100d7578063f25addf5146100ee578063f2fde38b14610101578063fc0c546a14610114575f80fd5b8063715018a614610089578063853828b6146100935780638da5cb5b1461009b5780639d76ea58146100c4575b5f80fd5b610091610127565b005b61009161013a565b5f546001600160a01b03165b6040516001600160a01b0390911681526020015b60405180910390f35b6002546100a7906001600160a01b031681565b6100e060045481565b6040519081526020016100bb565b6100916100fc36600461054d565b610225565b61009161010f36600461060d565b610469565b6001546100a7906001600160a01b031681565b61012f6104a3565b6101385f6104cf565b565b6101426104a3565b6001546040516370a0823160e01b81523060048201526001600160a01b039091169063a9059cbb90339083906370a0823190602401602060405180830381865afa158015610192573d5f803e3d5ffd5b505050506040513d601f19601f820116820180604052508101906101b6919061062d565b6040516001600160e01b031960e085901b1681526001600160a01b03909216600483015260248201526044016020604051808303815f875af11580156101fe573d5f803e3d5ffd5b505050506040513d601f19601f820116820180604052508101906102229190610644565b50565b6002546001600160a01b031633146102975760405162461bcd60e51b815260206004820152602a60248201527f4f6e6c7920746f6b656e20636f6e74726163742063616e2063616c6c207468696044820152693990333ab731ba34b7b760b11b60648201526084015b60405180910390fd5b6003546001546040516370a0823160e01b81523060048201525f92916001600160a01b0316906370a0823190602401602060405180830381865afa1580156102e1573d5f803e3d5ffd5b505050506040513d601f19601f82011682018060405250810190610305919061062d565b11610379576001546040516370a0823160e01b81523060048201526001600160a01b03909116906370a0823190602401602060405180830381865afa158015610350573d5f803e3d5ffd5b505050506040513d601f19601f82011682018060405250810190610374919061062d565b61037d565b6003545b90508060045f8282546103909190610677565b90915550508015610465575f5b82518110156104635760015483516001600160a01b039091169063a9059cbb908590849081106103cf576103cf610690565b60200260200101518551856103e491906106a4565b6040516001600160e01b031960e085901b1681526001600160a01b03909216600483015260248201526044016020604051808303815f875af115801561042c573d5f803e3d5ffd5b505050506040513d601f19601f820116820180604052508101906104509190610644565b508061045b816106c3565b91505061039d565b505b5050565b6104716104a3565b6001600160a01b03811661049a57604051631e4fbdf760e01b81525f600482015260240161028e565b610222816104cf565b5f546001600160a01b031633146101385760405163118cdaa760e01b815233600482015260240161028e565b5f80546001600160a01b038381166001600160a01b0319831681178455604051919092169283917f8be0079c531659141344cd1fd0a4f28419497f9722a3daafe3b4186f6b6457e09190a35050565b634e487b7160e01b5f52604160045260245ffd5b80356001600160a01b0381168114610548575f80fd5b919050565b5f602080838503121561055e575f80fd5b823567ffffffffffffffff80821115610575575f80fd5b818501915085601f830112610588575f80fd5b81358181111561059a5761059a61051e565b8060051b604051601f19603f830116810181811085821117156105bf576105bf61051e565b6040529182528482019250838101850191888311156105dc575f80fd5b938501935b82851015610601576105f285610532565b845293850193928501926105e1565b98975050505050505050565b5f6020828403121561061d575f80fd5b61062682610532565b9392505050565b5f6020828403121561063d575f80fd5b5051919050565b5f60208284031215610654575f80fd5b81518015158114610626575f80fd5b634e487b7160e01b5f52601160045260245ffd5b8082018082111561068a5761068a610663565b92915050565b634e487b7160e01b5f52603260045260245ffd5b5f826106be57634e487b7160e01b5f52601260045260245ffd5b500490565b5f600182016106d4576106d4610663565b506001019056fea26469706673582212209596fb2184b3e5fd9ec0e374a2de8665596861283d9e757a0e907f78d40e5df164736f6c63430008140033","opcodes":"PUSH1 0xE0 PUSH1 0x40 MSTORE PUSH1 0xE PUSH1 0xA0 SWAP1 DUP2 MSTORE PUSH14 0x109B1A59DA1D08141C9BDA9958DD PUSH1 0x92 SHL PUSH1 0xC0 MSTORE PUSH1 0x2 SWAP1 PUSH3 0x2F SWAP1 DUP3 PUSH3 0x8CF JUMP JUMPDEST POP PUSH1 0x40 DUP1 MLOAD DUP1 DUP3 ADD SWAP1 SWAP2 MSTORE PUSH1 0x3 DUP1 DUP3 MSTORE PUSH3 0x424C49 PUSH1 0xE8 SHL PUSH1 0x20 DUP4 ADD MSTORE SWAP1 PUSH3 0x58 SWAP1 DUP3 PUSH3 0x8CF JUMP JUMPDEST POP PUSH3 0x67 PUSH1 0x12 PUSH1 0xA PUSH3 0xAA4 JUMP JUMPDEST PUSH3 0x77 SWAP1 PUSH4 0x3B9ACA00 PUSH3 0xABB JUMP JUMPDEST PUSH1 0x4 SSTORE PUSH10 0xD3C21BCECCEDA1000000 PUSH1 0x5 SSTORE PUSH2 0x3E8 PUSH1 0x4 SLOAD PUSH1 0xA PUSH3 0x9C SWAP2 SWAP1 PUSH3 0xABB JUMP JUMPDEST PUSH3 0xA8 SWAP2 SWAP1 PUSH3 0xAD5 JUMP JUMPDEST PUSH1 0x6 SSTORE PUSH1 0x5 SLOAD PUSH3 0xBC SWAP1 PUSH2 0x258 PUSH3 0xABB JUMP JUMPDEST PUSH1 0xB SSTORE PUSH1 0xC8 PUSH1 0xC SSTORE PUSH1 0x5 SLOAD PUSH3 0xD5 SWAP1 PUSH2 0x384 PUSH3 0xABB JUMP JUMPDEST PUSH1 0xD SSTORE PUSH2 0x12C PUSH1 0xE SSTORE PUSH1 0x10 DUP1 SLOAD PUSH20 0x3E98DA13E184EA1467639BF642F804144539694D PUSH1 0x1 PUSH1 0x1 PUSH1 0xA0 SHL SUB NOT SWAP2 DUP3 AND OR SWAP1 SWAP2 SSTORE PUSH1 0x11 DUP1 SLOAD PUSH20 0x2CA8E0C643BDE4C2E08AB1FA0DA3401ADAD7734D SWAP3 AND SWAP2 SWAP1 SWAP2 OR SWAP1 SSTORE PUSH1 0x12 DUP1 SLOAD PUSH1 0x1 PUSH1 0x1 PUSH1 0xE0 SHL SUB NOT AND PUSH22 0x37F32CA8E0C643BDE4C2E08AB1FA0DA3401ADAD7734D OR SWAP1 SSTORE PUSH32 0x79D3D8832D904592C0BF9818B621522C988BB8B0C05CDC3B15AEA1B6E8DB0C15 PUSH1 0x15 SSTORE PUSH1 0x16 DUP1 SLOAD PUSH1 0x1 PUSH1 0x1 PUSH1 0x50 SHL SUB NOT AND PUSH7 0x10003000186A0 OR SWAP1 SSTORE PUSH1 0x19 DUP1 SLOAD PUSH2 0xFFFF PUSH1 0xA0 SHL NOT AND SWAP1 SSTORE PUSH1 0x4 SLOAD PUSH3 0x1AD SWAP1 PUSH2 0x3E8 SWAP1 PUSH3 0xAD5 JUMP JUMPDEST PUSH3 0x1BA SWAP1 PUSH1 0x3 PUSH3 0xABB JUMP JUMPDEST PUSH1 0x1A SSTORE PUSH1 0x64 PUSH1 0x22 SSTORE PUSH0 PUSH1 0x26 SSTORE PUSH0 PUSH1 0x28 SSTORE PUSH0 PUSH1 0x29 SSTORE PUSH10 0x34F086F3B33B68400000 PUSH1 0x2A SSTORE PUSH0 PUSH1 0x2B SSTORE PUSH0 PUSH1 0x2C SSTORE PUSH0 PUSH1 0x2D SSTORE PUSH0 PUSH1 0x2E SSTORE PUSH0 PUSH1 0x2F SSTORE PUSH0 PUSH1 0x30 SSTORE PUSH0 PUSH1 0x31 SSTORE PUSH0 PUSH1 0x32 SSTORE PUSH1 0xA PUSH1 0x33 SSTORE PUSH1 0x5 SLOAD PUSH1 0xE5 PUSH3 0x212 SWAP2 SWAP1 PUSH3 0xABB JUMP JUMPDEST PUSH1 0x3A SSTORE PUSH1 0x5 SLOAD PUSH3 0x226 SWAP1 PUSH2 0x165 PUSH3 0xABB JUMP JUMPDEST PUSH1 0x3B SSTORE PUSH1 0x5 SLOAD PUSH3 0x23A SWAP1 PUSH2 0x202 PUSH3 0xABB JUMP JUMPDEST PUSH1 0x3C SSTORE PUSH1 0x5 SLOAD PUSH3 0x24E SWAP1 PUSH2 0x2BC PUSH3 0xABB JUMP JUMPDEST PUSH1 0x3D SSTORE PUSH1 0x5 SLOAD PUSH3 0x262 SWAP1 PUSH2 0x392 PUSH3 0xABB JUMP JUMPDEST PUSH1 0x3E SSTORE PUSH1 0x5 SLOAD PUSH3 0x276 SWAP1 PUSH2 0x485 PUSH3 0xABB JUMP JUMPDEST PUSH1 0x3F SSTORE PUSH1 0x40 DUP1 SLOAD PUSH2 0xFFFF NOT AND SWAP1 SSTORE CALLVALUE DUP1 ISZERO PUSH3 0x290 JUMPI PUSH0 DUP1 REVERT JUMPDEST POP PUSH1 0x40 MLOAD PUSH3 0x5BC5 CODESIZE SUB DUP1 PUSH3 0x5BC5 DUP4 CODECOPY DUP2 ADD PUSH1 0x40 DUP2 SWAP1 MSTORE PUSH3 0x2B3 SWAP2 PUSH3 0xAF5 JUMP JUMPDEST PUSH1 0x11 SLOAD PUSH1 0x1 PUSH1 0x1 PUSH1 0xA0 SHL SUB SWAP1 DUP2 AND SWAP1 DUP3 SWAP1 DUP2 AND PUSH3 0x2EA JUMPI PUSH1 0x40 MLOAD PUSH4 0x1E4FBDF7 PUSH1 0xE0 SHL DUP2 MSTORE PUSH0 PUSH1 0x4 DUP3 ADD MSTORE PUSH1 0x24 ADD PUSH1 0x40 MLOAD DUP1 SWAP2 SUB SWAP1 REVERT JUMPDEST PUSH3 0x2F5 DUP2 PUSH3 0x73E JUMP JUMPDEST POP PUSH1 0x1 PUSH1 0x1 PUSH1 0xA0 SHL SUB AND PUSH1 0x80 MSTORE PUSH1 0x18 DUP1 SLOAD PUSH1 0x1 PUSH1 0x1 PUSH1 0xA0 SHL SUB NOT AND PUSH20 0x7A250D5630B4CF539739DF2C5DACB4C659F2488D SWAP1 DUP2 OR SWAP1 SWAP2 SSTORE PUSH1 0x40 DUP1 MLOAD PUSH4 0xC45A0155 PUSH1 0xE0 SHL DUP2 MSTORE SWAP1 MLOAD PUSH4 0xC45A0155 SWAP2 PUSH1 0x4 DUP1 DUP3 ADD SWAP3 PUSH1 0x20 SWAP3 SWAP1 SWAP2 SWAP1 DUP3 SWAP1 SUB ADD DUP2 DUP7 GAS STATICCALL ISZERO DUP1 ISZERO PUSH3 0x365 JUMPI RETURNDATASIZE PUSH0 DUP1 RETURNDATACOPY RETURNDATASIZE PUSH0 REVERT JUMPDEST POP POP POP POP PUSH1 0x40 MLOAD RETURNDATASIZE PUSH1 0x1F NOT PUSH1 0x1F DUP3 ADD AND DUP3 ADD DUP1 PUSH1 0x40 MSTORE POP DUP2 ADD SWAP1 PUSH3 0x38B SWAP2 SWAP1 PUSH3 0xAF5 JUMP JUMPDEST PUSH1 0x1 PUSH1 0x1 PUSH1 0xA0 SHL SUB AND PUSH4 0xC9C65396 PUSH1 0x18 PUSH0 SWAP1 SLOAD SWAP1 PUSH2 0x100 EXP SWAP1 DIV PUSH1 0x1 PUSH1 0x1 PUSH1 0xA0 SHL SUB AND PUSH1 0x1 PUSH1 0x1 PUSH1 0xA0 SHL SUB AND PUSH4 0xAD5C4648 PUSH1 0x40 MLOAD DUP2 PUSH4 0xFFFFFFFF AND PUSH1 0xE0 SHL DUP2 MSTORE PUSH1 0x4 ADD PUSH1 0x20 PUSH1 0x40 MLOAD DUP1 DUP4 SUB DUP2 DUP7 GAS STATICCALL ISZERO DUP1 ISZERO PUSH3 0x3EA JUMPI RETURNDATASIZE PUSH0 DUP1 RETURNDATACOPY RETURNDATASIZE PUSH0 REVERT JUMPDEST POP POP POP POP PUSH1 0x40 MLOAD RETURNDATASIZE PUSH1 0x1F NOT PUSH1 0x1F DUP3 ADD AND DUP3 ADD DUP1 PUSH1 0x40 MSTORE POP DUP2 ADD SWAP1 PUSH3 0x410 SWAP2 SWAP1 PUSH3 0xAF5 JUMP JUMPDEST PUSH1 0x40 MLOAD PUSH1 0x1 PUSH1 0x1 PUSH1 0xE0 SHL SUB NOT PUSH1 0xE0 DUP5 SWAP1 SHL AND DUP2 MSTORE PUSH1 0x1 PUSH1 0x1 PUSH1 0xA0 SHL SUB SWAP1 SWAP2 AND PUSH1 0x4 DUP3 ADD MSTORE ADDRESS PUSH1 0x24 DUP3 ADD MSTORE PUSH1 0x44 ADD PUSH1 0x20 PUSH1 0x40 MLOAD DUP1 DUP4 SUB DUP2 PUSH0 DUP8 GAS CALL ISZERO DUP1 ISZERO PUSH3 0x45A JUMPI RETURNDATASIZE PUSH0 DUP1 RETURNDATACOPY RETURNDATASIZE PUSH0 REVERT JUMPDEST POP POP POP POP PUSH1 0x40 MLOAD RETURNDATASIZE PUSH1 0x1F NOT PUSH1 0x1F DUP3 ADD AND DUP3 ADD DUP1 PUSH1 0x40 MSTORE POP DUP2 ADD SWAP1 PUSH3 0x480 SWAP2 SWAP1 PUSH3 0xAF5 JUMP JUMPDEST PUSH1 0x19 DUP1 SLOAD PUSH1 0x1 PUSH1 0x1 PUSH1 0xA0 SHL SUB NOT AND PUSH1 0x1 PUSH1 0x1 PUSH1 0xA0 SHL SUB SWAP3 DUP4 AND OR SWAP1 SSTORE ADDRESS PUSH0 SWAP1 DUP2 MSTORE PUSH1 0x8 PUSH1 0x20 SWAP1 DUP2 MSTORE PUSH1 0x40 DUP1 DUP4 KECCAK256 PUSH1 0x18 SLOAD SWAP1 SWAP5 AND DUP4 MSTORE SWAP3 SWAP1 MSTORE SWAP1 DUP2 KECCAK256 PUSH0 NOT SWAP1 SSTORE PUSH3 0x4CB SWAP1 DUP3 PUSH3 0x78D JUMP JUMPDEST POP PUSH3 0x4F8 PUSH32 0xA49807205CE4D355092EF5A8A18F56E8913CF4A201FBE287825B095693C21775 DUP3 PUSH3 0x78D JUMP JUMPDEST POP ADDRESS DUP2 PUSH1 0x40 MLOAD PUSH3 0x509 SWAP1 PUSH3 0x821 JUMP JUMPDEST PUSH1 0x1 PUSH1 0x1 PUSH1 0xA0 SHL SUB SWAP3 DUP4 AND DUP2 MSTORE SWAP2 AND PUSH1 0x20 DUP3 ADD MSTORE PUSH1 0x40 ADD PUSH1 0x40 MLOAD DUP1 SWAP2 SUB SWAP1 PUSH0 CREATE DUP1 ISZERO DUP1 ISZERO PUSH3 0x53A JUMPI RETURNDATASIZE PUSH0 DUP1 RETURNDATACOPY RETURNDATASIZE PUSH0 REVERT JUMPDEST POP PUSH1 0x21 DUP1 SLOAD PUSH1 0x1 PUSH1 0x1 PUSH1 0xA0 SHL SUB NOT AND PUSH1 0x1 PUSH1 0x1 PUSH1 0xA0 SHL SUB SWAP3 DUP4 AND OR DUP2 SSTORE CALLER PUSH0 DUP2 DUP2 MSTORE PUSH1 0x9 PUSH1 0x20 SWAP1 DUP2 MSTORE PUSH1 0x40 DUP1 DUP4 KECCAK256 DUP1 SLOAD PUSH1 0xFF NOT SWAP1 DUP2 AND PUSH1 0x1 SWAP1 DUP2 OR SWAP1 SWAP3 SSTORE ADDRESS DUP1 DUP7 MSTORE DUP4 DUP7 KECCAK256 DUP1 SLOAD DUP4 AND DUP5 OR SWAP1 SSTORE PUSH1 0x10 DUP1 SLOAD DUP11 AND DUP8 MSTORE DUP5 DUP8 KECCAK256 DUP1 SLOAD DUP5 AND DUP6 OR SWAP1 SSTORE DUP8 DUP8 MSTORE PUSH1 0xA DUP7 MSTORE DUP5 DUP8 KECCAK256 DUP1 SLOAD DUP5 AND DUP6 OR SWAP1 SSTORE DUP1 SLOAD DUP11 AND DUP8 MSTORE DUP5 DUP8 KECCAK256 DUP1 SLOAD DUP5 AND DUP6 OR SWAP1 SSTORE PUSH32 0x20677881080440A9B3C87E826370BB5D9C2F74EFD4DEDE686D52D77A6A09F8BB DUP1 SLOAD DUP5 AND DUP6 OR SWAP1 SSTORE SWAP8 SLOAD DUP10 AND DUP7 MSTORE DUP4 DUP7 KECCAK256 DUP1 SLOAD DUP4 AND DUP5 OR SWAP1 SSTORE DUP1 DUP7 MSTORE DUP4 DUP7 KECCAK256 DUP1 SLOAD DUP4 AND DUP5 OR SWAP1 SSTORE PUSH1 0x19 DUP1 SLOAD DUP11 AND DUP8 MSTORE DUP5 DUP8 KECCAK256 DUP1 SLOAD DUP5 AND DUP6 OR SWAP1 SSTORE PUSH32 0xC90215BB1B0AC6BFA50A3C02C4B559C695B6A8E828048A88E327592FC55C5D2C DUP1 SLOAD DUP5 AND DUP6 OR SWAP1 SSTORE DUP8 DUP8 MSTORE PUSH1 0x1C DUP7 MSTORE DUP5 DUP8 KECCAK256 DUP1 SLOAD DUP5 AND DUP6 OR SWAP1 SSTORE SWAP8 SLOAD DUP10 AND DUP7 MSTORE DUP4 DUP7 KECCAK256 DUP1 SLOAD DUP4 AND DUP5 OR SWAP1 SSTORE PUSH32 0xA48BD8E7B1565515CDE2859B6CC48308BA05B5325BCF90FB096B9AC0B8087DFC DUP1 SLOAD DUP4 AND DUP5 OR SWAP1 SSTORE DUP6 MSTORE DUP3 DUP6 KECCAK256 DUP1 SLOAD DUP3 AND DUP4 OR SWAP1 SSTORE SWAP6 SLOAD SWAP1 SWAP7 AND DUP4 MSTORE DUP1 DUP4 KECCAK256 DUP1 SLOAD DUP7 AND DUP8 OR SWAP1 SSTORE PUSH32 0xB1E2E88B6A3E9D36C6D6D48756CA9ED8312CFCB5A15208F81170ADE3BD2B4A95 DUP1 SLOAD SWAP1 SWAP6 AND SWAP1 SWAP6 OR SWAP1 SWAP4 SSTORE PUSH1 0x4 SLOAD SWAP2 DUP2 MSTORE PUSH1 0x7 SWAP1 SWAP3 MSTORE SWAP2 DUP2 KECCAK256 DUP1 SLOAD SWAP1 SWAP2 SWAP1 PUSH3 0x6F8 SWAP1 DUP5 SWAP1 PUSH3 0xB1D JUMP JUMPDEST SWAP1 SWAP2 SSTORE POP POP PUSH1 0x4 SLOAD PUSH1 0x40 MLOAD SWAP1 DUP2 MSTORE CALLER SWAP1 PUSH0 SWAP1 PUSH32 0xDDF252AD1BE2C89B69C2B068FC378DAA952BA7F163C4A11628F55A4DF523B3EF SWAP1 PUSH1 0x20 ADD PUSH1 0x40 MLOAD DUP1 SWAP2 SUB SWAP1 LOG3 POP PUSH3 0xB33 JUMP JUMPDEST PUSH0 DUP1 SLOAD PUSH1 0x1 PUSH1 0x1 PUSH1 0xA0 SHL SUB DUP4 DUP2 AND PUSH1 0x1 PUSH1 0x1 PUSH1 0xA0 SHL SUB NOT DUP4 AND DUP2 OR DUP5 SSTORE PUSH1 0x40 MLOAD SWAP2 SWAP1 SWAP3 AND SWAP3 DUP4 SWAP2 PUSH32 0x8BE0079C531659141344CD1FD0A4F28419497F9722A3DAAFE3B4186F6B6457E0 SWAP2 SWAP1 LOG3 POP POP JUMP JUMPDEST PUSH0 DUP3 DUP2 MSTORE PUSH1 0x1 PUSH1 0x20 SWAP1 DUP2 MSTORE PUSH1 0x40 DUP1 DUP4 KECCAK256 PUSH1 0x1 PUSH1 0x1 PUSH1 0xA0 SHL SUB DUP6 AND DUP5 MSTORE SWAP1 SWAP2 MSTORE DUP2 KECCAK256 SLOAD PUSH1 0xFF AND PUSH3 0x818 JUMPI PUSH0 DUP4 DUP2 MSTORE PUSH1 0x1 PUSH1 0x20 DUP2 DUP2 MSTORE PUSH1 0x40 DUP1 DUP5 KECCAK256 PUSH1 0x1 PUSH1 0x1 PUSH1 0xA0 SHL SUB DUP8 AND DUP1 DUP7 MSTORE SWAP3 MSTORE DUP1 DUP5 KECCAK256 DUP1 SLOAD PUSH1 0xFF NOT AND SWAP1 SWAP4 OR SWAP1 SWAP3 SSTORE SWAP1 MLOAD CALLER SWAP3 DUP7 SWAP2 PUSH32 0x2F8788117E7EFF1D82E926EC794901D17C78024A50270940304540A733656F0D SWAP2 SWAP1 LOG4 POP PUSH1 0x1 PUSH3 0x81B JUMP JUMPDEST POP PUSH0 JUMPDEST SWAP3 SWAP2 POP POP JUMP JUMPDEST PUSH2 0x862 DUP1 PUSH3 0x5363 DUP4 CODECOPY ADD SWAP1 JUMP JUMPDEST PUSH4 0x4E487B71 PUSH1 0xE0 SHL PUSH0 MSTORE PUSH1 0x41 PUSH1 0x4 MSTORE PUSH1 0x24 PUSH0 REVERT JUMPDEST PUSH1 0x1 DUP2 DUP2 SHR SWAP1 DUP3 AND DUP1 PUSH3 0x858 JUMPI PUSH1 0x7F DUP3 AND SWAP2 POP JUMPDEST PUSH1 0x20 DUP3 LT DUP2 SUB PUSH3 0x877 JUMPI PUSH4 0x4E487B71 PUSH1 0xE0 SHL PUSH0 MSTORE PUSH1 0x22 PUSH1 0x4 MSTORE PUSH1 0x24 PUSH0 REVERT JUMPDEST POP SWAP2 SWAP1 POP JUMP JUMPDEST PUSH1 0x1F DUP3 GT ISZERO PUSH3 0x8CA JUMPI PUSH0 DUP2 DUP2 MSTORE PUSH1 0x20 DUP2 KECCAK256 PUSH1 0x1F DUP6 ADD PUSH1 0x5 SHR DUP2 ADD PUSH1 0x20 DUP7 LT ISZERO PUSH3 0x8A5 JUMPI POP DUP1 JUMPDEST PUSH1 0x1F DUP6 ADD PUSH1 0x5 SHR DUP3 ADD SWAP2 POP JUMPDEST DUP2 DUP2 LT ISZERO PUSH3 0x8C6 JUMPI DUP3 DUP2 SSTORE PUSH1 0x1 ADD PUSH3 0x8B1 JUMP JUMPDEST POP POP POP JUMPDEST POP POP POP JUMP JUMPDEST DUP2 MLOAD PUSH1 0x1 PUSH1 0x1 PUSH1 0x40 SHL SUB DUP2 GT ISZERO PUSH3 0x8EB JUMPI PUSH3 0x8EB PUSH3 0x82F JUMP JUMPDEST PUSH3 0x903 DUP2 PUSH3 0x8FC DUP5 SLOAD PUSH3 0x843 JUMP JUMPDEST DUP5 PUSH3 0x87D JUMP JUMPDEST PUSH1 0x20 DUP1 PUSH1 0x1F DUP4 GT PUSH1 0x1 DUP2 EQ PUSH3 0x939 JUMPI PUSH0 DUP5 ISZERO PUSH3 0x921 JUMPI POP DUP6 DUP4 ADD MLOAD JUMPDEST PUSH0 NOT PUSH1 0x3 DUP7 SWAP1 SHL SHR NOT AND PUSH1 0x1 DUP6 SWAP1 SHL OR DUP6 SSTORE PUSH3 0x8C6 JUMP JUMPDEST PUSH0 DUP6 DUP2 MSTORE PUSH1 0x20 DUP2 KECCAK256 PUSH1 0x1F NOT DUP7 AND SWAP2 JUMPDEST DUP3 DUP2 LT ISZERO PUSH3 0x969 JUMPI DUP9 DUP7 ADD MLOAD DUP3 SSTORE SWAP5 DUP5 ADD SWAP5 PUSH1 0x1 SWAP1 SWAP2 ADD SWAP1 DUP5 ADD PUSH3 0x948 JUMP JUMPDEST POP DUP6 DUP3 LT ISZERO PUSH3 0x987 JUMPI DUP8 DUP6 ADD MLOAD PUSH0 NOT PUSH1 0x3 DUP9 SWAP1 SHL PUSH1 0xF8 AND SHR NOT AND DUP2 SSTORE JUMPDEST POP POP POP POP POP PUSH1 0x1 SWAP1 DUP2 SHL ADD SWAP1 SSTORE POP JUMP JUMPDEST PUSH4 0x4E487B71 PUSH1 0xE0 SHL PUSH0 MSTORE PUSH1 0x11 PUSH1 0x4 MSTORE PUSH1 0x24 PUSH0 REVERT JUMPDEST PUSH1 0x1 DUP2 DUP2 JUMPDEST DUP1 DUP6 GT ISZERO PUSH3 0x9EB JUMPI DUP2 PUSH0 NOT DIV DUP3 GT ISZERO PUSH3 0x9CF JUMPI PUSH3 0x9CF PUSH3 0x997 JUMP JUMPDEST DUP1 DUP6 AND ISZERO PUSH3 0x9DD JUMPI SWAP2 DUP2 MUL SWAP2 JUMPDEST SWAP4 DUP5 SHR SWAP4 SWAP1 DUP1 MUL SWAP1 PUSH3 0x9B0 JUMP JUMPDEST POP SWAP3 POP SWAP3 SWAP1 POP JUMP JUMPDEST PUSH0 DUP3 PUSH3 0xA03 JUMPI POP PUSH1 0x1 PUSH3 0x81B JUMP JUMPDEST DUP2 PUSH3 0xA11 JUMPI POP PUSH0 PUSH3 0x81B JUMP JUMPDEST DUP2 PUSH1 0x1 DUP2 EQ PUSH3 0xA2A JUMPI PUSH1 0x2 DUP2 EQ PUSH3 0xA35 JUMPI PUSH3 0xA55 JUMP JUMPDEST PUSH1 0x1 SWAP2 POP POP PUSH3 0x81B JUMP JUMPDEST PUSH1 0xFF DUP5 GT ISZERO PUSH3 0xA49 JUMPI PUSH3 0xA49 PUSH3 0x997 JUMP JUMPDEST POP POP PUSH1 0x1 DUP3 SHL PUSH3 0x81B JUMP JUMPDEST POP PUSH1 0x20 DUP4 LT PUSH2 0x133 DUP4 LT AND PUSH1 0x4E DUP5 LT PUSH1 0xB DUP5 LT AND OR ISZERO PUSH3 0xA7A JUMPI POP DUP2 DUP2 EXP PUSH3 0x81B JUMP JUMPDEST PUSH3 0xA86 DUP4 DUP4 PUSH3 0x9AB JUMP JUMPDEST DUP1 PUSH0 NOT DIV DUP3 GT ISZERO PUSH3 0xA9C JUMPI PUSH3 0xA9C PUSH3 0x997 JUMP JUMPDEST MUL SWAP4 SWAP3 POP POP POP JUMP JUMPDEST PUSH0 PUSH3 0xAB4 PUSH1 0xFF DUP5 AND DUP4 PUSH3 0x9F3 JUMP JUMPDEST SWAP4 SWAP3 POP POP POP JUMP JUMPDEST DUP1 DUP3 MUL DUP2 ISZERO DUP3 DUP3 DIV DUP5 EQ OR PUSH3 0x81B JUMPI PUSH3 0x81B PUSH3 0x997 JUMP JUMPDEST PUSH0 DUP3 PUSH3 0xAF0 JUMPI PUSH4 0x4E487B71 PUSH1 0xE0 SHL PUSH0 MSTORE PUSH1 0x12 PUSH1 0x4 MSTORE PUSH1 0x24 PUSH0 REVERT JUMPDEST POP DIV SWAP1 JUMP JUMPDEST PUSH0 PUSH1 0x20 DUP3 DUP5 SUB SLT ISZERO PUSH3 0xB06 JUMPI PUSH0 DUP1 REVERT JUMPDEST DUP2 MLOAD PUSH1 0x1 PUSH1 0x1 PUSH1 0xA0 SHL SUB DUP2 AND DUP2 EQ PUSH3 0xAB4 JUMPI PUSH0 DUP1 REVERT JUMPDEST DUP1 DUP3 ADD DUP1 DUP3 GT ISZERO PUSH3 0x81B JUMPI PUSH3 0x81B PUSH3 0x997 JUMP JUMPDEST PUSH1 0x80 MLOAD PUSH2 0x4810 PUSH3 0xB53 PUSH0 CODECOPY PUSH0 DUP2 DUP2 PUSH2 0x15CD ADD MSTORE PUSH2 0x160F ADD MSTORE PUSH2 0x4810 PUSH0 RETURN INVALID PUSH1 0x80 PUSH1 0x40 MSTORE PUSH1 0x4 CALLDATASIZE LT PUSH2 0x402 JUMPI PUSH0 CALLDATALOAD PUSH1 0xE0 SHR DUP1 PUSH4 0x658D4B7F GT PUSH2 0x215 JUMPI DUP1 PUSH4 0xAB7573DD GT PUSH2 0x11E JUMPI DUP1 PUSH4 0xDF20FD49 GT PUSH2 0xA8 JUMPI DUP1 PUSH4 0xF887EA40 GT PUSH2 0x78 JUMPI DUP1 PUSH4 0xF887EA40 EQ PUSH2 0xCCE JUMPI DUP1 PUSH4 0xFBFA77CF EQ PUSH2 0xCED JUMPI DUP1 PUSH4 0xFC2A88C3 EQ PUSH2 0xD0C JUMPI DUP1 PUSH4 0xFD39EF78 EQ PUSH2 0xD21 JUMPI DUP1 PUSH4 0xFD6E28CF EQ PUSH2 0xD40 JUMPI PUSH0 DUP1 REVERT JUMPDEST DUP1 PUSH4 0xDF20FD49 EQ PUSH2 0xC52 JUMPI DUP1 PUSH4 0xF25C7EA4 EQ PUSH2 0xC71 JUMPI DUP1 PUSH4 0xF2FDE38B EQ PUSH2 0xC90 JUMPI DUP1 PUSH4 0xF5415CBB EQ PUSH2 0xCAF JUMPI PUSH0 DUP1 REVERT JUMPDEST DUP1 PUSH4 0xC6B61E4C GT PUSH2 0xEE JUMPI DUP1 PUSH4 0xC6B61E4C EQ PUSH2 0xB72 JUMPI DUP1 PUSH4 0xD02C6394 EQ PUSH2 0xBC7 JUMPI DUP1 PUSH4 0xD3A9FFC4 EQ PUSH2 0xBDB JUMPI DUP1 PUSH4 0xD547741F EQ PUSH2 0xBEF JUMPI DUP1 PUSH4 0xDD62ED3E EQ PUSH2 0xC0E JUMPI PUSH0 DUP1 REVERT JUMPDEST DUP1 PUSH4 0xAB7573DD EQ PUSH2 0xAF8 JUMPI DUP1 PUSH4 0xC26D68F9 EQ PUSH2 0xB23 JUMPI DUP1 PUSH4 0xC315432A EQ PUSH2 0xB44 JUMPI DUP1 PUSH4 0xC3EC8897 EQ PUSH2 0xB5D JUMPI PUSH0 DUP1 REVERT JUMPDEST DUP1 PUSH4 0x8C5799CE GT PUSH2 0x19F JUMPI DUP1 PUSH4 0x96EB64A9 GT PUSH2 0x16F JUMPI DUP1 PUSH4 0x96EB64A9 EQ PUSH2 0xA73 JUMPI DUP1 PUSH4 0xA217FDDF EQ PUSH2 0xA92 JUMPI DUP1 PUSH4 0xA8AA1B31 EQ PUSH2 0xAA5 JUMPI DUP1 PUSH4 0xA9059CBB EQ PUSH2 0xAC4 JUMPI DUP1 PUSH4 0xAA9BBC0C EQ PUSH2 0xAE3 JUMPI PUSH0 DUP1 REVERT JUMPDEST DUP1 PUSH4 0x8C5799CE EQ PUSH2 0x9F6 JUMPI DUP1 PUSH4 0x8DA5CB5B EQ PUSH2 0xA24 JUMPI DUP1 PUSH4 0x91D14854 EQ PUSH2 0xA40 JUMPI DUP1 PUSH4 0x95D89B41 EQ PUSH2 0xA5F JUMPI PUSH0 DUP1 REVERT JUMPDEST DUP1 PUSH4 0x70A08231 GT PUSH2 0x1E5 JUMPI DUP1 PUSH4 0x70A08231 EQ PUSH2 0x965 JUMPI DUP1 PUSH4 0x715018A6 EQ PUSH2 0x984 JUMPI DUP1 PUSH4 0x73A432BB EQ PUSH2 0x998 JUMPI DUP1 PUSH4 0x75B238FC EQ PUSH2 0x9B7 JUMPI DUP1 PUSH4 0x8796BA8C EQ PUSH2 0x9D7 JUMPI PUSH0 DUP1 REVERT JUMPDEST DUP1 PUSH4 0x658D4B7F EQ PUSH2 0x8F1 JUMPI DUP1 PUSH4 0x6789C92C EQ PUSH2 0x910 JUMPI DUP1 PUSH4 0x6CBC2DED EQ PUSH2 0x931 JUMPI DUP1 PUSH4 0x6DDD1713 EQ PUSH2 0x945 JUMPI PUSH0 DUP1 REVERT JUMPDEST DUP1 PUSH4 0x2198CF6C GT PUSH2 0x317 JUMPI DUP1 PUSH4 0x3ECA5343 GT PUSH2 0x2A1 JUMPI DUP1 PUSH4 0x5119C971 GT PUSH2 0x271 JUMPI DUP1 PUSH4 0x5119C971 EQ PUSH2 0x84F JUMPI DUP1 PUSH4 0x54D41B5B EQ PUSH2 0x864 JUMPI DUP1 PUSH4 0x571AC8B0 EQ PUSH2 0x88F JUMPI DUP1 PUSH4 0x5BC04469 EQ PUSH2 0x8AE JUMPI DUP1 PUSH4 0x636EE0DB EQ PUSH2 0x8C3 JUMPI PUSH0 DUP1 REVERT JUMPDEST DUP1 PUSH4 0x3ECA5343 EQ PUSH2 0x7D3 JUMPI DUP1 PUSH4 0x43D4F92B EQ PUSH2 0x807 JUMPI DUP1 PUSH4 0x4726319F EQ PUSH2 0x826 JUMPI DUP1 PUSH4 0x4E71D92D EQ PUSH2 0x83B JUMPI PUSH0 DUP1 REVERT JUMPDEST DUP1 PUSH4 0x2F2FF15D GT PUSH2 0x2E7 JUMPI DUP1 PUSH4 0x2F2FF15D EQ PUSH2 0x73B JUMPI DUP1 PUSH4 0x313CE567 EQ PUSH2 0x75A JUMPI DUP1 PUSH4 0x31D7A262 EQ PUSH2 0x775 JUMPI DUP1 PUSH4 0x36568ABE EQ PUSH2 0x7A0 JUMPI DUP1 PUSH4 0x3AAB0A62 EQ PUSH2 0x7BF JUMPI PUSH0 DUP1 REVERT JUMPDEST DUP1 PUSH4 0x2198CF6C EQ PUSH2 0x697 JUMPI DUP1 PUSH4 0x23B872DD EQ PUSH2 0x6B6 JUMPI DUP1 PUSH4 0x248A9CA3 EQ PUSH2 0x6D5 JUMPI DUP1 PUSH4 0x2598CDB2 EQ PUSH2 0x704 JUMPI PUSH0 DUP1 REVERT JUMPDEST DUP1 PUSH4 0xE04A7D8 GT PUSH2 0x398 JUMPI DUP1 PUSH4 0x18160DDD GT PUSH2 0x368 JUMPI DUP1 PUSH4 0x18160DDD EQ PUSH2 0x627 JUMPI DUP1 PUSH4 0x196228C0 EQ PUSH2 0x63B JUMPI DUP1 PUSH4 0x1BD8EBE1 EQ PUSH2 0x64F JUMPI DUP1 PUSH4 0x1CE78AC8 EQ PUSH2 0x664 JUMPI DUP1 PUSH4 0x1FE543E3 EQ PUSH2 0x678 JUMPI PUSH0 DUP1 REVERT JUMPDEST DUP1 PUSH4 0xE04A7D8 EQ PUSH2 0x577 JUMPI DUP1 PUSH4 0xF44E894 EQ PUSH2 0x595 JUMPI DUP1 PUSH4 0x1299D7F7 EQ PUSH2 0x5BF JUMPI DUP1 PUSH4 0x1781E17C EQ PUSH2 0x5DE JUMPI PUSH0 DUP1 REVERT JUMPDEST DUP1 PUSH4 0x5DC0394 GT PUSH2 0x3D3 JUMPI DUP1 PUSH4 0x5DC0394 EQ PUSH2 0x4F4 JUMPI DUP1 PUSH4 0x64A59D0 EQ PUSH2 0x517 JUMPI DUP1 PUSH4 0x6FDDE03 EQ PUSH2 0x537 JUMPI DUP1 PUSH4 0x95EA7B3 EQ PUSH2 0x558 JUMPI PUSH0 DUP1 REVERT JUMPDEST DUP1 PUSH3 0x7F27AE EQ PUSH2 0x40D JUMPI DUP1 PUSH4 0x14C58A3 EQ PUSH2 0x42E JUMPI DUP1 PUSH4 0x1FFC9A7 EQ PUSH2 0x48C JUMPI DUP1 PUSH4 0x2B2553E EQ PUSH2 0x4AB JUMPI PUSH0 DUP1 REVERT JUMPDEST CALLDATASIZE PUSH2 0x409 JUMPI STOP JUMPDEST PUSH0 DUP1 REVERT JUMPDEST CALLVALUE DUP1 ISZERO PUSH2 0x418 JUMPI PUSH0 DUP1 REVERT JUMPDEST POP PUSH2 0x42C PUSH2 0x427 CALLDATASIZE PUSH1 0x4 PUSH2 0x4151 JUMP JUMPDEST PUSH2 0xD89 JUMP JUMPDEST STOP JUMPDEST CALLVALUE DUP1 ISZERO PUSH2 0x439 JUMPI PUSH0 DUP1 REVERT JUMPDEST POP PUSH2 0x477 PUSH2 0x448 CALLDATASIZE PUSH1 0x4 PUSH2 0x4151 JUMP JUMPDEST PUSH1 0x26 SLOAD PUSH0 SWAP1 DUP2 MSTORE PUSH1 0x27 PUSH1 0x20 SWAP1 DUP2 MSTORE PUSH1 0x40 DUP1 DUP4 KECCAK256 PUSH1 0x1 PUSH1 0x1 PUSH1 0xA0 SHL SUB SWAP1 SWAP5 AND DUP4 MSTORE PUSH1 0x4 SWAP1 SWAP4 ADD SWAP1 MSTORE KECCAK256 SLOAD PUSH1 0xFF AND SWAP1 JUMP JUMPDEST PUSH1 0x40 MLOAD SWAP1 ISZERO ISZERO DUP2 MSTORE PUSH1 0x20 ADD JUMPDEST PUSH1 0x40 MLOAD DUP1 SWAP2 SUB SWAP1 RETURN JUMPDEST CALLVALUE DUP1 ISZERO PUSH2 0x497 JUMPI PUSH0 DUP1 REVERT JUMPDEST POP PUSH2 0x477 PUSH2 0x4A6 CALLDATASIZE PUSH1 0x4 PUSH2 0x416C JUMP JUMPDEST PUSH2 0x1124 JUMP JUMPDEST CALLVALUE DUP1 ISZERO PUSH2 0x4B6 JUMPI PUSH0 DUP1 REVERT JUMPDEST POP PUSH2 0x477 PUSH2 0x4C5 CALLDATASIZE PUSH1 0x4 PUSH2 0x4151 JUMP JUMPDEST PUSH1 0x26 SLOAD PUSH0 SWAP1 DUP2 MSTORE PUSH1 0x27 PUSH1 0x20 SWAP1 DUP2 MSTORE PUSH1 0x40 DUP1 DUP4 KECCAK256 PUSH1 0x1 PUSH1 0x1 PUSH1 0xA0 SHL SUB SWAP1 SWAP5 AND DUP4 MSTORE PUSH1 0x5 SWAP1 SWAP4 ADD SWAP1 MSTORE KECCAK256 SLOAD PUSH1 0xFF AND SWAP1 JUMP JUMPDEST CALLVALUE DUP1 ISZERO PUSH2 0x4FF JUMPI PUSH0 DUP1 REVERT JUMPDEST POP PUSH2 0x509 PUSH1 0x29 SLOAD DUP2 JUMP JUMPDEST PUSH1 0x40 MLOAD SWAP1 DUP2 MSTORE PUSH1 0x20 ADD PUSH2 0x483 JUMP JUMPDEST CALLVALUE DUP1 ISZERO PUSH2 0x522 JUMPI PUSH0 DUP1 REVERT JUMPDEST POP PUSH1 0x19 SLOAD PUSH2 0x477 SWAP1 PUSH1 0x1 PUSH1 0xA0 SHL SWAP1 DIV PUSH1 0xFF AND DUP2 JUMP JUMPDEST CALLVALUE DUP1 ISZERO PUSH2 0x542 JUMPI PUSH0 DUP1 REVERT JUMPDEST POP PUSH2 0x54B PUSH2 0x115A JUMP JUMPDEST PUSH1 0x40 MLOAD PUSH2 0x483 SWAP2 SWAP1 PUSH2 0x4193 JUMP JUMPDEST CALLVALUE DUP1 ISZERO PUSH2 0x563 JUMPI PUSH0 DUP1 REVERT JUMPDEST POP PUSH2 0x477 PUSH2 0x572 CALLDATASIZE PUSH1 0x4 PUSH2 0x41DE JUMP JUMPDEST PUSH2 0x11EA JUMP JUMPDEST CALLVALUE DUP1 ISZERO PUSH2 0x582 JUMPI PUSH0 DUP1 REVERT JUMPDEST POP PUSH1 0x40 SLOAD PUSH2 0x477 SWAP1 PUSH2 0x100 SWAP1 DIV PUSH1 0xFF AND DUP2 JUMP JUMPDEST CALLVALUE DUP1 ISZERO PUSH2 0x5A0 JUMPI PUSH0 DUP1 REVERT JUMPDEST POP PUSH2 0x509 PUSH2 0x5AF CALLDATASIZE PUSH1 0x4 PUSH2 0x4151 JUMP JUMPDEST PUSH1 0x20 DUP1 MSTORE PUSH0 SWAP1 DUP2 MSTORE PUSH1 0x40 SWAP1 KECCAK256 SLOAD DUP2 JUMP JUMPDEST CALLVALUE DUP1 ISZERO PUSH2 0x5CA JUMPI PUSH0 DUP1 REVERT JUMPDEST POP PUSH2 0x42C PUSH2 0x5D9 CALLDATASIZE PUSH1 0x4 PUSH2 0x4208 JUMP JUMPDEST PUSH2 0x1255 JUMP JUMPDEST CALLVALUE DUP1 ISZERO PUSH2 0x5E9 JUMPI PUSH0 DUP1 REVERT JUMPDEST POP PUSH2 0x477 PUSH2 0x5F8 CALLDATASIZE PUSH1 0x4 PUSH2 0x4151 JUMP JUMPDEST PUSH1 0x26 SLOAD PUSH0 SWAP1 DUP2 MSTORE PUSH1 0x27 PUSH1 0x20 SWAP1 DUP2 MSTORE PUSH1 0x40 DUP1 DUP4 KECCAK256 PUSH1 0x1 PUSH1 0x1 PUSH1 0xA0 SHL SUB SWAP1 SWAP5 AND DUP4 MSTORE PUSH1 0x8 SWAP1 SWAP4 ADD SWAP1 MSTORE KECCAK256 SLOAD PUSH1 0xFF AND SWAP1 JUMP JUMPDEST CALLVALUE DUP1 ISZERO PUSH2 0x632 JUMPI PUSH0 DUP1 REVERT JUMPDEST POP PUSH1 0x4 SLOAD PUSH2 0x509 JUMP JUMPDEST CALLVALUE DUP1 ISZERO PUSH2 0x646 JUMPI PUSH0 DUP1 REVERT JUMPDEST POP PUSH2 0x42C PUSH2 0x1272 JUMP JUMPDEST CALLVALUE DUP1 ISZERO PUSH2 0x65A JUMPI PUSH0 DUP1 REVERT JUMPDEST POP PUSH2 0x509 PUSH1 0x28 SLOAD DUP2 JUMP JUMPDEST CALLVALUE DUP1 ISZERO PUSH2 0x66F JUMPI PUSH0 DUP1 REVERT JUMPDEST POP PUSH2 0x42C PUSH2 0x158C JUMP JUMPDEST CALLVALUE DUP1 ISZERO PUSH2 0x683 JUMPI PUSH0 DUP1 REVERT JUMPDEST POP PUSH2 0x42C PUSH2 0x692 CALLDATASIZE PUSH1 0x4 PUSH2 0x4287 JUMP JUMPDEST PUSH2 0x15C2 JUMP JUMPDEST CALLVALUE DUP1 ISZERO PUSH2 0x6A2 JUMPI PUSH0 DUP1 REVERT JUMPDEST POP PUSH2 0x42C PUSH2 0x6B1 CALLDATASIZE PUSH1 0x4 PUSH2 0x4338 JUMP JUMPDEST PUSH2 0x1646 JUMP JUMPDEST CALLVALUE DUP1 ISZERO PUSH2 0x6C1 JUMPI PUSH0 DUP1 REVERT JUMPDEST POP PUSH2 0x477 PUSH2 0x6D0 CALLDATASIZE PUSH1 0x4 PUSH2 0x436B JUMP JUMPDEST PUSH2 0x1678 JUMP JUMPDEST CALLVALUE DUP1 ISZERO PUSH2 0x6E0 JUMPI PUSH0 DUP1 REVERT JUMPDEST POP PUSH2 0x509 PUSH2 0x6EF CALLDATASIZE PUSH1 0x4 PUSH2 0x4208 JUMP JUMPDEST PUSH0 SWAP1 DUP2 MSTORE PUSH1 0x1 PUSH1 0x20 DUP2 SWAP1 MSTORE PUSH1 0x40 SWAP1 SWAP2 KECCAK256 ADD SLOAD SWAP1 JUMP JUMPDEST CALLVALUE DUP1 ISZERO PUSH2 0x70F JUMPI PUSH0 DUP1 REVERT JUMPDEST POP PUSH1 0x10 SLOAD PUSH2 0x723 SWAP1 PUSH1 0x1 PUSH1 0x1 PUSH1 0xA0 SHL SUB AND DUP2 JUMP JUMPDEST PUSH1 0x40 MLOAD PUSH1 0x1 PUSH1 0x1 PUSH1 0xA0 SHL SUB SWAP1 SWAP2 AND DUP2 MSTORE PUSH1 0x20 ADD PUSH2 0x483 JUMP JUMPDEST CALLVALUE DUP1 ISZERO PUSH2 0x746 JUMPI PUSH0 DUP1 REVERT JUMPDEST POP PUSH2 0x42C PUSH2 0x755 CALLDATASIZE PUSH1 0x4 PUSH2 0x43A9 JUMP JUMPDEST PUSH2 0x174B JUMP JUMPDEST CALLVALUE DUP1 ISZERO PUSH2 0x765 JUMPI PUSH0 DUP1 REVERT JUMPDEST POP PUSH1 0x40 MLOAD PUSH1 0x12 DUP2 MSTORE PUSH1 0x20 ADD PUSH2 0x483 JUMP JUMPDEST CALLVALUE DUP1 ISZERO PUSH2 0x780 JUMPI PUSH0 DUP1 REVERT JUMPDEST POP PUSH2 0x509 PUSH2 0x78F CALLDATASIZE PUSH1 0x4 PUSH2 0x4151 JUMP JUMPDEST PUSH1 0x1F PUSH1 0x20 MSTORE PUSH0 SWAP1 DUP2 MSTORE PUSH1 0x40 SWAP1 KECCAK256 SLOAD DUP2 JUMP JUMPDEST CALLVALUE DUP1 ISZERO PUSH2 0x7AB JUMPI PUSH0 DUP1 REVERT JUMPDEST POP PUSH2 0x42C PUSH2 0x7BA CALLDATASIZE PUSH1 0x4 PUSH2 0x43A9 JUMP JUMPDEST PUSH2 0x1776 JUMP JUMPDEST CALLVALUE DUP1 ISZERO PUSH2 0x7CA JUMPI PUSH0 DUP1 REVERT JUMPDEST POP PUSH2 0x42C PUSH2 0x17AE JUMP JUMPDEST CALLVALUE DUP1 ISZERO PUSH2 0x7DE JUMPI PUSH0 DUP1 REVERT JUMPDEST POP PUSH2 0x723 PUSH2 0x7ED CALLDATASIZE PUSH1 0x4 PUSH2 0x4151 JUMP JUMPDEST PUSH1 0x1D PUSH1 0x20 MSTORE PUSH0 SWAP1 DUP2 MSTORE PUSH1 0x40 SWAP1 KECCAK256 SLOAD PUSH1 0x1 PUSH1 0x1 PUSH1 0xA0 SHL SUB AND DUP2 JUMP JUMPDEST CALLVALUE DUP1 ISZERO PUSH2 0x812 JUMPI PUSH0 DUP1 REVERT JUMPDEST POP PUSH2 0x42C PUSH2 0x821 CALLDATASIZE PUSH1 0x4 PUSH2 0x4151 JUMP JUMPDEST PUSH2 0x1833 JUMP JUMPDEST CALLVALUE DUP1 ISZERO PUSH2 0x831 JUMPI PUSH0 DUP1 REVERT JUMPDEST POP PUSH2 0x509 PUSH1 0x33 SLOAD DUP2 JUMP JUMPDEST CALLVALUE DUP1 ISZERO PUSH2 0x846 JUMPI PUSH0 DUP1 REVERT JUMPDEST POP PUSH2 0x42C PUSH2 0x1893 JUMP JUMPDEST CALLVALUE DUP1 ISZERO PUSH2 0x85A JUMPI PUSH0 DUP1 REVERT JUMPDEST POP PUSH2 0x509 PUSH1 0x42 SLOAD DUP2 JUMP JUMPDEST CALLVALUE DUP1 ISZERO PUSH2 0x86F JUMPI PUSH0 DUP1 REVERT JUMPDEST POP PUSH2 0x509 PUSH2 0x87E CALLDATASIZE PUSH1 0x4 PUSH2 0x4151 JUMP JUMPDEST PUSH1 0x23 PUSH1 0x20 MSTORE PUSH0 SWAP1 DUP2 MSTORE PUSH1 0x40 SWAP1 KECCAK256 SLOAD DUP2 JUMP JUMPDEST CALLVALUE DUP1 ISZERO PUSH2 0x89A JUMPI PUSH0 DUP1 REVERT JUMPDEST POP PUSH2 0x477 PUSH2 0x8A9 CALLDATASIZE PUSH1 0x4 PUSH2 0x4151 JUMP JUMPDEST PUSH2 0x1A8F JUMP JUMPDEST CALLVALUE DUP1 ISZERO PUSH2 0x8B9 JUMPI PUSH0 DUP1 REVERT JUMPDEST POP PUSH2 0x509 PUSH1 0x2A SLOAD DUP2 JUMP JUMPDEST CALLVALUE DUP1 ISZERO PUSH2 0x8CE JUMPI PUSH0 DUP1 REVERT JUMPDEST POP PUSH2 0x477 PUSH2 0x8DD CALLDATASIZE PUSH1 0x4 PUSH2 0x4151 JUMP JUMPDEST PUSH1 0x1C PUSH1 0x20 MSTORE PUSH0 SWAP1 DUP2 MSTORE PUSH1 0x40 SWAP1 KECCAK256 SLOAD PUSH1 0xFF AND DUP2 JUMP JUMPDEST CALLVALUE DUP1 ISZERO PUSH2 0x8FC JUMPI PUSH0 DUP1 REVERT JUMPDEST POP PUSH2 0x42C PUSH2 0x90B CALLDATASIZE PUSH1 0x4 PUSH2 0x4338 JUMP JUMPDEST PUSH2 0x1A9B JUMP JUMPDEST CALLVALUE DUP1 ISZERO PUSH2 0x91B JUMPI PUSH0 DUP1 REVERT JUMPDEST POP PUSH2 0x924 PUSH2 0x1ACD JUMP JUMPDEST PUSH1 0x40 MLOAD PUSH2 0x483 SWAP2 SWAP1 PUSH2 0x4419 JUMP JUMPDEST CALLVALUE DUP1 ISZERO PUSH2 0x93C JUMPI PUSH0 DUP1 REVERT JUMPDEST POP PUSH2 0x42C PUSH2 0x1B39 JUMP JUMPDEST CALLVALUE DUP1 ISZERO PUSH2 0x950 JUMPI PUSH0 DUP1 REVERT JUMPDEST POP PUSH1 0x19 SLOAD PUSH2 0x477 SWAP1 PUSH1 0x1 PUSH1 0xA8 SHL SWAP1 DIV PUSH1 0xFF AND DUP2 JUMP JUMPDEST CALLVALUE DUP1 ISZERO PUSH2 0x970 JUMPI PUSH0 DUP1 REVERT JUMPDEST POP PUSH2 0x509 PUSH2 0x97F CALLDATASIZE PUSH1 0x4 PUSH2 0x4151 JUMP JUMPDEST PUSH2 0x1C8E JUMP JUMPDEST CALLVALUE DUP1 ISZERO PUSH2 0x98F JUMPI PUSH0 DUP1 REVERT JUMPDEST POP PUSH2 0x42C PUSH2 0x1CA8 JUMP JUMPDEST CALLVALUE DUP1 ISZERO PUSH2 0x9A3 JUMPI PUSH0 DUP1 REVERT JUMPDEST POP PUSH2 0x42C PUSH2 0x9B2 CALLDATASIZE PUSH1 0x4 PUSH2 0x4151 JUMP JUMPDEST PUSH2 0x1CB9 JUMP JUMPDEST CALLVALUE DUP1 ISZERO PUSH2 0x9C2 JUMPI PUSH0 DUP1 REVERT JUMPDEST POP PUSH2 0x509 PUSH0 DUP1 MLOAD PUSH1 0x20 PUSH2 0x47BB DUP4 CODECOPY DUP2 MLOAD SWAP2 MSTORE DUP2 JUMP JUMPDEST CALLVALUE DUP1 ISZERO PUSH2 0x9E2 JUMPI PUSH0 DUP1 REVERT JUMPDEST POP PUSH2 0x509 PUSH2 0x9F1 CALLDATASIZE PUSH1 0x4 PUSH2 0x4208 JUMP JUMPDEST PUSH2 0x1CFA JUMP JUMPDEST CALLVALUE DUP1 ISZERO PUSH2 0xA01 JUMPI PUSH0 DUP1 REVERT JUMPDEST POP PUSH2 0x477 PUSH2 0xA10 CALLDATASIZE PUSH1 0x4 PUSH2 0x4151 JUMP JUMPDEST PUSH1 0x24 PUSH1 0x20 MSTORE PUSH0 SWAP1 DUP2 MSTORE PUSH1 0x40 SWAP1 KECCAK256 SLOAD PUSH1 0xFF AND DUP2 JUMP JUMPDEST CALLVALUE DUP1 ISZERO PUSH2 0xA2F JUMPI PUSH0 DUP1 REVERT JUMPDEST POP PUSH0 SLOAD PUSH1 0x1 PUSH1 0x1 PUSH1 0xA0 SHL SUB AND PUSH2 0x723 JUMP JUMPDEST CALLVALUE DUP1 ISZERO PUSH2 0xA4B JUMPI PUSH0 DUP1 REVERT JUMPDEST POP PUSH2 0x477 PUSH2 0xA5A CALLDATASIZE PUSH1 0x4 PUSH2 0x43A9 JUMP JUMPDEST PUSH2 0x1D19 JUMP JUMPDEST CALLVALUE DUP1 ISZERO PUSH2 0xA6A JUMPI PUSH0 DUP1 REVERT JUMPDEST POP PUSH2 0x54B PUSH2 0x1D43 JUMP JUMPDEST CALLVALUE DUP1 ISZERO PUSH2 0xA7E JUMPI PUSH0 DUP1 REVERT JUMPDEST POP PUSH2 0x42C PUSH2 0xA8D CALLDATASIZE PUSH1 0x4 PUSH2 0x4151 JUMP JUMPDEST PUSH2 0x1D52 JUMP JUMPDEST CALLVALUE DUP1 ISZERO PUSH2 0xA9D JUMPI PUSH0 DUP1 REVERT JUMPDEST POP PUSH2 0x509 PUSH0 DUP2 JUMP JUMPDEST CALLVALUE DUP1 ISZERO PUSH2 0xAB0 JUMPI PUSH0 DUP1 REVERT JUMPDEST POP PUSH1 0x19 SLOAD PUSH2 0x723 SWAP1 PUSH1 0x1 PUSH1 0x1 PUSH1 0xA0 SHL SUB AND DUP2 JUMP JUMPDEST CALLVALUE DUP1 ISZERO PUSH2 0xACF JUMPI PUSH0 DUP1 REVERT JUMPDEST POP PUSH2 0x477 PUSH2 0xADE CALLDATASIZE PUSH1 0x4 PUSH2 0x41DE JUMP JUMPDEST PUSH2 0x1EDE JUMP JUMPDEST CALLVALUE DUP1 ISZERO PUSH2 0xAEE JUMPI PUSH0 DUP1 REVERT JUMPDEST POP PUSH2 0x509 PUSH1 0x26 SLOAD DUP2 JUMP JUMPDEST CALLVALUE DUP1 ISZERO PUSH2 0xB03 JUMPI PUSH0 DUP1 REVERT JUMPDEST POP PUSH2 0x509 PUSH2 0xB12 CALLDATASIZE PUSH1 0x4 PUSH2 0x4151 JUMP JUMPDEST PUSH1 0x1E PUSH1 0x20 MSTORE PUSH0 SWAP1 DUP2 MSTORE PUSH1 0x40 SWAP1 KECCAK256 SLOAD DUP2 JUMP JUMPDEST CALLVALUE DUP1 ISZERO PUSH2 0xB2E JUMPI PUSH0 DUP1 REVERT JUMPDEST POP PUSH2 0xB37 PUSH2 0x1F0F JUMP JUMPDEST PUSH1 0x40 MLOAD PUSH2 0x483 SWAP2 SWAP1 PUSH2 0x442B JUMP JUMPDEST CALLVALUE DUP1 ISZERO PUSH2 0xB4F JUMPI PUSH0 DUP1 REVERT JUMPDEST POP PUSH1 0x40 SLOAD PUSH2 0x477 SWAP1 PUSH1 0xFF AND DUP2 JUMP JUMPDEST CALLVALUE DUP1 ISZERO PUSH2 0xB68 JUMPI PUSH0 DUP1 REVERT JUMPDEST POP PUSH2 0x509 PUSH1 0x43 SLOAD DUP2 JUMP JUMPDEST CALLVALUE DUP1 ISZERO PUSH2 0xB7D JUMPI PUSH0 DUP1 REVERT JUMPDEST POP PUSH2 0xBAC PUSH2 0xB8C CALLDATASIZE PUSH1 0x4 PUSH2 0x4208 JUMP JUMPDEST PUSH1 0x27 PUSH1 0x20 MSTORE PUSH0 SWAP1 DUP2 MSTORE PUSH1 0x40 SWAP1 KECCAK256 DUP1 SLOAD PUSH1 0x1 DUP3 ADD SLOAD PUSH1 0x2 SWAP1 SWAP3 ADD SLOAD SWAP1 SWAP2 SWAP1 DUP4 JUMP JUMPDEST PUSH1 0x40 DUP1 MLOAD SWAP4 DUP5 MSTORE PUSH1 0x20 DUP5 ADD SWAP3 SWAP1 SWAP3 MSTORE SWAP1 DUP3 ADD MSTORE PUSH1 0x60 ADD PUSH2 0x483 JUMP JUMPDEST CALLVALUE DUP1 ISZERO PUSH2 0xBD2 JUMPI PUSH0 DUP1 REVERT JUMPDEST POP PUSH2 0x42C PUSH2 0x1F4E JUMP JUMPDEST CALLVALUE DUP1 ISZERO PUSH2 0xBE6 JUMPI PUSH0 DUP1 REVERT JUMPDEST POP PUSH2 0x42C PUSH2 0x1F5E JUMP JUMPDEST CALLVALUE DUP1 ISZERO PUSH2 0xBFA JUMPI PUSH0 DUP1 REVERT JUMPDEST POP PUSH2 0x42C PUSH2 0xC09 CALLDATASIZE PUSH1 0x4 PUSH2 0x43A9 JUMP JUMPDEST PUSH2 0x2300 JUMP JUMPDEST CALLVALUE DUP1 ISZERO PUSH2 0xC19 JUMPI PUSH0 DUP1 REVERT JUMPDEST POP PUSH2 0x509 PUSH2 0xC28 CALLDATASIZE PUSH1 0x4 PUSH2 0x4464 JUMP JUMPDEST PUSH1 0x1 PUSH1 0x1 PUSH1 0xA0 SHL SUB SWAP2 DUP3 AND PUSH0 SWAP1 DUP2 MSTORE PUSH1 0x8 PUSH1 0x20 SWAP1 DUP2 MSTORE PUSH1 0x40 DUP1 DUP4 KECCAK256 SWAP4 SWAP1 SWAP5 AND DUP3 MSTORE SWAP2 SWAP1 SWAP2 MSTORE KECCAK256 SLOAD SWAP1 JUMP JUMPDEST CALLVALUE DUP1 ISZERO PUSH2 0xC5D JUMPI PUSH0 DUP1 REVERT JUMPDEST POP PUSH2 0x42C PUSH2 0xC6C CALLDATASIZE PUSH1 0x4 PUSH2 0x4490 JUMP JUMPDEST PUSH2 0x2325 JUMP JUMPDEST CALLVALUE DUP1 ISZERO PUSH2 0xC7C JUMPI PUSH0 DUP1 REVERT JUMPDEST POP PUSH2 0x42C PUSH2 0xC8B CALLDATASIZE PUSH1 0x4 PUSH2 0x4208 JUMP JUMPDEST PUSH2 0x23A0 JUMP JUMPDEST CALLVALUE DUP1 ISZERO PUSH2 0xC9B JUMPI PUSH0 DUP1 REVERT JUMPDEST POP PUSH2 0x42C PUSH2 0xCAA CALLDATASIZE PUSH1 0x4 PUSH2 0x4151 JUMP JUMPDEST PUSH2 0x2423 JUMP JUMPDEST CALLVALUE DUP1 ISZERO PUSH2 0xCBA JUMPI PUSH0 DUP1 REVERT JUMPDEST POP PUSH2 0x42C PUSH2 0xCC9 CALLDATASIZE PUSH1 0x4 PUSH2 0x44AA JUMP JUMPDEST PUSH2 0x245D JUMP JUMPDEST CALLVALUE DUP1 ISZERO PUSH2 0xCD9 JUMPI PUSH0 DUP1 REVERT JUMPDEST POP PUSH1 0x18 SLOAD PUSH2 0x723 SWAP1 PUSH1 0x1 PUSH1 0x1 PUSH1 0xA0 SHL SUB AND DUP2 JUMP JUMPDEST CALLVALUE DUP1 ISZERO PUSH2 0xCF8 JUMPI PUSH0 DUP1 REVERT JUMPDEST POP PUSH1 0x21 SLOAD PUSH2 0x723 SWAP1 PUSH1 0x1 PUSH1 0x1 PUSH1 0xA0 SHL SUB AND DUP2 JUMP JUMPDEST CALLVALUE DUP1 ISZERO PUSH2 0xD17 JUMPI PUSH0 DUP1 REVERT JUMPDEST POP PUSH2 0x509 PUSH1 0x14 SLOAD DUP2 JUMP JUMPDEST CALLVALUE DUP1 ISZERO PUSH2 0xD2C JUMPI PUSH0 DUP1 REVERT JUMPDEST POP PUSH2 0x42C PUSH2 0xD3B CALLDATASIZE PUSH1 0x4 PUSH2 0x4208 JUMP JUMPDEST PUSH2 0x26B3 JUMP JUMPDEST CALLVALUE DUP1 ISZERO PUSH2 0xD4B JUMPI PUSH0 DUP1 REVERT JUMPDEST POP PUSH2 0x477 PUSH2 0xD5A CALLDATASIZE PUSH1 0x4 PUSH2 0x4151 JUMP JUMPDEST PUSH1 0x26 SLOAD PUSH0 SWAP1 DUP2 MSTORE PUSH1 0x27 PUSH1 0x20 SWAP1 DUP2 MSTORE PUSH1 0x40 DUP1 DUP4 KECCAK256 PUSH1 0x1 PUSH1 0x1 PUSH1 0xA0 SHL SUB SWAP1 SWAP5 AND DUP4 MSTORE PUSH1 0x3 SWAP1 SWAP4 ADD SWAP1 MSTORE KECCAK256 SLOAD PUSH1 0xFF AND SWAP1 JUMP JUMPDEST PUSH1 0x1 PUSH1 0x1 PUSH1 0xA0 SHL SUB DUP2 AND CALLER EQ PUSH2 0xDD7 JUMPI PUSH1 0x40 MLOAD PUSH3 0x461BCD PUSH1 0xE5 SHL DUP2 MSTORE PUSH1 0x20 PUSH1 0x4 DUP3 ADD MSTORE PUSH1 0xE PUSH1 0x24 DUP3 ADD MSTORE PUSH14 0x139BDD08185D5D1A1BDC9A5E9959 PUSH1 0x92 SHL PUSH1 0x44 DUP3 ADD MSTORE PUSH1 0x64 ADD JUMPDEST PUSH1 0x40 MLOAD DUP1 SWAP2 SUB SWAP1 REVERT JUMPDEST PUSH1 0x26 SLOAD PUSH0 SWAP1 DUP2 MSTORE PUSH1 0x27 PUSH1 0x20 MSTORE PUSH1 0x40 SWAP1 KECCAK256 PUSH1 0x2 ADD SLOAD TIMESTAMP LT PUSH2 0xE09 JUMPI PUSH1 0x40 MLOAD PUSH3 0x461BCD PUSH1 0xE5 SHL DUP2 MSTORE PUSH1 0x4 ADD PUSH2 0xDCE SWAP1 PUSH2 0x453F JUMP JUMPDEST PUSH1 0x26 SLOAD PUSH0 SWAP1 DUP2 MSTORE PUSH1 0x27 PUSH1 0x20 SWAP1 DUP2 MSTORE PUSH1 0x40 DUP1 DUP4 KECCAK256 CALLER DUP5 MSTORE PUSH1 0x7 ADD SWAP1 SWAP2 MSTORE DUP2 KECCAK256 SLOAD SWAP1 SUB PUSH2 0xE8D JUMPI PUSH1 0x40 MLOAD PUSH3 0x461BCD PUSH1 0xE5 SHL DUP2 MSTORE PUSH1 0x20 PUSH1 0x4 DUP3 ADD MSTORE PUSH1 0x2E PUSH1 0x24 DUP3 ADD MSTORE PUSH32 0x596F7520686176656E277420626F7567687420612063617073756C6520647572 PUSH1 0x44 DUP3 ADD MSTORE PUSH14 0xD2DCCE40E8D0D2E640CAE0DEC6D PUSH1 0x93 SHL PUSH1 0x64 DUP3 ADD MSTORE PUSH1 0x84 ADD PUSH2 0xDCE JUMP JUMPDEST PUSH1 0x26 SLOAD PUSH0 SWAP1 DUP2 MSTORE PUSH1 0x27 PUSH1 0x20 SWAP1 DUP2 MSTORE PUSH1 0x40 DUP1 DUP4 KECCAK256 CALLER DUP5 MSTORE PUSH1 0x5 ADD SWAP1 SWAP2 MSTORE SWAP1 KECCAK256 SLOAD PUSH1 0xFF AND ISZERO PUSH2 0xF07 JUMPI PUSH1 0x40 MLOAD PUSH3 0x461BCD PUSH1 0xE5 SHL DUP2 MSTORE PUSH1 0x20 PUSH1 0x4 DUP3 ADD MSTORE PUSH1 0x22 PUSH1 0x24 DUP3 ADD MSTORE PUSH32 0x596F7527766520616C7265616479206F70656E656420796F7572206361707375 PUSH1 0x44 DUP3 ADD MSTORE PUSH2 0x6C65 PUSH1 0xF0 SHL PUSH1 0x64 DUP3 ADD MSTORE PUSH1 0x84 ADD PUSH2 0xDCE JUMP JUMPDEST PUSH1 0x26 SLOAD PUSH0 SWAP1 DUP2 MSTORE PUSH1 0x27 PUSH1 0x20 SWAP1 DUP2 MSTORE PUSH1 0x40 DUP1 DUP4 KECCAK256 CALLER DUP5 MSTORE PUSH1 0x8 ADD SWAP1 SWAP2 MSTORE SWAP1 KECCAK256 SLOAD PUSH1 0xFF AND ISZERO ISZERO PUSH1 0x1 EQ PUSH2 0xF8A JUMPI PUSH1 0x40 MLOAD PUSH3 0x461BCD PUSH1 0xE5 SHL DUP2 MSTORE PUSH1 0x20 PUSH1 0x4 DUP3 ADD MSTORE PUSH1 0x27 PUSH1 0x24 DUP3 ADD MSTORE PUSH32 0x596F75722072657175657374206861736E2774206265656E2066756C6C66696C PUSH1 0x44 DUP3 ADD MSTORE PUSH7 0x1B1959081E595D PUSH1 0xCA SHL PUSH1 0x64 DUP3 ADD MSTORE PUSH1 0x84 ADD PUSH2 0xDCE JUMP JUMPDEST PUSH1 0x26 SLOAD PUSH0 SWAP1 DUP2 MSTORE PUSH1 0x27 PUSH1 0x20 SWAP1 DUP2 MSTORE PUSH1 0x40 DUP1 DUP4 KECCAK256 CALLER DUP5 MSTORE PUSH1 0x7 ADD SWAP1 SWAP2 MSTORE DUP2 KECCAK256 SLOAD PUSH2 0xFB2 SWAP1 PUSH2 0x26D0 JUMP JUMPDEST SWAP1 POP PUSH1 0x1 DUP2 LT ISZERO DUP1 ISZERO PUSH2 0xFC6 JUMPI POP PUSH1 0x28 DUP2 GT ISZERO JUMPDEST ISZERO PUSH2 0x1003 JUMPI PUSH1 0x2F DUP1 SLOAD SWAP1 PUSH0 PUSH2 0xFDA DUP4 PUSH2 0x4597 JUMP JUMPDEST SWAP1 SWAP2 SSTORE POP POP PUSH1 0x2B DUP1 SLOAD SWAP1 PUSH0 PUSH2 0xFEE DUP4 PUSH2 0x4597 JUMP JUMPDEST SWAP2 SWAP1 POP SSTORE POP PUSH2 0xFFF DUP3 PUSH1 0x1 PUSH0 PUSH2 0x280F JUMP JUMPDEST POP POP JUMP JUMPDEST PUSH1 0x29 DUP2 LT ISZERO DUP1 ISZERO PUSH2 0x1015 JUMPI POP PUSH1 0x4B DUP2 GT ISZERO JUMPDEST ISZERO PUSH2 0x104E JUMPI PUSH1 0x30 DUP1 SLOAD SWAP1 PUSH0 PUSH2 0x1029 DUP4 PUSH2 0x4597 JUMP JUMPDEST SWAP1 SWAP2 SSTORE POP POP PUSH1 0x2C DUP1 SLOAD SWAP1 PUSH0 PUSH2 0x103D DUP4 PUSH2 0x4597 JUMP JUMPDEST SWAP2 SWAP1 POP SSTORE POP PUSH2 0xFFF DUP3 PUSH1 0x2 PUSH0 PUSH2 0x280F JUMP JUMPDEST PUSH1 0x4C DUP2 LT ISZERO DUP1 ISZERO PUSH2 0x1060 JUMPI POP PUSH1 0x61 DUP2 GT ISZERO JUMPDEST ISZERO PUSH2 0x1099 JUMPI PUSH1 0x31 DUP1 SLOAD SWAP1 PUSH0 PUSH2 0x1074 DUP4 PUSH2 0x4597 JUMP JUMPDEST SWAP1 SWAP2 SSTORE POP POP PUSH1 0x2D DUP1 SLOAD SWAP1 PUSH0 PUSH2 0x1088 DUP4 PUSH2 0x4597 JUMP JUMPDEST SWAP2 SWAP1 POP SSTORE POP PUSH2 0xFFF DUP3 PUSH1 0x3 PUSH0 PUSH2 0x280F JUMP JUMPDEST PUSH1 0x62 DUP2 LT ISZERO DUP1 ISZERO PUSH2 0x10AC JUMPI POP PUSH1 0x22 SLOAD DUP2 GT ISZERO JUMPDEST ISZERO PUSH2 0xFFF JUMPI PUSH1 0x32 DUP1 SLOAD SWAP1 PUSH0 PUSH2 0x10C0 DUP4 PUSH2 0x4597 JUMP JUMPDEST SWAP1 SWAP2 SSTORE POP POP PUSH1 0x2E DUP1 SLOAD SWAP1 PUSH0 PUSH2 0x10D4 DUP4 PUSH2 0x4597 JUMP JUMPDEST SWAP1 SWAP2 SSTORE POP POP PUSH1 0x26 SLOAD PUSH0 SWAP1 DUP2 MSTORE PUSH1 0x27 PUSH1 0x20 SWAP1 DUP2 MSTORE PUSH1 0x40 DUP3 KECCAK256 PUSH1 0x9 ADD DUP1 SLOAD PUSH1 0x1 DUP1 DUP3 ADD DUP4 SSTORE SWAP2 DUP5 MSTORE SWAP2 SWAP1 SWAP3 KECCAK256 ADD DUP1 SLOAD PUSH1 0x1 PUSH1 0x1 PUSH1 0xA0 SHL SUB NOT AND PUSH1 0x1 PUSH1 0x1 PUSH1 0xA0 SHL SUB DUP6 AND OR SWAP1 SSTORE PUSH2 0xFFF SWAP1 DUP4 SWAP1 DUP1 PUSH2 0x280F JUMP JUMPDEST PUSH0 PUSH1 0x1 PUSH1 0x1 PUSH1 0xE0 SHL SUB NOT DUP3 AND PUSH4 0x7965DB0B PUSH1 0xE0 SHL EQ DUP1 PUSH2 0x1154 JUMPI POP PUSH4 0x1FFC9A7 PUSH1 0xE0 SHL PUSH1 0x1 PUSH1 0x1 PUSH1 0xE0 SHL SUB NOT DUP4 AND EQ JUMPDEST SWAP3 SWAP2 POP POP JUMP JUMPDEST PUSH1 0x60 PUSH1 0x2 DUP1 SLOAD PUSH2 0x1169 SWAP1 PUSH2 0x45AF JUMP JUMPDEST DUP1 PUSH1 0x1F ADD PUSH1 0x20 DUP1 SWAP2 DIV MUL PUSH1 0x20 ADD PUSH1 0x40 MLOAD SWAP1 DUP2 ADD PUSH1 0x40 MSTORE DUP1 SWAP3 SWAP2 SWAP1 DUP2 DUP2 MSTORE PUSH1 0x20 ADD DUP3 DUP1 SLOAD PUSH2 0x1195 SWAP1 PUSH2 0x45AF JUMP JUMPDEST DUP1 ISZERO PUSH2 0x11E0 JUMPI DUP1 PUSH1 0x1F LT PUSH2 0x11B7 JUMPI PUSH2 0x100 DUP1 DUP4 SLOAD DIV MUL DUP4 MSTORE SWAP2 PUSH1 0x20 ADD SWAP2 PUSH2 0x11E0 JUMP JUMPDEST DUP3 ADD SWAP2 SWAP1 PUSH0 MSTORE PUSH1 0x20 PUSH0 KECCAK256 SWAP1 JUMPDEST DUP2 SLOAD DUP2 MSTORE SWAP1 PUSH1 0x1 ADD SWAP1 PUSH1 0x20 ADD DUP1 DUP4 GT PUSH2 0x11C3 JUMPI DUP3 SWAP1 SUB PUSH1 0x1F AND DUP3 ADD SWAP2 JUMPDEST POP POP POP POP POP SWAP1 POP SWAP1 JUMP JUMPDEST CALLER PUSH0 DUP2 DUP2 MSTORE PUSH1 0x8 PUSH1 0x20 SWAP1 DUP2 MSTORE PUSH1 0x40 DUP1 DUP4 KECCAK256 PUSH1 0x1 PUSH1 0x1 PUSH1 0xA0 SHL SUB DUP8 AND DUP1 DUP6 MSTORE SWAP3 MSTORE DUP1 DUP4 KECCAK256 DUP6 SWAP1 SSTORE MLOAD SWAP2 SWAP3 SWAP1 SWAP2 PUSH32 0x8C5BE1E5EBEC7D5BD14F71427D1E84F3DD0314C0F7B2291E5B200AC8C7C3B925 SWAP1 PUSH2 0x1244 SWAP1 DUP7 DUP2 MSTORE PUSH1 0x20 ADD SWAP1 JUMP JUMPDEST PUSH1 0x40 MLOAD DUP1 SWAP2 SUB SWAP1 LOG3 POP PUSH1 0x1 SWAP3 SWAP2 POP POP JUMP JUMPDEST PUSH0 DUP1 MLOAD PUSH1 0x20 PUSH2 0x47BB DUP4 CODECOPY DUP2 MLOAD SWAP2 MSTORE PUSH2 0x126C DUP2 PUSH2 0x2908 JUMP JUMPDEST POP PUSH1 0x2A SSTORE JUMP JUMPDEST PUSH0 PUSH2 0x3E8 PUSH1 0x2A SLOAD PUSH2 0x2EE PUSH2 0x1286 SWAP2 SWAP1 PUSH2 0x45E1 JUMP JUMPDEST PUSH2 0x1290 SWAP2 SWAP1 PUSH2 0x460C JUMP JUMPDEST PUSH1 0x26 SLOAD PUSH0 SWAP1 DUP2 MSTORE PUSH1 0x27 PUSH1 0x20 SWAP1 DUP2 MSTORE PUSH1 0x40 DUP1 DUP4 KECCAK256 CALLER DUP5 MSTORE PUSH1 0x3 ADD SWAP1 SWAP2 MSTORE SWAP1 KECCAK256 SLOAD SWAP1 SWAP2 POP PUSH1 0xFF AND ISZERO PUSH2 0x131E JUMPI PUSH1 0x40 MLOAD PUSH3 0x461BCD PUSH1 0xE5 SHL DUP2 MSTORE PUSH1 0x20 PUSH1 0x4 DUP3 ADD MSTORE PUSH1 0x33 PUSH1 0x24 DUP3 ADD MSTORE PUSH32 0x596F752068617665206F6E6C79206F6E6520616374696F6E207065722065706F PUSH1 0x44 DUP3 ADD MSTORE PUSH19 0x6368203A20627579206F722075706772616465 PUSH1 0x68 SHL PUSH1 0x64 DUP3 ADD MSTORE PUSH1 0x84 ADD PUSH2 0xDCE JUMP JUMPDEST PUSH1 0x26 SLOAD PUSH0 SWAP1 DUP2 MSTORE PUSH1 0x27 PUSH1 0x20 SWAP1 DUP2 MSTORE PUSH1 0x40 DUP1 DUP4 KECCAK256 CALLER DUP5 MSTORE PUSH1 0x4 ADD SWAP1 SWAP2 MSTORE SWAP1 KECCAK256 SLOAD PUSH1 0xFF AND ISZERO PUSH2 0x13AC JUMPI PUSH1 0x40 MLOAD PUSH3 0x461BCD PUSH1 0xE5 SHL DUP2 MSTORE PUSH1 0x20 PUSH1 0x4 DUP3 ADD MSTORE PUSH1 0x36 PUSH1 0x24 DUP3 ADD MSTORE PUSH32 0x596F7527766520616C726561647920757067726164656420796F757220766163 PUSH1 0x44 DUP3 ADD MSTORE PUSH22 0xC6D2DCCA40C8EAE4D2DCCE40E8D0D2E640CAE0DEC6D PUSH1 0x53 SHL PUSH1 0x64 DUP3 ADD MSTORE PUSH1 0x84 ADD PUSH2 0xDCE JUMP JUMPDEST CALLER PUSH0 SWAP1 DUP2 MSTORE PUSH1 0x23 PUSH1 0x20 MSTORE PUSH1 0x40 SWAP1 KECCAK256 SLOAD ISZERO DUP1 ISZERO SWAP1 PUSH2 0x13D7 JUMPI POP CALLER PUSH0 SWAP1 DUP2 MSTORE PUSH1 0x23 PUSH1 0x20 MSTORE PUSH1 0x40 SWAP1 KECCAK256 SLOAD PUSH1 0x3 GT JUMPDEST PUSH2 0x142F JUMPI PUSH1 0x40 MLOAD PUSH3 0x461BCD PUSH1 0xE5 SHL DUP2 MSTORE PUSH1 0x20 PUSH1 0x4 DUP3 ADD MSTORE PUSH1 0x23 PUSH1 0x24 DUP3 ADD MSTORE PUSH32 0x596F7520646F6E2774206861766520612076616363696E6520746F2075706772 PUSH1 0x44 DUP3 ADD MSTORE PUSH3 0x616465 PUSH1 0xE8 SHL PUSH1 0x64 DUP3 ADD MSTORE PUSH1 0x84 ADD PUSH2 0xDCE JUMP JUMPDEST DUP1 PUSH2 0x1439 CALLER PUSH2 0x1C8E JUMP JUMPDEST LT ISZERO PUSH2 0x1499 JUMPI PUSH1 0x40 MLOAD PUSH3 0x461BCD PUSH1 0xE5 SHL DUP2 MSTORE PUSH1 0x20 PUSH1 0x4 DUP3 ADD MSTORE PUSH1 0x29 PUSH1 0x24 DUP3 ADD MSTORE PUSH32 0x4E6F7420656E6F75676820746F6B656E7320746F207570677261646520796F75 PUSH1 0x44 DUP3 ADD MSTORE PUSH9 0x722076616363696E65 PUSH1 0xB8 SHL PUSH1 0x64 DUP3 ADD MSTORE PUSH1 0x84 ADD PUSH2 0xDCE JUMP JUMPDEST PUSH1 0x26 SLOAD PUSH0 SWAP1 DUP2 MSTORE PUSH1 0x27 PUSH1 0x20 MSTORE PUSH1 0x40 SWAP1 KECCAK256 PUSH1 0x2 ADD SLOAD TIMESTAMP LT PUSH2 0x14CB JUMPI PUSH1 0x40 MLOAD PUSH3 0x461BCD PUSH1 0xE5 SHL DUP2 MSTORE PUSH1 0x4 ADD PUSH2 0xDCE SWAP1 PUSH2 0x453F JUMP JUMPDEST PUSH1 0x40 SLOAD PUSH2 0x100 SWAP1 DIV PUSH1 0xFF AND ISZERO PUSH2 0x14F3 JUMPI PUSH1 0x40 MLOAD PUSH3 0x461BCD PUSH1 0xE5 SHL DUP2 MSTORE PUSH1 0x4 ADD PUSH2 0xDCE SWAP1 PUSH2 0x461F JUMP JUMPDEST PUSH1 0x26 SLOAD PUSH0 SWAP1 DUP2 MSTORE PUSH1 0x27 PUSH1 0x20 SWAP1 DUP2 MSTORE PUSH1 0x40 DUP1 DUP4 KECCAK256 CALLER DUP5 MSTORE PUSH1 0x4 ADD SWAP1 SWAP2 MSTORE DUP2 KECCAK256 DUP1 SLOAD PUSH1 0xFF NOT AND PUSH1 0x1 OR SWAP1 SSTORE PUSH2 0x3E8 PUSH2 0x152A DUP4 PUSH1 0x32 PUSH2 0x45E1 JUMP JUMPDEST PUSH2 0x1534 SWAP2 SWAP1 PUSH2 0x460C JUMP JUMPDEST PUSH1 0x21 SLOAD SWAP1 SWAP2 POP PUSH0 SWAP1 PUSH2 0x155A SWAP1 CALLER SWAP1 PUSH1 0x1 PUSH1 0x1 PUSH1 0xA0 SHL SUB AND PUSH2 0x1555 DUP6 DUP8 PUSH2 0x4645 JUMP JUMPDEST PUSH2 0x2912 JUMP JUMPDEST SWAP1 POP PUSH2 0x1567 CALLER ADDRESS DUP5 PUSH2 0x2912 JUMP JUMPDEST POP CALLER PUSH0 SWAP1 DUP2 MSTORE PUSH1 0x23 PUSH1 0x20 MSTORE PUSH1 0x40 DUP2 KECCAK256 DUP1 SLOAD SWAP2 PUSH2 0x1582 DUP4 PUSH2 0x4597 JUMP JUMPDEST SWAP2 SWAP1 POP SSTORE POP POP POP POP JUMP JUMPDEST PUSH2 0x1594 PUSH2 0x29B6 JUMP JUMPDEST PUSH1 0x19 DUP1 SLOAD PUSH2 0xFFFF PUSH1 0xA0 SHL NOT AND PUSH2 0x101 PUSH1 0xA0 SHL OR SWAP1 DUP2 SWAP1 SSTORE PUSH1 0xFF PUSH1 0x1 PUSH1 0xA0 SHL SWAP1 SWAP2 DIV AND ISZERO PUSH2 0x15C0 JUMPI TIMESTAMP PUSH1 0x49 SSTORE JUMPDEST JUMP JUMPDEST CALLER PUSH1 0x1 PUSH1 0x1 PUSH1 0xA0 SHL SUB PUSH32 0x0 AND EQ PUSH2 0x163C JUMPI PUSH1 0x40 MLOAD PUSH4 0x73E64FD PUSH1 0xE2 SHL DUP2 MSTORE CALLER PUSH1 0x4 DUP3 ADD MSTORE PUSH1 0x1 PUSH1 0x1 PUSH1 0xA0 SHL SUB PUSH32 0x0 AND PUSH1 0x24 DUP3 ADD MSTORE PUSH1 0x44 ADD PUSH2 0xDCE JUMP JUMPDEST PUSH2 0xFFF DUP3 DUP3 PUSH2 0x29E2 JUMP JUMPDEST PUSH2 0x164E PUSH2 0x29B6 JUMP JUMPDEST PUSH1 0x1 PUSH1 0x1 PUSH1 0xA0 SHL SUB SWAP2 SWAP1 SWAP2 AND PUSH0 SWAP1 DUP2 MSTORE PUSH1 0xA PUSH1 0x20 MSTORE PUSH1 0x40 SWAP1 KECCAK256 DUP1 SLOAD PUSH1 0xFF NOT AND SWAP2 ISZERO ISZERO SWAP2 SWAP1 SWAP2 OR SWAP1 SSTORE JUMP JUMPDEST PUSH1 0x1 PUSH1 0x1 PUSH1 0xA0 SHL SUB DUP4 AND PUSH0 SWAP1 DUP2 MSTORE PUSH1 0x8 PUSH1 0x20 SWAP1 DUP2 MSTORE PUSH1 0x40 DUP1 DUP4 KECCAK256 CALLER DUP5 MSTORE SWAP1 SWAP2 MSTORE DUP2 KECCAK256 SLOAD DUP3 GT ISZERO PUSH2 0x16FB JUMPI PUSH1 0x40 MLOAD PUSH3 0x461BCD PUSH1 0xE5 SHL DUP2 MSTORE PUSH1 0x20 PUSH1 0x4 DUP3 ADD MSTORE PUSH1 0x28 PUSH1 0x24 DUP3 ADD MSTORE PUSH32 0x45524332303A207472616E7366657220616D6F756E7420657863656564732061 PUSH1 0x44 DUP3 ADD MSTORE PUSH8 0x6C6C6F77616E6365 PUSH1 0xC0 SHL PUSH1 0x64 DUP3 ADD MSTORE PUSH1 0x84 ADD PUSH2 0xDCE JUMP JUMPDEST PUSH2 0x1706 DUP5 DUP5 DUP5 PUSH2 0x2AE5 JUMP JUMPDEST POP PUSH1 0x1 PUSH1 0x1 PUSH1 0xA0 SHL SUB DUP5 AND PUSH0 SWAP1 DUP2 MSTORE PUSH1 0x8 PUSH1 0x20 SWAP1 DUP2 MSTORE PUSH1 0x40 DUP1 DUP4 KECCAK256 CALLER DUP1 DUP6 MSTORE SWAP3 MSTORE SWAP1 SWAP2 KECCAK256 SLOAD PUSH2 0x1741 SWAP2 DUP7 SWAP2 PUSH2 0x173C SWAP1 DUP7 SWAP1 PUSH2 0x4645 JUMP JUMPDEST PUSH2 0x2ED5 JUMP JUMPDEST POP PUSH1 0x1 SWAP4 SWAP3 POP POP POP JUMP JUMPDEST PUSH0 DUP3 DUP2 MSTORE PUSH1 0x1 PUSH1 0x20 DUP2 SWAP1 MSTORE PUSH1 0x40 SWAP1 SWAP2 KECCAK256 ADD SLOAD PUSH2 0x1766 DUP2 PUSH2 0x2908 JUMP JUMPDEST PUSH2 0x1770 DUP4 DUP4 PUSH2 0x2FF8 JUMP JUMPDEST POP POP POP POP JUMP JUMPDEST PUSH1 0x1 PUSH1 0x1 PUSH1 0xA0 SHL SUB DUP2 AND CALLER EQ PUSH2 0x179F JUMPI PUSH1 0x40 MLOAD PUSH4 0x334BD919 PUSH1 0xE1 SHL DUP2 MSTORE PUSH1 0x4 ADD PUSH1 0x40 MLOAD DUP1 SWAP2 SUB SWAP1 REVERT JUMPDEST PUSH2 0x17A9 DUP3 DUP3 PUSH2 0x306E JUMP JUMPDEST POP POP POP JUMP JUMPDEST PUSH0 DUP1 MLOAD PUSH1 0x20 PUSH2 0x47BB DUP4 CODECOPY DUP2 MLOAD SWAP2 MSTORE PUSH2 0x17C5 DUP2 PUSH2 0x2908 JUMP JUMPDEST PUSH1 0x40 SLOAD PUSH2 0x100 SWAP1 DIV PUSH1 0xFF AND ISZERO PUSH2 0x17ED JUMPI PUSH1 0x40 MLOAD PUSH3 0x461BCD PUSH1 0xE5 SHL DUP2 MSTORE PUSH1 0x4 ADD PUSH2 0xDCE SWAP1 PUSH2 0x461F JUMP JUMPDEST PUSH2 0x17F5 PUSH2 0x30D9 JUMP JUMPDEST PUSH32 0xA7EF457C4BDAA5CF9805314EBB0D85316230DE6508DF8BA03DB8E27901CC147D PUSH1 0x26 SLOAD PUSH1 0x40 MLOAD PUSH2 0x1828 SWAP2 DUP2 MSTORE PUSH1 0x20 ADD SWAP1 JUMP JUMPDEST PUSH1 0x40 MLOAD DUP1 SWAP2 SUB SWAP1 LOG1 POP JUMP JUMPDEST PUSH2 0x183B PUSH2 0x29B6 JUMP JUMPDEST PUSH1 0x10 DUP1 SLOAD PUSH1 0x1 PUSH1 0x1 PUSH1 0xA0 SHL SUB NOT AND PUSH1 0x1 PUSH1 0x1 PUSH1 0xA0 SHL SUB SWAP3 DUP4 AND SWAP1 DUP2 OR DUP3 SSTORE PUSH0 SWAP1 DUP2 MSTORE PUSH1 0x9 PUSH1 0x20 SWAP1 DUP2 MSTORE PUSH1 0x40 DUP1 DUP4 KECCAK256 DUP1 SLOAD PUSH1 0xFF NOT SWAP1 DUP2 AND PUSH1 0x1 SWAP1 DUP2 OR SWAP1 SWAP3 SSTORE SWAP5 SLOAD SWAP1 SWAP6 AND DUP4 MSTORE PUSH1 0xA SWAP1 SWAP2 MSTORE SWAP1 KECCAK256 DUP1 SLOAD SWAP1 SWAP2 AND SWAP1 SWAP2 OR SWAP1 SSTORE JUMP JUMPDEST CALLER ORIGIN EQ PUSH2 0x18CA JUMPI PUSH1 0x40 MLOAD PUSH3 0x461BCD PUSH1 0xE5 SHL DUP2 MSTORE PUSH1 0x20 PUSH1 0x4 DUP3 ADD MSTORE PUSH1 0x5 PUSH1 0x24 DUP3 ADD MSTORE PUSH5 0x32B93937B9 PUSH1 0xD9 SHL PUSH1 0x44 DUP3 ADD MSTORE PUSH1 0x64 ADD PUSH2 0xDCE JUMP JUMPDEST CALLER PUSH0 SWAP1 DUP2 MSTORE PUSH1 0x1F PUSH1 0x20 MSTORE PUSH1 0x40 SWAP1 KECCAK256 SLOAD PUSH2 0x191A JUMPI PUSH1 0x40 MLOAD PUSH3 0x461BCD PUSH1 0xE5 SHL DUP2 MSTORE PUSH1 0x20 PUSH1 0x4 DUP3 ADD MSTORE PUSH1 0x12 PUSH1 0x24 DUP3 ADD MSTORE PUSH18 0x6E6F2070656E64696E672072657761726473 PUSH1 0x70 SHL PUSH1 0x44 DUP3 ADD MSTORE PUSH1 0x64 ADD PUSH2 0xDCE JUMP JUMPDEST CALLER PUSH0 SWAP1 DUP2 MSTORE PUSH1 0x1F PUSH1 0x20 SWAP1 DUP2 MSTORE PUSH1 0x40 DUP3 KECCAK256 DUP1 SLOAD SWAP1 DUP4 SWAP1 SSTORE PUSH1 0x1 DUP4 MSTORE PUSH1 0x27 SWAP1 SWAP2 MSTORE PUSH32 0xB6915E519D5F9DD23C62986E48578DDFA8CDE5C92608222904FD87AD04DF4FFF SLOAD SWAP1 SWAP2 SWAP1 TIMESTAMP LT ISZERO PUSH2 0x198B JUMPI PUSH1 0x64 PUSH2 0x1972 DUP4 PUSH1 0x19 PUSH2 0x45E1 JUMP JUMPDEST PUSH2 0x197C SWAP2 SWAP1 PUSH2 0x460C JUMP JUMPDEST SWAP1 POP PUSH2 0x1988 DUP2 DUP4 PUSH2 0x4645 JUMP JUMPDEST SWAP2 POP JUMPDEST DUP1 ISZERO PUSH2 0x19AB JUMPI PUSH1 0x21 SLOAD PUSH2 0x19A9 SWAP1 ADDRESS SWAP1 PUSH1 0x1 PUSH1 0x1 PUSH1 0xA0 SHL SUB AND DUP4 PUSH2 0x2912 JUMP JUMPDEST POP JUMPDEST PUSH0 PUSH2 0x19B7 ADDRESS CALLER DUP6 PUSH2 0x2912 JUMP JUMPDEST SWAP1 POP DUP1 PUSH2 0x19F8 JUMPI PUSH1 0x40 MLOAD PUSH3 0x461BCD PUSH1 0xE5 SHL DUP2 MSTORE PUSH1 0x20 PUSH1 0x4 DUP3 ADD MSTORE PUSH1 0xF PUSH1 0x24 DUP3 ADD MSTORE PUSH15 0x1D1C985B9CD9995C8819985A5B1959 PUSH1 0x8A SHL PUSH1 0x44 DUP3 ADD MSTORE PUSH1 0x64 ADD PUSH2 0xDCE JUMP JUMPDEST CALLER PUSH0 SWAP1 DUP2 MSTORE PUSH1 0x1E PUSH1 0x20 MSTORE PUSH1 0x40 DUP2 KECCAK256 DUP1 SLOAD DUP6 SWAP3 SWAP1 PUSH2 0x1A16 SWAP1 DUP5 SWAP1 PUSH2 0x4658 JUMP JUMPDEST SWAP3 POP POP DUP2 SWAP1 SSTORE POP DUP3 PUSH1 0x42 PUSH0 DUP3 DUP3 SLOAD PUSH2 0x1A2E SWAP2 SWAP1 PUSH2 0x4658 JUMP JUMPDEST SWAP3 POP POP DUP2 SWAP1 SSTORE POP DUP3 PUSH1 0x41 PUSH0 DUP3 DUP3 SLOAD PUSH2 0x1A46 SWAP2 SWAP1 PUSH2 0x4645 JUMP JUMPDEST SWAP1 SWAP2 SSTORE POP PUSH2 0x1A54 SWAP1 POP PUSH2 0x32A2 JUMP JUMPDEST PUSH1 0x40 MLOAD DUP4 DUP2 MSTORE CALLER SWAP1 PUSH32 0x620FC7379F7C67F4289F23E24A7F28F721792B0E898E2AF03581B2E73E604A53 SWAP1 PUSH1 0x20 ADD JUMPDEST PUSH1 0x40 MLOAD DUP1 SWAP2 SUB SWAP1 LOG2 POP POP POP JUMP JUMPDEST PUSH0 PUSH2 0x1154 DUP3 PUSH0 NOT PUSH2 0x11EA JUMP JUMPDEST PUSH2 0x1AA3 PUSH2 0x29B6 JUMP JUMPDEST PUSH1 0x1 PUSH1 0x1 PUSH1 0xA0 SHL SUB SWAP2 SWAP1 SWAP2 AND PUSH0 SWAP1 DUP2 MSTORE PUSH1 0x9 PUSH1 0x20 MSTORE PUSH1 0x40 SWAP1 KECCAK256 DUP1 SLOAD PUSH1 0xFF NOT AND SWAP2 ISZERO ISZERO SWAP2 SWAP1 SWAP2 OR SWAP1 SSTORE JUMP JUMPDEST PUSH1 0x26 SLOAD PUSH0 SWAP1 DUP2 MSTORE PUSH1 0x27 PUSH1 0x20 SWAP1 DUP2 MSTORE PUSH1 0x40 SWAP2 DUP3 SWAP1 KECCAK256 PUSH1 0x9 ADD DUP1 SLOAD DUP4 MLOAD DUP2 DUP5 MUL DUP2 ADD DUP5 ADD SWAP1 SWAP5 MSTORE DUP1 DUP5 MSTORE PUSH1 0x60 SWAP4 SWAP3 DUP4 ADD DUP3 DUP3 DUP1 ISZERO PUSH2 0x11E0 JUMPI PUSH1 0x20 MUL DUP3 ADD SWAP2 SWAP1 PUSH0 MSTORE PUSH1 0x20 PUSH0 KECCAK256 SWAP1 JUMPDEST DUP2 SLOAD PUSH1 0x1 PUSH1 0x1 PUSH1 0xA0 SHL SUB AND DUP2 MSTORE PUSH1 0x1 SWAP1 SWAP2 ADD SWAP1 PUSH1 0x20 ADD DUP1 DUP4 GT PUSH2 0x1B12 JUMPI POP POP POP POP POP SWAP1 POP SWAP1 JUMP JUMPDEST PUSH0 DUP1 MLOAD PUSH1 0x20 PUSH2 0x47BB DUP4 CODECOPY DUP2 MLOAD SWAP2 MSTORE PUSH2 0x1B50 DUP2 PUSH2 0x2908 JUMP JUMPDEST PUSH1 0x49 SLOAD PUSH2 0x1B60 SWAP1 PUSH3 0x93A80 PUSH2 0x4658 JUMP JUMPDEST TIMESTAMP LT ISZERO PUSH2 0x1BA4 JUMPI PUSH1 0x40 MLOAD PUSH3 0x461BCD PUSH1 0xE5 SHL DUP2 MSTORE PUSH1 0x20 PUSH1 0x4 DUP3 ADD MSTORE PUSH1 0x12 PUSH1 0x24 DUP3 ADD MSTORE PUSH18 0x43616E277420656E64207468652067616D65 PUSH1 0x70 SHL PUSH1 0x44 DUP3 ADD MSTORE PUSH1 0x64 ADD PUSH2 0xDCE JUMP JUMPDEST PUSH1 0x40 SLOAD PUSH2 0x100 SWAP1 DIV PUSH1 0xFF AND ISZERO PUSH2 0x1BF3 JUMPI PUSH1 0x40 MLOAD PUSH3 0x461BCD PUSH1 0xE5 SHL DUP2 MSTORE PUSH1 0x20 PUSH1 0x4 DUP3 ADD MSTORE PUSH1 0x14 PUSH1 0x24 DUP3 ADD MSTORE PUSH20 0x23B0B6B29034B99030B63932B0B23C9037BB32B9 PUSH1 0x61 SHL PUSH1 0x44 DUP3 ADD MSTORE PUSH1 0x64 ADD PUSH2 0xDCE JUMP JUMPDEST PUSH1 0x40 DUP1 SLOAD PUSH2 0xFF00 NOT AND PUSH2 0x100 OR DUP2 SSTORE PUSH1 0x26 SLOAD PUSH0 SWAP1 DUP2 MSTORE PUSH1 0x27 PUSH1 0x20 MSTORE KECCAK256 PUSH1 0x9 ADD SLOAD ISZERO PUSH2 0x1C8B JUMPI PUSH1 0x21 SLOAD PUSH1 0x26 SLOAD PUSH0 SWAP1 DUP2 MSTORE PUSH1 0x27 PUSH1 0x20 MSTORE PUSH1 0x40 SWAP1 DUP2 SWAP1 KECCAK256 SWAP1 MLOAD PUSH4 0xF25ADDF5 PUSH1 0xE0 SHL DUP2 MSTORE PUSH1 0x1 PUSH1 0x1 PUSH1 0xA0 SHL SUB SWAP1 SWAP3 AND SWAP2 PUSH4 0xF25ADDF5 SWAP2 PUSH2 0x1C5D SWAP2 PUSH1 0x9 SWAP1 SWAP2 ADD SWAP1 PUSH1 0x4 ADD PUSH2 0x466B JUMP JUMPDEST PUSH0 PUSH1 0x40 MLOAD DUP1 DUP4 SUB DUP2 PUSH0 DUP8 DUP1 EXTCODESIZE ISZERO DUP1 ISZERO PUSH2 0x1C74 JUMPI PUSH0 DUP1 REVERT JUMPDEST POP GAS CALL ISZERO DUP1 ISZERO PUSH2 0x1C86 JUMPI RETURNDATASIZE PUSH0 DUP1 RETURNDATACOPY RETURNDATASIZE PUSH0 REVERT JUMPDEST POP POP POP POP JUMPDEST POP JUMP JUMPDEST PUSH1 0x1 PUSH1 0x1 PUSH1 0xA0 SHL SUB AND PUSH0 SWAP1 DUP2 MSTORE PUSH1 0x7 PUSH1 0x20 MSTORE PUSH1 0x40 SWAP1 KECCAK256 SLOAD SWAP1 JUMP JUMPDEST PUSH2 0x1CB0 PUSH2 0x29B6 JUMP JUMPDEST PUSH2 0x15C0 PUSH0 PUSH2 0x3495 JUMP JUMPDEST PUSH2 0x1CC1 PUSH2 0x29B6 JUMP JUMPDEST PUSH1 0x19 DUP1 SLOAD PUSH1 0x1 PUSH1 0x1 PUSH1 0xA0 SHL SUB SWAP1 SWAP3 AND PUSH1 0x1 PUSH1 0x1 PUSH1 0xA0 SHL SUB NOT SWAP1 SWAP3 AND DUP3 OR SWAP1 SSTORE PUSH0 SWAP1 DUP2 MSTORE PUSH1 0xA PUSH1 0x20 MSTORE PUSH1 0x40 SWAP1 KECCAK256 DUP1 SLOAD PUSH1 0xFF NOT AND PUSH1 0x1 OR SWAP1 SSTORE JUMP JUMPDEST PUSH1 0x13 DUP2 DUP2 SLOAD DUP2 LT PUSH2 0x1D09 JUMPI PUSH0 DUP1 REVERT JUMPDEST PUSH0 SWAP2 DUP3 MSTORE PUSH1 0x20 SWAP1 SWAP2 KECCAK256 ADD SLOAD SWAP1 POP DUP2 JUMP JUMPDEST PUSH0 SWAP2 DUP3 MSTORE PUSH1 0x1 PUSH1 0x20 SWAP1 DUP2 MSTORE PUSH1 0x40 DUP1 DUP5 KECCAK256 PUSH1 0x1 PUSH1 0x1 PUSH1 0xA0 SHL SUB SWAP4 SWAP1 SWAP4 AND DUP5 MSTORE SWAP2 SWAP1 MSTORE SWAP1 KECCAK256 SLOAD PUSH1 0xFF AND SWAP1 JUMP JUMPDEST PUSH1 0x60 PUSH1 0x3 DUP1 SLOAD PUSH2 0x1169 SWAP1 PUSH2 0x45AF JUMP JUMPDEST PUSH1 0x1 PUSH1 0x1 PUSH1 0xA0 SHL SUB DUP2 AND PUSH0 SWAP1 DUP2 MSTORE PUSH1 0x1C PUSH1 0x20 MSTORE PUSH1 0x40 SWAP1 KECCAK256 SLOAD PUSH1 0xFF AND ISZERO PUSH2 0x1DAD JUMPI PUSH1 0x40 MLOAD PUSH3 0x461BCD PUSH1 0xE5 SHL DUP2 MSTORE PUSH1 0x20 PUSH1 0x4 DUP3 ADD MSTORE PUSH1 0x10 PUSH1 0x24 DUP3 ADD MSTORE PUSH16 0x105B1C9958591E481A5B999958DD1959 PUSH1 0x82 SHL PUSH1 0x44 DUP3 ADD MSTORE PUSH1 0x64 ADD PUSH2 0xDCE JUMP JUMPDEST PUSH1 0x1 PUSH2 0x1DB8 CALLER PUSH2 0x1C8E JUMP JUMPDEST LT ISZERO PUSH2 0x1E06 JUMPI PUSH1 0x40 MLOAD PUSH3 0x461BCD PUSH1 0xE5 SHL DUP2 MSTORE PUSH1 0x20 PUSH1 0x4 DUP3 ADD MSTORE PUSH1 0x1B PUSH1 0x24 DUP3 ADD MSTORE PUSH32 0x4E6F7420656E6F75676820746F6B656E7320746F20696E666563740000000000 PUSH1 0x44 DUP3 ADD MSTORE PUSH1 0x64 ADD PUSH2 0xDCE JUMP JUMPDEST CALLER PUSH0 SWAP1 DUP2 MSTORE PUSH1 0x1C PUSH1 0x20 MSTORE PUSH1 0x40 SWAP1 KECCAK256 SLOAD PUSH1 0xFF AND ISZERO ISZERO PUSH1 0x1 EQ PUSH2 0x1E5F JUMPI PUSH1 0x40 MLOAD PUSH3 0x461BCD PUSH1 0xE5 SHL DUP2 MSTORE PUSH1 0x20 PUSH1 0x4 DUP3 ADD MSTORE PUSH1 0x13 PUSH1 0x24 DUP3 ADD MSTORE PUSH19 0x165BDD49DC99481B9BDD081A5B999958DD1959 PUSH1 0x6A SHL PUSH1 0x44 DUP3 ADD MSTORE PUSH1 0x64 ADD PUSH2 0xDCE JUMP JUMPDEST PUSH1 0x1 PUSH1 0x1 PUSH1 0xA0 SHL SUB DUP2 AND PUSH0 SWAP1 DUP2 MSTORE PUSH1 0x1D PUSH1 0x20 SWAP1 DUP2 MSTORE PUSH1 0x40 DUP1 DUP4 KECCAK256 DUP1 SLOAD PUSH1 0x1 PUSH1 0x1 PUSH1 0xA0 SHL SUB NOT AND CALLER SWAP1 DUP2 OR SWAP1 SWAP2 SSTORE PUSH1 0x1C DUP4 MSTORE DUP2 DUP5 KECCAK256 DUP1 SLOAD PUSH1 0xFF NOT AND PUSH1 0x1 OR SWAP1 SSTORE DUP4 MSTORE SWAP1 DUP1 MSTORE DUP2 KECCAK256 DUP1 SLOAD SWAP2 PUSH2 0x1EB1 DUP4 PUSH2 0x4597 JUMP JUMPDEST SWAP1 SWAP2 SSTORE POP POP PUSH1 0x43 DUP1 SLOAD SWAP1 PUSH0 PUSH2 0x1EC5 DUP4 PUSH2 0x4597 JUMP JUMPDEST SWAP2 SWAP1 POP SSTORE POP PUSH0 PUSH2 0x17A9 CALLER DUP4 PUSH8 0xDE0B6B3A7640000 PUSH2 0x2912 JUMP JUMPDEST PUSH1 0x19 SLOAD PUSH0 SWAP1 PUSH1 0x1 PUSH1 0x1 PUSH1 0xA0 SHL SUB AND CALLER SUB PUSH2 0x1F04 JUMPI PUSH2 0x1EFD CALLER DUP5 DUP5 PUSH2 0x2AE5 JUMP JUMPDEST SWAP1 POP PUSH2 0x1154 JUMP JUMPDEST PUSH2 0x1EFD CALLER DUP5 DUP5 PUSH2 0x2912 JUMP JUMPDEST PUSH2 0x1F17 PUSH2 0x407A JUMP JUMPDEST PUSH1 0x40 DUP1 MLOAD PUSH1 0xA0 DUP2 ADD SWAP2 DUP3 SWAP1 MSTORE PUSH1 0x44 DUP1 SLOAD PUSH1 0x1 PUSH1 0x1 PUSH1 0xA0 SHL SUB AND DUP3 MSTORE SWAP1 SWAP2 PUSH1 0x5 SWAP1 PUSH1 0x45 PUSH1 0x20 DUP6 ADD DUP1 DUP4 GT PUSH2 0x1B12 JUMPI POP POP POP POP POP SWAP1 POP SWAP1 JUMP JUMPDEST PUSH2 0x1F56 PUSH2 0x29B6 JUMP JUMPDEST PUSH1 0x4 SLOAD PUSH1 0x6 SSTORE JUMP JUMPDEST PUSH1 0x2A SLOAD CALLER PUSH0 SWAP1 DUP2 MSTORE PUSH1 0x1C PUSH1 0x20 MSTORE PUSH1 0x40 SWAP1 KECCAK256 SLOAD PUSH1 0xFF AND PUSH2 0x1FB6 JUMPI PUSH1 0x40 MLOAD PUSH3 0x461BCD PUSH1 0xE5 SHL DUP2 MSTORE PUSH1 0x20 PUSH1 0x4 DUP3 ADD MSTORE PUSH1 0x14 PUSH1 0x24 DUP3 ADD MSTORE PUSH20 0x165BDD48185C99481B9BDD081A5B999958DD1959 PUSH1 0x62 SHL PUSH1 0x44 DUP3 ADD MSTORE PUSH1 0x64 ADD PUSH2 0xDCE JUMP JUMPDEST PUSH1 0x40 SLOAD PUSH1 0xFF AND PUSH2 0x2008 JUMPI PUSH1 0x40 MLOAD PUSH3 0x461BCD PUSH1 0xE5 SHL DUP2 MSTORE PUSH1 0x20 PUSH1 0x4 DUP3 ADD MSTORE PUSH1 0x17 PUSH1 0x24 DUP3 ADD MSTORE PUSH32 0x47616D65206973206E6F74207374617274656420796574000000000000000000 PUSH1 0x44 DUP3 ADD MSTORE PUSH1 0x64 ADD PUSH2 0xDCE JUMP JUMPDEST PUSH1 0x40 SLOAD PUSH2 0x100 SWAP1 DIV PUSH1 0xFF AND ISZERO PUSH2 0x2030 JUMPI PUSH1 0x40 MLOAD PUSH3 0x461BCD PUSH1 0xE5 SHL DUP2 MSTORE PUSH1 0x4 ADD PUSH2 0xDCE SWAP1 PUSH2 0x461F JUMP JUMPDEST DUP1 PUSH2 0x203A CALLER PUSH2 0x1C8E JUMP JUMPDEST LT ISZERO PUSH2 0x2093 JUMPI PUSH1 0x40 MLOAD PUSH3 0x461BCD PUSH1 0xE5 SHL DUP2 MSTORE PUSH1 0x20 PUSH1 0x4 DUP3 ADD MSTORE PUSH1 0x22 PUSH1 0x24 DUP3 ADD MSTORE PUSH32 0x4E6F7420656E6F75676820746F6B656E7320746F206275792061206361707375 PUSH1 0x44 DUP3 ADD MSTORE PUSH2 0x6C65 PUSH1 0xF0 SHL PUSH1 0x64 DUP3 ADD MSTORE PUSH1 0x84 ADD PUSH2 0xDCE JUMP JUMPDEST PUSH1 0x26 SLOAD PUSH0 SWAP1 DUP2 MSTORE PUSH1 0x27 PUSH1 0x20 MSTORE PUSH1 0x40 SWAP1 KECCAK256 PUSH1 0x2 ADD SLOAD TIMESTAMP LT PUSH2 0x20C5 JUMPI PUSH1 0x40 MLOAD PUSH3 0x461BCD PUSH1 0xE5 SHL DUP2 MSTORE PUSH1 0x4 ADD PUSH2 0xDCE SWAP1 PUSH2 0x453F JUMP JUMPDEST PUSH1 0x26 SLOAD PUSH0 SWAP1 DUP2 MSTORE PUSH1 0x27 PUSH1 0x20 SWAP1 DUP2 MSTORE PUSH1 0x40 DUP1 DUP4 KECCAK256 CALLER DUP5 MSTORE PUSH1 0x3 ADD SWAP1 SWAP2 MSTORE SWAP1 KECCAK256 SLOAD PUSH1 0xFF AND ISZERO PUSH2 0x214E JUMPI PUSH1 0x40 MLOAD PUSH3 0x461BCD PUSH1 0xE5 SHL DUP2 MSTORE PUSH1 0x20 PUSH1 0x4 DUP3 ADD MSTORE PUSH1 0x31 PUSH1 0x24 DUP3 ADD MSTORE PUSH32 0x596F7527766520616C726561647920626F7567687420612063617073756C6520 PUSH1 0x44 DUP3 ADD MSTORE PUSH17 0xC8EAE4D2DCCE40E8D0D2E640CAE0DEC6D PUSH1 0x7B SHL PUSH1 0x64 DUP3 ADD MSTORE PUSH1 0x84 ADD PUSH2 0xDCE JUMP JUMPDEST PUSH1 0x26 SLOAD PUSH0 SWAP1 DUP2 MSTORE PUSH1 0x27 PUSH1 0x20 SWAP1 DUP2 MSTORE PUSH1 0x40 DUP1 DUP4 KECCAK256 CALLER DUP5 MSTORE PUSH1 0x4 ADD SWAP1 SWAP2 MSTORE SWAP1 KECCAK256 SLOAD PUSH1 0xFF AND ISZERO PUSH2 0x21D9 JUMPI PUSH1 0x40 MLOAD PUSH3 0x461BCD PUSH1 0xE5 SHL DUP2 MSTORE PUSH1 0x20 PUSH1 0x4 DUP3 ADD MSTORE PUSH1 0x33 PUSH1 0x24 DUP3 ADD MSTORE PUSH32 0x596F75206F6E6C792068617665206F6E6520616374696F6E207065722065706F PUSH1 0x44 DUP3 ADD MSTORE PUSH19 0x6368203A20627579206F722075706772616465 PUSH1 0x68 SHL PUSH1 0x64 DUP3 ADD MSTORE PUSH1 0x84 ADD PUSH2 0xDCE JUMP JUMPDEST PUSH1 0x29 DUP1 SLOAD SWAP1 PUSH0 PUSH2 0x21E8 DUP4 PUSH2 0x4597 JUMP JUMPDEST SWAP1 SWAP2 SSTORE POP POP PUSH1 0x28 DUP1 SLOAD SWAP1 PUSH0 PUSH2 0x21FC DUP4 PUSH2 0x4597 JUMP JUMPDEST SWAP1 SWAP2 SSTORE POP POP PUSH1 0x26 SLOAD PUSH0 SWAP1 DUP2 MSTORE PUSH1 0x27 PUSH1 0x20 SWAP1 DUP2 MSTORE PUSH1 0x40 DUP1 DUP4 KECCAK256 CALLER DUP5 MSTORE PUSH1 0x3 ADD SWAP1 SWAP2 MSTORE DUP2 KECCAK256 DUP1 SLOAD PUSH1 0xFF NOT AND PUSH1 0x1 OR SWAP1 SSTORE PUSH2 0x3E8 PUSH2 0x2238 DUP4 PUSH1 0xC8 PUSH2 0x45E1 JUMP JUMPDEST PUSH2 0x2242 SWAP2 SWAP1 PUSH2 0x460C JUMP JUMPDEST SWAP1 POP PUSH2 0x2251 CALLER PUSH2 0xDEAD DUP4 PUSH2 0x2912 JUMP JUMPDEST POP PUSH1 0x21 SLOAD PUSH0 SWAP1 PUSH2 0x2270 SWAP1 CALLER SWAP1 PUSH1 0x1 PUSH1 0x1 PUSH1 0xA0 SHL SUB AND PUSH2 0x1555 DUP6 DUP8 PUSH2 0x4645 JUMP JUMPDEST SWAP1 POP PUSH0 PUSH2 0x227B PUSH2 0x34E4 JUMP JUMPDEST PUSH1 0x26 DUP1 SLOAD PUSH0 SWAP1 DUP2 MSTORE PUSH1 0x27 PUSH1 0x20 DUP2 DUP2 MSTORE PUSH1 0x40 DUP1 DUP5 KECCAK256 DUP7 DUP6 MSTORE PUSH1 0x6 ADD DUP3 MSTORE DUP1 DUP5 KECCAK256 DUP1 SLOAD PUSH1 0x1 PUSH1 0x1 PUSH1 0xA0 SHL SUB NOT AND CALLER SWAP1 DUP2 OR SWAP1 SWAP2 SSTORE SWAP5 SLOAD DUP5 MSTORE SWAP2 DUP2 MSTORE DUP2 DUP4 KECCAK256 DUP5 DUP5 MSTORE PUSH1 0x7 ADD DUP2 MSTORE SWAP2 DUP2 SWAP1 KECCAK256 DUP5 SWAP1 SSTORE MLOAD DUP4 DUP2 MSTORE SWAP3 SWAP4 POP SWAP1 SWAP2 PUSH32 0x56E18F08766F396148D5B13331A86D9CE4EA3D9C08821CF829CCF881A6FFF8BF SWAP2 ADD PUSH1 0x40 MLOAD DUP1 SWAP2 SUB SWAP1 LOG2 POP POP POP POP JUMP JUMPDEST PUSH0 DUP3 DUP2 MSTORE PUSH1 0x1 PUSH1 0x20 DUP2 SWAP1 MSTORE PUSH1 0x40 SWAP1 SWAP2 KECCAK256 ADD SLOAD PUSH2 0x231B DUP2 PUSH2 0x2908 JUMP JUMPDEST PUSH2 0x1770 DUP4 DUP4 PUSH2 0x306E JUMP JUMPDEST PUSH2 0x232D PUSH2 0x29B6 JUMP JUMPDEST PUSH1 0x1 DUP2 LT ISZERO PUSH2 0x237E JUMPI PUSH1 0x40 MLOAD PUSH3 0x461BCD PUSH1 0xE5 SHL DUP2 MSTORE PUSH1 0x20 PUSH1 0x4 DUP3 ADD MSTORE PUSH1 0x1F PUSH1 0x24 DUP3 ADD MSTORE PUSH32 0x43616E27742073657420537761705468726573686F6C6420746F205A45524F00 PUSH1 0x44 DUP3 ADD MSTORE PUSH1 0x64 ADD PUSH2 0xDCE JUMP JUMPDEST PUSH1 0x19 DUP1 SLOAD SWAP3 ISZERO ISZERO PUSH1 0x1 PUSH1 0xA8 SHL MUL PUSH1 0xFF PUSH1 0xA8 SHL NOT SWAP1 SWAP4 AND SWAP3 SWAP1 SWAP3 OR SWAP1 SWAP2 SSTORE PUSH1 0x1A SSTORE JUMP JUMPDEST PUSH0 DUP1 MLOAD PUSH1 0x20 PUSH2 0x47BB DUP4 CODECOPY DUP2 MLOAD SWAP2 MSTORE PUSH2 0x23B7 DUP2 PUSH2 0x2908 JUMP JUMPDEST PUSH1 0x2E SLOAD DUP3 LT ISZERO PUSH2 0x241D JUMPI PUSH1 0x40 MLOAD PUSH3 0x461BCD PUSH1 0xE5 SHL DUP2 MSTORE PUSH1 0x20 PUSH1 0x4 DUP3 ADD MSTORE PUSH1 0x2B PUSH1 0x24 DUP3 ADD MSTORE PUSH32 0x43616E2774207265647563652076616363696E6520737570706C792064757269 PUSH1 0x44 DUP3 ADD MSTORE PUSH11 0xDCCE40C2DC40CAE0DEC6D PUSH1 0xAB SHL PUSH1 0x64 DUP3 ADD MSTORE PUSH1 0x84 ADD PUSH2 0xDCE JUMP JUMPDEST POP PUSH1 0x33 SSTORE JUMP JUMPDEST PUSH2 0x242B PUSH2 0x29B6 JUMP JUMPDEST PUSH1 0x1 PUSH1 0x1 PUSH1 0xA0 SHL SUB DUP2 AND PUSH2 0x2454 JUMPI PUSH1 0x40 MLOAD PUSH4 0x1E4FBDF7 PUSH1 0xE0 SHL DUP2 MSTORE PUSH0 PUSH1 0x4 DUP3 ADD MSTORE PUSH1 0x24 ADD PUSH2 0xDCE JUMP JUMPDEST PUSH2 0x1C8B DUP2 PUSH2 0x3495 JUMP JUMPDEST PUSH2 0x2465 PUSH2 0x29B6 JUMP JUMPDEST PUSH0 JUMPDEST DUP2 MLOAD DUP2 LT ISZERO PUSH2 0xFFF JUMPI PUSH1 0x1C PUSH0 DUP4 DUP4 DUP2 MLOAD DUP2 LT PUSH2 0x2485 JUMPI PUSH2 0x2485 PUSH2 0x46BA JUMP JUMPDEST PUSH1 0x20 SWAP1 DUP2 MUL SWAP2 SWAP1 SWAP2 ADD DUP2 ADD MLOAD PUSH1 0x1 PUSH1 0x1 PUSH1 0xA0 SHL SUB AND DUP3 MSTORE DUP2 ADD SWAP2 SWAP1 SWAP2 MSTORE PUSH1 0x40 ADD PUSH0 KECCAK256 SLOAD PUSH1 0xFF AND ISZERO PUSH2 0x24EB JUMPI PUSH1 0x40 MLOAD PUSH3 0x461BCD PUSH1 0xE5 SHL DUP2 MSTORE PUSH1 0x20 PUSH1 0x4 DUP3 ADD MSTORE PUSH1 0x10 PUSH1 0x24 DUP3 ADD MSTORE PUSH16 0x105B1C9958591E481A5B999958DD1959 PUSH1 0x82 SHL PUSH1 0x44 DUP3 ADD MSTORE PUSH1 0x64 ADD PUSH2 0xDCE JUMP JUMPDEST PUSH1 0x1 PUSH2 0x24F6 CALLER PUSH2 0x1C8E JUMP JUMPDEST LT ISZERO PUSH2 0x2544 JUMPI PUSH1 0x40 MLOAD PUSH3 0x461BCD PUSH1 0xE5 SHL DUP2 MSTORE PUSH1 0x20 PUSH1 0x4 DUP3 ADD MSTORE PUSH1 0x1B PUSH1 0x24 DUP3 ADD MSTORE PUSH32 0x6E6F7420656E6F75676820746F6B656E7320746F20696E666563740000000000 PUSH1 0x44 DUP3 ADD MSTORE PUSH1 0x64 ADD PUSH2 0xDCE JUMP JUMPDEST CALLER PUSH0 SWAP1 DUP2 MSTORE PUSH1 0x1C PUSH1 0x20 MSTORE PUSH1 0x40 SWAP1 KECCAK256 SLOAD PUSH1 0xFF AND ISZERO ISZERO PUSH1 0x1 EQ PUSH2 0x2596 JUMPI PUSH1 0x40 MLOAD PUSH3 0x461BCD PUSH1 0xE5 SHL DUP2 MSTORE PUSH1 0x20 PUSH1 0x4 DUP3 ADD MSTORE PUSH1 0xC PUSH1 0x24 DUP3 ADD MSTORE PUSH12 0x1B9BDD081A5B999958DD1959 PUSH1 0xA2 SHL PUSH1 0x44 DUP3 ADD MSTORE PUSH1 0x64 ADD PUSH2 0xDCE JUMP JUMPDEST CALLER PUSH1 0x1D PUSH0 DUP5 DUP5 DUP2 MLOAD DUP2 LT PUSH2 0x25AC JUMPI PUSH2 0x25AC PUSH2 0x46BA JUMP JUMPDEST PUSH1 0x20 MUL PUSH1 0x20 ADD ADD MLOAD PUSH1 0x1 PUSH1 0x1 PUSH1 0xA0 SHL SUB AND PUSH1 0x1 PUSH1 0x1 PUSH1 0xA0 SHL SUB AND DUP2 MSTORE PUSH1 0x20 ADD SWAP1 DUP2 MSTORE PUSH1 0x20 ADD PUSH0 KECCAK256 PUSH0 PUSH2 0x100 EXP DUP2 SLOAD DUP2 PUSH1 0x1 PUSH1 0x1 PUSH1 0xA0 SHL SUB MUL NOT AND SWAP1 DUP4 PUSH1 0x1 PUSH1 0x1 PUSH1 0xA0 SHL SUB AND MUL OR SWAP1 SSTORE POP PUSH1 0x1 PUSH1 0x1C PUSH0 DUP5 DUP5 DUP2 MLOAD DUP2 LT PUSH2 0x260D JUMPI PUSH2 0x260D PUSH2 0x46BA JUMP JUMPDEST PUSH1 0x20 SWAP1 DUP2 MUL SWAP2 SWAP1 SWAP2 ADD DUP2 ADD MLOAD PUSH1 0x1 PUSH1 0x1 PUSH1 0xA0 SHL SUB AND DUP3 MSTORE DUP2 DUP2 ADD SWAP3 SWAP1 SWAP3 MSTORE PUSH1 0x40 SWAP1 DUP2 ADD PUSH0 SWAP1 DUP2 KECCAK256 DUP1 SLOAD PUSH1 0xFF NOT AND SWAP5 ISZERO ISZERO SWAP5 SWAP1 SWAP5 OR SWAP1 SWAP4 SSTORE CALLER DUP4 MSTORE SWAP1 DUP1 MSTORE DUP2 KECCAK256 DUP1 SLOAD SWAP2 PUSH2 0x2658 DUP4 PUSH2 0x4597 JUMP JUMPDEST SWAP1 SWAP2 SSTORE POP POP PUSH1 0x43 DUP1 SLOAD SWAP1 PUSH0 PUSH2 0x266C DUP4 PUSH2 0x4597 JUMP JUMPDEST SWAP2 SWAP1 POP SSTORE POP PUSH0 PUSH2 0x269E CALLER DUP5 DUP5 DUP2 MLOAD DUP2 LT PUSH2 0x2688 JUMPI PUSH2 0x2688 PUSH2 0x46BA JUMP JUMPDEST PUSH1 0x20 MUL PUSH1 0x20 ADD ADD MLOAD PUSH8 0xDE0B6B3A7640000 PUSH2 0x2912 JUMP JUMPDEST POP DUP2 SWAP1 POP PUSH2 0x26AB DUP2 PUSH2 0x4597 JUMP JUMPDEST SWAP2 POP POP PUSH2 0x2467 JUMP JUMPDEST PUSH0 DUP1 MLOAD PUSH1 0x20 PUSH2 0x47BB DUP4 CODECOPY DUP2 MLOAD SWAP2 MSTORE PUSH2 0x26CA DUP2 PUSH2 0x2908 JUMP JUMPDEST POP PUSH1 0x22 SSTORE JUMP JUMPDEST PUSH0 DUP2 DUP2 MSTORE PUSH1 0x17 PUSH1 0x20 MSTORE PUSH1 0x40 DUP2 KECCAK256 SLOAD PUSH2 0x100 SWAP1 DIV PUSH1 0xFF AND PUSH2 0x2726 JUMPI PUSH1 0x40 MLOAD PUSH3 0x461BCD PUSH1 0xE5 SHL DUP2 MSTORE PUSH1 0x20 PUSH1 0x4 DUP3 ADD MSTORE PUSH1 0x11 PUSH1 0x24 DUP3 ADD MSTORE PUSH17 0x1C995C5D595CDD081B9BDD08199BDD5B99 PUSH1 0x7A SHL PUSH1 0x44 DUP3 ADD MSTORE PUSH1 0x64 ADD PUSH2 0xDCE JUMP JUMPDEST PUSH0 DUP3 DUP2 MSTORE PUSH1 0x17 PUSH1 0x20 SWAP1 DUP2 MSTORE PUSH1 0x40 DUP1 DUP4 KECCAK256 DUP2 MLOAD PUSH1 0x60 DUP2 ADD DUP4 MSTORE DUP2 SLOAD PUSH1 0xFF DUP1 DUP3 AND ISZERO ISZERO DUP4 MSTORE PUSH2 0x100 SWAP1 SWAP2 DIV AND ISZERO ISZERO DUP2 DUP6 ADD MSTORE PUSH1 0x1 DUP3 ADD DUP1 SLOAD DUP5 MLOAD DUP2 DUP8 MUL DUP2 ADD DUP8 ADD DUP7 MSTORE DUP2 DUP2 MSTORE SWAP3 SWAP6 SWAP4 SWAP5 DUP7 ADD SWAP4 DUP4 ADD DUP3 DUP3 DUP1 ISZERO PUSH2 0x279E JUMPI PUSH1 0x20 MUL DUP3 ADD SWAP2 SWAP1 PUSH0 MSTORE PUSH1 0x20 PUSH0 KECCAK256 SWAP1 JUMPDEST DUP2 SLOAD DUP2 MSTORE PUSH1 0x20 ADD SWAP1 PUSH1 0x1 ADD SWAP1 DUP1 DUP4 GT PUSH2 0x278A JUMPI JUMPDEST POP POP POP POP POP DUP2 MSTORE POP POP SWAP1 POP PUSH1 0x33 SLOAD PUSH1 0x2E SLOAD LT PUSH2 0x27F0 JUMPI PUSH1 0x61 DUP2 PUSH1 0x40 ADD MLOAD PUSH0 DUP2 MLOAD DUP2 LT PUSH2 0x27CC JUMPI PUSH2 0x27CC PUSH2 0x46BA JUMP JUMPDEST PUSH1 0x20 MUL PUSH1 0x20 ADD ADD MLOAD PUSH2 0x27DE SWAP2 SWAP1 PUSH2 0x46CE JUMP JUMPDEST PUSH2 0x27E9 SWAP1 PUSH1 0x1 PUSH2 0x4658 JUMP JUMPDEST SWAP4 SWAP3 POP POP POP JUMP JUMPDEST PUSH1 0x22 SLOAD DUP2 PUSH1 0x40 ADD MLOAD PUSH0 DUP2 MLOAD DUP2 LT PUSH2 0x27CC JUMPI PUSH2 0x27CC PUSH2 0x46BA JUMP JUMPDEST POP SWAP2 SWAP1 POP JUMP JUMPDEST PUSH1 0x1 PUSH1 0x1 PUSH1 0xA0 SHL SUB DUP4 AND PUSH0 SWAP1 DUP2 MSTORE PUSH1 0x24 PUSH1 0x20 MSTORE PUSH1 0x40 SWAP1 KECCAK256 SLOAD PUSH1 0xFF AND PUSH2 0x2891 JUMPI PUSH1 0x25 DUP1 SLOAD PUSH1 0x1 DUP1 DUP3 ADD SWAP1 SWAP3 SSTORE PUSH32 0x401968FF42A154441DA5F6C4C935AC46B8671F0E062BAAA62A7545BA53BB6E4C ADD DUP1 SLOAD PUSH1 0x1 PUSH1 0x1 PUSH1 0xA0 SHL SUB NOT AND PUSH1 0x1 PUSH1 0x1 PUSH1 0xA0 SHL SUB DUP7 AND SWAP1 DUP2 OR SWAP1 SWAP2 SSTORE PUSH0 SWAP1 DUP2 MSTORE PUSH1 0x24 PUSH1 0x20 MSTORE PUSH1 0x40 SWAP1 KECCAK256 DUP1 SLOAD PUSH1 0xFF NOT AND SWAP1 SWAP2 OR SWAP1 SSTORE JUMPDEST PUSH1 0x1 PUSH1 0x1 PUSH1 0xA0 SHL SUB DUP4 AND PUSH0 DUP2 DUP2 MSTORE PUSH1 0x23 PUSH1 0x20 SWAP1 DUP2 MSTORE PUSH1 0x40 DUP1 DUP4 KECCAK256 DUP7 SWAP1 SSTORE PUSH1 0x26 SLOAD DUP4 MSTORE PUSH1 0x27 DUP3 MSTORE DUP1 DUP4 KECCAK256 DUP5 DUP5 MSTORE PUSH1 0x5 ADD DUP3 MSTORE SWAP2 DUP3 SWAP1 KECCAK256 DUP1 SLOAD PUSH1 0xFF NOT AND PUSH1 0x1 OR SWAP1 SSTORE DUP2 MLOAD DUP6 DUP2 MSTORE DUP5 ISZERO ISZERO SWAP2 DUP2 ADD SWAP2 SWAP1 SWAP2 MSTORE PUSH32 0xC05909672B3730633581D6CF7B807382B3572D7805ACE294B8D4B3558C5CC7FF SWAP2 ADD PUSH2 0x1A82 JUMP JUMPDEST PUSH2 0x1C8B DUP2 CALLER PUSH2 0x369A JUMP JUMPDEST PUSH1 0x1 PUSH1 0x1 PUSH1 0xA0 SHL SUB DUP4 AND PUSH0 SWAP1 DUP2 MSTORE PUSH1 0x7 PUSH1 0x20 MSTORE PUSH1 0x40 DUP2 KECCAK256 SLOAD PUSH2 0x2935 SWAP1 DUP4 SWAP1 PUSH2 0x4645 JUMP JUMPDEST PUSH1 0x1 PUSH1 0x1 PUSH1 0xA0 SHL SUB DUP1 DUP7 AND PUSH0 SWAP1 DUP2 MSTORE PUSH1 0x7 PUSH1 0x20 MSTORE PUSH1 0x40 DUP1 DUP3 KECCAK256 SWAP4 SWAP1 SWAP4 SSTORE SWAP1 DUP6 AND DUP2 MSTORE KECCAK256 SLOAD PUSH2 0x2964 SWAP1 DUP4 SWAP1 PUSH2 0x4658 JUMP JUMPDEST PUSH1 0x1 PUSH1 0x1 PUSH1 0xA0 SHL SUB DUP1 DUP6 AND PUSH0 DUP2 DUP2 MSTORE PUSH1 0x7 PUSH1 0x20 MSTORE PUSH1 0x40 SWAP1 DUP2 SWAP1 KECCAK256 SWAP4 SWAP1 SWAP4 SSTORE SWAP2 MLOAD SWAP1 DUP7 AND SWAP1 PUSH0 DUP1 MLOAD PUSH1 0x20 PUSH2 0x479B DUP4 CODECOPY DUP2 MLOAD SWAP2 MSTORE SWAP1 PUSH2 0x29A4 SWAP1 DUP7 DUP2 MSTORE PUSH1 0x20 ADD SWAP1 JUMP JUMPDEST PUSH1 0x40 MLOAD DUP1 SWAP2 SUB SWAP1 LOG3 POP PUSH1 0x1 SWAP4 SWAP3 POP POP POP JUMP JUMPDEST PUSH0 SLOAD PUSH1 0x1 PUSH1 0x1 PUSH1 0xA0 SHL SUB AND CALLER EQ PUSH2 0x15C0 JUMPI PUSH1 0x40 MLOAD PUSH4 0x118CDAA7 PUSH1 0xE0 SHL DUP2 MSTORE CALLER PUSH1 0x4 DUP3 ADD MSTORE PUSH1 0x24 ADD PUSH2 0xDCE JUMP JUMPDEST PUSH0 DUP3 DUP2 MSTORE PUSH1 0x17 PUSH1 0x20 MSTORE PUSH1 0x40 SWAP1 KECCAK256 SLOAD PUSH2 0x100 SWAP1 DIV PUSH1 0xFF AND PUSH2 0x2A38 JUMPI PUSH1 0x40 MLOAD PUSH3 0x461BCD PUSH1 0xE5 SHL DUP2 MSTORE PUSH1 0x20 PUSH1 0x4 DUP3 ADD MSTORE PUSH1 0x11 PUSH1 0x24 DUP3 ADD MSTORE PUSH17 0x1C995C5D595CDD081B9BDD08199BDD5B99 PUSH1 0x7A SHL PUSH1 0x44 DUP3 ADD MSTORE PUSH1 0x64 ADD PUSH2 0xDCE JUMP JUMPDEST PUSH0 DUP3 DUP2 MSTORE PUSH1 0x17 PUSH1 0x20 SWAP1 DUP2 MSTORE PUSH1 0x40 SWAP1 SWAP2 KECCAK256 DUP1 SLOAD PUSH1 0xFF NOT AND PUSH1 0x1 SWAP1 DUP2 OR DUP3 SSTORE DUP4 MLOAD PUSH2 0x2A68 SWAP4 SWAP3 SWAP1 SWAP2 ADD SWAP2 DUP5 ADD SWAP1 PUSH2 0x4098 JUMP JUMPDEST POP PUSH1 0x26 SLOAD PUSH0 SWAP1 DUP2 MSTORE PUSH1 0x27 PUSH1 0x20 SWAP1 DUP2 MSTORE PUSH1 0x40 DUP1 DUP4 KECCAK256 DUP6 DUP5 MSTORE PUSH1 0x6 DUP2 ADD DUP4 MSTORE DUP2 DUP5 KECCAK256 SLOAD PUSH1 0x1 PUSH1 0x1 PUSH1 0xA0 SHL SUB AND DUP5 MSTORE PUSH1 0x8 ADD SWAP1 SWAP2 MSTORE SWAP1 DUP2 SWAP1 KECCAK256 DUP1 SLOAD PUSH1 0xFF NOT AND PUSH1 0x1 OR SWAP1 SSTORE MLOAD PUSH32 0xFE2E2D779DBA245964D4E3EF9B994BE63856FD568BF7D3CA9E224755CB1BD54D SWAP1 PUSH2 0x2AD9 SWAP1 DUP5 SWAP1 DUP5 SWAP1 PUSH2 0x46E1 JUMP JUMPDEST PUSH1 0x40 MLOAD DUP1 SWAP2 SUB SWAP1 LOG1 POP POP JUMP JUMPDEST PUSH1 0x1 PUSH1 0x1 PUSH1 0xA0 SHL SUB DUP4 AND PUSH0 SWAP1 DUP2 MSTORE PUSH1 0x9 PUSH1 0x20 MSTORE PUSH1 0x40 DUP2 KECCAK256 SLOAD PUSH1 0xFF AND DUP1 PUSH2 0x2B22 JUMPI POP PUSH1 0x1 PUSH1 0x1 PUSH1 0xA0 SHL SUB DUP4 AND PUSH0 SWAP1 DUP2 MSTORE PUSH1 0x9 PUSH1 0x20 MSTORE PUSH1 0x40 SWAP1 KECCAK256 SLOAD PUSH1 0xFF AND JUMPDEST DUP1 PUSH2 0x2B36 JUMPI POP PUSH1 0x19 SLOAD PUSH1 0x1 PUSH1 0xA0 SHL SWAP1 DIV PUSH1 0xFF AND JUMPDEST PUSH2 0x2B82 JUMPI PUSH1 0x40 MLOAD PUSH3 0x461BCD PUSH1 0xE5 SHL DUP2 MSTORE PUSH1 0x20 PUSH1 0x4 DUP3 ADD MSTORE PUSH1 0x1B PUSH1 0x24 DUP3 ADD MSTORE PUSH32 0x4E6F7420617574686F72697A656420746F207472616465207965740000000000 PUSH1 0x44 DUP3 ADD MSTORE PUSH1 0x64 ADD PUSH2 0xDCE JUMP JUMPDEST PUSH1 0x19 SLOAD PUSH1 0x1 PUSH1 0x1 PUSH1 0xA0 SHL SUB DUP5 DUP2 AND SWAP2 AND EQ PUSH2 0x2BED JUMPI PUSH1 0x1 PUSH1 0x1 PUSH1 0xA0 SHL SUB DUP4 AND PUSH0 SWAP1 DUP2 MSTORE PUSH1 0x1C PUSH1 0x20 MSTORE PUSH1 0x40 SWAP1 KECCAK256 SLOAD PUSH1 0xFF AND PUSH2 0x2BED JUMPI PUSH1 0x40 MLOAD PUSH3 0x461BCD PUSH1 0xE5 SHL DUP2 MSTORE PUSH1 0x20 PUSH1 0x4 DUP3 ADD MSTORE PUSH1 0xC PUSH1 0x24 DUP3 ADD MSTORE PUSH12 0x139BDD081A5B999958DD1959 PUSH1 0xA2 SHL PUSH1 0x44 DUP3 ADD MSTORE PUSH1 0x64 ADD PUSH2 0xDCE JUMP JUMPDEST PUSH1 0x40 SLOAD PUSH2 0x100 SWAP1 DIV PUSH1 0xFF AND DUP1 ISZERO PUSH2 0x2C12 JUMPI POP PUSH1 0x19 SLOAD PUSH1 0x1 PUSH1 0x1 PUSH1 0xA0 SHL SUB DUP5 DUP2 AND SWAP2 AND EQ ISZERO JUMPDEST ISZERO PUSH2 0x2CA1 JUMPI PUSH2 0x2C2E PUSH0 DUP1 MLOAD PUSH1 0x20 PUSH2 0x47BB DUP4 CODECOPY DUP2 MLOAD SWAP2 MSTORE DUP6 PUSH2 0x1D19 JUMP JUMPDEST DUP1 PUSH2 0x2C4B JUMPI POP PUSH2 0x2C4B PUSH0 DUP1 MLOAD PUSH1 0x20 PUSH2 0x47BB DUP4 CODECOPY DUP2 MLOAD SWAP2 MSTORE DUP5 PUSH2 0x1D19 JUMP JUMPDEST PUSH2 0x2CA1 JUMPI PUSH1 0x40 MLOAD PUSH3 0x461BCD PUSH1 0xE5 SHL DUP2 MSTORE PUSH1 0x20 PUSH1 0x4 DUP3 ADD MSTORE PUSH1 0x21 PUSH1 0x24 DUP3 ADD MSTORE PUSH32 0x47616D65206973206F7665722C206F6E6C792061646D696E732063616E206275 PUSH1 0x44 DUP3 ADD MSTORE PUSH1 0x79 PUSH1 0xF8 SHL PUSH1 0x64 DUP3 ADD MSTORE PUSH1 0x84 ADD PUSH2 0xDCE JUMP JUMPDEST PUSH0 SLOAD PUSH1 0x1 PUSH1 0x1 PUSH1 0xA0 SHL SUB DUP6 DUP2 AND SWAP2 AND EQ DUP1 ISZERO SWAP1 PUSH2 0x2CCB JUMPI POP PUSH0 SLOAD PUSH1 0x1 PUSH1 0x1 PUSH1 0xA0 SHL SUB DUP5 DUP2 AND SWAP2 AND EQ ISZERO JUMPDEST DUP1 ISZERO PUSH2 0x2CE2 JUMPI POP PUSH1 0x1 PUSH1 0x1 PUSH1 0xA0 SHL SUB DUP4 AND PUSH2 0xDEAD EQ ISZERO JUMPDEST ISZERO PUSH2 0x2DA6 JUMPI PUSH1 0x19 SLOAD PUSH1 0x1 PUSH1 0x1 PUSH1 0xA0 SHL SUB DUP5 DUP2 AND SWAP2 AND EQ PUSH2 0x2DA6 JUMPI PUSH1 0x1 PUSH1 0x1 PUSH1 0xA0 SHL SUB DUP4 AND PUSH0 SWAP1 DUP2 MSTORE PUSH1 0xA PUSH1 0x20 MSTORE PUSH1 0x40 SWAP1 KECCAK256 SLOAD PUSH1 0xFF AND DUP1 PUSH2 0x2D46 JUMPI POP PUSH1 0x6 SLOAD PUSH1 0x1 PUSH1 0x1 PUSH1 0xA0 SHL SUB DUP5 AND PUSH0 SWAP1 DUP2 MSTORE PUSH1 0x7 PUSH1 0x20 MSTORE PUSH1 0x40 SWAP1 KECCAK256 SLOAD PUSH2 0x2D43 SWAP1 DUP5 SWAP1 PUSH2 0x4658 JUMP JUMPDEST GT ISZERO JUMPDEST PUSH2 0x2DA6 JUMPI PUSH1 0x40 MLOAD PUSH3 0x461BCD PUSH1 0xE5 SHL DUP2 MSTORE PUSH1 0x20 PUSH1 0x4 DUP3 ADD MSTORE PUSH1 0x2B PUSH1 0x24 DUP3 ADD MSTORE PUSH32 0x5472616E7366657220616D6F756E74206578636565647320746865204D617857 PUSH1 0x44 DUP3 ADD MSTORE PUSH11 0x30B63632BA1039B4BD3297 PUSH1 0xA9 SHL PUSH1 0x64 DUP3 ADD MSTORE PUSH1 0x84 ADD PUSH2 0xDCE JUMP JUMPDEST PUSH2 0x2DAE PUSH2 0x36D3 JUMP JUMPDEST DUP1 ISZERO PUSH2 0x2DC7 JUMPI POP PUSH1 0x19 SLOAD PUSH1 0x1 PUSH1 0x1 PUSH1 0xA0 SHL SUB DUP5 DUP2 AND SWAP2 AND EQ JUMPDEST ISZERO PUSH2 0x2DD4 JUMPI PUSH2 0x2DD4 PUSH2 0x3730 JUMP JUMPDEST PUSH1 0x1 PUSH1 0x1 PUSH1 0xA0 SHL SUB DUP5 AND PUSH0 SWAP1 DUP2 MSTORE PUSH1 0x7 PUSH1 0x20 MSTORE PUSH1 0x40 SWAP1 KECCAK256 SLOAD PUSH2 0x2DF7 SWAP1 DUP4 SWAP1 PUSH2 0x4645 JUMP JUMPDEST PUSH1 0x1 PUSH1 0x1 PUSH1 0xA0 SHL SUB DUP6 AND PUSH0 SWAP1 DUP2 MSTORE PUSH1 0x7 PUSH1 0x20 SWAP1 DUP2 MSTORE PUSH1 0x40 DUP1 DUP4 KECCAK256 SWAP4 SWAP1 SWAP4 SSTORE PUSH1 0x9 SWAP1 MSTORE SWAP1 DUP2 KECCAK256 SLOAD PUSH1 0xFF AND ISZERO ISZERO DUP1 PUSH2 0x2E46 JUMPI POP PUSH1 0x1 PUSH1 0x1 PUSH1 0xA0 SHL SUB DUP5 AND PUSH0 SWAP1 DUP2 MSTORE PUSH1 0x9 PUSH1 0x20 MSTORE PUSH1 0x40 SWAP1 KECCAK256 SLOAD PUSH1 0xFF AND ISZERO ISZERO JUMPDEST PUSH2 0x2E5A JUMPI PUSH2 0x2E55 DUP6 DUP6 DUP6 PUSH2 0x3908 JUMP JUMPDEST PUSH2 0x2E5C JUMP JUMPDEST DUP3 JUMPDEST PUSH1 0x1 PUSH1 0x1 PUSH1 0xA0 SHL SUB DUP6 AND PUSH0 SWAP1 DUP2 MSTORE PUSH1 0x7 PUSH1 0x20 MSTORE PUSH1 0x40 SWAP1 KECCAK256 SLOAD SWAP1 SWAP2 POP PUSH2 0x2E82 SWAP1 DUP3 SWAP1 PUSH2 0x4658 JUMP JUMPDEST PUSH1 0x1 PUSH1 0x1 PUSH1 0xA0 SHL SUB DUP1 DUP7 AND PUSH0 DUP2 DUP2 MSTORE PUSH1 0x7 PUSH1 0x20 MSTORE PUSH1 0x40 SWAP1 DUP2 SWAP1 KECCAK256 SWAP4 SWAP1 SWAP4 SSTORE SWAP2 MLOAD SWAP1 DUP8 AND SWAP1 PUSH0 DUP1 MLOAD PUSH1 0x20 PUSH2 0x479B DUP4 CODECOPY DUP2 MLOAD SWAP2 MSTORE SWAP1 PUSH2 0x2EC2 SWAP1 DUP6 DUP2 MSTORE PUSH1 0x20 ADD SWAP1 JUMP JUMPDEST PUSH1 0x40 MLOAD DUP1 SWAP2 SUB SWAP1 LOG3 POP PUSH1 0x1 SWAP5 SWAP4 POP POP POP POP JUMP JUMPDEST PUSH1 0x1 PUSH1 0x1 PUSH1 0xA0 SHL SUB DUP4 AND PUSH2 0x2F37 JUMPI PUSH1 0x40 MLOAD PUSH3 0x461BCD PUSH1 0xE5 SHL DUP2 MSTORE PUSH1 0x20 PUSH1 0x4 DUP3 ADD MSTORE PUSH1 0x24 DUP1 DUP3 ADD MSTORE PUSH32 0x45524332303A20617070726F76652066726F6D20746865207A65726F20616464 PUSH1 0x44 DUP3 ADD MSTORE PUSH4 0x72657373 PUSH1 0xE0 SHL PUSH1 0x64 DUP3 ADD MSTORE PUSH1 0x84 ADD PUSH2 0xDCE JUMP JUMPDEST PUSH1 0x1 PUSH1 0x1 PUSH1 0xA0 SHL SUB DUP3 AND PUSH2 0x2F98 JUMPI PUSH1 0x40 MLOAD PUSH3 0x461BCD PUSH1 0xE5 SHL DUP2 MSTORE PUSH1 0x20 PUSH1 0x4 DUP3 ADD MSTORE PUSH1 0x22 PUSH1 0x24 DUP3 ADD MSTORE PUSH32 0x45524332303A20617070726F766520746F20746865207A65726F206164647265 PUSH1 0x44 DUP3 ADD MSTORE PUSH2 0x7373 PUSH1 0xF0 SHL PUSH1 0x64 DUP3 ADD MSTORE PUSH1 0x84 ADD PUSH2 0xDCE JUMP JUMPDEST PUSH1 0x1 PUSH1 0x1 PUSH1 0xA0 SHL SUB DUP4 DUP2 AND PUSH0 DUP2 DUP2 MSTORE PUSH1 0x8 PUSH1 0x20 SWAP1 DUP2 MSTORE PUSH1 0x40 DUP1 DUP4 KECCAK256 SWAP5 DUP8 AND DUP1 DUP5 MSTORE SWAP5 DUP3 MSTORE SWAP2 DUP3 SWAP1 KECCAK256 DUP6 SWAP1 SSTORE SWAP1 MLOAD DUP5 DUP2 MSTORE PUSH32 0x8C5BE1E5EBEC7D5BD14F71427D1E84F3DD0314C0F7B2291E5B200AC8C7C3B925 SWAP2 ADD PUSH1 0x40 MLOAD DUP1 SWAP2 SUB SWAP1 LOG3 POP POP POP JUMP JUMPDEST PUSH0 PUSH2 0x3003 DUP4 DUP4 PUSH2 0x1D19 JUMP JUMPDEST PUSH2 0x3067 JUMPI PUSH0 DUP4 DUP2 MSTORE PUSH1 0x1 PUSH1 0x20 DUP2 DUP2 MSTORE PUSH1 0x40 DUP1 DUP5 KECCAK256 PUSH1 0x1 PUSH1 0x1 PUSH1 0xA0 SHL SUB DUP8 AND DUP1 DUP7 MSTORE SWAP3 MSTORE DUP1 DUP5 KECCAK256 DUP1 SLOAD PUSH1 0xFF NOT AND SWAP1 SWAP4 OR SWAP1 SWAP3 SSTORE SWAP1 MLOAD CALLER SWAP3 DUP7 SWAP2 PUSH32 0x2F8788117E7EFF1D82E926EC794901D17C78024A50270940304540A733656F0D SWAP2 SWAP1 LOG4 POP PUSH1 0x1 PUSH2 0x1154 JUMP JUMPDEST POP PUSH0 PUSH2 0x1154 JUMP JUMPDEST PUSH0 PUSH2 0x3079 DUP4 DUP4 PUSH2 0x1D19 JUMP JUMPDEST ISZERO PUSH2 0x3067 JUMPI PUSH0 DUP4 DUP2 MSTORE PUSH1 0x1 PUSH1 0x20 SWAP1 DUP2 MSTORE PUSH1 0x40 DUP1 DUP4 KECCAK256 PUSH1 0x1 PUSH1 0x1 PUSH1 0xA0 SHL SUB DUP7 AND DUP1 DUP6 MSTORE SWAP3 MSTORE DUP1 DUP4 KECCAK256 DUP1 SLOAD PUSH1 0xFF NOT AND SWAP1 SSTORE MLOAD CALLER SWAP3 DUP7 SWAP2 PUSH32 0xF6391F5C32D9C69D2A47EA670B442974B53935D1EDC7FD64EB21E047A839171B SWAP2 SWAP1 LOG4 POP PUSH1 0x1 PUSH2 0x1154 JUMP JUMPDEST PUSH1 0x26 SLOAD PUSH0 SWAP1 DUP2 MSTORE PUSH1 0x27 PUSH1 0x20 MSTORE PUSH1 0x40 SWAP1 KECCAK256 PUSH1 0x9 ADD SLOAD ISZERO PUSH2 0x3165 JUMPI PUSH1 0x21 SLOAD PUSH1 0x26 SLOAD PUSH0 SWAP1 DUP2 MSTORE PUSH1 0x27 PUSH1 0x20 MSTORE PUSH1 0x40 SWAP1 DUP2 SWAP1 KECCAK256 SWAP1 MLOAD PUSH4 0xF25ADDF5 PUSH1 0xE0 SHL DUP2 MSTORE PUSH1 0x1 PUSH1 0x1 PUSH1 0xA0 SHL SUB SWAP1 SWAP3 AND SWAP2 PUSH4 0xF25ADDF5 SWAP2 PUSH2 0x3137 SWAP2 PUSH1 0x9 SWAP1 SWAP2 ADD SWAP1 PUSH1 0x4 ADD PUSH2 0x466B JUMP JUMPDEST PUSH0 PUSH1 0x40 MLOAD DUP1 DUP4 SUB DUP2 PUSH0 DUP8 DUP1 EXTCODESIZE ISZERO DUP1 ISZERO PUSH2 0x314E JUMPI PUSH0 DUP1 REVERT JUMPDEST POP GAS CALL ISZERO DUP1 ISZERO PUSH2 0x3160 JUMPI RETURNDATASIZE PUSH0 DUP1 RETURNDATACOPY RETURNDATASIZE PUSH0 REVERT JUMPDEST POP POP POP POP JUMPDEST PUSH1 0x26 DUP1 SLOAD SWAP1 PUSH0 PUSH2 0x3174 DUP4 PUSH2 0x4597 JUMP JUMPDEST SWAP1 SWAP2 SSTORE POP POP PUSH1 0x26 SLOAD PUSH0 DUP2 DUP2 MSTORE PUSH1 0x27 PUSH1 0x20 MSTORE PUSH1 0x40 SWAP1 KECCAK256 SWAP1 DUP2 SSTORE TIMESTAMP PUSH1 0x1 SWAP1 SWAP2 ADD DUP2 SWAP1 SSTORE PUSH2 0x31A2 SWAP1 PUSH3 0x14370 PUSH2 0x4658 JUMP JUMPDEST PUSH1 0x26 SLOAD PUSH0 SWAP1 DUP2 MSTORE PUSH1 0x27 PUSH1 0x20 MSTORE PUSH1 0x40 DUP2 KECCAK256 PUSH1 0x2 ADD SWAP2 SWAP1 SWAP2 SSTORE PUSH1 0x2B DUP2 SWAP1 SSTORE PUSH1 0x2C DUP2 SWAP1 SSTORE PUSH1 0x2D DUP2 SWAP1 SSTORE PUSH1 0x2E DUP2 SWAP1 SSTORE PUSH1 0x28 DUP2 SWAP1 SSTORE JUMPDEST PUSH1 0x25 SLOAD DUP2 LT ISZERO PUSH2 0x3281 JUMPI PUSH0 PUSH1 0x23 PUSH0 PUSH1 0x25 DUP5 DUP2 SLOAD DUP2 LT PUSH2 0x31F4 JUMPI PUSH2 0x31F4 PUSH2 0x46BA JUMP JUMPDEST PUSH0 SWAP2 DUP3 MSTORE PUSH1 0x20 DUP1 DUP4 KECCAK256 SWAP1 SWAP2 ADD SLOAD PUSH1 0x1 PUSH1 0x1 PUSH1 0xA0 SHL SUB AND DUP4 MSTORE DUP3 ADD SWAP3 SWAP1 SWAP3 MSTORE PUSH1 0x40 ADD SWAP1 KECCAK256 SLOAD GT ISZERO PUSH2 0x326F JUMPI PUSH1 0x1 PUSH1 0x23 PUSH0 PUSH1 0x25 DUP5 DUP2 SLOAD DUP2 LT PUSH2 0x3236 JUMPI PUSH2 0x3236 PUSH2 0x46BA JUMP JUMPDEST PUSH0 SWAP2 DUP3 MSTORE PUSH1 0x20 DUP1 DUP4 KECCAK256 SWAP1 SWAP2 ADD SLOAD PUSH1 0x1 PUSH1 0x1 PUSH1 0xA0 SHL SUB AND DUP4 MSTORE DUP3 ADD SWAP3 SWAP1 SWAP3 MSTORE PUSH1 0x40 ADD DUP2 KECCAK256 DUP1 SLOAD SWAP1 SWAP2 SWAP1 PUSH2 0x3269 SWAP1 DUP5 SWAP1 PUSH2 0x4645 JUMP JUMPDEST SWAP1 SWAP2 SSTORE POP POP JUMPDEST DUP1 PUSH2 0x3279 DUP2 PUSH2 0x4597 JUMP JUMPDEST SWAP2 POP POP PUSH2 0x31D3 JUMP JUMPDEST POP PUSH1 0x40 SLOAD PUSH1 0xFF AND PUSH2 0x329A JUMPI PUSH1 0x40 DUP1 SLOAD PUSH1 0xFF NOT AND PUSH1 0x1 OR SWAP1 SSTORE JUMPDEST PUSH2 0x15C0 PUSH2 0x3DA0 JUMP JUMPDEST CALLER PUSH2 0x32AB PUSH2 0x407A JUMP JUMPDEST PUSH2 0x32B3 PUSH2 0x407A JUMP JUMPDEST PUSH0 DUP1 JUMPDEST PUSH1 0x5 DUP2 LT ISZERO PUSH2 0x3319 JUMPI PUSH1 0x1E PUSH0 PUSH1 0x44 DUP4 PUSH1 0x5 DUP2 LT PUSH2 0x32D5 JUMPI PUSH2 0x32D5 PUSH2 0x46BA JUMP JUMPDEST ADD SLOAD PUSH1 0x1 PUSH1 0x1 PUSH1 0xA0 SHL SUB AND DUP2 MSTORE PUSH1 0x20 DUP2 ADD SWAP2 SWAP1 SWAP2 MSTORE PUSH1 0x40 ADD PUSH0 KECCAK256 SLOAD DUP5 DUP3 PUSH1 0x5 DUP2 LT PUSH2 0x3302 JUMPI PUSH2 0x3302 PUSH2 0x46BA JUMP JUMPDEST PUSH1 0x20 MUL ADD MSTORE DUP1 PUSH2 0x3311 DUP2 PUSH2 0x4597 JUMP JUMPDEST SWAP2 POP POP PUSH2 0x32B6 JUMP JUMPDEST POP PUSH0 JUMPDEST PUSH1 0x5 DUP2 LT ISZERO PUSH2 0x3368 JUMPI DUP5 PUSH1 0x1 PUSH1 0x1 PUSH1 0xA0 SHL SUB AND PUSH1 0x44 DUP3 PUSH1 0x5 DUP2 LT PUSH2 0x3342 JUMPI PUSH2 0x3342 PUSH2 0x46BA JUMP JUMPDEST ADD SLOAD PUSH1 0x1 PUSH1 0x1 PUSH1 0xA0 SHL SUB AND SUB PUSH2 0x3356 JUMPI DUP1 SWAP2 POP JUMPDEST DUP1 PUSH2 0x3360 DUP2 PUSH2 0x4597 JUMP JUMPDEST SWAP2 POP POP PUSH2 0x331C JUMP JUMPDEST POP PUSH1 0x1 PUSH1 0x1 PUSH1 0xA0 SHL SUB DUP5 AND PUSH0 SWAP1 DUP2 MSTORE PUSH1 0x1E PUSH1 0x20 MSTORE PUSH1 0x40 SWAP1 KECCAK256 SLOAD DUP4 MLOAD LT DUP1 ISZERO PUSH2 0x339B JUMPI POP PUSH2 0x3397 PUSH1 0x1 PUSH1 0x5 PUSH2 0x4645 JUMP JUMPDEST DUP2 EQ ISZERO JUMPDEST ISZERO PUSH2 0x1770 JUMPI DUP1 PUSH0 SUB PUSH2 0x33B4 JUMPI PUSH1 0x1 PUSH1 0x1 PUSH1 0xA0 SHL SUB DUP5 AND DUP3 MSTORE JUMPDEST PUSH0 PUSH2 0x33C0 DUP3 PUSH1 0x1 PUSH2 0x4658 JUMP JUMPDEST SWAP1 POP JUMPDEST PUSH1 0x5 DUP2 LT ISZERO PUSH2 0x3487 JUMPI PUSH1 0x1 PUSH1 0x1 PUSH1 0xA0 SHL SUB DUP6 AND PUSH0 SWAP1 DUP2 MSTORE PUSH1 0x1E PUSH1 0x20 MSTORE PUSH1 0x40 SWAP1 KECCAK256 SLOAD DUP5 DUP3 PUSH1 0x5 DUP2 LT PUSH2 0x33F6 JUMPI PUSH2 0x33F6 PUSH2 0x46BA JUMP JUMPDEST PUSH1 0x20 MUL ADD MLOAD LT ISZERO PUSH2 0x3475 JUMPI PUSH1 0x44 DUP2 PUSH1 0x5 DUP2 LT PUSH2 0x3414 JUMPI PUSH2 0x3414 PUSH2 0x46BA JUMP JUMPDEST ADD SLOAD PUSH1 0x1 PUSH1 0x1 PUSH1 0xA0 SHL SUB AND DUP4 PUSH2 0x342B PUSH1 0x1 DUP5 PUSH2 0x4645 JUMP JUMPDEST PUSH1 0x5 DUP2 LT PUSH2 0x343B JUMPI PUSH2 0x343B PUSH2 0x46BA JUMP JUMPDEST PUSH1 0x1 PUSH1 0x1 PUSH1 0xA0 SHL SUB SWAP1 SWAP3 AND PUSH1 0x20 SWAP3 SWAP1 SWAP3 MUL ADD MSTORE DUP5 DUP4 DUP3 PUSH1 0x5 DUP2 LT PUSH2 0x3461 JUMPI PUSH2 0x3461 PUSH2 0x46BA JUMP JUMPDEST PUSH1 0x1 PUSH1 0x1 PUSH1 0xA0 SHL SUB SWAP1 SWAP3 AND PUSH1 0x20 SWAP3 SWAP1 SWAP3 MUL ADD MSTORE JUMPDEST DUP1 PUSH2 0x347F DUP2 PUSH2 0x4597 JUMP JUMPDEST SWAP2 POP POP PUSH2 0x33C3 JUMP JUMPDEST POP PUSH2 0x1C86 PUSH1 0x44 DUP4 PUSH1 0x5 PUSH2 0x40E1 JUMP JUMPDEST PUSH0 DUP1 SLOAD PUSH1 0x1 PUSH1 0x1 PUSH1 0xA0 SHL SUB DUP4 DUP2 AND PUSH1 0x1 PUSH1 0x1 PUSH1 0xA0 SHL SUB NOT DUP4 AND DUP2 OR DUP5 SSTORE PUSH1 0x40 MLOAD SWAP2 SWAP1 SWAP3 AND SWAP3 DUP4 SWAP2 PUSH32 0x8BE0079C531659141344CD1FD0A4F28419497F9722A3DAAFE3B4186F6B6457E0 SWAP2 SWAP1 LOG3 POP POP JUMP JUMPDEST PUSH1 0x12 SLOAD PUSH1 0x15 SLOAD PUSH1 0x16 SLOAD PUSH1 0x40 MLOAD PUSH4 0x5D3B1D3 PUSH1 0xE4 SHL DUP2 MSTORE PUSH1 0x4 DUP2 ADD SWAP3 SWAP1 SWAP3 MSTORE PUSH1 0x1 PUSH1 0xA0 SHL DUP4 DIV PUSH8 0xFFFFFFFFFFFFFFFF AND PUSH1 0x24 DUP4 ADD MSTORE PUSH5 0x100000000 DUP2 DIV PUSH2 0xFFFF AND PUSH1 0x44 DUP4 ADD MSTORE PUSH4 0xFFFFFFFF DUP1 DUP3 AND PUSH1 0x64 DUP5 ADD MSTORE PUSH7 0x1000000000000 SWAP1 SWAP2 DIV AND PUSH1 0x84 DUP3 ADD MSTORE PUSH0 SWAP2 PUSH1 0x1 PUSH1 0x1 PUSH1 0xA0 SHL SUB AND SWAP1 PUSH4 0x5D3B1D30 SWAP1 PUSH1 0xA4 ADD PUSH1 0x20 PUSH1 0x40 MLOAD DUP1 DUP4 SUB DUP2 PUSH0 DUP8 GAS CALL ISZERO DUP1 ISZERO PUSH2 0x3578 JUMPI RETURNDATASIZE PUSH0 DUP1 RETURNDATACOPY RETURNDATASIZE PUSH0 REVERT JUMPDEST POP POP POP POP PUSH1 0x40 MLOAD RETURNDATASIZE PUSH1 0x1F NOT PUSH1 0x1F DUP3 ADD AND DUP3 ADD DUP1 PUSH1 0x40 MSTORE POP DUP2 ADD SWAP1 PUSH2 0x359C SWAP2 SWAP1 PUSH2 0x472D JUMP JUMPDEST PUSH1 0x40 DUP1 MLOAD PUSH1 0x60 DUP2 ADD DUP3 MSTORE PUSH0 DUP1 DUP3 MSTORE PUSH1 0x1 PUSH1 0x20 DUP1 DUP5 ADD DUP3 DUP2 MSTORE DUP6 MLOAD DUP5 DUP2 MSTORE DUP1 DUP4 ADD DUP8 MSTORE DUP6 DUP8 ADD SWAP1 DUP2 MSTORE DUP8 DUP6 MSTORE PUSH1 0x17 DUP4 MSTORE SWAP6 SWAP1 SWAP4 KECCAK256 DUP5 MLOAD DUP2 SLOAD SWAP5 MLOAD PUSH2 0xFFFF NOT SWAP1 SWAP6 AND SWAP1 ISZERO ISZERO PUSH2 0xFF00 NOT AND OR PUSH2 0x100 SWAP5 ISZERO ISZERO SWAP5 SWAP1 SWAP5 MUL SWAP4 SWAP1 SWAP4 OR DUP4 SSTORE SWAP4 MLOAD DUP1 MLOAD SWAP6 SWAP7 POP SWAP3 SWAP5 SWAP2 SWAP4 PUSH2 0x3610 SWAP4 SWAP2 DUP6 ADD SWAP3 SWAP2 ADD SWAP1 PUSH2 0x4098 JUMP JUMPDEST POP POP PUSH1 0x13 DUP1 SLOAD PUSH1 0x1 DUP2 ADD DUP3 SSTORE PUSH0 SWAP2 SWAP1 SWAP2 MSTORE PUSH32 0x66DE8FFDA797E3DE9C05E8FC57B3BF0EC28A930D40B0D285D93C06501CF6A090 ADD DUP3 SWAP1 SSTORE POP PUSH1 0x14 DUP2 SWAP1 SSTORE PUSH1 0x16 SLOAD PUSH1 0x40 DUP1 MLOAD DUP4 DUP2 MSTORE PUSH7 0x1000000000000 SWAP1 SWAP3 DIV PUSH4 0xFFFFFFFF AND PUSH1 0x20 DUP4 ADD MSTORE PUSH32 0xCC58B13AD3EAB50626C6A6300B1D139CD6EBB1688A7CCED9461C2F7E762665EE SWAP2 ADD PUSH1 0x40 MLOAD DUP1 SWAP2 SUB SWAP1 LOG1 SWAP1 JUMP JUMPDEST PUSH2 0x36A4 DUP3 DUP3 PUSH2 0x1D19 JUMP JUMPDEST PUSH2 0xFFF JUMPI PUSH1 0x40 MLOAD PUSH4 0xE2517D3F PUSH1 0xE0 SHL DUP2 MSTORE PUSH1 0x1 PUSH1 0x1 PUSH1 0xA0 SHL SUB DUP3 AND PUSH1 0x4 DUP3 ADD MSTORE PUSH1 0x24 DUP2 ADD DUP4 SWAP1 MSTORE PUSH1 0x44 ADD PUSH2 0xDCE JUMP JUMPDEST PUSH1 0x19 SLOAD PUSH0 SWAP1 PUSH1 0x1 PUSH1 0x1 PUSH1 0xA0 SHL SUB AND CALLER EQ DUP1 ISZERO SWAP1 PUSH2 0x36F3 JUMPI POP PUSH1 0x1B SLOAD PUSH1 0xFF AND ISZERO JUMPDEST DUP1 ISZERO PUSH2 0x3708 JUMPI POP PUSH1 0x19 SLOAD PUSH1 0x1 PUSH1 0xA8 SHL SWAP1 DIV PUSH1 0xFF AND JUMPDEST DUP1 ISZERO PUSH2 0x372B JUMPI POP PUSH1 0x1A SLOAD PUSH1 0x41 SLOAD PUSH2 0x371E ADDRESS PUSH2 0x1C8E JUMP JUMPDEST PUSH2 0x3728 SWAP2 SWAP1 PUSH2 0x4645 JUMP JUMPDEST LT ISZERO JUMPDEST SWAP1 POP SWAP1 JUMP JUMPDEST PUSH1 0x1B DUP1 SLOAD PUSH1 0xFF NOT AND PUSH1 0x1 OR SWAP1 SSTORE PUSH1 0x41 SLOAD PUSH0 SWAP1 PUSH2 0x374B ADDRESS PUSH2 0x1C8E JUMP JUMPDEST PUSH2 0x3755 SWAP2 SWAP1 PUSH2 0x4645 JUMP JUMPDEST PUSH1 0x40 DUP1 MLOAD PUSH1 0x2 DUP1 DUP3 MSTORE PUSH1 0x60 DUP3 ADD DUP4 MSTORE SWAP3 SWAP4 POP PUSH0 SWAP3 SWAP1 SWAP2 PUSH1 0x20 DUP4 ADD SWAP1 DUP1 CALLDATASIZE DUP4 CALLDATACOPY ADD SWAP1 POP POP SWAP1 POP ADDRESS DUP2 PUSH0 DUP2 MLOAD DUP2 LT PUSH2 0x378D JUMPI PUSH2 0x378D PUSH2 0x46BA JUMP JUMPDEST PUSH1 0x1 PUSH1 0x1 PUSH1 0xA0 SHL SUB SWAP3 DUP4 AND PUSH1 0x20 SWAP2 DUP3 MUL SWAP3 SWAP1 SWAP3 ADD DUP2 ADD SWAP2 SWAP1 SWAP2 MSTORE PUSH1 0x18 SLOAD PUSH1 0x40 DUP1 MLOAD PUSH4 0x15AB88C9 PUSH1 0xE3 SHL DUP2 MSTORE SWAP1 MLOAD SWAP2 SWAP1 SWAP4 AND SWAP3 PUSH4 0xAD5C4648 SWAP3 PUSH1 0x4 DUP1 DUP4 ADD SWAP4 SWAP2 SWAP3 DUP3 SWAP1 SUB ADD DUP2 DUP7 GAS STATICCALL ISZERO DUP1 ISZERO PUSH2 0x37E4 JUMPI RETURNDATASIZE PUSH0 DUP1 RETURNDATACOPY RETURNDATASIZE PUSH0 REVERT JUMPDEST POP POP POP POP PUSH1 0x40 MLOAD RETURNDATASIZE PUSH1 0x1F NOT PUSH1 0x1F DUP3 ADD AND DUP3 ADD DUP1 PUSH1 0x40 MSTORE POP DUP2 ADD SWAP1 PUSH2 0x3808 SWAP2 SWAP1 PUSH2 0x4744 JUMP JUMPDEST DUP2 PUSH1 0x1 DUP2 MLOAD DUP2 LT PUSH2 0x381B JUMPI PUSH2 0x381B PUSH2 0x46BA JUMP JUMPDEST PUSH1 0x1 PUSH1 0x1 PUSH1 0xA0 SHL SUB SWAP3 DUP4 AND PUSH1 0x20 SWAP2 DUP3 MUL SWAP3 SWAP1 SWAP3 ADD ADD MSTORE PUSH1 0x18 SLOAD AND PUSH4 0x791AC947 DUP4 PUSH0 DUP5 ADDRESS PUSH2 0x384A TIMESTAMP PUSH2 0x12C PUSH2 0x4658 JUMP JUMPDEST PUSH1 0x40 MLOAD DUP7 PUSH4 0xFFFFFFFF AND PUSH1 0xE0 SHL DUP2 MSTORE PUSH1 0x4 ADD PUSH2 0x386A SWAP6 SWAP5 SWAP4 SWAP3 SWAP2 SWAP1 PUSH2 0x475F JUMP JUMPDEST PUSH0 PUSH1 0x40 MLOAD DUP1 DUP4 SUB DUP2 PUSH0 DUP8 DUP1 EXTCODESIZE ISZERO DUP1 ISZERO PUSH2 0x3881 JUMPI PUSH0 DUP1 REVERT JUMPDEST POP GAS CALL ISZERO DUP1 ISZERO PUSH2 0x3893 JUMPI RETURNDATASIZE PUSH0 DUP1 RETURNDATACOPY RETURNDATASIZE PUSH0 REVERT JUMPDEST POP SELFBALANCE SWAP3 POP POP DUP2 ISZERO SWAP1 POP PUSH2 0x38F9 JUMPI PUSH1 0x10 SLOAD PUSH1 0x40 MLOAD PUSH0 SWAP2 PUSH1 0x1 PUSH1 0x1 PUSH1 0xA0 SHL SUB AND SWAP1 PUSH2 0x7530 SWAP1 DUP5 SWAP1 DUP5 DUP2 DUP2 DUP2 DUP6 DUP9 DUP9 CALL SWAP4 POP POP POP POP RETURNDATASIZE DUP1 PUSH0 DUP2 EQ PUSH2 0x38EF JUMPI PUSH1 0x40 MLOAD SWAP2 POP PUSH1 0x1F NOT PUSH1 0x3F RETURNDATASIZE ADD AND DUP3 ADD PUSH1 0x40 MSTORE RETURNDATASIZE DUP3 MSTORE RETURNDATASIZE PUSH0 PUSH1 0x20 DUP5 ADD RETURNDATACOPY PUSH2 0x38F4 JUMP JUMPDEST PUSH1 0x60 SWAP2 POP JUMPDEST POP POP POP POP JUMPDEST POP POP PUSH1 0x1B DUP1 SLOAD PUSH1 0xFF NOT AND SWAP1 SSTORE POP JUMP JUMPDEST PUSH1 0x19 SLOAD PUSH0 SWAP1 DUP2 SWAP1 DUP2 SWAP1 DUP2 SWAP1 DUP2 SWAP1 PUSH1 0x1 PUSH1 0x1 PUSH1 0xA0 SHL SUB DUP10 DUP2 AND SWAP2 AND EQ DUP1 ISZERO PUSH2 0x393D JUMPI POP PUSH1 0x19 SLOAD PUSH1 0x1 PUSH1 0x1 PUSH1 0xA0 SHL SUB DUP9 DUP2 AND SWAP2 AND EQ ISZERO JUMPDEST ISZERO PUSH2 0x3AE2 JUMPI PUSH1 0x1 PUSH1 0x1 PUSH1 0xA0 SHL SUB DUP8 AND PUSH0 SWAP1 DUP2 MSTORE PUSH1 0x23 PUSH1 0x20 MSTORE PUSH1 0x40 SWAP1 KECCAK256 SLOAD PUSH1 0x1 SUB PUSH2 0x39EE JUMPI PUSH1 0x3 PUSH2 0x2710 PUSH1 0x34 SLOAD DUP9 PUSH2 0x3974 SWAP2 SWAP1 PUSH2 0x45E1 JUMP JUMPDEST PUSH2 0x397E SWAP2 SWAP1 PUSH2 0x460C JUMP JUMPDEST PUSH2 0x3988 SWAP2 SWAP1 PUSH2 0x460C JUMP JUMPDEST PUSH1 0x1 PUSH1 0x1 PUSH1 0xA0 SHL SUB DUP1 DUP10 AND PUSH0 SWAP1 DUP2 MSTORE PUSH1 0x1D PUSH1 0x20 SWAP1 DUP2 MSTORE PUSH1 0x40 DUP1 DUP4 KECCAK256 SLOAD SWAP1 SWAP4 AND DUP3 MSTORE PUSH1 0x1F SWAP1 MSTORE SWAP1 DUP2 KECCAK256 DUP1 SLOAD SWAP3 SWAP7 POP DUP7 SWAP6 POP DUP6 SWAP5 POP DUP5 SWAP3 SWAP1 SWAP2 SWAP1 PUSH2 0x39CB SWAP1 DUP5 SWAP1 PUSH2 0x4658 JUMP JUMPDEST SWAP3 POP POP DUP2 SWAP1 SSTORE POP DUP3 PUSH1 0x41 PUSH0 DUP3 DUP3 SLOAD PUSH2 0x39E3 SWAP2 SWAP1 PUSH2 0x4658 JUMP JUMPDEST SWAP1 SWAP2 SSTORE POP PUSH2 0x3CAA SWAP1 POP JUMP JUMPDEST PUSH1 0x1 PUSH1 0x1 PUSH1 0xA0 SHL SUB DUP8 AND PUSH0 SWAP1 DUP2 MSTORE PUSH1 0x23 PUSH1 0x20 MSTORE PUSH1 0x40 SWAP1 KECCAK256 SLOAD PUSH1 0x2 SUB PUSH2 0x3A9A JUMPI PUSH1 0x3 PUSH2 0x2710 PUSH1 0x35 SLOAD DUP9 PUSH2 0x3A20 SWAP2 SWAP1 PUSH2 0x45E1 JUMP JUMPDEST PUSH2 0x3A2A SWAP2 SWAP1 PUSH2 0x460C JUMP JUMPDEST PUSH2 0x3A34 SWAP2 SWAP1 PUSH2 0x460C JUMP JUMPDEST PUSH1 0x1 PUSH1 0x1 PUSH1 0xA0 SHL SUB DUP1 DUP10 AND PUSH0 SWAP1 DUP2 MSTORE PUSH1 0x1D PUSH1 0x20 SWAP1 DUP2 MSTORE PUSH1 0x40 DUP1 DUP4 KECCAK256 SLOAD SWAP1 SWAP4 AND DUP3 MSTORE PUSH1 0x1F SWAP1 MSTORE SWAP1 DUP2 KECCAK256 DUP1 SLOAD SWAP3 SWAP7 POP DUP7 SWAP6 POP DUP6 SWAP5 POP DUP5 SWAP3 SWAP1 SWAP2 SWAP1 PUSH2 0x3A77 SWAP1 DUP5 SWAP1 PUSH2 0x4658 JUMP JUMPDEST SWAP3 POP POP DUP2 SWAP1 SSTORE POP DUP3 PUSH1 0x41 PUSH0 DUP3 DUP3 SLOAD PUSH2 0x3A8F SWAP2 SWAP1 PUSH2 0x4658 JUMP JUMPDEST SWAP1 SWAP2 SSTORE POP PUSH2 0x3ADD SWAP1 POP JUMP JUMPDEST PUSH1 0x1 PUSH1 0x1 PUSH1 0xA0 SHL SUB DUP8 AND PUSH0 SWAP1 DUP2 MSTORE PUSH1 0x23 PUSH1 0x20 MSTORE PUSH1 0x40 SWAP1 KECCAK256 SLOAD PUSH1 0x3 SUB PUSH2 0x3ACC JUMPI PUSH1 0x3 PUSH2 0x2710 PUSH1 0x36 SLOAD DUP9 PUSH2 0x3A20 SWAP2 SWAP1 PUSH2 0x45E1 JUMP JUMPDEST PUSH2 0x2710 PUSH1 0xC SLOAD DUP8 PUSH2 0x397E SWAP2 SWAP1 PUSH2 0x45E1 JUMP JUMPDEST PUSH2 0x3CAA JUMP JUMPDEST PUSH1 0x19 SLOAD PUSH1 0x1 PUSH1 0x1 PUSH1 0xA0 SHL SUB DUP10 DUP2 AND SWAP2 AND EQ DUP1 ISZERO SWAP1 PUSH2 0x3B0D JUMPI POP PUSH1 0x19 SLOAD PUSH1 0x1 PUSH1 0x1 PUSH1 0xA0 SHL SUB DUP9 DUP2 AND SWAP2 AND EQ JUMPDEST ISZERO PUSH2 0x3CAA JUMPI PUSH1 0x40 SLOAD PUSH2 0x100 SWAP1 DIV PUSH1 0xFF AND ISZERO PUSH2 0x3B41 JUMPI PUSH2 0x2710 PUSH2 0x3B30 DUP8 PUSH1 0xA PUSH2 0x45E1 JUMP JUMPDEST PUSH2 0x3B3A SWAP2 SWAP1 PUSH2 0x460C JUMP JUMPDEST SWAP4 POP PUSH2 0x3CAA JUMP JUMPDEST PUSH1 0x1 PUSH1 0x1 PUSH1 0xA0 SHL SUB DUP9 AND PUSH0 SWAP1 DUP2 MSTORE PUSH1 0x23 PUSH1 0x20 MSTORE PUSH1 0x40 SWAP1 KECCAK256 SLOAD PUSH1 0x1 SUB PUSH2 0x3BCA JUMPI PUSH1 0x3 PUSH2 0x2710 PUSH1 0x37 SLOAD DUP9 PUSH2 0x3B73 SWAP2 SWAP1 PUSH2 0x45E1 JUMP JUMPDEST PUSH2 0x3B7D SWAP2 SWAP1 PUSH2 0x460C JUMP JUMPDEST PUSH2 0x3B87 SWAP2 SWAP1 PUSH2 0x460C JUMP JUMPDEST PUSH1 0x1 PUSH1 0x1 PUSH1 0xA0 SHL SUB DUP1 DUP11 AND PUSH0 SWAP1 DUP2 MSTORE PUSH1 0x1D PUSH1 0x20 SWAP1 DUP2 MSTORE PUSH1 0x40 DUP1 DUP4 KECCAK256 SLOAD SWAP1 SWAP4 AND DUP3 MSTORE PUSH1 0x1F SWAP1 MSTORE SWAP1 DUP2 KECCAK256 DUP1 SLOAD SWAP3 SWAP7 POP DUP7 SWAP6 POP DUP6 SWAP5 POP DUP5 SWAP3 SWAP1 SWAP2 SWAP1 PUSH2 0x39CB SWAP1 DUP5 SWAP1 PUSH2 0x4658 JUMP JUMPDEST PUSH1 0x1 PUSH1 0x1 PUSH1 0xA0 SHL SUB DUP9 AND PUSH0 SWAP1 DUP2 MSTORE PUSH1 0x23 PUSH1 0x20 MSTORE PUSH1 0x40 SWAP1 KECCAK256 SLOAD PUSH1 0x2 SUB PUSH2 0x3BFC JUMPI PUSH1 0x3 PUSH2 0x2710 PUSH1 0x38 SLOAD DUP9 PUSH2 0x3B73 SWAP2 SWAP1 PUSH2 0x45E1 JUMP JUMPDEST PUSH1 0x1 PUSH1 0x1 PUSH1 0xA0 SHL SUB DUP9 AND PUSH0 SWAP1 DUP2 MSTORE PUSH1 0x23 PUSH1 0x20 MSTORE PUSH1 0x40 SWAP1 KECCAK256 SLOAD PUSH1 0x3 SUB PUSH2 0x3C2E JUMPI PUSH1 0x3 PUSH2 0x2710 PUSH1 0x39 SLOAD DUP9 PUSH2 0x3B73 SWAP2 SWAP1 PUSH2 0x45E1 JUMP JUMPDEST PUSH2 0x2710 PUSH1 0xE SLOAD DUP8 PUSH2 0x3C3F SWAP2 SWAP1 PUSH2 0x45E1 JUMP JUMPDEST PUSH2 0x3C49 SWAP2 SWAP1 PUSH2 0x460C JUMP JUMPDEST PUSH1 0x1 PUSH1 0x1 PUSH1 0xA0 SHL SUB DUP1 DUP11 AND PUSH0 SWAP1 DUP2 MSTORE PUSH1 0x1D PUSH1 0x20 SWAP1 DUP2 MSTORE PUSH1 0x40 DUP1 DUP4 KECCAK256 SLOAD SWAP1 SWAP4 AND DUP3 MSTORE PUSH1 0x1F SWAP1 MSTORE SWAP1 DUP2 KECCAK256 DUP1 SLOAD SWAP3 SWAP7 POP DUP7 SWAP6 POP DUP6 SWAP5 POP DUP5 SWAP3 SWAP1 SWAP2 SWAP1 PUSH2 0x3C8C SWAP1 DUP5 SWAP1 PUSH2 0x4658 JUMP JUMPDEST SWAP3 POP POP DUP2 SWAP1 SSTORE POP DUP3 PUSH1 0x41 PUSH0 DUP3 DUP3 SLOAD PUSH2 0x3CA4 SWAP2 SWAP1 PUSH2 0x4658 JUMP JUMPDEST SWAP1 SWAP2 SSTORE POP POP JUMPDEST DUP2 PUSH2 0x3CB5 DUP5 DUP7 PUSH2 0x4658 JUMP JUMPDEST PUSH2 0x3CBF SWAP2 SWAP1 PUSH2 0x4658 JUMP JUMPDEST SWAP1 POP DUP1 ISZERO PUSH2 0x3D8A JUMPI PUSH2 0x3CD1 DUP3 DUP3 PUSH2 0x4645 JUMP JUMPDEST ADDRESS PUSH0 SWAP1 DUP2 MSTORE PUSH1 0x7 PUSH1 0x20 MSTORE PUSH1 0x40 DUP2 KECCAK256 DUP1 SLOAD SWAP1 SWAP2 SWAP1 PUSH2 0x3CEF SWAP1 DUP5 SWAP1 PUSH2 0x4658 JUMP JUMPDEST SWAP1 SWAP2 SSTORE POP POP PUSH1 0x21 SLOAD PUSH1 0x1 PUSH1 0x1 PUSH1 0xA0 SHL SUB AND PUSH0 SWAP1 DUP2 MSTORE PUSH1 0x7 PUSH1 0x20 MSTORE PUSH1 0x40 DUP2 KECCAK256 DUP1 SLOAD DUP5 SWAP3 SWAP1 PUSH2 0x3D1D SWAP1 DUP5 SWAP1 PUSH2 0x4658 JUMP JUMPDEST SWAP1 SWAP2 SSTORE POP ADDRESS SWAP1 POP PUSH1 0x1 PUSH1 0x1 PUSH1 0xA0 SHL SUB DUP10 AND PUSH0 DUP1 MLOAD PUSH1 0x20 PUSH2 0x479B DUP4 CODECOPY DUP2 MLOAD SWAP2 MSTORE PUSH2 0x3D46 DUP6 DUP6 PUSH2 0x4645 JUMP JUMPDEST PUSH1 0x40 MLOAD SWAP1 DUP2 MSTORE PUSH1 0x20 ADD PUSH1 0x40 MLOAD DUP1 SWAP2 SUB SWAP1 LOG3 PUSH1 0x21 SLOAD PUSH1 0x40 MLOAD DUP4 DUP2 MSTORE PUSH1 0x1 PUSH1 0x1 PUSH1 0xA0 SHL SUB SWAP2 DUP3 AND SWAP2 DUP11 AND SWAP1 PUSH0 DUP1 MLOAD PUSH1 0x20 PUSH2 0x479B DUP4 CODECOPY DUP2 MLOAD SWAP2 MSTORE SWAP1 PUSH1 0x20 ADD PUSH1 0x40 MLOAD DUP1 SWAP2 SUB SWAP1 LOG3 JUMPDEST PUSH2 0x3D94 DUP2 DUP8 PUSH2 0x4645 JUMP JUMPDEST SWAP9 SWAP8 POP POP POP POP POP POP POP POP JUMP JUMPDEST PUSH1 0x5 SLOAD PUSH2 0x3DD3 PUSH1 0x5 SLOAD PUSH1 0x26 SLOAD PUSH1 0x3A SLOAD PUSH2 0x3DB9 SWAP2 SWAP1 PUSH2 0x45E1 JUMP JUMPDEST PUSH2 0x3DC4 SWAP1 PUSH1 0x64 PUSH2 0x45E1 JUMP JUMPDEST PUSH2 0x3DCE SWAP2 SWAP1 PUSH2 0x45E1 JUMP JUMPDEST PUSH2 0x3EEE JUMP JUMPDEST PUSH1 0xB SLOAD PUSH2 0x3DE0 SWAP2 SWAP1 PUSH2 0x4645 JUMP JUMPDEST PUSH2 0x3DEA SWAP2 SWAP1 PUSH2 0x460C JUMP JUMPDEST PUSH1 0x34 SSTORE PUSH1 0x5 SLOAD PUSH1 0x26 SLOAD PUSH1 0x3B SLOAD PUSH2 0x3E06 SWAP2 DUP4 SWAP2 PUSH2 0x3DB9 SWAP2 SWAP1 PUSH2 0x45E1 JUMP JUMPDEST PUSH1 0xB SLOAD PUSH2 0x3E13 SWAP2 SWAP1 PUSH2 0x4645 JUMP JUMPDEST PUSH2 0x3E1D SWAP2 SWAP1 PUSH2 0x460C JUMP JUMPDEST PUSH1 0x35 SSTORE PUSH1 0x5 SLOAD PUSH1 0x26 SLOAD PUSH1 0x3C SLOAD PUSH2 0x3E39 SWAP2 DUP4 SWAP2 PUSH2 0x3DB9 SWAP2 SWAP1 PUSH2 0x45E1 JUMP JUMPDEST PUSH1 0xB SLOAD PUSH2 0x3E46 SWAP2 SWAP1 PUSH2 0x4645 JUMP JUMPDEST PUSH2 0x3E50 SWAP2 SWAP1 PUSH2 0x460C JUMP JUMPDEST PUSH1 0x36 SSTORE PUSH1 0x5 SLOAD PUSH1 0x26 SLOAD PUSH1 0x3D SLOAD PUSH2 0x3E6C SWAP2 DUP4 SWAP2 PUSH2 0x3DB9 SWAP2 SWAP1 PUSH2 0x45E1 JUMP JUMPDEST PUSH1 0xD SLOAD PUSH2 0x3E79 SWAP2 SWAP1 PUSH2 0x4645 JUMP JUMPDEST PUSH2 0x3E83 SWAP2 SWAP1 PUSH2 0x460C JUMP JUMPDEST PUSH1 0x37 SSTORE PUSH1 0x5 SLOAD PUSH1 0x26 SLOAD PUSH1 0x3E SLOAD PUSH2 0x3E9F SWAP2 DUP4 SWAP2 PUSH2 0x3DB9 SWAP2 SWAP1 PUSH2 0x45E1 JUMP JUMPDEST PUSH1 0xD SLOAD PUSH2 0x3EAC SWAP2 SWAP1 PUSH2 0x4645 JUMP JUMPDEST PUSH2 0x3EB6 SWAP2 SWAP1 PUSH2 0x460C JUMP JUMPDEST PUSH1 0x38 SSTORE PUSH1 0x5 SLOAD PUSH1 0x26 SLOAD PUSH1 0x3F SLOAD PUSH2 0x3ED2 SWAP2 DUP4 SWAP2 PUSH2 0x3DB9 SWAP2 SWAP1 PUSH2 0x45E1 JUMP JUMPDEST PUSH1 0xD SLOAD PUSH2 0x3EDF SWAP2 SWAP1 PUSH2 0x4645 JUMP JUMPDEST PUSH2 0x3EE9 SWAP2 SWAP1 PUSH2 0x460C JUMP JUMPDEST PUSH1 0x39 SSTORE JUMP JUMPDEST PUSH0 DUP2 PUSH0 SUB PUSH2 0x3EFD JUMPI POP PUSH0 SWAP2 SWAP1 POP JUMP JUMPDEST PUSH0 PUSH1 0x1 PUSH2 0x3F09 DUP5 PUSH2 0x3FD2 JUMP JUMPDEST SWAP1 SHR PUSH1 0x1 SWAP1 SHL SWAP1 POP PUSH1 0x1 DUP2 DUP5 DUP2 PUSH2 0x3F22 JUMPI PUSH2 0x3F22 PUSH2 0x45F8 JUMP JUMPDEST DIV DUP3 ADD SWAP1 SHR SWAP1 POP PUSH1 0x1 DUP2 DUP5 DUP2 PUSH2 0x3F3A JUMPI PUSH2 0x3F3A PUSH2 0x45F8 JUMP JUMPDEST DIV DUP3 ADD SWAP1 SHR SWAP1 POP PUSH1 0x1 DUP2 DUP5 DUP2 PUSH2 0x3F52 JUMPI PUSH2 0x3F52 PUSH2 0x45F8 JUMP JUMPDEST DIV DUP3 ADD SWAP1 SHR SWAP1 POP PUSH1 0x1 DUP2 DUP5 DUP2 PUSH2 0x3F6A JUMPI PUSH2 0x3F6A PUSH2 0x45F8 JUMP JUMPDEST DIV DUP3 ADD SWAP1 SHR SWAP1 POP PUSH1 0x1 DUP2 DUP5 DUP2 PUSH2 0x3F82 JUMPI PUSH2 0x3F82 PUSH2 0x45F8 JUMP JUMPDEST DIV DUP3 ADD SWAP1 SHR SWAP1 POP PUSH1 0x1 DUP2 DUP5 DUP2 PUSH2 0x3F9A JUMPI PUSH2 0x3F9A PUSH2 0x45F8 JUMP JUMPDEST DIV DUP3 ADD SWAP1 SHR SWAP1 POP PUSH1 0x1 DUP2 DUP5 DUP2 PUSH2 0x3FB2 JUMPI PUSH2 0x3FB2 PUSH2 0x45F8 JUMP JUMPDEST DIV DUP3 ADD SWAP1 SHR SWAP1 POP PUSH2 0x27E9 DUP2 DUP3 DUP6 DUP2 PUSH2 0x3FCC JUMPI PUSH2 0x3FCC PUSH2 0x45F8 JUMP JUMPDEST DIV PUSH2 0x4065 JUMP JUMPDEST PUSH0 DUP1 PUSH1 0x80 DUP4 SWAP1 SHR ISZERO PUSH2 0x3FE6 JUMPI PUSH1 0x80 SWAP3 DUP4 SHR SWAP3 ADD JUMPDEST PUSH1 0x40 DUP4 SWAP1 SHR ISZERO PUSH2 0x3FF8 JUMPI PUSH1 0x40 SWAP3 DUP4 SHR SWAP3 ADD JUMPDEST PUSH1 0x20 DUP4 SWAP1 SHR ISZERO PUSH2 0x400A JUMPI PUSH1 0x20 SWAP3 DUP4 SHR SWAP3 ADD JUMPDEST PUSH1 0x10 DUP4 SWAP1 SHR ISZERO PUSH2 0x401C JUMPI PUSH1 0x10 SWAP3 DUP4 SHR SWAP3 ADD JUMPDEST PUSH1 0x8 DUP4 SWAP1 SHR ISZERO PUSH2 0x402E JUMPI PUSH1 0x8 SWAP3 DUP4 SHR SWAP3 ADD JUMPDEST PUSH1 0x4 DUP4 SWAP1 SHR ISZERO PUSH2 0x4040 JUMPI PUSH1 0x4 SWAP3 DUP4 SHR SWAP3 ADD JUMPDEST PUSH1 0x2 DUP4 SWAP1 SHR ISZERO PUSH2 0x4052 JUMPI PUSH1 0x2 SWAP3 DUP4 SHR SWAP3 ADD JUMPDEST PUSH1 0x1 DUP4 SWAP1 SHR ISZERO PUSH2 0x1154 JUMPI PUSH1 0x1 ADD SWAP3 SWAP2 POP POP JUMP JUMPDEST PUSH0 DUP2 DUP4 LT PUSH2 0x4073 JUMPI DUP2 PUSH2 0x27E9 JUMP JUMPDEST POP SWAP1 SWAP2 SWAP1 POP JUMP JUMPDEST PUSH1 0x40 MLOAD DUP1 PUSH1 0xA0 ADD PUSH1 0x40 MSTORE DUP1 PUSH1 0x5 SWAP1 PUSH1 0x20 DUP3 MUL DUP1 CALLDATASIZE DUP4 CALLDATACOPY POP SWAP2 SWAP3 SWAP2 POP POP JUMP JUMPDEST DUP3 DUP1 SLOAD DUP3 DUP3 SSTORE SWAP1 PUSH0 MSTORE PUSH1 0x20 PUSH0 KECCAK256 SWAP1 DUP2 ADD SWAP3 DUP3 ISZERO PUSH2 0x40D1 JUMPI SWAP2 PUSH1 0x20 MUL DUP3 ADD JUMPDEST DUP3 DUP2 GT ISZERO PUSH2 0x40D1 JUMPI DUP3 MLOAD DUP3 SSTORE SWAP2 PUSH1 0x20 ADD SWAP2 SWAP1 PUSH1 0x1 ADD SWAP1 PUSH2 0x40B6 JUMP JUMPDEST POP PUSH2 0x40DD SWAP3 SWAP2 POP PUSH2 0x4129 JUMP JUMPDEST POP SWAP1 JUMP JUMPDEST DUP3 PUSH1 0x5 DUP2 ADD SWAP3 DUP3 ISZERO PUSH2 0x40D1 JUMPI SWAP2 PUSH1 0x20 MUL DUP3 ADD JUMPDEST DUP3 DUP2 GT ISZERO PUSH2 0x40D1 JUMPI DUP3 MLOAD DUP3 SLOAD PUSH1 0x1 PUSH1 0x1 PUSH1 0xA0 SHL SUB NOT AND PUSH1 0x1 PUSH1 0x1 PUSH1 0xA0 SHL SUB SWAP1 SWAP2 AND OR DUP3 SSTORE PUSH1 0x20 SWAP1 SWAP3 ADD SWAP2 PUSH1 0x1 SWAP1 SWAP2 ADD SWAP1 PUSH2 0x40F4 JUMP JUMPDEST JUMPDEST DUP1 DUP3 GT ISZERO PUSH2 0x40DD JUMPI PUSH0 DUP2 SSTORE PUSH1 0x1 ADD PUSH2 0x412A JUMP JUMPDEST PUSH1 0x1 PUSH1 0x1 PUSH1 0xA0 SHL SUB DUP2 AND DUP2 EQ PUSH2 0x1C8B JUMPI PUSH0 DUP1 REVERT JUMPDEST PUSH0 PUSH1 0x20 DUP3 DUP5 SUB SLT ISZERO PUSH2 0x4161 JUMPI PUSH0 DUP1 REVERT JUMPDEST DUP2 CALLDATALOAD PUSH2 0x27E9 DUP2 PUSH2 0x413D JUMP JUMPDEST PUSH0 PUSH1 0x20 DUP3 DUP5 SUB SLT ISZERO PUSH2 0x417C JUMPI PUSH0 DUP1 REVERT JUMPDEST DUP2 CALLDATALOAD PUSH1 0x1 PUSH1 0x1 PUSH1 0xE0 SHL SUB NOT DUP2 AND DUP2 EQ PUSH2 0x27E9 JUMPI PUSH0 DUP1 REVERT JUMPDEST PUSH0 PUSH1 0x20 DUP1 DUP4 MSTORE DUP4 MLOAD DUP1 DUP3 DUP6 ADD MSTORE PUSH0 JUMPDEST DUP2 DUP2 LT ISZERO PUSH2 0x41BE JUMPI DUP6 DUP2 ADD DUP4 ADD MLOAD DUP6 DUP3 ADD PUSH1 0x40 ADD MSTORE DUP3 ADD PUSH2 0x41A2 JUMP JUMPDEST POP PUSH0 PUSH1 0x40 DUP3 DUP7 ADD ADD MSTORE PUSH1 0x40 PUSH1 0x1F NOT PUSH1 0x1F DUP4 ADD AND DUP6 ADD ADD SWAP3 POP POP POP SWAP3 SWAP2 POP POP JUMP JUMPDEST PUSH0 DUP1 PUSH1 0x40 DUP4 DUP6 SUB SLT ISZERO PUSH2 0x41EF JUMPI PUSH0 DUP1 REVERT JUMPDEST DUP3 CALLDATALOAD PUSH2 0x41FA DUP2 PUSH2 0x413D JUMP JUMPDEST SWAP5 PUSH1 0x20 SWAP4 SWAP1 SWAP4 ADD CALLDATALOAD SWAP4 POP POP POP JUMP JUMPDEST PUSH0 PUSH1 0x20 DUP3 DUP5 SUB SLT ISZERO PUSH2 0x4218 JUMPI PUSH0 DUP1 REVERT JUMPDEST POP CALLDATALOAD SWAP2 SWAP1 POP JUMP JUMPDEST PUSH4 0x4E487B71 PUSH1 0xE0 SHL PUSH0 MSTORE PUSH1 0x41 PUSH1 0x4 MSTORE PUSH1 0x24 PUSH0 REVERT JUMPDEST PUSH1 0x40 MLOAD PUSH1 0x1F DUP3 ADD PUSH1 0x1F NOT AND DUP2 ADD PUSH8 0xFFFFFFFFFFFFFFFF DUP2 GT DUP3 DUP3 LT OR ISZERO PUSH2 0x425C JUMPI PUSH2 0x425C PUSH2 0x421F JUMP JUMPDEST PUSH1 0x40 MSTORE SWAP2 SWAP1 POP JUMP JUMPDEST PUSH0 PUSH8 0xFFFFFFFFFFFFFFFF DUP3 GT ISZERO PUSH2 0x427D JUMPI PUSH2 0x427D PUSH2 0x421F JUMP JUMPDEST POP PUSH1 0x5 SHL PUSH1 0x20 ADD SWAP1 JUMP JUMPDEST PUSH0 DUP1 PUSH1 0x40 DUP4 DUP6 SUB SLT ISZERO PUSH2 0x4298 JUMPI PUSH0 DUP1 REVERT JUMPDEST DUP3 CALLDATALOAD SWAP2 POP PUSH1 0x20 DUP1 DUP5 ADD CALLDATALOAD PUSH8 0xFFFFFFFFFFFFFFFF DUP2 GT ISZERO PUSH2 0x42B6 JUMPI PUSH0 DUP1 REVERT JUMPDEST DUP5 ADD PUSH1 0x1F DUP2 ADD DUP7 SGT PUSH2 0x42C6 JUMPI PUSH0 DUP1 REVERT JUMPDEST DUP1 CALLDATALOAD PUSH2 0x42D9 PUSH2 0x42D4 DUP3 PUSH2 0x4264 JUMP JUMPDEST PUSH2 0x4233 JUMP JUMPDEST DUP2 DUP2 MSTORE PUSH1 0x5 SWAP2 SWAP1 SWAP2 SHL DUP3 ADD DUP4 ADD SWAP1 DUP4 DUP2 ADD SWAP1 DUP9 DUP4 GT ISZERO PUSH2 0x42F7 JUMPI PUSH0 DUP1 REVERT JUMPDEST SWAP3 DUP5 ADD SWAP3 JUMPDEST DUP3 DUP5 LT ISZERO PUSH2 0x4315 JUMPI DUP4 CALLDATALOAD DUP3 MSTORE SWAP3 DUP5 ADD SWAP3 SWAP1 DUP5 ADD SWAP1 PUSH2 0x42FC JUMP JUMPDEST DUP1 SWAP6 POP POP POP POP POP POP SWAP3 POP SWAP3 SWAP1 POP JUMP JUMPDEST DUP1 CALLDATALOAD DUP1 ISZERO ISZERO DUP2 EQ PUSH2 0x4333 JUMPI PUSH0 DUP1 REVERT JUMPDEST SWAP2 SWAP1 POP JUMP JUMPDEST PUSH0 DUP1 PUSH1 0x40 DUP4 DUP6 SUB SLT ISZERO PUSH2 0x4349 JUMPI PUSH0 DUP1 REVERT JUMPDEST DUP3 CALLDATALOAD PUSH2 0x4354 DUP2 PUSH2 0x413D JUMP JUMPDEST SWAP2 POP PUSH2 0x4362 PUSH1 0x20 DUP5 ADD PUSH2 0x4324 JUMP JUMPDEST SWAP1 POP SWAP3 POP SWAP3 SWAP1 POP JUMP JUMPDEST PUSH0 DUP1 PUSH0 PUSH1 0x60 DUP5 DUP7 SUB SLT ISZERO PUSH2 0x437D JUMPI PUSH0 DUP1 REVERT JUMPDEST DUP4 CALLDATALOAD PUSH2 0x4388 DUP2 PUSH2 0x413D JUMP JUMPDEST SWAP3 POP PUSH1 0x20 DUP5 ADD CALLDATALOAD PUSH2 0x4398 DUP2 PUSH2 0x413D JUMP JUMPDEST SWAP3 SWAP6 SWAP3 SWAP5 POP POP POP PUSH1 0x40 SWAP2 SWAP1 SWAP2 ADD CALLDATALOAD SWAP1 JUMP JUMPDEST PUSH0 DUP1 PUSH1 0x40 DUP4 DUP6 SUB SLT ISZERO PUSH2 0x43BA JUMPI PUSH0 DUP1 REVERT JUMPDEST DUP3 CALLDATALOAD SWAP2 POP PUSH1 0x20 DUP4 ADD CALLDATALOAD PUSH2 0x43CC DUP2 PUSH2 0x413D JUMP JUMPDEST DUP1 SWAP2 POP POP SWAP3 POP SWAP3 SWAP1 POP JUMP JUMPDEST PUSH0 DUP2 MLOAD DUP1 DUP5 MSTORE PUSH1 0x20 DUP1 DUP6 ADD SWAP5 POP DUP1 DUP5 ADD PUSH0 JUMPDEST DUP4 DUP2 LT ISZERO PUSH2 0x440E JUMPI DUP2 MLOAD PUSH1 0x1 PUSH1 0x1 PUSH1 0xA0 SHL SUB AND DUP8 MSTORE SWAP6 DUP3 ADD SWAP6 SWAP1 DUP3 ADD SWAP1 PUSH1 0x1 ADD PUSH2 0x43E9 JUMP JUMPDEST POP SWAP5 SWAP6 SWAP5 POP POP POP POP POP JUMP JUMPDEST PUSH1 0x20 DUP2 MSTORE PUSH0 PUSH2 0x27E9 PUSH1 0x20 DUP4 ADD DUP5 PUSH2 0x43D7 JUMP JUMPDEST PUSH1 0xA0 DUP2 ADD DUP2 DUP4 PUSH0 JUMPDEST PUSH1 0x5 DUP2 LT ISZERO PUSH2 0x445B JUMPI DUP2 MLOAD PUSH1 0x1 PUSH1 0x1 PUSH1 0xA0 SHL SUB AND DUP4 MSTORE PUSH1 0x20 SWAP3 DUP4 ADD SWAP3 SWAP1 SWAP2 ADD SWAP1 PUSH1 0x1 ADD PUSH2 0x4433 JUMP JUMPDEST POP POP POP SWAP3 SWAP2 POP POP JUMP JUMPDEST PUSH0 DUP1 PUSH1 0x40 DUP4 DUP6 SUB SLT ISZERO PUSH2 0x4475 JUMPI PUSH0 DUP1 REVERT JUMPDEST DUP3 CALLDATALOAD PUSH2 0x4480 DUP2 PUSH2 0x413D JUMP JUMPDEST SWAP2 POP PUSH1 0x20 DUP4 ADD CALLDATALOAD PUSH2 0x43CC DUP2 PUSH2 0x413D JUMP JUMPDEST PUSH0 DUP1 PUSH1 0x40 DUP4 DUP6 SUB SLT ISZERO PUSH2 0x44A1 JUMPI PUSH0 DUP1 REVERT JUMPDEST PUSH2 0x41FA DUP4 PUSH2 0x4324 JUMP JUMPDEST PUSH0 PUSH1 0x20 DUP1 DUP4 DUP6 SUB SLT ISZERO PUSH2 0x44BB JUMPI PUSH0 DUP1 REVERT JUMPDEST DUP3 CALLDATALOAD PUSH8 0xFFFFFFFFFFFFFFFF DUP2 GT ISZERO PUSH2 0x44D1 JUMPI PUSH0 DUP1 REVERT JUMPDEST DUP4 ADD PUSH1 0x1F DUP2 ADD DUP6 SGT PUSH2 0x44E1 JUMPI PUSH0 DUP1 REVERT JUMPDEST DUP1 CALLDATALOAD PUSH2 0x44EF PUSH2 0x42D4 DUP3 PUSH2 0x4264 JUMP JUMPDEST DUP2 DUP2 MSTORE PUSH1 0x5 SWAP2 SWAP1 SWAP2 SHL DUP3 ADD DUP4 ADD SWAP1 DUP4 DUP2 ADD SWAP1 DUP8 DUP4 GT ISZERO PUSH2 0x450D JUMPI PUSH0 DUP1 REVERT JUMPDEST SWAP3 DUP5 ADD SWAP3 JUMPDEST DUP3 DUP5 LT ISZERO PUSH2 0x4534 JUMPI DUP4 CALLDATALOAD PUSH2 0x4525 DUP2 PUSH2 0x413D JUMP JUMPDEST DUP3 MSTORE SWAP3 DUP5 ADD SWAP3 SWAP1 DUP5 ADD SWAP1 PUSH2 0x4512 JUMP JUMPDEST SWAP8 SWAP7 POP POP POP POP POP POP POP JUMP JUMPDEST PUSH1 0x20 DUP1 DUP3 MSTORE PUSH1 0x24 SWAP1 DUP3 ADD MSTORE PUSH32 0x45706F6368206973206F7665722C207761697420666F7220746865206E657874 PUSH1 0x40 DUP3 ADD MSTORE PUSH4 0x206F6E65 PUSH1 0xE0 SHL PUSH1 0x60 DUP3 ADD MSTORE PUSH1 0x80 ADD SWAP1 JUMP JUMPDEST PUSH4 0x4E487B71 PUSH1 0xE0 SHL PUSH0 MSTORE PUSH1 0x11 PUSH1 0x4 MSTORE PUSH1 0x24 PUSH0 REVERT JUMPDEST PUSH0 PUSH1 0x1 DUP3 ADD PUSH2 0x45A8 JUMPI PUSH2 0x45A8 PUSH2 0x4583 JUMP JUMPDEST POP PUSH1 0x1 ADD SWAP1 JUMP JUMPDEST PUSH1 0x1 DUP2 DUP2 SHR SWAP1 DUP3 AND DUP1 PUSH2 0x45C3 JUMPI PUSH1 0x7F DUP3 AND SWAP2 POP JUMPDEST PUSH1 0x20 DUP3 LT DUP2 SUB PUSH2 0x2809 JUMPI PUSH4 0x4E487B71 PUSH1 0xE0 SHL PUSH0 MSTORE PUSH1 0x22 PUSH1 0x4 MSTORE PUSH1 0x24 PUSH0 REVERT JUMPDEST DUP1 DUP3 MUL DUP2 ISZERO DUP3 DUP3 DIV DUP5 EQ OR PUSH2 0x1154 JUMPI PUSH2 0x1154 PUSH2 0x4583 JUMP JUMPDEST PUSH4 0x4E487B71 PUSH1 0xE0 SHL PUSH0 MSTORE PUSH1 0x12 PUSH1 0x4 MSTORE PUSH1 0x24 PUSH0 REVERT JUMPDEST PUSH0 DUP3 PUSH2 0x461A JUMPI PUSH2 0x461A PUSH2 0x45F8 JUMP JUMPDEST POP DIV SWAP1 JUMP JUMPDEST PUSH1 0x20 DUP1 DUP3 MSTORE PUSH1 0xC SWAP1 DUP3 ADD MSTORE PUSH12 0x23B0B6B29034B99037BB32B9 PUSH1 0xA1 SHL PUSH1 0x40 DUP3 ADD MSTORE PUSH1 0x60 ADD SWAP1 JUMP JUMPDEST DUP2 DUP2 SUB DUP2 DUP2 GT ISZERO PUSH2 0x1154 JUMPI PUSH2 0x1154 PUSH2 0x4583 JUMP JUMPDEST DUP1 DUP3 ADD DUP1 DUP3 GT ISZERO PUSH2 0x1154 JUMPI PUSH2 0x1154 PUSH2 0x4583 JUMP JUMPDEST PUSH1 0x20 DUP1 DUP3 MSTORE DUP3 SLOAD DUP3 DUP3 ADD DUP2 SWAP1 MSTORE PUSH0 DUP5 DUP2 MSTORE DUP3 DUP2 KECCAK256 SWAP1 SWAP3 SWAP2 PUSH1 0x40 DUP6 ADD SWAP1 DUP5 JUMPDEST DUP2 DUP2 LT ISZERO PUSH2 0x46AE JUMPI DUP4 SLOAD PUSH1 0x1 PUSH1 0x1 PUSH1 0xA0 SHL SUB AND DUP4 MSTORE PUSH1 0x1 SWAP4 DUP5 ADD SWAP4 SWAP3 DUP6 ADD SWAP3 ADD PUSH2 0x4689 JUMP JUMPDEST POP SWAP1 SWAP7 SWAP6 POP POP POP POP POP POP JUMP JUMPDEST PUSH4 0x4E487B71 PUSH1 0xE0 SHL PUSH0 MSTORE PUSH1 0x32 PUSH1 0x4 MSTORE PUSH1 0x24 PUSH0 REVERT JUMPDEST PUSH0 DUP3 PUSH2 0x46DC JUMPI PUSH2 0x46DC PUSH2 0x45F8 JUMP JUMPDEST POP MOD SWAP1 JUMP JUMPDEST PUSH0 PUSH1 0x40 DUP3 ADD DUP5 DUP4 MSTORE PUSH1 0x20 PUSH1 0x40 DUP2 DUP6 ADD MSTORE DUP2 DUP6 MLOAD DUP1 DUP5 MSTORE PUSH1 0x60 DUP7 ADD SWAP2 POP DUP3 DUP8 ADD SWAP4 POP PUSH0 JUMPDEST DUP2 DUP2 LT ISZERO PUSH2 0x4720 JUMPI DUP5 MLOAD DUP4 MSTORE SWAP4 DUP4 ADD SWAP4 SWAP2 DUP4 ADD SWAP2 PUSH1 0x1 ADD PUSH2 0x4704 JUMP JUMPDEST POP SWAP1 SWAP8 SWAP7 POP POP POP POP POP POP POP JUMP JUMPDEST PUSH0 PUSH1 0x20 DUP3 DUP5 SUB SLT ISZERO PUSH2 0x473D JUMPI PUSH0 DUP1 REVERT JUMPDEST POP MLOAD SWAP2 SWAP1 POP JUMP JUMPDEST PUSH0 PUSH1 0x20 DUP3 DUP5 SUB SLT ISZERO PUSH2 0x4754 JUMPI PUSH0 DUP1 REVERT JUMPDEST DUP2 MLOAD PUSH2 0x27E9 DUP2 PUSH2 0x413D JUMP JUMPDEST DUP6 DUP2 MSTORE DUP5 PUSH1 0x20 DUP3 ADD MSTORE PUSH1 0xA0 PUSH1 0x40 DUP3 ADD MSTORE PUSH0 PUSH2 0x477D PUSH1 0xA0 DUP4 ADD DUP7 PUSH2 0x43D7 JUMP JUMPDEST PUSH1 0x1 PUSH1 0x1 PUSH1 0xA0 SHL SUB SWAP5 SWAP1 SWAP5 AND PUSH1 0x60 DUP4 ADD MSTORE POP PUSH1 0x80 ADD MSTORE SWAP4 SWAP3 POP POP POP JUMP INVALID 0xDD CALLCODE MSTORE 0xAD SHL 0xE2 0xC8 SWAP12 PUSH10 0xC2B068FC378DAA952BA7 CALL PUSH4 0xC4A11628 CREATE2 GAS 0x4D CREATE2 0x23 0xB3 0xEF LOG4 SWAP9 SMOD KECCAK256 0x5C 0xE4 0xD3 SSTORE MULMOD 0x2E CREATE2 0xA8 LOG1 DUP16 JUMP 0xE8 SWAP2 EXTCODECOPY DELEGATECALL LOG2 ADD 0xFB 0xE2 DUP8 DUP3 JUMPDEST MULMOD JUMP SWAP4 0xC2 OR PUSH22 0xA2646970667358221220682A83256C627A6D583130EA PUSH4 0xC7757475 0xD5 0xD3 0x4C MSTORE RETURNDATACOPY MULMOD LOG0 0xE CALL ISZERO DUP11 RETURNDATASIZE PUSH7 0xE40464736F6C63 NUMBER STOP ADDMOD EQ STOP CALLER PUSH1 0x80 PUSH1 0x40 MSTORE PUSH11 0x14ADF4B7320334B9000000 PUSH1 0x3 SSTORE PUSH0 PUSH1 0x4 SSTORE CALLVALUE DUP1 ISZERO PUSH2 0x22 JUMPI PUSH0 DUP1 REVERT JUMPDEST POP PUSH1 0x40 MLOAD PUSH2 0x862 CODESIZE SUB DUP1 PUSH2 0x862 DUP4 CODECOPY DUP2 ADD PUSH1 0x40 DUP2 SWAP1 MSTORE PUSH2 0x41 SWAP2 PUSH2 0x113 JUMP JUMPDEST DUP1 PUSH1 0x1 PUSH1 0x1 PUSH1 0xA0 SHL SUB DUP2 AND PUSH2 0x6F JUMPI PUSH1 0x40 MLOAD PUSH4 0x1E4FBDF7 PUSH1 0xE0 SHL DUP2 MSTORE PUSH0 PUSH1 0x4 DUP3 ADD MSTORE PUSH1 0x24 ADD PUSH1 0x40 MLOAD DUP1 SWAP2 SUB SWAP1 REVERT JUMPDEST PUSH2 0x78 DUP2 PUSH2 0xA9 JUMP JUMPDEST POP POP PUSH1 0x1 DUP1 SLOAD PUSH1 0x1 PUSH1 0x1 PUSH1 0xA0 SHL SUB SWAP1 SWAP3 AND PUSH1 0x1 PUSH1 0x1 PUSH1 0xA0 SHL SUB NOT SWAP3 DUP4 AND DUP2 OR SWAP1 SWAP2 SSTORE PUSH1 0x2 DUP1 SLOAD SWAP1 SWAP3 AND OR SWAP1 SSTORE PUSH2 0x144 JUMP JUMPDEST PUSH0 DUP1 SLOAD PUSH1 0x1 PUSH1 0x1 PUSH1 0xA0 SHL SUB DUP4 DUP2 AND PUSH1 0x1 PUSH1 0x1 PUSH1 0xA0 SHL SUB NOT DUP4 AND DUP2 OR DUP5 SSTORE PUSH1 0x40 MLOAD SWAP2 SWAP1 SWAP3 AND SWAP3 DUP4 SWAP2 PUSH32 0x8BE0079C531659141344CD1FD0A4F28419497F9722A3DAAFE3B4186F6B6457E0 SWAP2 SWAP1 LOG3 POP POP JUMP JUMPDEST DUP1 MLOAD PUSH1 0x1 PUSH1 0x1 PUSH1 0xA0 SHL SUB DUP2 AND DUP2 EQ PUSH2 0x10E JUMPI PUSH0 DUP1 REVERT JUMPDEST SWAP2 SWAP1 POP JUMP JUMPDEST PUSH0 DUP1 PUSH1 0x40 DUP4 DUP6 SUB SLT ISZERO PUSH2 0x124 JUMPI PUSH0 DUP1 REVERT JUMPDEST PUSH2 0x12D DUP4 PUSH2 0xF8 JUMP JUMPDEST SWAP2 POP PUSH2 0x13B PUSH1 0x20 DUP5 ADD PUSH2 0xF8 JUMP JUMPDEST SWAP1 POP SWAP3 POP SWAP3 SWAP1 POP JUMP JUMPDEST PUSH2 0x711 DUP1 PUSH2 0x151 PUSH0 CODECOPY PUSH0 RETURN INVALID PUSH1 0x80 PUSH1 0x40 MSTORE CALLVALUE DUP1 ISZERO PUSH2 0xF JUMPI PUSH0 DUP1 REVERT JUMPDEST POP PUSH1 0x4 CALLDATASIZE LT PUSH2 0x85 JUMPI PUSH0 CALLDATALOAD PUSH1 0xE0 SHR DUP1 PUSH4 0xEFCA2EED GT PUSH2 0x58 JUMPI DUP1 PUSH4 0xEFCA2EED EQ PUSH2 0xD7 JUMPI DUP1 PUSH4 0xF25ADDF5 EQ PUSH2 0xEE JUMPI DUP1 PUSH4 0xF2FDE38B EQ PUSH2 0x101 JUMPI DUP1 PUSH4 0xFC0C546A EQ PUSH2 0x114 JUMPI PUSH0 DUP1 REVERT JUMPDEST DUP1 PUSH4 0x715018A6 EQ PUSH2 0x89 JUMPI DUP1 PUSH4 0x853828B6 EQ PUSH2 0x93 JUMPI DUP1 PUSH4 0x8DA5CB5B EQ PUSH2 0x9B JUMPI DUP1 PUSH4 0x9D76EA58 EQ PUSH2 0xC4 JUMPI JUMPDEST PUSH0 DUP1 REVERT JUMPDEST PUSH2 0x91 PUSH2 0x127 JUMP JUMPDEST STOP JUMPDEST PUSH2 0x91 PUSH2 0x13A JUMP JUMPDEST PUSH0 SLOAD PUSH1 0x1 PUSH1 0x1 PUSH1 0xA0 SHL SUB AND JUMPDEST PUSH1 0x40 MLOAD PUSH1 0x1 PUSH1 0x1 PUSH1 0xA0 SHL SUB SWAP1 SWAP2 AND DUP2 MSTORE PUSH1 0x20 ADD JUMPDEST PUSH1 0x40 MLOAD DUP1 SWAP2 SUB SWAP1 RETURN JUMPDEST PUSH1 0x2 SLOAD PUSH2 0xA7 SWAP1 PUSH1 0x1 PUSH1 0x1 PUSH1 0xA0 SHL SUB AND DUP2 JUMP JUMPDEST PUSH2 0xE0 PUSH1 0x4 SLOAD DUP2 JUMP JUMPDEST PUSH1 0x40 MLOAD SWAP1 DUP2 MSTORE PUSH1 0x20 ADD PUSH2 0xBB JUMP JUMPDEST PUSH2 0x91 PUSH2 0xFC CALLDATASIZE PUSH1 0x4 PUSH2 0x54D JUMP JUMPDEST PUSH2 0x225 JUMP JUMPDEST PUSH2 0x91 PUSH2 0x10F CALLDATASIZE PUSH1 0x4 PUSH2 0x60D JUMP JUMPDEST PUSH2 0x469 JUMP JUMPDEST PUSH1 0x1 SLOAD PUSH2 0xA7 SWAP1 PUSH1 0x1 PUSH1 0x1 PUSH1 0xA0 SHL SUB AND DUP2 JUMP JUMPDEST PUSH2 0x12F PUSH2 0x4A3 JUMP JUMPDEST PUSH2 0x138 PUSH0 PUSH2 0x4CF JUMP JUMPDEST JUMP JUMPDEST PUSH2 0x142 PUSH2 0x4A3 JUMP JUMPDEST PUSH1 0x1 SLOAD PUSH1 0x40 MLOAD PUSH4 0x70A08231 PUSH1 0xE0 SHL DUP2 MSTORE ADDRESS PUSH1 0x4 DUP3 ADD MSTORE PUSH1 0x1 PUSH1 0x1 PUSH1 0xA0 SHL SUB SWAP1 SWAP2 AND SWAP1 PUSH4 0xA9059CBB SWAP1 CALLER SWAP1 DUP4 SWAP1 PUSH4 0x70A08231 SWAP1 PUSH1 0x24 ADD PUSH1 0x20 PUSH1 0x40 MLOAD DUP1 DUP4 SUB DUP2 DUP7 GAS STATICCALL ISZERO DUP1 ISZERO PUSH2 0x192 JUMPI RETURNDATASIZE PUSH0 DUP1 RETURNDATACOPY RETURNDATASIZE PUSH0 REVERT JUMPDEST POP POP POP POP PUSH1 0x40 MLOAD RETURNDATASIZE PUSH1 0x1F NOT PUSH1 0x1F DUP3 ADD AND DUP3 ADD DUP1 PUSH1 0x40 MSTORE POP DUP2 ADD SWAP1 PUSH2 0x1B6 SWAP2 SWAP1 PUSH2 0x62D JUMP JUMPDEST PUSH1 0x40 MLOAD PUSH1 0x1 PUSH1 0x1 PUSH1 0xE0 SHL SUB NOT PUSH1 0xE0 DUP6 SWAP1 SHL AND DUP2 MSTORE PUSH1 0x1 PUSH1 0x1 PUSH1 0xA0 SHL SUB SWAP1 SWAP3 AND PUSH1 0x4 DUP4 ADD MSTORE PUSH1 0x24 DUP3 ADD MSTORE PUSH1 0x44 ADD PUSH1 0x20 PUSH1 0x40 MLOAD DUP1 DUP4 SUB DUP2 PUSH0 DUP8 GAS CALL ISZERO DUP1 ISZERO PUSH2 0x1FE JUMPI RETURNDATASIZE PUSH0 DUP1 RETURNDATACOPY RETURNDATASIZE PUSH0 REVERT JUMPDEST POP POP POP POP PUSH1 0x40 MLOAD RETURNDATASIZE PUSH1 0x1F NOT PUSH1 0x1F DUP3 ADD AND DUP3 ADD DUP1 PUSH1 0x40 MSTORE POP DUP2 ADD SWAP1 PUSH2 0x222 SWAP2 SWAP1 PUSH2 0x644 JUMP JUMPDEST POP JUMP JUMPDEST PUSH1 0x2 SLOAD PUSH1 0x1 PUSH1 0x1 PUSH1 0xA0 SHL SUB AND CALLER EQ PUSH2 0x297 JUMPI PUSH1 0x40 MLOAD PUSH3 0x461BCD PUSH1 0xE5 SHL DUP2 MSTORE PUSH1 0x20 PUSH1 0x4 DUP3 ADD MSTORE PUSH1 0x2A PUSH1 0x24 DUP3 ADD MSTORE PUSH32 0x4F6E6C7920746F6B656E20636F6E74726163742063616E2063616C6C20746869 PUSH1 0x44 DUP3 ADD MSTORE PUSH10 0x3990333AB731BA34B7B7 PUSH1 0xB1 SHL PUSH1 0x64 DUP3 ADD MSTORE PUSH1 0x84 ADD JUMPDEST PUSH1 0x40 MLOAD DUP1 SWAP2 SUB SWAP1 REVERT JUMPDEST PUSH1 0x3 SLOAD PUSH1 0x1 SLOAD PUSH1 0x40 MLOAD PUSH4 0x70A08231 PUSH1 0xE0 SHL DUP2 MSTORE ADDRESS PUSH1 0x4 DUP3 ADD MSTORE PUSH0 SWAP3 SWAP2 PUSH1 0x1 PUSH1 0x1 PUSH1 0xA0 SHL SUB AND SWAP1 PUSH4 0x70A08231 SWAP1 PUSH1 0x24 ADD PUSH1 0x20 PUSH1 0x40 MLOAD DUP1 DUP4 SUB DUP2 DUP7 GAS STATICCALL ISZERO DUP1 ISZERO PUSH2 0x2E1 JUMPI RETURNDATASIZE PUSH0 DUP1 RETURNDATACOPY RETURNDATASIZE PUSH0 REVERT JUMPDEST POP POP POP POP PUSH1 0x40 MLOAD RETURNDATASIZE PUSH1 0x1F NOT PUSH1 0x1F DUP3 ADD AND DUP3 ADD DUP1 PUSH1 0x40 MSTORE POP DUP2 ADD SWAP1 PUSH2 0x305 SWAP2 SWAP1 PUSH2 0x62D JUMP JUMPDEST GT PUSH2 0x379 JUMPI PUSH1 0x1 SLOAD PUSH1 0x40 MLOAD PUSH4 0x70A08231 PUSH1 0xE0 SHL DUP2 MSTORE ADDRESS PUSH1 0x4 DUP3 ADD MSTORE PUSH1 0x1 PUSH1 0x1 PUSH1 0xA0 SHL SUB SWAP1 SWAP2 AND SWAP1 PUSH4 0x70A08231 SWAP1 PUSH1 0x24 ADD PUSH1 0x20 PUSH1 0x40 MLOAD DUP1 DUP4 SUB DUP2 DUP7 GAS STATICCALL ISZERO DUP1 ISZERO PUSH2 0x350 JUMPI RETURNDATASIZE PUSH0 DUP1 RETURNDATACOPY RETURNDATASIZE PUSH0 REVERT JUMPDEST POP POP POP POP PUSH1 0x40 MLOAD RETURNDATASIZE PUSH1 0x1F NOT PUSH1 0x1F DUP3 ADD AND DUP3 ADD DUP1 PUSH1 0x40 MSTORE POP DUP2 ADD SWAP1 PUSH2 0x374 SWAP2 SWAP1 PUSH2 0x62D JUMP JUMPDEST PUSH2 0x37D JUMP JUMPDEST PUSH1 0x3 SLOAD JUMPDEST SWAP1 POP DUP1 PUSH1 0x4 PUSH0 DUP3 DUP3 SLOAD PUSH2 0x390 SWAP2 SWAP1 PUSH2 0x677 JUMP JUMPDEST SWAP1 SWAP2 SSTORE POP POP DUP1 ISZERO PUSH2 0x465 JUMPI PUSH0 JUMPDEST DUP3 MLOAD DUP2 LT ISZERO PUSH2 0x463 JUMPI PUSH1 0x1 SLOAD DUP4 MLOAD PUSH1 0x1 PUSH1 0x1 PUSH1 0xA0 SHL SUB SWAP1 SWAP2 AND SWAP1 PUSH4 0xA9059CBB SWAP1 DUP6 SWAP1 DUP5 SWAP1 DUP2 LT PUSH2 0x3CF JUMPI PUSH2 0x3CF PUSH2 0x690 JUMP JUMPDEST PUSH1 0x20 MUL PUSH1 0x20 ADD ADD MLOAD DUP6 MLOAD DUP6 PUSH2 0x3E4 SWAP2 SWAP1 PUSH2 0x6A4 JUMP JUMPDEST PUSH1 0x40 MLOAD PUSH1 0x1 PUSH1 0x1 PUSH1 0xE0 SHL SUB NOT PUSH1 0xE0 DUP6 SWAP1 SHL AND DUP2 MSTORE PUSH1 0x1 PUSH1 0x1 PUSH1 0xA0 SHL SUB SWAP1 SWAP3 AND PUSH1 0x4 DUP4 ADD MSTORE PUSH1 0x24 DUP3 ADD MSTORE PUSH1 0x44 ADD PUSH1 0x20 PUSH1 0x40 MLOAD DUP1 DUP4 SUB DUP2 PUSH0 DUP8 GAS CALL ISZERO DUP1 ISZERO PUSH2 0x42C JUMPI RETURNDATASIZE PUSH0 DUP1 RETURNDATACOPY RETURNDATASIZE PUSH0 REVERT JUMPDEST POP POP POP POP PUSH1 0x40 MLOAD RETURNDATASIZE PUSH1 0x1F NOT PUSH1 0x1F DUP3 ADD AND DUP3 ADD DUP1 PUSH1 0x40 MSTORE POP DUP2 ADD SWAP1 PUSH2 0x450 SWAP2 SWAP1 PUSH2 0x644 JUMP JUMPDEST POP DUP1 PUSH2 0x45B DUP2 PUSH2 0x6C3 JUMP JUMPDEST SWAP2 POP POP PUSH2 0x39D JUMP JUMPDEST POP JUMPDEST POP POP JUMP JUMPDEST PUSH2 0x471 PUSH2 0x4A3 JUMP JUMPDEST PUSH1 0x1 PUSH1 0x1 PUSH1 0xA0 SHL SUB DUP2 AND PUSH2 0x49A JUMPI PUSH1 0x40 MLOAD PUSH4 0x1E4FBDF7 PUSH1 0xE0 SHL DUP2 MSTORE PUSH0 PUSH1 0x4 DUP3 ADD MSTORE PUSH1 0x24 ADD PUSH2 0x28E JUMP JUMPDEST PUSH2 0x222 DUP2 PUSH2 0x4CF JUMP JUMPDEST PUSH0 SLOAD PUSH1 0x1 PUSH1 0x1 PUSH1 0xA0 SHL SUB AND CALLER EQ PUSH2 0x138 JUMPI PUSH1 0x40 MLOAD PUSH4 0x118CDAA7 PUSH1 0xE0 SHL DUP2 MSTORE CALLER PUSH1 0x4 DUP3 ADD MSTORE PUSH1 0x24 ADD PUSH2 0x28E JUMP JUMPDEST PUSH0 DUP1 SLOAD PUSH1 0x1 PUSH1 0x1 PUSH1 0xA0 SHL SUB DUP4 DUP2 AND PUSH1 0x1 PUSH1 0x1 PUSH1 0xA0 SHL SUB NOT DUP4 AND DUP2 OR DUP5 SSTORE PUSH1 0x40 MLOAD SWAP2 SWAP1 SWAP3 AND SWAP3 DUP4 SWAP2 PUSH32 0x8BE0079C531659141344CD1FD0A4F28419497F9722A3DAAFE3B4186F6B6457E0 SWAP2 SWAP1 LOG3 POP POP JUMP JUMPDEST PUSH4 0x4E487B71 PUSH1 0xE0 SHL PUSH0 MSTORE PUSH1 0x41 PUSH1 0x4 MSTORE PUSH1 0x24 PUSH0 REVERT JUMPDEST DUP1 CALLDATALOAD PUSH1 0x1 PUSH1 0x1 PUSH1 0xA0 SHL SUB DUP2 AND DUP2 EQ PUSH2 0x548 JUMPI PUSH0 DUP1 REVERT JUMPDEST SWAP2 SWAP1 POP JUMP JUMPDEST PUSH0 PUSH1 0x20 DUP1 DUP4 DUP6 SUB SLT ISZERO PUSH2 0x55E JUMPI PUSH0 DUP1 REVERT JUMPDEST DUP3 CALLDATALOAD PUSH8 0xFFFFFFFFFFFFFFFF DUP1 DUP3 GT ISZERO PUSH2 0x575 JUMPI PUSH0 DUP1 REVERT JUMPDEST DUP2 DUP6 ADD SWAP2 POP DUP6 PUSH1 0x1F DUP4 ADD SLT PUSH2 0x588 JUMPI PUSH0 DUP1 REVERT JUMPDEST DUP2 CALLDATALOAD DUP2 DUP2 GT ISZERO PUSH2 0x59A JUMPI PUSH2 0x59A PUSH2 0x51E JUMP JUMPDEST DUP1 PUSH1 0x5 SHL PUSH1 0x40 MLOAD PUSH1 0x1F NOT PUSH1 0x3F DUP4 ADD AND DUP2 ADD DUP2 DUP2 LT DUP6 DUP3 GT OR ISZERO PUSH2 0x5BF JUMPI PUSH2 0x5BF PUSH2 0x51E JUMP JUMPDEST PUSH1 0x40 MSTORE SWAP2 DUP3 MSTORE DUP5 DUP3 ADD SWAP3 POP DUP4 DUP2 ADD DUP6 ADD SWAP2 DUP9 DUP4 GT ISZERO PUSH2 0x5DC JUMPI PUSH0 DUP1 REVERT JUMPDEST SWAP4 DUP6 ADD SWAP4 JUMPDEST DUP3 DUP6 LT ISZERO PUSH2 0x601 JUMPI PUSH2 0x5F2 DUP6 PUSH2 0x532 JUMP JUMPDEST DUP5 MSTORE SWAP4 DUP6 ADD SWAP4 SWAP3 DUP6 ADD SWAP3 PUSH2 0x5E1 JUMP JUMPDEST SWAP9 SWAP8 POP POP POP POP POP POP POP POP JUMP JUMPDEST PUSH0 PUSH1 0x20 DUP3 DUP5 SUB SLT ISZERO PUSH2 0x61D JUMPI PUSH0 DUP1 REVERT JUMPDEST PUSH2 0x626 DUP3 PUSH2 0x532 JUMP JUMPDEST SWAP4 SWAP3 POP POP POP JUMP JUMPDEST PUSH0 PUSH1 0x20 DUP3 DUP5 SUB SLT ISZERO PUSH2 0x63D JUMPI PUSH0 DUP1 REVERT JUMPDEST POP MLOAD SWAP2 SWAP1 POP JUMP JUMPDEST PUSH0 PUSH1 0x20 DUP3 DUP5 SUB SLT ISZERO PUSH2 0x654 JUMPI PUSH0 DUP1 REVERT JUMPDEST DUP2 MLOAD DUP1 ISZERO ISZERO DUP2 EQ PUSH2 0x626 JUMPI PUSH0 DUP1 REVERT JUMPDEST PUSH4 0x4E487B71 PUSH1 0xE0 SHL PUSH0 MSTORE PUSH1 0x11 PUSH1 0x4 MSTORE PUSH1 0x24 PUSH0 REVERT JUMPDEST DUP1 DUP3 ADD DUP1 DUP3 GT ISZERO PUSH2 0x68A JUMPI PUSH2 0x68A PUSH2 0x663 JUMP JUMPDEST SWAP3 SWAP2 POP POP JUMP JUMPDEST PUSH4 0x4E487B71 PUSH1 0xE0 SHL PUSH0 MSTORE PUSH1 0x32 PUSH1 0x4 MSTORE PUSH1 0x24 PUSH0 REVERT JUMPDEST PUSH0 DUP3 PUSH2 0x6BE JUMPI PUSH4 0x4E487B71 PUSH1 0xE0 SHL PUSH0 MSTORE PUSH1 0x12 PUSH1 0x4 MSTORE PUSH1 0x24 PUSH0 REVERT JUMPDEST POP DIV SWAP1 JUMP JUMPDEST PUSH0 PUSH1 0x1 DUP3 ADD PUSH2 0x6D4 JUMPI PUSH2 0x6D4 PUSH2 0x663 JUMP JUMPDEST POP PUSH1 0x1 ADD SWAP1 JUMP INVALID LOG2 PUSH5 0x6970667358 0x22 SLT KECCAK256 SWAP6 SWAP7 0xFB 0x21 DUP5 0xB3 0xE5 REVERT SWAP15 0xC0 0xE3 PUSH21 0xA2DE8665596861283D9E757A0E907F78D40E5DF164 PUSH20 0x6F6C634300081400330000000000000000000000 "},"methodIdentifiers":{"ADMIN_ROLE()":"75b238fc","DEFAULT_ADMIN_ROLE()":"a217fddf","MarketingWallet()":"2598cdb2","allowance(address,address)":"dd62ed3e","amountOfAllInfection()":"c3ec8897","amountOfInfection(address)":"0f44e894","approve(address,uint256)":"095ea7b3","approveMax(address)":"571ac8b0","balanceOf(address)":"70a08231","buyCapsule()":"d3a9ffc4","capsuleCount()":"05dc0394","capsuleCurrentCount()":"1bd8ebe1","capsulePrice()":"5bc04469","claim()":"4e71d92d","decimals()":"313ce567","endGame()":"6cbc2ded","epochId()":"aa9bbc0c","epochs(uint256)":"c6b61e4c","getBestInfectors()":"c26d68f9","getGotLuckyVaccine()":"6789c92c","getHasOpenedCapsule(address)":"02b2553e","getHasUpgrade(address)":"014c58a3","getIsBuyer(address)":"fd6e28cf","getRequestFullfilled(address)":"1781e17c","getRoleAdmin(bytes32)":"248a9ca3","grantRole(bytes32,address)":"2f2ff15d","hasRole(bytes32,address)":"91d14854","infect(address)":"96eb64a9","infectOG(address[])":"f5415cbb","infected(address)":"636ee0db","infecter(address)":"3eca5343","isGameOver()":"0e04a7d8","isGameStarted()":"c315432a","isTradingEnabled()":"064a59d0","lastRequestId()":"fc2a88c3","name()":"06fdde03","openCapsule(address)":"007f27ae","owner()":"8da5cb5b","pair()":"a8aa1b31","pendingRewards(address)":"31d7a262","rawFulfillRandomWords(uint256,uint256[])":"1fe543e3","renounceOwnership()":"715018a6","renounceRole(bytes32,address)":"36568abe","requestIds(uint256)":"8796ba8c","revokeRole(bytes32,address)":"d547741f","router()":"f887ea40","setCapsulePrice(uint256)":"1299d7f7","setFeesWallet(address)":"43d4f92b","setIsFeeExempt(address,bool)":"658d4b7f","setIsTradingEnabled()":"1ce78ac8","setIsWalletLimitExempt(address,bool)":"2198cf6c","setMaxWallet()":"d02c6394","setProbabilityMaxRange(uint256)":"fd39ef78","setSpecialVaccineSupply(uint256)":"f25c7ea4","setSwapBackSettings(bool,uint256)":"df20fd49","setSwapPair(address)":"73a432bb","startNewEpoch()":"3aab0a62","supportsInterface(bytes4)":"01ffc9a7","swapEnabled()":"6ddd1713","symbol()":"95d89b41","totalAllRewards()":"5119c971","totalRewards(address)":"ab7573dd","totalSupply()":"18160ddd","transfer(address,uint256)":"a9059cbb","transferFrom(address,address,uint256)":"23b872dd","transferOwnership(address)":"f2fde38b","upgradeVaccine()":"196228c0","userCurrentVaccine(address)":"54d41b5b","userHasBoughtVaccine(address)":"8c5799ce","vaccineFourSupply()":"4726319f","vault()":"fbfa77cf"}}}}}