{"contracts/BLIArbi.sol":{"BLI":{"abi":[{"inputs":[{"internalType":"address","name":"initialOwner","type":"address"}],"stateMutability":"nonpayable","type":"constructor"},{"inputs":[],"name":"AccessControlBadConfirmation","type":"error"},{"inputs":[{"internalType":"address","name":"account","type":"address"},{"internalType":"bytes32","name":"neededRole","type":"bytes32"}],"name":"AccessControlUnauthorizedAccount","type":"error"},{"inputs":[{"internalType":"address","name":"have","type":"address"},{"internalType":"address","name":"want","type":"address"}],"name":"OnlyCoordinatorCanFulfill","type":"error"},{"inputs":[{"internalType":"address","name":"owner","type":"address"}],"name":"OwnableInvalidOwner","type":"error"},{"inputs":[{"internalType":"address","name":"account","type":"address"}],"name":"OwnableUnauthorizedAccount","type":"error"},{"anonymous":false,"inputs":[{"indexed":true,"internalType":"address","name":"owner","type":"address"},{"indexed":true,"internalType":"address","name":"spender","type":"address"},{"indexed":false,"internalType":"uint256","name":"value","type":"uint256"}],"name":"Approval","type":"event"},{"anonymous":false,"inputs":[{"indexed":false,"internalType":"uint256","name":"amountETH","type":"uint256"},{"indexed":false,"internalType":"uint256","name":"amountBOG","type":"uint256"}],"name":"AutoLiquify","type":"event"},{"anonymous":false,"inputs":[{"indexed":true,"internalType":"address","name":"user","type":"address"},{"indexed":false,"internalType":"uint256","name":"id","type":"uint256"}],"name":"CapsuleBought","type":"event"},{"anonymous":false,"inputs":[{"indexed":true,"internalType":"address","name":"user","type":"address"},{"indexed":false,"internalType":"uint256","name":"vaccine","type":"uint256"},{"indexed":false,"internalType":"bool","name":"vaccine4","type":"bool"}],"name":"CapsuleOpened","type":"event"},{"anonymous":false,"inputs":[{"indexed":false,"internalType":"uint256","name":"epochId","type":"uint256"}],"name":"NewEpochStarted","type":"event"},{"anonymous":false,"inputs":[{"indexed":true,"internalType":"address","name":"previousOwner","type":"address"},{"indexed":true,"internalType":"address","name":"newOwner","type":"address"}],"name":"OwnershipTransferred","type":"event"},{"anonymous":false,"inputs":[{"indexed":false,"internalType":"uint256","name":"requestId","type":"uint256"},{"indexed":false,"internalType":"uint256[]","name":"randomWords","type":"uint256[]"}],"name":"RequestFulfilled","type":"event"},{"anonymous":false,"inputs":[{"indexed":false,"internalType":"uint256","name":"requestId","type":"uint256"},{"indexed":false,"internalType":"uint32","name":"numWords","type":"uint32"}],"name":"RequestSent","type":"event"},{"anonymous":false,"inputs":[{"indexed":true,"internalType":"bytes32","name":"role","type":"bytes32"},{"indexed":true,"internalType":"bytes32","name":"previousAdminRole","type":"bytes32"},{"indexed":true,"internalType":"bytes32","name":"newAdminRole","type":"bytes32"}],"name":"RoleAdminChanged","type":"event"},{"anonymous":false,"inputs":[{"indexed":true,"internalType":"bytes32","name":"role","type":"bytes32"},{"indexed":true,"internalType":"address","name":"account","type":"address"},{"indexed":true,"internalType":"address","name":"sender","type":"address"}],"name":"RoleGranted","type":"event"},{"anonymous":false,"inputs":[{"indexed":true,"internalType":"bytes32","name":"role","type":"bytes32"},{"indexed":true,"internalType":"address","name":"account","type":"address"},{"indexed":true,"internalType":"address","name":"sender","type":"address"}],"name":"RoleRevoked","type":"event"},{"anonymous":false,"inputs":[{"indexed":true,"internalType":"address","name":"from","type":"address"},{"indexed":true,"internalType":"address","name":"to","type":"address"},{"indexed":false,"internalType":"uint256","name":"value","type":"uint256"}],"name":"Transfer","type":"event"},{"anonymous":false,"inputs":[{"indexed":true,"internalType":"address","name":"user","type":"address"},{"indexed":false,"internalType":"uint256","name":"amount","type":"uint256"}],"name":"_claim","type":"event"},{"inputs":[],"name":"ADMIN_ROLE","outputs":[{"internalType":"bytes32","name":"","type":"bytes32"}],"stateMutability":"view","type":"function"},{"inputs":[],"name":"DEFAULT_ADMIN_ROLE","outputs":[{"internalType":"bytes32","name":"","type":"bytes32"}],"stateMutability":"view","type":"function"},{"inputs":[],"name":"MarketingWallet","outputs":[{"internalType":"address","name":"","type":"address"}],"stateMutability":"view","type":"function"},{"inputs":[{"internalType":"address","name":"holder","type":"address"},{"internalType":"address","name":"spender","type":"address"}],"name":"allowance","outputs":[{"internalType":"uint256","name":"","type":"uint256"}],"stateMutability":"view","type":"function"},{"inputs":[],"name":"amountOfAllInfection","outputs":[{"internalType":"uint256","name":"","type":"uint256"}],"stateMutability":"view","type":"function"},{"inputs":[{"internalType":"address","name":"","type":"address"}],"name":"amountOfInfection","outputs":[{"internalType":"uint256","name":"","type":"uint256"}],"stateMutability":"view","type":"function"},{"inputs":[{"internalType":"address","name":"spender","type":"address"},{"internalType":"uint256","name":"amount","type":"uint256"}],"name":"approve","outputs":[{"internalType":"bool","name":"","type":"bool"}],"stateMutability":"nonpayable","type":"function"},{"inputs":[{"internalType":"address","name":"spender","type":"address"}],"name":"approveMax","outputs":[{"internalType":"bool","name":"","type":"bool"}],"stateMutability":"nonpayable","type":"function"},{"inputs":[{"internalType":"address","name":"account","type":"address"}],"name":"balanceOf","outputs":[{"internalType":"uint256","name":"","type":"uint256"}],"stateMutability":"view","type":"function"},{"inputs":[],"name":"buyCapsule","outputs":[],"stateMutability":"nonpayable","type":"function"},{"inputs":[],"name":"capsuleCount","outputs":[{"internalType":"uint256","name":"","type":"uint256"}],"stateMutability":"view","type":"function"},{"inputs":[],"name":"capsuleCurrentCount","outputs":[{"internalType":"uint256","name":"","type":"uint256"}],"stateMutability":"view","type":"function"},{"inputs":[],"name":"capsulePrice","outputs":[{"internalType":"uint256","name":"","type":"uint256"}],"stateMutability":"view","type":"function"},{"inputs":[],"name":"claim","outputs":[],"stateMutability":"nonpayable","type":"function"},{"inputs":[],"name":"decimals","outputs":[{"internalType":"uint8","name":"","type":"uint8"}],"stateMutability":"pure","type":"function"},{"inputs":[],"name":"endGame","outputs":[],"stateMutability":"nonpayable","type":"function"},{"inputs":[],"name":"epochId","outputs":[{"internalType":"uint256","name":"","type":"uint256"}],"stateMutability":"view","type":"function"},{"inputs":[{"internalType":"uint256","name":"","type":"uint256"}],"name":"epochs","outputs":[{"internalType":"uint256","name":"id","type":"uint256"},{"internalType":"uint256","name":"startTime","type":"uint256"},{"internalType":"uint256","name":"endTime","type":"uint256"}],"stateMutability":"view","type":"function"},{"inputs":[],"name":"getBestInfectors","outputs":[{"internalType":"address[5]","name":"","type":"address[5]"}],"stateMutability":"view","type":"function"},{"inputs":[],"name":"getGotLuckyVaccine","outputs":[{"internalType":"address[]","name":"","type":"address[]"}],"stateMutability":"view","type":"function"},{"inputs":[{"internalType":"address","name":"user","type":"address"}],"name":"getHasOpenedCapsule","outputs":[{"internalType":"bool","name":"","type":"bool"}],"stateMutability":"view","type":"function"},{"inputs":[{"internalType":"address","name":"user","type":"address"}],"name":"getHasUpgrade","outputs":[{"internalType":"bool","name":"","type":"bool"}],"stateMutability":"view","type":"function"},{"inputs":[{"internalType":"address","name":"user","type":"address"}],"name":"getIsBuyer","outputs":[{"internalType":"bool","name":"","type":"bool"}],"stateMutability":"view","type":"function"},{"inputs":[{"internalType":"address","name":"user","type":"address"}],"name":"getRequestFullfilled","outputs":[{"internalType":"bool","name":"","type":"bool"}],"stateMutability":"view","type":"function"},{"inputs":[{"internalType":"bytes32","name":"role","type":"bytes32"}],"name":"getRoleAdmin","outputs":[{"internalType":"bytes32","name":"","type":"bytes32"}],"stateMutability":"view","type":"function"},{"inputs":[{"internalType":"bytes32","name":"role","type":"bytes32"},{"internalType":"address","name":"account","type":"address"}],"name":"grantRole","outputs":[],"stateMutability":"nonpayable","type":"function"},{"inputs":[{"internalType":"bytes32","name":"role","type":"bytes32"},{"internalType":"address","name":"account","type":"address"}],"name":"hasRole","outputs":[{"internalType":"bool","name":"","type":"bool"}],"stateMutability":"view","type":"function"},{"inputs":[{"internalType":"address","name":"_toInfect","type":"address"}],"name":"infect","outputs":[],"stateMutability":"nonpayable","type":"function"},{"inputs":[{"internalType":"address[]","name":"_toInfect","type":"address[]"}],"name":"infectOG","outputs":[],"stateMutability":"nonpayable","type":"function"},{"inputs":[{"internalType":"address","name":"","type":"address"}],"name":"infected","outputs":[{"internalType":"bool","name":"","type":"bool"}],"stateMutability":"view","type":"function"},{"inputs":[{"internalType":"address","name":"","type":"address"}],"name":"infecter","outputs":[{"internalType":"address","name":"","type":"address"}],"stateMutability":"view","type":"function"},{"inputs":[],"name":"initializePair","outputs":[],"stateMutability":"nonpayable","type":"function"},{"inputs":[],"name":"isGameOver","outputs":[{"internalType":"bool","name":"","type":"bool"}],"stateMutability":"view","type":"function"},{"inputs":[],"name":"isGameStarted","outputs":[{"internalType":"bool","name":"","type":"bool"}],"stateMutability":"view","type":"function"},{"inputs":[],"name":"isTradingEnabled","outputs":[{"internalType":"bool","name":"","type":"bool"}],"stateMutability":"view","type":"function"},{"inputs":[],"name":"lastRequestId","outputs":[{"internalType":"uint256","name":"","type":"uint256"}],"stateMutability":"view","type":"function"},{"inputs":[],"name":"name","outputs":[{"internalType":"string","name":"","type":"string"}],"stateMutability":"view","type":"function"},{"inputs":[{"internalType":"address","name":"user","type":"address"}],"name":"openCapsule","outputs":[],"stateMutability":"nonpayable","type":"function"},{"inputs":[],"name":"owner","outputs":[{"internalType":"address","name":"","type":"address"}],"stateMutability":"view","type":"function"},{"inputs":[],"name":"pair","outputs":[{"internalType":"address","name":"","type":"address"}],"stateMutability":"view","type":"function"},{"inputs":[{"internalType":"address","name":"","type":"address"}],"name":"pendingRewards","outputs":[{"internalType":"uint256","name":"","type":"uint256"}],"stateMutability":"view","type":"function"},{"inputs":[{"internalType":"uint256","name":"requestId","type":"uint256"},{"internalType":"uint256[]","name":"randomWords","type":"uint256[]"}],"name":"rawFulfillRandomWords","outputs":[],"stateMutability":"nonpayable","type":"function"},{"inputs":[],"name":"renounceOwnership","outputs":[],"stateMutability":"nonpayable","type":"function"},{"inputs":[{"internalType":"bytes32","name":"role","type":"bytes32"},{"internalType":"address","name":"callerConfirmation","type":"address"}],"name":"renounceRole","outputs":[],"stateMutability":"nonpayable","type":"function"},{"inputs":[{"internalType":"uint256","name":"","type":"uint256"}],"name":"requestIds","outputs":[{"internalType":"uint256","name":"","type":"uint256"}],"stateMutability":"view","type":"function"},{"inputs":[{"internalType":"bytes32","name":"role","type":"bytes32"},{"internalType":"address","name":"account","type":"address"}],"name":"revokeRole","outputs":[],"stateMutability":"nonpayable","type":"function"},{"inputs":[],"name":"router","outputs":[{"internalType":"contract ICamelotRouter","name":"","type":"address"}],"stateMutability":"view","type":"function"},{"inputs":[{"internalType":"uint256","name":"_price","type":"uint256"}],"name":"setCapsulePrice","outputs":[],"stateMutability":"nonpayable","type":"function"},{"inputs":[{"internalType":"address","name":"_MarketingWallet","type":"address"}],"name":"setFeesWallet","outputs":[],"stateMutability":"nonpayable","type":"function"},{"inputs":[{"internalType":"address","name":"holder","type":"address"},{"internalType":"bool","name":"exempt","type":"bool"}],"name":"setIsFeeExempt","outputs":[],"stateMutability":"nonpayable","type":"function"},{"inputs":[],"name":"setIsTradingEnabled","outputs":[],"stateMutability":"nonpayable","type":"function"},{"inputs":[{"internalType":"address","name":"holder","type":"address"},{"internalType":"bool","name":"exempt","type":"bool"}],"name":"setIsWalletLimitExempt","outputs":[],"stateMutability":"nonpayable","type":"function"},{"inputs":[{"internalType":"bytes32","name":"_keyHash","type":"bytes32"}],"name":"setKeyHash","outputs":[],"stateMutability":"nonpayable","type":"function"},{"inputs":[],"name":"setMaxWallet","outputs":[],"stateMutability":"nonpayable","type":"function"},{"inputs":[{"internalType":"uint256","name":"_range","type":"uint256"}],"name":"setProbabilityMaxRange","outputs":[],"stateMutability":"nonpayable","type":"function"},{"inputs":[{"internalType":"uint256","name":"_amount","type":"uint256"}],"name":"setSpecialVaccineSupply","outputs":[],"stateMutability":"nonpayable","type":"function"},{"inputs":[{"internalType":"bool","name":"_enabled","type":"bool"},{"internalType":"uint256","name":"_amount","type":"uint256"}],"name":"setSwapBackSettings","outputs":[],"stateMutability":"nonpayable","type":"function"},{"inputs":[{"internalType":"address","name":"pairaddr","type":"address"}],"name":"setSwapPair","outputs":[],"stateMutability":"nonpayable","type":"function"},{"inputs":[],"name":"startNewEpoch","outputs":[],"stateMutability":"nonpayable","type":"function"},{"inputs":[{"internalType":"bytes4","name":"interfaceId","type":"bytes4"}],"name":"supportsInterface","outputs":[{"internalType":"bool","name":"","type":"bool"}],"stateMutability":"view","type":"function"},{"inputs":[],"name":"swapEnabled","outputs":[{"internalType":"bool","name":"","type":"bool"}],"stateMutability":"view","type":"function"},{"inputs":[],"name":"symbol","outputs":[{"internalType":"string","name":"","type":"string"}],"stateMutability":"view","type":"function"},{"inputs":[],"name":"totalAllRewards","outputs":[{"internalType":"uint256","name":"","type":"uint256"}],"stateMutability":"view","type":"function"},{"inputs":[{"internalType":"address","name":"","type":"address"}],"name":"totalRewards","outputs":[{"internalType":"uint256","name":"","type":"uint256"}],"stateMutability":"view","type":"function"},{"inputs":[],"name":"totalSupply","outputs":[{"internalType":"uint256","name":"","type":"uint256"}],"stateMutability":"view","type":"function"},{"inputs":[{"internalType":"address","name":"recipient","type":"address"},{"internalType":"uint256","name":"amount","type":"uint256"}],"name":"transfer","outputs":[{"internalType":"bool","name":"","type":"bool"}],"stateMutability":"nonpayable","type":"function"},{"inputs":[{"internalType":"address","name":"sender","type":"address"},{"internalType":"address","name":"recipient","type":"address"},{"internalType":"uint256","name":"amount","type":"uint256"}],"name":"transferFrom","outputs":[{"internalType":"bool","name":"","type":"bool"}],"stateMutability":"nonpayable","type":"function"},{"inputs":[{"internalType":"address","name":"newOwner","type":"address"}],"name":"transferOwnership","outputs":[],"stateMutability":"nonpayable","type":"function"},{"inputs":[],"name":"upgradeVaccine","outputs":[],"stateMutability":"nonpayable","type":"function"},{"inputs":[{"internalType":"address","name":"","type":"address"}],"name":"userCurrentVaccine","outputs":[{"internalType":"uint256","name":"","type":"uint256"}],"stateMutability":"view","type":"function"},{"inputs":[{"internalType":"address","name":"","type":"address"}],"name":"userHasBoughtVaccine","outputs":[{"internalType":"bool","name":"","type":"bool"}],"stateMutability":"view","type":"function"},{"inputs":[],"name":"vaccineFourSupply","outputs":[{"internalType":"uint256","name":"","type":"uint256"}],"stateMutability":"view","type":"function"},{"inputs":[],"name":"vault","outputs":[{"internalType":"contract Vault","name":"","type":"address"}],"stateMutability":"view","type":"function"},{"stateMutability":"payable","type":"receive"}],"evm":{"bytecode":{"linkReferences":{},"object":"60e0604052600e60a09081526d109b1a59da1d08141c9bda9958dd60921b60c0526002906200002f908262000775565b5060408051808201909152600380825262424c4960e81b60208301529062000058908262000775565b50620000676012600a62000954565b6200007790633b9aca006200096c565b60045569d3c21bcecceda10000006005556103e8600454600a6200009c91906200096c565b620000a8919062000986565b600655600554620000bc906102586200096c565b600b5560c8600c55600554620000d5906103846200096c565b600d5561012c600e5560108054733e98da13e184ea1467639bf642f804144539694d6001600160a01b031991821617909155601180547341034678d6c633d8a95c75e1138a360a28ba15d19216919091179055601280546001600160e01b031916746d41034678d6c633d8a95c75e1138a360a28ba15d11790557f08ba8f62ff6c40a58877a106147661db43bc58dabfb814793847a839aa03367f601555601680546001600160501b03191666010002000186a01790556019805461ffff60a01b19169055600454620001ac906103e89062000986565b620001b99060036200096c565b601a5560646022556000602655600060285560006029556934f086f3b33b68400000602a556000602b556000602c556000602d556000602e556000602f55600060305560006031556000603255600a60335560055460e56200021c91906200096c565b603a5560055462000230906101656200096c565b603b5560055462000244906102026200096c565b603c5560055462000258906102bc6200096c565b603d556005546200026c906103926200096c565b603e5560055462000280906104856200096c565b603f556040805461ffff191690553480156200029b57600080fd5b5060405162005d9138038062005d91833981016040819052620002be91620009a9565b6011546001600160a01b039081169082908116620002f657604051631e4fbdf760e01b81526000600482015260240160405180910390fd5b6200030181620005db565b506001600160a01b0316608052601880546001600160a01b03191673c873fecbd354f5a56e00e710b90ef4201db2448d90811790915530600090815260086020908152604080832093835292905290812060001990556200036390826200062b565b50620003907fa49807205ce4d355092ef5a8a18f56e8913cf4a201fbe287825b095693c21775826200062b565b503081604051620003a190620006c2565b6001600160a01b03928316815291166020820152604001604051809103906000f080158015620003d5573d6000803e3d6000fd5b50602180546001600160a01b0319166001600160a01b03928316178155336000818152600960209081526040808320805460ff199081166001908117909255308086528386208054831684179055601080548a1687528487208054841685179055878752600a8652848720805484168517905580548a16875284872080548416851790557f20677881080440a9b3c87e826370bb5d9c2f74efd4dede686d52d77a6a09f8bb805484168517905597548916865283862080548316841790558086528386208054831684179055601980548a16875284872080548416851790557f12d72ea8e76b561437db32297fad751a60be1b76e594c67d9366e4cd38a6621d8054841685179055878752601c8652848720805484168517905597548916865283862080548316841790557fa48bd8e7b1565515cde2859b6cc48308ba05b5325bcf90fb096b9ac0b8087dfc8054831684179055855282852080548216831790559554909616835280832080548616871790557ff79dbced412724f11ac82795a8b72517df4379a1dfd463f61834ebcb1ea973ca80549095169095179093556004549181526007909252918120805490919062000594908490620009d4565b909155505060045460405190815233906000907fddf252ad1be2c89b69c2b068fc378daa952ba7f163c4a11628f55a4df523b3ef9060200160405180910390a350620009ea565b600080546001600160a01b038381166001600160a01b0319831681178455604051919092169283917f8be0079c531659141344cd1fd0a4f28419497f9722a3daafe3b4186f6b6457e09190a35050565b60008281526001602090815260408083206001600160a01b038516845290915281205460ff16620006b85760008381526001602081815260408084206001600160a01b0387168086529252808420805460ff19169093179092559051339286917f2f8788117e7eff1d82e926ec794901d17c78024a50270940304540a733656f0d9190a4506001620006bc565b5060005b92915050565b61089a80620054f783390190565b634e487b7160e01b600052604160045260246000fd5b600181811c90821680620006fb57607f821691505b6020821081036200071c57634e487b7160e01b600052602260045260246000fd5b50919050565b601f8211156200077057600081815260208120601f850160051c810160208610156200074b5750805b601f850160051c820191505b818110156200076c5782815560010162000757565b5050505b505050565b81516001600160401b03811115620007915762000791620006d0565b620007a981620007a28454620006e6565b8462000722565b602080601f831160018114620007e15760008415620007c85750858301515b600019600386901b1c1916600185901b1785556200076c565b600085815260208120601f198616915b828110156200081257888601518255948401946001909101908401620007f1565b5085821015620008315787850151600019600388901b60f8161c191681555b5050505050600190811b01905550565b634e487b7160e01b600052601160045260246000fd5b600181815b80851115620008985781600019048211156200087c576200087c62000841565b808516156200088a57918102915b93841c93908002906200085c565b509250929050565b600082620008b157506001620006bc565b81620008c057506000620006bc565b8160018114620008d95760028114620008e45762000904565b6001915050620006bc565b60ff841115620008f857620008f862000841565b50506001821b620006bc565b5060208310610133831016604e8410600b841016171562000929575081810a620006bc565b62000935838362000857565b80600019048211156200094c576200094c62000841565b029392505050565b60006200096560ff841683620008a0565b9392505050565b8082028115828204841417620006bc57620006bc62000841565b600082620009a457634e487b7160e01b600052601260045260246000fd5b500490565b600060208284031215620009bc57600080fd5b81516001600160a01b03811681146200096557600080fd5b80820180821115620006bc57620006bc62000841565b608051614aea62000a0d6000396000818161166e01526116b00152614aea6000f3fe6080604052600436106104295760003560e01c8063658d4b7f11610229578063aa9bbc0c1161012e578063dd62ed3e116100b6578063f887ea401161007a578063f887ea4014610d7d578063fbfa77cf14610d9d578063fc2a88c314610dbd578063fd39ef7814610dd3578063fd6e28cf14610df357600080fd5b8063dd62ed3e14610cb7578063df20fd4914610cfd578063f25c7ea414610d1d578063f2fde38b14610d3d578063f5415cbb14610d5d57600080fd5b8063c3ec8897116100fd578063c3ec889714610c00578063c6b61e4c14610c16578063d02c639414610c6d578063d3a9ffc414610c82578063d547741f14610c9757600080fd5b8063aa9bbc0c14610b81578063ab7573dd14610b97578063c26d68f914610bc4578063c315432a14610be657600080fd5b80638c5799ce116101b157806396eb64a91161018057806396eb64a914610aec5780639854471014610b0c578063a217fddf14610b2c578063a8aa1b3114610b41578063a9059cbb14610b6157600080fd5b80638c5799ce14610a695780638da5cb5b14610a9957806391d1485414610ab757806395d89b4114610ad757600080fd5b806370a08231116101f857806370a08231146109d2578063715018a6146109f257806373a432bb14610a0757806375b238fc14610a275780638796ba8c14610a4957600080fd5b8063658d4b7f1461095a5780636789c92c1461097a5780636cbc2ded1461099c5780636ddd1713146109b157600080fd5b806323b872dd1161032f57806343d4f92b116102b75780635119c971116102865780635119c971146108b157806354d41b5b146108c7578063571ac8b0146108f45780635bc0446914610914578063636ee0db1461092a57600080fd5b806343d4f92b146108515780634726319f146108715780634e71d92d146108875780634fab9e4c1461089c57600080fd5b8063313ce567116102fe578063313ce5671461079d57806331d7a262146107b957806336568abe146107e65780633aab0a62146108065780633eca53431461081b57600080fd5b806323b872dd146106f4578063248a9ca3146107145780632598cdb2146107455780632f2ff15d1461077d57600080fd5b80630f44e894116103b2578063196228c011610381578063196228c0146106745780631bd8ebe1146106895780631ce78ac81461069f5780631fe543e3146106b45780632198cf6c146106d457600080fd5b80630f44e894146105c85780631299d7f7146105f45780631781e17c1461061457806318160ddd1461065f57600080fd5b806305dc0394116103f957806305dc039414610522578063064a59d01461054657806306fdde0314610567578063095ea7b3146105895780630e04a7d8146105a957600080fd5b80627f27ae14610435578063014c58a31461045757806301ffc9a7146104b757806302b2553e146104d757600080fd5b3661043057005b600080fd5b34801561044157600080fd5b506104556104503660046143e7565b610e3e565b005b34801561046357600080fd5b506104a26104723660046143e7565b60265460009081526027602090815260408083206001600160a01b03909416835260049093019052205460ff1690565b60405190151581526020015b60405180910390f35b3480156104c357600080fd5b506104a26104d2366004614404565b6111b7565b3480156104e357600080fd5b506104a26104f23660046143e7565b60265460009081526027602090815260408083206001600160a01b03909416835260059093019052205460ff1690565b34801561052e57600080fd5b5061053860295481565b6040519081526020016104ae565b34801561055257600080fd5b506019546104a290600160a01b900460ff1681565b34801561057357600080fd5b5061057c6111ee565b6040516104ae919061442e565b34801561059557600080fd5b506104a26105a436600461447c565b611280565b3480156105b557600080fd5b506040546104a290610100900460ff1681565b3480156105d457600080fd5b506105386105e33660046143e7565b602080526000908152604090205481565b34801561060057600080fd5b5061045561060f3660046144a8565b6112ec565b34801561062057600080fd5b506104a261062f3660046143e7565b60265460009081526027602090815260408083206001600160a01b03909416835260089093019052205460ff1690565b34801561066b57600080fd5b50600454610538565b34801561068057600080fd5b5061045561130a565b34801561069557600080fd5b5061053860285481565b3480156106ab57600080fd5b5061045561162d565b3480156106c057600080fd5b506104556106cf36600461452c565b611663565b3480156106e057600080fd5b506104556106ef3660046145e3565b6116e7565b34801561070057600080fd5b506104a261070f366004614618565b61171a565b34801561072057600080fd5b5061053861072f3660046144a8565b6000908152600160208190526040909120015490565b34801561075157600080fd5b50601054610765906001600160a01b031681565b6040516001600160a01b0390911681526020016104ae565b34801561078957600080fd5b50610455610798366004614659565b6117ef565b3480156107a957600080fd5b50604051601281526020016104ae565b3480156107c557600080fd5b506105386107d43660046143e7565b601f6020526000908152604090205481565b3480156107f257600080fd5b50610455610801366004614659565b61181b565b34801561081257600080fd5b50610455611853565b34801561082757600080fd5b506107656108363660046143e7565b601d602052600090815260409020546001600160a01b031681565b34801561085d57600080fd5b5061045561086c3660046143e7565b6118d9565b34801561087d57600080fd5b5061053860335481565b34801561089357600080fd5b5061045561193a565b3480156108a857600080fd5b50610455611b3c565b3480156108bd57600080fd5b5061053860425481565b3480156108d357600080fd5b506105386108e23660046143e7565b60236020526000908152604090205481565b34801561090057600080fd5b506104a261090f3660046143e7565b611c4b565b34801561092057600080fd5b50610538602a5481565b34801561093657600080fd5b506104a26109453660046143e7565b601c6020526000908152604090205460ff1681565b34801561096657600080fd5b506104556109753660046145e3565b611c59565b34801561098657600080fd5b5061098f611c8c565b6040516104ae91906146cd565b3480156109a857600080fd5b50610455611cfb565b3480156109bd57600080fd5b506019546104a290600160a81b900460ff1681565b3480156109de57600080fd5b506105386109ed3660046143e7565b611e58565b3480156109fe57600080fd5b50610455611e73565b348015610a1357600080fd5b50610455610a223660046143e7565b611e85565b348015610a3357600080fd5b50610538600080516020614a9583398151915281565b348015610a5557600080fd5b50610538610a643660046144a8565b611ec7565b348015610a7557600080fd5b506104a2610a843660046143e7565b60246020526000908152604090205460ff1681565b348015610aa557600080fd5b506000546001600160a01b0316610765565b348015610ac357600080fd5b506104a2610ad2366004614659565b611ee8565b348015610ae357600080fd5b5061057c611f13565b348015610af857600080fd5b50610455610b073660046143e7565b611f22565b348015610b1857600080fd5b50610455610b273660046144a8565b6120b3565b348015610b3857600080fd5b50610538600081565b348015610b4d57600080fd5b50601954610765906001600160a01b031681565b348015610b6d57600080fd5b506104a2610b7c36600461447c565b6120d1565b348015610b8d57600080fd5b5061053860265481565b348015610ba357600080fd5b50610538610bb23660046143e7565b601e6020526000908152604090205481565b348015610bd057600080fd5b50610bd9612103565b6040516104ae91906146e0565b348015610bf257600080fd5b506040546104a29060ff1681565b348015610c0c57600080fd5b5061053860435481565b348015610c2257600080fd5b50610c52610c313660046144a8565b60276020526000908152604090208054600182015460029092015490919083565b604080519384526020840192909252908201526060016104ae565b348015610c7957600080fd5b50610455612142565b348015610c8e57600080fd5b50610455612152565b348015610ca357600080fd5b50610455610cb2366004614659565b612516565b348015610cc357600080fd5b50610538610cd236600461471a565b6001600160a01b03918216600090815260086020908152604080832093909416825291909152205490565b348015610d0957600080fd5b50610455610d18366004614748565b61253c565b348015610d2957600080fd5b50610455610d383660046144a8565b6125b7565b348015610d4957600080fd5b50610455610d583660046143e7565b61263b565b348015610d6957600080fd5b50610455610d78366004614764565b612676565b348015610d8957600080fd5b50601854610765906001600160a01b031681565b348015610da957600080fd5b50602154610765906001600160a01b031681565b348015610dc957600080fd5b5061053860145481565b348015610ddf57600080fd5b50610455610dee3660046144a8565b6128d7565b348015610dff57600080fd5b506104a2610e0e3660046143e7565b60265460009081526027602090815260408083206001600160a01b03909416835260039093019052205460ff1690565b6001600160a01b0381163314610e8c5760405162461bcd60e51b815260206004820152600e60248201526d139bdd08185d5d1a1bdc9a5e995960921b60448201526064015b60405180910390fd5b60265460009081526027602090815260408083203384526007019091528120549003610f115760405162461bcd60e51b815260206004820152602e60248201527f596f7520686176656e277420626f7567687420612063617073756c652064757260448201526d0d2dcce40e8d0d2e640cae0dec6d60931b6064820152608401610e83565b602654600090815260276020908152604080832033845260050190915290205460ff1615610f8c5760405162461bcd60e51b815260206004820152602260248201527f596f7527766520616c7265616479206f70656e656420796f75722063617073756044820152616c6560f01b6064820152608401610e83565b602654600090815260276020908152604080832033845260080190915290205460ff1615156001146110105760405162461bcd60e51b815260206004820152602760248201527f596f75722072657175657374206861736e2774206265656e2066756c6c66696c6044820152661b1959081e595d60ca1b6064820152608401610e83565b6026546000908152602760209081526040808320338452600701909152812054611039906128f5565b90506001811015801561104d575060288111155b1561108d57602f805490600061106283614814565b9091555050602b805490600061107783614814565b91905055506110898260016000612a3a565b5050565b6029811015801561109f5750604b8111155b156110db57603080549060006110b483614814565b9091555050602c80549060006110c983614814565b91905055506110898260026000612a3a565b604c81101580156110ed575060618111155b15611129576031805490600061110283614814565b9091555050602d805490600061111783614814565b91905055506110898260036000612a3a565b6062811015801561113c57506022548111155b15611089576032805490600061115183614814565b9091555050602e805490600061116683614814565b909155505060265460009081526027602090815260408220600901805460018082018355918452919092200180546001600160a01b0319166001600160a01b03851617905561108990839080612a3a565b60006001600160e01b03198216637965db0b60e01b14806111e857506301ffc9a760e01b6001600160e01b03198316145b92915050565b6060600280546111fd9061482d565b80601f01602080910402602001604051908101604052809291908181526020018280546112299061482d565b80156112765780601f1061124b57610100808354040283529160200191611276565b820191906000526020600020905b81548152906001019060200180831161125957829003601f168201915b5050505050905090565b3360008181526008602090815260408083206001600160a01b038716808552925280832085905551919290917f8c5be1e5ebec7d5bd14f71427d1e84f3dd0314c0f7b2291e5b200ac8c7c3b925906112db9086815260200190565b60405180910390a350600192915050565b600080516020614a9583398151915261130481612b36565b50602a55565b60006103e8602a546102ee61131f9190614861565b611329919061488e565b602654600090815260276020908152604080832033845260030190915290205490915060ff16156113b85760405162461bcd60e51b815260206004820152603360248201527f596f752068617665206f6e6c79206f6e6520616374696f6e207065722065706f6044820152726368203a20627579206f72207570677261646560681b6064820152608401610e83565b602654600090815260276020908152604080832033845260040190915290205460ff16156114475760405162461bcd60e51b815260206004820152603660248201527f596f7527766520616c726561647920757067726164656420796f7572207661636044820152750c6d2dcca40c8eae4d2dcce40e8d0d2e640cae0dec6d60531b6064820152608401610e83565b33600090815260236020526040902054158015906114745750336000908152602360205260409020546003115b6114cc5760405162461bcd60e51b815260206004820152602360248201527f596f7520646f6e2774206861766520612076616363696e6520746f207570677260448201526261646560e81b6064820152608401610e83565b806114d633611e58565b10156115365760405162461bcd60e51b815260206004820152602960248201527f4e6f7420656e6f75676820746f6b656e7320746f207570677261646520796f75604482015268722076616363696e6560b81b6064820152608401610e83565b60265460009081526027602052604090206002015442106115695760405162461bcd60e51b8152600401610e83906148a2565b604054610100900460ff16156115915760405162461bcd60e51b8152600401610e83906148e6565b60265460009081526027602090815260408083203384526004019091528120805460ff191660011790556103e86115c9836032614861565b6115d3919061488e565b6021549091506000906115fa9033906001600160a01b03166115f5858761490c565b612b40565b9050611607333084612b40565b5033600090815260236020526040812080549161162383614814565b9190505550505050565b611635612be8565b6019805461ffff60a01b191661010160a01b179081905560ff600160a01b909104161561166157426049555b565b336001600160a01b037f000000000000000000000000000000000000000000000000000000000000000016146116dd5760405163073e64fd60e21b81523360048201526001600160a01b037f0000000000000000000000000000000000000000000000000000000000000000166024820152604401610e83565b6110898282612c15565b6116ef612be8565b6001600160a01b03919091166000908152600a60205260409020805460ff1916911515919091179055565b6001600160a01b038316600090815260086020908152604080832033845290915281205482111561179e5760405162461bcd60e51b815260206004820152602860248201527f45524332303a207472616e7366657220616d6f756e74206578636565647320616044820152676c6c6f77616e636560c01b6064820152608401610e83565b6117a9848484612d1b565b506001600160a01b0384166000908152600860209081526040808320338085529252909120546117e59186916117e090869061490c565b61311a565b5060019392505050565b6000828152600160208190526040909120015461180b81612b36565b611815838361323e565b50505050565b6001600160a01b03811633146118445760405163334bd91960e11b815260040160405180910390fd5b61184e82826132b7565b505050565b600080516020614a9583398151915261186b81612b36565b604054610100900460ff16156118935760405162461bcd60e51b8152600401610e83906148e6565b61189b613324565b7fa7ef457c4bdaa5cf9805314ebb0d85316230de6508df8ba03db8e27901cc147d6026546040516118ce91815260200190565b60405180910390a150565b6118e1612be8565b601080546001600160a01b0319166001600160a01b0392831690811782556000908152600960209081526040808320805460ff19908116600190811790925594549095168352600a909152902080549091169091179055565b3332146119715760405162461bcd60e51b815260206004820152600560248201526432b93937b960d91b6044820152606401610e83565b336000908152601f60205260409020546119c25760405162461bcd60e51b81526020600482015260126024820152716e6f2070656e64696e67207265776172647360701b6044820152606401610e83565b336000908152601f6020908152604082208054908390556001835260279091527fb6915e519d5f9dd23c62986e48578ddfa8cde5c92608222904fd87ad04df4fff54909190421015611a34576064611a1b836019614861565b611a25919061488e565b9050611a31818361490c565b91505b8015611a5457602154611a529030906001600160a01b031683612b40565b505b6000611a61303385612b40565b905080611aa25760405162461bcd60e51b815260206004820152600f60248201526e1d1c985b9cd9995c8819985a5b1959608a1b6044820152606401610e83565b336000908152601e602052604081208054859290611ac190849061491f565b925050819055508260426000828254611ada919061491f565b925050819055508260416000828254611af3919061490c565b90915550611b0190506134fc565b60405183815233907f620fc7379f7c67f4289f23e24a7f28f721792b0e898e2af03581b2e73e604a53906020015b60405180910390a2505050565b611b44612be8565b604a5460ff1615611b8d5760405162461bcd60e51b8152602060048201526013602482015272105b1c9958591e481a5b9a5d1a585b1a5e9959606a1b6044820152606401610e83565b6040516364e329cb60e11b81527382af49447d8a07e3bd95bd0d56f35241523fbab16004820152306024820152736eccab422d763ac031210895c81787e87b43a6529063c9c65396906044016020604051808303816000875af1158015611bf8573d6000803e3d6000fd5b505050506040513d601f19601f82011682018060405250810190611c1c9190614932565b601980546001600160a01b0319166001600160a01b0392909216919091179055604a805460ff19166001179055565b60006111e882600019611280565b611c61612be8565b6001600160a01b03919091166000908152600960205260409020805460ff1916911515919091179055565b60265460009081526027602090815260409182902060090180548351818402810184019094528084526060939283018282801561127657602002820191906000526020600020905b81546001600160a01b03168152600190910190602001808311611cd4575050505050905090565b600080516020614a95833981519152611d1381612b36565b604954611d239062093a8061491f565b421015611d675760405162461bcd60e51b815260206004820152601260248201527143616e277420656e64207468652067616d6560701b6044820152606401610e83565b604054610100900460ff1615611db65760405162461bcd60e51b815260206004820152601460248201527323b0b6b29034b99030b63932b0b23c9037bb32b960611b6044820152606401610e83565b6040805461ff00191661010017815560265460009081526027602052206009015415611e555760215460265460009081526027602052604090819020905163f25addf560e01b81526001600160a01b039092169163f25addf591611e229160099091019060040161494f565b600060405180830381600087803b158015611e3c57600080fd5b505af1158015611e50573d6000803e3d6000fd5b505050505b50565b6001600160a01b031660009081526007602052604090205490565b611e7b612be8565b61166160006136f7565b611e8d612be8565b601980546001600160a01b039092166001600160a01b0319909216821790556000908152600a60205260409020805460ff19166001179055565b60138181548110611ed757600080fd5b600091825260209091200154905081565b60009182526001602090815260408084206001600160a01b0393909316845291905290205460ff1690565b6060600380546111fd9061482d565b6001600160a01b0381166000908152601c602052604090205460ff1615611f7e5760405162461bcd60e51b815260206004820152601060248201526f105b1c9958591e481a5b999958dd195960821b6044820152606401610e83565b6001611f8933611e58565b1015611fd75760405162461bcd60e51b815260206004820152601b60248201527f4e6f7420656e6f75676820746f6b656e7320746f20696e6665637400000000006044820152606401610e83565b336000908152601c602052604090205460ff1615156001146120315760405162461bcd60e51b8152602060048201526013602482015272165bdd49dc99481b9bdd081a5b999958dd1959606a1b6044820152606401610e83565b6001600160a01b0381166000908152601d6020908152604080832080546001600160a01b03191633908117909155601c8352818420805460ff191660011790558352908052812080549161208483614814565b90915550506043805490600061209983614814565b9190505550600061184e3383670de0b6b3a7640000612b40565b600080516020614a958339815191526120cb81612b36565b50601555565b6019546000906001600160a01b031633036120f8576120f1338484612d1b565b90506111e8565b6120f1338484612b40565b61210b61430c565b6040805160a0810191829052604480546001600160a01b031682529091600590604560208501808311611cd4575050505050905090565b61214a612be8565b600454600655565b602a54336000908152601c602052604090205460ff166121ab5760405162461bcd60e51b8152602060048201526014602482015273165bdd48185c99481b9bdd081a5b999958dd195960621b6044820152606401610e83565b60405460ff166121fd5760405162461bcd60e51b815260206004820152601760248201527f47616d65206973206e6f742073746172746564207965740000000000000000006044820152606401610e83565b604054610100900460ff16156122255760405162461bcd60e51b8152600401610e83906148e6565b8061222f33611e58565b10156122885760405162461bcd60e51b815260206004820152602260248201527f4e6f7420656e6f75676820746f6b656e7320746f2062757920612063617073756044820152616c6560f01b6064820152608401610e83565b60265460009081526027602052604090206002015442106122bb5760405162461bcd60e51b8152600401610e83906148a2565b602654600090815260276020908152604080832033845260030190915290205460ff16156123455760405162461bcd60e51b815260206004820152603160248201527f596f7527766520616c726561647920626f7567687420612063617073756c65206044820152700c8eae4d2dcce40e8d0d2e640cae0dec6d607b1b6064820152608401610e83565b602654600090815260276020908152604080832033845260040190915290205460ff16156123d15760405162461bcd60e51b815260206004820152603360248201527f596f75206f6e6c792068617665206f6e6520616374696f6e207065722065706f6044820152726368203a20627579206f72207570677261646560681b6064820152608401610e83565b602980549060006123e183614814565b9091555050602880549060006123f683614814565b909155505060265460009081526027602090815260408083203384526003019091528120805460ff191660011790556103e86124338360c8614861565b61243d919061488e565b90508060046000828254612451919061490c565b9091555061246490503361dead83612b40565b506021546000906124849033906001600160a01b03166115f5858761490c565b90506000612490613747565b602680546000908152602760208181526040808420868552600601825280842080546001600160a01b03191633908117909155945484529181528183208484526007018152918190208490555183815292935090917f56e18f08766f396148d5b13331a86d9ce4ea3d9c08821cf829ccf881a6fff8bf910160405180910390a250505050565b6000828152600160208190526040909120015461253281612b36565b61181583836132b7565b612544612be8565b60018110156125955760405162461bcd60e51b815260206004820152601f60248201527f43616e27742073657420537761705468726573686f6c6420746f205a45524f006044820152606401610e83565b60198054921515600160a81b0260ff60a81b1990931692909217909155601a55565b600080516020614a958339815191526125cf81612b36565b602e548210156126355760405162461bcd60e51b815260206004820152602b60248201527f43616e2774207265647563652076616363696e6520737570706c79206475726960448201526a0dcce40c2dc40cae0dec6d60ab1b6064820152608401610e83565b50603355565b612643612be8565b6001600160a01b03811661266d57604051631e4fbdf760e01b815260006004820152602401610e83565b611e55816136f7565b61267e612be8565b60005b815181101561108957601c60008383815181106126a0576126a061499f565b6020908102919091018101516001600160a01b031682528101919091526040016000205460ff16156127075760405162461bcd60e51b815260206004820152601060248201526f105b1c9958591e481a5b999958dd195960821b6044820152606401610e83565b600161271233611e58565b10156127605760405162461bcd60e51b815260206004820152601b60248201527f6e6f7420656e6f75676820746f6b656e7320746f20696e6665637400000000006044820152606401610e83565b336000908152601c602052604090205460ff1615156001146127b35760405162461bcd60e51b815260206004820152600c60248201526b1b9bdd081a5b999958dd195960a21b6044820152606401610e83565b33601d60008484815181106127ca576127ca61499f565b60200260200101516001600160a01b03166001600160a01b0316815260200190815260200160002060006101000a8154816001600160a01b0302191690836001600160a01b031602179055506001601c600084848151811061282e5761282e61499f565b6020908102919091018101516001600160a01b031682528181019290925260409081016000908120805460ff191694151594909417909355338352908052812080549161287a83614814565b90915550506043805490600061288f83614814565b919050555060006128c2338484815181106128ac576128ac61499f565b6020026020010151670de0b6b3a7640000612b40565b508190506128cf81614814565b915050612681565b600080516020614a958339815191526128ef81612b36565b50602255565b600081815260176020526040812054610100900460ff1661294c5760405162461bcd60e51b81526020600482015260116024820152701c995c5d595cdd081b9bdd08199bdd5b99607a1b6044820152606401610e83565b60008281526017602090815260408083208151606081018352815460ff80821615158352610100909104161515818501526001820180548451818702810187018652818152929593948601938301828280156129c757602002820191906000526020600020905b8154815260200190600101908083116129b3575b5050505050815250509050603354602e5410612a1a57606181604001516000815181106129f6576129f661499f565b6020026020010151612a0891906149b5565b612a1390600161491f565b9392505050565b60225481604001516000815181106129f6576129f661499f565b50919050565b6001600160a01b03831660009081526024602052604090205460ff16612abe576025805460018082019092557f401968ff42a154441da5f6c4c935ac46b8671f0e062baaa62a7545ba53bb6e4c0180546001600160a01b0319166001600160a01b0386169081179091556000908152602460205260409020805460ff191690911790555b6001600160a01b0383166000818152602360209081526040808320869055602654835260278252808320848452600501825291829020805460ff191660011790558151858152841515918101919091527fc05909672b3730633581d6cf7b807382b3572d7805ace294b8d4b3558c5cc7ff9101611b2f565b611e558133613903565b6001600160a01b038316600090815260076020526040812054612b6490839061490c565b6001600160a01b038086166000908152600760205260408082209390935590851681522054612b9490839061491f565b6001600160a01b038085166000818152600760205260409081902093909355915190861690600080516020614a7583398151915290612bd69086815260200190565b60405180910390a35060019392505050565b6000546001600160a01b031633146116615760405163118cdaa760e01b8152336004820152602401610e83565b600082815260176020526040902054610100900460ff16612c6c5760405162461bcd60e51b81526020600482015260116024820152701c995c5d595cdd081b9bdd08199bdd5b99607a1b6044820152606401610e83565b6000828152601760209081526040909120805460ff1916600190811782558351612c9d93929091019184019061432a565b506026546000908152602760209081526040808320858452600681018352818420546001600160a01b0316845260080190915290819020805460ff19166001179055517ffe2e2d779dba245964d4e3ef9b994be63856fd568bf7d3ca9e224755cb1bd54d90612d0f90849084906149c9565b60405180910390a15050565b6001600160a01b03831660009081526009602052604081205460ff1680612d5a57506001600160a01b03831660009081526009602052604090205460ff165b80612d6e5750601954600160a01b900460ff165b612dba5760405162461bcd60e51b815260206004820152601b60248201527f4e6f7420617574686f72697a656420746f2074726164652079657400000000006044820152606401610e83565b6019546001600160a01b03848116911614612e26576001600160a01b0383166000908152601c602052604090205460ff16612e265760405162461bcd60e51b815260206004820152600c60248201526b139bdd081a5b999958dd195960a21b6044820152606401610e83565b604054610100900460ff168015612e4b57506019546001600160a01b03848116911614155b15612edc57612e68600080516020614a9583398151915285611ee8565b80612e865750612e86600080516020614a9583398151915284611ee8565b612edc5760405162461bcd60e51b815260206004820152602160248201527f47616d65206973206f7665722c206f6e6c792061646d696e732063616e2062756044820152607960f81b6064820152608401610e83565b6000546001600160a01b03858116911614801590612f0857506000546001600160a01b03848116911614155b8015612f1f57506001600160a01b03831661dead14155b15612fe5576019546001600160a01b03848116911614612fe5576001600160a01b0383166000908152600a602052604090205460ff1680612f8557506006546001600160a01b038416600090815260076020526040902054612f8290849061491f565b11155b612fe55760405162461bcd60e51b815260206004820152602b60248201527f5472616e7366657220616d6f756e74206578636565647320746865204d61785760448201526a30b63632ba1039b4bd329760a91b6064820152608401610e83565b612fed61393c565b801561300657506019546001600160a01b038481169116145b156130135761301361399a565b6001600160a01b03841660009081526007602052604090205461303790839061490c565b6001600160a01b038516600090815260076020908152604080832093909355600990529081205460ff1615158061308857506001600160a01b03841660009081526009602052604090205460ff1615155b61309c57613097858585613b82565b61309e565b825b6001600160a01b0385166000908152600760205260409020549091506130c590829061491f565b6001600160a01b038086166000818152600760205260409081902093909355915190871690600080516020614a75833981519152906131079085815260200190565b60405180910390a3506001949350505050565b6001600160a01b03831661317c5760405162461bcd60e51b8152602060048201526024808201527f45524332303a20617070726f76652066726f6d20746865207a65726f206164646044820152637265737360e01b6064820152608401610e83565b6001600160a01b0382166131dd5760405162461bcd60e51b815260206004820152602260248201527f45524332303a20617070726f766520746f20746865207a65726f206164647265604482015261737360f01b6064820152608401610e83565b6001600160a01b0383811660008181526008602090815260408083209487168084529482529182902085905590518481527f8c5be1e5ebec7d5bd14f71427d1e84f3dd0314c0f7b2291e5b200ac8c7c3b925910160405180910390a3505050565b600061324a8383611ee8565b6132af5760008381526001602081815260408084206001600160a01b0387168086529252808420805460ff19169093179092559051339286917f2f8788117e7eff1d82e926ec794901d17c78024a50270940304540a733656f0d9190a45060016111e8565b5060006111e8565b60006132c38383611ee8565b156132af5760008381526001602090815260408083206001600160a01b0386168085529252808320805460ff1916905551339286917ff6391f5c32d9c69d2a47ea670b442974b53935d1edc7fd64eb21e047a839171b9190a45060016111e8565b602654600090815260276020526040902060090154156133b75760215460265460009081526027602052604090819020905163f25addf560e01b81526001600160a01b039092169163f25addf5916133849160099091019060040161494f565b600060405180830381600087803b15801561339e57600080fd5b505af11580156133b2573d6000803e3d6000fd5b505050505b602680549060006133c783614814565b909155505060265460008181526027602052604090209081554260019091018190556133f6906201437061491f565b602654600090815260276020526040812060020191909155602b819055602c819055602d819055602e81905560288190555b6025548110156134db576000602360006025848154811061344b5761344b61499f565b60009182526020808320909101546001600160a01b0316835282019290925260400190205411156134c9576001602360006025848154811061348f5761348f61499f565b60009182526020808320909101546001600160a01b03168352820192909252604001812080549091906134c390849061490c565b90915550505b806134d381614814565b915050613428565b5060405460ff166134f4576040805460ff191660011790555b61166161402c565b3361350561430c565b61350d61430c565b6000805b600581101561357657601e6000604483600581106135315761353161499f565b01546001600160a01b0316815260208101919091526040016000205484826005811061355f5761355f61499f565b60200201528061356e81614814565b915050613511565b5060005b60058110156135c657846001600160a01b0316604482600581106135a0576135a061499f565b01546001600160a01b0316036135b4578091505b806135be81614814565b91505061357a565b506001600160a01b0384166000908152601e602052604090205483511080156135fa57506135f66001600561490c565b8114155b156118155780600003613614576001600160a01b03841682525b600061362182600161491f565b90505b60058110156136e9576001600160a01b0385166000908152601e60205260409020548482600581106136585761365861499f565b602002015110156136d757604481600581106136765761367661499f565b01546001600160a01b03168361368d60018461490c565b6005811061369d5761369d61499f565b6001600160a01b039092166020929092020152848382600581106136c3576136c361499f565b6001600160a01b0390921660209290920201525b806136e181614814565b915050613624565b50611e506044836005614375565b600080546001600160a01b038381166001600160a01b0319831681178455604051919092169283917f8be0079c531659141344cd1fd0a4f28419497f9722a3daafe3b4186f6b6457e09190a35050565b6012546015546016546040516305d3b1d360e41b81526004810192909252600160a01b830467ffffffffffffffff166024830152640100000000810461ffff16604483015263ffffffff808216606484015266010000000000009091041660848201526000916001600160a01b031690635d3b1d309060a4016020604051808303816000875af11580156137df573d6000803e3d6000fd5b505050506040513d601f19601f820116820180604052508101906138039190614a17565b6040805160608101825260008082526001602080840182815285518481528083018752858701908152878552601783529590932084518154945161ffff1990951690151561ff00191617610100941515949094029390931783559351805195965092949193613878939185019291019061432a565b5050601380546001810182556000919091527f66de8ffda797e3de9c05e8fc57b3bf0ec28a930d40b0d285d93c06501cf6a0900182905550601481905560165460408051838152660100000000000090920463ffffffff1660208301527fcc58b13ad3eab50626c6a6300b1d139cd6ebb1688a7cced9461c2f7e762665ee910160405180910390a190565b61390d8282611ee8565b6110895760405163e2517d3f60e01b81526001600160a01b038216600482015260248101839052604401610e83565b6019546000906001600160a01b0316331480159061395d5750601b5460ff16155b80156139725750601954600160a81b900460ff165b80156139955750601a5460415461398830611e58565b613992919061490c565b10155b905090565b601b805460ff191660011790556041546000906139b630611e58565b6139c0919061490c565b604080516002808252606082018352929350600092909160208301908036833701905050905030816000815181106139fa576139fa61499f565b6001600160a01b03928316602091820292909201810191909152601854604080516315ab88c960e31b81529051919093169263ad5c46489260048083019391928290030181865afa158015613a53573d6000803e3d6000fd5b505050506040513d601f19601f82011682018060405250810190613a779190614932565b81600181518110613a8a57613a8a61499f565b6001600160a01b039283166020918202929092010152601854166352aa4c22836000843082613abb4261012c61491f565b6040518763ffffffff1660e01b8152600401613adc96959493929190614a30565b600060405180830381600087803b158015613af657600080fd5b505af1158015613b0a573d6000803e3d6000fd5b504792505081159050613b73576010546040516000916001600160a01b03169061753090849084818181858888f193505050503d8060008114613b69576040519150601f19603f3d011682016040523d82523d6000602084013e613b6e565b606091505b505050505b5050601b805460ff1916905550565b60195460009081908190819081906001600160a01b038981169116148015613bb857506019546001600160a01b03888116911614155b15613d64576001600160a01b038716600090815260236020526040902054600103613c6c57600361271060345488613bf09190614861565b613bfa919061488e565b613c04919061488e565b6001600160a01b038089166000908152601d60209081526040808320549093168252601f905290812080549296508695508594508492909190613c4890849061491f565b925050819055508260416000828254613c61919061491f565b90915550613f329050565b6001600160a01b038716600090815260236020526040902054600203613d1b57600361271060355488613c9f9190614861565b613ca9919061488e565b613cb3919061488e565b6001600160a01b038089166000908152601d60209081526040808320549093168252601f905290812080549296508695508594508492909190613cf790849061491f565b925050819055508260416000828254613d10919061491f565b90915550613d5f9050565b6001600160a01b038716600090815260236020526040902054600303613d4e57600361271060365488613c9f9190614861565b612710600c5487613bfa9190614861565b613f32565b6019546001600160a01b03898116911614801590613d8f57506019546001600160a01b038881169116145b15613f3257604054610100900460ff1615613dc357612710613db287600a614861565b613dbc919061488e565b9350613f32565b6001600160a01b038816600090815260236020526040902054600103613e4e57600361271060375488613df69190614861565b613e00919061488e565b613e0a919061488e565b6001600160a01b03808a166000908152601d60209081526040808320549093168252601f905290812080549296508695508594508492909190613c4890849061491f565b6001600160a01b038816600090815260236020526040902054600203613e8157600361271060385488613df69190614861565b6001600160a01b038816600090815260236020526040902054600303613eb457600361271060395488613df69190614861565b612710600e5487613ec59190614861565b613ecf919061488e565b6001600160a01b03808a166000908152601d60209081526040808320549093168252601f905290812080549296508695508594508492909190613f1390849061491f565b925050819055508260416000828254613f2c919061491f565b90915550505b81613f3d848661491f565b613f47919061491f565b9050801561401657613f59828261490c565b3060009081526007602052604081208054909190613f7890849061491f565b90915550506021546001600160a01b031660009081526007602052604081208054849290613fa790849061491f565b909155503090506001600160a01b038916600080516020614a75833981519152613fd1858561490c565b60405190815260200160405180910390a36021546040518381526001600160a01b03918216918a1690600080516020614a758339815191529060200160405180910390a35b614020818761490c565b98975050505050505050565b60055461405f600554602654603a546140459190614861565b614050906064614861565b61405a9190614861565b61417a565b600b5461406c919061490c565b614076919061488e565b603455600554602654603b546140929183916140459190614861565b600b5461409f919061490c565b6140a9919061488e565b603555600554602654603c546140c59183916140459190614861565b600b546140d2919061490c565b6140dc919061488e565b603655600554602654603d546140f89183916140459190614861565b600d54614105919061490c565b61410f919061488e565b603755600554602654603e5461412b9183916140459190614861565b600d54614138919061490c565b614142919061488e565b603855600554602654603f5461415e9183916140459190614861565b600d5461416b919061490c565b614175919061488e565b603955565b60008160000361418c57506000919050565b6000600161419984614262565b901c6001901b905060018184816141b2576141b2614878565b048201901c905060018184816141ca576141ca614878565b048201901c905060018184816141e2576141e2614878565b048201901c905060018184816141fa576141fa614878565b048201901c9050600181848161421257614212614878565b048201901c9050600181848161422a5761422a614878565b048201901c9050600181848161424257614242614878565b048201901c9050612a138182858161425c5761425c614878565b046142f6565b600080608083901c1561427757608092831c92015b604083901c1561428957604092831c92015b602083901c1561429b57602092831c92015b601083901c156142ad57601092831c92015b600883901c156142bf57600892831c92015b600483901c156142d157600492831c92015b600283901c156142e357600292831c92015b600183901c156111e85760010192915050565b60008183106143055781612a13565b5090919050565b6040518060a001604052806005906020820280368337509192915050565b828054828255906000526020600020908101928215614365579160200282015b8281111561436557825182559160200191906001019061434a565b506143719291506143bd565b5090565b8260058101928215614365579160200282015b8281111561436557825182546001600160a01b0319166001600160a01b03909116178255602090920191600190910190614388565b5b8082111561437157600081556001016143be565b6001600160a01b0381168114611e5557600080fd5b6000602082840312156143f957600080fd5b8135612a13816143d2565b60006020828403121561441657600080fd5b81356001600160e01b031981168114612a1357600080fd5b600060208083528351808285015260005b8181101561445b5785810183015185820160400152820161443f565b506000604082860101526040601f19601f8301168501019250505092915050565b6000806040838503121561448f57600080fd5b823561449a816143d2565b946020939093013593505050565b6000602082840312156144ba57600080fd5b5035919050565b634e487b7160e01b600052604160045260246000fd5b604051601f8201601f1916810167ffffffffffffffff81118282101715614500576145006144c1565b604052919050565b600067ffffffffffffffff821115614522576145226144c1565b5060051b60200190565b6000806040838503121561453f57600080fd5b8235915060208084013567ffffffffffffffff81111561455e57600080fd5b8401601f8101861361456f57600080fd5b803561458261457d82614508565b6144d7565b81815260059190911b820183019083810190888311156145a157600080fd5b928401925b828410156145bf578335825292840192908401906145a6565b80955050505050509250929050565b803580151581146145de57600080fd5b919050565b600080604083850312156145f657600080fd5b8235614601816143d2565b915061460f602084016145ce565b90509250929050565b60008060006060848603121561462d57600080fd5b8335614638816143d2565b92506020840135614648816143d2565b929592945050506040919091013590565b6000806040838503121561466c57600080fd5b82359150602083013561467e816143d2565b809150509250929050565b600081518084526020808501945080840160005b838110156146c25781516001600160a01b03168752958201959082019060010161469d565b509495945050505050565b602081526000612a136020830184614689565b60a08101818360005b60058110156147115781516001600160a01b03168352602092830192909101906001016146e9565b50505092915050565b6000806040838503121561472d57600080fd5b8235614738816143d2565b9150602083013561467e816143d2565b6000806040838503121561475b57600080fd5b61449a836145ce565b6000602080838503121561477757600080fd5b823567ffffffffffffffff81111561478e57600080fd5b8301601f8101851361479f57600080fd5b80356147ad61457d82614508565b81815260059190911b820183019083810190878311156147cc57600080fd5b928401925b828410156147f35783356147e4816143d2565b825292840192908401906147d1565b979650505050505050565b634e487b7160e01b600052601160045260246000fd5b600060018201614826576148266147fe565b5060010190565b600181811c9082168061484157607f821691505b602082108103612a3457634e487b7160e01b600052602260045260246000fd5b80820281158282048414176111e8576111e86147fe565b634e487b7160e01b600052601260045260246000fd5b60008261489d5761489d614878565b500490565b60208082526024908201527f45706f6368206973206f7665722c207761697420666f7220746865206e657874604082015263206f6e6560e01b606082015260800190565b6020808252600c908201526b23b0b6b29034b99037bb32b960a11b604082015260600190565b818103818111156111e8576111e86147fe565b808201808211156111e8576111e86147fe565b60006020828403121561494457600080fd5b8151612a13816143d2565b6020808252825482820181905260008481528281209092916040850190845b818110156149935783546001600160a01b03168352600193840193928501920161496e565b50909695505050505050565b634e487b7160e01b600052603260045260246000fd5b6000826149c4576149c4614878565b500690565b6000604082018483526020604081850152818551808452606086019150828701935060005b81811015614a0a578451835293830193918301916001016149ee565b5090979650505050505050565b600060208284031215614a2957600080fd5b5051919050565b86815285602082015260c060408201526000614a4f60c0830187614689565b6001600160a01b03958616606084015293909416608082015260a0015294935050505056feddf252ad1be2c89b69c2b068fc378daa952ba7f163c4a11628f55a4df523b3efa49807205ce4d355092ef5a8a18f56e8913cf4a201fbe287825b095693c21775a26469706673582212209d40148a6549dc687071006585cc1ec17d5f571e1fc7be377992c950337953a164736f6c6343000814003360806040526a14adf4b7320334b9000000600355600060045534801561002457600080fd5b5060405161089a38038061089a83398101604081905261004391610118565b806001600160a01b03811661007257604051631e4fbdf760e01b81526000600482015260240160405180910390fd5b61007b816100ac565b5050600180546001600160a01b039092166001600160a01b031992831681179091556002805490921617905561014b565b600080546001600160a01b038381166001600160a01b0319831681178455604051919092169283917f8be0079c531659141344cd1fd0a4f28419497f9722a3daafe3b4186f6b6457e09190a35050565b80516001600160a01b038116811461011357600080fd5b919050565b6000806040838503121561012b57600080fd5b610134836100fc565b9150610142602084016100fc565b90509250929050565b6107408061015a6000396000f3fe608060405234801561001057600080fd5b50600436106100885760003560e01c8063efca2eed1161005b578063efca2eed146100dc578063f25addf5146100f3578063f2fde38b14610106578063fc0c546a1461011957600080fd5b8063715018a61461008d578063853828b6146100975780638da5cb5b1461009f5780639d76ea58146100c9575b600080fd5b61009561012c565b005b610095610140565b6000546001600160a01b03165b6040516001600160a01b0390911681526020015b60405180910390f35b6002546100ac906001600160a01b031681565b6100e560045481565b6040519081526020016100c0565b610095610101366004610568565b610230565b61009561011436600461062d565b61047e565b6001546100ac906001600160a01b031681565b6101346104b9565b61013e60006104e6565b565b6101486104b9565b6001546040516370a0823160e01b81523060048201526001600160a01b039091169063a9059cbb90339083906370a0823190602401602060405180830381865afa15801561019a573d6000803e3d6000fd5b505050506040513d601f19601f820116820180604052508101906101be919061064f565b6040516001600160e01b031960e085901b1681526001600160a01b03909216600483015260248201526044016020604051808303816000875af1158015610209573d6000803e3d6000fd5b505050506040513d601f19601f8201168201806040525081019061022d9190610668565b50565b6002546001600160a01b031633146102a25760405162461bcd60e51b815260206004820152602a60248201527f4f6e6c7920746f6b656e20636f6e74726163742063616e2063616c6c207468696044820152693990333ab731ba34b7b760b11b60648201526084015b60405180910390fd5b6003546001546040516370a0823160e01b8152306004820152600092916001600160a01b0316906370a0823190602401602060405180830381865afa1580156102ef573d6000803e3d6000fd5b505050506040513d601f19601f82011682018060405250810190610313919061064f565b11610389576001546040516370a0823160e01b81523060048201526001600160a01b03909116906370a0823190602401602060405180830381865afa158015610360573d6000803e3d6000fd5b505050506040513d601f19601f82011682018060405250810190610384919061064f565b61038d565b6003545b905080600460008282546103a191906106a0565b9091555050801561047a5760005b82518110156104785760015483516001600160a01b039091169063a9059cbb908590849081106103e1576103e16106b9565b60200260200101518551856103f691906106cf565b6040516001600160e01b031960e085901b1681526001600160a01b03909216600483015260248201526044016020604051808303816000875af1158015610441573d6000803e3d6000fd5b505050506040513d601f19601f820116820180604052508101906104659190610668565b5080610470816106f1565b9150506103af565b505b5050565b6104866104b9565b6001600160a01b0381166104b057604051631e4fbdf760e01b815260006004820152602401610299565b61022d816104e6565b6000546001600160a01b0316331461013e5760405163118cdaa760e01b8152336004820152602401610299565b600080546001600160a01b038381166001600160a01b0319831681178455604051919092169283917f8be0079c531659141344cd1fd0a4f28419497f9722a3daafe3b4186f6b6457e09190a35050565b634e487b7160e01b600052604160045260246000fd5b80356001600160a01b038116811461056357600080fd5b919050565b6000602080838503121561057b57600080fd5b823567ffffffffffffffff8082111561059357600080fd5b818501915085601f8301126105a757600080fd5b8135818111156105b9576105b9610536565b8060051b604051601f19603f830116810181811085821117156105de576105de610536565b6040529182528482019250838101850191888311156105fc57600080fd5b938501935b82851015610621576106128561054c565b84529385019392850192610601565b98975050505050505050565b60006020828403121561063f57600080fd5b6106488261054c565b9392505050565b60006020828403121561066157600080fd5b5051919050565b60006020828403121561067a57600080fd5b8151801515811461064857600080fd5b634e487b7160e01b600052601160045260246000fd5b808201808211156106b3576106b361068a565b92915050565b634e487b7160e01b600052603260045260246000fd5b6000826106ec57634e487b7160e01b600052601260045260246000fd5b500490565b6000600182016107035761070361068a565b506001019056fea26469706673582212206b527e644d8c38e6cff6f7f273216ce647251a24ee1560183363f1bf8384876564736f6c63430008140033","opcodes":"PUSH1 0xE0 PUSH1 0x40 MSTORE PUSH1 0xE PUSH1 0xA0 SWAP1 DUP2 MSTORE PUSH14 0x109B1A59DA1D08141C9BDA9958DD PUSH1 0x92 SHL PUSH1 0xC0 MSTORE PUSH1 0x2 SWAP1 PUSH3 0x2F SWAP1 DUP3 PUSH3 0x775 JUMP JUMPDEST POP PUSH1 0x40 DUP1 MLOAD DUP1 DUP3 ADD SWAP1 SWAP2 MSTORE PUSH1 0x3 DUP1 DUP3 MSTORE PUSH3 0x424C49 PUSH1 0xE8 SHL PUSH1 0x20 DUP4 ADD MSTORE SWAP1 PUSH3 0x58 SWAP1 DUP3 PUSH3 0x775 JUMP JUMPDEST POP PUSH3 0x67 PUSH1 0x12 PUSH1 0xA PUSH3 0x954 JUMP JUMPDEST PUSH3 0x77 SWAP1 PUSH4 0x3B9ACA00 PUSH3 0x96C JUMP JUMPDEST PUSH1 0x4 SSTORE PUSH10 0xD3C21BCECCEDA1000000 PUSH1 0x5 SSTORE PUSH2 0x3E8 PUSH1 0x4 SLOAD PUSH1 0xA PUSH3 0x9C SWAP2 SWAP1 PUSH3 0x96C JUMP JUMPDEST PUSH3 0xA8 SWAP2 SWAP1 PUSH3 0x986 JUMP JUMPDEST PUSH1 0x6 SSTORE PUSH1 0x5 SLOAD PUSH3 0xBC SWAP1 PUSH2 0x258 PUSH3 0x96C JUMP JUMPDEST PUSH1 0xB SSTORE PUSH1 0xC8 PUSH1 0xC SSTORE PUSH1 0x5 SLOAD PUSH3 0xD5 SWAP1 PUSH2 0x384 PUSH3 0x96C JUMP JUMPDEST PUSH1 0xD SSTORE PUSH2 0x12C PUSH1 0xE SSTORE PUSH1 0x10 DUP1 SLOAD PUSH20 0x3E98DA13E184EA1467639BF642F804144539694D PUSH1 0x1 PUSH1 0x1 PUSH1 0xA0 SHL SUB NOT SWAP2 DUP3 AND OR SWAP1 SWAP2 SSTORE PUSH1 0x11 DUP1 SLOAD PUSH20 0x41034678D6C633D8A95C75E1138A360A28BA15D1 SWAP3 AND SWAP2 SWAP1 SWAP2 OR SWAP1 SSTORE PUSH1 0x12 DUP1 SLOAD PUSH1 0x1 PUSH1 0x1 PUSH1 0xE0 SHL SUB NOT AND PUSH21 0x6D41034678D6C633D8A95C75E1138A360A28BA15D1 OR SWAP1 SSTORE PUSH32 0x8BA8F62FF6C40A58877A106147661DB43BC58DABFB814793847A839AA03367F PUSH1 0x15 SSTORE PUSH1 0x16 DUP1 SLOAD PUSH1 0x1 PUSH1 0x1 PUSH1 0x50 SHL SUB NOT AND PUSH7 0x10002000186A0 OR SWAP1 SSTORE PUSH1 0x19 DUP1 SLOAD PUSH2 0xFFFF PUSH1 0xA0 SHL NOT AND SWAP1 SSTORE PUSH1 0x4 SLOAD PUSH3 0x1AC SWAP1 PUSH2 0x3E8 SWAP1 PUSH3 0x986 JUMP JUMPDEST PUSH3 0x1B9 SWAP1 PUSH1 0x3 PUSH3 0x96C JUMP JUMPDEST PUSH1 0x1A SSTORE PUSH1 0x64 PUSH1 0x22 SSTORE PUSH1 0x0 PUSH1 0x26 SSTORE PUSH1 0x0 PUSH1 0x28 SSTORE PUSH1 0x0 PUSH1 0x29 SSTORE PUSH10 0x34F086F3B33B68400000 PUSH1 0x2A SSTORE PUSH1 0x0 PUSH1 0x2B SSTORE PUSH1 0x0 PUSH1 0x2C SSTORE PUSH1 0x0 PUSH1 0x2D SSTORE PUSH1 0x0 PUSH1 0x2E SSTORE PUSH1 0x0 PUSH1 0x2F SSTORE PUSH1 0x0 PUSH1 0x30 SSTORE PUSH1 0x0 PUSH1 0x31 SSTORE PUSH1 0x0 PUSH1 0x32 SSTORE PUSH1 0xA PUSH1 0x33 SSTORE PUSH1 0x5 SLOAD PUSH1 0xE5 PUSH3 0x21C SWAP2 SWAP1 PUSH3 0x96C JUMP JUMPDEST PUSH1 0x3A SSTORE PUSH1 0x5 SLOAD PUSH3 0x230 SWAP1 PUSH2 0x165 PUSH3 0x96C JUMP JUMPDEST PUSH1 0x3B SSTORE PUSH1 0x5 SLOAD PUSH3 0x244 SWAP1 PUSH2 0x202 PUSH3 0x96C JUMP JUMPDEST PUSH1 0x3C SSTORE PUSH1 0x5 SLOAD PUSH3 0x258 SWAP1 PUSH2 0x2BC PUSH3 0x96C JUMP JUMPDEST PUSH1 0x3D SSTORE PUSH1 0x5 SLOAD PUSH3 0x26C SWAP1 PUSH2 0x392 PUSH3 0x96C JUMP JUMPDEST PUSH1 0x3E SSTORE PUSH1 0x5 SLOAD PUSH3 0x280 SWAP1 PUSH2 0x485 PUSH3 0x96C JUMP JUMPDEST PUSH1 0x3F SSTORE PUSH1 0x40 DUP1 SLOAD PUSH2 0xFFFF NOT AND SWAP1 SSTORE CALLVALUE DUP1 ISZERO PUSH3 0x29B JUMPI PUSH1 0x0 DUP1 REVERT JUMPDEST POP PUSH1 0x40 MLOAD PUSH3 0x5D91 CODESIZE SUB DUP1 PUSH3 0x5D91 DUP4 CODECOPY DUP2 ADD PUSH1 0x40 DUP2 SWAP1 MSTORE PUSH3 0x2BE SWAP2 PUSH3 0x9A9 JUMP JUMPDEST PUSH1 0x11 SLOAD PUSH1 0x1 PUSH1 0x1 PUSH1 0xA0 SHL SUB SWAP1 DUP2 AND SWAP1 DUP3 SWAP1 DUP2 AND PUSH3 0x2F6 JUMPI PUSH1 0x40 MLOAD PUSH4 0x1E4FBDF7 PUSH1 0xE0 SHL DUP2 MSTORE PUSH1 0x0 PUSH1 0x4 DUP3 ADD MSTORE PUSH1 0x24 ADD PUSH1 0x40 MLOAD DUP1 SWAP2 SUB SWAP1 REVERT JUMPDEST PUSH3 0x301 DUP2 PUSH3 0x5DB JUMP JUMPDEST POP PUSH1 0x1 PUSH1 0x1 PUSH1 0xA0 SHL SUB AND PUSH1 0x80 MSTORE PUSH1 0x18 DUP1 SLOAD PUSH1 0x1 PUSH1 0x1 PUSH1 0xA0 SHL SUB NOT AND PUSH20 0xC873FECBD354F5A56E00E710B90EF4201DB2448D SWAP1 DUP2 OR SWAP1 SWAP2 SSTORE ADDRESS PUSH1 0x0 SWAP1 DUP2 MSTORE PUSH1 0x8 PUSH1 0x20 SWAP1 DUP2 MSTORE PUSH1 0x40 DUP1 DUP4 KECCAK256 SWAP4 DUP4 MSTORE SWAP3 SWAP1 MSTORE SWAP1 DUP2 KECCAK256 PUSH1 0x0 NOT SWAP1 SSTORE PUSH3 0x363 SWAP1 DUP3 PUSH3 0x62B JUMP JUMPDEST POP PUSH3 0x390 PUSH32 0xA49807205CE4D355092EF5A8A18F56E8913CF4A201FBE287825B095693C21775 DUP3 PUSH3 0x62B JUMP JUMPDEST POP ADDRESS DUP2 PUSH1 0x40 MLOAD PUSH3 0x3A1 SWAP1 PUSH3 0x6C2 JUMP JUMPDEST PUSH1 0x1 PUSH1 0x1 PUSH1 0xA0 SHL SUB SWAP3 DUP4 AND DUP2 MSTORE SWAP2 AND PUSH1 0x20 DUP3 ADD MSTORE PUSH1 0x40 ADD PUSH1 0x40 MLOAD DUP1 SWAP2 SUB SWAP1 PUSH1 0x0 CREATE DUP1 ISZERO DUP1 ISZERO PUSH3 0x3D5 JUMPI RETURNDATASIZE PUSH1 0x0 DUP1 RETURNDATACOPY RETURNDATASIZE PUSH1 0x0 REVERT JUMPDEST POP PUSH1 0x21 DUP1 SLOAD PUSH1 0x1 PUSH1 0x1 PUSH1 0xA0 SHL SUB NOT AND PUSH1 0x1 PUSH1 0x1 PUSH1 0xA0 SHL SUB SWAP3 DUP4 AND OR DUP2 SSTORE CALLER PUSH1 0x0 DUP2 DUP2 MSTORE PUSH1 0x9 PUSH1 0x20 SWAP1 DUP2 MSTORE PUSH1 0x40 DUP1 DUP4 KECCAK256 DUP1 SLOAD PUSH1 0xFF NOT SWAP1 DUP2 AND PUSH1 0x1 SWAP1 DUP2 OR SWAP1 SWAP3 SSTORE ADDRESS DUP1 DUP7 MSTORE DUP4 DUP7 KECCAK256 DUP1 SLOAD DUP4 AND DUP5 OR SWAP1 SSTORE PUSH1 0x10 DUP1 SLOAD DUP11 AND DUP8 MSTORE DUP5 DUP8 KECCAK256 DUP1 SLOAD DUP5 AND DUP6 OR SWAP1 SSTORE DUP8 DUP8 MSTORE PUSH1 0xA DUP7 MSTORE DUP5 DUP8 KECCAK256 DUP1 SLOAD DUP5 AND DUP6 OR SWAP1 SSTORE DUP1 SLOAD DUP11 AND DUP8 MSTORE DUP5 DUP8 KECCAK256 DUP1 SLOAD DUP5 AND DUP6 OR SWAP1 SSTORE PUSH32 0x20677881080440A9B3C87E826370BB5D9C2F74EFD4DEDE686D52D77A6A09F8BB DUP1 SLOAD DUP5 AND DUP6 OR SWAP1 SSTORE SWAP8 SLOAD DUP10 AND DUP7 MSTORE DUP4 DUP7 KECCAK256 DUP1 SLOAD DUP4 AND DUP5 OR SWAP1 SSTORE DUP1 DUP7 MSTORE DUP4 DUP7 KECCAK256 DUP1 SLOAD DUP4 AND DUP5 OR SWAP1 SSTORE PUSH1 0x19 DUP1 SLOAD DUP11 AND DUP8 MSTORE DUP5 DUP8 KECCAK256 DUP1 SLOAD DUP5 AND DUP6 OR SWAP1 SSTORE PUSH32 0x12D72EA8E76B561437DB32297FAD751A60BE1B76E594C67D9366E4CD38A6621D DUP1 SLOAD DUP5 AND DUP6 OR SWAP1 SSTORE DUP8 DUP8 MSTORE PUSH1 0x1C DUP7 MSTORE DUP5 DUP8 KECCAK256 DUP1 SLOAD DUP5 AND DUP6 OR SWAP1 SSTORE SWAP8 SLOAD DUP10 AND DUP7 MSTORE DUP4 DUP7 KECCAK256 DUP1 SLOAD DUP4 AND DUP5 OR SWAP1 SSTORE PUSH32 0xA48BD8E7B1565515CDE2859B6CC48308BA05B5325BCF90FB096B9AC0B8087DFC DUP1 SLOAD DUP4 AND DUP5 OR SWAP1 SSTORE DUP6 MSTORE DUP3 DUP6 KECCAK256 DUP1 SLOAD DUP3 AND DUP4 OR SWAP1 SSTORE SWAP6 SLOAD SWAP1 SWAP7 AND DUP4 MSTORE DUP1 DUP4 KECCAK256 DUP1 SLOAD DUP7 AND DUP8 OR SWAP1 SSTORE PUSH32 0xF79DBCED412724F11AC82795A8B72517DF4379A1DFD463F61834EBCB1EA973CA DUP1 SLOAD SWAP1 SWAP6 AND SWAP1 SWAP6 OR SWAP1 SWAP4 SSTORE PUSH1 0x4 SLOAD SWAP2 DUP2 MSTORE PUSH1 0x7 SWAP1 SWAP3 MSTORE SWAP2 DUP2 KECCAK256 DUP1 SLOAD SWAP1 SWAP2 SWAP1 PUSH3 0x594 SWAP1 DUP5 SWAP1 PUSH3 0x9D4 JUMP JUMPDEST SWAP1 SWAP2 SSTORE POP POP PUSH1 0x4 SLOAD PUSH1 0x40 MLOAD SWAP1 DUP2 MSTORE CALLER SWAP1 PUSH1 0x0 SWAP1 PUSH32 0xDDF252AD1BE2C89B69C2B068FC378DAA952BA7F163C4A11628F55A4DF523B3EF SWAP1 PUSH1 0x20 ADD PUSH1 0x40 MLOAD DUP1 SWAP2 SUB SWAP1 LOG3 POP PUSH3 0x9EA JUMP JUMPDEST PUSH1 0x0 DUP1 SLOAD PUSH1 0x1 PUSH1 0x1 PUSH1 0xA0 SHL SUB DUP4 DUP2 AND PUSH1 0x1 PUSH1 0x1 PUSH1 0xA0 SHL SUB NOT DUP4 AND DUP2 OR DUP5 SSTORE PUSH1 0x40 MLOAD SWAP2 SWAP1 SWAP3 AND SWAP3 DUP4 SWAP2 PUSH32 0x8BE0079C531659141344CD1FD0A4F28419497F9722A3DAAFE3B4186F6B6457E0 SWAP2 SWAP1 LOG3 POP POP JUMP JUMPDEST PUSH1 0x0 DUP3 DUP2 MSTORE PUSH1 0x1 PUSH1 0x20 SWAP1 DUP2 MSTORE PUSH1 0x40 DUP1 DUP4 KECCAK256 PUSH1 0x1 PUSH1 0x1 PUSH1 0xA0 SHL SUB DUP6 AND DUP5 MSTORE SWAP1 SWAP2 MSTORE DUP2 KECCAK256 SLOAD PUSH1 0xFF AND PUSH3 0x6B8 JUMPI PUSH1 0x0 DUP4 DUP2 MSTORE PUSH1 0x1 PUSH1 0x20 DUP2 DUP2 MSTORE PUSH1 0x40 DUP1 DUP5 KECCAK256 PUSH1 0x1 PUSH1 0x1 PUSH1 0xA0 SHL SUB DUP8 AND DUP1 DUP7 MSTORE SWAP3 MSTORE DUP1 DUP5 KECCAK256 DUP1 SLOAD PUSH1 0xFF NOT AND SWAP1 SWAP4 OR SWAP1 SWAP3 SSTORE SWAP1 MLOAD CALLER SWAP3 DUP7 SWAP2 PUSH32 0x2F8788117E7EFF1D82E926EC794901D17C78024A50270940304540A733656F0D SWAP2 SWAP1 LOG4 POP PUSH1 0x1 PUSH3 0x6BC JUMP JUMPDEST POP PUSH1 0x0 JUMPDEST SWAP3 SWAP2 POP POP JUMP JUMPDEST PUSH2 0x89A DUP1 PUSH3 0x54F7 DUP4 CODECOPY ADD SWAP1 JUMP JUMPDEST PUSH4 0x4E487B71 PUSH1 0xE0 SHL PUSH1 0x0 MSTORE PUSH1 0x41 PUSH1 0x4 MSTORE PUSH1 0x24 PUSH1 0x0 REVERT JUMPDEST PUSH1 0x1 DUP2 DUP2 SHR SWAP1 DUP3 AND DUP1 PUSH3 0x6FB JUMPI PUSH1 0x7F DUP3 AND SWAP2 POP JUMPDEST PUSH1 0x20 DUP3 LT DUP2 SUB PUSH3 0x71C JUMPI PUSH4 0x4E487B71 PUSH1 0xE0 SHL PUSH1 0x0 MSTORE PUSH1 0x22 PUSH1 0x4 MSTORE PUSH1 0x24 PUSH1 0x0 REVERT JUMPDEST POP SWAP2 SWAP1 POP JUMP JUMPDEST PUSH1 0x1F DUP3 GT ISZERO PUSH3 0x770 JUMPI PUSH1 0x0 DUP2 DUP2 MSTORE PUSH1 0x20 DUP2 KECCAK256 PUSH1 0x1F DUP6 ADD PUSH1 0x5 SHR DUP2 ADD PUSH1 0x20 DUP7 LT ISZERO PUSH3 0x74B JUMPI POP DUP1 JUMPDEST PUSH1 0x1F DUP6 ADD PUSH1 0x5 SHR DUP3 ADD SWAP2 POP JUMPDEST DUP2 DUP2 LT ISZERO PUSH3 0x76C JUMPI DUP3 DUP2 SSTORE PUSH1 0x1 ADD PUSH3 0x757 JUMP JUMPDEST POP POP POP JUMPDEST POP POP POP JUMP JUMPDEST DUP2 MLOAD PUSH1 0x1 PUSH1 0x1 PUSH1 0x40 SHL SUB DUP2 GT ISZERO PUSH3 0x791 JUMPI PUSH3 0x791 PUSH3 0x6D0 JUMP JUMPDEST PUSH3 0x7A9 DUP2 PUSH3 0x7A2 DUP5 SLOAD PUSH3 0x6E6 JUMP JUMPDEST DUP5 PUSH3 0x722 JUMP JUMPDEST PUSH1 0x20 DUP1 PUSH1 0x1F DUP4 GT PUSH1 0x1 DUP2 EQ PUSH3 0x7E1 JUMPI PUSH1 0x0 DUP5 ISZERO PUSH3 0x7C8 JUMPI POP DUP6 DUP4 ADD MLOAD JUMPDEST PUSH1 0x0 NOT PUSH1 0x3 DUP7 SWAP1 SHL SHR NOT AND PUSH1 0x1 DUP6 SWAP1 SHL OR DUP6 SSTORE PUSH3 0x76C JUMP JUMPDEST PUSH1 0x0 DUP6 DUP2 MSTORE PUSH1 0x20 DUP2 KECCAK256 PUSH1 0x1F NOT DUP7 AND SWAP2 JUMPDEST DUP3 DUP2 LT ISZERO PUSH3 0x812 JUMPI DUP9 DUP7 ADD MLOAD DUP3 SSTORE SWAP5 DUP5 ADD SWAP5 PUSH1 0x1 SWAP1 SWAP2 ADD SWAP1 DUP5 ADD PUSH3 0x7F1 JUMP JUMPDEST POP DUP6 DUP3 LT ISZERO PUSH3 0x831 JUMPI DUP8 DUP6 ADD MLOAD PUSH1 0x0 NOT PUSH1 0x3 DUP9 SWAP1 SHL PUSH1 0xF8 AND SHR NOT AND DUP2 SSTORE JUMPDEST POP POP POP POP POP PUSH1 0x1 SWAP1 DUP2 SHL ADD SWAP1 SSTORE POP JUMP JUMPDEST PUSH4 0x4E487B71 PUSH1 0xE0 SHL PUSH1 0x0 MSTORE PUSH1 0x11 PUSH1 0x4 MSTORE PUSH1 0x24 PUSH1 0x0 REVERT JUMPDEST PUSH1 0x1 DUP2 DUP2 JUMPDEST DUP1 DUP6 GT ISZERO PUSH3 0x898 JUMPI DUP2 PUSH1 0x0 NOT DIV DUP3 GT ISZERO PUSH3 0x87C JUMPI PUSH3 0x87C PUSH3 0x841 JUMP JUMPDEST DUP1 DUP6 AND ISZERO PUSH3 0x88A JUMPI SWAP2 DUP2 MUL SWAP2 JUMPDEST SWAP4 DUP5 SHR SWAP4 SWAP1 DUP1 MUL SWAP1 PUSH3 0x85C JUMP JUMPDEST POP SWAP3 POP SWAP3 SWAP1 POP JUMP JUMPDEST PUSH1 0x0 DUP3 PUSH3 0x8B1 JUMPI POP PUSH1 0x1 PUSH3 0x6BC JUMP JUMPDEST DUP2 PUSH3 0x8C0 JUMPI POP PUSH1 0x0 PUSH3 0x6BC JUMP JUMPDEST DUP2 PUSH1 0x1 DUP2 EQ PUSH3 0x8D9 JUMPI PUSH1 0x2 DUP2 EQ PUSH3 0x8E4 JUMPI PUSH3 0x904 JUMP JUMPDEST PUSH1 0x1 SWAP2 POP POP PUSH3 0x6BC JUMP JUMPDEST PUSH1 0xFF DUP5 GT ISZERO PUSH3 0x8F8 JUMPI PUSH3 0x8F8 PUSH3 0x841 JUMP JUMPDEST POP POP PUSH1 0x1 DUP3 SHL PUSH3 0x6BC JUMP JUMPDEST POP PUSH1 0x20 DUP4 LT PUSH2 0x133 DUP4 LT AND PUSH1 0x4E DUP5 LT PUSH1 0xB DUP5 LT AND OR ISZERO PUSH3 0x929 JUMPI POP DUP2 DUP2 EXP PUSH3 0x6BC JUMP JUMPDEST PUSH3 0x935 DUP4 DUP4 PUSH3 0x857 JUMP JUMPDEST DUP1 PUSH1 0x0 NOT DIV DUP3 GT ISZERO PUSH3 0x94C JUMPI PUSH3 0x94C PUSH3 0x841 JUMP JUMPDEST MUL SWAP4 SWAP3 POP POP POP JUMP JUMPDEST PUSH1 0x0 PUSH3 0x965 PUSH1 0xFF DUP5 AND DUP4 PUSH3 0x8A0 JUMP JUMPDEST SWAP4 SWAP3 POP POP POP JUMP JUMPDEST DUP1 DUP3 MUL DUP2 ISZERO DUP3 DUP3 DIV DUP5 EQ OR PUSH3 0x6BC JUMPI PUSH3 0x6BC PUSH3 0x841 JUMP JUMPDEST PUSH1 0x0 DUP3 PUSH3 0x9A4 JUMPI PUSH4 0x4E487B71 PUSH1 0xE0 SHL PUSH1 0x0 MSTORE PUSH1 0x12 PUSH1 0x4 MSTORE PUSH1 0x24 PUSH1 0x0 REVERT JUMPDEST POP DIV SWAP1 JUMP JUMPDEST PUSH1 0x0 PUSH1 0x20 DUP3 DUP5 SUB SLT ISZERO PUSH3 0x9BC JUMPI PUSH1 0x0 DUP1 REVERT JUMPDEST DUP2 MLOAD PUSH1 0x1 PUSH1 0x1 PUSH1 0xA0 SHL SUB DUP2 AND DUP2 EQ PUSH3 0x965 JUMPI PUSH1 0x0 DUP1 REVERT JUMPDEST DUP1 DUP3 ADD DUP1 DUP3 GT ISZERO PUSH3 0x6BC JUMPI PUSH3 0x6BC PUSH3 0x841 JUMP JUMPDEST PUSH1 0x80 MLOAD PUSH2 0x4AEA PUSH3 0xA0D PUSH1 0x0 CODECOPY PUSH1 0x0 DUP2 DUP2 PUSH2 0x166E ADD MSTORE PUSH2 0x16B0 ADD MSTORE PUSH2 0x4AEA PUSH1 0x0 RETURN INVALID PUSH1 0x80 PUSH1 0x40 MSTORE PUSH1 0x4 CALLDATASIZE LT PUSH2 0x429 JUMPI PUSH1 0x0 CALLDATALOAD PUSH1 0xE0 SHR DUP1 PUSH4 0x658D4B7F GT PUSH2 0x229 JUMPI DUP1 PUSH4 0xAA9BBC0C GT PUSH2 0x12E JUMPI DUP1 PUSH4 0xDD62ED3E GT PUSH2 0xB6 JUMPI DUP1 PUSH4 0xF887EA40 GT PUSH2 0x7A JUMPI DUP1 PUSH4 0xF887EA40 EQ PUSH2 0xD7D JUMPI DUP1 PUSH4 0xFBFA77CF EQ PUSH2 0xD9D JUMPI DUP1 PUSH4 0xFC2A88C3 EQ PUSH2 0xDBD JUMPI DUP1 PUSH4 0xFD39EF78 EQ PUSH2 0xDD3 JUMPI DUP1 PUSH4 0xFD6E28CF EQ PUSH2 0xDF3 JUMPI PUSH1 0x0 DUP1 REVERT JUMPDEST DUP1 PUSH4 0xDD62ED3E EQ PUSH2 0xCB7 JUMPI DUP1 PUSH4 0xDF20FD49 EQ PUSH2 0xCFD JUMPI DUP1 PUSH4 0xF25C7EA4 EQ PUSH2 0xD1D JUMPI DUP1 PUSH4 0xF2FDE38B EQ PUSH2 0xD3D JUMPI DUP1 PUSH4 0xF5415CBB EQ PUSH2 0xD5D JUMPI PUSH1 0x0 DUP1 REVERT JUMPDEST DUP1 PUSH4 0xC3EC8897 GT PUSH2 0xFD JUMPI DUP1 PUSH4 0xC3EC8897 EQ PUSH2 0xC00 JUMPI DUP1 PUSH4 0xC6B61E4C EQ PUSH2 0xC16 JUMPI DUP1 PUSH4 0xD02C6394 EQ PUSH2 0xC6D JUMPI DUP1 PUSH4 0xD3A9FFC4 EQ PUSH2 0xC82 JUMPI DUP1 PUSH4 0xD547741F EQ PUSH2 0xC97 JUMPI PUSH1 0x0 DUP1 REVERT JUMPDEST DUP1 PUSH4 0xAA9BBC0C EQ PUSH2 0xB81 JUMPI DUP1 PUSH4 0xAB7573DD EQ PUSH2 0xB97 JUMPI DUP1 PUSH4 0xC26D68F9 EQ PUSH2 0xBC4 JUMPI DUP1 PUSH4 0xC315432A EQ PUSH2 0xBE6 JUMPI PUSH1 0x0 DUP1 REVERT JUMPDEST DUP1 PUSH4 0x8C5799CE GT PUSH2 0x1B1 JUMPI DUP1 PUSH4 0x96EB64A9 GT PUSH2 0x180 JUMPI DUP1 PUSH4 0x96EB64A9 EQ PUSH2 0xAEC JUMPI DUP1 PUSH4 0x98544710 EQ PUSH2 0xB0C JUMPI DUP1 PUSH4 0xA217FDDF EQ PUSH2 0xB2C JUMPI DUP1 PUSH4 0xA8AA1B31 EQ PUSH2 0xB41 JUMPI DUP1 PUSH4 0xA9059CBB EQ PUSH2 0xB61 JUMPI PUSH1 0x0 DUP1 REVERT JUMPDEST DUP1 PUSH4 0x8C5799CE EQ PUSH2 0xA69 JUMPI DUP1 PUSH4 0x8DA5CB5B EQ PUSH2 0xA99 JUMPI DUP1 PUSH4 0x91D14854 EQ PUSH2 0xAB7 JUMPI DUP1 PUSH4 0x95D89B41 EQ PUSH2 0xAD7 JUMPI PUSH1 0x0 DUP1 REVERT JUMPDEST DUP1 PUSH4 0x70A08231 GT PUSH2 0x1F8 JUMPI DUP1 PUSH4 0x70A08231 EQ PUSH2 0x9D2 JUMPI DUP1 PUSH4 0x715018A6 EQ PUSH2 0x9F2 JUMPI DUP1 PUSH4 0x73A432BB EQ PUSH2 0xA07 JUMPI DUP1 PUSH4 0x75B238FC EQ PUSH2 0xA27 JUMPI DUP1 PUSH4 0x8796BA8C EQ PUSH2 0xA49 JUMPI PUSH1 0x0 DUP1 REVERT JUMPDEST DUP1 PUSH4 0x658D4B7F EQ PUSH2 0x95A JUMPI DUP1 PUSH4 0x6789C92C EQ PUSH2 0x97A JUMPI DUP1 PUSH4 0x6CBC2DED EQ PUSH2 0x99C JUMPI DUP1 PUSH4 0x6DDD1713 EQ PUSH2 0x9B1 JUMPI PUSH1 0x0 DUP1 REVERT JUMPDEST DUP1 PUSH4 0x23B872DD GT PUSH2 0x32F JUMPI DUP1 PUSH4 0x43D4F92B GT PUSH2 0x2B7 JUMPI DUP1 PUSH4 0x5119C971 GT PUSH2 0x286 JUMPI DUP1 PUSH4 0x5119C971 EQ PUSH2 0x8B1 JUMPI DUP1 PUSH4 0x54D41B5B EQ PUSH2 0x8C7 JUMPI DUP1 PUSH4 0x571AC8B0 EQ PUSH2 0x8F4 JUMPI DUP1 PUSH4 0x5BC04469 EQ PUSH2 0x914 JUMPI DUP1 PUSH4 0x636EE0DB EQ PUSH2 0x92A JUMPI PUSH1 0x0 DUP1 REVERT JUMPDEST DUP1 PUSH4 0x43D4F92B EQ PUSH2 0x851 JUMPI DUP1 PUSH4 0x4726319F EQ PUSH2 0x871 JUMPI DUP1 PUSH4 0x4E71D92D EQ PUSH2 0x887 JUMPI DUP1 PUSH4 0x4FAB9E4C EQ PUSH2 0x89C JUMPI PUSH1 0x0 DUP1 REVERT JUMPDEST DUP1 PUSH4 0x313CE567 GT PUSH2 0x2FE JUMPI DUP1 PUSH4 0x313CE567 EQ PUSH2 0x79D JUMPI DUP1 PUSH4 0x31D7A262 EQ PUSH2 0x7B9 JUMPI DUP1 PUSH4 0x36568ABE EQ PUSH2 0x7E6 JUMPI DUP1 PUSH4 0x3AAB0A62 EQ PUSH2 0x806 JUMPI DUP1 PUSH4 0x3ECA5343 EQ PUSH2 0x81B JUMPI PUSH1 0x0 DUP1 REVERT JUMPDEST DUP1 PUSH4 0x23B872DD EQ PUSH2 0x6F4 JUMPI DUP1 PUSH4 0x248A9CA3 EQ PUSH2 0x714 JUMPI DUP1 PUSH4 0x2598CDB2 EQ PUSH2 0x745 JUMPI DUP1 PUSH4 0x2F2FF15D EQ PUSH2 0x77D JUMPI PUSH1 0x0 DUP1 REVERT JUMPDEST DUP1 PUSH4 0xF44E894 GT PUSH2 0x3B2 JUMPI DUP1 PUSH4 0x196228C0 GT PUSH2 0x381 JUMPI DUP1 PUSH4 0x196228C0 EQ PUSH2 0x674 JUMPI DUP1 PUSH4 0x1BD8EBE1 EQ PUSH2 0x689 JUMPI DUP1 PUSH4 0x1CE78AC8 EQ PUSH2 0x69F JUMPI DUP1 PUSH4 0x1FE543E3 EQ PUSH2 0x6B4 JUMPI DUP1 PUSH4 0x2198CF6C EQ PUSH2 0x6D4 JUMPI PUSH1 0x0 DUP1 REVERT JUMPDEST DUP1 PUSH4 0xF44E894 EQ PUSH2 0x5C8 JUMPI DUP1 PUSH4 0x1299D7F7 EQ PUSH2 0x5F4 JUMPI DUP1 PUSH4 0x1781E17C EQ PUSH2 0x614 JUMPI DUP1 PUSH4 0x18160DDD EQ PUSH2 0x65F JUMPI PUSH1 0x0 DUP1 REVERT JUMPDEST DUP1 PUSH4 0x5DC0394 GT PUSH2 0x3F9 JUMPI DUP1 PUSH4 0x5DC0394 EQ PUSH2 0x522 JUMPI DUP1 PUSH4 0x64A59D0 EQ PUSH2 0x546 JUMPI DUP1 PUSH4 0x6FDDE03 EQ PUSH2 0x567 JUMPI DUP1 PUSH4 0x95EA7B3 EQ PUSH2 0x589 JUMPI DUP1 PUSH4 0xE04A7D8 EQ PUSH2 0x5A9 JUMPI PUSH1 0x0 DUP1 REVERT JUMPDEST DUP1 PUSH3 0x7F27AE EQ PUSH2 0x435 JUMPI DUP1 PUSH4 0x14C58A3 EQ PUSH2 0x457 JUMPI DUP1 PUSH4 0x1FFC9A7 EQ PUSH2 0x4B7 JUMPI DUP1 PUSH4 0x2B2553E EQ PUSH2 0x4D7 JUMPI PUSH1 0x0 DUP1 REVERT JUMPDEST CALLDATASIZE PUSH2 0x430 JUMPI STOP JUMPDEST PUSH1 0x0 DUP1 REVERT JUMPDEST CALLVALUE DUP1 ISZERO PUSH2 0x441 JUMPI PUSH1 0x0 DUP1 REVERT JUMPDEST POP PUSH2 0x455 PUSH2 0x450 CALLDATASIZE PUSH1 0x4 PUSH2 0x43E7 JUMP JUMPDEST PUSH2 0xE3E JUMP JUMPDEST STOP JUMPDEST CALLVALUE DUP1 ISZERO PUSH2 0x463 JUMPI PUSH1 0x0 DUP1 REVERT JUMPDEST POP PUSH2 0x4A2 PUSH2 0x472 CALLDATASIZE PUSH1 0x4 PUSH2 0x43E7 JUMP JUMPDEST PUSH1 0x26 SLOAD PUSH1 0x0 SWAP1 DUP2 MSTORE PUSH1 0x27 PUSH1 0x20 SWAP1 DUP2 MSTORE PUSH1 0x40 DUP1 DUP4 KECCAK256 PUSH1 0x1 PUSH1 0x1 PUSH1 0xA0 SHL SUB SWAP1 SWAP5 AND DUP4 MSTORE PUSH1 0x4 SWAP1 SWAP4 ADD SWAP1 MSTORE KECCAK256 SLOAD PUSH1 0xFF AND SWAP1 JUMP JUMPDEST PUSH1 0x40 MLOAD SWAP1 ISZERO ISZERO DUP2 MSTORE PUSH1 0x20 ADD JUMPDEST PUSH1 0x40 MLOAD DUP1 SWAP2 SUB SWAP1 RETURN JUMPDEST CALLVALUE DUP1 ISZERO PUSH2 0x4C3 JUMPI PUSH1 0x0 DUP1 REVERT JUMPDEST POP PUSH2 0x4A2 PUSH2 0x4D2 CALLDATASIZE PUSH1 0x4 PUSH2 0x4404 JUMP JUMPDEST PUSH2 0x11B7 JUMP JUMPDEST CALLVALUE DUP1 ISZERO PUSH2 0x4E3 JUMPI PUSH1 0x0 DUP1 REVERT JUMPDEST POP PUSH2 0x4A2 PUSH2 0x4F2 CALLDATASIZE PUSH1 0x4 PUSH2 0x43E7 JUMP JUMPDEST PUSH1 0x26 SLOAD PUSH1 0x0 SWAP1 DUP2 MSTORE PUSH1 0x27 PUSH1 0x20 SWAP1 DUP2 MSTORE PUSH1 0x40 DUP1 DUP4 KECCAK256 PUSH1 0x1 PUSH1 0x1 PUSH1 0xA0 SHL SUB SWAP1 SWAP5 AND DUP4 MSTORE PUSH1 0x5 SWAP1 SWAP4 ADD SWAP1 MSTORE KECCAK256 SLOAD PUSH1 0xFF AND SWAP1 JUMP JUMPDEST CALLVALUE DUP1 ISZERO PUSH2 0x52E JUMPI PUSH1 0x0 DUP1 REVERT JUMPDEST POP PUSH2 0x538 PUSH1 0x29 SLOAD DUP2 JUMP JUMPDEST PUSH1 0x40 MLOAD SWAP1 DUP2 MSTORE PUSH1 0x20 ADD PUSH2 0x4AE JUMP JUMPDEST CALLVALUE DUP1 ISZERO PUSH2 0x552 JUMPI PUSH1 0x0 DUP1 REVERT JUMPDEST POP PUSH1 0x19 SLOAD PUSH2 0x4A2 SWAP1 PUSH1 0x1 PUSH1 0xA0 SHL SWAP1 DIV PUSH1 0xFF AND DUP2 JUMP JUMPDEST CALLVALUE DUP1 ISZERO PUSH2 0x573 JUMPI PUSH1 0x0 DUP1 REVERT JUMPDEST POP PUSH2 0x57C PUSH2 0x11EE JUMP JUMPDEST PUSH1 0x40 MLOAD PUSH2 0x4AE SWAP2 SWAP1 PUSH2 0x442E JUMP JUMPDEST CALLVALUE DUP1 ISZERO PUSH2 0x595 JUMPI PUSH1 0x0 DUP1 REVERT JUMPDEST POP PUSH2 0x4A2 PUSH2 0x5A4 CALLDATASIZE PUSH1 0x4 PUSH2 0x447C JUMP JUMPDEST PUSH2 0x1280 JUMP JUMPDEST CALLVALUE DUP1 ISZERO PUSH2 0x5B5 JUMPI PUSH1 0x0 DUP1 REVERT JUMPDEST POP PUSH1 0x40 SLOAD PUSH2 0x4A2 SWAP1 PUSH2 0x100 SWAP1 DIV PUSH1 0xFF AND DUP2 JUMP JUMPDEST CALLVALUE DUP1 ISZERO PUSH2 0x5D4 JUMPI PUSH1 0x0 DUP1 REVERT JUMPDEST POP PUSH2 0x538 PUSH2 0x5E3 CALLDATASIZE PUSH1 0x4 PUSH2 0x43E7 JUMP JUMPDEST PUSH1 0x20 DUP1 MSTORE PUSH1 0x0 SWAP1 DUP2 MSTORE PUSH1 0x40 SWAP1 KECCAK256 SLOAD DUP2 JUMP JUMPDEST CALLVALUE DUP1 ISZERO PUSH2 0x600 JUMPI PUSH1 0x0 DUP1 REVERT JUMPDEST POP PUSH2 0x455 PUSH2 0x60F CALLDATASIZE PUSH1 0x4 PUSH2 0x44A8 JUMP JUMPDEST PUSH2 0x12EC JUMP JUMPDEST CALLVALUE DUP1 ISZERO PUSH2 0x620 JUMPI PUSH1 0x0 DUP1 REVERT JUMPDEST POP PUSH2 0x4A2 PUSH2 0x62F CALLDATASIZE PUSH1 0x4 PUSH2 0x43E7 JUMP JUMPDEST PUSH1 0x26 SLOAD PUSH1 0x0 SWAP1 DUP2 MSTORE PUSH1 0x27 PUSH1 0x20 SWAP1 DUP2 MSTORE PUSH1 0x40 DUP1 DUP4 KECCAK256 PUSH1 0x1 PUSH1 0x1 PUSH1 0xA0 SHL SUB SWAP1 SWAP5 AND DUP4 MSTORE PUSH1 0x8 SWAP1 SWAP4 ADD SWAP1 MSTORE KECCAK256 SLOAD PUSH1 0xFF AND SWAP1 JUMP JUMPDEST CALLVALUE DUP1 ISZERO PUSH2 0x66B JUMPI PUSH1 0x0 DUP1 REVERT JUMPDEST POP PUSH1 0x4 SLOAD PUSH2 0x538 JUMP JUMPDEST CALLVALUE DUP1 ISZERO PUSH2 0x680 JUMPI PUSH1 0x0 DUP1 REVERT JUMPDEST POP PUSH2 0x455 PUSH2 0x130A JUMP JUMPDEST CALLVALUE DUP1 ISZERO PUSH2 0x695 JUMPI PUSH1 0x0 DUP1 REVERT JUMPDEST POP PUSH2 0x538 PUSH1 0x28 SLOAD DUP2 JUMP JUMPDEST CALLVALUE DUP1 ISZERO PUSH2 0x6AB JUMPI PUSH1 0x0 DUP1 REVERT JUMPDEST POP PUSH2 0x455 PUSH2 0x162D JUMP JUMPDEST CALLVALUE DUP1 ISZERO PUSH2 0x6C0 JUMPI PUSH1 0x0 DUP1 REVERT JUMPDEST POP PUSH2 0x455 PUSH2 0x6CF CALLDATASIZE PUSH1 0x4 PUSH2 0x452C JUMP JUMPDEST PUSH2 0x1663 JUMP JUMPDEST CALLVALUE DUP1 ISZERO PUSH2 0x6E0 JUMPI PUSH1 0x0 DUP1 REVERT JUMPDEST POP PUSH2 0x455 PUSH2 0x6EF CALLDATASIZE PUSH1 0x4 PUSH2 0x45E3 JUMP JUMPDEST PUSH2 0x16E7 JUMP JUMPDEST CALLVALUE DUP1 ISZERO PUSH2 0x700 JUMPI PUSH1 0x0 DUP1 REVERT JUMPDEST POP PUSH2 0x4A2 PUSH2 0x70F CALLDATASIZE PUSH1 0x4 PUSH2 0x4618 JUMP JUMPDEST PUSH2 0x171A JUMP JUMPDEST CALLVALUE DUP1 ISZERO PUSH2 0x720 JUMPI PUSH1 0x0 DUP1 REVERT JUMPDEST POP PUSH2 0x538 PUSH2 0x72F CALLDATASIZE PUSH1 0x4 PUSH2 0x44A8 JUMP JUMPDEST PUSH1 0x0 SWAP1 DUP2 MSTORE PUSH1 0x1 PUSH1 0x20 DUP2 SWAP1 MSTORE PUSH1 0x40 SWAP1 SWAP2 KECCAK256 ADD SLOAD SWAP1 JUMP JUMPDEST CALLVALUE DUP1 ISZERO PUSH2 0x751 JUMPI PUSH1 0x0 DUP1 REVERT JUMPDEST POP PUSH1 0x10 SLOAD PUSH2 0x765 SWAP1 PUSH1 0x1 PUSH1 0x1 PUSH1 0xA0 SHL SUB AND DUP2 JUMP JUMPDEST PUSH1 0x40 MLOAD PUSH1 0x1 PUSH1 0x1 PUSH1 0xA0 SHL SUB SWAP1 SWAP2 AND DUP2 MSTORE PUSH1 0x20 ADD PUSH2 0x4AE JUMP JUMPDEST CALLVALUE DUP1 ISZERO PUSH2 0x789 JUMPI PUSH1 0x0 DUP1 REVERT JUMPDEST POP PUSH2 0x455 PUSH2 0x798 CALLDATASIZE PUSH1 0x4 PUSH2 0x4659 JUMP JUMPDEST PUSH2 0x17EF JUMP JUMPDEST CALLVALUE DUP1 ISZERO PUSH2 0x7A9 JUMPI PUSH1 0x0 DUP1 REVERT JUMPDEST POP PUSH1 0x40 MLOAD PUSH1 0x12 DUP2 MSTORE PUSH1 0x20 ADD PUSH2 0x4AE JUMP JUMPDEST CALLVALUE DUP1 ISZERO PUSH2 0x7C5 JUMPI PUSH1 0x0 DUP1 REVERT JUMPDEST POP PUSH2 0x538 PUSH2 0x7D4 CALLDATASIZE PUSH1 0x4 PUSH2 0x43E7 JUMP JUMPDEST PUSH1 0x1F PUSH1 0x20 MSTORE PUSH1 0x0 SWAP1 DUP2 MSTORE PUSH1 0x40 SWAP1 KECCAK256 SLOAD DUP2 JUMP JUMPDEST CALLVALUE DUP1 ISZERO PUSH2 0x7F2 JUMPI PUSH1 0x0 DUP1 REVERT JUMPDEST POP PUSH2 0x455 PUSH2 0x801 CALLDATASIZE PUSH1 0x4 PUSH2 0x4659 JUMP JUMPDEST PUSH2 0x181B JUMP JUMPDEST CALLVALUE DUP1 ISZERO PUSH2 0x812 JUMPI PUSH1 0x0 DUP1 REVERT JUMPDEST POP PUSH2 0x455 PUSH2 0x1853 JUMP JUMPDEST CALLVALUE DUP1 ISZERO PUSH2 0x827 JUMPI PUSH1 0x0 DUP1 REVERT JUMPDEST POP PUSH2 0x765 PUSH2 0x836 CALLDATASIZE PUSH1 0x4 PUSH2 0x43E7 JUMP JUMPDEST PUSH1 0x1D PUSH1 0x20 MSTORE PUSH1 0x0 SWAP1 DUP2 MSTORE PUSH1 0x40 SWAP1 KECCAK256 SLOAD PUSH1 0x1 PUSH1 0x1 PUSH1 0xA0 SHL SUB AND DUP2 JUMP JUMPDEST CALLVALUE DUP1 ISZERO PUSH2 0x85D JUMPI PUSH1 0x0 DUP1 REVERT JUMPDEST POP PUSH2 0x455 PUSH2 0x86C CALLDATASIZE PUSH1 0x4 PUSH2 0x43E7 JUMP JUMPDEST PUSH2 0x18D9 JUMP JUMPDEST CALLVALUE DUP1 ISZERO PUSH2 0x87D JUMPI PUSH1 0x0 DUP1 REVERT JUMPDEST POP PUSH2 0x538 PUSH1 0x33 SLOAD DUP2 JUMP JUMPDEST CALLVALUE DUP1 ISZERO PUSH2 0x893 JUMPI PUSH1 0x0 DUP1 REVERT JUMPDEST POP PUSH2 0x455 PUSH2 0x193A JUMP JUMPDEST CALLVALUE DUP1 ISZERO PUSH2 0x8A8 JUMPI PUSH1 0x0 DUP1 REVERT JUMPDEST POP PUSH2 0x455 PUSH2 0x1B3C JUMP JUMPDEST CALLVALUE DUP1 ISZERO PUSH2 0x8BD JUMPI PUSH1 0x0 DUP1 REVERT JUMPDEST POP PUSH2 0x538 PUSH1 0x42 SLOAD DUP2 JUMP JUMPDEST CALLVALUE DUP1 ISZERO PUSH2 0x8D3 JUMPI PUSH1 0x0 DUP1 REVERT JUMPDEST POP PUSH2 0x538 PUSH2 0x8E2 CALLDATASIZE PUSH1 0x4 PUSH2 0x43E7 JUMP JUMPDEST PUSH1 0x23 PUSH1 0x20 MSTORE PUSH1 0x0 SWAP1 DUP2 MSTORE PUSH1 0x40 SWAP1 KECCAK256 SLOAD DUP2 JUMP JUMPDEST CALLVALUE DUP1 ISZERO PUSH2 0x900 JUMPI PUSH1 0x0 DUP1 REVERT JUMPDEST POP PUSH2 0x4A2 PUSH2 0x90F CALLDATASIZE PUSH1 0x4 PUSH2 0x43E7 JUMP JUMPDEST PUSH2 0x1C4B JUMP JUMPDEST CALLVALUE DUP1 ISZERO PUSH2 0x920 JUMPI PUSH1 0x0 DUP1 REVERT JUMPDEST POP PUSH2 0x538 PUSH1 0x2A SLOAD DUP2 JUMP JUMPDEST CALLVALUE DUP1 ISZERO PUSH2 0x936 JUMPI PUSH1 0x0 DUP1 REVERT JUMPDEST POP PUSH2 0x4A2 PUSH2 0x945 CALLDATASIZE PUSH1 0x4 PUSH2 0x43E7 JUMP JUMPDEST PUSH1 0x1C PUSH1 0x20 MSTORE PUSH1 0x0 SWAP1 DUP2 MSTORE PUSH1 0x40 SWAP1 KECCAK256 SLOAD PUSH1 0xFF AND DUP2 JUMP JUMPDEST CALLVALUE DUP1 ISZERO PUSH2 0x966 JUMPI PUSH1 0x0 DUP1 REVERT JUMPDEST POP PUSH2 0x455 PUSH2 0x975 CALLDATASIZE PUSH1 0x4 PUSH2 0x45E3 JUMP JUMPDEST PUSH2 0x1C59 JUMP JUMPDEST CALLVALUE DUP1 ISZERO PUSH2 0x986 JUMPI PUSH1 0x0 DUP1 REVERT JUMPDEST POP PUSH2 0x98F PUSH2 0x1C8C JUMP JUMPDEST PUSH1 0x40 MLOAD PUSH2 0x4AE SWAP2 SWAP1 PUSH2 0x46CD JUMP JUMPDEST CALLVALUE DUP1 ISZERO PUSH2 0x9A8 JUMPI PUSH1 0x0 DUP1 REVERT JUMPDEST POP PUSH2 0x455 PUSH2 0x1CFB JUMP JUMPDEST CALLVALUE DUP1 ISZERO PUSH2 0x9BD JUMPI PUSH1 0x0 DUP1 REVERT JUMPDEST POP PUSH1 0x19 SLOAD PUSH2 0x4A2 SWAP1 PUSH1 0x1 PUSH1 0xA8 SHL SWAP1 DIV PUSH1 0xFF AND DUP2 JUMP JUMPDEST CALLVALUE DUP1 ISZERO PUSH2 0x9DE JUMPI PUSH1 0x0 DUP1 REVERT JUMPDEST POP PUSH2 0x538 PUSH2 0x9ED CALLDATASIZE PUSH1 0x4 PUSH2 0x43E7 JUMP JUMPDEST PUSH2 0x1E58 JUMP JUMPDEST CALLVALUE DUP1 ISZERO PUSH2 0x9FE JUMPI PUSH1 0x0 DUP1 REVERT JUMPDEST POP PUSH2 0x455 PUSH2 0x1E73 JUMP JUMPDEST CALLVALUE DUP1 ISZERO PUSH2 0xA13 JUMPI PUSH1 0x0 DUP1 REVERT JUMPDEST POP PUSH2 0x455 PUSH2 0xA22 CALLDATASIZE PUSH1 0x4 PUSH2 0x43E7 JUMP JUMPDEST PUSH2 0x1E85 JUMP JUMPDEST CALLVALUE DUP1 ISZERO PUSH2 0xA33 JUMPI PUSH1 0x0 DUP1 REVERT JUMPDEST POP PUSH2 0x538 PUSH1 0x0 DUP1 MLOAD PUSH1 0x20 PUSH2 0x4A95 DUP4 CODECOPY DUP2 MLOAD SWAP2 MSTORE DUP2 JUMP JUMPDEST CALLVALUE DUP1 ISZERO PUSH2 0xA55 JUMPI PUSH1 0x0 DUP1 REVERT JUMPDEST POP PUSH2 0x538 PUSH2 0xA64 CALLDATASIZE PUSH1 0x4 PUSH2 0x44A8 JUMP JUMPDEST PUSH2 0x1EC7 JUMP JUMPDEST CALLVALUE DUP1 ISZERO PUSH2 0xA75 JUMPI PUSH1 0x0 DUP1 REVERT JUMPDEST POP PUSH2 0x4A2 PUSH2 0xA84 CALLDATASIZE PUSH1 0x4 PUSH2 0x43E7 JUMP JUMPDEST PUSH1 0x24 PUSH1 0x20 MSTORE PUSH1 0x0 SWAP1 DUP2 MSTORE PUSH1 0x40 SWAP1 KECCAK256 SLOAD PUSH1 0xFF AND DUP2 JUMP JUMPDEST CALLVALUE DUP1 ISZERO PUSH2 0xAA5 JUMPI PUSH1 0x0 DUP1 REVERT JUMPDEST POP PUSH1 0x0 SLOAD PUSH1 0x1 PUSH1 0x1 PUSH1 0xA0 SHL SUB AND PUSH2 0x765 JUMP JUMPDEST CALLVALUE DUP1 ISZERO PUSH2 0xAC3 JUMPI PUSH1 0x0 DUP1 REVERT JUMPDEST POP PUSH2 0x4A2 PUSH2 0xAD2 CALLDATASIZE PUSH1 0x4 PUSH2 0x4659 JUMP JUMPDEST PUSH2 0x1EE8 JUMP JUMPDEST CALLVALUE DUP1 ISZERO PUSH2 0xAE3 JUMPI PUSH1 0x0 DUP1 REVERT JUMPDEST POP PUSH2 0x57C PUSH2 0x1F13 JUMP JUMPDEST CALLVALUE DUP1 ISZERO PUSH2 0xAF8 JUMPI PUSH1 0x0 DUP1 REVERT JUMPDEST POP PUSH2 0x455 PUSH2 0xB07 CALLDATASIZE PUSH1 0x4 PUSH2 0x43E7 JUMP JUMPDEST PUSH2 0x1F22 JUMP JUMPDEST CALLVALUE DUP1 ISZERO PUSH2 0xB18 JUMPI PUSH1 0x0 DUP1 REVERT JUMPDEST POP PUSH2 0x455 PUSH2 0xB27 CALLDATASIZE PUSH1 0x4 PUSH2 0x44A8 JUMP JUMPDEST PUSH2 0x20B3 JUMP JUMPDEST CALLVALUE DUP1 ISZERO PUSH2 0xB38 JUMPI PUSH1 0x0 DUP1 REVERT JUMPDEST POP PUSH2 0x538 PUSH1 0x0 DUP2 JUMP JUMPDEST CALLVALUE DUP1 ISZERO PUSH2 0xB4D JUMPI PUSH1 0x0 DUP1 REVERT JUMPDEST POP PUSH1 0x19 SLOAD PUSH2 0x765 SWAP1 PUSH1 0x1 PUSH1 0x1 PUSH1 0xA0 SHL SUB AND DUP2 JUMP JUMPDEST CALLVALUE DUP1 ISZERO PUSH2 0xB6D JUMPI PUSH1 0x0 DUP1 REVERT JUMPDEST POP PUSH2 0x4A2 PUSH2 0xB7C CALLDATASIZE PUSH1 0x4 PUSH2 0x447C JUMP JUMPDEST PUSH2 0x20D1 JUMP JUMPDEST CALLVALUE DUP1 ISZERO PUSH2 0xB8D JUMPI PUSH1 0x0 DUP1 REVERT JUMPDEST POP PUSH2 0x538 PUSH1 0x26 SLOAD DUP2 JUMP JUMPDEST CALLVALUE DUP1 ISZERO PUSH2 0xBA3 JUMPI PUSH1 0x0 DUP1 REVERT JUMPDEST POP PUSH2 0x538 PUSH2 0xBB2 CALLDATASIZE PUSH1 0x4 PUSH2 0x43E7 JUMP JUMPDEST PUSH1 0x1E PUSH1 0x20 MSTORE PUSH1 0x0 SWAP1 DUP2 MSTORE PUSH1 0x40 SWAP1 KECCAK256 SLOAD DUP2 JUMP JUMPDEST CALLVALUE DUP1 ISZERO PUSH2 0xBD0 JUMPI PUSH1 0x0 DUP1 REVERT JUMPDEST POP PUSH2 0xBD9 PUSH2 0x2103 JUMP JUMPDEST PUSH1 0x40 MLOAD PUSH2 0x4AE SWAP2 SWAP1 PUSH2 0x46E0 JUMP JUMPDEST CALLVALUE DUP1 ISZERO PUSH2 0xBF2 JUMPI PUSH1 0x0 DUP1 REVERT JUMPDEST POP PUSH1 0x40 SLOAD PUSH2 0x4A2 SWAP1 PUSH1 0xFF AND DUP2 JUMP JUMPDEST CALLVALUE DUP1 ISZERO PUSH2 0xC0C JUMPI PUSH1 0x0 DUP1 REVERT JUMPDEST POP PUSH2 0x538 PUSH1 0x43 SLOAD DUP2 JUMP JUMPDEST CALLVALUE DUP1 ISZERO PUSH2 0xC22 JUMPI PUSH1 0x0 DUP1 REVERT JUMPDEST POP PUSH2 0xC52 PUSH2 0xC31 CALLDATASIZE PUSH1 0x4 PUSH2 0x44A8 JUMP JUMPDEST PUSH1 0x27 PUSH1 0x20 MSTORE PUSH1 0x0 SWAP1 DUP2 MSTORE PUSH1 0x40 SWAP1 KECCAK256 DUP1 SLOAD PUSH1 0x1 DUP3 ADD SLOAD PUSH1 0x2 SWAP1 SWAP3 ADD SLOAD SWAP1 SWAP2 SWAP1 DUP4 JUMP JUMPDEST PUSH1 0x40 DUP1 MLOAD SWAP4 DUP5 MSTORE PUSH1 0x20 DUP5 ADD SWAP3 SWAP1 SWAP3 MSTORE SWAP1 DUP3 ADD MSTORE PUSH1 0x60 ADD PUSH2 0x4AE JUMP JUMPDEST CALLVALUE DUP1 ISZERO PUSH2 0xC79 JUMPI PUSH1 0x0 DUP1 REVERT JUMPDEST POP PUSH2 0x455 PUSH2 0x2142 JUMP JUMPDEST CALLVALUE DUP1 ISZERO PUSH2 0xC8E JUMPI PUSH1 0x0 DUP1 REVERT JUMPDEST POP PUSH2 0x455 PUSH2 0x2152 JUMP JUMPDEST CALLVALUE DUP1 ISZERO PUSH2 0xCA3 JUMPI PUSH1 0x0 DUP1 REVERT JUMPDEST POP PUSH2 0x455 PUSH2 0xCB2 CALLDATASIZE PUSH1 0x4 PUSH2 0x4659 JUMP JUMPDEST PUSH2 0x2516 JUMP JUMPDEST CALLVALUE DUP1 ISZERO PUSH2 0xCC3 JUMPI PUSH1 0x0 DUP1 REVERT JUMPDEST POP PUSH2 0x538 PUSH2 0xCD2 CALLDATASIZE PUSH1 0x4 PUSH2 0x471A JUMP JUMPDEST PUSH1 0x1 PUSH1 0x1 PUSH1 0xA0 SHL SUB SWAP2 DUP3 AND PUSH1 0x0 SWAP1 DUP2 MSTORE PUSH1 0x8 PUSH1 0x20 SWAP1 DUP2 MSTORE PUSH1 0x40 DUP1 DUP4 KECCAK256 SWAP4 SWAP1 SWAP5 AND DUP3 MSTORE SWAP2 SWAP1 SWAP2 MSTORE KECCAK256 SLOAD SWAP1 JUMP JUMPDEST CALLVALUE DUP1 ISZERO PUSH2 0xD09 JUMPI PUSH1 0x0 DUP1 REVERT JUMPDEST POP PUSH2 0x455 PUSH2 0xD18 CALLDATASIZE PUSH1 0x4 PUSH2 0x4748 JUMP JUMPDEST PUSH2 0x253C JUMP JUMPDEST CALLVALUE DUP1 ISZERO PUSH2 0xD29 JUMPI PUSH1 0x0 DUP1 REVERT JUMPDEST POP PUSH2 0x455 PUSH2 0xD38 CALLDATASIZE PUSH1 0x4 PUSH2 0x44A8 JUMP JUMPDEST PUSH2 0x25B7 JUMP JUMPDEST CALLVALUE DUP1 ISZERO PUSH2 0xD49 JUMPI PUSH1 0x0 DUP1 REVERT JUMPDEST POP PUSH2 0x455 PUSH2 0xD58 CALLDATASIZE PUSH1 0x4 PUSH2 0x43E7 JUMP JUMPDEST PUSH2 0x263B JUMP JUMPDEST CALLVALUE DUP1 ISZERO PUSH2 0xD69 JUMPI PUSH1 0x0 DUP1 REVERT JUMPDEST POP PUSH2 0x455 PUSH2 0xD78 CALLDATASIZE PUSH1 0x4 PUSH2 0x4764 JUMP JUMPDEST PUSH2 0x2676 JUMP JUMPDEST CALLVALUE DUP1 ISZERO PUSH2 0xD89 JUMPI PUSH1 0x0 DUP1 REVERT JUMPDEST POP PUSH1 0x18 SLOAD PUSH2 0x765 SWAP1 PUSH1 0x1 PUSH1 0x1 PUSH1 0xA0 SHL SUB AND DUP2 JUMP JUMPDEST CALLVALUE DUP1 ISZERO PUSH2 0xDA9 JUMPI PUSH1 0x0 DUP1 REVERT JUMPDEST POP PUSH1 0x21 SLOAD PUSH2 0x765 SWAP1 PUSH1 0x1 PUSH1 0x1 PUSH1 0xA0 SHL SUB AND DUP2 JUMP JUMPDEST CALLVALUE DUP1 ISZERO PUSH2 0xDC9 JUMPI PUSH1 0x0 DUP1 REVERT JUMPDEST POP PUSH2 0x538 PUSH1 0x14 SLOAD DUP2 JUMP JUMPDEST CALLVALUE DUP1 ISZERO PUSH2 0xDDF JUMPI PUSH1 0x0 DUP1 REVERT JUMPDEST POP PUSH2 0x455 PUSH2 0xDEE CALLDATASIZE PUSH1 0x4 PUSH2 0x44A8 JUMP JUMPDEST PUSH2 0x28D7 JUMP JUMPDEST CALLVALUE DUP1 ISZERO PUSH2 0xDFF JUMPI PUSH1 0x0 DUP1 REVERT JUMPDEST POP PUSH2 0x4A2 PUSH2 0xE0E CALLDATASIZE PUSH1 0x4 PUSH2 0x43E7 JUMP JUMPDEST PUSH1 0x26 SLOAD PUSH1 0x0 SWAP1 DUP2 MSTORE PUSH1 0x27 PUSH1 0x20 SWAP1 DUP2 MSTORE PUSH1 0x40 DUP1 DUP4 KECCAK256 PUSH1 0x1 PUSH1 0x1 PUSH1 0xA0 SHL SUB SWAP1 SWAP5 AND DUP4 MSTORE PUSH1 0x3 SWAP1 SWAP4 ADD SWAP1 MSTORE KECCAK256 SLOAD PUSH1 0xFF AND SWAP1 JUMP JUMPDEST PUSH1 0x1 PUSH1 0x1 PUSH1 0xA0 SHL SUB DUP2 AND CALLER EQ PUSH2 0xE8C JUMPI PUSH1 0x40 MLOAD PUSH3 0x461BCD PUSH1 0xE5 SHL DUP2 MSTORE PUSH1 0x20 PUSH1 0x4 DUP3 ADD MSTORE PUSH1 0xE PUSH1 0x24 DUP3 ADD MSTORE PUSH14 0x139BDD08185D5D1A1BDC9A5E9959 PUSH1 0x92 SHL PUSH1 0x44 DUP3 ADD MSTORE PUSH1 0x64 ADD JUMPDEST PUSH1 0x40 MLOAD DUP1 SWAP2 SUB SWAP1 REVERT JUMPDEST PUSH1 0x26 SLOAD PUSH1 0x0 SWAP1 DUP2 MSTORE PUSH1 0x27 PUSH1 0x20 SWAP1 DUP2 MSTORE PUSH1 0x40 DUP1 DUP4 KECCAK256 CALLER DUP5 MSTORE PUSH1 0x7 ADD SWAP1 SWAP2 MSTORE DUP2 KECCAK256 SLOAD SWAP1 SUB PUSH2 0xF11 JUMPI PUSH1 0x40 MLOAD PUSH3 0x461BCD PUSH1 0xE5 SHL DUP2 MSTORE PUSH1 0x20 PUSH1 0x4 DUP3 ADD MSTORE PUSH1 0x2E PUSH1 0x24 DUP3 ADD MSTORE PUSH32 0x596F7520686176656E277420626F7567687420612063617073756C6520647572 PUSH1 0x44 DUP3 ADD MSTORE PUSH14 0xD2DCCE40E8D0D2E640CAE0DEC6D PUSH1 0x93 SHL PUSH1 0x64 DUP3 ADD MSTORE PUSH1 0x84 ADD PUSH2 0xE83 JUMP JUMPDEST PUSH1 0x26 SLOAD PUSH1 0x0 SWAP1 DUP2 MSTORE PUSH1 0x27 PUSH1 0x20 SWAP1 DUP2 MSTORE PUSH1 0x40 DUP1 DUP4 KECCAK256 CALLER DUP5 MSTORE PUSH1 0x5 ADD SWAP1 SWAP2 MSTORE SWAP1 KECCAK256 SLOAD PUSH1 0xFF AND ISZERO PUSH2 0xF8C JUMPI PUSH1 0x40 MLOAD PUSH3 0x461BCD PUSH1 0xE5 SHL DUP2 MSTORE PUSH1 0x20 PUSH1 0x4 DUP3 ADD MSTORE PUSH1 0x22 PUSH1 0x24 DUP3 ADD MSTORE PUSH32 0x596F7527766520616C7265616479206F70656E656420796F7572206361707375 PUSH1 0x44 DUP3 ADD MSTORE PUSH2 0x6C65 PUSH1 0xF0 SHL PUSH1 0x64 DUP3 ADD MSTORE PUSH1 0x84 ADD PUSH2 0xE83 JUMP JUMPDEST PUSH1 0x26 SLOAD PUSH1 0x0 SWAP1 DUP2 MSTORE PUSH1 0x27 PUSH1 0x20 SWAP1 DUP2 MSTORE PUSH1 0x40 DUP1 DUP4 KECCAK256 CALLER DUP5 MSTORE PUSH1 0x8 ADD SWAP1 SWAP2 MSTORE SWAP1 KECCAK256 SLOAD PUSH1 0xFF AND ISZERO ISZERO PUSH1 0x1 EQ PUSH2 0x1010 JUMPI PUSH1 0x40 MLOAD PUSH3 0x461BCD PUSH1 0xE5 SHL DUP2 MSTORE PUSH1 0x20 PUSH1 0x4 DUP3 ADD MSTORE PUSH1 0x27 PUSH1 0x24 DUP3 ADD MSTORE PUSH32 0x596F75722072657175657374206861736E2774206265656E2066756C6C66696C PUSH1 0x44 DUP3 ADD MSTORE PUSH7 0x1B1959081E595D PUSH1 0xCA SHL PUSH1 0x64 DUP3 ADD MSTORE PUSH1 0x84 ADD PUSH2 0xE83 JUMP JUMPDEST PUSH1 0x26 SLOAD PUSH1 0x0 SWAP1 DUP2 MSTORE PUSH1 0x27 PUSH1 0x20 SWAP1 DUP2 MSTORE PUSH1 0x40 DUP1 DUP4 KECCAK256 CALLER DUP5 MSTORE PUSH1 0x7 ADD SWAP1 SWAP2 MSTORE DUP2 KECCAK256 SLOAD PUSH2 0x1039 SWAP1 PUSH2 0x28F5 JUMP JUMPDEST SWAP1 POP PUSH1 0x1 DUP2 LT ISZERO DUP1 ISZERO PUSH2 0x104D JUMPI POP PUSH1 0x28 DUP2 GT ISZERO JUMPDEST ISZERO PUSH2 0x108D JUMPI PUSH1 0x2F DUP1 SLOAD SWAP1 PUSH1 0x0 PUSH2 0x1062 DUP4 PUSH2 0x4814 JUMP JUMPDEST SWAP1 SWAP2 SSTORE POP POP PUSH1 0x2B DUP1 SLOAD SWAP1 PUSH1 0x0 PUSH2 0x1077 DUP4 PUSH2 0x4814 JUMP JUMPDEST SWAP2 SWAP1 POP SSTORE POP PUSH2 0x1089 DUP3 PUSH1 0x1 PUSH1 0x0 PUSH2 0x2A3A JUMP JUMPDEST POP POP JUMP JUMPDEST PUSH1 0x29 DUP2 LT ISZERO DUP1 ISZERO PUSH2 0x109F JUMPI POP PUSH1 0x4B DUP2 GT ISZERO JUMPDEST ISZERO PUSH2 0x10DB JUMPI PUSH1 0x30 DUP1 SLOAD SWAP1 PUSH1 0x0 PUSH2 0x10B4 DUP4 PUSH2 0x4814 JUMP JUMPDEST SWAP1 SWAP2 SSTORE POP POP PUSH1 0x2C DUP1 SLOAD SWAP1 PUSH1 0x0 PUSH2 0x10C9 DUP4 PUSH2 0x4814 JUMP JUMPDEST SWAP2 SWAP1 POP SSTORE POP PUSH2 0x1089 DUP3 PUSH1 0x2 PUSH1 0x0 PUSH2 0x2A3A JUMP JUMPDEST PUSH1 0x4C DUP2 LT ISZERO DUP1 ISZERO PUSH2 0x10ED JUMPI POP PUSH1 0x61 DUP2 GT ISZERO JUMPDEST ISZERO PUSH2 0x1129 JUMPI PUSH1 0x31 DUP1 SLOAD SWAP1 PUSH1 0x0 PUSH2 0x1102 DUP4 PUSH2 0x4814 JUMP JUMPDEST SWAP1 SWAP2 SSTORE POP POP PUSH1 0x2D DUP1 SLOAD SWAP1 PUSH1 0x0 PUSH2 0x1117 DUP4 PUSH2 0x4814 JUMP JUMPDEST SWAP2 SWAP1 POP SSTORE POP PUSH2 0x1089 DUP3 PUSH1 0x3 PUSH1 0x0 PUSH2 0x2A3A JUMP JUMPDEST PUSH1 0x62 DUP2 LT ISZERO DUP1 ISZERO PUSH2 0x113C JUMPI POP PUSH1 0x22 SLOAD DUP2 GT ISZERO JUMPDEST ISZERO PUSH2 0x1089 JUMPI PUSH1 0x32 DUP1 SLOAD SWAP1 PUSH1 0x0 PUSH2 0x1151 DUP4 PUSH2 0x4814 JUMP JUMPDEST SWAP1 SWAP2 SSTORE POP POP PUSH1 0x2E DUP1 SLOAD SWAP1 PUSH1 0x0 PUSH2 0x1166 DUP4 PUSH2 0x4814 JUMP JUMPDEST SWAP1 SWAP2 SSTORE POP POP PUSH1 0x26 SLOAD PUSH1 0x0 SWAP1 DUP2 MSTORE PUSH1 0x27 PUSH1 0x20 SWAP1 DUP2 MSTORE PUSH1 0x40 DUP3 KECCAK256 PUSH1 0x9 ADD DUP1 SLOAD PUSH1 0x1 DUP1 DUP3 ADD DUP4 SSTORE SWAP2 DUP5 MSTORE SWAP2 SWAP1 SWAP3 KECCAK256 ADD DUP1 SLOAD PUSH1 0x1 PUSH1 0x1 PUSH1 0xA0 SHL SUB NOT AND PUSH1 0x1 PUSH1 0x1 PUSH1 0xA0 SHL SUB DUP6 AND OR SWAP1 SSTORE PUSH2 0x1089 SWAP1 DUP4 SWAP1 DUP1 PUSH2 0x2A3A JUMP JUMPDEST PUSH1 0x0 PUSH1 0x1 PUSH1 0x1 PUSH1 0xE0 SHL SUB NOT DUP3 AND PUSH4 0x7965DB0B PUSH1 0xE0 SHL EQ DUP1 PUSH2 0x11E8 JUMPI POP PUSH4 0x1FFC9A7 PUSH1 0xE0 SHL PUSH1 0x1 PUSH1 0x1 PUSH1 0xE0 SHL SUB NOT DUP4 AND EQ JUMPDEST SWAP3 SWAP2 POP POP JUMP JUMPDEST PUSH1 0x60 PUSH1 0x2 DUP1 SLOAD PUSH2 0x11FD SWAP1 PUSH2 0x482D JUMP JUMPDEST DUP1 PUSH1 0x1F ADD PUSH1 0x20 DUP1 SWAP2 DIV MUL PUSH1 0x20 ADD PUSH1 0x40 MLOAD SWAP1 DUP2 ADD PUSH1 0x40 MSTORE DUP1 SWAP3 SWAP2 SWAP1 DUP2 DUP2 MSTORE PUSH1 0x20 ADD DUP3 DUP1 SLOAD PUSH2 0x1229 SWAP1 PUSH2 0x482D JUMP JUMPDEST DUP1 ISZERO PUSH2 0x1276 JUMPI DUP1 PUSH1 0x1F LT PUSH2 0x124B JUMPI PUSH2 0x100 DUP1 DUP4 SLOAD DIV MUL DUP4 MSTORE SWAP2 PUSH1 0x20 ADD SWAP2 PUSH2 0x1276 JUMP JUMPDEST DUP3 ADD SWAP2 SWAP1 PUSH1 0x0 MSTORE PUSH1 0x20 PUSH1 0x0 KECCAK256 SWAP1 JUMPDEST DUP2 SLOAD DUP2 MSTORE SWAP1 PUSH1 0x1 ADD SWAP1 PUSH1 0x20 ADD DUP1 DUP4 GT PUSH2 0x1259 JUMPI DUP3 SWAP1 SUB PUSH1 0x1F AND DUP3 ADD SWAP2 JUMPDEST POP POP POP POP POP SWAP1 POP SWAP1 JUMP JUMPDEST CALLER PUSH1 0x0 DUP2 DUP2 MSTORE PUSH1 0x8 PUSH1 0x20 SWAP1 DUP2 MSTORE PUSH1 0x40 DUP1 DUP4 KECCAK256 PUSH1 0x1 PUSH1 0x1 PUSH1 0xA0 SHL SUB DUP8 AND DUP1 DUP6 MSTORE SWAP3 MSTORE DUP1 DUP4 KECCAK256 DUP6 SWAP1 SSTORE MLOAD SWAP2 SWAP3 SWAP1 SWAP2 PUSH32 0x8C5BE1E5EBEC7D5BD14F71427D1E84F3DD0314C0F7B2291E5B200AC8C7C3B925 SWAP1 PUSH2 0x12DB SWAP1 DUP7 DUP2 MSTORE PUSH1 0x20 ADD SWAP1 JUMP JUMPDEST PUSH1 0x40 MLOAD DUP1 SWAP2 SUB SWAP1 LOG3 POP PUSH1 0x1 SWAP3 SWAP2 POP POP JUMP JUMPDEST PUSH1 0x0 DUP1 MLOAD PUSH1 0x20 PUSH2 0x4A95 DUP4 CODECOPY DUP2 MLOAD SWAP2 MSTORE PUSH2 0x1304 DUP2 PUSH2 0x2B36 JUMP JUMPDEST POP PUSH1 0x2A SSTORE JUMP JUMPDEST PUSH1 0x0 PUSH2 0x3E8 PUSH1 0x2A SLOAD PUSH2 0x2EE PUSH2 0x131F SWAP2 SWAP1 PUSH2 0x4861 JUMP JUMPDEST PUSH2 0x1329 SWAP2 SWAP1 PUSH2 0x488E JUMP JUMPDEST PUSH1 0x26 SLOAD PUSH1 0x0 SWAP1 DUP2 MSTORE PUSH1 0x27 PUSH1 0x20 SWAP1 DUP2 MSTORE PUSH1 0x40 DUP1 DUP4 KECCAK256 CALLER DUP5 MSTORE PUSH1 0x3 ADD SWAP1 SWAP2 MSTORE SWAP1 KECCAK256 SLOAD SWAP1 SWAP2 POP PUSH1 0xFF AND ISZERO PUSH2 0x13B8 JUMPI PUSH1 0x40 MLOAD PUSH3 0x461BCD PUSH1 0xE5 SHL DUP2 MSTORE PUSH1 0x20 PUSH1 0x4 DUP3 ADD MSTORE PUSH1 0x33 PUSH1 0x24 DUP3 ADD MSTORE PUSH32 0x596F752068617665206F6E6C79206F6E6520616374696F6E207065722065706F PUSH1 0x44 DUP3 ADD MSTORE PUSH19 0x6368203A20627579206F722075706772616465 PUSH1 0x68 SHL PUSH1 0x64 DUP3 ADD MSTORE PUSH1 0x84 ADD PUSH2 0xE83 JUMP JUMPDEST PUSH1 0x26 SLOAD PUSH1 0x0 SWAP1 DUP2 MSTORE PUSH1 0x27 PUSH1 0x20 SWAP1 DUP2 MSTORE PUSH1 0x40 DUP1 DUP4 KECCAK256 CALLER DUP5 MSTORE PUSH1 0x4 ADD SWAP1 SWAP2 MSTORE SWAP1 KECCAK256 SLOAD PUSH1 0xFF AND ISZERO PUSH2 0x1447 JUMPI PUSH1 0x40 MLOAD PUSH3 0x461BCD PUSH1 0xE5 SHL DUP2 MSTORE PUSH1 0x20 PUSH1 0x4 DUP3 ADD MSTORE PUSH1 0x36 PUSH1 0x24 DUP3 ADD MSTORE PUSH32 0x596F7527766520616C726561647920757067726164656420796F757220766163 PUSH1 0x44 DUP3 ADD MSTORE PUSH22 0xC6D2DCCA40C8EAE4D2DCCE40E8D0D2E640CAE0DEC6D PUSH1 0x53 SHL PUSH1 0x64 DUP3 ADD MSTORE PUSH1 0x84 ADD PUSH2 0xE83 JUMP JUMPDEST CALLER PUSH1 0x0 SWAP1 DUP2 MSTORE PUSH1 0x23 PUSH1 0x20 MSTORE PUSH1 0x40 SWAP1 KECCAK256 SLOAD ISZERO DUP1 ISZERO SWAP1 PUSH2 0x1474 JUMPI POP CALLER PUSH1 0x0 SWAP1 DUP2 MSTORE PUSH1 0x23 PUSH1 0x20 MSTORE PUSH1 0x40 SWAP1 KECCAK256 SLOAD PUSH1 0x3 GT JUMPDEST PUSH2 0x14CC JUMPI PUSH1 0x40 MLOAD PUSH3 0x461BCD PUSH1 0xE5 SHL DUP2 MSTORE PUSH1 0x20 PUSH1 0x4 DUP3 ADD MSTORE PUSH1 0x23 PUSH1 0x24 DUP3 ADD MSTORE PUSH32 0x596F7520646F6E2774206861766520612076616363696E6520746F2075706772 PUSH1 0x44 DUP3 ADD MSTORE PUSH3 0x616465 PUSH1 0xE8 SHL PUSH1 0x64 DUP3 ADD MSTORE PUSH1 0x84 ADD PUSH2 0xE83 JUMP JUMPDEST DUP1 PUSH2 0x14D6 CALLER PUSH2 0x1E58 JUMP JUMPDEST LT ISZERO PUSH2 0x1536 JUMPI PUSH1 0x40 MLOAD PUSH3 0x461BCD PUSH1 0xE5 SHL DUP2 MSTORE PUSH1 0x20 PUSH1 0x4 DUP3 ADD MSTORE PUSH1 0x29 PUSH1 0x24 DUP3 ADD MSTORE PUSH32 0x4E6F7420656E6F75676820746F6B656E7320746F207570677261646520796F75 PUSH1 0x44 DUP3 ADD MSTORE PUSH9 0x722076616363696E65 PUSH1 0xB8 SHL PUSH1 0x64 DUP3 ADD MSTORE PUSH1 0x84 ADD PUSH2 0xE83 JUMP JUMPDEST PUSH1 0x26 SLOAD PUSH1 0x0 SWAP1 DUP2 MSTORE PUSH1 0x27 PUSH1 0x20 MSTORE PUSH1 0x40 SWAP1 KECCAK256 PUSH1 0x2 ADD SLOAD TIMESTAMP LT PUSH2 0x1569 JUMPI PUSH1 0x40 MLOAD PUSH3 0x461BCD PUSH1 0xE5 SHL DUP2 MSTORE PUSH1 0x4 ADD PUSH2 0xE83 SWAP1 PUSH2 0x48A2 JUMP JUMPDEST PUSH1 0x40 SLOAD PUSH2 0x100 SWAP1 DIV PUSH1 0xFF AND ISZERO PUSH2 0x1591 JUMPI PUSH1 0x40 MLOAD PUSH3 0x461BCD PUSH1 0xE5 SHL DUP2 MSTORE PUSH1 0x4 ADD PUSH2 0xE83 SWAP1 PUSH2 0x48E6 JUMP JUMPDEST PUSH1 0x26 SLOAD PUSH1 0x0 SWAP1 DUP2 MSTORE PUSH1 0x27 PUSH1 0x20 SWAP1 DUP2 MSTORE PUSH1 0x40 DUP1 DUP4 KECCAK256 CALLER DUP5 MSTORE PUSH1 0x4 ADD SWAP1 SWAP2 MSTORE DUP2 KECCAK256 DUP1 SLOAD PUSH1 0xFF NOT AND PUSH1 0x1 OR SWAP1 SSTORE PUSH2 0x3E8 PUSH2 0x15C9 DUP4 PUSH1 0x32 PUSH2 0x4861 JUMP JUMPDEST PUSH2 0x15D3 SWAP2 SWAP1 PUSH2 0x488E JUMP JUMPDEST PUSH1 0x21 SLOAD SWAP1 SWAP2 POP PUSH1 0x0 SWAP1 PUSH2 0x15FA SWAP1 CALLER SWAP1 PUSH1 0x1 PUSH1 0x1 PUSH1 0xA0 SHL SUB AND PUSH2 0x15F5 DUP6 DUP8 PUSH2 0x490C JUMP JUMPDEST PUSH2 0x2B40 JUMP JUMPDEST SWAP1 POP PUSH2 0x1607 CALLER ADDRESS DUP5 PUSH2 0x2B40 JUMP JUMPDEST POP CALLER PUSH1 0x0 SWAP1 DUP2 MSTORE PUSH1 0x23 PUSH1 0x20 MSTORE PUSH1 0x40 DUP2 KECCAK256 DUP1 SLOAD SWAP2 PUSH2 0x1623 DUP4 PUSH2 0x4814 JUMP JUMPDEST SWAP2 SWAP1 POP SSTORE POP POP POP POP JUMP JUMPDEST PUSH2 0x1635 PUSH2 0x2BE8 JUMP JUMPDEST PUSH1 0x19 DUP1 SLOAD PUSH2 0xFFFF PUSH1 0xA0 SHL NOT AND PUSH2 0x101 PUSH1 0xA0 SHL OR SWAP1 DUP2 SWAP1 SSTORE PUSH1 0xFF PUSH1 0x1 PUSH1 0xA0 SHL SWAP1 SWAP2 DIV AND ISZERO PUSH2 0x1661 JUMPI TIMESTAMP PUSH1 0x49 SSTORE JUMPDEST JUMP JUMPDEST CALLER PUSH1 0x1 PUSH1 0x1 PUSH1 0xA0 SHL SUB PUSH32 0x0 AND EQ PUSH2 0x16DD JUMPI PUSH1 0x40 MLOAD PUSH4 0x73E64FD PUSH1 0xE2 SHL DUP2 MSTORE CALLER PUSH1 0x4 DUP3 ADD MSTORE PUSH1 0x1 PUSH1 0x1 PUSH1 0xA0 SHL SUB PUSH32 0x0 AND PUSH1 0x24 DUP3 ADD MSTORE PUSH1 0x44 ADD PUSH2 0xE83 JUMP JUMPDEST PUSH2 0x1089 DUP3 DUP3 PUSH2 0x2C15 JUMP JUMPDEST PUSH2 0x16EF PUSH2 0x2BE8 JUMP JUMPDEST PUSH1 0x1 PUSH1 0x1 PUSH1 0xA0 SHL SUB SWAP2 SWAP1 SWAP2 AND PUSH1 0x0 SWAP1 DUP2 MSTORE PUSH1 0xA PUSH1 0x20 MSTORE PUSH1 0x40 SWAP1 KECCAK256 DUP1 SLOAD PUSH1 0xFF NOT AND SWAP2 ISZERO ISZERO SWAP2 SWAP1 SWAP2 OR SWAP1 SSTORE JUMP JUMPDEST PUSH1 0x1 PUSH1 0x1 PUSH1 0xA0 SHL SUB DUP4 AND PUSH1 0x0 SWAP1 DUP2 MSTORE PUSH1 0x8 PUSH1 0x20 SWAP1 DUP2 MSTORE PUSH1 0x40 DUP1 DUP4 KECCAK256 CALLER DUP5 MSTORE SWAP1 SWAP2 MSTORE DUP2 KECCAK256 SLOAD DUP3 GT ISZERO PUSH2 0x179E JUMPI PUSH1 0x40 MLOAD PUSH3 0x461BCD PUSH1 0xE5 SHL DUP2 MSTORE PUSH1 0x20 PUSH1 0x4 DUP3 ADD MSTORE PUSH1 0x28 PUSH1 0x24 DUP3 ADD MSTORE PUSH32 0x45524332303A207472616E7366657220616D6F756E7420657863656564732061 PUSH1 0x44 DUP3 ADD MSTORE PUSH8 0x6C6C6F77616E6365 PUSH1 0xC0 SHL PUSH1 0x64 DUP3 ADD MSTORE PUSH1 0x84 ADD PUSH2 0xE83 JUMP JUMPDEST PUSH2 0x17A9 DUP5 DUP5 DUP5 PUSH2 0x2D1B JUMP JUMPDEST POP PUSH1 0x1 PUSH1 0x1 PUSH1 0xA0 SHL SUB DUP5 AND PUSH1 0x0 SWAP1 DUP2 MSTORE PUSH1 0x8 PUSH1 0x20 SWAP1 DUP2 MSTORE PUSH1 0x40 DUP1 DUP4 KECCAK256 CALLER DUP1 DUP6 MSTORE SWAP3 MSTORE SWAP1 SWAP2 KECCAK256 SLOAD PUSH2 0x17E5 SWAP2 DUP7 SWAP2 PUSH2 0x17E0 SWAP1 DUP7 SWAP1 PUSH2 0x490C JUMP JUMPDEST PUSH2 0x311A JUMP JUMPDEST POP PUSH1 0x1 SWAP4 SWAP3 POP POP POP JUMP JUMPDEST PUSH1 0x0 DUP3 DUP2 MSTORE PUSH1 0x1 PUSH1 0x20 DUP2 SWAP1 MSTORE PUSH1 0x40 SWAP1 SWAP2 KECCAK256 ADD SLOAD PUSH2 0x180B DUP2 PUSH2 0x2B36 JUMP JUMPDEST PUSH2 0x1815 DUP4 DUP4 PUSH2 0x323E JUMP JUMPDEST POP POP POP POP JUMP JUMPDEST PUSH1 0x1 PUSH1 0x1 PUSH1 0xA0 SHL SUB DUP2 AND CALLER EQ PUSH2 0x1844 JUMPI PUSH1 0x40 MLOAD PUSH4 0x334BD919 PUSH1 0xE1 SHL DUP2 MSTORE PUSH1 0x4 ADD PUSH1 0x40 MLOAD DUP1 SWAP2 SUB SWAP1 REVERT JUMPDEST PUSH2 0x184E DUP3 DUP3 PUSH2 0x32B7 JUMP JUMPDEST POP POP POP JUMP JUMPDEST PUSH1 0x0 DUP1 MLOAD PUSH1 0x20 PUSH2 0x4A95 DUP4 CODECOPY DUP2 MLOAD SWAP2 MSTORE PUSH2 0x186B DUP2 PUSH2 0x2B36 JUMP JUMPDEST PUSH1 0x40 SLOAD PUSH2 0x100 SWAP1 DIV PUSH1 0xFF AND ISZERO PUSH2 0x1893 JUMPI PUSH1 0x40 MLOAD PUSH3 0x461BCD PUSH1 0xE5 SHL DUP2 MSTORE PUSH1 0x4 ADD PUSH2 0xE83 SWAP1 PUSH2 0x48E6 JUMP JUMPDEST PUSH2 0x189B PUSH2 0x3324 JUMP JUMPDEST PUSH32 0xA7EF457C4BDAA5CF9805314EBB0D85316230DE6508DF8BA03DB8E27901CC147D PUSH1 0x26 SLOAD PUSH1 0x40 MLOAD PUSH2 0x18CE SWAP2 DUP2 MSTORE PUSH1 0x20 ADD SWAP1 JUMP JUMPDEST PUSH1 0x40 MLOAD DUP1 SWAP2 SUB SWAP1 LOG1 POP JUMP JUMPDEST PUSH2 0x18E1 PUSH2 0x2BE8 JUMP JUMPDEST PUSH1 0x10 DUP1 SLOAD PUSH1 0x1 PUSH1 0x1 PUSH1 0xA0 SHL SUB NOT AND PUSH1 0x1 PUSH1 0x1 PUSH1 0xA0 SHL SUB SWAP3 DUP4 AND SWAP1 DUP2 OR DUP3 SSTORE PUSH1 0x0 SWAP1 DUP2 MSTORE PUSH1 0x9 PUSH1 0x20 SWAP1 DUP2 MSTORE PUSH1 0x40 DUP1 DUP4 KECCAK256 DUP1 SLOAD PUSH1 0xFF NOT SWAP1 DUP2 AND PUSH1 0x1 SWAP1 DUP2 OR SWAP1 SWAP3 SSTORE SWAP5 SLOAD SWAP1 SWAP6 AND DUP4 MSTORE PUSH1 0xA SWAP1 SWAP2 MSTORE SWAP1 KECCAK256 DUP1 SLOAD SWAP1 SWAP2 AND SWAP1 SWAP2 OR SWAP1 SSTORE JUMP JUMPDEST CALLER ORIGIN EQ PUSH2 0x1971 JUMPI PUSH1 0x40 MLOAD PUSH3 0x461BCD PUSH1 0xE5 SHL DUP2 MSTORE PUSH1 0x20 PUSH1 0x4 DUP3 ADD MSTORE PUSH1 0x5 PUSH1 0x24 DUP3 ADD MSTORE PUSH5 0x32B93937B9 PUSH1 0xD9 SHL PUSH1 0x44 DUP3 ADD MSTORE PUSH1 0x64 ADD PUSH2 0xE83 JUMP JUMPDEST CALLER PUSH1 0x0 SWAP1 DUP2 MSTORE PUSH1 0x1F PUSH1 0x20 MSTORE PUSH1 0x40 SWAP1 KECCAK256 SLOAD PUSH2 0x19C2 JUMPI PUSH1 0x40 MLOAD PUSH3 0x461BCD PUSH1 0xE5 SHL DUP2 MSTORE PUSH1 0x20 PUSH1 0x4 DUP3 ADD MSTORE PUSH1 0x12 PUSH1 0x24 DUP3 ADD MSTORE PUSH18 0x6E6F2070656E64696E672072657761726473 PUSH1 0x70 SHL PUSH1 0x44 DUP3 ADD MSTORE PUSH1 0x64 ADD PUSH2 0xE83 JUMP JUMPDEST CALLER PUSH1 0x0 SWAP1 DUP2 MSTORE PUSH1 0x1F PUSH1 0x20 SWAP1 DUP2 MSTORE PUSH1 0x40 DUP3 KECCAK256 DUP1 SLOAD SWAP1 DUP4 SWAP1 SSTORE PUSH1 0x1 DUP4 MSTORE PUSH1 0x27 SWAP1 SWAP2 MSTORE PUSH32 0xB6915E519D5F9DD23C62986E48578DDFA8CDE5C92608222904FD87AD04DF4FFF SLOAD SWAP1 SWAP2 SWAP1 TIMESTAMP LT ISZERO PUSH2 0x1A34 JUMPI PUSH1 0x64 PUSH2 0x1A1B DUP4 PUSH1 0x19 PUSH2 0x4861 JUMP JUMPDEST PUSH2 0x1A25 SWAP2 SWAP1 PUSH2 0x488E JUMP JUMPDEST SWAP1 POP PUSH2 0x1A31 DUP2 DUP4 PUSH2 0x490C JUMP JUMPDEST SWAP2 POP JUMPDEST DUP1 ISZERO PUSH2 0x1A54 JUMPI PUSH1 0x21 SLOAD PUSH2 0x1A52 SWAP1 ADDRESS SWAP1 PUSH1 0x1 PUSH1 0x1 PUSH1 0xA0 SHL SUB AND DUP4 PUSH2 0x2B40 JUMP JUMPDEST POP JUMPDEST PUSH1 0x0 PUSH2 0x1A61 ADDRESS CALLER DUP6 PUSH2 0x2B40 JUMP JUMPDEST SWAP1 POP DUP1 PUSH2 0x1AA2 JUMPI PUSH1 0x40 MLOAD PUSH3 0x461BCD PUSH1 0xE5 SHL DUP2 MSTORE PUSH1 0x20 PUSH1 0x4 DUP3 ADD MSTORE PUSH1 0xF PUSH1 0x24 DUP3 ADD MSTORE PUSH15 0x1D1C985B9CD9995C8819985A5B1959 PUSH1 0x8A SHL PUSH1 0x44 DUP3 ADD MSTORE PUSH1 0x64 ADD PUSH2 0xE83 JUMP JUMPDEST CALLER PUSH1 0x0 SWAP1 DUP2 MSTORE PUSH1 0x1E PUSH1 0x20 MSTORE PUSH1 0x40 DUP2 KECCAK256 DUP1 SLOAD DUP6 SWAP3 SWAP1 PUSH2 0x1AC1 SWAP1 DUP5 SWAP1 PUSH2 0x491F JUMP JUMPDEST SWAP3 POP POP DUP2 SWAP1 SSTORE POP DUP3 PUSH1 0x42 PUSH1 0x0 DUP3 DUP3 SLOAD PUSH2 0x1ADA SWAP2 SWAP1 PUSH2 0x491F JUMP JUMPDEST SWAP3 POP POP DUP2 SWAP1 SSTORE POP DUP3 PUSH1 0x41 PUSH1 0x0 DUP3 DUP3 SLOAD PUSH2 0x1AF3 SWAP2 SWAP1 PUSH2 0x490C JUMP JUMPDEST SWAP1 SWAP2 SSTORE POP PUSH2 0x1B01 SWAP1 POP PUSH2 0x34FC JUMP JUMPDEST PUSH1 0x40 MLOAD DUP4 DUP2 MSTORE CALLER SWAP1 PUSH32 0x620FC7379F7C67F4289F23E24A7F28F721792B0E898E2AF03581B2E73E604A53 SWAP1 PUSH1 0x20 ADD JUMPDEST PUSH1 0x40 MLOAD DUP1 SWAP2 SUB SWAP1 LOG2 POP POP POP JUMP JUMPDEST PUSH2 0x1B44 PUSH2 0x2BE8 JUMP JUMPDEST PUSH1 0x4A SLOAD PUSH1 0xFF AND ISZERO PUSH2 0x1B8D JUMPI PUSH1 0x40 MLOAD PUSH3 0x461BCD PUSH1 0xE5 SHL DUP2 MSTORE PUSH1 0x20 PUSH1 0x4 DUP3 ADD MSTORE PUSH1 0x13 PUSH1 0x24 DUP3 ADD MSTORE PUSH19 0x105B1C9958591E481A5B9A5D1A585B1A5E9959 PUSH1 0x6A SHL PUSH1 0x44 DUP3 ADD MSTORE PUSH1 0x64 ADD PUSH2 0xE83 JUMP JUMPDEST PUSH1 0x40 MLOAD PUSH4 0x64E329CB PUSH1 0xE1 SHL DUP2 MSTORE PUSH20 0x82AF49447D8A07E3BD95BD0D56F35241523FBAB1 PUSH1 0x4 DUP3 ADD MSTORE ADDRESS PUSH1 0x24 DUP3 ADD MSTORE PUSH20 0x6ECCAB422D763AC031210895C81787E87B43A652 SWAP1 PUSH4 0xC9C65396 SWAP1 PUSH1 0x44 ADD PUSH1 0x20 PUSH1 0x40 MLOAD DUP1 DUP4 SUB DUP2 PUSH1 0x0 DUP8 GAS CALL ISZERO DUP1 ISZERO PUSH2 0x1BF8 JUMPI RETURNDATASIZE PUSH1 0x0 DUP1 RETURNDATACOPY RETURNDATASIZE PUSH1 0x0 REVERT JUMPDEST POP POP POP POP PUSH1 0x40 MLOAD RETURNDATASIZE PUSH1 0x1F NOT PUSH1 0x1F DUP3 ADD AND DUP3 ADD DUP1 PUSH1 0x40 MSTORE POP DUP2 ADD SWAP1 PUSH2 0x1C1C SWAP2 SWAP1 PUSH2 0x4932 JUMP JUMPDEST PUSH1 0x19 DUP1 SLOAD PUSH1 0x1 PUSH1 0x1 PUSH1 0xA0 SHL SUB NOT AND PUSH1 0x1 PUSH1 0x1 PUSH1 0xA0 SHL SUB SWAP3 SWAP1 SWAP3 AND SWAP2 SWAP1 SWAP2 OR SWAP1 SSTORE PUSH1 0x4A DUP1 SLOAD PUSH1 0xFF NOT AND PUSH1 0x1 OR SWAP1 SSTORE JUMP JUMPDEST PUSH1 0x0 PUSH2 0x11E8 DUP3 PUSH1 0x0 NOT PUSH2 0x1280 JUMP JUMPDEST PUSH2 0x1C61 PUSH2 0x2BE8 JUMP JUMPDEST PUSH1 0x1 PUSH1 0x1 PUSH1 0xA0 SHL SUB SWAP2 SWAP1 SWAP2 AND PUSH1 0x0 SWAP1 DUP2 MSTORE PUSH1 0x9 PUSH1 0x20 MSTORE PUSH1 0x40 SWAP1 KECCAK256 DUP1 SLOAD PUSH1 0xFF NOT AND SWAP2 ISZERO ISZERO SWAP2 SWAP1 SWAP2 OR SWAP1 SSTORE JUMP JUMPDEST PUSH1 0x26 SLOAD PUSH1 0x0 SWAP1 DUP2 MSTORE PUSH1 0x27 PUSH1 0x20 SWAP1 DUP2 MSTORE PUSH1 0x40 SWAP2 DUP3 SWAP1 KECCAK256 PUSH1 0x9 ADD DUP1 SLOAD DUP4 MLOAD DUP2 DUP5 MUL DUP2 ADD DUP5 ADD SWAP1 SWAP5 MSTORE DUP1 DUP5 MSTORE PUSH1 0x60 SWAP4 SWAP3 DUP4 ADD DUP3 DUP3 DUP1 ISZERO PUSH2 0x1276 JUMPI PUSH1 0x20 MUL DUP3 ADD SWAP2 SWAP1 PUSH1 0x0 MSTORE PUSH1 0x20 PUSH1 0x0 KECCAK256 SWAP1 JUMPDEST DUP2 SLOAD PUSH1 0x1 PUSH1 0x1 PUSH1 0xA0 SHL SUB AND DUP2 MSTORE PUSH1 0x1 SWAP1 SWAP2 ADD SWAP1 PUSH1 0x20 ADD DUP1 DUP4 GT PUSH2 0x1CD4 JUMPI POP POP POP POP POP SWAP1 POP SWAP1 JUMP JUMPDEST PUSH1 0x0 DUP1 MLOAD PUSH1 0x20 PUSH2 0x4A95 DUP4 CODECOPY DUP2 MLOAD SWAP2 MSTORE PUSH2 0x1D13 DUP2 PUSH2 0x2B36 JUMP JUMPDEST PUSH1 0x49 SLOAD PUSH2 0x1D23 SWAP1 PUSH3 0x93A80 PUSH2 0x491F JUMP JUMPDEST TIMESTAMP LT ISZERO PUSH2 0x1D67 JUMPI PUSH1 0x40 MLOAD PUSH3 0x461BCD PUSH1 0xE5 SHL DUP2 MSTORE PUSH1 0x20 PUSH1 0x4 DUP3 ADD MSTORE PUSH1 0x12 PUSH1 0x24 DUP3 ADD MSTORE PUSH18 0x43616E277420656E64207468652067616D65 PUSH1 0x70 SHL PUSH1 0x44 DUP3 ADD MSTORE PUSH1 0x64 ADD PUSH2 0xE83 JUMP JUMPDEST PUSH1 0x40 SLOAD PUSH2 0x100 SWAP1 DIV PUSH1 0xFF AND ISZERO PUSH2 0x1DB6 JUMPI PUSH1 0x40 MLOAD PUSH3 0x461BCD PUSH1 0xE5 SHL DUP2 MSTORE PUSH1 0x20 PUSH1 0x4 DUP3 ADD MSTORE PUSH1 0x14 PUSH1 0x24 DUP3 ADD MSTORE PUSH20 0x23B0B6B29034B99030B63932B0B23C9037BB32B9 PUSH1 0x61 SHL PUSH1 0x44 DUP3 ADD MSTORE PUSH1 0x64 ADD PUSH2 0xE83 JUMP JUMPDEST PUSH1 0x40 DUP1 SLOAD PUSH2 0xFF00 NOT AND PUSH2 0x100 OR DUP2 SSTORE PUSH1 0x26 SLOAD PUSH1 0x0 SWAP1 DUP2 MSTORE PUSH1 0x27 PUSH1 0x20 MSTORE KECCAK256 PUSH1 0x9 ADD SLOAD ISZERO PUSH2 0x1E55 JUMPI PUSH1 0x21 SLOAD PUSH1 0x26 SLOAD PUSH1 0x0 SWAP1 DUP2 MSTORE PUSH1 0x27 PUSH1 0x20 MSTORE PUSH1 0x40 SWAP1 DUP2 SWAP1 KECCAK256 SWAP1 MLOAD PUSH4 0xF25ADDF5 PUSH1 0xE0 SHL DUP2 MSTORE PUSH1 0x1 PUSH1 0x1 PUSH1 0xA0 SHL SUB SWAP1 SWAP3 AND SWAP2 PUSH4 0xF25ADDF5 SWAP2 PUSH2 0x1E22 SWAP2 PUSH1 0x9 SWAP1 SWAP2 ADD SWAP1 PUSH1 0x4 ADD PUSH2 0x494F JUMP JUMPDEST PUSH1 0x0 PUSH1 0x40 MLOAD DUP1 DUP4 SUB DUP2 PUSH1 0x0 DUP8 DUP1 EXTCODESIZE ISZERO DUP1 ISZERO PUSH2 0x1E3C JUMPI PUSH1 0x0 DUP1 REVERT JUMPDEST POP GAS CALL ISZERO DUP1 ISZERO PUSH2 0x1E50 JUMPI RETURNDATASIZE PUSH1 0x0 DUP1 RETURNDATACOPY RETURNDATASIZE PUSH1 0x0 REVERT JUMPDEST POP POP POP POP JUMPDEST POP JUMP JUMPDEST PUSH1 0x1 PUSH1 0x1 PUSH1 0xA0 SHL SUB AND PUSH1 0x0 SWAP1 DUP2 MSTORE PUSH1 0x7 PUSH1 0x20 MSTORE PUSH1 0x40 SWAP1 KECCAK256 SLOAD SWAP1 JUMP JUMPDEST PUSH2 0x1E7B PUSH2 0x2BE8 JUMP JUMPDEST PUSH2 0x1661 PUSH1 0x0 PUSH2 0x36F7 JUMP JUMPDEST PUSH2 0x1E8D PUSH2 0x2BE8 JUMP JUMPDEST PUSH1 0x19 DUP1 SLOAD PUSH1 0x1 PUSH1 0x1 PUSH1 0xA0 SHL SUB SWAP1 SWAP3 AND PUSH1 0x1 PUSH1 0x1 PUSH1 0xA0 SHL SUB NOT SWAP1 SWAP3 AND DUP3 OR SWAP1 SSTORE PUSH1 0x0 SWAP1 DUP2 MSTORE PUSH1 0xA PUSH1 0x20 MSTORE PUSH1 0x40 SWAP1 KECCAK256 DUP1 SLOAD PUSH1 0xFF NOT AND PUSH1 0x1 OR SWAP1 SSTORE JUMP JUMPDEST PUSH1 0x13 DUP2 DUP2 SLOAD DUP2 LT PUSH2 0x1ED7 JUMPI PUSH1 0x0 DUP1 REVERT JUMPDEST PUSH1 0x0 SWAP2 DUP3 MSTORE PUSH1 0x20 SWAP1 SWAP2 KECCAK256 ADD SLOAD SWAP1 POP DUP2 JUMP JUMPDEST PUSH1 0x0 SWAP2 DUP3 MSTORE PUSH1 0x1 PUSH1 0x20 SWAP1 DUP2 MSTORE PUSH1 0x40 DUP1 DUP5 KECCAK256 PUSH1 0x1 PUSH1 0x1 PUSH1 0xA0 SHL SUB SWAP4 SWAP1 SWAP4 AND DUP5 MSTORE SWAP2 SWAP1 MSTORE SWAP1 KECCAK256 SLOAD PUSH1 0xFF AND SWAP1 JUMP JUMPDEST PUSH1 0x60 PUSH1 0x3 DUP1 SLOAD PUSH2 0x11FD SWAP1 PUSH2 0x482D JUMP JUMPDEST PUSH1 0x1 PUSH1 0x1 PUSH1 0xA0 SHL SUB DUP2 AND PUSH1 0x0 SWAP1 DUP2 MSTORE PUSH1 0x1C PUSH1 0x20 MSTORE PUSH1 0x40 SWAP1 KECCAK256 SLOAD PUSH1 0xFF AND ISZERO PUSH2 0x1F7E JUMPI PUSH1 0x40 MLOAD PUSH3 0x461BCD PUSH1 0xE5 SHL DUP2 MSTORE PUSH1 0x20 PUSH1 0x4 DUP3 ADD MSTORE PUSH1 0x10 PUSH1 0x24 DUP3 ADD MSTORE PUSH16 0x105B1C9958591E481A5B999958DD1959 PUSH1 0x82 SHL PUSH1 0x44 DUP3 ADD MSTORE PUSH1 0x64 ADD PUSH2 0xE83 JUMP JUMPDEST PUSH1 0x1 PUSH2 0x1F89 CALLER PUSH2 0x1E58 JUMP JUMPDEST LT ISZERO PUSH2 0x1FD7 JUMPI PUSH1 0x40 MLOAD PUSH3 0x461BCD PUSH1 0xE5 SHL DUP2 MSTORE PUSH1 0x20 PUSH1 0x4 DUP3 ADD MSTORE PUSH1 0x1B PUSH1 0x24 DUP3 ADD MSTORE PUSH32 0x4E6F7420656E6F75676820746F6B656E7320746F20696E666563740000000000 PUSH1 0x44 DUP3 ADD MSTORE PUSH1 0x64 ADD PUSH2 0xE83 JUMP JUMPDEST CALLER PUSH1 0x0 SWAP1 DUP2 MSTORE PUSH1 0x1C PUSH1 0x20 MSTORE PUSH1 0x40 SWAP1 KECCAK256 SLOAD PUSH1 0xFF AND ISZERO ISZERO PUSH1 0x1 EQ PUSH2 0x2031 JUMPI PUSH1 0x40 MLOAD PUSH3 0x461BCD PUSH1 0xE5 SHL DUP2 MSTORE PUSH1 0x20 PUSH1 0x4 DUP3 ADD MSTORE PUSH1 0x13 PUSH1 0x24 DUP3 ADD MSTORE PUSH19 0x165BDD49DC99481B9BDD081A5B999958DD1959 PUSH1 0x6A SHL PUSH1 0x44 DUP3 ADD MSTORE PUSH1 0x64 ADD PUSH2 0xE83 JUMP JUMPDEST PUSH1 0x1 PUSH1 0x1 PUSH1 0xA0 SHL SUB DUP2 AND PUSH1 0x0 SWAP1 DUP2 MSTORE PUSH1 0x1D PUSH1 0x20 SWAP1 DUP2 MSTORE PUSH1 0x40 DUP1 DUP4 KECCAK256 DUP1 SLOAD PUSH1 0x1 PUSH1 0x1 PUSH1 0xA0 SHL SUB NOT AND CALLER SWAP1 DUP2 OR SWAP1 SWAP2 SSTORE PUSH1 0x1C DUP4 MSTORE DUP2 DUP5 KECCAK256 DUP1 SLOAD PUSH1 0xFF NOT AND PUSH1 0x1 OR SWAP1 SSTORE DUP4 MSTORE SWAP1 DUP1 MSTORE DUP2 KECCAK256 DUP1 SLOAD SWAP2 PUSH2 0x2084 DUP4 PUSH2 0x4814 JUMP JUMPDEST SWAP1 SWAP2 SSTORE POP POP PUSH1 0x43 DUP1 SLOAD SWAP1 PUSH1 0x0 PUSH2 0x2099 DUP4 PUSH2 0x4814 JUMP JUMPDEST SWAP2 SWAP1 POP SSTORE POP PUSH1 0x0 PUSH2 0x184E CALLER DUP4 PUSH8 0xDE0B6B3A7640000 PUSH2 0x2B40 JUMP JUMPDEST PUSH1 0x0 DUP1 MLOAD PUSH1 0x20 PUSH2 0x4A95 DUP4 CODECOPY DUP2 MLOAD SWAP2 MSTORE PUSH2 0x20CB DUP2 PUSH2 0x2B36 JUMP JUMPDEST POP PUSH1 0x15 SSTORE JUMP JUMPDEST PUSH1 0x19 SLOAD PUSH1 0x0 SWAP1 PUSH1 0x1 PUSH1 0x1 PUSH1 0xA0 SHL SUB AND CALLER SUB PUSH2 0x20F8 JUMPI PUSH2 0x20F1 CALLER DUP5 DUP5 PUSH2 0x2D1B JUMP JUMPDEST SWAP1 POP PUSH2 0x11E8 JUMP JUMPDEST PUSH2 0x20F1 CALLER DUP5 DUP5 PUSH2 0x2B40 JUMP JUMPDEST PUSH2 0x210B PUSH2 0x430C JUMP JUMPDEST PUSH1 0x40 DUP1 MLOAD PUSH1 0xA0 DUP2 ADD SWAP2 DUP3 SWAP1 MSTORE PUSH1 0x44 DUP1 SLOAD PUSH1 0x1 PUSH1 0x1 PUSH1 0xA0 SHL SUB AND DUP3 MSTORE SWAP1 SWAP2 PUSH1 0x5 SWAP1 PUSH1 0x45 PUSH1 0x20 DUP6 ADD DUP1 DUP4 GT PUSH2 0x1CD4 JUMPI POP POP POP POP POP SWAP1 POP SWAP1 JUMP JUMPDEST PUSH2 0x214A PUSH2 0x2BE8 JUMP JUMPDEST PUSH1 0x4 SLOAD PUSH1 0x6 SSTORE JUMP JUMPDEST PUSH1 0x2A SLOAD CALLER PUSH1 0x0 SWAP1 DUP2 MSTORE PUSH1 0x1C PUSH1 0x20 MSTORE PUSH1 0x40 SWAP1 KECCAK256 SLOAD PUSH1 0xFF AND PUSH2 0x21AB JUMPI PUSH1 0x40 MLOAD PUSH3 0x461BCD PUSH1 0xE5 SHL DUP2 MSTORE PUSH1 0x20 PUSH1 0x4 DUP3 ADD MSTORE PUSH1 0x14 PUSH1 0x24 DUP3 ADD MSTORE PUSH20 0x165BDD48185C99481B9BDD081A5B999958DD1959 PUSH1 0x62 SHL PUSH1 0x44 DUP3 ADD MSTORE PUSH1 0x64 ADD PUSH2 0xE83 JUMP JUMPDEST PUSH1 0x40 SLOAD PUSH1 0xFF AND PUSH2 0x21FD JUMPI PUSH1 0x40 MLOAD PUSH3 0x461BCD PUSH1 0xE5 SHL DUP2 MSTORE PUSH1 0x20 PUSH1 0x4 DUP3 ADD MSTORE PUSH1 0x17 PUSH1 0x24 DUP3 ADD MSTORE PUSH32 0x47616D65206973206E6F74207374617274656420796574000000000000000000 PUSH1 0x44 DUP3 ADD MSTORE PUSH1 0x64 ADD PUSH2 0xE83 JUMP JUMPDEST PUSH1 0x40 SLOAD PUSH2 0x100 SWAP1 DIV PUSH1 0xFF AND ISZERO PUSH2 0x2225 JUMPI PUSH1 0x40 MLOAD PUSH3 0x461BCD PUSH1 0xE5 SHL DUP2 MSTORE PUSH1 0x4 ADD PUSH2 0xE83 SWAP1 PUSH2 0x48E6 JUMP JUMPDEST DUP1 PUSH2 0x222F CALLER PUSH2 0x1E58 JUMP JUMPDEST LT ISZERO PUSH2 0x2288 JUMPI PUSH1 0x40 MLOAD PUSH3 0x461BCD PUSH1 0xE5 SHL DUP2 MSTORE PUSH1 0x20 PUSH1 0x4 DUP3 ADD MSTORE PUSH1 0x22 PUSH1 0x24 DUP3 ADD MSTORE PUSH32 0x4E6F7420656E6F75676820746F6B656E7320746F206275792061206361707375 PUSH1 0x44 DUP3 ADD MSTORE PUSH2 0x6C65 PUSH1 0xF0 SHL PUSH1 0x64 DUP3 ADD MSTORE PUSH1 0x84 ADD PUSH2 0xE83 JUMP JUMPDEST PUSH1 0x26 SLOAD PUSH1 0x0 SWAP1 DUP2 MSTORE PUSH1 0x27 PUSH1 0x20 MSTORE PUSH1 0x40 SWAP1 KECCAK256 PUSH1 0x2 ADD SLOAD TIMESTAMP LT PUSH2 0x22BB JUMPI PUSH1 0x40 MLOAD PUSH3 0x461BCD PUSH1 0xE5 SHL DUP2 MSTORE PUSH1 0x4 ADD PUSH2 0xE83 SWAP1 PUSH2 0x48A2 JUMP JUMPDEST PUSH1 0x26 SLOAD PUSH1 0x0 SWAP1 DUP2 MSTORE PUSH1 0x27 PUSH1 0x20 SWAP1 DUP2 MSTORE PUSH1 0x40 DUP1 DUP4 KECCAK256 CALLER DUP5 MSTORE PUSH1 0x3 ADD SWAP1 SWAP2 MSTORE SWAP1 KECCAK256 SLOAD PUSH1 0xFF AND ISZERO PUSH2 0x2345 JUMPI PUSH1 0x40 MLOAD PUSH3 0x461BCD PUSH1 0xE5 SHL DUP2 MSTORE PUSH1 0x20 PUSH1 0x4 DUP3 ADD MSTORE PUSH1 0x31 PUSH1 0x24 DUP3 ADD MSTORE PUSH32 0x596F7527766520616C726561647920626F7567687420612063617073756C6520 PUSH1 0x44 DUP3 ADD MSTORE PUSH17 0xC8EAE4D2DCCE40E8D0D2E640CAE0DEC6D PUSH1 0x7B SHL PUSH1 0x64 DUP3 ADD MSTORE PUSH1 0x84 ADD PUSH2 0xE83 JUMP JUMPDEST PUSH1 0x26 SLOAD PUSH1 0x0 SWAP1 DUP2 MSTORE PUSH1 0x27 PUSH1 0x20 SWAP1 DUP2 MSTORE PUSH1 0x40 DUP1 DUP4 KECCAK256 CALLER DUP5 MSTORE PUSH1 0x4 ADD SWAP1 SWAP2 MSTORE SWAP1 KECCAK256 SLOAD PUSH1 0xFF AND ISZERO PUSH2 0x23D1 JUMPI PUSH1 0x40 MLOAD PUSH3 0x461BCD PUSH1 0xE5 SHL DUP2 MSTORE PUSH1 0x20 PUSH1 0x4 DUP3 ADD MSTORE PUSH1 0x33 PUSH1 0x24 DUP3 ADD MSTORE PUSH32 0x596F75206F6E6C792068617665206F6E6520616374696F6E207065722065706F PUSH1 0x44 DUP3 ADD MSTORE PUSH19 0x6368203A20627579206F722075706772616465 PUSH1 0x68 SHL PUSH1 0x64 DUP3 ADD MSTORE PUSH1 0x84 ADD PUSH2 0xE83 JUMP JUMPDEST PUSH1 0x29 DUP1 SLOAD SWAP1 PUSH1 0x0 PUSH2 0x23E1 DUP4 PUSH2 0x4814 JUMP JUMPDEST SWAP1 SWAP2 SSTORE POP POP PUSH1 0x28 DUP1 SLOAD SWAP1 PUSH1 0x0 PUSH2 0x23F6 DUP4 PUSH2 0x4814 JUMP JUMPDEST SWAP1 SWAP2 SSTORE POP POP PUSH1 0x26 SLOAD PUSH1 0x0 SWAP1 DUP2 MSTORE PUSH1 0x27 PUSH1 0x20 SWAP1 DUP2 MSTORE PUSH1 0x40 DUP1 DUP4 KECCAK256 CALLER DUP5 MSTORE PUSH1 0x3 ADD SWAP1 SWAP2 MSTORE DUP2 KECCAK256 DUP1 SLOAD PUSH1 0xFF NOT AND PUSH1 0x1 OR SWAP1 SSTORE PUSH2 0x3E8 PUSH2 0x2433 DUP4 PUSH1 0xC8 PUSH2 0x4861 JUMP JUMPDEST PUSH2 0x243D SWAP2 SWAP1 PUSH2 0x488E JUMP JUMPDEST SWAP1 POP DUP1 PUSH1 0x4 PUSH1 0x0 DUP3 DUP3 SLOAD PUSH2 0x2451 SWAP2 SWAP1 PUSH2 0x490C JUMP JUMPDEST SWAP1 SWAP2 SSTORE POP PUSH2 0x2464 SWAP1 POP CALLER PUSH2 0xDEAD DUP4 PUSH2 0x2B40 JUMP JUMPDEST POP PUSH1 0x21 SLOAD PUSH1 0x0 SWAP1 PUSH2 0x2484 SWAP1 CALLER SWAP1 PUSH1 0x1 PUSH1 0x1 PUSH1 0xA0 SHL SUB AND PUSH2 0x15F5 DUP6 DUP8 PUSH2 0x490C JUMP JUMPDEST SWAP1 POP PUSH1 0x0 PUSH2 0x2490 PUSH2 0x3747 JUMP JUMPDEST PUSH1 0x26 DUP1 SLOAD PUSH1 0x0 SWAP1 DUP2 MSTORE PUSH1 0x27 PUSH1 0x20 DUP2 DUP2 MSTORE PUSH1 0x40 DUP1 DUP5 KECCAK256 DUP7 DUP6 MSTORE PUSH1 0x6 ADD DUP3 MSTORE DUP1 DUP5 KECCAK256 DUP1 SLOAD PUSH1 0x1 PUSH1 0x1 PUSH1 0xA0 SHL SUB NOT AND CALLER SWAP1 DUP2 OR SWAP1 SWAP2 SSTORE SWAP5 SLOAD DUP5 MSTORE SWAP2 DUP2 MSTORE DUP2 DUP4 KECCAK256 DUP5 DUP5 MSTORE PUSH1 0x7 ADD DUP2 MSTORE SWAP2 DUP2 SWAP1 KECCAK256 DUP5 SWAP1 SSTORE MLOAD DUP4 DUP2 MSTORE SWAP3 SWAP4 POP SWAP1 SWAP2 PUSH32 0x56E18F08766F396148D5B13331A86D9CE4EA3D9C08821CF829CCF881A6FFF8BF SWAP2 ADD PUSH1 0x40 MLOAD DUP1 SWAP2 SUB SWAP1 LOG2 POP POP POP POP JUMP JUMPDEST PUSH1 0x0 DUP3 DUP2 MSTORE PUSH1 0x1 PUSH1 0x20 DUP2 SWAP1 MSTORE PUSH1 0x40 SWAP1 SWAP2 KECCAK256 ADD SLOAD PUSH2 0x2532 DUP2 PUSH2 0x2B36 JUMP JUMPDEST PUSH2 0x1815 DUP4 DUP4 PUSH2 0x32B7 JUMP JUMPDEST PUSH2 0x2544 PUSH2 0x2BE8 JUMP JUMPDEST PUSH1 0x1 DUP2 LT ISZERO PUSH2 0x2595 JUMPI PUSH1 0x40 MLOAD PUSH3 0x461BCD PUSH1 0xE5 SHL DUP2 MSTORE PUSH1 0x20 PUSH1 0x4 DUP3 ADD MSTORE PUSH1 0x1F PUSH1 0x24 DUP3 ADD MSTORE PUSH32 0x43616E27742073657420537761705468726573686F6C6420746F205A45524F00 PUSH1 0x44 DUP3 ADD MSTORE PUSH1 0x64 ADD PUSH2 0xE83 JUMP JUMPDEST PUSH1 0x19 DUP1 SLOAD SWAP3 ISZERO ISZERO PUSH1 0x1 PUSH1 0xA8 SHL MUL PUSH1 0xFF PUSH1 0xA8 SHL NOT SWAP1 SWAP4 AND SWAP3 SWAP1 SWAP3 OR SWAP1 SWAP2 SSTORE PUSH1 0x1A SSTORE JUMP JUMPDEST PUSH1 0x0 DUP1 MLOAD PUSH1 0x20 PUSH2 0x4A95 DUP4 CODECOPY DUP2 MLOAD SWAP2 MSTORE PUSH2 0x25CF DUP2 PUSH2 0x2B36 JUMP JUMPDEST PUSH1 0x2E SLOAD DUP3 LT ISZERO PUSH2 0x2635 JUMPI PUSH1 0x40 MLOAD PUSH3 0x461BCD PUSH1 0xE5 SHL DUP2 MSTORE PUSH1 0x20 PUSH1 0x4 DUP3 ADD MSTORE PUSH1 0x2B PUSH1 0x24 DUP3 ADD MSTORE PUSH32 0x43616E2774207265647563652076616363696E6520737570706C792064757269 PUSH1 0x44 DUP3 ADD MSTORE PUSH11 0xDCCE40C2DC40CAE0DEC6D PUSH1 0xAB SHL PUSH1 0x64 DUP3 ADD MSTORE PUSH1 0x84 ADD PUSH2 0xE83 JUMP JUMPDEST POP PUSH1 0x33 SSTORE JUMP JUMPDEST PUSH2 0x2643 PUSH2 0x2BE8 JUMP JUMPDEST PUSH1 0x1 PUSH1 0x1 PUSH1 0xA0 SHL SUB DUP2 AND PUSH2 0x266D JUMPI PUSH1 0x40 MLOAD PUSH4 0x1E4FBDF7 PUSH1 0xE0 SHL DUP2 MSTORE PUSH1 0x0 PUSH1 0x4 DUP3 ADD MSTORE PUSH1 0x24 ADD PUSH2 0xE83 JUMP JUMPDEST PUSH2 0x1E55 DUP2 PUSH2 0x36F7 JUMP JUMPDEST PUSH2 0x267E PUSH2 0x2BE8 JUMP JUMPDEST PUSH1 0x0 JUMPDEST DUP2 MLOAD DUP2 LT ISZERO PUSH2 0x1089 JUMPI PUSH1 0x1C PUSH1 0x0 DUP4 DUP4 DUP2 MLOAD DUP2 LT PUSH2 0x26A0 JUMPI PUSH2 0x26A0 PUSH2 0x499F JUMP JUMPDEST PUSH1 0x20 SWAP1 DUP2 MUL SWAP2 SWAP1 SWAP2 ADD DUP2 ADD MLOAD PUSH1 0x1 PUSH1 0x1 PUSH1 0xA0 SHL SUB AND DUP3 MSTORE DUP2 ADD SWAP2 SWAP1 SWAP2 MSTORE PUSH1 0x40 ADD PUSH1 0x0 KECCAK256 SLOAD PUSH1 0xFF AND ISZERO PUSH2 0x2707 JUMPI PUSH1 0x40 MLOAD PUSH3 0x461BCD PUSH1 0xE5 SHL DUP2 MSTORE PUSH1 0x20 PUSH1 0x4 DUP3 ADD MSTORE PUSH1 0x10 PUSH1 0x24 DUP3 ADD MSTORE PUSH16 0x105B1C9958591E481A5B999958DD1959 PUSH1 0x82 SHL PUSH1 0x44 DUP3 ADD MSTORE PUSH1 0x64 ADD PUSH2 0xE83 JUMP JUMPDEST PUSH1 0x1 PUSH2 0x2712 CALLER PUSH2 0x1E58 JUMP JUMPDEST LT ISZERO PUSH2 0x2760 JUMPI PUSH1 0x40 MLOAD PUSH3 0x461BCD PUSH1 0xE5 SHL DUP2 MSTORE PUSH1 0x20 PUSH1 0x4 DUP3 ADD MSTORE PUSH1 0x1B PUSH1 0x24 DUP3 ADD MSTORE PUSH32 0x6E6F7420656E6F75676820746F6B656E7320746F20696E666563740000000000 PUSH1 0x44 DUP3 ADD MSTORE PUSH1 0x64 ADD PUSH2 0xE83 JUMP JUMPDEST CALLER PUSH1 0x0 SWAP1 DUP2 MSTORE PUSH1 0x1C PUSH1 0x20 MSTORE PUSH1 0x40 SWAP1 KECCAK256 SLOAD PUSH1 0xFF AND ISZERO ISZERO PUSH1 0x1 EQ PUSH2 0x27B3 JUMPI PUSH1 0x40 MLOAD PUSH3 0x461BCD PUSH1 0xE5 SHL DUP2 MSTORE PUSH1 0x20 PUSH1 0x4 DUP3 ADD MSTORE PUSH1 0xC PUSH1 0x24 DUP3 ADD MSTORE PUSH12 0x1B9BDD081A5B999958DD1959 PUSH1 0xA2 SHL PUSH1 0x44 DUP3 ADD MSTORE PUSH1 0x64 ADD PUSH2 0xE83 JUMP JUMPDEST CALLER PUSH1 0x1D PUSH1 0x0 DUP5 DUP5 DUP2 MLOAD DUP2 LT PUSH2 0x27CA JUMPI PUSH2 0x27CA PUSH2 0x499F JUMP JUMPDEST PUSH1 0x20 MUL PUSH1 0x20 ADD ADD MLOAD PUSH1 0x1 PUSH1 0x1 PUSH1 0xA0 SHL SUB AND PUSH1 0x1 PUSH1 0x1 PUSH1 0xA0 SHL SUB AND DUP2 MSTORE PUSH1 0x20 ADD SWAP1 DUP2 MSTORE PUSH1 0x20 ADD PUSH1 0x0 KECCAK256 PUSH1 0x0 PUSH2 0x100 EXP DUP2 SLOAD DUP2 PUSH1 0x1 PUSH1 0x1 PUSH1 0xA0 SHL SUB MUL NOT AND SWAP1 DUP4 PUSH1 0x1 PUSH1 0x1 PUSH1 0xA0 SHL SUB AND MUL OR SWAP1 SSTORE POP PUSH1 0x1 PUSH1 0x1C PUSH1 0x0 DUP5 DUP5 DUP2 MLOAD DUP2 LT PUSH2 0x282E JUMPI PUSH2 0x282E PUSH2 0x499F JUMP JUMPDEST PUSH1 0x20 SWAP1 DUP2 MUL SWAP2 SWAP1 SWAP2 ADD DUP2 ADD MLOAD PUSH1 0x1 PUSH1 0x1 PUSH1 0xA0 SHL SUB AND DUP3 MSTORE DUP2 DUP2 ADD SWAP3 SWAP1 SWAP3 MSTORE PUSH1 0x40 SWAP1 DUP2 ADD PUSH1 0x0 SWAP1 DUP2 KECCAK256 DUP1 SLOAD PUSH1 0xFF NOT AND SWAP5 ISZERO ISZERO SWAP5 SWAP1 SWAP5 OR SWAP1 SWAP4 SSTORE CALLER DUP4 MSTORE SWAP1 DUP1 MSTORE DUP2 KECCAK256 DUP1 SLOAD SWAP2 PUSH2 0x287A DUP4 PUSH2 0x4814 JUMP JUMPDEST SWAP1 SWAP2 SSTORE POP POP PUSH1 0x43 DUP1 SLOAD SWAP1 PUSH1 0x0 PUSH2 0x288F DUP4 PUSH2 0x4814 JUMP JUMPDEST SWAP2 SWAP1 POP SSTORE POP PUSH1 0x0 PUSH2 0x28C2 CALLER DUP5 DUP5 DUP2 MLOAD DUP2 LT PUSH2 0x28AC JUMPI PUSH2 0x28AC PUSH2 0x499F JUMP JUMPDEST PUSH1 0x20 MUL PUSH1 0x20 ADD ADD MLOAD PUSH8 0xDE0B6B3A7640000 PUSH2 0x2B40 JUMP JUMPDEST POP DUP2 SWAP1 POP PUSH2 0x28CF DUP2 PUSH2 0x4814 JUMP JUMPDEST SWAP2 POP POP PUSH2 0x2681 JUMP JUMPDEST PUSH1 0x0 DUP1 MLOAD PUSH1 0x20 PUSH2 0x4A95 DUP4 CODECOPY DUP2 MLOAD SWAP2 MSTORE PUSH2 0x28EF DUP2 PUSH2 0x2B36 JUMP JUMPDEST POP PUSH1 0x22 SSTORE JUMP JUMPDEST PUSH1 0x0 DUP2 DUP2 MSTORE PUSH1 0x17 PUSH1 0x20 MSTORE PUSH1 0x40 DUP2 KECCAK256 SLOAD PUSH2 0x100 SWAP1 DIV PUSH1 0xFF AND PUSH2 0x294C JUMPI PUSH1 0x40 MLOAD PUSH3 0x461BCD PUSH1 0xE5 SHL DUP2 MSTORE PUSH1 0x20 PUSH1 0x4 DUP3 ADD MSTORE PUSH1 0x11 PUSH1 0x24 DUP3 ADD MSTORE PUSH17 0x1C995C5D595CDD081B9BDD08199BDD5B99 PUSH1 0x7A SHL PUSH1 0x44 DUP3 ADD MSTORE PUSH1 0x64 ADD PUSH2 0xE83 JUMP JUMPDEST PUSH1 0x0 DUP3 DUP2 MSTORE PUSH1 0x17 PUSH1 0x20 SWAP1 DUP2 MSTORE PUSH1 0x40 DUP1 DUP4 KECCAK256 DUP2 MLOAD PUSH1 0x60 DUP2 ADD DUP4 MSTORE DUP2 SLOAD PUSH1 0xFF DUP1 DUP3 AND ISZERO ISZERO DUP4 MSTORE PUSH2 0x100 SWAP1 SWAP2 DIV AND ISZERO ISZERO DUP2 DUP6 ADD MSTORE PUSH1 0x1 DUP3 ADD DUP1 SLOAD DUP5 MLOAD DUP2 DUP8 MUL DUP2 ADD DUP8 ADD DUP7 MSTORE DUP2 DUP2 MSTORE SWAP3 SWAP6 SWAP4 SWAP5 DUP7 ADD SWAP4 DUP4 ADD DUP3 DUP3 DUP1 ISZERO PUSH2 0x29C7 JUMPI PUSH1 0x20 MUL DUP3 ADD SWAP2 SWAP1 PUSH1 0x0 MSTORE PUSH1 0x20 PUSH1 0x0 KECCAK256 SWAP1 JUMPDEST DUP2 SLOAD DUP2 MSTORE PUSH1 0x20 ADD SWAP1 PUSH1 0x1 ADD SWAP1 DUP1 DUP4 GT PUSH2 0x29B3 JUMPI JUMPDEST POP POP POP POP POP DUP2 MSTORE POP POP SWAP1 POP PUSH1 0x33 SLOAD PUSH1 0x2E SLOAD LT PUSH2 0x2A1A JUMPI PUSH1 0x61 DUP2 PUSH1 0x40 ADD MLOAD PUSH1 0x0 DUP2 MLOAD DUP2 LT PUSH2 0x29F6 JUMPI PUSH2 0x29F6 PUSH2 0x499F JUMP JUMPDEST PUSH1 0x20 MUL PUSH1 0x20 ADD ADD MLOAD PUSH2 0x2A08 SWAP2 SWAP1 PUSH2 0x49B5 JUMP JUMPDEST PUSH2 0x2A13 SWAP1 PUSH1 0x1 PUSH2 0x491F JUMP JUMPDEST SWAP4 SWAP3 POP POP POP JUMP JUMPDEST PUSH1 0x22 SLOAD DUP2 PUSH1 0x40 ADD MLOAD PUSH1 0x0 DUP2 MLOAD DUP2 LT PUSH2 0x29F6 JUMPI PUSH2 0x29F6 PUSH2 0x499F JUMP JUMPDEST POP SWAP2 SWAP1 POP JUMP JUMPDEST PUSH1 0x1 PUSH1 0x1 PUSH1 0xA0 SHL SUB DUP4 AND PUSH1 0x0 SWAP1 DUP2 MSTORE PUSH1 0x24 PUSH1 0x20 MSTORE PUSH1 0x40 SWAP1 KECCAK256 SLOAD PUSH1 0xFF AND PUSH2 0x2ABE JUMPI PUSH1 0x25 DUP1 SLOAD PUSH1 0x1 DUP1 DUP3 ADD SWAP1 SWAP3 SSTORE PUSH32 0x401968FF42A154441DA5F6C4C935AC46B8671F0E062BAAA62A7545BA53BB6E4C ADD DUP1 SLOAD PUSH1 0x1 PUSH1 0x1 PUSH1 0xA0 SHL SUB NOT AND PUSH1 0x1 PUSH1 0x1 PUSH1 0xA0 SHL SUB DUP7 AND SWAP1 DUP2 OR SWAP1 SWAP2 SSTORE PUSH1 0x0 SWAP1 DUP2 MSTORE PUSH1 0x24 PUSH1 0x20 MSTORE PUSH1 0x40 SWAP1 KECCAK256 DUP1 SLOAD PUSH1 0xFF NOT AND SWAP1 SWAP2 OR SWAP1 SSTORE JUMPDEST PUSH1 0x1 PUSH1 0x1 PUSH1 0xA0 SHL SUB DUP4 AND PUSH1 0x0 DUP2 DUP2 MSTORE PUSH1 0x23 PUSH1 0x20 SWAP1 DUP2 MSTORE PUSH1 0x40 DUP1 DUP4 KECCAK256 DUP7 SWAP1 SSTORE PUSH1 0x26 SLOAD DUP4 MSTORE PUSH1 0x27 DUP3 MSTORE DUP1 DUP4 KECCAK256 DUP5 DUP5 MSTORE PUSH1 0x5 ADD DUP3 MSTORE SWAP2 DUP3 SWAP1 KECCAK256 DUP1 SLOAD PUSH1 0xFF NOT AND PUSH1 0x1 OR SWAP1 SSTORE DUP2 MLOAD DUP6 DUP2 MSTORE DUP5 ISZERO ISZERO SWAP2 DUP2 ADD SWAP2 SWAP1 SWAP2 MSTORE PUSH32 0xC05909672B3730633581D6CF7B807382B3572D7805ACE294B8D4B3558C5CC7FF SWAP2 ADD PUSH2 0x1B2F JUMP JUMPDEST PUSH2 0x1E55 DUP2 CALLER PUSH2 0x3903 JUMP JUMPDEST PUSH1 0x1 PUSH1 0x1 PUSH1 0xA0 SHL SUB DUP4 AND PUSH1 0x0 SWAP1 DUP2 MSTORE PUSH1 0x7 PUSH1 0x20 MSTORE PUSH1 0x40 DUP2 KECCAK256 SLOAD PUSH2 0x2B64 SWAP1 DUP4 SWAP1 PUSH2 0x490C JUMP JUMPDEST PUSH1 0x1 PUSH1 0x1 PUSH1 0xA0 SHL SUB DUP1 DUP7 AND PUSH1 0x0 SWAP1 DUP2 MSTORE PUSH1 0x7 PUSH1 0x20 MSTORE PUSH1 0x40 DUP1 DUP3 KECCAK256 SWAP4 SWAP1 SWAP4 SSTORE SWAP1 DUP6 AND DUP2 MSTORE KECCAK256 SLOAD PUSH2 0x2B94 SWAP1 DUP4 SWAP1 PUSH2 0x491F JUMP JUMPDEST PUSH1 0x1 PUSH1 0x1 PUSH1 0xA0 SHL SUB DUP1 DUP6 AND PUSH1 0x0 DUP2 DUP2 MSTORE PUSH1 0x7 PUSH1 0x20 MSTORE PUSH1 0x40 SWAP1 DUP2 SWAP1 KECCAK256 SWAP4 SWAP1 SWAP4 SSTORE SWAP2 MLOAD SWAP1 DUP7 AND SWAP1 PUSH1 0x0 DUP1 MLOAD PUSH1 0x20 PUSH2 0x4A75 DUP4 CODECOPY DUP2 MLOAD SWAP2 MSTORE SWAP1 PUSH2 0x2BD6 SWAP1 DUP7 DUP2 MSTORE PUSH1 0x20 ADD SWAP1 JUMP JUMPDEST PUSH1 0x40 MLOAD DUP1 SWAP2 SUB SWAP1 LOG3 POP PUSH1 0x1 SWAP4 SWAP3 POP POP POP JUMP JUMPDEST PUSH1 0x0 SLOAD PUSH1 0x1 PUSH1 0x1 PUSH1 0xA0 SHL SUB AND CALLER EQ PUSH2 0x1661 JUMPI PUSH1 0x40 MLOAD PUSH4 0x118CDAA7 PUSH1 0xE0 SHL DUP2 MSTORE CALLER PUSH1 0x4 DUP3 ADD MSTORE PUSH1 0x24 ADD PUSH2 0xE83 JUMP JUMPDEST PUSH1 0x0 DUP3 DUP2 MSTORE PUSH1 0x17 PUSH1 0x20 MSTORE PUSH1 0x40 SWAP1 KECCAK256 SLOAD PUSH2 0x100 SWAP1 DIV PUSH1 0xFF AND PUSH2 0x2C6C JUMPI PUSH1 0x40 MLOAD PUSH3 0x461BCD PUSH1 0xE5 SHL DUP2 MSTORE PUSH1 0x20 PUSH1 0x4 DUP3 ADD MSTORE PUSH1 0x11 PUSH1 0x24 DUP3 ADD MSTORE PUSH17 0x1C995C5D595CDD081B9BDD08199BDD5B99 PUSH1 0x7A SHL PUSH1 0x44 DUP3 ADD MSTORE PUSH1 0x64 ADD PUSH2 0xE83 JUMP JUMPDEST PUSH1 0x0 DUP3 DUP2 MSTORE PUSH1 0x17 PUSH1 0x20 SWAP1 DUP2 MSTORE PUSH1 0x40 SWAP1 SWAP2 KECCAK256 DUP1 SLOAD PUSH1 0xFF NOT AND PUSH1 0x1 SWAP1 DUP2 OR DUP3 SSTORE DUP4 MLOAD PUSH2 0x2C9D SWAP4 SWAP3 SWAP1 SWAP2 ADD SWAP2 DUP5 ADD SWAP1 PUSH2 0x432A JUMP JUMPDEST POP PUSH1 0x26 SLOAD PUSH1 0x0 SWAP1 DUP2 MSTORE PUSH1 0x27 PUSH1 0x20 SWAP1 DUP2 MSTORE PUSH1 0x40 DUP1 DUP4 KECCAK256 DUP6 DUP5 MSTORE PUSH1 0x6 DUP2 ADD DUP4 MSTORE DUP2 DUP5 KECCAK256 SLOAD PUSH1 0x1 PUSH1 0x1 PUSH1 0xA0 SHL SUB AND DUP5 MSTORE PUSH1 0x8 ADD SWAP1 SWAP2 MSTORE SWAP1 DUP2 SWAP1 KECCAK256 DUP1 SLOAD PUSH1 0xFF NOT AND PUSH1 0x1 OR SWAP1 SSTORE MLOAD PUSH32 0xFE2E2D779DBA245964D4E3EF9B994BE63856FD568BF7D3CA9E224755CB1BD54D SWAP1 PUSH2 0x2D0F SWAP1 DUP5 SWAP1 DUP5 SWAP1 PUSH2 0x49C9 JUMP JUMPDEST PUSH1 0x40 MLOAD DUP1 SWAP2 SUB SWAP1 LOG1 POP POP JUMP JUMPDEST PUSH1 0x1 PUSH1 0x1 PUSH1 0xA0 SHL SUB DUP4 AND PUSH1 0x0 SWAP1 DUP2 MSTORE PUSH1 0x9 PUSH1 0x20 MSTORE PUSH1 0x40 DUP2 KECCAK256 SLOAD PUSH1 0xFF AND DUP1 PUSH2 0x2D5A JUMPI POP PUSH1 0x1 PUSH1 0x1 PUSH1 0xA0 SHL SUB DUP4 AND PUSH1 0x0 SWAP1 DUP2 MSTORE PUSH1 0x9 PUSH1 0x20 MSTORE PUSH1 0x40 SWAP1 KECCAK256 SLOAD PUSH1 0xFF AND JUMPDEST DUP1 PUSH2 0x2D6E JUMPI POP PUSH1 0x19 SLOAD PUSH1 0x1 PUSH1 0xA0 SHL SWAP1 DIV PUSH1 0xFF AND JUMPDEST PUSH2 0x2DBA JUMPI PUSH1 0x40 MLOAD PUSH3 0x461BCD PUSH1 0xE5 SHL DUP2 MSTORE PUSH1 0x20 PUSH1 0x4 DUP3 ADD MSTORE PUSH1 0x1B PUSH1 0x24 DUP3 ADD MSTORE PUSH32 0x4E6F7420617574686F72697A656420746F207472616465207965740000000000 PUSH1 0x44 DUP3 ADD MSTORE PUSH1 0x64 ADD PUSH2 0xE83 JUMP JUMPDEST PUSH1 0x19 SLOAD PUSH1 0x1 PUSH1 0x1 PUSH1 0xA0 SHL SUB DUP5 DUP2 AND SWAP2 AND EQ PUSH2 0x2E26 JUMPI PUSH1 0x1 PUSH1 0x1 PUSH1 0xA0 SHL SUB DUP4 AND PUSH1 0x0 SWAP1 DUP2 MSTORE PUSH1 0x1C PUSH1 0x20 MSTORE PUSH1 0x40 SWAP1 KECCAK256 SLOAD PUSH1 0xFF AND PUSH2 0x2E26 JUMPI PUSH1 0x40 MLOAD PUSH3 0x461BCD PUSH1 0xE5 SHL DUP2 MSTORE PUSH1 0x20 PUSH1 0x4 DUP3 ADD MSTORE PUSH1 0xC PUSH1 0x24 DUP3 ADD MSTORE PUSH12 0x139BDD081A5B999958DD1959 PUSH1 0xA2 SHL PUSH1 0x44 DUP3 ADD MSTORE PUSH1 0x64 ADD PUSH2 0xE83 JUMP JUMPDEST PUSH1 0x40 SLOAD PUSH2 0x100 SWAP1 DIV PUSH1 0xFF AND DUP1 ISZERO PUSH2 0x2E4B JUMPI POP PUSH1 0x19 SLOAD PUSH1 0x1 PUSH1 0x1 PUSH1 0xA0 SHL SUB DUP5 DUP2 AND SWAP2 AND EQ ISZERO JUMPDEST ISZERO PUSH2 0x2EDC JUMPI PUSH2 0x2E68 PUSH1 0x0 DUP1 MLOAD PUSH1 0x20 PUSH2 0x4A95 DUP4 CODECOPY DUP2 MLOAD SWAP2 MSTORE DUP6 PUSH2 0x1EE8 JUMP JUMPDEST DUP1 PUSH2 0x2E86 JUMPI POP PUSH2 0x2E86 PUSH1 0x0 DUP1 MLOAD PUSH1 0x20 PUSH2 0x4A95 DUP4 CODECOPY DUP2 MLOAD SWAP2 MSTORE DUP5 PUSH2 0x1EE8 JUMP JUMPDEST PUSH2 0x2EDC JUMPI PUSH1 0x40 MLOAD PUSH3 0x461BCD PUSH1 0xE5 SHL DUP2 MSTORE PUSH1 0x20 PUSH1 0x4 DUP3 ADD MSTORE PUSH1 0x21 PUSH1 0x24 DUP3 ADD MSTORE PUSH32 0x47616D65206973206F7665722C206F6E6C792061646D696E732063616E206275 PUSH1 0x44 DUP3 ADD MSTORE PUSH1 0x79 PUSH1 0xF8 SHL PUSH1 0x64 DUP3 ADD MSTORE PUSH1 0x84 ADD PUSH2 0xE83 JUMP JUMPDEST PUSH1 0x0 SLOAD PUSH1 0x1 PUSH1 0x1 PUSH1 0xA0 SHL SUB DUP6 DUP2 AND SWAP2 AND EQ DUP1 ISZERO SWAP1 PUSH2 0x2F08 JUMPI POP PUSH1 0x0 SLOAD PUSH1 0x1 PUSH1 0x1 PUSH1 0xA0 SHL SUB DUP5 DUP2 AND SWAP2 AND EQ ISZERO JUMPDEST DUP1 ISZERO PUSH2 0x2F1F JUMPI POP PUSH1 0x1 PUSH1 0x1 PUSH1 0xA0 SHL SUB DUP4 AND PUSH2 0xDEAD EQ ISZERO JUMPDEST ISZERO PUSH2 0x2FE5 JUMPI PUSH1 0x19 SLOAD PUSH1 0x1 PUSH1 0x1 PUSH1 0xA0 SHL SUB DUP5 DUP2 AND SWAP2 AND EQ PUSH2 0x2FE5 JUMPI PUSH1 0x1 PUSH1 0x1 PUSH1 0xA0 SHL SUB DUP4 AND PUSH1 0x0 SWAP1 DUP2 MSTORE PUSH1 0xA PUSH1 0x20 MSTORE PUSH1 0x40 SWAP1 KECCAK256 SLOAD PUSH1 0xFF AND DUP1 PUSH2 0x2F85 JUMPI POP PUSH1 0x6 SLOAD PUSH1 0x1 PUSH1 0x1 PUSH1 0xA0 SHL SUB DUP5 AND PUSH1 0x0 SWAP1 DUP2 MSTORE PUSH1 0x7 PUSH1 0x20 MSTORE PUSH1 0x40 SWAP1 KECCAK256 SLOAD PUSH2 0x2F82 SWAP1 DUP5 SWAP1 PUSH2 0x491F JUMP JUMPDEST GT ISZERO JUMPDEST PUSH2 0x2FE5 JUMPI PUSH1 0x40 MLOAD PUSH3 0x461BCD PUSH1 0xE5 SHL DUP2 MSTORE PUSH1 0x20 PUSH1 0x4 DUP3 ADD MSTORE PUSH1 0x2B PUSH1 0x24 DUP3 ADD MSTORE PUSH32 0x5472616E7366657220616D6F756E74206578636565647320746865204D617857 PUSH1 0x44 DUP3 ADD MSTORE PUSH11 0x30B63632BA1039B4BD3297 PUSH1 0xA9 SHL PUSH1 0x64 DUP3 ADD MSTORE PUSH1 0x84 ADD PUSH2 0xE83 JUMP JUMPDEST PUSH2 0x2FED PUSH2 0x393C JUMP JUMPDEST DUP1 ISZERO PUSH2 0x3006 JUMPI POP PUSH1 0x19 SLOAD PUSH1 0x1 PUSH1 0x1 PUSH1 0xA0 SHL SUB DUP5 DUP2 AND SWAP2 AND EQ JUMPDEST ISZERO PUSH2 0x3013 JUMPI PUSH2 0x3013 PUSH2 0x399A JUMP JUMPDEST PUSH1 0x1 PUSH1 0x1 PUSH1 0xA0 SHL SUB DUP5 AND PUSH1 0x0 SWAP1 DUP2 MSTORE PUSH1 0x7 PUSH1 0x20 MSTORE PUSH1 0x40 SWAP1 KECCAK256 SLOAD PUSH2 0x3037 SWAP1 DUP4 SWAP1 PUSH2 0x490C JUMP JUMPDEST PUSH1 0x1 PUSH1 0x1 PUSH1 0xA0 SHL SUB DUP6 AND PUSH1 0x0 SWAP1 DUP2 MSTORE PUSH1 0x7 PUSH1 0x20 SWAP1 DUP2 MSTORE PUSH1 0x40 DUP1 DUP4 KECCAK256 SWAP4 SWAP1 SWAP4 SSTORE PUSH1 0x9 SWAP1 MSTORE SWAP1 DUP2 KECCAK256 SLOAD PUSH1 0xFF AND ISZERO ISZERO DUP1 PUSH2 0x3088 JUMPI POP PUSH1 0x1 PUSH1 0x1 PUSH1 0xA0 SHL SUB DUP5 AND PUSH1 0x0 SWAP1 DUP2 MSTORE PUSH1 0x9 PUSH1 0x20 MSTORE PUSH1 0x40 SWAP1 KECCAK256 SLOAD PUSH1 0xFF AND ISZERO ISZERO JUMPDEST PUSH2 0x309C JUMPI PUSH2 0x3097 DUP6 DUP6 DUP6 PUSH2 0x3B82 JUMP JUMPDEST PUSH2 0x309E JUMP JUMPDEST DUP3 JUMPDEST PUSH1 0x1 PUSH1 0x1 PUSH1 0xA0 SHL SUB DUP6 AND PUSH1 0x0 SWAP1 DUP2 MSTORE PUSH1 0x7 PUSH1 0x20 MSTORE PUSH1 0x40 SWAP1 KECCAK256 SLOAD SWAP1 SWAP2 POP PUSH2 0x30C5 SWAP1 DUP3 SWAP1 PUSH2 0x491F JUMP JUMPDEST PUSH1 0x1 PUSH1 0x1 PUSH1 0xA0 SHL SUB DUP1 DUP7 AND PUSH1 0x0 DUP2 DUP2 MSTORE PUSH1 0x7 PUSH1 0x20 MSTORE PUSH1 0x40 SWAP1 DUP2 SWAP1 KECCAK256 SWAP4 SWAP1 SWAP4 SSTORE SWAP2 MLOAD SWAP1 DUP8 AND SWAP1 PUSH1 0x0 DUP1 MLOAD PUSH1 0x20 PUSH2 0x4A75 DUP4 CODECOPY DUP2 MLOAD SWAP2 MSTORE SWAP1 PUSH2 0x3107 SWAP1 DUP6 DUP2 MSTORE PUSH1 0x20 ADD SWAP1 JUMP JUMPDEST PUSH1 0x40 MLOAD DUP1 SWAP2 SUB SWAP1 LOG3 POP PUSH1 0x1 SWAP5 SWAP4 POP POP POP POP JUMP JUMPDEST PUSH1 0x1 PUSH1 0x1 PUSH1 0xA0 SHL SUB DUP4 AND PUSH2 0x317C JUMPI PUSH1 0x40 MLOAD PUSH3 0x461BCD PUSH1 0xE5 SHL DUP2 MSTORE PUSH1 0x20 PUSH1 0x4 DUP3 ADD MSTORE PUSH1 0x24 DUP1 DUP3 ADD MSTORE PUSH32 0x45524332303A20617070726F76652066726F6D20746865207A65726F20616464 PUSH1 0x44 DUP3 ADD MSTORE PUSH4 0x72657373 PUSH1 0xE0 SHL PUSH1 0x64 DUP3 ADD MSTORE PUSH1 0x84 ADD PUSH2 0xE83 JUMP JUMPDEST PUSH1 0x1 PUSH1 0x1 PUSH1 0xA0 SHL SUB DUP3 AND PUSH2 0x31DD JUMPI PUSH1 0x40 MLOAD PUSH3 0x461BCD PUSH1 0xE5 SHL DUP2 MSTORE PUSH1 0x20 PUSH1 0x4 DUP3 ADD MSTORE PUSH1 0x22 PUSH1 0x24 DUP3 ADD MSTORE PUSH32 0x45524332303A20617070726F766520746F20746865207A65726F206164647265 PUSH1 0x44 DUP3 ADD MSTORE PUSH2 0x7373 PUSH1 0xF0 SHL PUSH1 0x64 DUP3 ADD MSTORE PUSH1 0x84 ADD PUSH2 0xE83 JUMP JUMPDEST PUSH1 0x1 PUSH1 0x1 PUSH1 0xA0 SHL SUB DUP4 DUP2 AND PUSH1 0x0 DUP2 DUP2 MSTORE PUSH1 0x8 PUSH1 0x20 SWAP1 DUP2 MSTORE PUSH1 0x40 DUP1 DUP4 KECCAK256 SWAP5 DUP8 AND DUP1 DUP5 MSTORE SWAP5 DUP3 MSTORE SWAP2 DUP3 SWAP1 KECCAK256 DUP6 SWAP1 SSTORE SWAP1 MLOAD DUP5 DUP2 MSTORE PUSH32 0x8C5BE1E5EBEC7D5BD14F71427D1E84F3DD0314C0F7B2291E5B200AC8C7C3B925 SWAP2 ADD PUSH1 0x40 MLOAD DUP1 SWAP2 SUB SWAP1 LOG3 POP POP POP JUMP JUMPDEST PUSH1 0x0 PUSH2 0x324A DUP4 DUP4 PUSH2 0x1EE8 JUMP JUMPDEST PUSH2 0x32AF JUMPI PUSH1 0x0 DUP4 DUP2 MSTORE PUSH1 0x1 PUSH1 0x20 DUP2 DUP2 MSTORE PUSH1 0x40 DUP1 DUP5 KECCAK256 PUSH1 0x1 PUSH1 0x1 PUSH1 0xA0 SHL SUB DUP8 AND DUP1 DUP7 MSTORE SWAP3 MSTORE DUP1 DUP5 KECCAK256 DUP1 SLOAD PUSH1 0xFF NOT AND SWAP1 SWAP4 OR SWAP1 SWAP3 SSTORE SWAP1 MLOAD CALLER SWAP3 DUP7 SWAP2 PUSH32 0x2F8788117E7EFF1D82E926EC794901D17C78024A50270940304540A733656F0D SWAP2 SWAP1 LOG4 POP PUSH1 0x1 PUSH2 0x11E8 JUMP JUMPDEST POP PUSH1 0x0 PUSH2 0x11E8 JUMP JUMPDEST PUSH1 0x0 PUSH2 0x32C3 DUP4 DUP4 PUSH2 0x1EE8 JUMP JUMPDEST ISZERO PUSH2 0x32AF JUMPI PUSH1 0x0 DUP4 DUP2 MSTORE PUSH1 0x1 PUSH1 0x20 SWAP1 DUP2 MSTORE PUSH1 0x40 DUP1 DUP4 KECCAK256 PUSH1 0x1 PUSH1 0x1 PUSH1 0xA0 SHL SUB DUP7 AND DUP1 DUP6 MSTORE SWAP3 MSTORE DUP1 DUP4 KECCAK256 DUP1 SLOAD PUSH1 0xFF NOT AND SWAP1 SSTORE MLOAD CALLER SWAP3 DUP7 SWAP2 PUSH32 0xF6391F5C32D9C69D2A47EA670B442974B53935D1EDC7FD64EB21E047A839171B SWAP2 SWAP1 LOG4 POP PUSH1 0x1 PUSH2 0x11E8 JUMP JUMPDEST PUSH1 0x26 SLOAD PUSH1 0x0 SWAP1 DUP2 MSTORE PUSH1 0x27 PUSH1 0x20 MSTORE PUSH1 0x40 SWAP1 KECCAK256 PUSH1 0x9 ADD SLOAD ISZERO PUSH2 0x33B7 JUMPI PUSH1 0x21 SLOAD PUSH1 0x26 SLOAD PUSH1 0x0 SWAP1 DUP2 MSTORE PUSH1 0x27 PUSH1 0x20 MSTORE PUSH1 0x40 SWAP1 DUP2 SWAP1 KECCAK256 SWAP1 MLOAD PUSH4 0xF25ADDF5 PUSH1 0xE0 SHL DUP2 MSTORE PUSH1 0x1 PUSH1 0x1 PUSH1 0xA0 SHL SUB SWAP1 SWAP3 AND SWAP2 PUSH4 0xF25ADDF5 SWAP2 PUSH2 0x3384 SWAP2 PUSH1 0x9 SWAP1 SWAP2 ADD SWAP1 PUSH1 0x4 ADD PUSH2 0x494F JUMP JUMPDEST PUSH1 0x0 PUSH1 0x40 MLOAD DUP1 DUP4 SUB DUP2 PUSH1 0x0 DUP8 DUP1 EXTCODESIZE ISZERO DUP1 ISZERO PUSH2 0x339E JUMPI PUSH1 0x0 DUP1 REVERT JUMPDEST POP GAS CALL ISZERO DUP1 ISZERO PUSH2 0x33B2 JUMPI RETURNDATASIZE PUSH1 0x0 DUP1 RETURNDATACOPY RETURNDATASIZE PUSH1 0x0 REVERT JUMPDEST POP POP POP POP JUMPDEST PUSH1 0x26 DUP1 SLOAD SWAP1 PUSH1 0x0 PUSH2 0x33C7 DUP4 PUSH2 0x4814 JUMP JUMPDEST SWAP1 SWAP2 SSTORE POP POP PUSH1 0x26 SLOAD PUSH1 0x0 DUP2 DUP2 MSTORE PUSH1 0x27 PUSH1 0x20 MSTORE PUSH1 0x40 SWAP1 KECCAK256 SWAP1 DUP2 SSTORE TIMESTAMP PUSH1 0x1 SWAP1 SWAP2 ADD DUP2 SWAP1 SSTORE PUSH2 0x33F6 SWAP1 PUSH3 0x14370 PUSH2 0x491F JUMP JUMPDEST PUSH1 0x26 SLOAD PUSH1 0x0 SWAP1 DUP2 MSTORE PUSH1 0x27 PUSH1 0x20 MSTORE PUSH1 0x40 DUP2 KECCAK256 PUSH1 0x2 ADD SWAP2 SWAP1 SWAP2 SSTORE PUSH1 0x2B DUP2 SWAP1 SSTORE PUSH1 0x2C DUP2 SWAP1 SSTORE PUSH1 0x2D DUP2 SWAP1 SSTORE PUSH1 0x2E DUP2 SWAP1 SSTORE PUSH1 0x28 DUP2 SWAP1 SSTORE JUMPDEST PUSH1 0x25 SLOAD DUP2 LT ISZERO PUSH2 0x34DB JUMPI PUSH1 0x0 PUSH1 0x23 PUSH1 0x0 PUSH1 0x25 DUP5 DUP2 SLOAD DUP2 LT PUSH2 0x344B JUMPI PUSH2 0x344B PUSH2 0x499F JUMP JUMPDEST PUSH1 0x0 SWAP2 DUP3 MSTORE PUSH1 0x20 DUP1 DUP4 KECCAK256 SWAP1 SWAP2 ADD SLOAD PUSH1 0x1 PUSH1 0x1 PUSH1 0xA0 SHL SUB AND DUP4 MSTORE DUP3 ADD SWAP3 SWAP1 SWAP3 MSTORE PUSH1 0x40 ADD SWAP1 KECCAK256 SLOAD GT ISZERO PUSH2 0x34C9 JUMPI PUSH1 0x1 PUSH1 0x23 PUSH1 0x0 PUSH1 0x25 DUP5 DUP2 SLOAD DUP2 LT PUSH2 0x348F JUMPI PUSH2 0x348F PUSH2 0x499F JUMP JUMPDEST PUSH1 0x0 SWAP2 DUP3 MSTORE PUSH1 0x20 DUP1 DUP4 KECCAK256 SWAP1 SWAP2 ADD SLOAD PUSH1 0x1 PUSH1 0x1 PUSH1 0xA0 SHL SUB AND DUP4 MSTORE DUP3 ADD SWAP3 SWAP1 SWAP3 MSTORE PUSH1 0x40 ADD DUP2 KECCAK256 DUP1 SLOAD SWAP1 SWAP2 SWAP1 PUSH2 0x34C3 SWAP1 DUP5 SWAP1 PUSH2 0x490C JUMP JUMPDEST SWAP1 SWAP2 SSTORE POP POP JUMPDEST DUP1 PUSH2 0x34D3 DUP2 PUSH2 0x4814 JUMP JUMPDEST SWAP2 POP POP PUSH2 0x3428 JUMP JUMPDEST POP PUSH1 0x40 SLOAD PUSH1 0xFF AND PUSH2 0x34F4 JUMPI PUSH1 0x40 DUP1 SLOAD PUSH1 0xFF NOT AND PUSH1 0x1 OR SWAP1 SSTORE JUMPDEST PUSH2 0x1661 PUSH2 0x402C JUMP JUMPDEST CALLER PUSH2 0x3505 PUSH2 0x430C JUMP JUMPDEST PUSH2 0x350D PUSH2 0x430C JUMP JUMPDEST PUSH1 0x0 DUP1 JUMPDEST PUSH1 0x5 DUP2 LT ISZERO PUSH2 0x3576 JUMPI PUSH1 0x1E PUSH1 0x0 PUSH1 0x44 DUP4 PUSH1 0x5 DUP2 LT PUSH2 0x3531 JUMPI PUSH2 0x3531 PUSH2 0x499F JUMP JUMPDEST ADD SLOAD PUSH1 0x1 PUSH1 0x1 PUSH1 0xA0 SHL SUB AND DUP2 MSTORE PUSH1 0x20 DUP2 ADD SWAP2 SWAP1 SWAP2 MSTORE PUSH1 0x40 ADD PUSH1 0x0 KECCAK256 SLOAD DUP5 DUP3 PUSH1 0x5 DUP2 LT PUSH2 0x355F JUMPI PUSH2 0x355F PUSH2 0x499F JUMP JUMPDEST PUSH1 0x20 MUL ADD MSTORE DUP1 PUSH2 0x356E DUP2 PUSH2 0x4814 JUMP JUMPDEST SWAP2 POP POP PUSH2 0x3511 JUMP JUMPDEST POP PUSH1 0x0 JUMPDEST PUSH1 0x5 DUP2 LT ISZERO PUSH2 0x35C6 JUMPI DUP5 PUSH1 0x1 PUSH1 0x1 PUSH1 0xA0 SHL SUB AND PUSH1 0x44 DUP3 PUSH1 0x5 DUP2 LT PUSH2 0x35A0 JUMPI PUSH2 0x35A0 PUSH2 0x499F JUMP JUMPDEST ADD SLOAD PUSH1 0x1 PUSH1 0x1 PUSH1 0xA0 SHL SUB AND SUB PUSH2 0x35B4 JUMPI DUP1 SWAP2 POP JUMPDEST DUP1 PUSH2 0x35BE DUP2 PUSH2 0x4814 JUMP JUMPDEST SWAP2 POP POP PUSH2 0x357A JUMP JUMPDEST POP PUSH1 0x1 PUSH1 0x1 PUSH1 0xA0 SHL SUB DUP5 AND PUSH1 0x0 SWAP1 DUP2 MSTORE PUSH1 0x1E PUSH1 0x20 MSTORE PUSH1 0x40 SWAP1 KECCAK256 SLOAD DUP4 MLOAD LT DUP1 ISZERO PUSH2 0x35FA JUMPI POP PUSH2 0x35F6 PUSH1 0x1 PUSH1 0x5 PUSH2 0x490C JUMP JUMPDEST DUP2 EQ ISZERO JUMPDEST ISZERO PUSH2 0x1815 JUMPI DUP1 PUSH1 0x0 SUB PUSH2 0x3614 JUMPI PUSH1 0x1 PUSH1 0x1 PUSH1 0xA0 SHL SUB DUP5 AND DUP3 MSTORE JUMPDEST PUSH1 0x0 PUSH2 0x3621 DUP3 PUSH1 0x1 PUSH2 0x491F JUMP JUMPDEST SWAP1 POP JUMPDEST PUSH1 0x5 DUP2 LT ISZERO PUSH2 0x36E9 JUMPI PUSH1 0x1 PUSH1 0x1 PUSH1 0xA0 SHL SUB DUP6 AND PUSH1 0x0 SWAP1 DUP2 MSTORE PUSH1 0x1E PUSH1 0x20 MSTORE PUSH1 0x40 SWAP1 KECCAK256 SLOAD DUP5 DUP3 PUSH1 0x5 DUP2 LT PUSH2 0x3658 JUMPI PUSH2 0x3658 PUSH2 0x499F JUMP JUMPDEST PUSH1 0x20 MUL ADD MLOAD LT ISZERO PUSH2 0x36D7 JUMPI PUSH1 0x44 DUP2 PUSH1 0x5 DUP2 LT PUSH2 0x3676 JUMPI PUSH2 0x3676 PUSH2 0x499F JUMP JUMPDEST ADD SLOAD PUSH1 0x1 PUSH1 0x1 PUSH1 0xA0 SHL SUB AND DUP4 PUSH2 0x368D PUSH1 0x1 DUP5 PUSH2 0x490C JUMP JUMPDEST PUSH1 0x5 DUP2 LT PUSH2 0x369D JUMPI PUSH2 0x369D PUSH2 0x499F JUMP JUMPDEST PUSH1 0x1 PUSH1 0x1 PUSH1 0xA0 SHL SUB SWAP1 SWAP3 AND PUSH1 0x20 SWAP3 SWAP1 SWAP3 MUL ADD MSTORE DUP5 DUP4 DUP3 PUSH1 0x5 DUP2 LT PUSH2 0x36C3 JUMPI PUSH2 0x36C3 PUSH2 0x499F JUMP JUMPDEST PUSH1 0x1 PUSH1 0x1 PUSH1 0xA0 SHL SUB SWAP1 SWAP3 AND PUSH1 0x20 SWAP3 SWAP1 SWAP3 MUL ADD MSTORE JUMPDEST DUP1 PUSH2 0x36E1 DUP2 PUSH2 0x4814 JUMP JUMPDEST SWAP2 POP POP PUSH2 0x3624 JUMP JUMPDEST POP PUSH2 0x1E50 PUSH1 0x44 DUP4 PUSH1 0x5 PUSH2 0x4375 JUMP JUMPDEST PUSH1 0x0 DUP1 SLOAD PUSH1 0x1 PUSH1 0x1 PUSH1 0xA0 SHL SUB DUP4 DUP2 AND PUSH1 0x1 PUSH1 0x1 PUSH1 0xA0 SHL SUB NOT DUP4 AND DUP2 OR DUP5 SSTORE PUSH1 0x40 MLOAD SWAP2 SWAP1 SWAP3 AND SWAP3 DUP4 SWAP2 PUSH32 0x8BE0079C531659141344CD1FD0A4F28419497F9722A3DAAFE3B4186F6B6457E0 SWAP2 SWAP1 LOG3 POP POP JUMP JUMPDEST PUSH1 0x12 SLOAD PUSH1 0x15 SLOAD PUSH1 0x16 SLOAD PUSH1 0x40 MLOAD PUSH4 0x5D3B1D3 PUSH1 0xE4 SHL DUP2 MSTORE PUSH1 0x4 DUP2 ADD SWAP3 SWAP1 SWAP3 MSTORE PUSH1 0x1 PUSH1 0xA0 SHL DUP4 DIV PUSH8 0xFFFFFFFFFFFFFFFF AND PUSH1 0x24 DUP4 ADD MSTORE PUSH5 0x100000000 DUP2 DIV PUSH2 0xFFFF AND PUSH1 0x44 DUP4 ADD MSTORE PUSH4 0xFFFFFFFF DUP1 DUP3 AND PUSH1 0x64 DUP5 ADD MSTORE PUSH7 0x1000000000000 SWAP1 SWAP2 DIV AND PUSH1 0x84 DUP3 ADD MSTORE PUSH1 0x0 SWAP2 PUSH1 0x1 PUSH1 0x1 PUSH1 0xA0 SHL SUB AND SWAP1 PUSH4 0x5D3B1D30 SWAP1 PUSH1 0xA4 ADD PUSH1 0x20 PUSH1 0x40 MLOAD DUP1 DUP4 SUB DUP2 PUSH1 0x0 DUP8 GAS CALL ISZERO DUP1 ISZERO PUSH2 0x37DF JUMPI RETURNDATASIZE PUSH1 0x0 DUP1 RETURNDATACOPY RETURNDATASIZE PUSH1 0x0 REVERT JUMPDEST POP POP POP POP PUSH1 0x40 MLOAD RETURNDATASIZE PUSH1 0x1F NOT PUSH1 0x1F DUP3 ADD AND DUP3 ADD DUP1 PUSH1 0x40 MSTORE POP DUP2 ADD SWAP1 PUSH2 0x3803 SWAP2 SWAP1 PUSH2 0x4A17 JUMP JUMPDEST PUSH1 0x40 DUP1 MLOAD PUSH1 0x60 DUP2 ADD DUP3 MSTORE PUSH1 0x0 DUP1 DUP3 MSTORE PUSH1 0x1 PUSH1 0x20 DUP1 DUP5 ADD DUP3 DUP2 MSTORE DUP6 MLOAD DUP5 DUP2 MSTORE DUP1 DUP4 ADD DUP8 MSTORE DUP6 DUP8 ADD SWAP1 DUP2 MSTORE DUP8 DUP6 MSTORE PUSH1 0x17 DUP4 MSTORE SWAP6 SWAP1 SWAP4 KECCAK256 DUP5 MLOAD DUP2 SLOAD SWAP5 MLOAD PUSH2 0xFFFF NOT SWAP1 SWAP6 AND SWAP1 ISZERO ISZERO PUSH2 0xFF00 NOT AND OR PUSH2 0x100 SWAP5 ISZERO ISZERO SWAP5 SWAP1 SWAP5 MUL SWAP4 SWAP1 SWAP4 OR DUP4 SSTORE SWAP4 MLOAD DUP1 MLOAD SWAP6 SWAP7 POP SWAP3 SWAP5 SWAP2 SWAP4 PUSH2 0x3878 SWAP4 SWAP2 DUP6 ADD SWAP3 SWAP2 ADD SWAP1 PUSH2 0x432A JUMP JUMPDEST POP POP PUSH1 0x13 DUP1 SLOAD PUSH1 0x1 DUP2 ADD DUP3 SSTORE PUSH1 0x0 SWAP2 SWAP1 SWAP2 MSTORE PUSH32 0x66DE8FFDA797E3DE9C05E8FC57B3BF0EC28A930D40B0D285D93C06501CF6A090 ADD DUP3 SWAP1 SSTORE POP PUSH1 0x14 DUP2 SWAP1 SSTORE PUSH1 0x16 SLOAD PUSH1 0x40 DUP1 MLOAD DUP4 DUP2 MSTORE PUSH7 0x1000000000000 SWAP1 SWAP3 DIV PUSH4 0xFFFFFFFF AND PUSH1 0x20 DUP4 ADD MSTORE PUSH32 0xCC58B13AD3EAB50626C6A6300B1D139CD6EBB1688A7CCED9461C2F7E762665EE SWAP2 ADD PUSH1 0x40 MLOAD DUP1 SWAP2 SUB SWAP1 LOG1 SWAP1 JUMP JUMPDEST PUSH2 0x390D DUP3 DUP3 PUSH2 0x1EE8 JUMP JUMPDEST PUSH2 0x1089 JUMPI PUSH1 0x40 MLOAD PUSH4 0xE2517D3F PUSH1 0xE0 SHL DUP2 MSTORE PUSH1 0x1 PUSH1 0x1 PUSH1 0xA0 SHL SUB DUP3 AND PUSH1 0x4 DUP3 ADD MSTORE PUSH1 0x24 DUP2 ADD DUP4 SWAP1 MSTORE PUSH1 0x44 ADD PUSH2 0xE83 JUMP JUMPDEST PUSH1 0x19 SLOAD PUSH1 0x0 SWAP1 PUSH1 0x1 PUSH1 0x1 PUSH1 0xA0 SHL SUB AND CALLER EQ DUP1 ISZERO SWAP1 PUSH2 0x395D JUMPI POP PUSH1 0x1B SLOAD PUSH1 0xFF AND ISZERO JUMPDEST DUP1 ISZERO PUSH2 0x3972 JUMPI POP PUSH1 0x19 SLOAD PUSH1 0x1 PUSH1 0xA8 SHL SWAP1 DIV PUSH1 0xFF AND JUMPDEST DUP1 ISZERO PUSH2 0x3995 JUMPI POP PUSH1 0x1A SLOAD PUSH1 0x41 SLOAD PUSH2 0x3988 ADDRESS PUSH2 0x1E58 JUMP JUMPDEST PUSH2 0x3992 SWAP2 SWAP1 PUSH2 0x490C JUMP JUMPDEST LT ISZERO JUMPDEST SWAP1 POP SWAP1 JUMP JUMPDEST PUSH1 0x1B DUP1 SLOAD PUSH1 0xFF NOT AND PUSH1 0x1 OR SWAP1 SSTORE PUSH1 0x41 SLOAD PUSH1 0x0 SWAP1 PUSH2 0x39B6 ADDRESS PUSH2 0x1E58 JUMP JUMPDEST PUSH2 0x39C0 SWAP2 SWAP1 PUSH2 0x490C JUMP JUMPDEST PUSH1 0x40 DUP1 MLOAD PUSH1 0x2 DUP1 DUP3 MSTORE PUSH1 0x60 DUP3 ADD DUP4 MSTORE SWAP3 SWAP4 POP PUSH1 0x0 SWAP3 SWAP1 SWAP2 PUSH1 0x20 DUP4 ADD SWAP1 DUP1 CALLDATASIZE DUP4 CALLDATACOPY ADD SWAP1 POP POP SWAP1 POP ADDRESS DUP2 PUSH1 0x0 DUP2 MLOAD DUP2 LT PUSH2 0x39FA JUMPI PUSH2 0x39FA PUSH2 0x499F JUMP JUMPDEST PUSH1 0x1 PUSH1 0x1 PUSH1 0xA0 SHL SUB SWAP3 DUP4 AND PUSH1 0x20 SWAP2 DUP3 MUL SWAP3 SWAP1 SWAP3 ADD DUP2 ADD SWAP2 SWAP1 SWAP2 MSTORE PUSH1 0x18 SLOAD PUSH1 0x40 DUP1 MLOAD PUSH4 0x15AB88C9 PUSH1 0xE3 SHL DUP2 MSTORE SWAP1 MLOAD SWAP2 SWAP1 SWAP4 AND SWAP3 PUSH4 0xAD5C4648 SWAP3 PUSH1 0x4 DUP1 DUP4 ADD SWAP4 SWAP2 SWAP3 DUP3 SWAP1 SUB ADD DUP2 DUP7 GAS STATICCALL ISZERO DUP1 ISZERO PUSH2 0x3A53 JUMPI RETURNDATASIZE PUSH1 0x0 DUP1 RETURNDATACOPY RETURNDATASIZE PUSH1 0x0 REVERT JUMPDEST POP POP POP POP PUSH1 0x40 MLOAD RETURNDATASIZE PUSH1 0x1F NOT PUSH1 0x1F DUP3 ADD AND DUP3 ADD DUP1 PUSH1 0x40 MSTORE POP DUP2 ADD SWAP1 PUSH2 0x3A77 SWAP2 SWAP1 PUSH2 0x4932 JUMP JUMPDEST DUP2 PUSH1 0x1 DUP2 MLOAD DUP2 LT PUSH2 0x3A8A JUMPI PUSH2 0x3A8A PUSH2 0x499F JUMP JUMPDEST PUSH1 0x1 PUSH1 0x1 PUSH1 0xA0 SHL SUB SWAP3 DUP4 AND PUSH1 0x20 SWAP2 DUP3 MUL SWAP3 SWAP1 SWAP3 ADD ADD MSTORE PUSH1 0x18 SLOAD AND PUSH4 0x52AA4C22 DUP4 PUSH1 0x0 DUP5 ADDRESS DUP3 PUSH2 0x3ABB TIMESTAMP PUSH2 0x12C PUSH2 0x491F JUMP JUMPDEST PUSH1 0x40 MLOAD DUP8 PUSH4 0xFFFFFFFF AND PUSH1 0xE0 SHL DUP2 MSTORE PUSH1 0x4 ADD PUSH2 0x3ADC SWAP7 SWAP6 SWAP5 SWAP4 SWAP3 SWAP2 SWAP1 PUSH2 0x4A30 JUMP JUMPDEST PUSH1 0x0 PUSH1 0x40 MLOAD DUP1 DUP4 SUB DUP2 PUSH1 0x0 DUP8 DUP1 EXTCODESIZE ISZERO DUP1 ISZERO PUSH2 0x3AF6 JUMPI PUSH1 0x0 DUP1 REVERT JUMPDEST POP GAS CALL ISZERO DUP1 ISZERO PUSH2 0x3B0A JUMPI RETURNDATASIZE PUSH1 0x0 DUP1 RETURNDATACOPY RETURNDATASIZE PUSH1 0x0 REVERT JUMPDEST POP SELFBALANCE SWAP3 POP POP DUP2 ISZERO SWAP1 POP PUSH2 0x3B73 JUMPI PUSH1 0x10 SLOAD PUSH1 0x40 MLOAD PUSH1 0x0 SWAP2 PUSH1 0x1 PUSH1 0x1 PUSH1 0xA0 SHL SUB AND SWAP1 PUSH2 0x7530 SWAP1 DUP5 SWAP1 DUP5 DUP2 DUP2 DUP2 DUP6 DUP9 DUP9 CALL SWAP4 POP POP POP POP RETURNDATASIZE DUP1 PUSH1 0x0 DUP2 EQ PUSH2 0x3B69 JUMPI PUSH1 0x40 MLOAD SWAP2 POP PUSH1 0x1F NOT PUSH1 0x3F RETURNDATASIZE ADD AND DUP3 ADD PUSH1 0x40 MSTORE RETURNDATASIZE DUP3 MSTORE RETURNDATASIZE PUSH1 0x0 PUSH1 0x20 DUP5 ADD RETURNDATACOPY PUSH2 0x3B6E JUMP JUMPDEST PUSH1 0x60 SWAP2 POP JUMPDEST POP POP POP POP JUMPDEST POP POP PUSH1 0x1B DUP1 SLOAD PUSH1 0xFF NOT AND SWAP1 SSTORE POP JUMP JUMPDEST PUSH1 0x19 SLOAD PUSH1 0x0 SWAP1 DUP2 SWAP1 DUP2 SWAP1 DUP2 SWAP1 DUP2 SWAP1 PUSH1 0x1 PUSH1 0x1 PUSH1 0xA0 SHL SUB DUP10 DUP2 AND SWAP2 AND EQ DUP1 ISZERO PUSH2 0x3BB8 JUMPI POP PUSH1 0x19 SLOAD PUSH1 0x1 PUSH1 0x1 PUSH1 0xA0 SHL SUB DUP9 DUP2 AND SWAP2 AND EQ ISZERO JUMPDEST ISZERO PUSH2 0x3D64 JUMPI PUSH1 0x1 PUSH1 0x1 PUSH1 0xA0 SHL SUB DUP8 AND PUSH1 0x0 SWAP1 DUP2 MSTORE PUSH1 0x23 PUSH1 0x20 MSTORE PUSH1 0x40 SWAP1 KECCAK256 SLOAD PUSH1 0x1 SUB PUSH2 0x3C6C JUMPI PUSH1 0x3 PUSH2 0x2710 PUSH1 0x34 SLOAD DUP9 PUSH2 0x3BF0 SWAP2 SWAP1 PUSH2 0x4861 JUMP JUMPDEST PUSH2 0x3BFA SWAP2 SWAP1 PUSH2 0x488E JUMP JUMPDEST PUSH2 0x3C04 SWAP2 SWAP1 PUSH2 0x488E JUMP JUMPDEST PUSH1 0x1 PUSH1 0x1 PUSH1 0xA0 SHL SUB DUP1 DUP10 AND PUSH1 0x0 SWAP1 DUP2 MSTORE PUSH1 0x1D PUSH1 0x20 SWAP1 DUP2 MSTORE PUSH1 0x40 DUP1 DUP4 KECCAK256 SLOAD SWAP1 SWAP4 AND DUP3 MSTORE PUSH1 0x1F SWAP1 MSTORE SWAP1 DUP2 KECCAK256 DUP1 SLOAD SWAP3 SWAP7 POP DUP7 SWAP6 POP DUP6 SWAP5 POP DUP5 SWAP3 SWAP1 SWAP2 SWAP1 PUSH2 0x3C48 SWAP1 DUP5 SWAP1 PUSH2 0x491F JUMP JUMPDEST SWAP3 POP POP DUP2 SWAP1 SSTORE POP DUP3 PUSH1 0x41 PUSH1 0x0 DUP3 DUP3 SLOAD PUSH2 0x3C61 SWAP2 SWAP1 PUSH2 0x491F JUMP JUMPDEST SWAP1 SWAP2 SSTORE POP PUSH2 0x3F32 SWAP1 POP JUMP JUMPDEST PUSH1 0x1 PUSH1 0x1 PUSH1 0xA0 SHL SUB DUP8 AND PUSH1 0x0 SWAP1 DUP2 MSTORE PUSH1 0x23 PUSH1 0x20 MSTORE PUSH1 0x40 SWAP1 KECCAK256 SLOAD PUSH1 0x2 SUB PUSH2 0x3D1B JUMPI PUSH1 0x3 PUSH2 0x2710 PUSH1 0x35 SLOAD DUP9 PUSH2 0x3C9F SWAP2 SWAP1 PUSH2 0x4861 JUMP JUMPDEST PUSH2 0x3CA9 SWAP2 SWAP1 PUSH2 0x488E JUMP JUMPDEST PUSH2 0x3CB3 SWAP2 SWAP1 PUSH2 0x488E JUMP JUMPDEST PUSH1 0x1 PUSH1 0x1 PUSH1 0xA0 SHL SUB DUP1 DUP10 AND PUSH1 0x0 SWAP1 DUP2 MSTORE PUSH1 0x1D PUSH1 0x20 SWAP1 DUP2 MSTORE PUSH1 0x40 DUP1 DUP4 KECCAK256 SLOAD SWAP1 SWAP4 AND DUP3 MSTORE PUSH1 0x1F SWAP1 MSTORE SWAP1 DUP2 KECCAK256 DUP1 SLOAD SWAP3 SWAP7 POP DUP7 SWAP6 POP DUP6 SWAP5 POP DUP5 SWAP3 SWAP1 SWAP2 SWAP1 PUSH2 0x3CF7 SWAP1 DUP5 SWAP1 PUSH2 0x491F JUMP JUMPDEST SWAP3 POP POP DUP2 SWAP1 SSTORE POP DUP3 PUSH1 0x41 PUSH1 0x0 DUP3 DUP3 SLOAD PUSH2 0x3D10 SWAP2 SWAP1 PUSH2 0x491F JUMP JUMPDEST SWAP1 SWAP2 SSTORE POP PUSH2 0x3D5F SWAP1 POP JUMP JUMPDEST PUSH1 0x1 PUSH1 0x1 PUSH1 0xA0 SHL SUB DUP8 AND PUSH1 0x0 SWAP1 DUP2 MSTORE PUSH1 0x23 PUSH1 0x20 MSTORE PUSH1 0x40 SWAP1 KECCAK256 SLOAD PUSH1 0x3 SUB PUSH2 0x3D4E JUMPI PUSH1 0x3 PUSH2 0x2710 PUSH1 0x36 SLOAD DUP9 PUSH2 0x3C9F SWAP2 SWAP1 PUSH2 0x4861 JUMP JUMPDEST PUSH2 0x2710 PUSH1 0xC SLOAD DUP8 PUSH2 0x3BFA SWAP2 SWAP1 PUSH2 0x4861 JUMP JUMPDEST PUSH2 0x3F32 JUMP JUMPDEST PUSH1 0x19 SLOAD PUSH1 0x1 PUSH1 0x1 PUSH1 0xA0 SHL SUB DUP10 DUP2 AND SWAP2 AND EQ DUP1 ISZERO SWAP1 PUSH2 0x3D8F JUMPI POP PUSH1 0x19 SLOAD PUSH1 0x1 PUSH1 0x1 PUSH1 0xA0 SHL SUB DUP9 DUP2 AND SWAP2 AND EQ JUMPDEST ISZERO PUSH2 0x3F32 JUMPI PUSH1 0x40 SLOAD PUSH2 0x100 SWAP1 DIV PUSH1 0xFF AND ISZERO PUSH2 0x3DC3 JUMPI PUSH2 0x2710 PUSH2 0x3DB2 DUP8 PUSH1 0xA PUSH2 0x4861 JUMP JUMPDEST PUSH2 0x3DBC SWAP2 SWAP1 PUSH2 0x488E JUMP JUMPDEST SWAP4 POP PUSH2 0x3F32 JUMP JUMPDEST PUSH1 0x1 PUSH1 0x1 PUSH1 0xA0 SHL SUB DUP9 AND PUSH1 0x0 SWAP1 DUP2 MSTORE PUSH1 0x23 PUSH1 0x20 MSTORE PUSH1 0x40 SWAP1 KECCAK256 SLOAD PUSH1 0x1 SUB PUSH2 0x3E4E JUMPI PUSH1 0x3 PUSH2 0x2710 PUSH1 0x37 SLOAD DUP9 PUSH2 0x3DF6 SWAP2 SWAP1 PUSH2 0x4861 JUMP JUMPDEST PUSH2 0x3E00 SWAP2 SWAP1 PUSH2 0x488E JUMP JUMPDEST PUSH2 0x3E0A SWAP2 SWAP1 PUSH2 0x488E JUMP JUMPDEST PUSH1 0x1 PUSH1 0x1 PUSH1 0xA0 SHL SUB DUP1 DUP11 AND PUSH1 0x0 SWAP1 DUP2 MSTORE PUSH1 0x1D PUSH1 0x20 SWAP1 DUP2 MSTORE PUSH1 0x40 DUP1 DUP4 KECCAK256 SLOAD SWAP1 SWAP4 AND DUP3 MSTORE PUSH1 0x1F SWAP1 MSTORE SWAP1 DUP2 KECCAK256 DUP1 SLOAD SWAP3 SWAP7 POP DUP7 SWAP6 POP DUP6 SWAP5 POP DUP5 SWAP3 SWAP1 SWAP2 SWAP1 PUSH2 0x3C48 SWAP1 DUP5 SWAP1 PUSH2 0x491F JUMP JUMPDEST PUSH1 0x1 PUSH1 0x1 PUSH1 0xA0 SHL SUB DUP9 AND PUSH1 0x0 SWAP1 DUP2 MSTORE PUSH1 0x23 PUSH1 0x20 MSTORE PUSH1 0x40 SWAP1 KECCAK256 SLOAD PUSH1 0x2 SUB PUSH2 0x3E81 JUMPI PUSH1 0x3 PUSH2 0x2710 PUSH1 0x38 SLOAD DUP9 PUSH2 0x3DF6 SWAP2 SWAP1 PUSH2 0x4861 JUMP JUMPDEST PUSH1 0x1 PUSH1 0x1 PUSH1 0xA0 SHL SUB DUP9 AND PUSH1 0x0 SWAP1 DUP2 MSTORE PUSH1 0x23 PUSH1 0x20 MSTORE PUSH1 0x40 SWAP1 KECCAK256 SLOAD PUSH1 0x3 SUB PUSH2 0x3EB4 JUMPI PUSH1 0x3 PUSH2 0x2710 PUSH1 0x39 SLOAD DUP9 PUSH2 0x3DF6 SWAP2 SWAP1 PUSH2 0x4861 JUMP JUMPDEST PUSH2 0x2710 PUSH1 0xE SLOAD DUP8 PUSH2 0x3EC5 SWAP2 SWAP1 PUSH2 0x4861 JUMP JUMPDEST PUSH2 0x3ECF SWAP2 SWAP1 PUSH2 0x488E JUMP JUMPDEST PUSH1 0x1 PUSH1 0x1 PUSH1 0xA0 SHL SUB DUP1 DUP11 AND PUSH1 0x0 SWAP1 DUP2 MSTORE PUSH1 0x1D PUSH1 0x20 SWAP1 DUP2 MSTORE PUSH1 0x40 DUP1 DUP4 KECCAK256 SLOAD SWAP1 SWAP4 AND DUP3 MSTORE PUSH1 0x1F SWAP1 MSTORE SWAP1 DUP2 KECCAK256 DUP1 SLOAD SWAP3 SWAP7 POP DUP7 SWAP6 POP DUP6 SWAP5 POP DUP5 SWAP3 SWAP1 SWAP2 SWAP1 PUSH2 0x3F13 SWAP1 DUP5 SWAP1 PUSH2 0x491F JUMP JUMPDEST SWAP3 POP POP DUP2 SWAP1 SSTORE POP DUP3 PUSH1 0x41 PUSH1 0x0 DUP3 DUP3 SLOAD PUSH2 0x3F2C SWAP2 SWAP1 PUSH2 0x491F JUMP JUMPDEST SWAP1 SWAP2 SSTORE POP POP JUMPDEST DUP2 PUSH2 0x3F3D DUP5 DUP7 PUSH2 0x491F JUMP JUMPDEST PUSH2 0x3F47 SWAP2 SWAP1 PUSH2 0x491F JUMP JUMPDEST SWAP1 POP DUP1 ISZERO PUSH2 0x4016 JUMPI PUSH2 0x3F59 DUP3 DUP3 PUSH2 0x490C JUMP JUMPDEST ADDRESS PUSH1 0x0 SWAP1 DUP2 MSTORE PUSH1 0x7 PUSH1 0x20 MSTORE PUSH1 0x40 DUP2 KECCAK256 DUP1 SLOAD SWAP1 SWAP2 SWAP1 PUSH2 0x3F78 SWAP1 DUP5 SWAP1 PUSH2 0x491F JUMP JUMPDEST SWAP1 SWAP2 SSTORE POP POP PUSH1 0x21 SLOAD PUSH1 0x1 PUSH1 0x1 PUSH1 0xA0 SHL SUB AND PUSH1 0x0 SWAP1 DUP2 MSTORE PUSH1 0x7 PUSH1 0x20 MSTORE PUSH1 0x40 DUP2 KECCAK256 DUP1 SLOAD DUP5 SWAP3 SWAP1 PUSH2 0x3FA7 SWAP1 DUP5 SWAP1 PUSH2 0x491F JUMP JUMPDEST SWAP1 SWAP2 SSTORE POP ADDRESS SWAP1 POP PUSH1 0x1 PUSH1 0x1 PUSH1 0xA0 SHL SUB DUP10 AND PUSH1 0x0 DUP1 MLOAD PUSH1 0x20 PUSH2 0x4A75 DUP4 CODECOPY DUP2 MLOAD SWAP2 MSTORE PUSH2 0x3FD1 DUP6 DUP6 PUSH2 0x490C JUMP JUMPDEST PUSH1 0x40 MLOAD SWAP1 DUP2 MSTORE PUSH1 0x20 ADD PUSH1 0x40 MLOAD DUP1 SWAP2 SUB SWAP1 LOG3 PUSH1 0x21 SLOAD PUSH1 0x40 MLOAD DUP4 DUP2 MSTORE PUSH1 0x1 PUSH1 0x1 PUSH1 0xA0 SHL SUB SWAP2 DUP3 AND SWAP2 DUP11 AND SWAP1 PUSH1 0x0 DUP1 MLOAD PUSH1 0x20 PUSH2 0x4A75 DUP4 CODECOPY DUP2 MLOAD SWAP2 MSTORE SWAP1 PUSH1 0x20 ADD PUSH1 0x40 MLOAD DUP1 SWAP2 SUB SWAP1 LOG3 JUMPDEST PUSH2 0x4020 DUP2 DUP8 PUSH2 0x490C JUMP JUMPDEST SWAP9 SWAP8 POP POP POP POP POP POP POP POP JUMP JUMPDEST PUSH1 0x5 SLOAD PUSH2 0x405F PUSH1 0x5 SLOAD PUSH1 0x26 SLOAD PUSH1 0x3A SLOAD PUSH2 0x4045 SWAP2 SWAP1 PUSH2 0x4861 JUMP JUMPDEST PUSH2 0x4050 SWAP1 PUSH1 0x64 PUSH2 0x4861 JUMP JUMPDEST PUSH2 0x405A SWAP2 SWAP1 PUSH2 0x4861 JUMP JUMPDEST PUSH2 0x417A JUMP JUMPDEST PUSH1 0xB SLOAD PUSH2 0x406C SWAP2 SWAP1 PUSH2 0x490C JUMP JUMPDEST PUSH2 0x4076 SWAP2 SWAP1 PUSH2 0x488E JUMP JUMPDEST PUSH1 0x34 SSTORE PUSH1 0x5 SLOAD PUSH1 0x26 SLOAD PUSH1 0x3B SLOAD PUSH2 0x4092 SWAP2 DUP4 SWAP2 PUSH2 0x4045 SWAP2 SWAP1 PUSH2 0x4861 JUMP JUMPDEST PUSH1 0xB SLOAD PUSH2 0x409F SWAP2 SWAP1 PUSH2 0x490C JUMP JUMPDEST PUSH2 0x40A9 SWAP2 SWAP1 PUSH2 0x488E JUMP JUMPDEST PUSH1 0x35 SSTORE PUSH1 0x5 SLOAD PUSH1 0x26 SLOAD PUSH1 0x3C SLOAD PUSH2 0x40C5 SWAP2 DUP4 SWAP2 PUSH2 0x4045 SWAP2 SWAP1 PUSH2 0x4861 JUMP JUMPDEST PUSH1 0xB SLOAD PUSH2 0x40D2 SWAP2 SWAP1 PUSH2 0x490C JUMP JUMPDEST PUSH2 0x40DC SWAP2 SWAP1 PUSH2 0x488E JUMP JUMPDEST PUSH1 0x36 SSTORE PUSH1 0x5 SLOAD PUSH1 0x26 SLOAD PUSH1 0x3D SLOAD PUSH2 0x40F8 SWAP2 DUP4 SWAP2 PUSH2 0x4045 SWAP2 SWAP1 PUSH2 0x4861 JUMP JUMPDEST PUSH1 0xD SLOAD PUSH2 0x4105 SWAP2 SWAP1 PUSH2 0x490C JUMP JUMPDEST PUSH2 0x410F SWAP2 SWAP1 PUSH2 0x488E JUMP JUMPDEST PUSH1 0x37 SSTORE PUSH1 0x5 SLOAD PUSH1 0x26 SLOAD PUSH1 0x3E SLOAD PUSH2 0x412B SWAP2 DUP4 SWAP2 PUSH2 0x4045 SWAP2 SWAP1 PUSH2 0x4861 JUMP JUMPDEST PUSH1 0xD SLOAD PUSH2 0x4138 SWAP2 SWAP1 PUSH2 0x490C JUMP JUMPDEST PUSH2 0x4142 SWAP2 SWAP1 PUSH2 0x488E JUMP JUMPDEST PUSH1 0x38 SSTORE PUSH1 0x5 SLOAD PUSH1 0x26 SLOAD PUSH1 0x3F SLOAD PUSH2 0x415E SWAP2 DUP4 SWAP2 PUSH2 0x4045 SWAP2 SWAP1 PUSH2 0x4861 JUMP JUMPDEST PUSH1 0xD SLOAD PUSH2 0x416B SWAP2 SWAP1 PUSH2 0x490C JUMP JUMPDEST PUSH2 0x4175 SWAP2 SWAP1 PUSH2 0x488E JUMP JUMPDEST PUSH1 0x39 SSTORE JUMP JUMPDEST PUSH1 0x0 DUP2 PUSH1 0x0 SUB PUSH2 0x418C JUMPI POP PUSH1 0x0 SWAP2 SWAP1 POP JUMP JUMPDEST PUSH1 0x0 PUSH1 0x1 PUSH2 0x4199 DUP5 PUSH2 0x4262 JUMP JUMPDEST SWAP1 SHR PUSH1 0x1 SWAP1 SHL SWAP1 POP PUSH1 0x1 DUP2 DUP5 DUP2 PUSH2 0x41B2 JUMPI PUSH2 0x41B2 PUSH2 0x4878 JUMP JUMPDEST DIV DUP3 ADD SWAP1 SHR SWAP1 POP PUSH1 0x1 DUP2 DUP5 DUP2 PUSH2 0x41CA JUMPI PUSH2 0x41CA PUSH2 0x4878 JUMP JUMPDEST DIV DUP3 ADD SWAP1 SHR SWAP1 POP PUSH1 0x1 DUP2 DUP5 DUP2 PUSH2 0x41E2 JUMPI PUSH2 0x41E2 PUSH2 0x4878 JUMP JUMPDEST DIV DUP3 ADD SWAP1 SHR SWAP1 POP PUSH1 0x1 DUP2 DUP5 DUP2 PUSH2 0x41FA JUMPI PUSH2 0x41FA PUSH2 0x4878 JUMP JUMPDEST DIV DUP3 ADD SWAP1 SHR SWAP1 POP PUSH1 0x1 DUP2 DUP5 DUP2 PUSH2 0x4212 JUMPI PUSH2 0x4212 PUSH2 0x4878 JUMP JUMPDEST DIV DUP3 ADD SWAP1 SHR SWAP1 POP PUSH1 0x1 DUP2 DUP5 DUP2 PUSH2 0x422A JUMPI PUSH2 0x422A PUSH2 0x4878 JUMP JUMPDEST DIV DUP3 ADD SWAP1 SHR SWAP1 POP PUSH1 0x1 DUP2 DUP5 DUP2 PUSH2 0x4242 JUMPI PUSH2 0x4242 PUSH2 0x4878 JUMP JUMPDEST DIV DUP3 ADD SWAP1 SHR SWAP1 POP PUSH2 0x2A13 DUP2 DUP3 DUP6 DUP2 PUSH2 0x425C JUMPI PUSH2 0x425C PUSH2 0x4878 JUMP JUMPDEST DIV PUSH2 0x42F6 JUMP JUMPDEST PUSH1 0x0 DUP1 PUSH1 0x80 DUP4 SWAP1 SHR ISZERO PUSH2 0x4277 JUMPI PUSH1 0x80 SWAP3 DUP4 SHR SWAP3 ADD JUMPDEST PUSH1 0x40 DUP4 SWAP1 SHR ISZERO PUSH2 0x4289 JUMPI PUSH1 0x40 SWAP3 DUP4 SHR SWAP3 ADD JUMPDEST PUSH1 0x20 DUP4 SWAP1 SHR ISZERO PUSH2 0x429B JUMPI PUSH1 0x20 SWAP3 DUP4 SHR SWAP3 ADD JUMPDEST PUSH1 0x10 DUP4 SWAP1 SHR ISZERO PUSH2 0x42AD JUMPI PUSH1 0x10 SWAP3 DUP4 SHR SWAP3 ADD JUMPDEST PUSH1 0x8 DUP4 SWAP1 SHR ISZERO PUSH2 0x42BF JUMPI PUSH1 0x8 SWAP3 DUP4 SHR SWAP3 ADD JUMPDEST PUSH1 0x4 DUP4 SWAP1 SHR ISZERO PUSH2 0x42D1 JUMPI PUSH1 0x4 SWAP3 DUP4 SHR SWAP3 ADD JUMPDEST PUSH1 0x2 DUP4 SWAP1 SHR ISZERO PUSH2 0x42E3 JUMPI PUSH1 0x2 SWAP3 DUP4 SHR SWAP3 ADD JUMPDEST PUSH1 0x1 DUP4 SWAP1 SHR ISZERO PUSH2 0x11E8 JUMPI PUSH1 0x1 ADD SWAP3 SWAP2 POP POP JUMP JUMPDEST PUSH1 0x0 DUP2 DUP4 LT PUSH2 0x4305 JUMPI DUP2 PUSH2 0x2A13 JUMP JUMPDEST POP SWAP1 SWAP2 SWAP1 POP JUMP JUMPDEST PUSH1 0x40 MLOAD DUP1 PUSH1 0xA0 ADD PUSH1 0x40 MSTORE DUP1 PUSH1 0x5 SWAP1 PUSH1 0x20 DUP3 MUL DUP1 CALLDATASIZE DUP4 CALLDATACOPY POP SWAP2 SWAP3 SWAP2 POP POP JUMP JUMPDEST DUP3 DUP1 SLOAD DUP3 DUP3 SSTORE SWAP1 PUSH1 0x0 MSTORE PUSH1 0x20 PUSH1 0x0 KECCAK256 SWAP1 DUP2 ADD SWAP3 DUP3 ISZERO PUSH2 0x4365 JUMPI SWAP2 PUSH1 0x20 MUL DUP3 ADD JUMPDEST DUP3 DUP2 GT ISZERO PUSH2 0x4365 JUMPI DUP3 MLOAD DUP3 SSTORE SWAP2 PUSH1 0x20 ADD SWAP2 SWAP1 PUSH1 0x1 ADD SWAP1 PUSH2 0x434A JUMP JUMPDEST POP PUSH2 0x4371 SWAP3 SWAP2 POP PUSH2 0x43BD JUMP JUMPDEST POP SWAP1 JUMP JUMPDEST DUP3 PUSH1 0x5 DUP2 ADD SWAP3 DUP3 ISZERO PUSH2 0x4365 JUMPI SWAP2 PUSH1 0x20 MUL DUP3 ADD JUMPDEST DUP3 DUP2 GT ISZERO PUSH2 0x4365 JUMPI DUP3 MLOAD DUP3 SLOAD PUSH1 0x1 PUSH1 0x1 PUSH1 0xA0 SHL SUB NOT AND PUSH1 0x1 PUSH1 0x1 PUSH1 0xA0 SHL SUB SWAP1 SWAP2 AND OR DUP3 SSTORE PUSH1 0x20 SWAP1 SWAP3 ADD SWAP2 PUSH1 0x1 SWAP1 SWAP2 ADD SWAP1 PUSH2 0x4388 JUMP JUMPDEST JUMPDEST DUP1 DUP3 GT ISZERO PUSH2 0x4371 JUMPI PUSH1 0x0 DUP2 SSTORE PUSH1 0x1 ADD PUSH2 0x43BE JUMP JUMPDEST PUSH1 0x1 PUSH1 0x1 PUSH1 0xA0 SHL SUB DUP2 AND DUP2 EQ PUSH2 0x1E55 JUMPI PUSH1 0x0 DUP1 REVERT JUMPDEST PUSH1 0x0 PUSH1 0x20 DUP3 DUP5 SUB SLT ISZERO PUSH2 0x43F9 JUMPI PUSH1 0x0 DUP1 REVERT JUMPDEST DUP2 CALLDATALOAD PUSH2 0x2A13 DUP2 PUSH2 0x43D2 JUMP JUMPDEST PUSH1 0x0 PUSH1 0x20 DUP3 DUP5 SUB SLT ISZERO PUSH2 0x4416 JUMPI PUSH1 0x0 DUP1 REVERT JUMPDEST DUP2 CALLDATALOAD PUSH1 0x1 PUSH1 0x1 PUSH1 0xE0 SHL SUB NOT DUP2 AND DUP2 EQ PUSH2 0x2A13 JUMPI PUSH1 0x0 DUP1 REVERT JUMPDEST PUSH1 0x0 PUSH1 0x20 DUP1 DUP4 MSTORE DUP4 MLOAD DUP1 DUP3 DUP6 ADD MSTORE PUSH1 0x0 JUMPDEST DUP2 DUP2 LT ISZERO PUSH2 0x445B JUMPI DUP6 DUP2 ADD DUP4 ADD MLOAD DUP6 DUP3 ADD PUSH1 0x40 ADD MSTORE DUP3 ADD PUSH2 0x443F JUMP JUMPDEST POP PUSH1 0x0 PUSH1 0x40 DUP3 DUP7 ADD ADD MSTORE PUSH1 0x40 PUSH1 0x1F NOT PUSH1 0x1F DUP4 ADD AND DUP6 ADD ADD SWAP3 POP POP POP SWAP3 SWAP2 POP POP JUMP JUMPDEST PUSH1 0x0 DUP1 PUSH1 0x40 DUP4 DUP6 SUB SLT ISZERO PUSH2 0x448F JUMPI PUSH1 0x0 DUP1 REVERT JUMPDEST DUP3 CALLDATALOAD PUSH2 0x449A DUP2 PUSH2 0x43D2 JUMP JUMPDEST SWAP5 PUSH1 0x20 SWAP4 SWAP1 SWAP4 ADD CALLDATALOAD SWAP4 POP POP POP JUMP JUMPDEST PUSH1 0x0 PUSH1 0x20 DUP3 DUP5 SUB SLT ISZERO PUSH2 0x44BA JUMPI PUSH1 0x0 DUP1 REVERT JUMPDEST POP CALLDATALOAD SWAP2 SWAP1 POP JUMP JUMPDEST PUSH4 0x4E487B71 PUSH1 0xE0 SHL PUSH1 0x0 MSTORE PUSH1 0x41 PUSH1 0x4 MSTORE PUSH1 0x24 PUSH1 0x0 REVERT JUMPDEST PUSH1 0x40 MLOAD PUSH1 0x1F DUP3 ADD PUSH1 0x1F NOT AND DUP2 ADD PUSH8 0xFFFFFFFFFFFFFFFF DUP2 GT DUP3 DUP3 LT OR ISZERO PUSH2 0x4500 JUMPI PUSH2 0x4500 PUSH2 0x44C1 JUMP JUMPDEST PUSH1 0x40 MSTORE SWAP2 SWAP1 POP JUMP JUMPDEST PUSH1 0x0 PUSH8 0xFFFFFFFFFFFFFFFF DUP3 GT ISZERO PUSH2 0x4522 JUMPI PUSH2 0x4522 PUSH2 0x44C1 JUMP JUMPDEST POP PUSH1 0x5 SHL PUSH1 0x20 ADD SWAP1 JUMP JUMPDEST PUSH1 0x0 DUP1 PUSH1 0x40 DUP4 DUP6 SUB SLT ISZERO PUSH2 0x453F JUMPI PUSH1 0x0 DUP1 REVERT JUMPDEST DUP3 CALLDATALOAD SWAP2 POP PUSH1 0x20 DUP1 DUP5 ADD CALLDATALOAD PUSH8 0xFFFFFFFFFFFFFFFF DUP2 GT ISZERO PUSH2 0x455E JUMPI PUSH1 0x0 DUP1 REVERT JUMPDEST DUP5 ADD PUSH1 0x1F DUP2 ADD DUP7 SGT PUSH2 0x456F JUMPI PUSH1 0x0 DUP1 REVERT JUMPDEST DUP1 CALLDATALOAD PUSH2 0x4582 PUSH2 0x457D DUP3 PUSH2 0x4508 JUMP JUMPDEST PUSH2 0x44D7 JUMP JUMPDEST DUP2 DUP2 MSTORE PUSH1 0x5 SWAP2 SWAP1 SWAP2 SHL DUP3 ADD DUP4 ADD SWAP1 DUP4 DUP2 ADD SWAP1 DUP9 DUP4 GT ISZERO PUSH2 0x45A1 JUMPI PUSH1 0x0 DUP1 REVERT JUMPDEST SWAP3 DUP5 ADD SWAP3 JUMPDEST DUP3 DUP5 LT ISZERO PUSH2 0x45BF JUMPI DUP4 CALLDATALOAD DUP3 MSTORE SWAP3 DUP5 ADD SWAP3 SWAP1 DUP5 ADD SWAP1 PUSH2 0x45A6 JUMP JUMPDEST DUP1 SWAP6 POP POP POP POP POP POP SWAP3 POP SWAP3 SWAP1 POP JUMP JUMPDEST DUP1 CALLDATALOAD DUP1 ISZERO ISZERO DUP2 EQ PUSH2 0x45DE JUMPI PUSH1 0x0 DUP1 REVERT JUMPDEST SWAP2 SWAP1 POP JUMP JUMPDEST PUSH1 0x0 DUP1 PUSH1 0x40 DUP4 DUP6 SUB SLT ISZERO PUSH2 0x45F6 JUMPI PUSH1 0x0 DUP1 REVERT JUMPDEST DUP3 CALLDATALOAD PUSH2 0x4601 DUP2 PUSH2 0x43D2 JUMP JUMPDEST SWAP2 POP PUSH2 0x460F PUSH1 0x20 DUP5 ADD PUSH2 0x45CE JUMP JUMPDEST SWAP1 POP SWAP3 POP SWAP3 SWAP1 POP JUMP JUMPDEST PUSH1 0x0 DUP1 PUSH1 0x0 PUSH1 0x60 DUP5 DUP7 SUB SLT ISZERO PUSH2 0x462D JUMPI PUSH1 0x0 DUP1 REVERT JUMPDEST DUP4 CALLDATALOAD PUSH2 0x4638 DUP2 PUSH2 0x43D2 JUMP JUMPDEST SWAP3 POP PUSH1 0x20 DUP5 ADD CALLDATALOAD PUSH2 0x4648 DUP2 PUSH2 0x43D2 JUMP JUMPDEST SWAP3 SWAP6 SWAP3 SWAP5 POP POP POP PUSH1 0x40 SWAP2 SWAP1 SWAP2 ADD CALLDATALOAD SWAP1 JUMP JUMPDEST PUSH1 0x0 DUP1 PUSH1 0x40 DUP4 DUP6 SUB SLT ISZERO PUSH2 0x466C JUMPI PUSH1 0x0 DUP1 REVERT JUMPDEST DUP3 CALLDATALOAD SWAP2 POP PUSH1 0x20 DUP4 ADD CALLDATALOAD PUSH2 0x467E DUP2 PUSH2 0x43D2 JUMP JUMPDEST DUP1 SWAP2 POP POP SWAP3 POP SWAP3 SWAP1 POP JUMP JUMPDEST PUSH1 0x0 DUP2 MLOAD DUP1 DUP5 MSTORE PUSH1 0x20 DUP1 DUP6 ADD SWAP5 POP DUP1 DUP5 ADD PUSH1 0x0 JUMPDEST DUP4 DUP2 LT ISZERO PUSH2 0x46C2 JUMPI DUP2 MLOAD PUSH1 0x1 PUSH1 0x1 PUSH1 0xA0 SHL SUB AND DUP8 MSTORE SWAP6 DUP3 ADD SWAP6 SWAP1 DUP3 ADD SWAP1 PUSH1 0x1 ADD PUSH2 0x469D JUMP JUMPDEST POP SWAP5 SWAP6 SWAP5 POP POP POP POP POP JUMP JUMPDEST PUSH1 0x20 DUP2 MSTORE PUSH1 0x0 PUSH2 0x2A13 PUSH1 0x20 DUP4 ADD DUP5 PUSH2 0x4689 JUMP JUMPDEST PUSH1 0xA0 DUP2 ADD DUP2 DUP4 PUSH1 0x0 JUMPDEST PUSH1 0x5 DUP2 LT ISZERO PUSH2 0x4711 JUMPI DUP2 MLOAD PUSH1 0x1 PUSH1 0x1 PUSH1 0xA0 SHL SUB AND DUP4 MSTORE PUSH1 0x20 SWAP3 DUP4 ADD SWAP3 SWAP1 SWAP2 ADD SWAP1 PUSH1 0x1 ADD PUSH2 0x46E9 JUMP JUMPDEST POP POP POP SWAP3 SWAP2 POP POP JUMP JUMPDEST PUSH1 0x0 DUP1 PUSH1 0x40 DUP4 DUP6 SUB SLT ISZERO PUSH2 0x472D JUMPI PUSH1 0x0 DUP1 REVERT JUMPDEST DUP3 CALLDATALOAD PUSH2 0x4738 DUP2 PUSH2 0x43D2 JUMP JUMPDEST SWAP2 POP PUSH1 0x20 DUP4 ADD CALLDATALOAD PUSH2 0x467E DUP2 PUSH2 0x43D2 JUMP JUMPDEST PUSH1 0x0 DUP1 PUSH1 0x40 DUP4 DUP6 SUB SLT ISZERO PUSH2 0x475B JUMPI PUSH1 0x0 DUP1 REVERT JUMPDEST PUSH2 0x449A DUP4 PUSH2 0x45CE JUMP JUMPDEST PUSH1 0x0 PUSH1 0x20 DUP1 DUP4 DUP6 SUB SLT ISZERO PUSH2 0x4777 JUMPI PUSH1 0x0 DUP1 REVERT JUMPDEST DUP3 CALLDATALOAD PUSH8 0xFFFFFFFFFFFFFFFF DUP2 GT ISZERO PUSH2 0x478E JUMPI PUSH1 0x0 DUP1 REVERT JUMPDEST DUP4 ADD PUSH1 0x1F DUP2 ADD DUP6 SGT PUSH2 0x479F JUMPI PUSH1 0x0 DUP1 REVERT JUMPDEST DUP1 CALLDATALOAD PUSH2 0x47AD PUSH2 0x457D DUP3 PUSH2 0x4508 JUMP JUMPDEST DUP2 DUP2 MSTORE PUSH1 0x5 SWAP2 SWAP1 SWAP2 SHL DUP3 ADD DUP4 ADD SWAP1 DUP4 DUP2 ADD SWAP1 DUP8 DUP4 GT ISZERO PUSH2 0x47CC JUMPI PUSH1 0x0 DUP1 REVERT JUMPDEST SWAP3 DUP5 ADD SWAP3 JUMPDEST DUP3 DUP5 LT ISZERO PUSH2 0x47F3 JUMPI DUP4 CALLDATALOAD PUSH2 0x47E4 DUP2 PUSH2 0x43D2 JUMP JUMPDEST DUP3 MSTORE SWAP3 DUP5 ADD SWAP3 SWAP1 DUP5 ADD SWAP1 PUSH2 0x47D1 JUMP JUMPDEST SWAP8 SWAP7 POP POP POP POP POP POP POP JUMP JUMPDEST PUSH4 0x4E487B71 PUSH1 0xE0 SHL PUSH1 0x0 MSTORE PUSH1 0x11 PUSH1 0x4 MSTORE PUSH1 0x24 PUSH1 0x0 REVERT JUMPDEST PUSH1 0x0 PUSH1 0x1 DUP3 ADD PUSH2 0x4826 JUMPI PUSH2 0x4826 PUSH2 0x47FE JUMP JUMPDEST POP PUSH1 0x1 ADD SWAP1 JUMP JUMPDEST PUSH1 0x1 DUP2 DUP2 SHR SWAP1 DUP3 AND DUP1 PUSH2 0x4841 JUMPI PUSH1 0x7F DUP3 AND SWAP2 POP JUMPDEST PUSH1 0x20 DUP3 LT DUP2 SUB PUSH2 0x2A34 JUMPI PUSH4 0x4E487B71 PUSH1 0xE0 SHL PUSH1 0x0 MSTORE PUSH1 0x22 PUSH1 0x4 MSTORE PUSH1 0x24 PUSH1 0x0 REVERT JUMPDEST DUP1 DUP3 MUL DUP2 ISZERO DUP3 DUP3 DIV DUP5 EQ OR PUSH2 0x11E8 JUMPI PUSH2 0x11E8 PUSH2 0x47FE JUMP JUMPDEST PUSH4 0x4E487B71 PUSH1 0xE0 SHL PUSH1 0x0 MSTORE PUSH1 0x12 PUSH1 0x4 MSTORE PUSH1 0x24 PUSH1 0x0 REVERT JUMPDEST PUSH1 0x0 DUP3 PUSH2 0x489D JUMPI PUSH2 0x489D PUSH2 0x4878 JUMP JUMPDEST POP DIV SWAP1 JUMP JUMPDEST PUSH1 0x20 DUP1 DUP3 MSTORE PUSH1 0x24 SWAP1 DUP3 ADD MSTORE PUSH32 0x45706F6368206973206F7665722C207761697420666F7220746865206E657874 PUSH1 0x40 DUP3 ADD MSTORE PUSH4 0x206F6E65 PUSH1 0xE0 SHL PUSH1 0x60 DUP3 ADD MSTORE PUSH1 0x80 ADD SWAP1 JUMP JUMPDEST PUSH1 0x20 DUP1 DUP3 MSTORE PUSH1 0xC SWAP1 DUP3 ADD MSTORE PUSH12 0x23B0B6B29034B99037BB32B9 PUSH1 0xA1 SHL PUSH1 0x40 DUP3 ADD MSTORE PUSH1 0x60 ADD SWAP1 JUMP JUMPDEST DUP2 DUP2 SUB DUP2 DUP2 GT ISZERO PUSH2 0x11E8 JUMPI PUSH2 0x11E8 PUSH2 0x47FE JUMP JUMPDEST DUP1 DUP3 ADD DUP1 DUP3 GT ISZERO PUSH2 0x11E8 JUMPI PUSH2 0x11E8 PUSH2 0x47FE JUMP JUMPDEST PUSH1 0x0 PUSH1 0x20 DUP3 DUP5 SUB SLT ISZERO PUSH2 0x4944 JUMPI PUSH1 0x0 DUP1 REVERT JUMPDEST DUP2 MLOAD PUSH2 0x2A13 DUP2 PUSH2 0x43D2 JUMP JUMPDEST PUSH1 0x20 DUP1 DUP3 MSTORE DUP3 SLOAD DUP3 DUP3 ADD DUP2 SWAP1 MSTORE PUSH1 0x0 DUP5 DUP2 MSTORE DUP3 DUP2 KECCAK256 SWAP1 SWAP3 SWAP2 PUSH1 0x40 DUP6 ADD SWAP1 DUP5 JUMPDEST DUP2 DUP2 LT ISZERO PUSH2 0x4993 JUMPI DUP4 SLOAD PUSH1 0x1 PUSH1 0x1 PUSH1 0xA0 SHL SUB AND DUP4 MSTORE PUSH1 0x1 SWAP4 DUP5 ADD SWAP4 SWAP3 DUP6 ADD SWAP3 ADD PUSH2 0x496E JUMP JUMPDEST POP SWAP1 SWAP7 SWAP6 POP POP POP POP POP POP JUMP JUMPDEST PUSH4 0x4E487B71 PUSH1 0xE0 SHL PUSH1 0x0 MSTORE PUSH1 0x32 PUSH1 0x4 MSTORE PUSH1 0x24 PUSH1 0x0 REVERT JUMPDEST PUSH1 0x0 DUP3 PUSH2 0x49C4 JUMPI PUSH2 0x49C4 PUSH2 0x4878 JUMP JUMPDEST POP MOD SWAP1 JUMP JUMPDEST PUSH1 0x0 PUSH1 0x40 DUP3 ADD DUP5 DUP4 MSTORE PUSH1 0x20 PUSH1 0x40 DUP2 DUP6 ADD MSTORE DUP2 DUP6 MLOAD DUP1 DUP5 MSTORE PUSH1 0x60 DUP7 ADD SWAP2 POP DUP3 DUP8 ADD SWAP4 POP PUSH1 0x0 JUMPDEST DUP2 DUP2 LT ISZERO PUSH2 0x4A0A JUMPI DUP5 MLOAD DUP4 MSTORE SWAP4 DUP4 ADD SWAP4 SWAP2 DUP4 ADD SWAP2 PUSH1 0x1 ADD PUSH2 0x49EE JUMP JUMPDEST POP SWAP1 SWAP8 SWAP7 POP POP POP POP POP POP POP JUMP JUMPDEST PUSH1 0x0 PUSH1 0x20 DUP3 DUP5 SUB SLT ISZERO PUSH2 0x4A29 JUMPI PUSH1 0x0 DUP1 REVERT JUMPDEST POP MLOAD SWAP2 SWAP1 POP JUMP JUMPDEST DUP7 DUP2 MSTORE DUP6 PUSH1 0x20 DUP3 ADD MSTORE PUSH1 0xC0 PUSH1 0x40 DUP3 ADD MSTORE PUSH1 0x0 PUSH2 0x4A4F PUSH1 0xC0 DUP4 ADD DUP8 PUSH2 0x4689 JUMP JUMPDEST PUSH1 0x1 PUSH1 0x1 PUSH1 0xA0 SHL SUB SWAP6 DUP7 AND PUSH1 0x60 DUP5 ADD MSTORE SWAP4 SWAP1 SWAP5 AND PUSH1 0x80 DUP3 ADD MSTORE PUSH1 0xA0 ADD MSTORE SWAP5 SWAP4 POP POP POP POP JUMP INVALID 0xDD CALLCODE MSTORE 0xAD SHL 0xE2 0xC8 SWAP12 PUSH10 0xC2B068FC378DAA952BA7 CALL PUSH4 0xC4A11628 CREATE2 GAS 0x4D CREATE2 0x23 0xB3 0xEF LOG4 SWAP9 SMOD KECCAK256 0x5C 0xE4 0xD3 SSTORE MULMOD 0x2E CREATE2 0xA8 LOG1 DUP16 JUMP 0xE8 SWAP2 EXTCODECOPY DELEGATECALL LOG2 ADD 0xFB 0xE2 DUP8 DUP3 JUMPDEST MULMOD JUMP SWAP4 0xC2 OR PUSH22 0xA26469706673582212209D40148A6549DC6870710065 DUP6 0xCC 0x1E 0xC1 PUSH30 0x5F571E1FC7BE377992C950337953A164736F6C6343000814003360806040 MSTORE PUSH11 0x14ADF4B7320334B9000000 PUSH1 0x3 SSTORE PUSH1 0x0 PUSH1 0x4 SSTORE CALLVALUE DUP1 ISZERO PUSH2 0x24 JUMPI PUSH1 0x0 DUP1 REVERT JUMPDEST POP PUSH1 0x40 MLOAD PUSH2 0x89A CODESIZE SUB DUP1 PUSH2 0x89A DUP4 CODECOPY DUP2 ADD PUSH1 0x40 DUP2 SWAP1 MSTORE PUSH2 0x43 SWAP2 PUSH2 0x118 JUMP JUMPDEST DUP1 PUSH1 0x1 PUSH1 0x1 PUSH1 0xA0 SHL SUB DUP2 AND PUSH2 0x72 JUMPI PUSH1 0x40 MLOAD PUSH4 0x1E4FBDF7 PUSH1 0xE0 SHL DUP2 MSTORE PUSH1 0x0 PUSH1 0x4 DUP3 ADD MSTORE PUSH1 0x24 ADD PUSH1 0x40 MLOAD DUP1 SWAP2 SUB SWAP1 REVERT JUMPDEST PUSH2 0x7B DUP2 PUSH2 0xAC JUMP JUMPDEST POP POP PUSH1 0x1 DUP1 SLOAD PUSH1 0x1 PUSH1 0x1 PUSH1 0xA0 SHL SUB SWAP1 SWAP3 AND PUSH1 0x1 PUSH1 0x1 PUSH1 0xA0 SHL SUB NOT SWAP3 DUP4 AND DUP2 OR SWAP1 SWAP2 SSTORE PUSH1 0x2 DUP1 SLOAD SWAP1 SWAP3 AND OR SWAP1 SSTORE PUSH2 0x14B JUMP JUMPDEST PUSH1 0x0 DUP1 SLOAD PUSH1 0x1 PUSH1 0x1 PUSH1 0xA0 SHL SUB DUP4 DUP2 AND PUSH1 0x1 PUSH1 0x1 PUSH1 0xA0 SHL SUB NOT DUP4 AND DUP2 OR DUP5 SSTORE PUSH1 0x40 MLOAD SWAP2 SWAP1 SWAP3 AND SWAP3 DUP4 SWAP2 PUSH32 0x8BE0079C531659141344CD1FD0A4F28419497F9722A3DAAFE3B4186F6B6457E0 SWAP2 SWAP1 LOG3 POP POP JUMP JUMPDEST DUP1 MLOAD PUSH1 0x1 PUSH1 0x1 PUSH1 0xA0 SHL SUB DUP2 AND DUP2 EQ PUSH2 0x113 JUMPI PUSH1 0x0 DUP1 REVERT JUMPDEST SWAP2 SWAP1 POP JUMP JUMPDEST PUSH1 0x0 DUP1 PUSH1 0x40 DUP4 DUP6 SUB SLT ISZERO PUSH2 0x12B JUMPI PUSH1 0x0 DUP1 REVERT JUMPDEST PUSH2 0x134 DUP4 PUSH2 0xFC JUMP JUMPDEST SWAP2 POP PUSH2 0x142 PUSH1 0x20 DUP5 ADD PUSH2 0xFC JUMP JUMPDEST SWAP1 POP SWAP3 POP SWAP3 SWAP1 POP JUMP JUMPDEST PUSH2 0x740 DUP1 PUSH2 0x15A PUSH1 0x0 CODECOPY PUSH1 0x0 RETURN INVALID PUSH1 0x80 PUSH1 0x40 MSTORE CALLVALUE DUP1 ISZERO PUSH2 0x10 JUMPI PUSH1 0x0 DUP1 REVERT JUMPDEST POP PUSH1 0x4 CALLDATASIZE LT PUSH2 0x88 JUMPI PUSH1 0x0 CALLDATALOAD PUSH1 0xE0 SHR DUP1 PUSH4 0xEFCA2EED GT PUSH2 0x5B JUMPI DUP1 PUSH4 0xEFCA2EED EQ PUSH2 0xDC JUMPI DUP1 PUSH4 0xF25ADDF5 EQ PUSH2 0xF3 JUMPI DUP1 PUSH4 0xF2FDE38B EQ PUSH2 0x106 JUMPI DUP1 PUSH4 0xFC0C546A EQ PUSH2 0x119 JUMPI PUSH1 0x0 DUP1 REVERT JUMPDEST DUP1 PUSH4 0x715018A6 EQ PUSH2 0x8D JUMPI DUP1 PUSH4 0x853828B6 EQ PUSH2 0x97 JUMPI DUP1 PUSH4 0x8DA5CB5B EQ PUSH2 0x9F JUMPI DUP1 PUSH4 0x9D76EA58 EQ PUSH2 0xC9 JUMPI JUMPDEST PUSH1 0x0 DUP1 REVERT JUMPDEST PUSH2 0x95 PUSH2 0x12C JUMP JUMPDEST STOP JUMPDEST PUSH2 0x95 PUSH2 0x140 JUMP JUMPDEST PUSH1 0x0 SLOAD PUSH1 0x1 PUSH1 0x1 PUSH1 0xA0 SHL SUB AND JUMPDEST PUSH1 0x40 MLOAD PUSH1 0x1 PUSH1 0x1 PUSH1 0xA0 SHL SUB SWAP1 SWAP2 AND DUP2 MSTORE PUSH1 0x20 ADD JUMPDEST PUSH1 0x40 MLOAD DUP1 SWAP2 SUB SWAP1 RETURN JUMPDEST PUSH1 0x2 SLOAD PUSH2 0xAC SWAP1 PUSH1 0x1 PUSH1 0x1 PUSH1 0xA0 SHL SUB AND DUP2 JUMP JUMPDEST PUSH2 0xE5 PUSH1 0x4 SLOAD DUP2 JUMP JUMPDEST PUSH1 0x40 MLOAD SWAP1 DUP2 MSTORE PUSH1 0x20 ADD PUSH2 0xC0 JUMP JUMPDEST PUSH2 0x95 PUSH2 0x101 CALLDATASIZE PUSH1 0x4 PUSH2 0x568 JUMP JUMPDEST PUSH2 0x230 JUMP JUMPDEST PUSH2 0x95 PUSH2 0x114 CALLDATASIZE PUSH1 0x4 PUSH2 0x62D JUMP JUMPDEST PUSH2 0x47E JUMP JUMPDEST PUSH1 0x1 SLOAD PUSH2 0xAC SWAP1 PUSH1 0x1 PUSH1 0x1 PUSH1 0xA0 SHL SUB AND DUP2 JUMP JUMPDEST PUSH2 0x134 PUSH2 0x4B9 JUMP JUMPDEST PUSH2 0x13E PUSH1 0x0 PUSH2 0x4E6 JUMP JUMPDEST JUMP JUMPDEST PUSH2 0x148 PUSH2 0x4B9 JUMP JUMPDEST PUSH1 0x1 SLOAD PUSH1 0x40 MLOAD PUSH4 0x70A08231 PUSH1 0xE0 SHL DUP2 MSTORE ADDRESS PUSH1 0x4 DUP3 ADD MSTORE PUSH1 0x1 PUSH1 0x1 PUSH1 0xA0 SHL SUB SWAP1 SWAP2 AND SWAP1 PUSH4 0xA9059CBB SWAP1 CALLER SWAP1 DUP4 SWAP1 PUSH4 0x70A08231 SWAP1 PUSH1 0x24 ADD PUSH1 0x20 PUSH1 0x40 MLOAD DUP1 DUP4 SUB DUP2 DUP7 GAS STATICCALL ISZERO DUP1 ISZERO PUSH2 0x19A JUMPI RETURNDATASIZE PUSH1 0x0 DUP1 RETURNDATACOPY RETURNDATASIZE PUSH1 0x0 REVERT JUMPDEST POP POP POP POP PUSH1 0x40 MLOAD RETURNDATASIZE PUSH1 0x1F NOT PUSH1 0x1F DUP3 ADD AND DUP3 ADD DUP1 PUSH1 0x40 MSTORE POP DUP2 ADD SWAP1 PUSH2 0x1BE SWAP2 SWAP1 PUSH2 0x64F JUMP JUMPDEST PUSH1 0x40 MLOAD PUSH1 0x1 PUSH1 0x1 PUSH1 0xE0 SHL SUB NOT PUSH1 0xE0 DUP6 SWAP1 SHL AND DUP2 MSTORE PUSH1 0x1 PUSH1 0x1 PUSH1 0xA0 SHL SUB SWAP1 SWAP3 AND PUSH1 0x4 DUP4 ADD MSTORE PUSH1 0x24 DUP3 ADD MSTORE PUSH1 0x44 ADD PUSH1 0x20 PUSH1 0x40 MLOAD DUP1 DUP4 SUB DUP2 PUSH1 0x0 DUP8 GAS CALL ISZERO DUP1 ISZERO PUSH2 0x209 JUMPI RETURNDATASIZE PUSH1 0x0 DUP1 RETURNDATACOPY RETURNDATASIZE PUSH1 0x0 REVERT JUMPDEST POP POP POP POP PUSH1 0x40 MLOAD RETURNDATASIZE PUSH1 0x1F NOT PUSH1 0x1F DUP3 ADD AND DUP3 ADD DUP1 PUSH1 0x40 MSTORE POP DUP2 ADD SWAP1 PUSH2 0x22D SWAP2 SWAP1 PUSH2 0x668 JUMP JUMPDEST POP JUMP JUMPDEST PUSH1 0x2 SLOAD PUSH1 0x1 PUSH1 0x1 PUSH1 0xA0 SHL SUB AND CALLER EQ PUSH2 0x2A2 JUMPI PUSH1 0x40 MLOAD PUSH3 0x461BCD PUSH1 0xE5 SHL DUP2 MSTORE PUSH1 0x20 PUSH1 0x4 DUP3 ADD MSTORE PUSH1 0x2A PUSH1 0x24 DUP3 ADD MSTORE PUSH32 0x4F6E6C7920746F6B656E20636F6E74726163742063616E2063616C6C20746869 PUSH1 0x44 DUP3 ADD MSTORE PUSH10 0x3990333AB731BA34B7B7 PUSH1 0xB1 SHL PUSH1 0x64 DUP3 ADD MSTORE PUSH1 0x84 ADD JUMPDEST PUSH1 0x40 MLOAD DUP1 SWAP2 SUB SWAP1 REVERT JUMPDEST PUSH1 0x3 SLOAD PUSH1 0x1 SLOAD PUSH1 0x40 MLOAD PUSH4 0x70A08231 PUSH1 0xE0 SHL DUP2 MSTORE ADDRESS PUSH1 0x4 DUP3 ADD MSTORE PUSH1 0x0 SWAP3 SWAP2 PUSH1 0x1 PUSH1 0x1 PUSH1 0xA0 SHL SUB AND SWAP1 PUSH4 0x70A08231 SWAP1 PUSH1 0x24 ADD PUSH1 0x20 PUSH1 0x40 MLOAD DUP1 DUP4 SUB DUP2 DUP7 GAS STATICCALL ISZERO DUP1 ISZERO PUSH2 0x2EF JUMPI RETURNDATASIZE PUSH1 0x0 DUP1 RETURNDATACOPY RETURNDATASIZE PUSH1 0x0 REVERT JUMPDEST POP POP POP POP PUSH1 0x40 MLOAD RETURNDATASIZE PUSH1 0x1F NOT PUSH1 0x1F DUP3 ADD AND DUP3 ADD DUP1 PUSH1 0x40 MSTORE POP DUP2 ADD SWAP1 PUSH2 0x313 SWAP2 SWAP1 PUSH2 0x64F JUMP JUMPDEST GT PUSH2 0x389 JUMPI PUSH1 0x1 SLOAD PUSH1 0x40 MLOAD PUSH4 0x70A08231 PUSH1 0xE0 SHL DUP2 MSTORE ADDRESS PUSH1 0x4 DUP3 ADD MSTORE PUSH1 0x1 PUSH1 0x1 PUSH1 0xA0 SHL SUB SWAP1 SWAP2 AND SWAP1 PUSH4 0x70A08231 SWAP1 PUSH1 0x24 ADD PUSH1 0x20 PUSH1 0x40 MLOAD DUP1 DUP4 SUB DUP2 DUP7 GAS STATICCALL ISZERO DUP1 ISZERO PUSH2 0x360 JUMPI RETURNDATASIZE PUSH1 0x0 DUP1 RETURNDATACOPY RETURNDATASIZE PUSH1 0x0 REVERT JUMPDEST POP POP POP POP PUSH1 0x40 MLOAD RETURNDATASIZE PUSH1 0x1F NOT PUSH1 0x1F DUP3 ADD AND DUP3 ADD DUP1 PUSH1 0x40 MSTORE POP DUP2 ADD SWAP1 PUSH2 0x384 SWAP2 SWAP1 PUSH2 0x64F JUMP JUMPDEST PUSH2 0x38D JUMP JUMPDEST PUSH1 0x3 SLOAD JUMPDEST SWAP1 POP DUP1 PUSH1 0x4 PUSH1 0x0 DUP3 DUP3 SLOAD PUSH2 0x3A1 SWAP2 SWAP1 PUSH2 0x6A0 JUMP JUMPDEST SWAP1 SWAP2 SSTORE POP POP DUP1 ISZERO PUSH2 0x47A JUMPI PUSH1 0x0 JUMPDEST DUP3 MLOAD DUP2 LT ISZERO PUSH2 0x478 JUMPI PUSH1 0x1 SLOAD DUP4 MLOAD PUSH1 0x1 PUSH1 0x1 PUSH1 0xA0 SHL SUB SWAP1 SWAP2 AND SWAP1 PUSH4 0xA9059CBB SWAP1 DUP6 SWAP1 DUP5 SWAP1 DUP2 LT PUSH2 0x3E1 JUMPI PUSH2 0x3E1 PUSH2 0x6B9 JUMP JUMPDEST PUSH1 0x20 MUL PUSH1 0x20 ADD ADD MLOAD DUP6 MLOAD DUP6 PUSH2 0x3F6 SWAP2 SWAP1 PUSH2 0x6CF JUMP JUMPDEST PUSH1 0x40 MLOAD PUSH1 0x1 PUSH1 0x1 PUSH1 0xE0 SHL SUB NOT PUSH1 0xE0 DUP6 SWAP1 SHL AND DUP2 MSTORE PUSH1 0x1 PUSH1 0x1 PUSH1 0xA0 SHL SUB SWAP1 SWAP3 AND PUSH1 0x4 DUP4 ADD MSTORE PUSH1 0x24 DUP3 ADD MSTORE PUSH1 0x44 ADD PUSH1 0x20 PUSH1 0x40 MLOAD DUP1 DUP4 SUB DUP2 PUSH1 0x0 DUP8 GAS CALL ISZERO DUP1 ISZERO PUSH2 0x441 JUMPI RETURNDATASIZE PUSH1 0x0 DUP1 RETURNDATACOPY RETURNDATASIZE PUSH1 0x0 REVERT JUMPDEST POP POP POP POP PUSH1 0x40 MLOAD RETURNDATASIZE PUSH1 0x1F NOT PUSH1 0x1F DUP3 ADD AND DUP3 ADD DUP1 PUSH1 0x40 MSTORE POP DUP2 ADD SWAP1 PUSH2 0x465 SWAP2 SWAP1 PUSH2 0x668 JUMP JUMPDEST POP DUP1 PUSH2 0x470 DUP2 PUSH2 0x6F1 JUMP JUMPDEST SWAP2 POP POP PUSH2 0x3AF JUMP JUMPDEST POP JUMPDEST POP POP JUMP JUMPDEST PUSH2 0x486 PUSH2 0x4B9 JUMP JUMPDEST PUSH1 0x1 PUSH1 0x1 PUSH1 0xA0 SHL SUB DUP2 AND PUSH2 0x4B0 JUMPI PUSH1 0x40 MLOAD PUSH4 0x1E4FBDF7 PUSH1 0xE0 SHL DUP2 MSTORE PUSH1 0x0 PUSH1 0x4 DUP3 ADD MSTORE PUSH1 0x24 ADD PUSH2 0x299 JUMP JUMPDEST PUSH2 0x22D DUP2 PUSH2 0x4E6 JUMP JUMPDEST PUSH1 0x0 SLOAD PUSH1 0x1 PUSH1 0x1 PUSH1 0xA0 SHL SUB AND CALLER EQ PUSH2 0x13E JUMPI PUSH1 0x40 MLOAD PUSH4 0x118CDAA7 PUSH1 0xE0 SHL DUP2 MSTORE CALLER PUSH1 0x4 DUP3 ADD MSTORE PUSH1 0x24 ADD PUSH2 0x299 JUMP JUMPDEST PUSH1 0x0 DUP1 SLOAD PUSH1 0x1 PUSH1 0x1 PUSH1 0xA0 SHL SUB DUP4 DUP2 AND PUSH1 0x1 PUSH1 0x1 PUSH1 0xA0 SHL SUB NOT DUP4 AND DUP2 OR DUP5 SSTORE PUSH1 0x40 MLOAD SWAP2 SWAP1 SWAP3 AND SWAP3 DUP4 SWAP2 PUSH32 0x8BE0079C531659141344CD1FD0A4F28419497F9722A3DAAFE3B4186F6B6457E0 SWAP2 SWAP1 LOG3 POP POP JUMP JUMPDEST PUSH4 0x4E487B71 PUSH1 0xE0 SHL PUSH1 0x0 MSTORE PUSH1 0x41 PUSH1 0x4 MSTORE PUSH1 0x24 PUSH1 0x0 REVERT JUMPDEST DUP1 CALLDATALOAD PUSH1 0x1 PUSH1 0x1 PUSH1 0xA0 SHL SUB DUP2 AND DUP2 EQ PUSH2 0x563 JUMPI PUSH1 0x0 DUP1 REVERT JUMPDEST SWAP2 SWAP1 POP JUMP JUMPDEST PUSH1 0x0 PUSH1 0x20 DUP1 DUP4 DUP6 SUB SLT ISZERO PUSH2 0x57B JUMPI PUSH1 0x0 DUP1 REVERT JUMPDEST DUP3 CALLDATALOAD PUSH8 0xFFFFFFFFFFFFFFFF DUP1 DUP3 GT ISZERO PUSH2 0x593 JUMPI PUSH1 0x0 DUP1 REVERT JUMPDEST DUP2 DUP6 ADD SWAP2 POP DUP6 PUSH1 0x1F DUP4 ADD SLT PUSH2 0x5A7 JUMPI PUSH1 0x0 DUP1 REVERT JUMPDEST DUP2 CALLDATALOAD DUP2 DUP2 GT ISZERO PUSH2 0x5B9 JUMPI PUSH2 0x5B9 PUSH2 0x536 JUMP JUMPDEST DUP1 PUSH1 0x5 SHL PUSH1 0x40 MLOAD PUSH1 0x1F NOT PUSH1 0x3F DUP4 ADD AND DUP2 ADD DUP2 DUP2 LT DUP6 DUP3 GT OR ISZERO PUSH2 0x5DE JUMPI PUSH2 0x5DE PUSH2 0x536 JUMP JUMPDEST PUSH1 0x40 MSTORE SWAP2 DUP3 MSTORE DUP5 DUP3 ADD SWAP3 POP DUP4 DUP2 ADD DUP6 ADD SWAP2 DUP9 DUP4 GT ISZERO PUSH2 0x5FC JUMPI PUSH1 0x0 DUP1 REVERT JUMPDEST SWAP4 DUP6 ADD SWAP4 JUMPDEST DUP3 DUP6 LT ISZERO PUSH2 0x621 JUMPI PUSH2 0x612 DUP6 PUSH2 0x54C JUMP JUMPDEST DUP5 MSTORE SWAP4 DUP6 ADD SWAP4 SWAP3 DUP6 ADD SWAP3 PUSH2 0x601 JUMP JUMPDEST SWAP9 SWAP8 POP POP POP POP POP POP POP POP JUMP JUMPDEST PUSH1 0x0 PUSH1 0x20 DUP3 DUP5 SUB SLT ISZERO PUSH2 0x63F JUMPI PUSH1 0x0 DUP1 REVERT JUMPDEST PUSH2 0x648 DUP3 PUSH2 0x54C JUMP JUMPDEST SWAP4 SWAP3 POP POP POP JUMP JUMPDEST PUSH1 0x0 PUSH1 0x20 DUP3 DUP5 SUB SLT ISZERO PUSH2 0x661 JUMPI PUSH1 0x0 DUP1 REVERT JUMPDEST POP MLOAD SWAP2 SWAP1 POP JUMP JUMPDEST PUSH1 0x0 PUSH1 0x20 DUP3 DUP5 SUB SLT ISZERO PUSH2 0x67A JUMPI PUSH1 0x0 DUP1 REVERT JUMPDEST DUP2 MLOAD DUP1 ISZERO ISZERO DUP2 EQ PUSH2 0x648 JUMPI PUSH1 0x0 DUP1 REVERT JUMPDEST PUSH4 0x4E487B71 PUSH1 0xE0 SHL PUSH1 0x0 MSTORE PUSH1 0x11 PUSH1 0x4 MSTORE PUSH1 0x24 PUSH1 0x0 REVERT JUMPDEST DUP1 DUP3 ADD DUP1 DUP3 GT ISZERO PUSH2 0x6B3 JUMPI PUSH2 0x6B3 PUSH2 0x68A JUMP JUMPDEST SWAP3 SWAP2 POP POP JUMP JUMPDEST PUSH4 0x4E487B71 PUSH1 0xE0 SHL PUSH1 0x0 MSTORE PUSH1 0x32 PUSH1 0x4 MSTORE PUSH1 0x24 PUSH1 0x0 REVERT JUMPDEST PUSH1 0x0 DUP3 PUSH2 0x6EC JUMPI PUSH4 0x4E487B71 PUSH1 0xE0 SHL PUSH1 0x0 MSTORE PUSH1 0x12 PUSH1 0x4 MSTORE PUSH1 0x24 PUSH1 0x0 REVERT JUMPDEST POP DIV SWAP1 JUMP JUMPDEST PUSH1 0x0 PUSH1 0x1 DUP3 ADD PUSH2 0x703 JUMPI PUSH2 0x703 PUSH2 0x68A JUMP JUMPDEST POP PUSH1 0x1 ADD SWAP1 JUMP INVALID LOG2 PUSH5 0x6970667358 0x22 SLT KECCAK256 PUSH12 0x527E644D8C38E6CFF6F7F273 0x21 PUSH13 0xE647251A24EE1560183363F1BF DUP4 DUP5 DUP8 PUSH6 0x64736F6C6343 STOP ADDMOD EQ STOP CALLER "},"methodIdentifiers":{"ADMIN_ROLE()":"75b238fc","DEFAULT_ADMIN_ROLE()":"a217fddf","MarketingWallet()":"2598cdb2","allowance(address,address)":"dd62ed3e","amountOfAllInfection()":"c3ec8897","amountOfInfection(address)":"0f44e894","approve(address,uint256)":"095ea7b3","approveMax(address)":"571ac8b0","balanceOf(address)":"70a08231","buyCapsule()":"d3a9ffc4","capsuleCount()":"05dc0394","capsuleCurrentCount()":"1bd8ebe1","capsulePrice()":"5bc04469","claim()":"4e71d92d","decimals()":"313ce567","endGame()":"6cbc2ded","epochId()":"aa9bbc0c","epochs(uint256)":"c6b61e4c","getBestInfectors()":"c26d68f9","getGotLuckyVaccine()":"6789c92c","getHasOpenedCapsule(address)":"02b2553e","getHasUpgrade(address)":"014c58a3","getIsBuyer(address)":"fd6e28cf","getRequestFullfilled(address)":"1781e17c","getRoleAdmin(bytes32)":"248a9ca3","grantRole(bytes32,address)":"2f2ff15d","hasRole(bytes32,address)":"91d14854","infect(address)":"96eb64a9","infectOG(address[])":"f5415cbb","infected(address)":"636ee0db","infecter(address)":"3eca5343","initializePair()":"4fab9e4c","isGameOver()":"0e04a7d8","isGameStarted()":"c315432a","isTradingEnabled()":"064a59d0","lastRequestId()":"fc2a88c3","name()":"06fdde03","openCapsule(address)":"007f27ae","owner()":"8da5cb5b","pair()":"a8aa1b31","pendingRewards(address)":"31d7a262","rawFulfillRandomWords(uint256,uint256[])":"1fe543e3","renounceOwnership()":"715018a6","renounceRole(bytes32,address)":"36568abe","requestIds(uint256)":"8796ba8c","revokeRole(bytes32,address)":"d547741f","router()":"f887ea40","setCapsulePrice(uint256)":"1299d7f7","setFeesWallet(address)":"43d4f92b","setIsFeeExempt(address,bool)":"658d4b7f","setIsTradingEnabled()":"1ce78ac8","setIsWalletLimitExempt(address,bool)":"2198cf6c","setKeyHash(bytes32)":"98544710","setMaxWallet()":"d02c6394","setProbabilityMaxRange(uint256)":"fd39ef78","setSpecialVaccineSupply(uint256)":"f25c7ea4","setSwapBackSettings(bool,uint256)":"df20fd49","setSwapPair(address)":"73a432bb","startNewEpoch()":"3aab0a62","supportsInterface(bytes4)":"01ffc9a7","swapEnabled()":"6ddd1713","symbol()":"95d89b41","totalAllRewards()":"5119c971","totalRewards(address)":"ab7573dd","totalSupply()":"18160ddd","transfer(address,uint256)":"a9059cbb","transferFrom(address,address,uint256)":"23b872dd","transferOwnership(address)":"f2fde38b","upgradeVaccine()":"196228c0","userCurrentVaccine(address)":"54d41b5b","userHasBoughtVaccine(address)":"8c5799ce","vaccineFourSupply()":"4726319f","vault()":"fbfa77cf"}}}}}