{"contracts/BLIArbi.sol":{"BLI":{"abi":[{"inputs":[{"internalType":"address","name":"initialOwner","type":"address"}],"stateMutability":"nonpayable","type":"constructor"},{"inputs":[],"name":"AccessControlBadConfirmation","type":"error"},{"inputs":[{"internalType":"address","name":"account","type":"address"},{"internalType":"bytes32","name":"neededRole","type":"bytes32"}],"name":"AccessControlUnauthorizedAccount","type":"error"},{"inputs":[{"internalType":"address","name":"have","type":"address"},{"internalType":"address","name":"want","type":"address"}],"name":"OnlyCoordinatorCanFulfill","type":"error"},{"inputs":[{"internalType":"address","name":"owner","type":"address"}],"name":"OwnableInvalidOwner","type":"error"},{"inputs":[{"internalType":"address","name":"account","type":"address"}],"name":"OwnableUnauthorizedAccount","type":"error"},{"anonymous":false,"inputs":[{"indexed":true,"internalType":"address","name":"owner","type":"address"},{"indexed":true,"internalType":"address","name":"spender","type":"address"},{"indexed":false,"internalType":"uint256","name":"value","type":"uint256"}],"name":"Approval","type":"event"},{"anonymous":false,"inputs":[{"indexed":false,"internalType":"uint256","name":"amountETH","type":"uint256"},{"indexed":false,"internalType":"uint256","name":"amountBOG","type":"uint256"}],"name":"AutoLiquify","type":"event"},{"anonymous":false,"inputs":[{"indexed":true,"internalType":"address","name":"user","type":"address"},{"indexed":false,"internalType":"uint256","name":"id","type":"uint256"}],"name":"CapsuleBought","type":"event"},{"anonymous":false,"inputs":[{"indexed":true,"internalType":"address","name":"user","type":"address"},{"indexed":false,"internalType":"uint256","name":"vaccine","type":"uint256"},{"indexed":false,"internalType":"bool","name":"vaccine4","type":"bool"}],"name":"CapsuleOpened","type":"event"},{"anonymous":false,"inputs":[{"indexed":false,"internalType":"uint256","name":"epochId","type":"uint256"}],"name":"NewEpochStarted","type":"event"},{"anonymous":false,"inputs":[{"indexed":true,"internalType":"address","name":"previousOwner","type":"address"},{"indexed":true,"internalType":"address","name":"newOwner","type":"address"}],"name":"OwnershipTransferred","type":"event"},{"anonymous":false,"inputs":[{"indexed":false,"internalType":"uint256","name":"requestId","type":"uint256"},{"indexed":false,"internalType":"uint256[]","name":"randomWords","type":"uint256[]"}],"name":"RequestFulfilled","type":"event"},{"anonymous":false,"inputs":[{"indexed":false,"internalType":"uint256","name":"requestId","type":"uint256"},{"indexed":false,"internalType":"uint32","name":"numWords","type":"uint32"}],"name":"RequestSent","type":"event"},{"anonymous":false,"inputs":[{"indexed":true,"internalType":"bytes32","name":"role","type":"bytes32"},{"indexed":true,"internalType":"bytes32","name":"previousAdminRole","type":"bytes32"},{"indexed":true,"internalType":"bytes32","name":"newAdminRole","type":"bytes32"}],"name":"RoleAdminChanged","type":"event"},{"anonymous":false,"inputs":[{"indexed":true,"internalType":"bytes32","name":"role","type":"bytes32"},{"indexed":true,"internalType":"address","name":"account","type":"address"},{"indexed":true,"internalType":"address","name":"sender","type":"address"}],"name":"RoleGranted","type":"event"},{"anonymous":false,"inputs":[{"indexed":true,"internalType":"bytes32","name":"role","type":"bytes32"},{"indexed":true,"internalType":"address","name":"account","type":"address"},{"indexed":true,"internalType":"address","name":"sender","type":"address"}],"name":"RoleRevoked","type":"event"},{"anonymous":false,"inputs":[{"indexed":true,"internalType":"address","name":"from","type":"address"},{"indexed":true,"internalType":"address","name":"to","type":"address"},{"indexed":false,"internalType":"uint256","name":"value","type":"uint256"}],"name":"Transfer","type":"event"},{"anonymous":false,"inputs":[{"indexed":true,"internalType":"address","name":"user","type":"address"},{"indexed":false,"internalType":"uint256","name":"amount","type":"uint256"}],"name":"_claim","type":"event"},{"inputs":[],"name":"ADMIN_ROLE","outputs":[{"internalType":"bytes32","name":"","type":"bytes32"}],"stateMutability":"view","type":"function"},{"inputs":[],"name":"DEFAULT_ADMIN_ROLE","outputs":[{"internalType":"bytes32","name":"","type":"bytes32"}],"stateMutability":"view","type":"function"},{"inputs":[],"name":"MarketingWallet","outputs":[{"internalType":"address","name":"","type":"address"}],"stateMutability":"view","type":"function"},{"inputs":[{"internalType":"address","name":"holder","type":"address"},{"internalType":"address","name":"spender","type":"address"}],"name":"allowance","outputs":[{"internalType":"uint256","name":"","type":"uint256"}],"stateMutability":"view","type":"function"},{"inputs":[],"name":"amountOfAllInfection","outputs":[{"internalType":"uint256","name":"","type":"uint256"}],"stateMutability":"view","type":"function"},{"inputs":[{"internalType":"address","name":"","type":"address"}],"name":"amountOfInfection","outputs":[{"internalType":"uint256","name":"","type":"uint256"}],"stateMutability":"view","type":"function"},{"inputs":[{"internalType":"address","name":"spender","type":"address"},{"internalType":"uint256","name":"amount","type":"uint256"}],"name":"approve","outputs":[{"internalType":"bool","name":"","type":"bool"}],"stateMutability":"nonpayable","type":"function"},{"inputs":[{"internalType":"address","name":"spender","type":"address"}],"name":"approveMax","outputs":[{"internalType":"bool","name":"","type":"bool"}],"stateMutability":"nonpayable","type":"function"},{"inputs":[{"internalType":"address","name":"account","type":"address"}],"name":"balanceOf","outputs":[{"internalType":"uint256","name":"","type":"uint256"}],"stateMutability":"view","type":"function"},{"inputs":[],"name":"buyCapsule","outputs":[],"stateMutability":"nonpayable","type":"function"},{"inputs":[],"name":"capsuleCount","outputs":[{"internalType":"uint256","name":"","type":"uint256"}],"stateMutability":"view","type":"function"},{"inputs":[],"name":"capsuleCurrentCount","outputs":[{"internalType":"uint256","name":"","type":"uint256"}],"stateMutability":"view","type":"function"},{"inputs":[],"name":"capsulePrice","outputs":[{"internalType":"uint256","name":"","type":"uint256"}],"stateMutability":"view","type":"function"},{"inputs":[],"name":"claim","outputs":[],"stateMutability":"nonpayable","type":"function"},{"inputs":[],"name":"decimals","outputs":[{"internalType":"uint8","name":"","type":"uint8"}],"stateMutability":"pure","type":"function"},{"inputs":[],"name":"endGame","outputs":[],"stateMutability":"nonpayable","type":"function"},{"inputs":[],"name":"epochId","outputs":[{"internalType":"uint256","name":"","type":"uint256"}],"stateMutability":"view","type":"function"},{"inputs":[{"internalType":"uint256","name":"","type":"uint256"}],"name":"epochs","outputs":[{"internalType":"uint256","name":"id","type":"uint256"},{"internalType":"uint256","name":"startTime","type":"uint256"},{"internalType":"uint256","name":"endTime","type":"uint256"}],"stateMutability":"view","type":"function"},{"inputs":[],"name":"getBestInfectors","outputs":[{"internalType":"address[5]","name":"","type":"address[5]"}],"stateMutability":"view","type":"function"},{"inputs":[],"name":"getGotLuckyVaccine","outputs":[{"internalType":"address[]","name":"","type":"address[]"}],"stateMutability":"view","type":"function"},{"inputs":[{"internalType":"address","name":"user","type":"address"}],"name":"getHasOpenedCapsule","outputs":[{"internalType":"bool","name":"","type":"bool"}],"stateMutability":"view","type":"function"},{"inputs":[{"internalType":"address","name":"user","type":"address"}],"name":"getHasUpgrade","outputs":[{"internalType":"bool","name":"","type":"bool"}],"stateMutability":"view","type":"function"},{"inputs":[{"internalType":"address","name":"user","type":"address"}],"name":"getIsBuyer","outputs":[{"internalType":"bool","name":"","type":"bool"}],"stateMutability":"view","type":"function"},{"inputs":[{"internalType":"address","name":"user","type":"address"}],"name":"getRequestFullfilled","outputs":[{"internalType":"bool","name":"","type":"bool"}],"stateMutability":"view","type":"function"},{"inputs":[{"internalType":"bytes32","name":"role","type":"bytes32"}],"name":"getRoleAdmin","outputs":[{"internalType":"bytes32","name":"","type":"bytes32"}],"stateMutability":"view","type":"function"},{"inputs":[{"internalType":"bytes32","name":"role","type":"bytes32"},{"internalType":"address","name":"account","type":"address"}],"name":"grantRole","outputs":[],"stateMutability":"nonpayable","type":"function"},{"inputs":[{"internalType":"bytes32","name":"role","type":"bytes32"},{"internalType":"address","name":"account","type":"address"}],"name":"hasRole","outputs":[{"internalType":"bool","name":"","type":"bool"}],"stateMutability":"view","type":"function"},{"inputs":[{"internalType":"address","name":"_toInfect","type":"address"}],"name":"infect","outputs":[],"stateMutability":"nonpayable","type":"function"},{"inputs":[{"internalType":"address[]","name":"_toInfect","type":"address[]"}],"name":"infectOG","outputs":[],"stateMutability":"nonpayable","type":"function"},{"inputs":[{"internalType":"address","name":"","type":"address"}],"name":"infected","outputs":[{"internalType":"bool","name":"","type":"bool"}],"stateMutability":"view","type":"function"},{"inputs":[{"internalType":"address","name":"","type":"address"}],"name":"infecter","outputs":[{"internalType":"address","name":"","type":"address"}],"stateMutability":"view","type":"function"},{"inputs":[],"name":"initializePair","outputs":[],"stateMutability":"nonpayable","type":"function"},{"inputs":[],"name":"isGameOver","outputs":[{"internalType":"bool","name":"","type":"bool"}],"stateMutability":"view","type":"function"},{"inputs":[],"name":"isGameStarted","outputs":[{"internalType":"bool","name":"","type":"bool"}],"stateMutability":"view","type":"function"},{"inputs":[],"name":"isTradingEnabled","outputs":[{"internalType":"bool","name":"","type":"bool"}],"stateMutability":"view","type":"function"},{"inputs":[],"name":"lastRequestId","outputs":[{"internalType":"uint256","name":"","type":"uint256"}],"stateMutability":"view","type":"function"},{"inputs":[],"name":"name","outputs":[{"internalType":"string","name":"","type":"string"}],"stateMutability":"view","type":"function"},{"inputs":[{"internalType":"address","name":"user","type":"address"}],"name":"openCapsule","outputs":[],"stateMutability":"nonpayable","type":"function"},{"inputs":[],"name":"owner","outputs":[{"internalType":"address","name":"","type":"address"}],"stateMutability":"view","type":"function"},{"inputs":[],"name":"pair","outputs":[{"internalType":"address","name":"","type":"address"}],"stateMutability":"view","type":"function"},{"inputs":[{"internalType":"address","name":"","type":"address"}],"name":"pendingRewards","outputs":[{"internalType":"uint256","name":"","type":"uint256"}],"stateMutability":"view","type":"function"},{"inputs":[{"internalType":"uint256","name":"requestId","type":"uint256"},{"internalType":"uint256[]","name":"randomWords","type":"uint256[]"}],"name":"rawFulfillRandomWords","outputs":[],"stateMutability":"nonpayable","type":"function"},{"inputs":[],"name":"renounceOwnership","outputs":[],"stateMutability":"nonpayable","type":"function"},{"inputs":[{"internalType":"bytes32","name":"role","type":"bytes32"},{"internalType":"address","name":"callerConfirmation","type":"address"}],"name":"renounceRole","outputs":[],"stateMutability":"nonpayable","type":"function"},{"inputs":[{"internalType":"uint256","name":"","type":"uint256"}],"name":"requestIds","outputs":[{"internalType":"uint256","name":"","type":"uint256"}],"stateMutability":"view","type":"function"},{"inputs":[{"internalType":"bytes32","name":"role","type":"bytes32"},{"internalType":"address","name":"account","type":"address"}],"name":"revokeRole","outputs":[],"stateMutability":"nonpayable","type":"function"},{"inputs":[],"name":"router","outputs":[{"internalType":"contract ICamelotRouter","name":"","type":"address"}],"stateMutability":"view","type":"function"},{"inputs":[{"internalType":"uint256","name":"_price","type":"uint256"}],"name":"setCapsulePrice","outputs":[],"stateMutability":"nonpayable","type":"function"},{"inputs":[{"internalType":"address","name":"_MarketingWallet","type":"address"}],"name":"setFeesWallet","outputs":[],"stateMutability":"nonpayable","type":"function"},{"inputs":[{"internalType":"address","name":"holder","type":"address"},{"internalType":"bool","name":"exempt","type":"bool"}],"name":"setIsFeeExempt","outputs":[],"stateMutability":"nonpayable","type":"function"},{"inputs":[],"name":"setIsTradingEnabled","outputs":[],"stateMutability":"nonpayable","type":"function"},{"inputs":[{"internalType":"address","name":"holder","type":"address"},{"internalType":"bool","name":"exempt","type":"bool"}],"name":"setIsWalletLimitExempt","outputs":[],"stateMutability":"nonpayable","type":"function"},{"inputs":[],"name":"setMaxWallet","outputs":[],"stateMutability":"nonpayable","type":"function"},{"inputs":[{"internalType":"uint256","name":"_range","type":"uint256"}],"name":"setProbabilityMaxRange","outputs":[],"stateMutability":"nonpayable","type":"function"},{"inputs":[{"internalType":"uint256","name":"_amount","type":"uint256"}],"name":"setSpecialVaccineSupply","outputs":[],"stateMutability":"nonpayable","type":"function"},{"inputs":[{"internalType":"bool","name":"_enabled","type":"bool"},{"internalType":"uint256","name":"_amount","type":"uint256"}],"name":"setSwapBackSettings","outputs":[],"stateMutability":"nonpayable","type":"function"},{"inputs":[{"internalType":"address","name":"pairaddr","type":"address"}],"name":"setSwapPair","outputs":[],"stateMutability":"nonpayable","type":"function"},{"inputs":[],"name":"startNewEpoch","outputs":[],"stateMutability":"nonpayable","type":"function"},{"inputs":[{"internalType":"bytes4","name":"interfaceId","type":"bytes4"}],"name":"supportsInterface","outputs":[{"internalType":"bool","name":"","type":"bool"}],"stateMutability":"view","type":"function"},{"inputs":[],"name":"swapEnabled","outputs":[{"internalType":"bool","name":"","type":"bool"}],"stateMutability":"view","type":"function"},{"inputs":[],"name":"symbol","outputs":[{"internalType":"string","name":"","type":"string"}],"stateMutability":"view","type":"function"},{"inputs":[],"name":"totalAllRewards","outputs":[{"internalType":"uint256","name":"","type":"uint256"}],"stateMutability":"view","type":"function"},{"inputs":[{"internalType":"address","name":"","type":"address"}],"name":"totalRewards","outputs":[{"internalType":"uint256","name":"","type":"uint256"}],"stateMutability":"view","type":"function"},{"inputs":[],"name":"totalSupply","outputs":[{"internalType":"uint256","name":"","type":"uint256"}],"stateMutability":"view","type":"function"},{"inputs":[{"internalType":"address","name":"recipient","type":"address"},{"internalType":"uint256","name":"amount","type":"uint256"}],"name":"transfer","outputs":[{"internalType":"bool","name":"","type":"bool"}],"stateMutability":"nonpayable","type":"function"},{"inputs":[{"internalType":"address","name":"sender","type":"address"},{"internalType":"address","name":"recipient","type":"address"},{"internalType":"uint256","name":"amount","type":"uint256"}],"name":"transferFrom","outputs":[{"internalType":"bool","name":"","type":"bool"}],"stateMutability":"nonpayable","type":"function"},{"inputs":[{"internalType":"address","name":"newOwner","type":"address"}],"name":"transferOwnership","outputs":[],"stateMutability":"nonpayable","type":"function"},{"inputs":[],"name":"upgradeVaccine","outputs":[],"stateMutability":"nonpayable","type":"function"},{"inputs":[{"internalType":"address","name":"","type":"address"}],"name":"userCurrentVaccine","outputs":[{"internalType":"uint256","name":"","type":"uint256"}],"stateMutability":"view","type":"function"},{"inputs":[{"internalType":"address","name":"","type":"address"}],"name":"userHasBoughtVaccine","outputs":[{"internalType":"bool","name":"","type":"bool"}],"stateMutability":"view","type":"function"},{"inputs":[],"name":"vaccineFourSupply","outputs":[{"internalType":"uint256","name":"","type":"uint256"}],"stateMutability":"view","type":"function"},{"inputs":[],"name":"vault","outputs":[{"internalType":"contract Vault","name":"","type":"address"}],"stateMutability":"view","type":"function"},{"stateMutability":"payable","type":"receive"}],"evm":{"bytecode":{"linkReferences":{},"object":"60e0604052600e60a09081526d109b1a59da1d08141c9bda9958dd60921b60c0526002906200002f908262000775565b5060408051808201909152600380825262424c4960e81b60208301529062000058908262000775565b50620000676012600a62000954565b6200007790633b9aca006200096c565b60045569d3c21bcecceda10000006005556103e8600454600a6200009c91906200096c565b620000a8919062000986565b600655600554620000bc906102586200096c565b600b5560c8600c55600554620000d5906103846200096c565b600d5561012c600e5560108054733e98da13e184ea1467639bf642f804144539694d6001600160a01b031991821617909155601180547341034678d6c633d8a95c75e1138a360a28ba15d19216919091179055601280546001600160e01b031916746d41034678d6c633d8a95c75e1138a360a28ba15d11790557f72d2b016bb5b62912afea355ebf33b91319f828738b111b723b78696b9847b63601555601680546001600160501b03191666010003000186a01790556019805461ffff60a01b19169055600454620001ac906103e89062000986565b620001b99060036200096c565b601a5560646022556000602655600060285560006029556934f086f3b33b68400000602a556000602b556000602c556000602d556000602e556000602f55600060305560006031556000603255600a60335560055460e56200021c91906200096c565b603a5560055462000230906101656200096c565b603b5560055462000244906102026200096c565b603c5560055462000258906102bc6200096c565b603d556005546200026c906103926200096c565b603e5560055462000280906104856200096c565b603f556040805461ffff191690553480156200029b57600080fd5b5060405162005d6338038062005d63833981016040819052620002be91620009a9565b6011546001600160a01b039081169082908116620002f657604051631e4fbdf760e01b81526000600482015260240160405180910390fd5b6200030181620005db565b506001600160a01b0316608052601880546001600160a01b03191673c873fecbd354f5a56e00e710b90ef4201db2448d90811790915530600090815260086020908152604080832093835292905290812060001990556200036390826200062b565b50620003907fa49807205ce4d355092ef5a8a18f56e8913cf4a201fbe287825b095693c21775826200062b565b503081604051620003a190620006c2565b6001600160a01b03928316815291166020820152604001604051809103906000f080158015620003d5573d6000803e3d6000fd5b50602180546001600160a01b0319166001600160a01b03928316178155336000818152600960209081526040808320805460ff199081166001908117909255308086528386208054831684179055601080548a1687528487208054841685179055878752600a8652848720805484168517905580548a16875284872080548416851790557f20677881080440a9b3c87e826370bb5d9c2f74efd4dede686d52d77a6a09f8bb805484168517905597548916865283862080548316841790558086528386208054831684179055601980548a16875284872080548416851790557f12d72ea8e76b561437db32297fad751a60be1b76e594c67d9366e4cd38a6621d8054841685179055878752601c8652848720805484168517905597548916865283862080548316841790557fa48bd8e7b1565515cde2859b6cc48308ba05b5325bcf90fb096b9ac0b8087dfc8054831684179055855282852080548216831790559554909616835280832080548616871790557ff79dbced412724f11ac82795a8b72517df4379a1dfd463f61834ebcb1ea973ca80549095169095179093556004549181526007909252918120805490919062000594908490620009d4565b909155505060045460405190815233906000907fddf252ad1be2c89b69c2b068fc378daa952ba7f163c4a11628f55a4df523b3ef9060200160405180910390a350620009ea565b600080546001600160a01b038381166001600160a01b0319831681178455604051919092169283917f8be0079c531659141344cd1fd0a4f28419497f9722a3daafe3b4186f6b6457e09190a35050565b60008281526001602090815260408083206001600160a01b038516845290915281205460ff16620006b85760008381526001602081815260408084206001600160a01b0387168086529252808420805460ff19169093179092559051339286917f2f8788117e7eff1d82e926ec794901d17c78024a50270940304540a733656f0d9190a4506001620006bc565b5060005b92915050565b61089a80620054c983390190565b634e487b7160e01b600052604160045260246000fd5b600181811c90821680620006fb57607f821691505b6020821081036200071c57634e487b7160e01b600052602260045260246000fd5b50919050565b601f8211156200077057600081815260208120601f850160051c810160208610156200074b5750805b601f850160051c820191505b818110156200076c5782815560010162000757565b5050505b505050565b81516001600160401b03811115620007915762000791620006d0565b620007a981620007a28454620006e6565b8462000722565b602080601f831160018114620007e15760008415620007c85750858301515b600019600386901b1c1916600185901b1785556200076c565b600085815260208120601f198616915b828110156200081257888601518255948401946001909101908401620007f1565b5085821015620008315787850151600019600388901b60f8161c191681555b5050505050600190811b01905550565b634e487b7160e01b600052601160045260246000fd5b600181815b80851115620008985781600019048211156200087c576200087c62000841565b808516156200088a57918102915b93841c93908002906200085c565b509250929050565b600082620008b157506001620006bc565b81620008c057506000620006bc565b8160018114620008d95760028114620008e45762000904565b6001915050620006bc565b60ff841115620008f857620008f862000841565b50506001821b620006bc565b5060208310610133831016604e8410600b841016171562000929575081810a620006bc565b62000935838362000857565b80600019048211156200094c576200094c62000841565b029392505050565b60006200096560ff841683620008a0565b9392505050565b8082028115828204841417620006bc57620006bc62000841565b600082620009a457634e487b7160e01b600052601260045260246000fd5b500490565b600060208284031215620009bc57600080fd5b81516001600160a01b03811681146200096557600080fd5b80820180821115620006bc57620006bc62000841565b608051614abc62000a0d6000396000818161167601526116b80152614abc6000f3fe60806040526004361061041e5760003560e01c8063658d4b7f1161021e578063ab7573dd11610123578063df20fd49116100ab578063f887ea401161007a578063f887ea4014610d52578063fbfa77cf14610d72578063fc2a88c314610d92578063fd39ef7814610da8578063fd6e28cf14610dc857600080fd5b8063df20fd4914610cd2578063f25c7ea414610cf2578063f2fde38b14610d12578063f5415cbb14610d3257600080fd5b8063c6b61e4c116100f2578063c6b61e4c14610beb578063d02c639414610c42578063d3a9ffc414610c57578063d547741f14610c6c578063dd62ed3e14610c8c57600080fd5b8063ab7573dd14610b6c578063c26d68f914610b99578063c315432a14610bbb578063c3ec889714610bd557600080fd5b80638c5799ce116101a657806396eb64a91161017557806396eb64a914610ae1578063a217fddf14610b01578063a8aa1b3114610b16578063a9059cbb14610b36578063aa9bbc0c14610b5657600080fd5b80638c5799ce14610a5e5780638da5cb5b14610a8e57806391d1485414610aac57806395d89b4114610acc57600080fd5b806370a08231116101ed57806370a08231146109c7578063715018a6146109e757806373a432bb146109fc57806375b238fc14610a1c5780638796ba8c14610a3e57600080fd5b8063658d4b7f1461094f5780636789c92c1461096f5780636cbc2ded146109915780636ddd1713146109a657600080fd5b806323b872dd1161032457806343d4f92b116102ac5780635119c9711161027b5780635119c971146108a657806354d41b5b146108bc578063571ac8b0146108e95780635bc0446914610909578063636ee0db1461091f57600080fd5b806343d4f92b146108465780634726319f146108665780634e71d92d1461087c5780634fab9e4c1461089157600080fd5b8063313ce567116102f3578063313ce5671461079257806331d7a262146107ae57806336568abe146107db5780633aab0a62146107fb5780633eca53431461081057600080fd5b806323b872dd146106e9578063248a9ca3146107095780632598cdb21461073a5780632f2ff15d1461077257600080fd5b80630f44e894116103a7578063196228c011610376578063196228c0146106695780631bd8ebe11461067e5780631ce78ac8146106945780631fe543e3146106a95780632198cf6c146106c957600080fd5b80630f44e894146105bd5780631299d7f7146105e95780631781e17c1461060957806318160ddd1461065457600080fd5b806305dc0394116103ee57806305dc039414610517578063064a59d01461053b57806306fdde031461055c578063095ea7b31461057e5780630e04a7d81461059e57600080fd5b80627f27ae1461042a578063014c58a31461044c57806301ffc9a7146104ac57806302b2553e146104cc57600080fd5b3661042557005b600080fd5b34801561043657600080fd5b5061044a6104453660046143b9565b610e13565b005b34801561045857600080fd5b506104976104673660046143b9565b60265460009081526027602090815260408083206001600160a01b03909416835260049093019052205460ff1690565b60405190151581526020015b60405180910390f35b3480156104b857600080fd5b506104976104c73660046143d6565b6111bf565b3480156104d857600080fd5b506104976104e73660046143b9565b60265460009081526027602090815260408083206001600160a01b03909416835260059093019052205460ff1690565b34801561052357600080fd5b5061052d60295481565b6040519081526020016104a3565b34801561054757600080fd5b5060195461049790600160a01b900460ff1681565b34801561056857600080fd5b506105716111f6565b6040516104a39190614400565b34801561058a57600080fd5b5061049761059936600461444e565b611288565b3480156105aa57600080fd5b5060405461049790610100900460ff1681565b3480156105c957600080fd5b5061052d6105d83660046143b9565b602080526000908152604090205481565b3480156105f557600080fd5b5061044a61060436600461447a565b6112f4565b34801561061557600080fd5b506104976106243660046143b9565b60265460009081526027602090815260408083206001600160a01b03909416835260089093019052205460ff1690565b34801561066057600080fd5b5060045461052d565b34801561067557600080fd5b5061044a611312565b34801561068a57600080fd5b5061052d60285481565b3480156106a057600080fd5b5061044a611635565b3480156106b557600080fd5b5061044a6106c43660046144fe565b61166b565b3480156106d557600080fd5b5061044a6106e43660046145b5565b6116ef565b3480156106f557600080fd5b506104976107043660046145ea565b611722565b34801561071557600080fd5b5061052d61072436600461447a565b6000908152600160208190526040909120015490565b34801561074657600080fd5b5060105461075a906001600160a01b031681565b6040516001600160a01b0390911681526020016104a3565b34801561077e57600080fd5b5061044a61078d36600461462b565b6117f7565b34801561079e57600080fd5b50604051601281526020016104a3565b3480156107ba57600080fd5b5061052d6107c93660046143b9565b601f6020526000908152604090205481565b3480156107e757600080fd5b5061044a6107f636600461462b565b611823565b34801561080757600080fd5b5061044a61185b565b34801561081c57600080fd5b5061075a61082b3660046143b9565b601d602052600090815260409020546001600160a01b031681565b34801561085257600080fd5b5061044a6108613660046143b9565b6118e1565b34801561087257600080fd5b5061052d60335481565b34801561088857600080fd5b5061044a611942565b34801561089d57600080fd5b5061044a611b44565b3480156108b257600080fd5b5061052d60425481565b3480156108c857600080fd5b5061052d6108d73660046143b9565b60236020526000908152604090205481565b3480156108f557600080fd5b506104976109043660046143b9565b611c53565b34801561091557600080fd5b5061052d602a5481565b34801561092b57600080fd5b5061049761093a3660046143b9565b601c6020526000908152604090205460ff1681565b34801561095b57600080fd5b5061044a61096a3660046145b5565b611c61565b34801561097b57600080fd5b50610984611c94565b6040516104a3919061469f565b34801561099d57600080fd5b5061044a611d03565b3480156109b257600080fd5b5060195461049790600160a81b900460ff1681565b3480156109d357600080fd5b5061052d6109e23660046143b9565b611e60565b3480156109f357600080fd5b5061044a611e7b565b348015610a0857600080fd5b5061044a610a173660046143b9565b611e8d565b348015610a2857600080fd5b5061052d600080516020614a6783398151915281565b348015610a4a57600080fd5b5061052d610a5936600461447a565b611ecf565b348015610a6a57600080fd5b50610497610a793660046143b9565b60246020526000908152604090205460ff1681565b348015610a9a57600080fd5b506000546001600160a01b031661075a565b348015610ab857600080fd5b50610497610ac736600461462b565b611ef0565b348015610ad857600080fd5b50610571611f1b565b348015610aed57600080fd5b5061044a610afc3660046143b9565b611f2a565b348015610b0d57600080fd5b5061052d600081565b348015610b2257600080fd5b5060195461075a906001600160a01b031681565b348015610b4257600080fd5b50610497610b5136600461444e565b6120bb565b348015610b6257600080fd5b5061052d60265481565b348015610b7857600080fd5b5061052d610b873660046143b9565b601e6020526000908152604090205481565b348015610ba557600080fd5b50610bae6120ed565b6040516104a391906146b2565b348015610bc757600080fd5b506040546104979060ff1681565b348015610be157600080fd5b5061052d60435481565b348015610bf757600080fd5b50610c27610c0636600461447a565b60276020526000908152604090208054600182015460029092015490919083565b604080519384526020840192909252908201526060016104a3565b348015610c4e57600080fd5b5061044a61212c565b348015610c6357600080fd5b5061044a61213c565b348015610c7857600080fd5b5061044a610c8736600461462b565b6124e8565b348015610c9857600080fd5b5061052d610ca73660046146ec565b6001600160a01b03918216600090815260086020908152604080832093909416825291909152205490565b348015610cde57600080fd5b5061044a610ced36600461471a565b61250e565b348015610cfe57600080fd5b5061044a610d0d36600461447a565b612589565b348015610d1e57600080fd5b5061044a610d2d3660046143b9565b61260d565b348015610d3e57600080fd5b5061044a610d4d366004614736565b612648565b348015610d5e57600080fd5b5060185461075a906001600160a01b031681565b348015610d7e57600080fd5b5060215461075a906001600160a01b031681565b348015610d9e57600080fd5b5061052d60145481565b348015610db457600080fd5b5061044a610dc336600461447a565b6128a9565b348015610dd457600080fd5b50610497610de33660046143b9565b60265460009081526027602090815260408083206001600160a01b03909416835260039093019052205460ff1690565b6001600160a01b0381163314610e615760405162461bcd60e51b815260206004820152600e60248201526d139bdd08185d5d1a1bdc9a5e995960921b60448201526064015b60405180910390fd5b6026546000908152602760205260409020600201544210610e945760405162461bcd60e51b8152600401610e58906147d0565b60265460009081526027602090815260408083203384526007019091528120549003610f195760405162461bcd60e51b815260206004820152602e60248201527f596f7520686176656e277420626f7567687420612063617073756c652064757260448201526d0d2dcce40e8d0d2e640cae0dec6d60931b6064820152608401610e58565b602654600090815260276020908152604080832033845260050190915290205460ff1615610f945760405162461bcd60e51b815260206004820152602260248201527f596f7527766520616c7265616479206f70656e656420796f75722063617073756044820152616c6560f01b6064820152608401610e58565b602654600090815260276020908152604080832033845260080190915290205460ff1615156001146110185760405162461bcd60e51b815260206004820152602760248201527f596f75722072657175657374206861736e2774206265656e2066756c6c66696c6044820152661b1959081e595d60ca1b6064820152608401610e58565b6026546000908152602760209081526040808320338452600701909152812054611041906128c7565b905060018110158015611055575060288111155b1561109557602f805490600061106a8361482a565b9091555050602b805490600061107f8361482a565b91905055506110918260016000612a0c565b5050565b602981101580156110a75750604b8111155b156110e357603080549060006110bc8361482a565b9091555050602c80549060006110d18361482a565b91905055506110918260026000612a0c565b604c81101580156110f5575060618111155b15611131576031805490600061110a8361482a565b9091555050602d805490600061111f8361482a565b91905055506110918260036000612a0c565b6062811015801561114457506022548111155b1561109157603280549060006111598361482a565b9091555050602e805490600061116e8361482a565b909155505060265460009081526027602090815260408220600901805460018082018355918452919092200180546001600160a01b0319166001600160a01b03851617905561109190839080612a0c565b60006001600160e01b03198216637965db0b60e01b14806111f057506301ffc9a760e01b6001600160e01b03198316145b92915050565b60606002805461120590614843565b80601f016020809104026020016040519081016040528092919081815260200182805461123190614843565b801561127e5780601f106112535761010080835404028352916020019161127e565b820191906000526020600020905b81548152906001019060200180831161126157829003601f168201915b5050505050905090565b3360008181526008602090815260408083206001600160a01b038716808552925280832085905551919290917f8c5be1e5ebec7d5bd14f71427d1e84f3dd0314c0f7b2291e5b200ac8c7c3b925906112e39086815260200190565b60405180910390a350600192915050565b600080516020614a6783398151915261130c81612b08565b50602a55565b60006103e8602a546102ee6113279190614877565b61133191906148a4565b602654600090815260276020908152604080832033845260030190915290205490915060ff16156113c05760405162461bcd60e51b815260206004820152603360248201527f596f752068617665206f6e6c79206f6e6520616374696f6e207065722065706f6044820152726368203a20627579206f72207570677261646560681b6064820152608401610e58565b602654600090815260276020908152604080832033845260040190915290205460ff161561144f5760405162461bcd60e51b815260206004820152603660248201527f596f7527766520616c726561647920757067726164656420796f7572207661636044820152750c6d2dcca40c8eae4d2dcce40e8d0d2e640cae0dec6d60531b6064820152608401610e58565b336000908152602360205260409020541580159061147c5750336000908152602360205260409020546003115b6114d45760405162461bcd60e51b815260206004820152602360248201527f596f7520646f6e2774206861766520612076616363696e6520746f207570677260448201526261646560e81b6064820152608401610e58565b806114de33611e60565b101561153e5760405162461bcd60e51b815260206004820152602960248201527f4e6f7420656e6f75676820746f6b656e7320746f207570677261646520796f75604482015268722076616363696e6560b81b6064820152608401610e58565b60265460009081526027602052604090206002015442106115715760405162461bcd60e51b8152600401610e58906147d0565b604054610100900460ff16156115995760405162461bcd60e51b8152600401610e58906148b8565b60265460009081526027602090815260408083203384526004019091528120805460ff191660011790556103e86115d1836032614877565b6115db91906148a4565b6021549091506000906116029033906001600160a01b03166115fd85876148de565b612b12565b905061160f333084612b12565b5033600090815260236020526040812080549161162b8361482a565b9190505550505050565b61163d612bba565b6019805461ffff60a01b191661010160a01b179081905560ff600160a01b909104161561166957426049555b565b336001600160a01b037f000000000000000000000000000000000000000000000000000000000000000016146116e55760405163073e64fd60e21b81523360048201526001600160a01b037f0000000000000000000000000000000000000000000000000000000000000000166024820152604401610e58565b6110918282612be7565b6116f7612bba565b6001600160a01b03919091166000908152600a60205260409020805460ff1916911515919091179055565b6001600160a01b03831660009081526008602090815260408083203384529091528120548211156117a65760405162461bcd60e51b815260206004820152602860248201527f45524332303a207472616e7366657220616d6f756e74206578636565647320616044820152676c6c6f77616e636560c01b6064820152608401610e58565b6117b1848484612ced565b506001600160a01b0384166000908152600860209081526040808320338085529252909120546117ed9186916117e89086906148de565b6130ec565b5060019392505050565b6000828152600160208190526040909120015461181381612b08565b61181d8383613210565b50505050565b6001600160a01b038116331461184c5760405163334bd91960e11b815260040160405180910390fd5b6118568282613289565b505050565b600080516020614a6783398151915261187381612b08565b604054610100900460ff161561189b5760405162461bcd60e51b8152600401610e58906148b8565b6118a36132f6565b7fa7ef457c4bdaa5cf9805314ebb0d85316230de6508df8ba03db8e27901cc147d6026546040516118d691815260200190565b60405180910390a150565b6118e9612bba565b601080546001600160a01b0319166001600160a01b0392831690811782556000908152600960209081526040808320805460ff19908116600190811790925594549095168352600a909152902080549091169091179055565b3332146119795760405162461bcd60e51b815260206004820152600560248201526432b93937b960d91b6044820152606401610e58565b336000908152601f60205260409020546119ca5760405162461bcd60e51b81526020600482015260126024820152716e6f2070656e64696e67207265776172647360701b6044820152606401610e58565b336000908152601f6020908152604082208054908390556001835260279091527fb6915e519d5f9dd23c62986e48578ddfa8cde5c92608222904fd87ad04df4fff54909190421015611a3c576064611a23836019614877565b611a2d91906148a4565b9050611a3981836148de565b91505b8015611a5c57602154611a5a9030906001600160a01b031683612b12565b505b6000611a69303385612b12565b905080611aaa5760405162461bcd60e51b815260206004820152600f60248201526e1d1c985b9cd9995c8819985a5b1959608a1b6044820152606401610e58565b336000908152601e602052604081208054859290611ac99084906148f1565b925050819055508260426000828254611ae291906148f1565b925050819055508260416000828254611afb91906148de565b90915550611b0990506134ce565b60405183815233907f620fc7379f7c67f4289f23e24a7f28f721792b0e898e2af03581b2e73e604a53906020015b60405180910390a2505050565b611b4c612bba565b604a5460ff1615611b955760405162461bcd60e51b8152602060048201526013602482015272105b1c9958591e481a5b9a5d1a585b1a5e9959606a1b6044820152606401610e58565b6040516364e329cb60e11b81527382af49447d8a07e3bd95bd0d56f35241523fbab16004820152306024820152736eccab422d763ac031210895c81787e87b43a6529063c9c65396906044016020604051808303816000875af1158015611c00573d6000803e3d6000fd5b505050506040513d601f19601f82011682018060405250810190611c249190614904565b601980546001600160a01b0319166001600160a01b0392909216919091179055604a805460ff19166001179055565b60006111f082600019611288565b611c69612bba565b6001600160a01b03919091166000908152600960205260409020805460ff1916911515919091179055565b60265460009081526027602090815260409182902060090180548351818402810184019094528084526060939283018282801561127e57602002820191906000526020600020905b81546001600160a01b03168152600190910190602001808311611cdc575050505050905090565b600080516020614a67833981519152611d1b81612b08565b604954611d2b9062093a806148f1565b421015611d6f5760405162461bcd60e51b815260206004820152601260248201527143616e277420656e64207468652067616d6560701b6044820152606401610e58565b604054610100900460ff1615611dbe5760405162461bcd60e51b815260206004820152601460248201527323b0b6b29034b99030b63932b0b23c9037bb32b960611b6044820152606401610e58565b6040805461ff00191661010017815560265460009081526027602052206009015415611e5d5760215460265460009081526027602052604090819020905163f25addf560e01b81526001600160a01b039092169163f25addf591611e2a91600990910190600401614921565b600060405180830381600087803b158015611e4457600080fd5b505af1158015611e58573d6000803e3d6000fd5b505050505b50565b6001600160a01b031660009081526007602052604090205490565b611e83612bba565b61166960006136c9565b611e95612bba565b601980546001600160a01b039092166001600160a01b0319909216821790556000908152600a60205260409020805460ff19166001179055565b60138181548110611edf57600080fd5b600091825260209091200154905081565b60009182526001602090815260408084206001600160a01b0393909316845291905290205460ff1690565b60606003805461120590614843565b6001600160a01b0381166000908152601c602052604090205460ff1615611f865760405162461bcd60e51b815260206004820152601060248201526f105b1c9958591e481a5b999958dd195960821b6044820152606401610e58565b6001611f9133611e60565b1015611fdf5760405162461bcd60e51b815260206004820152601b60248201527f4e6f7420656e6f75676820746f6b656e7320746f20696e6665637400000000006044820152606401610e58565b336000908152601c602052604090205460ff1615156001146120395760405162461bcd60e51b8152602060048201526013602482015272165bdd49dc99481b9bdd081a5b999958dd1959606a1b6044820152606401610e58565b6001600160a01b0381166000908152601d6020908152604080832080546001600160a01b03191633908117909155601c8352818420805460ff191660011790558352908052812080549161208c8361482a565b9091555050604380549060006120a18361482a565b919050555060006118563383670de0b6b3a7640000612b12565b6019546000906001600160a01b031633036120e2576120db338484612ced565b90506111f0565b6120db338484612b12565b6120f56142de565b6040805160a0810191829052604480546001600160a01b031682529091600590604560208501808311611cdc575050505050905090565b612134612bba565b600454600655565b602a54336000908152601c602052604090205460ff166121955760405162461bcd60e51b8152602060048201526014602482015273165bdd48185c99481b9bdd081a5b999958dd195960621b6044820152606401610e58565b60405460ff166121e75760405162461bcd60e51b815260206004820152601760248201527f47616d65206973206e6f742073746172746564207965740000000000000000006044820152606401610e58565b604054610100900460ff161561220f5760405162461bcd60e51b8152600401610e58906148b8565b8061221933611e60565b10156122725760405162461bcd60e51b815260206004820152602260248201527f4e6f7420656e6f75676820746f6b656e7320746f2062757920612063617073756044820152616c6560f01b6064820152608401610e58565b60265460009081526027602052604090206002015442106122a55760405162461bcd60e51b8152600401610e58906147d0565b602654600090815260276020908152604080832033845260030190915290205460ff161561232f5760405162461bcd60e51b815260206004820152603160248201527f596f7527766520616c726561647920626f7567687420612063617073756c65206044820152700c8eae4d2dcce40e8d0d2e640cae0dec6d607b1b6064820152608401610e58565b602654600090815260276020908152604080832033845260040190915290205460ff16156123bb5760405162461bcd60e51b815260206004820152603360248201527f596f75206f6e6c792068617665206f6e6520616374696f6e207065722065706f6044820152726368203a20627579206f72207570677261646560681b6064820152608401610e58565b602980549060006123cb8361482a565b9091555050602880549060006123e08361482a565b909155505060265460009081526027602090815260408083203384526003019091528120805460ff191660011790556103e861241d8360c8614877565b61242791906148a4565b90506124363361dead83612b12565b506021546000906124569033906001600160a01b03166115fd85876148de565b90506000612462613719565b602680546000908152602760208181526040808420868552600601825280842080546001600160a01b03191633908117909155945484529181528183208484526007018152918190208490555183815292935090917f56e18f08766f396148d5b13331a86d9ce4ea3d9c08821cf829ccf881a6fff8bf910160405180910390a250505050565b6000828152600160208190526040909120015461250481612b08565b61181d8383613289565b612516612bba565b60018110156125675760405162461bcd60e51b815260206004820152601f60248201527f43616e27742073657420537761705468726573686f6c6420746f205a45524f006044820152606401610e58565b60198054921515600160a81b0260ff60a81b1990931692909217909155601a55565b600080516020614a678339815191526125a181612b08565b602e548210156126075760405162461bcd60e51b815260206004820152602b60248201527f43616e2774207265647563652076616363696e6520737570706c79206475726960448201526a0dcce40c2dc40cae0dec6d60ab1b6064820152608401610e58565b50603355565b612615612bba565b6001600160a01b03811661263f57604051631e4fbdf760e01b815260006004820152602401610e58565b611e5d816136c9565b612650612bba565b60005b815181101561109157601c600083838151811061267257612672614971565b6020908102919091018101516001600160a01b031682528101919091526040016000205460ff16156126d95760405162461bcd60e51b815260206004820152601060248201526f105b1c9958591e481a5b999958dd195960821b6044820152606401610e58565b60016126e433611e60565b10156127325760405162461bcd60e51b815260206004820152601b60248201527f6e6f7420656e6f75676820746f6b656e7320746f20696e6665637400000000006044820152606401610e58565b336000908152601c602052604090205460ff1615156001146127855760405162461bcd60e51b815260206004820152600c60248201526b1b9bdd081a5b999958dd195960a21b6044820152606401610e58565b33601d600084848151811061279c5761279c614971565b60200260200101516001600160a01b03166001600160a01b0316815260200190815260200160002060006101000a8154816001600160a01b0302191690836001600160a01b031602179055506001601c600084848151811061280057612800614971565b6020908102919091018101516001600160a01b031682528181019290925260409081016000908120805460ff191694151594909417909355338352908052812080549161284c8361482a565b9091555050604380549060006128618361482a565b919050555060006128943384848151811061287e5761287e614971565b6020026020010151670de0b6b3a7640000612b12565b508190506128a18161482a565b915050612653565b600080516020614a678339815191526128c181612b08565b50602255565b600081815260176020526040812054610100900460ff1661291e5760405162461bcd60e51b81526020600482015260116024820152701c995c5d595cdd081b9bdd08199bdd5b99607a1b6044820152606401610e58565b60008281526017602090815260408083208151606081018352815460ff808216151583526101009091041615158185015260018201805484518187028101870186528181529295939486019383018282801561299957602002820191906000526020600020905b815481526020019060010190808311612985575b5050505050815250509050603354602e54106129ec57606181604001516000815181106129c8576129c8614971565b60200260200101516129da9190614987565b6129e59060016148f1565b9392505050565b60225481604001516000815181106129c8576129c8614971565b50919050565b6001600160a01b03831660009081526024602052604090205460ff16612a90576025805460018082019092557f401968ff42a154441da5f6c4c935ac46b8671f0e062baaa62a7545ba53bb6e4c0180546001600160a01b0319166001600160a01b0386169081179091556000908152602460205260409020805460ff191690911790555b6001600160a01b0383166000818152602360209081526040808320869055602654835260278252808320848452600501825291829020805460ff191660011790558151858152841515918101919091527fc05909672b3730633581d6cf7b807382b3572d7805ace294b8d4b3558c5cc7ff9101611b37565b611e5d81336138d5565b6001600160a01b038316600090815260076020526040812054612b369083906148de565b6001600160a01b038086166000908152600760205260408082209390935590851681522054612b669083906148f1565b6001600160a01b038085166000818152600760205260409081902093909355915190861690600080516020614a4783398151915290612ba89086815260200190565b60405180910390a35060019392505050565b6000546001600160a01b031633146116695760405163118cdaa760e01b8152336004820152602401610e58565b600082815260176020526040902054610100900460ff16612c3e5760405162461bcd60e51b81526020600482015260116024820152701c995c5d595cdd081b9bdd08199bdd5b99607a1b6044820152606401610e58565b6000828152601760209081526040909120805460ff1916600190811782558351612c6f9392909101918401906142fc565b506026546000908152602760209081526040808320858452600681018352818420546001600160a01b0316845260080190915290819020805460ff19166001179055517ffe2e2d779dba245964d4e3ef9b994be63856fd568bf7d3ca9e224755cb1bd54d90612ce1908490849061499b565b60405180910390a15050565b6001600160a01b03831660009081526009602052604081205460ff1680612d2c57506001600160a01b03831660009081526009602052604090205460ff165b80612d405750601954600160a01b900460ff165b612d8c5760405162461bcd60e51b815260206004820152601b60248201527f4e6f7420617574686f72697a656420746f2074726164652079657400000000006044820152606401610e58565b6019546001600160a01b03848116911614612df8576001600160a01b0383166000908152601c602052604090205460ff16612df85760405162461bcd60e51b815260206004820152600c60248201526b139bdd081a5b999958dd195960a21b6044820152606401610e58565b604054610100900460ff168015612e1d57506019546001600160a01b03848116911614155b15612eae57612e3a600080516020614a6783398151915285611ef0565b80612e585750612e58600080516020614a6783398151915284611ef0565b612eae5760405162461bcd60e51b815260206004820152602160248201527f47616d65206973206f7665722c206f6e6c792061646d696e732063616e2062756044820152607960f81b6064820152608401610e58565b6000546001600160a01b03858116911614801590612eda57506000546001600160a01b03848116911614155b8015612ef157506001600160a01b03831661dead14155b15612fb7576019546001600160a01b03848116911614612fb7576001600160a01b0383166000908152600a602052604090205460ff1680612f5757506006546001600160a01b038416600090815260076020526040902054612f549084906148f1565b11155b612fb75760405162461bcd60e51b815260206004820152602b60248201527f5472616e7366657220616d6f756e74206578636565647320746865204d61785760448201526a30b63632ba1039b4bd329760a91b6064820152608401610e58565b612fbf61390e565b8015612fd857506019546001600160a01b038481169116145b15612fe557612fe561396c565b6001600160a01b0384166000908152600760205260409020546130099083906148de565b6001600160a01b038516600090815260076020908152604080832093909355600990529081205460ff1615158061305a57506001600160a01b03841660009081526009602052604090205460ff1615155b61306e57613069858585613b54565b613070565b825b6001600160a01b0385166000908152600760205260409020549091506130979082906148f1565b6001600160a01b038086166000818152600760205260409081902093909355915190871690600080516020614a47833981519152906130d99085815260200190565b60405180910390a3506001949350505050565b6001600160a01b03831661314e5760405162461bcd60e51b8152602060048201526024808201527f45524332303a20617070726f76652066726f6d20746865207a65726f206164646044820152637265737360e01b6064820152608401610e58565b6001600160a01b0382166131af5760405162461bcd60e51b815260206004820152602260248201527f45524332303a20617070726f766520746f20746865207a65726f206164647265604482015261737360f01b6064820152608401610e58565b6001600160a01b0383811660008181526008602090815260408083209487168084529482529182902085905590518481527f8c5be1e5ebec7d5bd14f71427d1e84f3dd0314c0f7b2291e5b200ac8c7c3b925910160405180910390a3505050565b600061321c8383611ef0565b6132815760008381526001602081815260408084206001600160a01b0387168086529252808420805460ff19169093179092559051339286917f2f8788117e7eff1d82e926ec794901d17c78024a50270940304540a733656f0d9190a45060016111f0565b5060006111f0565b60006132958383611ef0565b156132815760008381526001602090815260408083206001600160a01b0386168085529252808320805460ff1916905551339286917ff6391f5c32d9c69d2a47ea670b442974b53935d1edc7fd64eb21e047a839171b9190a45060016111f0565b602654600090815260276020526040902060090154156133895760215460265460009081526027602052604090819020905163f25addf560e01b81526001600160a01b039092169163f25addf59161335691600990910190600401614921565b600060405180830381600087803b15801561337057600080fd5b505af1158015613384573d6000803e3d6000fd5b505050505b602680549060006133998361482a565b909155505060265460008181526027602052604090209081554260019091018190556133c890620143706148f1565b602654600090815260276020526040812060020191909155602b819055602c819055602d819055602e81905560288190555b6025548110156134ad576000602360006025848154811061341d5761341d614971565b60009182526020808320909101546001600160a01b03168352820192909252604001902054111561349b576001602360006025848154811061346157613461614971565b60009182526020808320909101546001600160a01b03168352820192909252604001812080549091906134959084906148de565b90915550505b806134a58161482a565b9150506133fa565b5060405460ff166134c6576040805460ff191660011790555b611669613ffe565b336134d76142de565b6134df6142de565b6000805b600581101561354857601e60006044836005811061350357613503614971565b01546001600160a01b0316815260208101919091526040016000205484826005811061353157613531614971565b6020020152806135408161482a565b9150506134e3565b5060005b600581101561359857846001600160a01b03166044826005811061357257613572614971565b01546001600160a01b031603613586578091505b806135908161482a565b91505061354c565b506001600160a01b0384166000908152601e602052604090205483511080156135cc57506135c8600160056148de565b8114155b1561181d57806000036135e6576001600160a01b03841682525b60006135f38260016148f1565b90505b60058110156136bb576001600160a01b0385166000908152601e602052604090205484826005811061362a5761362a614971565b602002015110156136a9576044816005811061364857613648614971565b01546001600160a01b03168361365f6001846148de565b6005811061366f5761366f614971565b6001600160a01b0390921660209290920201528483826005811061369557613695614971565b6001600160a01b0390921660209290920201525b806136b38161482a565b9150506135f6565b50611e586044836005614347565b600080546001600160a01b038381166001600160a01b0319831681178455604051919092169283917f8be0079c531659141344cd1fd0a4f28419497f9722a3daafe3b4186f6b6457e09190a35050565b6012546015546016546040516305d3b1d360e41b81526004810192909252600160a01b830467ffffffffffffffff166024830152640100000000810461ffff16604483015263ffffffff808216606484015266010000000000009091041660848201526000916001600160a01b031690635d3b1d309060a4016020604051808303816000875af11580156137b1573d6000803e3d6000fd5b505050506040513d601f19601f820116820180604052508101906137d591906149e9565b6040805160608101825260008082526001602080840182815285518481528083018752858701908152878552601783529590932084518154945161ffff1990951690151561ff0019161761010094151594909402939093178355935180519596509294919361384a93918501929101906142fc565b5050601380546001810182556000919091527f66de8ffda797e3de9c05e8fc57b3bf0ec28a930d40b0d285d93c06501cf6a0900182905550601481905560165460408051838152660100000000000090920463ffffffff1660208301527fcc58b13ad3eab50626c6a6300b1d139cd6ebb1688a7cced9461c2f7e762665ee910160405180910390a190565b6138df8282611ef0565b6110915760405163e2517d3f60e01b81526001600160a01b038216600482015260248101839052604401610e58565b6019546000906001600160a01b0316331480159061392f5750601b5460ff16155b80156139445750601954600160a81b900460ff165b80156139675750601a5460415461395a30611e60565b61396491906148de565b10155b905090565b601b805460ff1916600117905560415460009061398830611e60565b61399291906148de565b604080516002808252606082018352929350600092909160208301908036833701905050905030816000815181106139cc576139cc614971565b6001600160a01b03928316602091820292909201810191909152601854604080516315ab88c960e31b81529051919093169263ad5c46489260048083019391928290030181865afa158015613a25573d6000803e3d6000fd5b505050506040513d601f19601f82011682018060405250810190613a499190614904565b81600181518110613a5c57613a5c614971565b6001600160a01b039283166020918202929092010152601854166352aa4c22836000843082613a8d4261012c6148f1565b6040518763ffffffff1660e01b8152600401613aae96959493929190614a02565b600060405180830381600087803b158015613ac857600080fd5b505af1158015613adc573d6000803e3d6000fd5b504792505081159050613b45576010546040516000916001600160a01b03169061753090849084818181858888f193505050503d8060008114613b3b576040519150601f19603f3d011682016040523d82523d6000602084013e613b40565b606091505b505050505b5050601b805460ff1916905550565b60195460009081908190819081906001600160a01b038981169116148015613b8a57506019546001600160a01b03888116911614155b15613d36576001600160a01b038716600090815260236020526040902054600103613c3e57600361271060345488613bc29190614877565b613bcc91906148a4565b613bd691906148a4565b6001600160a01b038089166000908152601d60209081526040808320549093168252601f905290812080549296508695508594508492909190613c1a9084906148f1565b925050819055508260416000828254613c3391906148f1565b90915550613f049050565b6001600160a01b038716600090815260236020526040902054600203613ced57600361271060355488613c719190614877565b613c7b91906148a4565b613c8591906148a4565b6001600160a01b038089166000908152601d60209081526040808320549093168252601f905290812080549296508695508594508492909190613cc99084906148f1565b925050819055508260416000828254613ce291906148f1565b90915550613d319050565b6001600160a01b038716600090815260236020526040902054600303613d2057600361271060365488613c719190614877565b612710600c5487613bcc9190614877565b613f04565b6019546001600160a01b03898116911614801590613d6157506019546001600160a01b038881169116145b15613f0457604054610100900460ff1615613d9557612710613d8487600a614877565b613d8e91906148a4565b9350613f04565b6001600160a01b038816600090815260236020526040902054600103613e2057600361271060375488613dc89190614877565b613dd291906148a4565b613ddc91906148a4565b6001600160a01b03808a166000908152601d60209081526040808320549093168252601f905290812080549296508695508594508492909190613c1a9084906148f1565b6001600160a01b038816600090815260236020526040902054600203613e5357600361271060385488613dc89190614877565b6001600160a01b038816600090815260236020526040902054600303613e8657600361271060395488613dc89190614877565b612710600e5487613e979190614877565b613ea191906148a4565b6001600160a01b03808a166000908152601d60209081526040808320549093168252601f905290812080549296508695508594508492909190613ee59084906148f1565b925050819055508260416000828254613efe91906148f1565b90915550505b81613f0f84866148f1565b613f1991906148f1565b90508015613fe857613f2b82826148de565b3060009081526007602052604081208054909190613f4a9084906148f1565b90915550506021546001600160a01b031660009081526007602052604081208054849290613f799084906148f1565b909155503090506001600160a01b038916600080516020614a47833981519152613fa385856148de565b60405190815260200160405180910390a36021546040518381526001600160a01b03918216918a1690600080516020614a478339815191529060200160405180910390a35b613ff281876148de565b98975050505050505050565b600554614031600554602654603a546140179190614877565b614022906064614877565b61402c9190614877565b61414c565b600b5461403e91906148de565b61404891906148a4565b603455600554602654603b546140649183916140179190614877565b600b5461407191906148de565b61407b91906148a4565b603555600554602654603c546140979183916140179190614877565b600b546140a491906148de565b6140ae91906148a4565b603655600554602654603d546140ca9183916140179190614877565b600d546140d791906148de565b6140e191906148a4565b603755600554602654603e546140fd9183916140179190614877565b600d5461410a91906148de565b61411491906148a4565b603855600554602654603f546141309183916140179190614877565b600d5461413d91906148de565b61414791906148a4565b603955565b60008160000361415e57506000919050565b6000600161416b84614234565b901c6001901b905060018184816141845761418461488e565b048201901c9050600181848161419c5761419c61488e565b048201901c905060018184816141b4576141b461488e565b048201901c905060018184816141cc576141cc61488e565b048201901c905060018184816141e4576141e461488e565b048201901c905060018184816141fc576141fc61488e565b048201901c905060018184816142145761421461488e565b048201901c90506129e58182858161422e5761422e61488e565b046142c8565b600080608083901c1561424957608092831c92015b604083901c1561425b57604092831c92015b602083901c1561426d57602092831c92015b601083901c1561427f57601092831c92015b600883901c1561429157600892831c92015b600483901c156142a357600492831c92015b600283901c156142b557600292831c92015b600183901c156111f05760010192915050565b60008183106142d757816129e5565b5090919050565b6040518060a001604052806005906020820280368337509192915050565b828054828255906000526020600020908101928215614337579160200282015b8281111561433757825182559160200191906001019061431c565b5061434392915061438f565b5090565b8260058101928215614337579160200282015b8281111561433757825182546001600160a01b0319166001600160a01b0390911617825560209092019160019091019061435a565b5b808211156143435760008155600101614390565b6001600160a01b0381168114611e5d57600080fd5b6000602082840312156143cb57600080fd5b81356129e5816143a4565b6000602082840312156143e857600080fd5b81356001600160e01b0319811681146129e557600080fd5b600060208083528351808285015260005b8181101561442d57858101830151858201604001528201614411565b506000604082860101526040601f19601f8301168501019250505092915050565b6000806040838503121561446157600080fd5b823561446c816143a4565b946020939093013593505050565b60006020828403121561448c57600080fd5b5035919050565b634e487b7160e01b600052604160045260246000fd5b604051601f8201601f1916810167ffffffffffffffff811182821017156144d2576144d2614493565b604052919050565b600067ffffffffffffffff8211156144f4576144f4614493565b5060051b60200190565b6000806040838503121561451157600080fd5b8235915060208084013567ffffffffffffffff81111561453057600080fd5b8401601f8101861361454157600080fd5b803561455461454f826144da565b6144a9565b81815260059190911b8201830190838101908883111561457357600080fd5b928401925b8284101561459157833582529284019290840190614578565b80955050505050509250929050565b803580151581146145b057600080fd5b919050565b600080604083850312156145c857600080fd5b82356145d3816143a4565b91506145e1602084016145a0565b90509250929050565b6000806000606084860312156145ff57600080fd5b833561460a816143a4565b9250602084013561461a816143a4565b929592945050506040919091013590565b6000806040838503121561463e57600080fd5b823591506020830135614650816143a4565b809150509250929050565b600081518084526020808501945080840160005b838110156146945781516001600160a01b03168752958201959082019060010161466f565b509495945050505050565b6020815260006129e5602083018461465b565b60a08101818360005b60058110156146e35781516001600160a01b03168352602092830192909101906001016146bb565b50505092915050565b600080604083850312156146ff57600080fd5b823561470a816143a4565b91506020830135614650816143a4565b6000806040838503121561472d57600080fd5b61446c836145a0565b6000602080838503121561474957600080fd5b823567ffffffffffffffff81111561476057600080fd5b8301601f8101851361477157600080fd5b803561477f61454f826144da565b81815260059190911b8201830190838101908783111561479e57600080fd5b928401925b828410156147c55783356147b6816143a4565b825292840192908401906147a3565b979650505050505050565b60208082526024908201527f45706f6368206973206f7665722c207761697420666f7220746865206e657874604082015263206f6e6560e01b606082015260800190565b634e487b7160e01b600052601160045260246000fd5b60006001820161483c5761483c614814565b5060010190565b600181811c9082168061485757607f821691505b602082108103612a0657634e487b7160e01b600052602260045260246000fd5b80820281158282048414176111f0576111f0614814565b634e487b7160e01b600052601260045260246000fd5b6000826148b3576148b361488e565b500490565b6020808252600c908201526b23b0b6b29034b99037bb32b960a11b604082015260600190565b818103818111156111f0576111f0614814565b808201808211156111f0576111f0614814565b60006020828403121561491657600080fd5b81516129e5816143a4565b6020808252825482820181905260008481528281209092916040850190845b818110156149655783546001600160a01b031683526001938401939285019201614940565b50909695505050505050565b634e487b7160e01b600052603260045260246000fd5b6000826149965761499661488e565b500690565b6000604082018483526020604081850152818551808452606086019150828701935060005b818110156149dc578451835293830193918301916001016149c0565b5090979650505050505050565b6000602082840312156149fb57600080fd5b5051919050565b86815285602082015260c060408201526000614a2160c083018761465b565b6001600160a01b03958616606084015293909416608082015260a0015294935050505056feddf252ad1be2c89b69c2b068fc378daa952ba7f163c4a11628f55a4df523b3efa49807205ce4d355092ef5a8a18f56e8913cf4a201fbe287825b095693c21775a264697066735822122092685b896ffc468cbda0d2bf2276b5516926a09f569cd9349cb9306d3f75378f64736f6c6343000814003360806040526a14adf4b7320334b9000000600355600060045534801561002457600080fd5b5060405161089a38038061089a83398101604081905261004391610118565b806001600160a01b03811661007257604051631e4fbdf760e01b81526000600482015260240160405180910390fd5b61007b816100ac565b5050600180546001600160a01b039092166001600160a01b031992831681179091556002805490921617905561014b565b600080546001600160a01b038381166001600160a01b0319831681178455604051919092169283917f8be0079c531659141344cd1fd0a4f28419497f9722a3daafe3b4186f6b6457e09190a35050565b80516001600160a01b038116811461011357600080fd5b919050565b6000806040838503121561012b57600080fd5b610134836100fc565b9150610142602084016100fc565b90509250929050565b6107408061015a6000396000f3fe608060405234801561001057600080fd5b50600436106100885760003560e01c8063efca2eed1161005b578063efca2eed146100dc578063f25addf5146100f3578063f2fde38b14610106578063fc0c546a1461011957600080fd5b8063715018a61461008d578063853828b6146100975780638da5cb5b1461009f5780639d76ea58146100c9575b600080fd5b61009561012c565b005b610095610140565b6000546001600160a01b03165b6040516001600160a01b0390911681526020015b60405180910390f35b6002546100ac906001600160a01b031681565b6100e560045481565b6040519081526020016100c0565b610095610101366004610568565b610230565b61009561011436600461062d565b61047e565b6001546100ac906001600160a01b031681565b6101346104b9565b61013e60006104e6565b565b6101486104b9565b6001546040516370a0823160e01b81523060048201526001600160a01b039091169063a9059cbb90339083906370a0823190602401602060405180830381865afa15801561019a573d6000803e3d6000fd5b505050506040513d601f19601f820116820180604052508101906101be919061064f565b6040516001600160e01b031960e085901b1681526001600160a01b03909216600483015260248201526044016020604051808303816000875af1158015610209573d6000803e3d6000fd5b505050506040513d601f19601f8201168201806040525081019061022d9190610668565b50565b6002546001600160a01b031633146102a25760405162461bcd60e51b815260206004820152602a60248201527f4f6e6c7920746f6b656e20636f6e74726163742063616e2063616c6c207468696044820152693990333ab731ba34b7b760b11b60648201526084015b60405180910390fd5b6003546001546040516370a0823160e01b8152306004820152600092916001600160a01b0316906370a0823190602401602060405180830381865afa1580156102ef573d6000803e3d6000fd5b505050506040513d601f19601f82011682018060405250810190610313919061064f565b11610389576001546040516370a0823160e01b81523060048201526001600160a01b03909116906370a0823190602401602060405180830381865afa158015610360573d6000803e3d6000fd5b505050506040513d601f19601f82011682018060405250810190610384919061064f565b61038d565b6003545b905080600460008282546103a191906106a0565b9091555050801561047a5760005b82518110156104785760015483516001600160a01b039091169063a9059cbb908590849081106103e1576103e16106b9565b60200260200101518551856103f691906106cf565b6040516001600160e01b031960e085901b1681526001600160a01b03909216600483015260248201526044016020604051808303816000875af1158015610441573d6000803e3d6000fd5b505050506040513d601f19601f820116820180604052508101906104659190610668565b5080610470816106f1565b9150506103af565b505b5050565b6104866104b9565b6001600160a01b0381166104b057604051631e4fbdf760e01b815260006004820152602401610299565b61022d816104e6565b6000546001600160a01b0316331461013e5760405163118cdaa760e01b8152336004820152602401610299565b600080546001600160a01b038381166001600160a01b0319831681178455604051919092169283917f8be0079c531659141344cd1fd0a4f28419497f9722a3daafe3b4186f6b6457e09190a35050565b634e487b7160e01b600052604160045260246000fd5b80356001600160a01b038116811461056357600080fd5b919050565b6000602080838503121561057b57600080fd5b823567ffffffffffffffff8082111561059357600080fd5b818501915085601f8301126105a757600080fd5b8135818111156105b9576105b9610536565b8060051b604051601f19603f830116810181811085821117156105de576105de610536565b6040529182528482019250838101850191888311156105fc57600080fd5b938501935b82851015610621576106128561054c565b84529385019392850192610601565b98975050505050505050565b60006020828403121561063f57600080fd5b6106488261054c565b9392505050565b60006020828403121561066157600080fd5b5051919050565b60006020828403121561067a57600080fd5b8151801515811461064857600080fd5b634e487b7160e01b600052601160045260246000fd5b808201808211156106b3576106b361068a565b92915050565b634e487b7160e01b600052603260045260246000fd5b6000826106ec57634e487b7160e01b600052601260045260246000fd5b500490565b6000600182016107035761070361068a565b506001019056fea26469706673582212206b527e644d8c38e6cff6f7f273216ce647251a24ee1560183363f1bf8384876564736f6c63430008140033","opcodes":"PUSH1 0xE0 PUSH1 0x40 MSTORE PUSH1 0xE PUSH1 0xA0 SWAP1 DUP2 MSTORE PUSH14 0x109B1A59DA1D08141C9BDA9958DD PUSH1 0x92 SHL PUSH1 0xC0 MSTORE PUSH1 0x2 SWAP1 PUSH3 0x2F SWAP1 DUP3 PUSH3 0x775 JUMP JUMPDEST POP PUSH1 0x40 DUP1 MLOAD DUP1 DUP3 ADD SWAP1 SWAP2 MSTORE PUSH1 0x3 DUP1 DUP3 MSTORE PUSH3 0x424C49 PUSH1 0xE8 SHL PUSH1 0x20 DUP4 ADD MSTORE SWAP1 PUSH3 0x58 SWAP1 DUP3 PUSH3 0x775 JUMP JUMPDEST POP PUSH3 0x67 PUSH1 0x12 PUSH1 0xA PUSH3 0x954 JUMP JUMPDEST PUSH3 0x77 SWAP1 PUSH4 0x3B9ACA00 PUSH3 0x96C JUMP JUMPDEST PUSH1 0x4 SSTORE PUSH10 0xD3C21BCECCEDA1000000 PUSH1 0x5 SSTORE PUSH2 0x3E8 PUSH1 0x4 SLOAD PUSH1 0xA PUSH3 0x9C SWAP2 SWAP1 PUSH3 0x96C JUMP JUMPDEST PUSH3 0xA8 SWAP2 SWAP1 PUSH3 0x986 JUMP JUMPDEST PUSH1 0x6 SSTORE PUSH1 0x5 SLOAD PUSH3 0xBC SWAP1 PUSH2 0x258 PUSH3 0x96C JUMP JUMPDEST PUSH1 0xB SSTORE PUSH1 0xC8 PUSH1 0xC SSTORE PUSH1 0x5 SLOAD PUSH3 0xD5 SWAP1 PUSH2 0x384 PUSH3 0x96C JUMP JUMPDEST PUSH1 0xD SSTORE PUSH2 0x12C PUSH1 0xE SSTORE PUSH1 0x10 DUP1 SLOAD PUSH20 0x3E98DA13E184EA1467639BF642F804144539694D PUSH1 0x1 PUSH1 0x1 PUSH1 0xA0 SHL SUB NOT SWAP2 DUP3 AND OR SWAP1 SWAP2 SSTORE PUSH1 0x11 DUP1 SLOAD PUSH20 0x41034678D6C633D8A95C75E1138A360A28BA15D1 SWAP3 AND SWAP2 SWAP1 SWAP2 OR SWAP1 SSTORE PUSH1 0x12 DUP1 SLOAD PUSH1 0x1 PUSH1 0x1 PUSH1 0xE0 SHL SUB NOT AND PUSH21 0x6D41034678D6C633D8A95C75E1138A360A28BA15D1 OR SWAP1 SSTORE PUSH32 0x72D2B016BB5B62912AFEA355EBF33B91319F828738B111B723B78696B9847B63 PUSH1 0x15 SSTORE PUSH1 0x16 DUP1 SLOAD PUSH1 0x1 PUSH1 0x1 PUSH1 0x50 SHL SUB NOT AND PUSH7 0x10003000186A0 OR SWAP1 SSTORE PUSH1 0x19 DUP1 SLOAD PUSH2 0xFFFF PUSH1 0xA0 SHL NOT AND SWAP1 SSTORE PUSH1 0x4 SLOAD PUSH3 0x1AC SWAP1 PUSH2 0x3E8 SWAP1 PUSH3 0x986 JUMP JUMPDEST PUSH3 0x1B9 SWAP1 PUSH1 0x3 PUSH3 0x96C JUMP JUMPDEST PUSH1 0x1A SSTORE PUSH1 0x64 PUSH1 0x22 SSTORE PUSH1 0x0 PUSH1 0x26 SSTORE PUSH1 0x0 PUSH1 0x28 SSTORE PUSH1 0x0 PUSH1 0x29 SSTORE PUSH10 0x34F086F3B33B68400000 PUSH1 0x2A SSTORE PUSH1 0x0 PUSH1 0x2B SSTORE PUSH1 0x0 PUSH1 0x2C SSTORE PUSH1 0x0 PUSH1 0x2D SSTORE PUSH1 0x0 PUSH1 0x2E SSTORE PUSH1 0x0 PUSH1 0x2F SSTORE PUSH1 0x0 PUSH1 0x30 SSTORE PUSH1 0x0 PUSH1 0x31 SSTORE PUSH1 0x0 PUSH1 0x32 SSTORE PUSH1 0xA PUSH1 0x33 SSTORE PUSH1 0x5 SLOAD PUSH1 0xE5 PUSH3 0x21C SWAP2 SWAP1 PUSH3 0x96C JUMP JUMPDEST PUSH1 0x3A SSTORE PUSH1 0x5 SLOAD PUSH3 0x230 SWAP1 PUSH2 0x165 PUSH3 0x96C JUMP JUMPDEST PUSH1 0x3B SSTORE PUSH1 0x5 SLOAD PUSH3 0x244 SWAP1 PUSH2 0x202 PUSH3 0x96C JUMP JUMPDEST PUSH1 0x3C SSTORE PUSH1 0x5 SLOAD PUSH3 0x258 SWAP1 PUSH2 0x2BC PUSH3 0x96C JUMP JUMPDEST PUSH1 0x3D SSTORE PUSH1 0x5 SLOAD PUSH3 0x26C SWAP1 PUSH2 0x392 PUSH3 0x96C JUMP JUMPDEST PUSH1 0x3E SSTORE PUSH1 0x5 SLOAD PUSH3 0x280 SWAP1 PUSH2 0x485 PUSH3 0x96C JUMP JUMPDEST PUSH1 0x3F SSTORE PUSH1 0x40 DUP1 SLOAD PUSH2 0xFFFF NOT AND SWAP1 SSTORE CALLVALUE DUP1 ISZERO PUSH3 0x29B JUMPI PUSH1 0x0 DUP1 REVERT JUMPDEST POP PUSH1 0x40 MLOAD PUSH3 0x5D63 CODESIZE SUB DUP1 PUSH3 0x5D63 DUP4 CODECOPY DUP2 ADD PUSH1 0x40 DUP2 SWAP1 MSTORE PUSH3 0x2BE SWAP2 PUSH3 0x9A9 JUMP JUMPDEST PUSH1 0x11 SLOAD PUSH1 0x1 PUSH1 0x1 PUSH1 0xA0 SHL SUB SWAP1 DUP2 AND SWAP1 DUP3 SWAP1 DUP2 AND PUSH3 0x2F6 JUMPI PUSH1 0x40 MLOAD PUSH4 0x1E4FBDF7 PUSH1 0xE0 SHL DUP2 MSTORE PUSH1 0x0 PUSH1 0x4 DUP3 ADD MSTORE PUSH1 0x24 ADD PUSH1 0x40 MLOAD DUP1 SWAP2 SUB SWAP1 REVERT JUMPDEST PUSH3 0x301 DUP2 PUSH3 0x5DB JUMP JUMPDEST POP PUSH1 0x1 PUSH1 0x1 PUSH1 0xA0 SHL SUB AND PUSH1 0x80 MSTORE PUSH1 0x18 DUP1 SLOAD PUSH1 0x1 PUSH1 0x1 PUSH1 0xA0 SHL SUB NOT AND PUSH20 0xC873FECBD354F5A56E00E710B90EF4201DB2448D SWAP1 DUP2 OR SWAP1 SWAP2 SSTORE ADDRESS PUSH1 0x0 SWAP1 DUP2 MSTORE PUSH1 0x8 PUSH1 0x20 SWAP1 DUP2 MSTORE PUSH1 0x40 DUP1 DUP4 KECCAK256 SWAP4 DUP4 MSTORE SWAP3 SWAP1 MSTORE SWAP1 DUP2 KECCAK256 PUSH1 0x0 NOT SWAP1 SSTORE PUSH3 0x363 SWAP1 DUP3 PUSH3 0x62B JUMP JUMPDEST POP PUSH3 0x390 PUSH32 0xA49807205CE4D355092EF5A8A18F56E8913CF4A201FBE287825B095693C21775 DUP3 PUSH3 0x62B JUMP JUMPDEST POP ADDRESS DUP2 PUSH1 0x40 MLOAD PUSH3 0x3A1 SWAP1 PUSH3 0x6C2 JUMP JUMPDEST PUSH1 0x1 PUSH1 0x1 PUSH1 0xA0 SHL SUB SWAP3 DUP4 AND DUP2 MSTORE SWAP2 AND PUSH1 0x20 DUP3 ADD MSTORE PUSH1 0x40 ADD PUSH1 0x40 MLOAD DUP1 SWAP2 SUB SWAP1 PUSH1 0x0 CREATE DUP1 ISZERO DUP1 ISZERO PUSH3 0x3D5 JUMPI RETURNDATASIZE PUSH1 0x0 DUP1 RETURNDATACOPY RETURNDATASIZE PUSH1 0x0 REVERT JUMPDEST POP PUSH1 0x21 DUP1 SLOAD PUSH1 0x1 PUSH1 0x1 PUSH1 0xA0 SHL SUB NOT AND PUSH1 0x1 PUSH1 0x1 PUSH1 0xA0 SHL SUB SWAP3 DUP4 AND OR DUP2 SSTORE CALLER PUSH1 0x0 DUP2 DUP2 MSTORE PUSH1 0x9 PUSH1 0x20 SWAP1 DUP2 MSTORE PUSH1 0x40 DUP1 DUP4 KECCAK256 DUP1 SLOAD PUSH1 0xFF NOT SWAP1 DUP2 AND PUSH1 0x1 SWAP1 DUP2 OR SWAP1 SWAP3 SSTORE ADDRESS DUP1 DUP7 MSTORE DUP4 DUP7 KECCAK256 DUP1 SLOAD DUP4 AND DUP5 OR SWAP1 SSTORE PUSH1 0x10 DUP1 SLOAD DUP11 AND DUP8 MSTORE DUP5 DUP8 KECCAK256 DUP1 SLOAD DUP5 AND DUP6 OR SWAP1 SSTORE DUP8 DUP8 MSTORE PUSH1 0xA DUP7 MSTORE DUP5 DUP8 KECCAK256 DUP1 SLOAD DUP5 AND DUP6 OR SWAP1 SSTORE DUP1 SLOAD DUP11 AND DUP8 MSTORE DUP5 DUP8 KECCAK256 DUP1 SLOAD DUP5 AND DUP6 OR SWAP1 SSTORE PUSH32 0x20677881080440A9B3C87E826370BB5D9C2F74EFD4DEDE686D52D77A6A09F8BB DUP1 SLOAD DUP5 AND DUP6 OR SWAP1 SSTORE SWAP8 SLOAD DUP10 AND DUP7 MSTORE DUP4 DUP7 KECCAK256 DUP1 SLOAD DUP4 AND DUP5 OR SWAP1 SSTORE DUP1 DUP7 MSTORE DUP4 DUP7 KECCAK256 DUP1 SLOAD DUP4 AND DUP5 OR SWAP1 SSTORE PUSH1 0x19 DUP1 SLOAD DUP11 AND DUP8 MSTORE DUP5 DUP8 KECCAK256 DUP1 SLOAD DUP5 AND DUP6 OR SWAP1 SSTORE PUSH32 0x12D72EA8E76B561437DB32297FAD751A60BE1B76E594C67D9366E4CD38A6621D DUP1 SLOAD DUP5 AND DUP6 OR SWAP1 SSTORE DUP8 DUP8 MSTORE PUSH1 0x1C DUP7 MSTORE DUP5 DUP8 KECCAK256 DUP1 SLOAD DUP5 AND DUP6 OR SWAP1 SSTORE SWAP8 SLOAD DUP10 AND DUP7 MSTORE DUP4 DUP7 KECCAK256 DUP1 SLOAD DUP4 AND DUP5 OR SWAP1 SSTORE PUSH32 0xA48BD8E7B1565515CDE2859B6CC48308BA05B5325BCF90FB096B9AC0B8087DFC DUP1 SLOAD DUP4 AND DUP5 OR SWAP1 SSTORE DUP6 MSTORE DUP3 DUP6 KECCAK256 DUP1 SLOAD DUP3 AND DUP4 OR SWAP1 SSTORE SWAP6 SLOAD SWAP1 SWAP7 AND DUP4 MSTORE DUP1 DUP4 KECCAK256 DUP1 SLOAD DUP7 AND DUP8 OR SWAP1 SSTORE PUSH32 0xF79DBCED412724F11AC82795A8B72517DF4379A1DFD463F61834EBCB1EA973CA DUP1 SLOAD SWAP1 SWAP6 AND SWAP1 SWAP6 OR SWAP1 SWAP4 SSTORE PUSH1 0x4 SLOAD SWAP2 DUP2 MSTORE PUSH1 0x7 SWAP1 SWAP3 MSTORE SWAP2 DUP2 KECCAK256 DUP1 SLOAD SWAP1 SWAP2 SWAP1 PUSH3 0x594 SWAP1 DUP5 SWAP1 PUSH3 0x9D4 JUMP JUMPDEST SWAP1 SWAP2 SSTORE POP POP PUSH1 0x4 SLOAD PUSH1 0x40 MLOAD SWAP1 DUP2 MSTORE CALLER SWAP1 PUSH1 0x0 SWAP1 PUSH32 0xDDF252AD1BE2C89B69C2B068FC378DAA952BA7F163C4A11628F55A4DF523B3EF SWAP1 PUSH1 0x20 ADD PUSH1 0x40 MLOAD DUP1 SWAP2 SUB SWAP1 LOG3 POP PUSH3 0x9EA JUMP JUMPDEST PUSH1 0x0 DUP1 SLOAD PUSH1 0x1 PUSH1 0x1 PUSH1 0xA0 SHL SUB DUP4 DUP2 AND PUSH1 0x1 PUSH1 0x1 PUSH1 0xA0 SHL SUB NOT DUP4 AND DUP2 OR DUP5 SSTORE PUSH1 0x40 MLOAD SWAP2 SWAP1 SWAP3 AND SWAP3 DUP4 SWAP2 PUSH32 0x8BE0079C531659141344CD1FD0A4F28419497F9722A3DAAFE3B4186F6B6457E0 SWAP2 SWAP1 LOG3 POP POP JUMP JUMPDEST PUSH1 0x0 DUP3 DUP2 MSTORE PUSH1 0x1 PUSH1 0x20 SWAP1 DUP2 MSTORE PUSH1 0x40 DUP1 DUP4 KECCAK256 PUSH1 0x1 PUSH1 0x1 PUSH1 0xA0 SHL SUB DUP6 AND DUP5 MSTORE SWAP1 SWAP2 MSTORE DUP2 KECCAK256 SLOAD PUSH1 0xFF AND PUSH3 0x6B8 JUMPI PUSH1 0x0 DUP4 DUP2 MSTORE PUSH1 0x1 PUSH1 0x20 DUP2 DUP2 MSTORE PUSH1 0x40 DUP1 DUP5 KECCAK256 PUSH1 0x1 PUSH1 0x1 PUSH1 0xA0 SHL SUB DUP8 AND DUP1 DUP7 MSTORE SWAP3 MSTORE DUP1 DUP5 KECCAK256 DUP1 SLOAD PUSH1 0xFF NOT AND SWAP1 SWAP4 OR SWAP1 SWAP3 SSTORE SWAP1 MLOAD CALLER SWAP3 DUP7 SWAP2 PUSH32 0x2F8788117E7EFF1D82E926EC794901D17C78024A50270940304540A733656F0D SWAP2 SWAP1 LOG4 POP PUSH1 0x1 PUSH3 0x6BC JUMP JUMPDEST POP PUSH1 0x0 JUMPDEST SWAP3 SWAP2 POP POP JUMP JUMPDEST PUSH2 0x89A DUP1 PUSH3 0x54C9 DUP4 CODECOPY ADD SWAP1 JUMP JUMPDEST PUSH4 0x4E487B71 PUSH1 0xE0 SHL PUSH1 0x0 MSTORE PUSH1 0x41 PUSH1 0x4 MSTORE PUSH1 0x24 PUSH1 0x0 REVERT JUMPDEST PUSH1 0x1 DUP2 DUP2 SHR SWAP1 DUP3 AND DUP1 PUSH3 0x6FB JUMPI PUSH1 0x7F DUP3 AND SWAP2 POP JUMPDEST PUSH1 0x20 DUP3 LT DUP2 SUB PUSH3 0x71C JUMPI PUSH4 0x4E487B71 PUSH1 0xE0 SHL PUSH1 0x0 MSTORE PUSH1 0x22 PUSH1 0x4 MSTORE PUSH1 0x24 PUSH1 0x0 REVERT JUMPDEST POP SWAP2 SWAP1 POP JUMP JUMPDEST PUSH1 0x1F DUP3 GT ISZERO PUSH3 0x770 JUMPI PUSH1 0x0 DUP2 DUP2 MSTORE PUSH1 0x20 DUP2 KECCAK256 PUSH1 0x1F DUP6 ADD PUSH1 0x5 SHR DUP2 ADD PUSH1 0x20 DUP7 LT ISZERO PUSH3 0x74B JUMPI POP DUP1 JUMPDEST PUSH1 0x1F DUP6 ADD PUSH1 0x5 SHR DUP3 ADD SWAP2 POP JUMPDEST DUP2 DUP2 LT ISZERO PUSH3 0x76C JUMPI DUP3 DUP2 SSTORE PUSH1 0x1 ADD PUSH3 0x757 JUMP JUMPDEST POP POP POP JUMPDEST POP POP POP JUMP JUMPDEST DUP2 MLOAD PUSH1 0x1 PUSH1 0x1 PUSH1 0x40 SHL SUB DUP2 GT ISZERO PUSH3 0x791 JUMPI PUSH3 0x791 PUSH3 0x6D0 JUMP JUMPDEST PUSH3 0x7A9 DUP2 PUSH3 0x7A2 DUP5 SLOAD PUSH3 0x6E6 JUMP JUMPDEST DUP5 PUSH3 0x722 JUMP JUMPDEST PUSH1 0x20 DUP1 PUSH1 0x1F DUP4 GT PUSH1 0x1 DUP2 EQ PUSH3 0x7E1 JUMPI PUSH1 0x0 DUP5 ISZERO PUSH3 0x7C8 JUMPI POP DUP6 DUP4 ADD MLOAD JUMPDEST PUSH1 0x0 NOT PUSH1 0x3 DUP7 SWAP1 SHL SHR NOT AND PUSH1 0x1 DUP6 SWAP1 SHL OR DUP6 SSTORE PUSH3 0x76C JUMP JUMPDEST PUSH1 0x0 DUP6 DUP2 MSTORE PUSH1 0x20 DUP2 KECCAK256 PUSH1 0x1F NOT DUP7 AND SWAP2 JUMPDEST DUP3 DUP2 LT ISZERO PUSH3 0x812 JUMPI DUP9 DUP7 ADD MLOAD DUP3 SSTORE SWAP5 DUP5 ADD SWAP5 PUSH1 0x1 SWAP1 SWAP2 ADD SWAP1 DUP5 ADD PUSH3 0x7F1 JUMP JUMPDEST POP DUP6 DUP3 LT ISZERO PUSH3 0x831 JUMPI DUP8 DUP6 ADD MLOAD PUSH1 0x0 NOT PUSH1 0x3 DUP9 SWAP1 SHL PUSH1 0xF8 AND SHR NOT AND DUP2 SSTORE JUMPDEST POP POP POP POP POP PUSH1 0x1 SWAP1 DUP2 SHL ADD SWAP1 SSTORE POP JUMP JUMPDEST PUSH4 0x4E487B71 PUSH1 0xE0 SHL PUSH1 0x0 MSTORE PUSH1 0x11 PUSH1 0x4 MSTORE PUSH1 0x24 PUSH1 0x0 REVERT JUMPDEST PUSH1 0x1 DUP2 DUP2 JUMPDEST DUP1 DUP6 GT ISZERO PUSH3 0x898 JUMPI DUP2 PUSH1 0x0 NOT DIV DUP3 GT ISZERO PUSH3 0x87C JUMPI PUSH3 0x87C PUSH3 0x841 JUMP JUMPDEST DUP1 DUP6 AND ISZERO PUSH3 0x88A JUMPI SWAP2 DUP2 MUL SWAP2 JUMPDEST SWAP4 DUP5 SHR SWAP4 SWAP1 DUP1 MUL SWAP1 PUSH3 0x85C JUMP JUMPDEST POP SWAP3 POP SWAP3 SWAP1 POP JUMP JUMPDEST PUSH1 0x0 DUP3 PUSH3 0x8B1 JUMPI POP PUSH1 0x1 PUSH3 0x6BC JUMP JUMPDEST DUP2 PUSH3 0x8C0 JUMPI POP PUSH1 0x0 PUSH3 0x6BC JUMP JUMPDEST DUP2 PUSH1 0x1 DUP2 EQ PUSH3 0x8D9 JUMPI PUSH1 0x2 DUP2 EQ PUSH3 0x8E4 JUMPI PUSH3 0x904 JUMP JUMPDEST PUSH1 0x1 SWAP2 POP POP PUSH3 0x6BC JUMP JUMPDEST PUSH1 0xFF DUP5 GT ISZERO PUSH3 0x8F8 JUMPI PUSH3 0x8F8 PUSH3 0x841 JUMP JUMPDEST POP POP PUSH1 0x1 DUP3 SHL PUSH3 0x6BC JUMP JUMPDEST POP PUSH1 0x20 DUP4 LT PUSH2 0x133 DUP4 LT AND PUSH1 0x4E DUP5 LT PUSH1 0xB DUP5 LT AND OR ISZERO PUSH3 0x929 JUMPI POP DUP2 DUP2 EXP PUSH3 0x6BC JUMP JUMPDEST PUSH3 0x935 DUP4 DUP4 PUSH3 0x857 JUMP JUMPDEST DUP1 PUSH1 0x0 NOT DIV DUP3 GT ISZERO PUSH3 0x94C JUMPI PUSH3 0x94C PUSH3 0x841 JUMP JUMPDEST MUL SWAP4 SWAP3 POP POP POP JUMP JUMPDEST PUSH1 0x0 PUSH3 0x965 PUSH1 0xFF DUP5 AND DUP4 PUSH3 0x8A0 JUMP JUMPDEST SWAP4 SWAP3 POP POP POP JUMP JUMPDEST DUP1 DUP3 MUL DUP2 ISZERO DUP3 DUP3 DIV DUP5 EQ OR PUSH3 0x6BC JUMPI PUSH3 0x6BC PUSH3 0x841 JUMP JUMPDEST PUSH1 0x0 DUP3 PUSH3 0x9A4 JUMPI PUSH4 0x4E487B71 PUSH1 0xE0 SHL PUSH1 0x0 MSTORE PUSH1 0x12 PUSH1 0x4 MSTORE PUSH1 0x24 PUSH1 0x0 REVERT JUMPDEST POP DIV SWAP1 JUMP JUMPDEST PUSH1 0x0 PUSH1 0x20 DUP3 DUP5 SUB SLT ISZERO PUSH3 0x9BC JUMPI PUSH1 0x0 DUP1 REVERT JUMPDEST DUP2 MLOAD PUSH1 0x1 PUSH1 0x1 PUSH1 0xA0 SHL SUB DUP2 AND DUP2 EQ PUSH3 0x965 JUMPI PUSH1 0x0 DUP1 REVERT JUMPDEST DUP1 DUP3 ADD DUP1 DUP3 GT ISZERO PUSH3 0x6BC JUMPI PUSH3 0x6BC PUSH3 0x841 JUMP JUMPDEST PUSH1 0x80 MLOAD PUSH2 0x4ABC PUSH3 0xA0D PUSH1 0x0 CODECOPY PUSH1 0x0 DUP2 DUP2 PUSH2 0x1676 ADD MSTORE PUSH2 0x16B8 ADD MSTORE PUSH2 0x4ABC PUSH1 0x0 RETURN INVALID PUSH1 0x80 PUSH1 0x40 MSTORE PUSH1 0x4 CALLDATASIZE LT PUSH2 0x41E JUMPI PUSH1 0x0 CALLDATALOAD PUSH1 0xE0 SHR DUP1 PUSH4 0x658D4B7F GT PUSH2 0x21E JUMPI DUP1 PUSH4 0xAB7573DD GT PUSH2 0x123 JUMPI DUP1 PUSH4 0xDF20FD49 GT PUSH2 0xAB JUMPI DUP1 PUSH4 0xF887EA40 GT PUSH2 0x7A JUMPI DUP1 PUSH4 0xF887EA40 EQ PUSH2 0xD52 JUMPI DUP1 PUSH4 0xFBFA77CF EQ PUSH2 0xD72 JUMPI DUP1 PUSH4 0xFC2A88C3 EQ PUSH2 0xD92 JUMPI DUP1 PUSH4 0xFD39EF78 EQ PUSH2 0xDA8 JUMPI DUP1 PUSH4 0xFD6E28CF EQ PUSH2 0xDC8 JUMPI PUSH1 0x0 DUP1 REVERT JUMPDEST DUP1 PUSH4 0xDF20FD49 EQ PUSH2 0xCD2 JUMPI DUP1 PUSH4 0xF25C7EA4 EQ PUSH2 0xCF2 JUMPI DUP1 PUSH4 0xF2FDE38B EQ PUSH2 0xD12 JUMPI DUP1 PUSH4 0xF5415CBB EQ PUSH2 0xD32 JUMPI PUSH1 0x0 DUP1 REVERT JUMPDEST DUP1 PUSH4 0xC6B61E4C GT PUSH2 0xF2 JUMPI DUP1 PUSH4 0xC6B61E4C EQ PUSH2 0xBEB JUMPI DUP1 PUSH4 0xD02C6394 EQ PUSH2 0xC42 JUMPI DUP1 PUSH4 0xD3A9FFC4 EQ PUSH2 0xC57 JUMPI DUP1 PUSH4 0xD547741F EQ PUSH2 0xC6C JUMPI DUP1 PUSH4 0xDD62ED3E EQ PUSH2 0xC8C JUMPI PUSH1 0x0 DUP1 REVERT JUMPDEST DUP1 PUSH4 0xAB7573DD EQ PUSH2 0xB6C JUMPI DUP1 PUSH4 0xC26D68F9 EQ PUSH2 0xB99 JUMPI DUP1 PUSH4 0xC315432A EQ PUSH2 0xBBB JUMPI DUP1 PUSH4 0xC3EC8897 EQ PUSH2 0xBD5 JUMPI PUSH1 0x0 DUP1 REVERT JUMPDEST DUP1 PUSH4 0x8C5799CE GT PUSH2 0x1A6 JUMPI DUP1 PUSH4 0x96EB64A9 GT PUSH2 0x175 JUMPI DUP1 PUSH4 0x96EB64A9 EQ PUSH2 0xAE1 JUMPI DUP1 PUSH4 0xA217FDDF EQ PUSH2 0xB01 JUMPI DUP1 PUSH4 0xA8AA1B31 EQ PUSH2 0xB16 JUMPI DUP1 PUSH4 0xA9059CBB EQ PUSH2 0xB36 JUMPI DUP1 PUSH4 0xAA9BBC0C EQ PUSH2 0xB56 JUMPI PUSH1 0x0 DUP1 REVERT JUMPDEST DUP1 PUSH4 0x8C5799CE EQ PUSH2 0xA5E JUMPI DUP1 PUSH4 0x8DA5CB5B EQ PUSH2 0xA8E JUMPI DUP1 PUSH4 0x91D14854 EQ PUSH2 0xAAC JUMPI DUP1 PUSH4 0x95D89B41 EQ PUSH2 0xACC JUMPI PUSH1 0x0 DUP1 REVERT JUMPDEST DUP1 PUSH4 0x70A08231 GT PUSH2 0x1ED JUMPI DUP1 PUSH4 0x70A08231 EQ PUSH2 0x9C7 JUMPI DUP1 PUSH4 0x715018A6 EQ PUSH2 0x9E7 JUMPI DUP1 PUSH4 0x73A432BB EQ PUSH2 0x9FC JUMPI DUP1 PUSH4 0x75B238FC EQ PUSH2 0xA1C JUMPI DUP1 PUSH4 0x8796BA8C EQ PUSH2 0xA3E JUMPI PUSH1 0x0 DUP1 REVERT JUMPDEST DUP1 PUSH4 0x658D4B7F EQ PUSH2 0x94F JUMPI DUP1 PUSH4 0x6789C92C EQ PUSH2 0x96F JUMPI DUP1 PUSH4 0x6CBC2DED EQ PUSH2 0x991 JUMPI DUP1 PUSH4 0x6DDD1713 EQ PUSH2 0x9A6 JUMPI PUSH1 0x0 DUP1 REVERT JUMPDEST DUP1 PUSH4 0x23B872DD GT PUSH2 0x324 JUMPI DUP1 PUSH4 0x43D4F92B GT PUSH2 0x2AC JUMPI DUP1 PUSH4 0x5119C971 GT PUSH2 0x27B JUMPI DUP1 PUSH4 0x5119C971 EQ PUSH2 0x8A6 JUMPI DUP1 PUSH4 0x54D41B5B EQ PUSH2 0x8BC JUMPI DUP1 PUSH4 0x571AC8B0 EQ PUSH2 0x8E9 JUMPI DUP1 PUSH4 0x5BC04469 EQ PUSH2 0x909 JUMPI DUP1 PUSH4 0x636EE0DB EQ PUSH2 0x91F JUMPI PUSH1 0x0 DUP1 REVERT JUMPDEST DUP1 PUSH4 0x43D4F92B EQ PUSH2 0x846 JUMPI DUP1 PUSH4 0x4726319F EQ PUSH2 0x866 JUMPI DUP1 PUSH4 0x4E71D92D EQ PUSH2 0x87C JUMPI DUP1 PUSH4 0x4FAB9E4C EQ PUSH2 0x891 JUMPI PUSH1 0x0 DUP1 REVERT JUMPDEST DUP1 PUSH4 0x313CE567 GT PUSH2 0x2F3 JUMPI DUP1 PUSH4 0x313CE567 EQ PUSH2 0x792 JUMPI DUP1 PUSH4 0x31D7A262 EQ PUSH2 0x7AE JUMPI DUP1 PUSH4 0x36568ABE EQ PUSH2 0x7DB JUMPI DUP1 PUSH4 0x3AAB0A62 EQ PUSH2 0x7FB JUMPI DUP1 PUSH4 0x3ECA5343 EQ PUSH2 0x810 JUMPI PUSH1 0x0 DUP1 REVERT JUMPDEST DUP1 PUSH4 0x23B872DD EQ PUSH2 0x6E9 JUMPI DUP1 PUSH4 0x248A9CA3 EQ PUSH2 0x709 JUMPI DUP1 PUSH4 0x2598CDB2 EQ PUSH2 0x73A JUMPI DUP1 PUSH4 0x2F2FF15D EQ PUSH2 0x772 JUMPI PUSH1 0x0 DUP1 REVERT JUMPDEST DUP1 PUSH4 0xF44E894 GT PUSH2 0x3A7 JUMPI DUP1 PUSH4 0x196228C0 GT PUSH2 0x376 JUMPI DUP1 PUSH4 0x196228C0 EQ PUSH2 0x669 JUMPI DUP1 PUSH4 0x1BD8EBE1 EQ PUSH2 0x67E JUMPI DUP1 PUSH4 0x1CE78AC8 EQ PUSH2 0x694 JUMPI DUP1 PUSH4 0x1FE543E3 EQ PUSH2 0x6A9 JUMPI DUP1 PUSH4 0x2198CF6C EQ PUSH2 0x6C9 JUMPI PUSH1 0x0 DUP1 REVERT JUMPDEST DUP1 PUSH4 0xF44E894 EQ PUSH2 0x5BD JUMPI DUP1 PUSH4 0x1299D7F7 EQ PUSH2 0x5E9 JUMPI DUP1 PUSH4 0x1781E17C EQ PUSH2 0x609 JUMPI DUP1 PUSH4 0x18160DDD EQ PUSH2 0x654 JUMPI PUSH1 0x0 DUP1 REVERT JUMPDEST DUP1 PUSH4 0x5DC0394 GT PUSH2 0x3EE JUMPI DUP1 PUSH4 0x5DC0394 EQ PUSH2 0x517 JUMPI DUP1 PUSH4 0x64A59D0 EQ PUSH2 0x53B JUMPI DUP1 PUSH4 0x6FDDE03 EQ PUSH2 0x55C JUMPI DUP1 PUSH4 0x95EA7B3 EQ PUSH2 0x57E JUMPI DUP1 PUSH4 0xE04A7D8 EQ PUSH2 0x59E JUMPI PUSH1 0x0 DUP1 REVERT JUMPDEST DUP1 PUSH3 0x7F27AE EQ PUSH2 0x42A JUMPI DUP1 PUSH4 0x14C58A3 EQ PUSH2 0x44C JUMPI DUP1 PUSH4 0x1FFC9A7 EQ PUSH2 0x4AC JUMPI DUP1 PUSH4 0x2B2553E EQ PUSH2 0x4CC JUMPI PUSH1 0x0 DUP1 REVERT JUMPDEST CALLDATASIZE PUSH2 0x425 JUMPI STOP JUMPDEST PUSH1 0x0 DUP1 REVERT JUMPDEST CALLVALUE DUP1 ISZERO PUSH2 0x436 JUMPI PUSH1 0x0 DUP1 REVERT JUMPDEST POP PUSH2 0x44A PUSH2 0x445 CALLDATASIZE PUSH1 0x4 PUSH2 0x43B9 JUMP JUMPDEST PUSH2 0xE13 JUMP JUMPDEST STOP JUMPDEST CALLVALUE DUP1 ISZERO PUSH2 0x458 JUMPI PUSH1 0x0 DUP1 REVERT JUMPDEST POP PUSH2 0x497 PUSH2 0x467 CALLDATASIZE PUSH1 0x4 PUSH2 0x43B9 JUMP JUMPDEST PUSH1 0x26 SLOAD PUSH1 0x0 SWAP1 DUP2 MSTORE PUSH1 0x27 PUSH1 0x20 SWAP1 DUP2 MSTORE PUSH1 0x40 DUP1 DUP4 KECCAK256 PUSH1 0x1 PUSH1 0x1 PUSH1 0xA0 SHL SUB SWAP1 SWAP5 AND DUP4 MSTORE PUSH1 0x4 SWAP1 SWAP4 ADD SWAP1 MSTORE KECCAK256 SLOAD PUSH1 0xFF AND SWAP1 JUMP JUMPDEST PUSH1 0x40 MLOAD SWAP1 ISZERO ISZERO DUP2 MSTORE PUSH1 0x20 ADD JUMPDEST PUSH1 0x40 MLOAD DUP1 SWAP2 SUB SWAP1 RETURN JUMPDEST CALLVALUE DUP1 ISZERO PUSH2 0x4B8 JUMPI PUSH1 0x0 DUP1 REVERT JUMPDEST POP PUSH2 0x497 PUSH2 0x4C7 CALLDATASIZE PUSH1 0x4 PUSH2 0x43D6 JUMP JUMPDEST PUSH2 0x11BF JUMP JUMPDEST CALLVALUE DUP1 ISZERO PUSH2 0x4D8 JUMPI PUSH1 0x0 DUP1 REVERT JUMPDEST POP PUSH2 0x497 PUSH2 0x4E7 CALLDATASIZE PUSH1 0x4 PUSH2 0x43B9 JUMP JUMPDEST PUSH1 0x26 SLOAD PUSH1 0x0 SWAP1 DUP2 MSTORE PUSH1 0x27 PUSH1 0x20 SWAP1 DUP2 MSTORE PUSH1 0x40 DUP1 DUP4 KECCAK256 PUSH1 0x1 PUSH1 0x1 PUSH1 0xA0 SHL SUB SWAP1 SWAP5 AND DUP4 MSTORE PUSH1 0x5 SWAP1 SWAP4 ADD SWAP1 MSTORE KECCAK256 SLOAD PUSH1 0xFF AND SWAP1 JUMP JUMPDEST CALLVALUE DUP1 ISZERO PUSH2 0x523 JUMPI PUSH1 0x0 DUP1 REVERT JUMPDEST POP PUSH2 0x52D PUSH1 0x29 SLOAD DUP2 JUMP JUMPDEST PUSH1 0x40 MLOAD SWAP1 DUP2 MSTORE PUSH1 0x20 ADD PUSH2 0x4A3 JUMP JUMPDEST CALLVALUE DUP1 ISZERO PUSH2 0x547 JUMPI PUSH1 0x0 DUP1 REVERT JUMPDEST POP PUSH1 0x19 SLOAD PUSH2 0x497 SWAP1 PUSH1 0x1 PUSH1 0xA0 SHL SWAP1 DIV PUSH1 0xFF AND DUP2 JUMP JUMPDEST CALLVALUE DUP1 ISZERO PUSH2 0x568 JUMPI PUSH1 0x0 DUP1 REVERT JUMPDEST POP PUSH2 0x571 PUSH2 0x11F6 JUMP JUMPDEST PUSH1 0x40 MLOAD PUSH2 0x4A3 SWAP2 SWAP1 PUSH2 0x4400 JUMP JUMPDEST CALLVALUE DUP1 ISZERO PUSH2 0x58A JUMPI PUSH1 0x0 DUP1 REVERT JUMPDEST POP PUSH2 0x497 PUSH2 0x599 CALLDATASIZE PUSH1 0x4 PUSH2 0x444E JUMP JUMPDEST PUSH2 0x1288 JUMP JUMPDEST CALLVALUE DUP1 ISZERO PUSH2 0x5AA JUMPI PUSH1 0x0 DUP1 REVERT JUMPDEST POP PUSH1 0x40 SLOAD PUSH2 0x497 SWAP1 PUSH2 0x100 SWAP1 DIV PUSH1 0xFF AND DUP2 JUMP JUMPDEST CALLVALUE DUP1 ISZERO PUSH2 0x5C9 JUMPI PUSH1 0x0 DUP1 REVERT JUMPDEST POP PUSH2 0x52D PUSH2 0x5D8 CALLDATASIZE PUSH1 0x4 PUSH2 0x43B9 JUMP JUMPDEST PUSH1 0x20 DUP1 MSTORE PUSH1 0x0 SWAP1 DUP2 MSTORE PUSH1 0x40 SWAP1 KECCAK256 SLOAD DUP2 JUMP JUMPDEST CALLVALUE DUP1 ISZERO PUSH2 0x5F5 JUMPI PUSH1 0x0 DUP1 REVERT JUMPDEST POP PUSH2 0x44A PUSH2 0x604 CALLDATASIZE PUSH1 0x4 PUSH2 0x447A JUMP JUMPDEST PUSH2 0x12F4 JUMP JUMPDEST CALLVALUE DUP1 ISZERO PUSH2 0x615 JUMPI PUSH1 0x0 DUP1 REVERT JUMPDEST POP PUSH2 0x497 PUSH2 0x624 CALLDATASIZE PUSH1 0x4 PUSH2 0x43B9 JUMP JUMPDEST PUSH1 0x26 SLOAD PUSH1 0x0 SWAP1 DUP2 MSTORE PUSH1 0x27 PUSH1 0x20 SWAP1 DUP2 MSTORE PUSH1 0x40 DUP1 DUP4 KECCAK256 PUSH1 0x1 PUSH1 0x1 PUSH1 0xA0 SHL SUB SWAP1 SWAP5 AND DUP4 MSTORE PUSH1 0x8 SWAP1 SWAP4 ADD SWAP1 MSTORE KECCAK256 SLOAD PUSH1 0xFF AND SWAP1 JUMP JUMPDEST CALLVALUE DUP1 ISZERO PUSH2 0x660 JUMPI PUSH1 0x0 DUP1 REVERT JUMPDEST POP PUSH1 0x4 SLOAD PUSH2 0x52D JUMP JUMPDEST CALLVALUE DUP1 ISZERO PUSH2 0x675 JUMPI PUSH1 0x0 DUP1 REVERT JUMPDEST POP PUSH2 0x44A PUSH2 0x1312 JUMP JUMPDEST CALLVALUE DUP1 ISZERO PUSH2 0x68A JUMPI PUSH1 0x0 DUP1 REVERT JUMPDEST POP PUSH2 0x52D PUSH1 0x28 SLOAD DUP2 JUMP JUMPDEST CALLVALUE DUP1 ISZERO PUSH2 0x6A0 JUMPI PUSH1 0x0 DUP1 REVERT JUMPDEST POP PUSH2 0x44A PUSH2 0x1635 JUMP JUMPDEST CALLVALUE DUP1 ISZERO PUSH2 0x6B5 JUMPI PUSH1 0x0 DUP1 REVERT JUMPDEST POP PUSH2 0x44A PUSH2 0x6C4 CALLDATASIZE PUSH1 0x4 PUSH2 0x44FE JUMP JUMPDEST PUSH2 0x166B JUMP JUMPDEST CALLVALUE DUP1 ISZERO PUSH2 0x6D5 JUMPI PUSH1 0x0 DUP1 REVERT JUMPDEST POP PUSH2 0x44A PUSH2 0x6E4 CALLDATASIZE PUSH1 0x4 PUSH2 0x45B5 JUMP JUMPDEST PUSH2 0x16EF JUMP JUMPDEST CALLVALUE DUP1 ISZERO PUSH2 0x6F5 JUMPI PUSH1 0x0 DUP1 REVERT JUMPDEST POP PUSH2 0x497 PUSH2 0x704 CALLDATASIZE PUSH1 0x4 PUSH2 0x45EA JUMP JUMPDEST PUSH2 0x1722 JUMP JUMPDEST CALLVALUE DUP1 ISZERO PUSH2 0x715 JUMPI PUSH1 0x0 DUP1 REVERT JUMPDEST POP PUSH2 0x52D PUSH2 0x724 CALLDATASIZE PUSH1 0x4 PUSH2 0x447A JUMP JUMPDEST PUSH1 0x0 SWAP1 DUP2 MSTORE PUSH1 0x1 PUSH1 0x20 DUP2 SWAP1 MSTORE PUSH1 0x40 SWAP1 SWAP2 KECCAK256 ADD SLOAD SWAP1 JUMP JUMPDEST CALLVALUE DUP1 ISZERO PUSH2 0x746 JUMPI PUSH1 0x0 DUP1 REVERT JUMPDEST POP PUSH1 0x10 SLOAD PUSH2 0x75A SWAP1 PUSH1 0x1 PUSH1 0x1 PUSH1 0xA0 SHL SUB AND DUP2 JUMP JUMPDEST PUSH1 0x40 MLOAD PUSH1 0x1 PUSH1 0x1 PUSH1 0xA0 SHL SUB SWAP1 SWAP2 AND DUP2 MSTORE PUSH1 0x20 ADD PUSH2 0x4A3 JUMP JUMPDEST CALLVALUE DUP1 ISZERO PUSH2 0x77E JUMPI PUSH1 0x0 DUP1 REVERT JUMPDEST POP PUSH2 0x44A PUSH2 0x78D CALLDATASIZE PUSH1 0x4 PUSH2 0x462B JUMP JUMPDEST PUSH2 0x17F7 JUMP JUMPDEST CALLVALUE DUP1 ISZERO PUSH2 0x79E JUMPI PUSH1 0x0 DUP1 REVERT JUMPDEST POP PUSH1 0x40 MLOAD PUSH1 0x12 DUP2 MSTORE PUSH1 0x20 ADD PUSH2 0x4A3 JUMP JUMPDEST CALLVALUE DUP1 ISZERO PUSH2 0x7BA JUMPI PUSH1 0x0 DUP1 REVERT JUMPDEST POP PUSH2 0x52D PUSH2 0x7C9 CALLDATASIZE PUSH1 0x4 PUSH2 0x43B9 JUMP JUMPDEST PUSH1 0x1F PUSH1 0x20 MSTORE PUSH1 0x0 SWAP1 DUP2 MSTORE PUSH1 0x40 SWAP1 KECCAK256 SLOAD DUP2 JUMP JUMPDEST CALLVALUE DUP1 ISZERO PUSH2 0x7E7 JUMPI PUSH1 0x0 DUP1 REVERT JUMPDEST POP PUSH2 0x44A PUSH2 0x7F6 CALLDATASIZE PUSH1 0x4 PUSH2 0x462B JUMP JUMPDEST PUSH2 0x1823 JUMP JUMPDEST CALLVALUE DUP1 ISZERO PUSH2 0x807 JUMPI PUSH1 0x0 DUP1 REVERT JUMPDEST POP PUSH2 0x44A PUSH2 0x185B JUMP JUMPDEST CALLVALUE DUP1 ISZERO PUSH2 0x81C JUMPI PUSH1 0x0 DUP1 REVERT JUMPDEST POP PUSH2 0x75A PUSH2 0x82B CALLDATASIZE PUSH1 0x4 PUSH2 0x43B9 JUMP JUMPDEST PUSH1 0x1D PUSH1 0x20 MSTORE PUSH1 0x0 SWAP1 DUP2 MSTORE PUSH1 0x40 SWAP1 KECCAK256 SLOAD PUSH1 0x1 PUSH1 0x1 PUSH1 0xA0 SHL SUB AND DUP2 JUMP JUMPDEST CALLVALUE DUP1 ISZERO PUSH2 0x852 JUMPI PUSH1 0x0 DUP1 REVERT JUMPDEST POP PUSH2 0x44A PUSH2 0x861 CALLDATASIZE PUSH1 0x4 PUSH2 0x43B9 JUMP JUMPDEST PUSH2 0x18E1 JUMP JUMPDEST CALLVALUE DUP1 ISZERO PUSH2 0x872 JUMPI PUSH1 0x0 DUP1 REVERT JUMPDEST POP PUSH2 0x52D PUSH1 0x33 SLOAD DUP2 JUMP JUMPDEST CALLVALUE DUP1 ISZERO PUSH2 0x888 JUMPI PUSH1 0x0 DUP1 REVERT JUMPDEST POP PUSH2 0x44A PUSH2 0x1942 JUMP JUMPDEST CALLVALUE DUP1 ISZERO PUSH2 0x89D JUMPI PUSH1 0x0 DUP1 REVERT JUMPDEST POP PUSH2 0x44A PUSH2 0x1B44 JUMP JUMPDEST CALLVALUE DUP1 ISZERO PUSH2 0x8B2 JUMPI PUSH1 0x0 DUP1 REVERT JUMPDEST POP PUSH2 0x52D PUSH1 0x42 SLOAD DUP2 JUMP JUMPDEST CALLVALUE DUP1 ISZERO PUSH2 0x8C8 JUMPI PUSH1 0x0 DUP1 REVERT JUMPDEST POP PUSH2 0x52D PUSH2 0x8D7 CALLDATASIZE PUSH1 0x4 PUSH2 0x43B9 JUMP JUMPDEST PUSH1 0x23 PUSH1 0x20 MSTORE PUSH1 0x0 SWAP1 DUP2 MSTORE PUSH1 0x40 SWAP1 KECCAK256 SLOAD DUP2 JUMP JUMPDEST CALLVALUE DUP1 ISZERO PUSH2 0x8F5 JUMPI PUSH1 0x0 DUP1 REVERT JUMPDEST POP PUSH2 0x497 PUSH2 0x904 CALLDATASIZE PUSH1 0x4 PUSH2 0x43B9 JUMP JUMPDEST PUSH2 0x1C53 JUMP JUMPDEST CALLVALUE DUP1 ISZERO PUSH2 0x915 JUMPI PUSH1 0x0 DUP1 REVERT JUMPDEST POP PUSH2 0x52D PUSH1 0x2A SLOAD DUP2 JUMP JUMPDEST CALLVALUE DUP1 ISZERO PUSH2 0x92B JUMPI PUSH1 0x0 DUP1 REVERT JUMPDEST POP PUSH2 0x497 PUSH2 0x93A CALLDATASIZE PUSH1 0x4 PUSH2 0x43B9 JUMP JUMPDEST PUSH1 0x1C PUSH1 0x20 MSTORE PUSH1 0x0 SWAP1 DUP2 MSTORE PUSH1 0x40 SWAP1 KECCAK256 SLOAD PUSH1 0xFF AND DUP2 JUMP JUMPDEST CALLVALUE DUP1 ISZERO PUSH2 0x95B JUMPI PUSH1 0x0 DUP1 REVERT JUMPDEST POP PUSH2 0x44A PUSH2 0x96A CALLDATASIZE PUSH1 0x4 PUSH2 0x45B5 JUMP JUMPDEST PUSH2 0x1C61 JUMP JUMPDEST CALLVALUE DUP1 ISZERO PUSH2 0x97B JUMPI PUSH1 0x0 DUP1 REVERT JUMPDEST POP PUSH2 0x984 PUSH2 0x1C94 JUMP JUMPDEST PUSH1 0x40 MLOAD PUSH2 0x4A3 SWAP2 SWAP1 PUSH2 0x469F JUMP JUMPDEST CALLVALUE DUP1 ISZERO PUSH2 0x99D JUMPI PUSH1 0x0 DUP1 REVERT JUMPDEST POP PUSH2 0x44A PUSH2 0x1D03 JUMP JUMPDEST CALLVALUE DUP1 ISZERO PUSH2 0x9B2 JUMPI PUSH1 0x0 DUP1 REVERT JUMPDEST POP PUSH1 0x19 SLOAD PUSH2 0x497 SWAP1 PUSH1 0x1 PUSH1 0xA8 SHL SWAP1 DIV PUSH1 0xFF AND DUP2 JUMP JUMPDEST CALLVALUE DUP1 ISZERO PUSH2 0x9D3 JUMPI PUSH1 0x0 DUP1 REVERT JUMPDEST POP PUSH2 0x52D PUSH2 0x9E2 CALLDATASIZE PUSH1 0x4 PUSH2 0x43B9 JUMP JUMPDEST PUSH2 0x1E60 JUMP JUMPDEST CALLVALUE DUP1 ISZERO PUSH2 0x9F3 JUMPI PUSH1 0x0 DUP1 REVERT JUMPDEST POP PUSH2 0x44A PUSH2 0x1E7B JUMP JUMPDEST CALLVALUE DUP1 ISZERO PUSH2 0xA08 JUMPI PUSH1 0x0 DUP1 REVERT JUMPDEST POP PUSH2 0x44A PUSH2 0xA17 CALLDATASIZE PUSH1 0x4 PUSH2 0x43B9 JUMP JUMPDEST PUSH2 0x1E8D JUMP JUMPDEST CALLVALUE DUP1 ISZERO PUSH2 0xA28 JUMPI PUSH1 0x0 DUP1 REVERT JUMPDEST POP PUSH2 0x52D PUSH1 0x0 DUP1 MLOAD PUSH1 0x20 PUSH2 0x4A67 DUP4 CODECOPY DUP2 MLOAD SWAP2 MSTORE DUP2 JUMP JUMPDEST CALLVALUE DUP1 ISZERO PUSH2 0xA4A JUMPI PUSH1 0x0 DUP1 REVERT JUMPDEST POP PUSH2 0x52D PUSH2 0xA59 CALLDATASIZE PUSH1 0x4 PUSH2 0x447A JUMP JUMPDEST PUSH2 0x1ECF JUMP JUMPDEST CALLVALUE DUP1 ISZERO PUSH2 0xA6A JUMPI PUSH1 0x0 DUP1 REVERT JUMPDEST POP PUSH2 0x497 PUSH2 0xA79 CALLDATASIZE PUSH1 0x4 PUSH2 0x43B9 JUMP JUMPDEST PUSH1 0x24 PUSH1 0x20 MSTORE PUSH1 0x0 SWAP1 DUP2 MSTORE PUSH1 0x40 SWAP1 KECCAK256 SLOAD PUSH1 0xFF AND DUP2 JUMP JUMPDEST CALLVALUE DUP1 ISZERO PUSH2 0xA9A JUMPI PUSH1 0x0 DUP1 REVERT JUMPDEST POP PUSH1 0x0 SLOAD PUSH1 0x1 PUSH1 0x1 PUSH1 0xA0 SHL SUB AND PUSH2 0x75A JUMP JUMPDEST CALLVALUE DUP1 ISZERO PUSH2 0xAB8 JUMPI PUSH1 0x0 DUP1 REVERT JUMPDEST POP PUSH2 0x497 PUSH2 0xAC7 CALLDATASIZE PUSH1 0x4 PUSH2 0x462B JUMP JUMPDEST PUSH2 0x1EF0 JUMP JUMPDEST CALLVALUE DUP1 ISZERO PUSH2 0xAD8 JUMPI PUSH1 0x0 DUP1 REVERT JUMPDEST POP PUSH2 0x571 PUSH2 0x1F1B JUMP JUMPDEST CALLVALUE DUP1 ISZERO PUSH2 0xAED JUMPI PUSH1 0x0 DUP1 REVERT JUMPDEST POP PUSH2 0x44A PUSH2 0xAFC CALLDATASIZE PUSH1 0x4 PUSH2 0x43B9 JUMP JUMPDEST PUSH2 0x1F2A JUMP JUMPDEST CALLVALUE DUP1 ISZERO PUSH2 0xB0D JUMPI PUSH1 0x0 DUP1 REVERT JUMPDEST POP PUSH2 0x52D PUSH1 0x0 DUP2 JUMP JUMPDEST CALLVALUE DUP1 ISZERO PUSH2 0xB22 JUMPI PUSH1 0x0 DUP1 REVERT JUMPDEST POP PUSH1 0x19 SLOAD PUSH2 0x75A SWAP1 PUSH1 0x1 PUSH1 0x1 PUSH1 0xA0 SHL SUB AND DUP2 JUMP JUMPDEST CALLVALUE DUP1 ISZERO PUSH2 0xB42 JUMPI PUSH1 0x0 DUP1 REVERT JUMPDEST POP PUSH2 0x497 PUSH2 0xB51 CALLDATASIZE PUSH1 0x4 PUSH2 0x444E JUMP JUMPDEST PUSH2 0x20BB JUMP JUMPDEST CALLVALUE DUP1 ISZERO PUSH2 0xB62 JUMPI PUSH1 0x0 DUP1 REVERT JUMPDEST POP PUSH2 0x52D PUSH1 0x26 SLOAD DUP2 JUMP JUMPDEST CALLVALUE DUP1 ISZERO PUSH2 0xB78 JUMPI PUSH1 0x0 DUP1 REVERT JUMPDEST POP PUSH2 0x52D PUSH2 0xB87 CALLDATASIZE PUSH1 0x4 PUSH2 0x43B9 JUMP JUMPDEST PUSH1 0x1E PUSH1 0x20 MSTORE PUSH1 0x0 SWAP1 DUP2 MSTORE PUSH1 0x40 SWAP1 KECCAK256 SLOAD DUP2 JUMP JUMPDEST CALLVALUE DUP1 ISZERO PUSH2 0xBA5 JUMPI PUSH1 0x0 DUP1 REVERT JUMPDEST POP PUSH2 0xBAE PUSH2 0x20ED JUMP JUMPDEST PUSH1 0x40 MLOAD PUSH2 0x4A3 SWAP2 SWAP1 PUSH2 0x46B2 JUMP JUMPDEST CALLVALUE DUP1 ISZERO PUSH2 0xBC7 JUMPI PUSH1 0x0 DUP1 REVERT JUMPDEST POP PUSH1 0x40 SLOAD PUSH2 0x497 SWAP1 PUSH1 0xFF AND DUP2 JUMP JUMPDEST CALLVALUE DUP1 ISZERO PUSH2 0xBE1 JUMPI PUSH1 0x0 DUP1 REVERT JUMPDEST POP PUSH2 0x52D PUSH1 0x43 SLOAD DUP2 JUMP JUMPDEST CALLVALUE DUP1 ISZERO PUSH2 0xBF7 JUMPI PUSH1 0x0 DUP1 REVERT JUMPDEST POP PUSH2 0xC27 PUSH2 0xC06 CALLDATASIZE PUSH1 0x4 PUSH2 0x447A JUMP JUMPDEST PUSH1 0x27 PUSH1 0x20 MSTORE PUSH1 0x0 SWAP1 DUP2 MSTORE PUSH1 0x40 SWAP1 KECCAK256 DUP1 SLOAD PUSH1 0x1 DUP3 ADD SLOAD PUSH1 0x2 SWAP1 SWAP3 ADD SLOAD SWAP1 SWAP2 SWAP1 DUP4 JUMP JUMPDEST PUSH1 0x40 DUP1 MLOAD SWAP4 DUP5 MSTORE PUSH1 0x20 DUP5 ADD SWAP3 SWAP1 SWAP3 MSTORE SWAP1 DUP3 ADD MSTORE PUSH1 0x60 ADD PUSH2 0x4A3 JUMP JUMPDEST CALLVALUE DUP1 ISZERO PUSH2 0xC4E JUMPI PUSH1 0x0 DUP1 REVERT JUMPDEST POP PUSH2 0x44A PUSH2 0x212C JUMP JUMPDEST CALLVALUE DUP1 ISZERO PUSH2 0xC63 JUMPI PUSH1 0x0 DUP1 REVERT JUMPDEST POP PUSH2 0x44A PUSH2 0x213C JUMP JUMPDEST CALLVALUE DUP1 ISZERO PUSH2 0xC78 JUMPI PUSH1 0x0 DUP1 REVERT JUMPDEST POP PUSH2 0x44A PUSH2 0xC87 CALLDATASIZE PUSH1 0x4 PUSH2 0x462B JUMP JUMPDEST PUSH2 0x24E8 JUMP JUMPDEST CALLVALUE DUP1 ISZERO PUSH2 0xC98 JUMPI PUSH1 0x0 DUP1 REVERT JUMPDEST POP PUSH2 0x52D PUSH2 0xCA7 CALLDATASIZE PUSH1 0x4 PUSH2 0x46EC JUMP JUMPDEST PUSH1 0x1 PUSH1 0x1 PUSH1 0xA0 SHL SUB SWAP2 DUP3 AND PUSH1 0x0 SWAP1 DUP2 MSTORE PUSH1 0x8 PUSH1 0x20 SWAP1 DUP2 MSTORE PUSH1 0x40 DUP1 DUP4 KECCAK256 SWAP4 SWAP1 SWAP5 AND DUP3 MSTORE SWAP2 SWAP1 SWAP2 MSTORE KECCAK256 SLOAD SWAP1 JUMP JUMPDEST CALLVALUE DUP1 ISZERO PUSH2 0xCDE JUMPI PUSH1 0x0 DUP1 REVERT JUMPDEST POP PUSH2 0x44A PUSH2 0xCED CALLDATASIZE PUSH1 0x4 PUSH2 0x471A JUMP JUMPDEST PUSH2 0x250E JUMP JUMPDEST CALLVALUE DUP1 ISZERO PUSH2 0xCFE JUMPI PUSH1 0x0 DUP1 REVERT JUMPDEST POP PUSH2 0x44A PUSH2 0xD0D CALLDATASIZE PUSH1 0x4 PUSH2 0x447A JUMP JUMPDEST PUSH2 0x2589 JUMP JUMPDEST CALLVALUE DUP1 ISZERO PUSH2 0xD1E JUMPI PUSH1 0x0 DUP1 REVERT JUMPDEST POP PUSH2 0x44A PUSH2 0xD2D CALLDATASIZE PUSH1 0x4 PUSH2 0x43B9 JUMP JUMPDEST PUSH2 0x260D JUMP JUMPDEST CALLVALUE DUP1 ISZERO PUSH2 0xD3E JUMPI PUSH1 0x0 DUP1 REVERT JUMPDEST POP PUSH2 0x44A PUSH2 0xD4D CALLDATASIZE PUSH1 0x4 PUSH2 0x4736 JUMP JUMPDEST PUSH2 0x2648 JUMP JUMPDEST CALLVALUE DUP1 ISZERO PUSH2 0xD5E JUMPI PUSH1 0x0 DUP1 REVERT JUMPDEST POP PUSH1 0x18 SLOAD PUSH2 0x75A SWAP1 PUSH1 0x1 PUSH1 0x1 PUSH1 0xA0 SHL SUB AND DUP2 JUMP JUMPDEST CALLVALUE DUP1 ISZERO PUSH2 0xD7E JUMPI PUSH1 0x0 DUP1 REVERT JUMPDEST POP PUSH1 0x21 SLOAD PUSH2 0x75A SWAP1 PUSH1 0x1 PUSH1 0x1 PUSH1 0xA0 SHL SUB AND DUP2 JUMP JUMPDEST CALLVALUE DUP1 ISZERO PUSH2 0xD9E JUMPI PUSH1 0x0 DUP1 REVERT JUMPDEST POP PUSH2 0x52D PUSH1 0x14 SLOAD DUP2 JUMP JUMPDEST CALLVALUE DUP1 ISZERO PUSH2 0xDB4 JUMPI PUSH1 0x0 DUP1 REVERT JUMPDEST POP PUSH2 0x44A PUSH2 0xDC3 CALLDATASIZE PUSH1 0x4 PUSH2 0x447A JUMP JUMPDEST PUSH2 0x28A9 JUMP JUMPDEST CALLVALUE DUP1 ISZERO PUSH2 0xDD4 JUMPI PUSH1 0x0 DUP1 REVERT JUMPDEST POP PUSH2 0x497 PUSH2 0xDE3 CALLDATASIZE PUSH1 0x4 PUSH2 0x43B9 JUMP JUMPDEST PUSH1 0x26 SLOAD PUSH1 0x0 SWAP1 DUP2 MSTORE PUSH1 0x27 PUSH1 0x20 SWAP1 DUP2 MSTORE PUSH1 0x40 DUP1 DUP4 KECCAK256 PUSH1 0x1 PUSH1 0x1 PUSH1 0xA0 SHL SUB SWAP1 SWAP5 AND DUP4 MSTORE PUSH1 0x3 SWAP1 SWAP4 ADD SWAP1 MSTORE KECCAK256 SLOAD PUSH1 0xFF AND SWAP1 JUMP JUMPDEST PUSH1 0x1 PUSH1 0x1 PUSH1 0xA0 SHL SUB DUP2 AND CALLER EQ PUSH2 0xE61 JUMPI PUSH1 0x40 MLOAD PUSH3 0x461BCD PUSH1 0xE5 SHL DUP2 MSTORE PUSH1 0x20 PUSH1 0x4 DUP3 ADD MSTORE PUSH1 0xE PUSH1 0x24 DUP3 ADD MSTORE PUSH14 0x139BDD08185D5D1A1BDC9A5E9959 PUSH1 0x92 SHL PUSH1 0x44 DUP3 ADD MSTORE PUSH1 0x64 ADD JUMPDEST PUSH1 0x40 MLOAD DUP1 SWAP2 SUB SWAP1 REVERT JUMPDEST PUSH1 0x26 SLOAD PUSH1 0x0 SWAP1 DUP2 MSTORE PUSH1 0x27 PUSH1 0x20 MSTORE PUSH1 0x40 SWAP1 KECCAK256 PUSH1 0x2 ADD SLOAD TIMESTAMP LT PUSH2 0xE94 JUMPI PUSH1 0x40 MLOAD PUSH3 0x461BCD PUSH1 0xE5 SHL DUP2 MSTORE PUSH1 0x4 ADD PUSH2 0xE58 SWAP1 PUSH2 0x47D0 JUMP JUMPDEST PUSH1 0x26 SLOAD PUSH1 0x0 SWAP1 DUP2 MSTORE PUSH1 0x27 PUSH1 0x20 SWAP1 DUP2 MSTORE PUSH1 0x40 DUP1 DUP4 KECCAK256 CALLER DUP5 MSTORE PUSH1 0x7 ADD SWAP1 SWAP2 MSTORE DUP2 KECCAK256 SLOAD SWAP1 SUB PUSH2 0xF19 JUMPI PUSH1 0x40 MLOAD PUSH3 0x461BCD PUSH1 0xE5 SHL DUP2 MSTORE PUSH1 0x20 PUSH1 0x4 DUP3 ADD MSTORE PUSH1 0x2E PUSH1 0x24 DUP3 ADD MSTORE PUSH32 0x596F7520686176656E277420626F7567687420612063617073756C6520647572 PUSH1 0x44 DUP3 ADD MSTORE PUSH14 0xD2DCCE40E8D0D2E640CAE0DEC6D PUSH1 0x93 SHL PUSH1 0x64 DUP3 ADD MSTORE PUSH1 0x84 ADD PUSH2 0xE58 JUMP JUMPDEST PUSH1 0x26 SLOAD PUSH1 0x0 SWAP1 DUP2 MSTORE PUSH1 0x27 PUSH1 0x20 SWAP1 DUP2 MSTORE PUSH1 0x40 DUP1 DUP4 KECCAK256 CALLER DUP5 MSTORE PUSH1 0x5 ADD SWAP1 SWAP2 MSTORE SWAP1 KECCAK256 SLOAD PUSH1 0xFF AND ISZERO PUSH2 0xF94 JUMPI PUSH1 0x40 MLOAD PUSH3 0x461BCD PUSH1 0xE5 SHL DUP2 MSTORE PUSH1 0x20 PUSH1 0x4 DUP3 ADD MSTORE PUSH1 0x22 PUSH1 0x24 DUP3 ADD MSTORE PUSH32 0x596F7527766520616C7265616479206F70656E656420796F7572206361707375 PUSH1 0x44 DUP3 ADD MSTORE PUSH2 0x6C65 PUSH1 0xF0 SHL PUSH1 0x64 DUP3 ADD MSTORE PUSH1 0x84 ADD PUSH2 0xE58 JUMP JUMPDEST PUSH1 0x26 SLOAD PUSH1 0x0 SWAP1 DUP2 MSTORE PUSH1 0x27 PUSH1 0x20 SWAP1 DUP2 MSTORE PUSH1 0x40 DUP1 DUP4 KECCAK256 CALLER DUP5 MSTORE PUSH1 0x8 ADD SWAP1 SWAP2 MSTORE SWAP1 KECCAK256 SLOAD PUSH1 0xFF AND ISZERO ISZERO PUSH1 0x1 EQ PUSH2 0x1018 JUMPI PUSH1 0x40 MLOAD PUSH3 0x461BCD PUSH1 0xE5 SHL DUP2 MSTORE PUSH1 0x20 PUSH1 0x4 DUP3 ADD MSTORE PUSH1 0x27 PUSH1 0x24 DUP3 ADD MSTORE PUSH32 0x596F75722072657175657374206861736E2774206265656E2066756C6C66696C PUSH1 0x44 DUP3 ADD MSTORE PUSH7 0x1B1959081E595D PUSH1 0xCA SHL PUSH1 0x64 DUP3 ADD MSTORE PUSH1 0x84 ADD PUSH2 0xE58 JUMP JUMPDEST PUSH1 0x26 SLOAD PUSH1 0x0 SWAP1 DUP2 MSTORE PUSH1 0x27 PUSH1 0x20 SWAP1 DUP2 MSTORE PUSH1 0x40 DUP1 DUP4 KECCAK256 CALLER DUP5 MSTORE PUSH1 0x7 ADD SWAP1 SWAP2 MSTORE DUP2 KECCAK256 SLOAD PUSH2 0x1041 SWAP1 PUSH2 0x28C7 JUMP JUMPDEST SWAP1 POP PUSH1 0x1 DUP2 LT ISZERO DUP1 ISZERO PUSH2 0x1055 JUMPI POP PUSH1 0x28 DUP2 GT ISZERO JUMPDEST ISZERO PUSH2 0x1095 JUMPI PUSH1 0x2F DUP1 SLOAD SWAP1 PUSH1 0x0 PUSH2 0x106A DUP4 PUSH2 0x482A JUMP JUMPDEST SWAP1 SWAP2 SSTORE POP POP PUSH1 0x2B DUP1 SLOAD SWAP1 PUSH1 0x0 PUSH2 0x107F DUP4 PUSH2 0x482A JUMP JUMPDEST SWAP2 SWAP1 POP SSTORE POP PUSH2 0x1091 DUP3 PUSH1 0x1 PUSH1 0x0 PUSH2 0x2A0C JUMP JUMPDEST POP POP JUMP JUMPDEST PUSH1 0x29 DUP2 LT ISZERO DUP1 ISZERO PUSH2 0x10A7 JUMPI POP PUSH1 0x4B DUP2 GT ISZERO JUMPDEST ISZERO PUSH2 0x10E3 JUMPI PUSH1 0x30 DUP1 SLOAD SWAP1 PUSH1 0x0 PUSH2 0x10BC DUP4 PUSH2 0x482A JUMP JUMPDEST SWAP1 SWAP2 SSTORE POP POP PUSH1 0x2C DUP1 SLOAD SWAP1 PUSH1 0x0 PUSH2 0x10D1 DUP4 PUSH2 0x482A JUMP JUMPDEST SWAP2 SWAP1 POP SSTORE POP PUSH2 0x1091 DUP3 PUSH1 0x2 PUSH1 0x0 PUSH2 0x2A0C JUMP JUMPDEST PUSH1 0x4C DUP2 LT ISZERO DUP1 ISZERO PUSH2 0x10F5 JUMPI POP PUSH1 0x61 DUP2 GT ISZERO JUMPDEST ISZERO PUSH2 0x1131 JUMPI PUSH1 0x31 DUP1 SLOAD SWAP1 PUSH1 0x0 PUSH2 0x110A DUP4 PUSH2 0x482A JUMP JUMPDEST SWAP1 SWAP2 SSTORE POP POP PUSH1 0x2D DUP1 SLOAD SWAP1 PUSH1 0x0 PUSH2 0x111F DUP4 PUSH2 0x482A JUMP JUMPDEST SWAP2 SWAP1 POP SSTORE POP PUSH2 0x1091 DUP3 PUSH1 0x3 PUSH1 0x0 PUSH2 0x2A0C JUMP JUMPDEST PUSH1 0x62 DUP2 LT ISZERO DUP1 ISZERO PUSH2 0x1144 JUMPI POP PUSH1 0x22 SLOAD DUP2 GT ISZERO JUMPDEST ISZERO PUSH2 0x1091 JUMPI PUSH1 0x32 DUP1 SLOAD SWAP1 PUSH1 0x0 PUSH2 0x1159 DUP4 PUSH2 0x482A JUMP JUMPDEST SWAP1 SWAP2 SSTORE POP POP PUSH1 0x2E DUP1 SLOAD SWAP1 PUSH1 0x0 PUSH2 0x116E DUP4 PUSH2 0x482A JUMP JUMPDEST SWAP1 SWAP2 SSTORE POP POP PUSH1 0x26 SLOAD PUSH1 0x0 SWAP1 DUP2 MSTORE PUSH1 0x27 PUSH1 0x20 SWAP1 DUP2 MSTORE PUSH1 0x40 DUP3 KECCAK256 PUSH1 0x9 ADD DUP1 SLOAD PUSH1 0x1 DUP1 DUP3 ADD DUP4 SSTORE SWAP2 DUP5 MSTORE SWAP2 SWAP1 SWAP3 KECCAK256 ADD DUP1 SLOAD PUSH1 0x1 PUSH1 0x1 PUSH1 0xA0 SHL SUB NOT AND PUSH1 0x1 PUSH1 0x1 PUSH1 0xA0 SHL SUB DUP6 AND OR SWAP1 SSTORE PUSH2 0x1091 SWAP1 DUP4 SWAP1 DUP1 PUSH2 0x2A0C JUMP JUMPDEST PUSH1 0x0 PUSH1 0x1 PUSH1 0x1 PUSH1 0xE0 SHL SUB NOT DUP3 AND PUSH4 0x7965DB0B PUSH1 0xE0 SHL EQ DUP1 PUSH2 0x11F0 JUMPI POP PUSH4 0x1FFC9A7 PUSH1 0xE0 SHL PUSH1 0x1 PUSH1 0x1 PUSH1 0xE0 SHL SUB NOT DUP4 AND EQ JUMPDEST SWAP3 SWAP2 POP POP JUMP JUMPDEST PUSH1 0x60 PUSH1 0x2 DUP1 SLOAD PUSH2 0x1205 SWAP1 PUSH2 0x4843 JUMP JUMPDEST DUP1 PUSH1 0x1F ADD PUSH1 0x20 DUP1 SWAP2 DIV MUL PUSH1 0x20 ADD PUSH1 0x40 MLOAD SWAP1 DUP2 ADD PUSH1 0x40 MSTORE DUP1 SWAP3 SWAP2 SWAP1 DUP2 DUP2 MSTORE PUSH1 0x20 ADD DUP3 DUP1 SLOAD PUSH2 0x1231 SWAP1 PUSH2 0x4843 JUMP JUMPDEST DUP1 ISZERO PUSH2 0x127E JUMPI DUP1 PUSH1 0x1F LT PUSH2 0x1253 JUMPI PUSH2 0x100 DUP1 DUP4 SLOAD DIV MUL DUP4 MSTORE SWAP2 PUSH1 0x20 ADD SWAP2 PUSH2 0x127E JUMP JUMPDEST DUP3 ADD SWAP2 SWAP1 PUSH1 0x0 MSTORE PUSH1 0x20 PUSH1 0x0 KECCAK256 SWAP1 JUMPDEST DUP2 SLOAD DUP2 MSTORE SWAP1 PUSH1 0x1 ADD SWAP1 PUSH1 0x20 ADD DUP1 DUP4 GT PUSH2 0x1261 JUMPI DUP3 SWAP1 SUB PUSH1 0x1F AND DUP3 ADD SWAP2 JUMPDEST POP POP POP POP POP SWAP1 POP SWAP1 JUMP JUMPDEST CALLER PUSH1 0x0 DUP2 DUP2 MSTORE PUSH1 0x8 PUSH1 0x20 SWAP1 DUP2 MSTORE PUSH1 0x40 DUP1 DUP4 KECCAK256 PUSH1 0x1 PUSH1 0x1 PUSH1 0xA0 SHL SUB DUP8 AND DUP1 DUP6 MSTORE SWAP3 MSTORE DUP1 DUP4 KECCAK256 DUP6 SWAP1 SSTORE MLOAD SWAP2 SWAP3 SWAP1 SWAP2 PUSH32 0x8C5BE1E5EBEC7D5BD14F71427D1E84F3DD0314C0F7B2291E5B200AC8C7C3B925 SWAP1 PUSH2 0x12E3 SWAP1 DUP7 DUP2 MSTORE PUSH1 0x20 ADD SWAP1 JUMP JUMPDEST PUSH1 0x40 MLOAD DUP1 SWAP2 SUB SWAP1 LOG3 POP PUSH1 0x1 SWAP3 SWAP2 POP POP JUMP JUMPDEST PUSH1 0x0 DUP1 MLOAD PUSH1 0x20 PUSH2 0x4A67 DUP4 CODECOPY DUP2 MLOAD SWAP2 MSTORE PUSH2 0x130C DUP2 PUSH2 0x2B08 JUMP JUMPDEST POP PUSH1 0x2A SSTORE JUMP JUMPDEST PUSH1 0x0 PUSH2 0x3E8 PUSH1 0x2A SLOAD PUSH2 0x2EE PUSH2 0x1327 SWAP2 SWAP1 PUSH2 0x4877 JUMP JUMPDEST PUSH2 0x1331 SWAP2 SWAP1 PUSH2 0x48A4 JUMP JUMPDEST PUSH1 0x26 SLOAD PUSH1 0x0 SWAP1 DUP2 MSTORE PUSH1 0x27 PUSH1 0x20 SWAP1 DUP2 MSTORE PUSH1 0x40 DUP1 DUP4 KECCAK256 CALLER DUP5 MSTORE PUSH1 0x3 ADD SWAP1 SWAP2 MSTORE SWAP1 KECCAK256 SLOAD SWAP1 SWAP2 POP PUSH1 0xFF AND ISZERO PUSH2 0x13C0 JUMPI PUSH1 0x40 MLOAD PUSH3 0x461BCD PUSH1 0xE5 SHL DUP2 MSTORE PUSH1 0x20 PUSH1 0x4 DUP3 ADD MSTORE PUSH1 0x33 PUSH1 0x24 DUP3 ADD MSTORE PUSH32 0x596F752068617665206F6E6C79206F6E6520616374696F6E207065722065706F PUSH1 0x44 DUP3 ADD MSTORE PUSH19 0x6368203A20627579206F722075706772616465 PUSH1 0x68 SHL PUSH1 0x64 DUP3 ADD MSTORE PUSH1 0x84 ADD PUSH2 0xE58 JUMP JUMPDEST PUSH1 0x26 SLOAD PUSH1 0x0 SWAP1 DUP2 MSTORE PUSH1 0x27 PUSH1 0x20 SWAP1 DUP2 MSTORE PUSH1 0x40 DUP1 DUP4 KECCAK256 CALLER DUP5 MSTORE PUSH1 0x4 ADD SWAP1 SWAP2 MSTORE SWAP1 KECCAK256 SLOAD PUSH1 0xFF AND ISZERO PUSH2 0x144F JUMPI PUSH1 0x40 MLOAD PUSH3 0x461BCD PUSH1 0xE5 SHL DUP2 MSTORE PUSH1 0x20 PUSH1 0x4 DUP3 ADD MSTORE PUSH1 0x36 PUSH1 0x24 DUP3 ADD MSTORE PUSH32 0x596F7527766520616C726561647920757067726164656420796F757220766163 PUSH1 0x44 DUP3 ADD MSTORE PUSH22 0xC6D2DCCA40C8EAE4D2DCCE40E8D0D2E640CAE0DEC6D PUSH1 0x53 SHL PUSH1 0x64 DUP3 ADD MSTORE PUSH1 0x84 ADD PUSH2 0xE58 JUMP JUMPDEST CALLER PUSH1 0x0 SWAP1 DUP2 MSTORE PUSH1 0x23 PUSH1 0x20 MSTORE PUSH1 0x40 SWAP1 KECCAK256 SLOAD ISZERO DUP1 ISZERO SWAP1 PUSH2 0x147C JUMPI POP CALLER PUSH1 0x0 SWAP1 DUP2 MSTORE PUSH1 0x23 PUSH1 0x20 MSTORE PUSH1 0x40 SWAP1 KECCAK256 SLOAD PUSH1 0x3 GT JUMPDEST PUSH2 0x14D4 JUMPI PUSH1 0x40 MLOAD PUSH3 0x461BCD PUSH1 0xE5 SHL DUP2 MSTORE PUSH1 0x20 PUSH1 0x4 DUP3 ADD MSTORE PUSH1 0x23 PUSH1 0x24 DUP3 ADD MSTORE PUSH32 0x596F7520646F6E2774206861766520612076616363696E6520746F2075706772 PUSH1 0x44 DUP3 ADD MSTORE PUSH3 0x616465 PUSH1 0xE8 SHL PUSH1 0x64 DUP3 ADD MSTORE PUSH1 0x84 ADD PUSH2 0xE58 JUMP JUMPDEST DUP1 PUSH2 0x14DE CALLER PUSH2 0x1E60 JUMP JUMPDEST LT ISZERO PUSH2 0x153E JUMPI PUSH1 0x40 MLOAD PUSH3 0x461BCD PUSH1 0xE5 SHL DUP2 MSTORE PUSH1 0x20 PUSH1 0x4 DUP3 ADD MSTORE PUSH1 0x29 PUSH1 0x24 DUP3 ADD MSTORE PUSH32 0x4E6F7420656E6F75676820746F6B656E7320746F207570677261646520796F75 PUSH1 0x44 DUP3 ADD MSTORE PUSH9 0x722076616363696E65 PUSH1 0xB8 SHL PUSH1 0x64 DUP3 ADD MSTORE PUSH1 0x84 ADD PUSH2 0xE58 JUMP JUMPDEST PUSH1 0x26 SLOAD PUSH1 0x0 SWAP1 DUP2 MSTORE PUSH1 0x27 PUSH1 0x20 MSTORE PUSH1 0x40 SWAP1 KECCAK256 PUSH1 0x2 ADD SLOAD TIMESTAMP LT PUSH2 0x1571 JUMPI PUSH1 0x40 MLOAD PUSH3 0x461BCD PUSH1 0xE5 SHL DUP2 MSTORE PUSH1 0x4 ADD PUSH2 0xE58 SWAP1 PUSH2 0x47D0 JUMP JUMPDEST PUSH1 0x40 SLOAD PUSH2 0x100 SWAP1 DIV PUSH1 0xFF AND ISZERO PUSH2 0x1599 JUMPI PUSH1 0x40 MLOAD PUSH3 0x461BCD PUSH1 0xE5 SHL DUP2 MSTORE PUSH1 0x4 ADD PUSH2 0xE58 SWAP1 PUSH2 0x48B8 JUMP JUMPDEST PUSH1 0x26 SLOAD PUSH1 0x0 SWAP1 DUP2 MSTORE PUSH1 0x27 PUSH1 0x20 SWAP1 DUP2 MSTORE PUSH1 0x40 DUP1 DUP4 KECCAK256 CALLER DUP5 MSTORE PUSH1 0x4 ADD SWAP1 SWAP2 MSTORE DUP2 KECCAK256 DUP1 SLOAD PUSH1 0xFF NOT AND PUSH1 0x1 OR SWAP1 SSTORE PUSH2 0x3E8 PUSH2 0x15D1 DUP4 PUSH1 0x32 PUSH2 0x4877 JUMP JUMPDEST PUSH2 0x15DB SWAP2 SWAP1 PUSH2 0x48A4 JUMP JUMPDEST PUSH1 0x21 SLOAD SWAP1 SWAP2 POP PUSH1 0x0 SWAP1 PUSH2 0x1602 SWAP1 CALLER SWAP1 PUSH1 0x1 PUSH1 0x1 PUSH1 0xA0 SHL SUB AND PUSH2 0x15FD DUP6 DUP8 PUSH2 0x48DE JUMP JUMPDEST PUSH2 0x2B12 JUMP JUMPDEST SWAP1 POP PUSH2 0x160F CALLER ADDRESS DUP5 PUSH2 0x2B12 JUMP JUMPDEST POP CALLER PUSH1 0x0 SWAP1 DUP2 MSTORE PUSH1 0x23 PUSH1 0x20 MSTORE PUSH1 0x40 DUP2 KECCAK256 DUP1 SLOAD SWAP2 PUSH2 0x162B DUP4 PUSH2 0x482A JUMP JUMPDEST SWAP2 SWAP1 POP SSTORE POP POP POP POP JUMP JUMPDEST PUSH2 0x163D PUSH2 0x2BBA JUMP JUMPDEST PUSH1 0x19 DUP1 SLOAD PUSH2 0xFFFF PUSH1 0xA0 SHL NOT AND PUSH2 0x101 PUSH1 0xA0 SHL OR SWAP1 DUP2 SWAP1 SSTORE PUSH1 0xFF PUSH1 0x1 PUSH1 0xA0 SHL SWAP1 SWAP2 DIV AND ISZERO PUSH2 0x1669 JUMPI TIMESTAMP PUSH1 0x49 SSTORE JUMPDEST JUMP JUMPDEST CALLER PUSH1 0x1 PUSH1 0x1 PUSH1 0xA0 SHL SUB PUSH32 0x0 AND EQ PUSH2 0x16E5 JUMPI PUSH1 0x40 MLOAD PUSH4 0x73E64FD PUSH1 0xE2 SHL DUP2 MSTORE CALLER PUSH1 0x4 DUP3 ADD MSTORE PUSH1 0x1 PUSH1 0x1 PUSH1 0xA0 SHL SUB PUSH32 0x0 AND PUSH1 0x24 DUP3 ADD MSTORE PUSH1 0x44 ADD PUSH2 0xE58 JUMP JUMPDEST PUSH2 0x1091 DUP3 DUP3 PUSH2 0x2BE7 JUMP JUMPDEST PUSH2 0x16F7 PUSH2 0x2BBA JUMP JUMPDEST PUSH1 0x1 PUSH1 0x1 PUSH1 0xA0 SHL SUB SWAP2 SWAP1 SWAP2 AND PUSH1 0x0 SWAP1 DUP2 MSTORE PUSH1 0xA PUSH1 0x20 MSTORE PUSH1 0x40 SWAP1 KECCAK256 DUP1 SLOAD PUSH1 0xFF NOT AND SWAP2 ISZERO ISZERO SWAP2 SWAP1 SWAP2 OR SWAP1 SSTORE JUMP JUMPDEST PUSH1 0x1 PUSH1 0x1 PUSH1 0xA0 SHL SUB DUP4 AND PUSH1 0x0 SWAP1 DUP2 MSTORE PUSH1 0x8 PUSH1 0x20 SWAP1 DUP2 MSTORE PUSH1 0x40 DUP1 DUP4 KECCAK256 CALLER DUP5 MSTORE SWAP1 SWAP2 MSTORE DUP2 KECCAK256 SLOAD DUP3 GT ISZERO PUSH2 0x17A6 JUMPI PUSH1 0x40 MLOAD PUSH3 0x461BCD PUSH1 0xE5 SHL DUP2 MSTORE PUSH1 0x20 PUSH1 0x4 DUP3 ADD MSTORE PUSH1 0x28 PUSH1 0x24 DUP3 ADD MSTORE PUSH32 0x45524332303A207472616E7366657220616D6F756E7420657863656564732061 PUSH1 0x44 DUP3 ADD MSTORE PUSH8 0x6C6C6F77616E6365 PUSH1 0xC0 SHL PUSH1 0x64 DUP3 ADD MSTORE PUSH1 0x84 ADD PUSH2 0xE58 JUMP JUMPDEST PUSH2 0x17B1 DUP5 DUP5 DUP5 PUSH2 0x2CED JUMP JUMPDEST POP PUSH1 0x1 PUSH1 0x1 PUSH1 0xA0 SHL SUB DUP5 AND PUSH1 0x0 SWAP1 DUP2 MSTORE PUSH1 0x8 PUSH1 0x20 SWAP1 DUP2 MSTORE PUSH1 0x40 DUP1 DUP4 KECCAK256 CALLER DUP1 DUP6 MSTORE SWAP3 MSTORE SWAP1 SWAP2 KECCAK256 SLOAD PUSH2 0x17ED SWAP2 DUP7 SWAP2 PUSH2 0x17E8 SWAP1 DUP7 SWAP1 PUSH2 0x48DE JUMP JUMPDEST PUSH2 0x30EC JUMP JUMPDEST POP PUSH1 0x1 SWAP4 SWAP3 POP POP POP JUMP JUMPDEST PUSH1 0x0 DUP3 DUP2 MSTORE PUSH1 0x1 PUSH1 0x20 DUP2 SWAP1 MSTORE PUSH1 0x40 SWAP1 SWAP2 KECCAK256 ADD SLOAD PUSH2 0x1813 DUP2 PUSH2 0x2B08 JUMP JUMPDEST PUSH2 0x181D DUP4 DUP4 PUSH2 0x3210 JUMP JUMPDEST POP POP POP POP JUMP JUMPDEST PUSH1 0x1 PUSH1 0x1 PUSH1 0xA0 SHL SUB DUP2 AND CALLER EQ PUSH2 0x184C JUMPI PUSH1 0x40 MLOAD PUSH4 0x334BD919 PUSH1 0xE1 SHL DUP2 MSTORE PUSH1 0x4 ADD PUSH1 0x40 MLOAD DUP1 SWAP2 SUB SWAP1 REVERT JUMPDEST PUSH2 0x1856 DUP3 DUP3 PUSH2 0x3289 JUMP JUMPDEST POP POP POP JUMP JUMPDEST PUSH1 0x0 DUP1 MLOAD PUSH1 0x20 PUSH2 0x4A67 DUP4 CODECOPY DUP2 MLOAD SWAP2 MSTORE PUSH2 0x1873 DUP2 PUSH2 0x2B08 JUMP JUMPDEST PUSH1 0x40 SLOAD PUSH2 0x100 SWAP1 DIV PUSH1 0xFF AND ISZERO PUSH2 0x189B JUMPI PUSH1 0x40 MLOAD PUSH3 0x461BCD PUSH1 0xE5 SHL DUP2 MSTORE PUSH1 0x4 ADD PUSH2 0xE58 SWAP1 PUSH2 0x48B8 JUMP JUMPDEST PUSH2 0x18A3 PUSH2 0x32F6 JUMP JUMPDEST PUSH32 0xA7EF457C4BDAA5CF9805314EBB0D85316230DE6508DF8BA03DB8E27901CC147D PUSH1 0x26 SLOAD PUSH1 0x40 MLOAD PUSH2 0x18D6 SWAP2 DUP2 MSTORE PUSH1 0x20 ADD SWAP1 JUMP JUMPDEST PUSH1 0x40 MLOAD DUP1 SWAP2 SUB SWAP1 LOG1 POP JUMP JUMPDEST PUSH2 0x18E9 PUSH2 0x2BBA JUMP JUMPDEST PUSH1 0x10 DUP1 SLOAD PUSH1 0x1 PUSH1 0x1 PUSH1 0xA0 SHL SUB NOT AND PUSH1 0x1 PUSH1 0x1 PUSH1 0xA0 SHL SUB SWAP3 DUP4 AND SWAP1 DUP2 OR DUP3 SSTORE PUSH1 0x0 SWAP1 DUP2 MSTORE PUSH1 0x9 PUSH1 0x20 SWAP1 DUP2 MSTORE PUSH1 0x40 DUP1 DUP4 KECCAK256 DUP1 SLOAD PUSH1 0xFF NOT SWAP1 DUP2 AND PUSH1 0x1 SWAP1 DUP2 OR SWAP1 SWAP3 SSTORE SWAP5 SLOAD SWAP1 SWAP6 AND DUP4 MSTORE PUSH1 0xA SWAP1 SWAP2 MSTORE SWAP1 KECCAK256 DUP1 SLOAD SWAP1 SWAP2 AND SWAP1 SWAP2 OR SWAP1 SSTORE JUMP JUMPDEST CALLER ORIGIN EQ PUSH2 0x1979 JUMPI PUSH1 0x40 MLOAD PUSH3 0x461BCD PUSH1 0xE5 SHL DUP2 MSTORE PUSH1 0x20 PUSH1 0x4 DUP3 ADD MSTORE PUSH1 0x5 PUSH1 0x24 DUP3 ADD MSTORE PUSH5 0x32B93937B9 PUSH1 0xD9 SHL PUSH1 0x44 DUP3 ADD MSTORE PUSH1 0x64 ADD PUSH2 0xE58 JUMP JUMPDEST CALLER PUSH1 0x0 SWAP1 DUP2 MSTORE PUSH1 0x1F PUSH1 0x20 MSTORE PUSH1 0x40 SWAP1 KECCAK256 SLOAD PUSH2 0x19CA JUMPI PUSH1 0x40 MLOAD PUSH3 0x461BCD PUSH1 0xE5 SHL DUP2 MSTORE PUSH1 0x20 PUSH1 0x4 DUP3 ADD MSTORE PUSH1 0x12 PUSH1 0x24 DUP3 ADD MSTORE PUSH18 0x6E6F2070656E64696E672072657761726473 PUSH1 0x70 SHL PUSH1 0x44 DUP3 ADD MSTORE PUSH1 0x64 ADD PUSH2 0xE58 JUMP JUMPDEST CALLER PUSH1 0x0 SWAP1 DUP2 MSTORE PUSH1 0x1F PUSH1 0x20 SWAP1 DUP2 MSTORE PUSH1 0x40 DUP3 KECCAK256 DUP1 SLOAD SWAP1 DUP4 SWAP1 SSTORE PUSH1 0x1 DUP4 MSTORE PUSH1 0x27 SWAP1 SWAP2 MSTORE PUSH32 0xB6915E519D5F9DD23C62986E48578DDFA8CDE5C92608222904FD87AD04DF4FFF SLOAD SWAP1 SWAP2 SWAP1 TIMESTAMP LT ISZERO PUSH2 0x1A3C JUMPI PUSH1 0x64 PUSH2 0x1A23 DUP4 PUSH1 0x19 PUSH2 0x4877 JUMP JUMPDEST PUSH2 0x1A2D SWAP2 SWAP1 PUSH2 0x48A4 JUMP JUMPDEST SWAP1 POP PUSH2 0x1A39 DUP2 DUP4 PUSH2 0x48DE JUMP JUMPDEST SWAP2 POP JUMPDEST DUP1 ISZERO PUSH2 0x1A5C JUMPI PUSH1 0x21 SLOAD PUSH2 0x1A5A SWAP1 ADDRESS SWAP1 PUSH1 0x1 PUSH1 0x1 PUSH1 0xA0 SHL SUB AND DUP4 PUSH2 0x2B12 JUMP JUMPDEST POP JUMPDEST PUSH1 0x0 PUSH2 0x1A69 ADDRESS CALLER DUP6 PUSH2 0x2B12 JUMP JUMPDEST SWAP1 POP DUP1 PUSH2 0x1AAA JUMPI PUSH1 0x40 MLOAD PUSH3 0x461BCD PUSH1 0xE5 SHL DUP2 MSTORE PUSH1 0x20 PUSH1 0x4 DUP3 ADD MSTORE PUSH1 0xF PUSH1 0x24 DUP3 ADD MSTORE PUSH15 0x1D1C985B9CD9995C8819985A5B1959 PUSH1 0x8A SHL PUSH1 0x44 DUP3 ADD MSTORE PUSH1 0x64 ADD PUSH2 0xE58 JUMP JUMPDEST CALLER PUSH1 0x0 SWAP1 DUP2 MSTORE PUSH1 0x1E PUSH1 0x20 MSTORE PUSH1 0x40 DUP2 KECCAK256 DUP1 SLOAD DUP6 SWAP3 SWAP1 PUSH2 0x1AC9 SWAP1 DUP5 SWAP1 PUSH2 0x48F1 JUMP JUMPDEST SWAP3 POP POP DUP2 SWAP1 SSTORE POP DUP3 PUSH1 0x42 PUSH1 0x0 DUP3 DUP3 SLOAD PUSH2 0x1AE2 SWAP2 SWAP1 PUSH2 0x48F1 JUMP JUMPDEST SWAP3 POP POP DUP2 SWAP1 SSTORE POP DUP3 PUSH1 0x41 PUSH1 0x0 DUP3 DUP3 SLOAD PUSH2 0x1AFB SWAP2 SWAP1 PUSH2 0x48DE JUMP JUMPDEST SWAP1 SWAP2 SSTORE POP PUSH2 0x1B09 SWAP1 POP PUSH2 0x34CE JUMP JUMPDEST PUSH1 0x40 MLOAD DUP4 DUP2 MSTORE CALLER SWAP1 PUSH32 0x620FC7379F7C67F4289F23E24A7F28F721792B0E898E2AF03581B2E73E604A53 SWAP1 PUSH1 0x20 ADD JUMPDEST PUSH1 0x40 MLOAD DUP1 SWAP2 SUB SWAP1 LOG2 POP POP POP JUMP JUMPDEST PUSH2 0x1B4C PUSH2 0x2BBA JUMP JUMPDEST PUSH1 0x4A SLOAD PUSH1 0xFF AND ISZERO PUSH2 0x1B95 JUMPI PUSH1 0x40 MLOAD PUSH3 0x461BCD PUSH1 0xE5 SHL DUP2 MSTORE PUSH1 0x20 PUSH1 0x4 DUP3 ADD MSTORE PUSH1 0x13 PUSH1 0x24 DUP3 ADD MSTORE PUSH19 0x105B1C9958591E481A5B9A5D1A585B1A5E9959 PUSH1 0x6A SHL PUSH1 0x44 DUP3 ADD MSTORE PUSH1 0x64 ADD PUSH2 0xE58 JUMP JUMPDEST PUSH1 0x40 MLOAD PUSH4 0x64E329CB PUSH1 0xE1 SHL DUP2 MSTORE PUSH20 0x82AF49447D8A07E3BD95BD0D56F35241523FBAB1 PUSH1 0x4 DUP3 ADD MSTORE ADDRESS PUSH1 0x24 DUP3 ADD MSTORE PUSH20 0x6ECCAB422D763AC031210895C81787E87B43A652 SWAP1 PUSH4 0xC9C65396 SWAP1 PUSH1 0x44 ADD PUSH1 0x20 PUSH1 0x40 MLOAD DUP1 DUP4 SUB DUP2 PUSH1 0x0 DUP8 GAS CALL ISZERO DUP1 ISZERO PUSH2 0x1C00 JUMPI RETURNDATASIZE PUSH1 0x0 DUP1 RETURNDATACOPY RETURNDATASIZE PUSH1 0x0 REVERT JUMPDEST POP POP POP POP PUSH1 0x40 MLOAD RETURNDATASIZE PUSH1 0x1F NOT PUSH1 0x1F DUP3 ADD AND DUP3 ADD DUP1 PUSH1 0x40 MSTORE POP DUP2 ADD SWAP1 PUSH2 0x1C24 SWAP2 SWAP1 PUSH2 0x4904 JUMP JUMPDEST PUSH1 0x19 DUP1 SLOAD PUSH1 0x1 PUSH1 0x1 PUSH1 0xA0 SHL SUB NOT AND PUSH1 0x1 PUSH1 0x1 PUSH1 0xA0 SHL SUB SWAP3 SWAP1 SWAP3 AND SWAP2 SWAP1 SWAP2 OR SWAP1 SSTORE PUSH1 0x4A DUP1 SLOAD PUSH1 0xFF NOT AND PUSH1 0x1 OR SWAP1 SSTORE JUMP JUMPDEST PUSH1 0x0 PUSH2 0x11F0 DUP3 PUSH1 0x0 NOT PUSH2 0x1288 JUMP JUMPDEST PUSH2 0x1C69 PUSH2 0x2BBA JUMP JUMPDEST PUSH1 0x1 PUSH1 0x1 PUSH1 0xA0 SHL SUB SWAP2 SWAP1 SWAP2 AND PUSH1 0x0 SWAP1 DUP2 MSTORE PUSH1 0x9 PUSH1 0x20 MSTORE PUSH1 0x40 SWAP1 KECCAK256 DUP1 SLOAD PUSH1 0xFF NOT AND SWAP2 ISZERO ISZERO SWAP2 SWAP1 SWAP2 OR SWAP1 SSTORE JUMP JUMPDEST PUSH1 0x26 SLOAD PUSH1 0x0 SWAP1 DUP2 MSTORE PUSH1 0x27 PUSH1 0x20 SWAP1 DUP2 MSTORE PUSH1 0x40 SWAP2 DUP3 SWAP1 KECCAK256 PUSH1 0x9 ADD DUP1 SLOAD DUP4 MLOAD DUP2 DUP5 MUL DUP2 ADD DUP5 ADD SWAP1 SWAP5 MSTORE DUP1 DUP5 MSTORE PUSH1 0x60 SWAP4 SWAP3 DUP4 ADD DUP3 DUP3 DUP1 ISZERO PUSH2 0x127E JUMPI PUSH1 0x20 MUL DUP3 ADD SWAP2 SWAP1 PUSH1 0x0 MSTORE PUSH1 0x20 PUSH1 0x0 KECCAK256 SWAP1 JUMPDEST DUP2 SLOAD PUSH1 0x1 PUSH1 0x1 PUSH1 0xA0 SHL SUB AND DUP2 MSTORE PUSH1 0x1 SWAP1 SWAP2 ADD SWAP1 PUSH1 0x20 ADD DUP1 DUP4 GT PUSH2 0x1CDC JUMPI POP POP POP POP POP SWAP1 POP SWAP1 JUMP JUMPDEST PUSH1 0x0 DUP1 MLOAD PUSH1 0x20 PUSH2 0x4A67 DUP4 CODECOPY DUP2 MLOAD SWAP2 MSTORE PUSH2 0x1D1B DUP2 PUSH2 0x2B08 JUMP JUMPDEST PUSH1 0x49 SLOAD PUSH2 0x1D2B SWAP1 PUSH3 0x93A80 PUSH2 0x48F1 JUMP JUMPDEST TIMESTAMP LT ISZERO PUSH2 0x1D6F JUMPI PUSH1 0x40 MLOAD PUSH3 0x461BCD PUSH1 0xE5 SHL DUP2 MSTORE PUSH1 0x20 PUSH1 0x4 DUP3 ADD MSTORE PUSH1 0x12 PUSH1 0x24 DUP3 ADD MSTORE PUSH18 0x43616E277420656E64207468652067616D65 PUSH1 0x70 SHL PUSH1 0x44 DUP3 ADD MSTORE PUSH1 0x64 ADD PUSH2 0xE58 JUMP JUMPDEST PUSH1 0x40 SLOAD PUSH2 0x100 SWAP1 DIV PUSH1 0xFF AND ISZERO PUSH2 0x1DBE JUMPI PUSH1 0x40 MLOAD PUSH3 0x461BCD PUSH1 0xE5 SHL DUP2 MSTORE PUSH1 0x20 PUSH1 0x4 DUP3 ADD MSTORE PUSH1 0x14 PUSH1 0x24 DUP3 ADD MSTORE PUSH20 0x23B0B6B29034B99030B63932B0B23C9037BB32B9 PUSH1 0x61 SHL PUSH1 0x44 DUP3 ADD MSTORE PUSH1 0x64 ADD PUSH2 0xE58 JUMP JUMPDEST PUSH1 0x40 DUP1 SLOAD PUSH2 0xFF00 NOT AND PUSH2 0x100 OR DUP2 SSTORE PUSH1 0x26 SLOAD PUSH1 0x0 SWAP1 DUP2 MSTORE PUSH1 0x27 PUSH1 0x20 MSTORE KECCAK256 PUSH1 0x9 ADD SLOAD ISZERO PUSH2 0x1E5D JUMPI PUSH1 0x21 SLOAD PUSH1 0x26 SLOAD PUSH1 0x0 SWAP1 DUP2 MSTORE PUSH1 0x27 PUSH1 0x20 MSTORE PUSH1 0x40 SWAP1 DUP2 SWAP1 KECCAK256 SWAP1 MLOAD PUSH4 0xF25ADDF5 PUSH1 0xE0 SHL DUP2 MSTORE PUSH1 0x1 PUSH1 0x1 PUSH1 0xA0 SHL SUB SWAP1 SWAP3 AND SWAP2 PUSH4 0xF25ADDF5 SWAP2 PUSH2 0x1E2A SWAP2 PUSH1 0x9 SWAP1 SWAP2 ADD SWAP1 PUSH1 0x4 ADD PUSH2 0x4921 JUMP JUMPDEST PUSH1 0x0 PUSH1 0x40 MLOAD DUP1 DUP4 SUB DUP2 PUSH1 0x0 DUP8 DUP1 EXTCODESIZE ISZERO DUP1 ISZERO PUSH2 0x1E44 JUMPI PUSH1 0x0 DUP1 REVERT JUMPDEST POP GAS CALL ISZERO DUP1 ISZERO PUSH2 0x1E58 JUMPI RETURNDATASIZE PUSH1 0x0 DUP1 RETURNDATACOPY RETURNDATASIZE PUSH1 0x0 REVERT JUMPDEST POP POP POP POP JUMPDEST POP JUMP JUMPDEST PUSH1 0x1 PUSH1 0x1 PUSH1 0xA0 SHL SUB AND PUSH1 0x0 SWAP1 DUP2 MSTORE PUSH1 0x7 PUSH1 0x20 MSTORE PUSH1 0x40 SWAP1 KECCAK256 SLOAD SWAP1 JUMP JUMPDEST PUSH2 0x1E83 PUSH2 0x2BBA JUMP JUMPDEST PUSH2 0x1669 PUSH1 0x0 PUSH2 0x36C9 JUMP JUMPDEST PUSH2 0x1E95 PUSH2 0x2BBA JUMP JUMPDEST PUSH1 0x19 DUP1 SLOAD PUSH1 0x1 PUSH1 0x1 PUSH1 0xA0 SHL SUB SWAP1 SWAP3 AND PUSH1 0x1 PUSH1 0x1 PUSH1 0xA0 SHL SUB NOT SWAP1 SWAP3 AND DUP3 OR SWAP1 SSTORE PUSH1 0x0 SWAP1 DUP2 MSTORE PUSH1 0xA PUSH1 0x20 MSTORE PUSH1 0x40 SWAP1 KECCAK256 DUP1 SLOAD PUSH1 0xFF NOT AND PUSH1 0x1 OR SWAP1 SSTORE JUMP JUMPDEST PUSH1 0x13 DUP2 DUP2 SLOAD DUP2 LT PUSH2 0x1EDF JUMPI PUSH1 0x0 DUP1 REVERT JUMPDEST PUSH1 0x0 SWAP2 DUP3 MSTORE PUSH1 0x20 SWAP1 SWAP2 KECCAK256 ADD SLOAD SWAP1 POP DUP2 JUMP JUMPDEST PUSH1 0x0 SWAP2 DUP3 MSTORE PUSH1 0x1 PUSH1 0x20 SWAP1 DUP2 MSTORE PUSH1 0x40 DUP1 DUP5 KECCAK256 PUSH1 0x1 PUSH1 0x1 PUSH1 0xA0 SHL SUB SWAP4 SWAP1 SWAP4 AND DUP5 MSTORE SWAP2 SWAP1 MSTORE SWAP1 KECCAK256 SLOAD PUSH1 0xFF AND SWAP1 JUMP JUMPDEST PUSH1 0x60 PUSH1 0x3 DUP1 SLOAD PUSH2 0x1205 SWAP1 PUSH2 0x4843 JUMP JUMPDEST PUSH1 0x1 PUSH1 0x1 PUSH1 0xA0 SHL SUB DUP2 AND PUSH1 0x0 SWAP1 DUP2 MSTORE PUSH1 0x1C PUSH1 0x20 MSTORE PUSH1 0x40 SWAP1 KECCAK256 SLOAD PUSH1 0xFF AND ISZERO PUSH2 0x1F86 JUMPI PUSH1 0x40 MLOAD PUSH3 0x461BCD PUSH1 0xE5 SHL DUP2 MSTORE PUSH1 0x20 PUSH1 0x4 DUP3 ADD MSTORE PUSH1 0x10 PUSH1 0x24 DUP3 ADD MSTORE PUSH16 0x105B1C9958591E481A5B999958DD1959 PUSH1 0x82 SHL PUSH1 0x44 DUP3 ADD MSTORE PUSH1 0x64 ADD PUSH2 0xE58 JUMP JUMPDEST PUSH1 0x1 PUSH2 0x1F91 CALLER PUSH2 0x1E60 JUMP JUMPDEST LT ISZERO PUSH2 0x1FDF JUMPI PUSH1 0x40 MLOAD PUSH3 0x461BCD PUSH1 0xE5 SHL DUP2 MSTORE PUSH1 0x20 PUSH1 0x4 DUP3 ADD MSTORE PUSH1 0x1B PUSH1 0x24 DUP3 ADD MSTORE PUSH32 0x4E6F7420656E6F75676820746F6B656E7320746F20696E666563740000000000 PUSH1 0x44 DUP3 ADD MSTORE PUSH1 0x64 ADD PUSH2 0xE58 JUMP JUMPDEST CALLER PUSH1 0x0 SWAP1 DUP2 MSTORE PUSH1 0x1C PUSH1 0x20 MSTORE PUSH1 0x40 SWAP1 KECCAK256 SLOAD PUSH1 0xFF AND ISZERO ISZERO PUSH1 0x1 EQ PUSH2 0x2039 JUMPI PUSH1 0x40 MLOAD PUSH3 0x461BCD PUSH1 0xE5 SHL DUP2 MSTORE PUSH1 0x20 PUSH1 0x4 DUP3 ADD MSTORE PUSH1 0x13 PUSH1 0x24 DUP3 ADD MSTORE PUSH19 0x165BDD49DC99481B9BDD081A5B999958DD1959 PUSH1 0x6A SHL PUSH1 0x44 DUP3 ADD MSTORE PUSH1 0x64 ADD PUSH2 0xE58 JUMP JUMPDEST PUSH1 0x1 PUSH1 0x1 PUSH1 0xA0 SHL SUB DUP2 AND PUSH1 0x0 SWAP1 DUP2 MSTORE PUSH1 0x1D PUSH1 0x20 SWAP1 DUP2 MSTORE PUSH1 0x40 DUP1 DUP4 KECCAK256 DUP1 SLOAD PUSH1 0x1 PUSH1 0x1 PUSH1 0xA0 SHL SUB NOT AND CALLER SWAP1 DUP2 OR SWAP1 SWAP2 SSTORE PUSH1 0x1C DUP4 MSTORE DUP2 DUP5 KECCAK256 DUP1 SLOAD PUSH1 0xFF NOT AND PUSH1 0x1 OR SWAP1 SSTORE DUP4 MSTORE SWAP1 DUP1 MSTORE DUP2 KECCAK256 DUP1 SLOAD SWAP2 PUSH2 0x208C DUP4 PUSH2 0x482A JUMP JUMPDEST SWAP1 SWAP2 SSTORE POP POP PUSH1 0x43 DUP1 SLOAD SWAP1 PUSH1 0x0 PUSH2 0x20A1 DUP4 PUSH2 0x482A JUMP JUMPDEST SWAP2 SWAP1 POP SSTORE POP PUSH1 0x0 PUSH2 0x1856 CALLER DUP4 PUSH8 0xDE0B6B3A7640000 PUSH2 0x2B12 JUMP JUMPDEST PUSH1 0x19 SLOAD PUSH1 0x0 SWAP1 PUSH1 0x1 PUSH1 0x1 PUSH1 0xA0 SHL SUB AND CALLER SUB PUSH2 0x20E2 JUMPI PUSH2 0x20DB CALLER DUP5 DUP5 PUSH2 0x2CED JUMP JUMPDEST SWAP1 POP PUSH2 0x11F0 JUMP JUMPDEST PUSH2 0x20DB CALLER DUP5 DUP5 PUSH2 0x2B12 JUMP JUMPDEST PUSH2 0x20F5 PUSH2 0x42DE JUMP JUMPDEST PUSH1 0x40 DUP1 MLOAD PUSH1 0xA0 DUP2 ADD SWAP2 DUP3 SWAP1 MSTORE PUSH1 0x44 DUP1 SLOAD PUSH1 0x1 PUSH1 0x1 PUSH1 0xA0 SHL SUB AND DUP3 MSTORE SWAP1 SWAP2 PUSH1 0x5 SWAP1 PUSH1 0x45 PUSH1 0x20 DUP6 ADD DUP1 DUP4 GT PUSH2 0x1CDC JUMPI POP POP POP POP POP SWAP1 POP SWAP1 JUMP JUMPDEST PUSH2 0x2134 PUSH2 0x2BBA JUMP JUMPDEST PUSH1 0x4 SLOAD PUSH1 0x6 SSTORE JUMP JUMPDEST PUSH1 0x2A SLOAD CALLER PUSH1 0x0 SWAP1 DUP2 MSTORE PUSH1 0x1C PUSH1 0x20 MSTORE PUSH1 0x40 SWAP1 KECCAK256 SLOAD PUSH1 0xFF AND PUSH2 0x2195 JUMPI PUSH1 0x40 MLOAD PUSH3 0x461BCD PUSH1 0xE5 SHL DUP2 MSTORE PUSH1 0x20 PUSH1 0x4 DUP3 ADD MSTORE PUSH1 0x14 PUSH1 0x24 DUP3 ADD MSTORE PUSH20 0x165BDD48185C99481B9BDD081A5B999958DD1959 PUSH1 0x62 SHL PUSH1 0x44 DUP3 ADD MSTORE PUSH1 0x64 ADD PUSH2 0xE58 JUMP JUMPDEST PUSH1 0x40 SLOAD PUSH1 0xFF AND PUSH2 0x21E7 JUMPI PUSH1 0x40 MLOAD PUSH3 0x461BCD PUSH1 0xE5 SHL DUP2 MSTORE PUSH1 0x20 PUSH1 0x4 DUP3 ADD MSTORE PUSH1 0x17 PUSH1 0x24 DUP3 ADD MSTORE PUSH32 0x47616D65206973206E6F74207374617274656420796574000000000000000000 PUSH1 0x44 DUP3 ADD MSTORE PUSH1 0x64 ADD PUSH2 0xE58 JUMP JUMPDEST PUSH1 0x40 SLOAD PUSH2 0x100 SWAP1 DIV PUSH1 0xFF AND ISZERO PUSH2 0x220F JUMPI PUSH1 0x40 MLOAD PUSH3 0x461BCD PUSH1 0xE5 SHL DUP2 MSTORE PUSH1 0x4 ADD PUSH2 0xE58 SWAP1 PUSH2 0x48B8 JUMP JUMPDEST DUP1 PUSH2 0x2219 CALLER PUSH2 0x1E60 JUMP JUMPDEST LT ISZERO PUSH2 0x2272 JUMPI PUSH1 0x40 MLOAD PUSH3 0x461BCD PUSH1 0xE5 SHL DUP2 MSTORE PUSH1 0x20 PUSH1 0x4 DUP3 ADD MSTORE PUSH1 0x22 PUSH1 0x24 DUP3 ADD MSTORE PUSH32 0x4E6F7420656E6F75676820746F6B656E7320746F206275792061206361707375 PUSH1 0x44 DUP3 ADD MSTORE PUSH2 0x6C65 PUSH1 0xF0 SHL PUSH1 0x64 DUP3 ADD MSTORE PUSH1 0x84 ADD PUSH2 0xE58 JUMP JUMPDEST PUSH1 0x26 SLOAD PUSH1 0x0 SWAP1 DUP2 MSTORE PUSH1 0x27 PUSH1 0x20 MSTORE PUSH1 0x40 SWAP1 KECCAK256 PUSH1 0x2 ADD SLOAD TIMESTAMP LT PUSH2 0x22A5 JUMPI PUSH1 0x40 MLOAD PUSH3 0x461BCD PUSH1 0xE5 SHL DUP2 MSTORE PUSH1 0x4 ADD PUSH2 0xE58 SWAP1 PUSH2 0x47D0 JUMP JUMPDEST PUSH1 0x26 SLOAD PUSH1 0x0 SWAP1 DUP2 MSTORE PUSH1 0x27 PUSH1 0x20 SWAP1 DUP2 MSTORE PUSH1 0x40 DUP1 DUP4 KECCAK256 CALLER DUP5 MSTORE PUSH1 0x3 ADD SWAP1 SWAP2 MSTORE SWAP1 KECCAK256 SLOAD PUSH1 0xFF AND ISZERO PUSH2 0x232F JUMPI PUSH1 0x40 MLOAD PUSH3 0x461BCD PUSH1 0xE5 SHL DUP2 MSTORE PUSH1 0x20 PUSH1 0x4 DUP3 ADD MSTORE PUSH1 0x31 PUSH1 0x24 DUP3 ADD MSTORE PUSH32 0x596F7527766520616C726561647920626F7567687420612063617073756C6520 PUSH1 0x44 DUP3 ADD MSTORE PUSH17 0xC8EAE4D2DCCE40E8D0D2E640CAE0DEC6D PUSH1 0x7B SHL PUSH1 0x64 DUP3 ADD MSTORE PUSH1 0x84 ADD PUSH2 0xE58 JUMP JUMPDEST PUSH1 0x26 SLOAD PUSH1 0x0 SWAP1 DUP2 MSTORE PUSH1 0x27 PUSH1 0x20 SWAP1 DUP2 MSTORE PUSH1 0x40 DUP1 DUP4 KECCAK256 CALLER DUP5 MSTORE PUSH1 0x4 ADD SWAP1 SWAP2 MSTORE SWAP1 KECCAK256 SLOAD PUSH1 0xFF AND ISZERO PUSH2 0x23BB JUMPI PUSH1 0x40 MLOAD PUSH3 0x461BCD PUSH1 0xE5 SHL DUP2 MSTORE PUSH1 0x20 PUSH1 0x4 DUP3 ADD MSTORE PUSH1 0x33 PUSH1 0x24 DUP3 ADD MSTORE PUSH32 0x596F75206F6E6C792068617665206F6E6520616374696F6E207065722065706F PUSH1 0x44 DUP3 ADD MSTORE PUSH19 0x6368203A20627579206F722075706772616465 PUSH1 0x68 SHL PUSH1 0x64 DUP3 ADD MSTORE PUSH1 0x84 ADD PUSH2 0xE58 JUMP JUMPDEST PUSH1 0x29 DUP1 SLOAD SWAP1 PUSH1 0x0 PUSH2 0x23CB DUP4 PUSH2 0x482A JUMP JUMPDEST SWAP1 SWAP2 SSTORE POP POP PUSH1 0x28 DUP1 SLOAD SWAP1 PUSH1 0x0 PUSH2 0x23E0 DUP4 PUSH2 0x482A JUMP JUMPDEST SWAP1 SWAP2 SSTORE POP POP PUSH1 0x26 SLOAD PUSH1 0x0 SWAP1 DUP2 MSTORE PUSH1 0x27 PUSH1 0x20 SWAP1 DUP2 MSTORE PUSH1 0x40 DUP1 DUP4 KECCAK256 CALLER DUP5 MSTORE PUSH1 0x3 ADD SWAP1 SWAP2 MSTORE DUP2 KECCAK256 DUP1 SLOAD PUSH1 0xFF NOT AND PUSH1 0x1 OR SWAP1 SSTORE PUSH2 0x3E8 PUSH2 0x241D DUP4 PUSH1 0xC8 PUSH2 0x4877 JUMP JUMPDEST PUSH2 0x2427 SWAP2 SWAP1 PUSH2 0x48A4 JUMP JUMPDEST SWAP1 POP PUSH2 0x2436 CALLER PUSH2 0xDEAD DUP4 PUSH2 0x2B12 JUMP JUMPDEST POP PUSH1 0x21 SLOAD PUSH1 0x0 SWAP1 PUSH2 0x2456 SWAP1 CALLER SWAP1 PUSH1 0x1 PUSH1 0x1 PUSH1 0xA0 SHL SUB AND PUSH2 0x15FD DUP6 DUP8 PUSH2 0x48DE JUMP JUMPDEST SWAP1 POP PUSH1 0x0 PUSH2 0x2462 PUSH2 0x3719 JUMP JUMPDEST PUSH1 0x26 DUP1 SLOAD PUSH1 0x0 SWAP1 DUP2 MSTORE PUSH1 0x27 PUSH1 0x20 DUP2 DUP2 MSTORE PUSH1 0x40 DUP1 DUP5 KECCAK256 DUP7 DUP6 MSTORE PUSH1 0x6 ADD DUP3 MSTORE DUP1 DUP5 KECCAK256 DUP1 SLOAD PUSH1 0x1 PUSH1 0x1 PUSH1 0xA0 SHL SUB NOT AND CALLER SWAP1 DUP2 OR SWAP1 SWAP2 SSTORE SWAP5 SLOAD DUP5 MSTORE SWAP2 DUP2 MSTORE DUP2 DUP4 KECCAK256 DUP5 DUP5 MSTORE PUSH1 0x7 ADD DUP2 MSTORE SWAP2 DUP2 SWAP1 KECCAK256 DUP5 SWAP1 SSTORE MLOAD DUP4 DUP2 MSTORE SWAP3 SWAP4 POP SWAP1 SWAP2 PUSH32 0x56E18F08766F396148D5B13331A86D9CE4EA3D9C08821CF829CCF881A6FFF8BF SWAP2 ADD PUSH1 0x40 MLOAD DUP1 SWAP2 SUB SWAP1 LOG2 POP POP POP POP JUMP JUMPDEST PUSH1 0x0 DUP3 DUP2 MSTORE PUSH1 0x1 PUSH1 0x20 DUP2 SWAP1 MSTORE PUSH1 0x40 SWAP1 SWAP2 KECCAK256 ADD SLOAD PUSH2 0x2504 DUP2 PUSH2 0x2B08 JUMP JUMPDEST PUSH2 0x181D DUP4 DUP4 PUSH2 0x3289 JUMP JUMPDEST PUSH2 0x2516 PUSH2 0x2BBA JUMP JUMPDEST PUSH1 0x1 DUP2 LT ISZERO PUSH2 0x2567 JUMPI PUSH1 0x40 MLOAD PUSH3 0x461BCD PUSH1 0xE5 SHL DUP2 MSTORE PUSH1 0x20 PUSH1 0x4 DUP3 ADD MSTORE PUSH1 0x1F PUSH1 0x24 DUP3 ADD MSTORE PUSH32 0x43616E27742073657420537761705468726573686F6C6420746F205A45524F00 PUSH1 0x44 DUP3 ADD MSTORE PUSH1 0x64 ADD PUSH2 0xE58 JUMP JUMPDEST PUSH1 0x19 DUP1 SLOAD SWAP3 ISZERO ISZERO PUSH1 0x1 PUSH1 0xA8 SHL MUL PUSH1 0xFF PUSH1 0xA8 SHL NOT SWAP1 SWAP4 AND SWAP3 SWAP1 SWAP3 OR SWAP1 SWAP2 SSTORE PUSH1 0x1A SSTORE JUMP JUMPDEST PUSH1 0x0 DUP1 MLOAD PUSH1 0x20 PUSH2 0x4A67 DUP4 CODECOPY DUP2 MLOAD SWAP2 MSTORE PUSH2 0x25A1 DUP2 PUSH2 0x2B08 JUMP JUMPDEST PUSH1 0x2E SLOAD DUP3 LT ISZERO PUSH2 0x2607 JUMPI PUSH1 0x40 MLOAD PUSH3 0x461BCD PUSH1 0xE5 SHL DUP2 MSTORE PUSH1 0x20 PUSH1 0x4 DUP3 ADD MSTORE PUSH1 0x2B PUSH1 0x24 DUP3 ADD MSTORE PUSH32 0x43616E2774207265647563652076616363696E6520737570706C792064757269 PUSH1 0x44 DUP3 ADD MSTORE PUSH11 0xDCCE40C2DC40CAE0DEC6D PUSH1 0xAB SHL PUSH1 0x64 DUP3 ADD MSTORE PUSH1 0x84 ADD PUSH2 0xE58 JUMP JUMPDEST POP PUSH1 0x33 SSTORE JUMP JUMPDEST PUSH2 0x2615 PUSH2 0x2BBA JUMP JUMPDEST PUSH1 0x1 PUSH1 0x1 PUSH1 0xA0 SHL SUB DUP2 AND PUSH2 0x263F JUMPI PUSH1 0x40 MLOAD PUSH4 0x1E4FBDF7 PUSH1 0xE0 SHL DUP2 MSTORE PUSH1 0x0 PUSH1 0x4 DUP3 ADD MSTORE PUSH1 0x24 ADD PUSH2 0xE58 JUMP JUMPDEST PUSH2 0x1E5D DUP2 PUSH2 0x36C9 JUMP JUMPDEST PUSH2 0x2650 PUSH2 0x2BBA JUMP JUMPDEST PUSH1 0x0 JUMPDEST DUP2 MLOAD DUP2 LT ISZERO PUSH2 0x1091 JUMPI PUSH1 0x1C PUSH1 0x0 DUP4 DUP4 DUP2 MLOAD DUP2 LT PUSH2 0x2672 JUMPI PUSH2 0x2672 PUSH2 0x4971 JUMP JUMPDEST PUSH1 0x20 SWAP1 DUP2 MUL SWAP2 SWAP1 SWAP2 ADD DUP2 ADD MLOAD PUSH1 0x1 PUSH1 0x1 PUSH1 0xA0 SHL SUB AND DUP3 MSTORE DUP2 ADD SWAP2 SWAP1 SWAP2 MSTORE PUSH1 0x40 ADD PUSH1 0x0 KECCAK256 SLOAD PUSH1 0xFF AND ISZERO PUSH2 0x26D9 JUMPI PUSH1 0x40 MLOAD PUSH3 0x461BCD PUSH1 0xE5 SHL DUP2 MSTORE PUSH1 0x20 PUSH1 0x4 DUP3 ADD MSTORE PUSH1 0x10 PUSH1 0x24 DUP3 ADD MSTORE PUSH16 0x105B1C9958591E481A5B999958DD1959 PUSH1 0x82 SHL PUSH1 0x44 DUP3 ADD MSTORE PUSH1 0x64 ADD PUSH2 0xE58 JUMP JUMPDEST PUSH1 0x1 PUSH2 0x26E4 CALLER PUSH2 0x1E60 JUMP JUMPDEST LT ISZERO PUSH2 0x2732 JUMPI PUSH1 0x40 MLOAD PUSH3 0x461BCD PUSH1 0xE5 SHL DUP2 MSTORE PUSH1 0x20 PUSH1 0x4 DUP3 ADD MSTORE PUSH1 0x1B PUSH1 0x24 DUP3 ADD MSTORE PUSH32 0x6E6F7420656E6F75676820746F6B656E7320746F20696E666563740000000000 PUSH1 0x44 DUP3 ADD MSTORE PUSH1 0x64 ADD PUSH2 0xE58 JUMP JUMPDEST CALLER PUSH1 0x0 SWAP1 DUP2 MSTORE PUSH1 0x1C PUSH1 0x20 MSTORE PUSH1 0x40 SWAP1 KECCAK256 SLOAD PUSH1 0xFF AND ISZERO ISZERO PUSH1 0x1 EQ PUSH2 0x2785 JUMPI PUSH1 0x40 MLOAD PUSH3 0x461BCD PUSH1 0xE5 SHL DUP2 MSTORE PUSH1 0x20 PUSH1 0x4 DUP3 ADD MSTORE PUSH1 0xC PUSH1 0x24 DUP3 ADD MSTORE PUSH12 0x1B9BDD081A5B999958DD1959 PUSH1 0xA2 SHL PUSH1 0x44 DUP3 ADD MSTORE PUSH1 0x64 ADD PUSH2 0xE58 JUMP JUMPDEST CALLER PUSH1 0x1D PUSH1 0x0 DUP5 DUP5 DUP2 MLOAD DUP2 LT PUSH2 0x279C JUMPI PUSH2 0x279C PUSH2 0x4971 JUMP JUMPDEST PUSH1 0x20 MUL PUSH1 0x20 ADD ADD MLOAD PUSH1 0x1 PUSH1 0x1 PUSH1 0xA0 SHL SUB AND PUSH1 0x1 PUSH1 0x1 PUSH1 0xA0 SHL SUB AND DUP2 MSTORE PUSH1 0x20 ADD SWAP1 DUP2 MSTORE PUSH1 0x20 ADD PUSH1 0x0 KECCAK256 PUSH1 0x0 PUSH2 0x100 EXP DUP2 SLOAD DUP2 PUSH1 0x1 PUSH1 0x1 PUSH1 0xA0 SHL SUB MUL NOT AND SWAP1 DUP4 PUSH1 0x1 PUSH1 0x1 PUSH1 0xA0 SHL SUB AND MUL OR SWAP1 SSTORE POP PUSH1 0x1 PUSH1 0x1C PUSH1 0x0 DUP5 DUP5 DUP2 MLOAD DUP2 LT PUSH2 0x2800 JUMPI PUSH2 0x2800 PUSH2 0x4971 JUMP JUMPDEST PUSH1 0x20 SWAP1 DUP2 MUL SWAP2 SWAP1 SWAP2 ADD DUP2 ADD MLOAD PUSH1 0x1 PUSH1 0x1 PUSH1 0xA0 SHL SUB AND DUP3 MSTORE DUP2 DUP2 ADD SWAP3 SWAP1 SWAP3 MSTORE PUSH1 0x40 SWAP1 DUP2 ADD PUSH1 0x0 SWAP1 DUP2 KECCAK256 DUP1 SLOAD PUSH1 0xFF NOT AND SWAP5 ISZERO ISZERO SWAP5 SWAP1 SWAP5 OR SWAP1 SWAP4 SSTORE CALLER DUP4 MSTORE SWAP1 DUP1 MSTORE DUP2 KECCAK256 DUP1 SLOAD SWAP2 PUSH2 0x284C DUP4 PUSH2 0x482A JUMP JUMPDEST SWAP1 SWAP2 SSTORE POP POP PUSH1 0x43 DUP1 SLOAD SWAP1 PUSH1 0x0 PUSH2 0x2861 DUP4 PUSH2 0x482A JUMP JUMPDEST SWAP2 SWAP1 POP SSTORE POP PUSH1 0x0 PUSH2 0x2894 CALLER DUP5 DUP5 DUP2 MLOAD DUP2 LT PUSH2 0x287E JUMPI PUSH2 0x287E PUSH2 0x4971 JUMP JUMPDEST PUSH1 0x20 MUL PUSH1 0x20 ADD ADD MLOAD PUSH8 0xDE0B6B3A7640000 PUSH2 0x2B12 JUMP JUMPDEST POP DUP2 SWAP1 POP PUSH2 0x28A1 DUP2 PUSH2 0x482A JUMP JUMPDEST SWAP2 POP POP PUSH2 0x2653 JUMP JUMPDEST PUSH1 0x0 DUP1 MLOAD PUSH1 0x20 PUSH2 0x4A67 DUP4 CODECOPY DUP2 MLOAD SWAP2 MSTORE PUSH2 0x28C1 DUP2 PUSH2 0x2B08 JUMP JUMPDEST POP PUSH1 0x22 SSTORE JUMP JUMPDEST PUSH1 0x0 DUP2 DUP2 MSTORE PUSH1 0x17 PUSH1 0x20 MSTORE PUSH1 0x40 DUP2 KECCAK256 SLOAD PUSH2 0x100 SWAP1 DIV PUSH1 0xFF AND PUSH2 0x291E JUMPI PUSH1 0x40 MLOAD PUSH3 0x461BCD PUSH1 0xE5 SHL DUP2 MSTORE PUSH1 0x20 PUSH1 0x4 DUP3 ADD MSTORE PUSH1 0x11 PUSH1 0x24 DUP3 ADD MSTORE PUSH17 0x1C995C5D595CDD081B9BDD08199BDD5B99 PUSH1 0x7A SHL PUSH1 0x44 DUP3 ADD MSTORE PUSH1 0x64 ADD PUSH2 0xE58 JUMP JUMPDEST PUSH1 0x0 DUP3 DUP2 MSTORE PUSH1 0x17 PUSH1 0x20 SWAP1 DUP2 MSTORE PUSH1 0x40 DUP1 DUP4 KECCAK256 DUP2 MLOAD PUSH1 0x60 DUP2 ADD DUP4 MSTORE DUP2 SLOAD PUSH1 0xFF DUP1 DUP3 AND ISZERO ISZERO DUP4 MSTORE PUSH2 0x100 SWAP1 SWAP2 DIV AND ISZERO ISZERO DUP2 DUP6 ADD MSTORE PUSH1 0x1 DUP3 ADD DUP1 SLOAD DUP5 MLOAD DUP2 DUP8 MUL DUP2 ADD DUP8 ADD DUP7 MSTORE DUP2 DUP2 MSTORE SWAP3 SWAP6 SWAP4 SWAP5 DUP7 ADD SWAP4 DUP4 ADD DUP3 DUP3 DUP1 ISZERO PUSH2 0x2999 JUMPI PUSH1 0x20 MUL DUP3 ADD SWAP2 SWAP1 PUSH1 0x0 MSTORE PUSH1 0x20 PUSH1 0x0 KECCAK256 SWAP1 JUMPDEST DUP2 SLOAD DUP2 MSTORE PUSH1 0x20 ADD SWAP1 PUSH1 0x1 ADD SWAP1 DUP1 DUP4 GT PUSH2 0x2985 JUMPI JUMPDEST POP POP POP POP POP DUP2 MSTORE POP POP SWAP1 POP PUSH1 0x33 SLOAD PUSH1 0x2E SLOAD LT PUSH2 0x29EC JUMPI PUSH1 0x61 DUP2 PUSH1 0x40 ADD MLOAD PUSH1 0x0 DUP2 MLOAD DUP2 LT PUSH2 0x29C8 JUMPI PUSH2 0x29C8 PUSH2 0x4971 JUMP JUMPDEST PUSH1 0x20 MUL PUSH1 0x20 ADD ADD MLOAD PUSH2 0x29DA SWAP2 SWAP1 PUSH2 0x4987 JUMP JUMPDEST PUSH2 0x29E5 SWAP1 PUSH1 0x1 PUSH2 0x48F1 JUMP JUMPDEST SWAP4 SWAP3 POP POP POP JUMP JUMPDEST PUSH1 0x22 SLOAD DUP2 PUSH1 0x40 ADD MLOAD PUSH1 0x0 DUP2 MLOAD DUP2 LT PUSH2 0x29C8 JUMPI PUSH2 0x29C8 PUSH2 0x4971 JUMP JUMPDEST POP SWAP2 SWAP1 POP JUMP JUMPDEST PUSH1 0x1 PUSH1 0x1 PUSH1 0xA0 SHL SUB DUP4 AND PUSH1 0x0 SWAP1 DUP2 MSTORE PUSH1 0x24 PUSH1 0x20 MSTORE PUSH1 0x40 SWAP1 KECCAK256 SLOAD PUSH1 0xFF AND PUSH2 0x2A90 JUMPI PUSH1 0x25 DUP1 SLOAD PUSH1 0x1 DUP1 DUP3 ADD SWAP1 SWAP3 SSTORE PUSH32 0x401968FF42A154441DA5F6C4C935AC46B8671F0E062BAAA62A7545BA53BB6E4C ADD DUP1 SLOAD PUSH1 0x1 PUSH1 0x1 PUSH1 0xA0 SHL SUB NOT AND PUSH1 0x1 PUSH1 0x1 PUSH1 0xA0 SHL SUB DUP7 AND SWAP1 DUP2 OR SWAP1 SWAP2 SSTORE PUSH1 0x0 SWAP1 DUP2 MSTORE PUSH1 0x24 PUSH1 0x20 MSTORE PUSH1 0x40 SWAP1 KECCAK256 DUP1 SLOAD PUSH1 0xFF NOT AND SWAP1 SWAP2 OR SWAP1 SSTORE JUMPDEST PUSH1 0x1 PUSH1 0x1 PUSH1 0xA0 SHL SUB DUP4 AND PUSH1 0x0 DUP2 DUP2 MSTORE PUSH1 0x23 PUSH1 0x20 SWAP1 DUP2 MSTORE PUSH1 0x40 DUP1 DUP4 KECCAK256 DUP7 SWAP1 SSTORE PUSH1 0x26 SLOAD DUP4 MSTORE PUSH1 0x27 DUP3 MSTORE DUP1 DUP4 KECCAK256 DUP5 DUP5 MSTORE PUSH1 0x5 ADD DUP3 MSTORE SWAP2 DUP3 SWAP1 KECCAK256 DUP1 SLOAD PUSH1 0xFF NOT AND PUSH1 0x1 OR SWAP1 SSTORE DUP2 MLOAD DUP6 DUP2 MSTORE DUP5 ISZERO ISZERO SWAP2 DUP2 ADD SWAP2 SWAP1 SWAP2 MSTORE PUSH32 0xC05909672B3730633581D6CF7B807382B3572D7805ACE294B8D4B3558C5CC7FF SWAP2 ADD PUSH2 0x1B37 JUMP JUMPDEST PUSH2 0x1E5D DUP2 CALLER PUSH2 0x38D5 JUMP JUMPDEST PUSH1 0x1 PUSH1 0x1 PUSH1 0xA0 SHL SUB DUP4 AND PUSH1 0x0 SWAP1 DUP2 MSTORE PUSH1 0x7 PUSH1 0x20 MSTORE PUSH1 0x40 DUP2 KECCAK256 SLOAD PUSH2 0x2B36 SWAP1 DUP4 SWAP1 PUSH2 0x48DE JUMP JUMPDEST PUSH1 0x1 PUSH1 0x1 PUSH1 0xA0 SHL SUB DUP1 DUP7 AND PUSH1 0x0 SWAP1 DUP2 MSTORE PUSH1 0x7 PUSH1 0x20 MSTORE PUSH1 0x40 DUP1 DUP3 KECCAK256 SWAP4 SWAP1 SWAP4 SSTORE SWAP1 DUP6 AND DUP2 MSTORE KECCAK256 SLOAD PUSH2 0x2B66 SWAP1 DUP4 SWAP1 PUSH2 0x48F1 JUMP JUMPDEST PUSH1 0x1 PUSH1 0x1 PUSH1 0xA0 SHL SUB DUP1 DUP6 AND PUSH1 0x0 DUP2 DUP2 MSTORE PUSH1 0x7 PUSH1 0x20 MSTORE PUSH1 0x40 SWAP1 DUP2 SWAP1 KECCAK256 SWAP4 SWAP1 SWAP4 SSTORE SWAP2 MLOAD SWAP1 DUP7 AND SWAP1 PUSH1 0x0 DUP1 MLOAD PUSH1 0x20 PUSH2 0x4A47 DUP4 CODECOPY DUP2 MLOAD SWAP2 MSTORE SWAP1 PUSH2 0x2BA8 SWAP1 DUP7 DUP2 MSTORE PUSH1 0x20 ADD SWAP1 JUMP JUMPDEST PUSH1 0x40 MLOAD DUP1 SWAP2 SUB SWAP1 LOG3 POP PUSH1 0x1 SWAP4 SWAP3 POP POP POP JUMP JUMPDEST PUSH1 0x0 SLOAD PUSH1 0x1 PUSH1 0x1 PUSH1 0xA0 SHL SUB AND CALLER EQ PUSH2 0x1669 JUMPI PUSH1 0x40 MLOAD PUSH4 0x118CDAA7 PUSH1 0xE0 SHL DUP2 MSTORE CALLER PUSH1 0x4 DUP3 ADD MSTORE PUSH1 0x24 ADD PUSH2 0xE58 JUMP JUMPDEST PUSH1 0x0 DUP3 DUP2 MSTORE PUSH1 0x17 PUSH1 0x20 MSTORE PUSH1 0x40 SWAP1 KECCAK256 SLOAD PUSH2 0x100 SWAP1 DIV PUSH1 0xFF AND PUSH2 0x2C3E JUMPI PUSH1 0x40 MLOAD PUSH3 0x461BCD PUSH1 0xE5 SHL DUP2 MSTORE PUSH1 0x20 PUSH1 0x4 DUP3 ADD MSTORE PUSH1 0x11 PUSH1 0x24 DUP3 ADD MSTORE PUSH17 0x1C995C5D595CDD081B9BDD08199BDD5B99 PUSH1 0x7A SHL PUSH1 0x44 DUP3 ADD MSTORE PUSH1 0x64 ADD PUSH2 0xE58 JUMP JUMPDEST PUSH1 0x0 DUP3 DUP2 MSTORE PUSH1 0x17 PUSH1 0x20 SWAP1 DUP2 MSTORE PUSH1 0x40 SWAP1 SWAP2 KECCAK256 DUP1 SLOAD PUSH1 0xFF NOT AND PUSH1 0x1 SWAP1 DUP2 OR DUP3 SSTORE DUP4 MLOAD PUSH2 0x2C6F SWAP4 SWAP3 SWAP1 SWAP2 ADD SWAP2 DUP5 ADD SWAP1 PUSH2 0x42FC JUMP JUMPDEST POP PUSH1 0x26 SLOAD PUSH1 0x0 SWAP1 DUP2 MSTORE PUSH1 0x27 PUSH1 0x20 SWAP1 DUP2 MSTORE PUSH1 0x40 DUP1 DUP4 KECCAK256 DUP6 DUP5 MSTORE PUSH1 0x6 DUP2 ADD DUP4 MSTORE DUP2 DUP5 KECCAK256 SLOAD PUSH1 0x1 PUSH1 0x1 PUSH1 0xA0 SHL SUB AND DUP5 MSTORE PUSH1 0x8 ADD SWAP1 SWAP2 MSTORE SWAP1 DUP2 SWAP1 KECCAK256 DUP1 SLOAD PUSH1 0xFF NOT AND PUSH1 0x1 OR SWAP1 SSTORE MLOAD PUSH32 0xFE2E2D779DBA245964D4E3EF9B994BE63856FD568BF7D3CA9E224755CB1BD54D SWAP1 PUSH2 0x2CE1 SWAP1 DUP5 SWAP1 DUP5 SWAP1 PUSH2 0x499B JUMP JUMPDEST PUSH1 0x40 MLOAD DUP1 SWAP2 SUB SWAP1 LOG1 POP POP JUMP JUMPDEST PUSH1 0x1 PUSH1 0x1 PUSH1 0xA0 SHL SUB DUP4 AND PUSH1 0x0 SWAP1 DUP2 MSTORE PUSH1 0x9 PUSH1 0x20 MSTORE PUSH1 0x40 DUP2 KECCAK256 SLOAD PUSH1 0xFF AND DUP1 PUSH2 0x2D2C JUMPI POP PUSH1 0x1 PUSH1 0x1 PUSH1 0xA0 SHL SUB DUP4 AND PUSH1 0x0 SWAP1 DUP2 MSTORE PUSH1 0x9 PUSH1 0x20 MSTORE PUSH1 0x40 SWAP1 KECCAK256 SLOAD PUSH1 0xFF AND JUMPDEST DUP1 PUSH2 0x2D40 JUMPI POP PUSH1 0x19 SLOAD PUSH1 0x1 PUSH1 0xA0 SHL SWAP1 DIV PUSH1 0xFF AND JUMPDEST PUSH2 0x2D8C JUMPI PUSH1 0x40 MLOAD PUSH3 0x461BCD PUSH1 0xE5 SHL DUP2 MSTORE PUSH1 0x20 PUSH1 0x4 DUP3 ADD MSTORE PUSH1 0x1B PUSH1 0x24 DUP3 ADD MSTORE PUSH32 0x4E6F7420617574686F72697A656420746F207472616465207965740000000000 PUSH1 0x44 DUP3 ADD MSTORE PUSH1 0x64 ADD PUSH2 0xE58 JUMP JUMPDEST PUSH1 0x19 SLOAD PUSH1 0x1 PUSH1 0x1 PUSH1 0xA0 SHL SUB DUP5 DUP2 AND SWAP2 AND EQ PUSH2 0x2DF8 JUMPI PUSH1 0x1 PUSH1 0x1 PUSH1 0xA0 SHL SUB DUP4 AND PUSH1 0x0 SWAP1 DUP2 MSTORE PUSH1 0x1C PUSH1 0x20 MSTORE PUSH1 0x40 SWAP1 KECCAK256 SLOAD PUSH1 0xFF AND PUSH2 0x2DF8 JUMPI PUSH1 0x40 MLOAD PUSH3 0x461BCD PUSH1 0xE5 SHL DUP2 MSTORE PUSH1 0x20 PUSH1 0x4 DUP3 ADD MSTORE PUSH1 0xC PUSH1 0x24 DUP3 ADD MSTORE PUSH12 0x139BDD081A5B999958DD1959 PUSH1 0xA2 SHL PUSH1 0x44 DUP3 ADD MSTORE PUSH1 0x64 ADD PUSH2 0xE58 JUMP JUMPDEST PUSH1 0x40 SLOAD PUSH2 0x100 SWAP1 DIV PUSH1 0xFF AND DUP1 ISZERO PUSH2 0x2E1D JUMPI POP PUSH1 0x19 SLOAD PUSH1 0x1 PUSH1 0x1 PUSH1 0xA0 SHL SUB DUP5 DUP2 AND SWAP2 AND EQ ISZERO JUMPDEST ISZERO PUSH2 0x2EAE JUMPI PUSH2 0x2E3A PUSH1 0x0 DUP1 MLOAD PUSH1 0x20 PUSH2 0x4A67 DUP4 CODECOPY DUP2 MLOAD SWAP2 MSTORE DUP6 PUSH2 0x1EF0 JUMP JUMPDEST DUP1 PUSH2 0x2E58 JUMPI POP PUSH2 0x2E58 PUSH1 0x0 DUP1 MLOAD PUSH1 0x20 PUSH2 0x4A67 DUP4 CODECOPY DUP2 MLOAD SWAP2 MSTORE DUP5 PUSH2 0x1EF0 JUMP JUMPDEST PUSH2 0x2EAE JUMPI PUSH1 0x40 MLOAD PUSH3 0x461BCD PUSH1 0xE5 SHL DUP2 MSTORE PUSH1 0x20 PUSH1 0x4 DUP3 ADD MSTORE PUSH1 0x21 PUSH1 0x24 DUP3 ADD MSTORE PUSH32 0x47616D65206973206F7665722C206F6E6C792061646D696E732063616E206275 PUSH1 0x44 DUP3 ADD MSTORE PUSH1 0x79 PUSH1 0xF8 SHL PUSH1 0x64 DUP3 ADD MSTORE PUSH1 0x84 ADD PUSH2 0xE58 JUMP JUMPDEST PUSH1 0x0 SLOAD PUSH1 0x1 PUSH1 0x1 PUSH1 0xA0 SHL SUB DUP6 DUP2 AND SWAP2 AND EQ DUP1 ISZERO SWAP1 PUSH2 0x2EDA JUMPI POP PUSH1 0x0 SLOAD PUSH1 0x1 PUSH1 0x1 PUSH1 0xA0 SHL SUB DUP5 DUP2 AND SWAP2 AND EQ ISZERO JUMPDEST DUP1 ISZERO PUSH2 0x2EF1 JUMPI POP PUSH1 0x1 PUSH1 0x1 PUSH1 0xA0 SHL SUB DUP4 AND PUSH2 0xDEAD EQ ISZERO JUMPDEST ISZERO PUSH2 0x2FB7 JUMPI PUSH1 0x19 SLOAD PUSH1 0x1 PUSH1 0x1 PUSH1 0xA0 SHL SUB DUP5 DUP2 AND SWAP2 AND EQ PUSH2 0x2FB7 JUMPI PUSH1 0x1 PUSH1 0x1 PUSH1 0xA0 SHL SUB DUP4 AND PUSH1 0x0 SWAP1 DUP2 MSTORE PUSH1 0xA PUSH1 0x20 MSTORE PUSH1 0x40 SWAP1 KECCAK256 SLOAD PUSH1 0xFF AND DUP1 PUSH2 0x2F57 JUMPI POP PUSH1 0x6 SLOAD PUSH1 0x1 PUSH1 0x1 PUSH1 0xA0 SHL SUB DUP5 AND PUSH1 0x0 SWAP1 DUP2 MSTORE PUSH1 0x7 PUSH1 0x20 MSTORE PUSH1 0x40 SWAP1 KECCAK256 SLOAD PUSH2 0x2F54 SWAP1 DUP5 SWAP1 PUSH2 0x48F1 JUMP JUMPDEST GT ISZERO JUMPDEST PUSH2 0x2FB7 JUMPI PUSH1 0x40 MLOAD PUSH3 0x461BCD PUSH1 0xE5 SHL DUP2 MSTORE PUSH1 0x20 PUSH1 0x4 DUP3 ADD MSTORE PUSH1 0x2B PUSH1 0x24 DUP3 ADD MSTORE PUSH32 0x5472616E7366657220616D6F756E74206578636565647320746865204D617857 PUSH1 0x44 DUP3 ADD MSTORE PUSH11 0x30B63632BA1039B4BD3297 PUSH1 0xA9 SHL PUSH1 0x64 DUP3 ADD MSTORE PUSH1 0x84 ADD PUSH2 0xE58 JUMP JUMPDEST PUSH2 0x2FBF PUSH2 0x390E JUMP JUMPDEST DUP1 ISZERO PUSH2 0x2FD8 JUMPI POP PUSH1 0x19 SLOAD PUSH1 0x1 PUSH1 0x1 PUSH1 0xA0 SHL SUB DUP5 DUP2 AND SWAP2 AND EQ JUMPDEST ISZERO PUSH2 0x2FE5 JUMPI PUSH2 0x2FE5 PUSH2 0x396C JUMP JUMPDEST PUSH1 0x1 PUSH1 0x1 PUSH1 0xA0 SHL SUB DUP5 AND PUSH1 0x0 SWAP1 DUP2 MSTORE PUSH1 0x7 PUSH1 0x20 MSTORE PUSH1 0x40 SWAP1 KECCAK256 SLOAD PUSH2 0x3009 SWAP1 DUP4 SWAP1 PUSH2 0x48DE JUMP JUMPDEST PUSH1 0x1 PUSH1 0x1 PUSH1 0xA0 SHL SUB DUP6 AND PUSH1 0x0 SWAP1 DUP2 MSTORE PUSH1 0x7 PUSH1 0x20 SWAP1 DUP2 MSTORE PUSH1 0x40 DUP1 DUP4 KECCAK256 SWAP4 SWAP1 SWAP4 SSTORE PUSH1 0x9 SWAP1 MSTORE SWAP1 DUP2 KECCAK256 SLOAD PUSH1 0xFF AND ISZERO ISZERO DUP1 PUSH2 0x305A JUMPI POP PUSH1 0x1 PUSH1 0x1 PUSH1 0xA0 SHL SUB DUP5 AND PUSH1 0x0 SWAP1 DUP2 MSTORE PUSH1 0x9 PUSH1 0x20 MSTORE PUSH1 0x40 SWAP1 KECCAK256 SLOAD PUSH1 0xFF AND ISZERO ISZERO JUMPDEST PUSH2 0x306E JUMPI PUSH2 0x3069 DUP6 DUP6 DUP6 PUSH2 0x3B54 JUMP JUMPDEST PUSH2 0x3070 JUMP JUMPDEST DUP3 JUMPDEST PUSH1 0x1 PUSH1 0x1 PUSH1 0xA0 SHL SUB DUP6 AND PUSH1 0x0 SWAP1 DUP2 MSTORE PUSH1 0x7 PUSH1 0x20 MSTORE PUSH1 0x40 SWAP1 KECCAK256 SLOAD SWAP1 SWAP2 POP PUSH2 0x3097 SWAP1 DUP3 SWAP1 PUSH2 0x48F1 JUMP JUMPDEST PUSH1 0x1 PUSH1 0x1 PUSH1 0xA0 SHL SUB DUP1 DUP7 AND PUSH1 0x0 DUP2 DUP2 MSTORE PUSH1 0x7 PUSH1 0x20 MSTORE PUSH1 0x40 SWAP1 DUP2 SWAP1 KECCAK256 SWAP4 SWAP1 SWAP4 SSTORE SWAP2 MLOAD SWAP1 DUP8 AND SWAP1 PUSH1 0x0 DUP1 MLOAD PUSH1 0x20 PUSH2 0x4A47 DUP4 CODECOPY DUP2 MLOAD SWAP2 MSTORE SWAP1 PUSH2 0x30D9 SWAP1 DUP6 DUP2 MSTORE PUSH1 0x20 ADD SWAP1 JUMP JUMPDEST PUSH1 0x40 MLOAD DUP1 SWAP2 SUB SWAP1 LOG3 POP PUSH1 0x1 SWAP5 SWAP4 POP POP POP POP JUMP JUMPDEST PUSH1 0x1 PUSH1 0x1 PUSH1 0xA0 SHL SUB DUP4 AND PUSH2 0x314E JUMPI PUSH1 0x40 MLOAD PUSH3 0x461BCD PUSH1 0xE5 SHL DUP2 MSTORE PUSH1 0x20 PUSH1 0x4 DUP3 ADD MSTORE PUSH1 0x24 DUP1 DUP3 ADD MSTORE PUSH32 0x45524332303A20617070726F76652066726F6D20746865207A65726F20616464 PUSH1 0x44 DUP3 ADD MSTORE PUSH4 0x72657373 PUSH1 0xE0 SHL PUSH1 0x64 DUP3 ADD MSTORE PUSH1 0x84 ADD PUSH2 0xE58 JUMP JUMPDEST PUSH1 0x1 PUSH1 0x1 PUSH1 0xA0 SHL SUB DUP3 AND PUSH2 0x31AF JUMPI PUSH1 0x40 MLOAD PUSH3 0x461BCD PUSH1 0xE5 SHL DUP2 MSTORE PUSH1 0x20 PUSH1 0x4 DUP3 ADD MSTORE PUSH1 0x22 PUSH1 0x24 DUP3 ADD MSTORE PUSH32 0x45524332303A20617070726F766520746F20746865207A65726F206164647265 PUSH1 0x44 DUP3 ADD MSTORE PUSH2 0x7373 PUSH1 0xF0 SHL PUSH1 0x64 DUP3 ADD MSTORE PUSH1 0x84 ADD PUSH2 0xE58 JUMP JUMPDEST PUSH1 0x1 PUSH1 0x1 PUSH1 0xA0 SHL SUB DUP4 DUP2 AND PUSH1 0x0 DUP2 DUP2 MSTORE PUSH1 0x8 PUSH1 0x20 SWAP1 DUP2 MSTORE PUSH1 0x40 DUP1 DUP4 KECCAK256 SWAP5 DUP8 AND DUP1 DUP5 MSTORE SWAP5 DUP3 MSTORE SWAP2 DUP3 SWAP1 KECCAK256 DUP6 SWAP1 SSTORE SWAP1 MLOAD DUP5 DUP2 MSTORE PUSH32 0x8C5BE1E5EBEC7D5BD14F71427D1E84F3DD0314C0F7B2291E5B200AC8C7C3B925 SWAP2 ADD PUSH1 0x40 MLOAD DUP1 SWAP2 SUB SWAP1 LOG3 POP POP POP JUMP JUMPDEST PUSH1 0x0 PUSH2 0x321C DUP4 DUP4 PUSH2 0x1EF0 JUMP JUMPDEST PUSH2 0x3281 JUMPI PUSH1 0x0 DUP4 DUP2 MSTORE PUSH1 0x1 PUSH1 0x20 DUP2 DUP2 MSTORE PUSH1 0x40 DUP1 DUP5 KECCAK256 PUSH1 0x1 PUSH1 0x1 PUSH1 0xA0 SHL SUB DUP8 AND DUP1 DUP7 MSTORE SWAP3 MSTORE DUP1 DUP5 KECCAK256 DUP1 SLOAD PUSH1 0xFF NOT AND SWAP1 SWAP4 OR SWAP1 SWAP3 SSTORE SWAP1 MLOAD CALLER SWAP3 DUP7 SWAP2 PUSH32 0x2F8788117E7EFF1D82E926EC794901D17C78024A50270940304540A733656F0D SWAP2 SWAP1 LOG4 POP PUSH1 0x1 PUSH2 0x11F0 JUMP JUMPDEST POP PUSH1 0x0 PUSH2 0x11F0 JUMP JUMPDEST PUSH1 0x0 PUSH2 0x3295 DUP4 DUP4 PUSH2 0x1EF0 JUMP JUMPDEST ISZERO PUSH2 0x3281 JUMPI PUSH1 0x0 DUP4 DUP2 MSTORE PUSH1 0x1 PUSH1 0x20 SWAP1 DUP2 MSTORE PUSH1 0x40 DUP1 DUP4 KECCAK256 PUSH1 0x1 PUSH1 0x1 PUSH1 0xA0 SHL SUB DUP7 AND DUP1 DUP6 MSTORE SWAP3 MSTORE DUP1 DUP4 KECCAK256 DUP1 SLOAD PUSH1 0xFF NOT AND SWAP1 SSTORE MLOAD CALLER SWAP3 DUP7 SWAP2 PUSH32 0xF6391F5C32D9C69D2A47EA670B442974B53935D1EDC7FD64EB21E047A839171B SWAP2 SWAP1 LOG4 POP PUSH1 0x1 PUSH2 0x11F0 JUMP JUMPDEST PUSH1 0x26 SLOAD PUSH1 0x0 SWAP1 DUP2 MSTORE PUSH1 0x27 PUSH1 0x20 MSTORE PUSH1 0x40 SWAP1 KECCAK256 PUSH1 0x9 ADD SLOAD ISZERO PUSH2 0x3389 JUMPI PUSH1 0x21 SLOAD PUSH1 0x26 SLOAD PUSH1 0x0 SWAP1 DUP2 MSTORE PUSH1 0x27 PUSH1 0x20 MSTORE PUSH1 0x40 SWAP1 DUP2 SWAP1 KECCAK256 SWAP1 MLOAD PUSH4 0xF25ADDF5 PUSH1 0xE0 SHL DUP2 MSTORE PUSH1 0x1 PUSH1 0x1 PUSH1 0xA0 SHL SUB SWAP1 SWAP3 AND SWAP2 PUSH4 0xF25ADDF5 SWAP2 PUSH2 0x3356 SWAP2 PUSH1 0x9 SWAP1 SWAP2 ADD SWAP1 PUSH1 0x4 ADD PUSH2 0x4921 JUMP JUMPDEST PUSH1 0x0 PUSH1 0x40 MLOAD DUP1 DUP4 SUB DUP2 PUSH1 0x0 DUP8 DUP1 EXTCODESIZE ISZERO DUP1 ISZERO PUSH2 0x3370 JUMPI PUSH1 0x0 DUP1 REVERT JUMPDEST POP GAS CALL ISZERO DUP1 ISZERO PUSH2 0x3384 JUMPI RETURNDATASIZE PUSH1 0x0 DUP1 RETURNDATACOPY RETURNDATASIZE PUSH1 0x0 REVERT JUMPDEST POP POP POP POP JUMPDEST PUSH1 0x26 DUP1 SLOAD SWAP1 PUSH1 0x0 PUSH2 0x3399 DUP4 PUSH2 0x482A JUMP JUMPDEST SWAP1 SWAP2 SSTORE POP POP PUSH1 0x26 SLOAD PUSH1 0x0 DUP2 DUP2 MSTORE PUSH1 0x27 PUSH1 0x20 MSTORE PUSH1 0x40 SWAP1 KECCAK256 SWAP1 DUP2 SSTORE TIMESTAMP PUSH1 0x1 SWAP1 SWAP2 ADD DUP2 SWAP1 SSTORE PUSH2 0x33C8 SWAP1 PUSH3 0x14370 PUSH2 0x48F1 JUMP JUMPDEST PUSH1 0x26 SLOAD PUSH1 0x0 SWAP1 DUP2 MSTORE PUSH1 0x27 PUSH1 0x20 MSTORE PUSH1 0x40 DUP2 KECCAK256 PUSH1 0x2 ADD SWAP2 SWAP1 SWAP2 SSTORE PUSH1 0x2B DUP2 SWAP1 SSTORE PUSH1 0x2C DUP2 SWAP1 SSTORE PUSH1 0x2D DUP2 SWAP1 SSTORE PUSH1 0x2E DUP2 SWAP1 SSTORE PUSH1 0x28 DUP2 SWAP1 SSTORE JUMPDEST PUSH1 0x25 SLOAD DUP2 LT ISZERO PUSH2 0x34AD JUMPI PUSH1 0x0 PUSH1 0x23 PUSH1 0x0 PUSH1 0x25 DUP5 DUP2 SLOAD DUP2 LT PUSH2 0x341D JUMPI PUSH2 0x341D PUSH2 0x4971 JUMP JUMPDEST PUSH1 0x0 SWAP2 DUP3 MSTORE PUSH1 0x20 DUP1 DUP4 KECCAK256 SWAP1 SWAP2 ADD SLOAD PUSH1 0x1 PUSH1 0x1 PUSH1 0xA0 SHL SUB AND DUP4 MSTORE DUP3 ADD SWAP3 SWAP1 SWAP3 MSTORE PUSH1 0x40 ADD SWAP1 KECCAK256 SLOAD GT ISZERO PUSH2 0x349B JUMPI PUSH1 0x1 PUSH1 0x23 PUSH1 0x0 PUSH1 0x25 DUP5 DUP2 SLOAD DUP2 LT PUSH2 0x3461 JUMPI PUSH2 0x3461 PUSH2 0x4971 JUMP JUMPDEST PUSH1 0x0 SWAP2 DUP3 MSTORE PUSH1 0x20 DUP1 DUP4 KECCAK256 SWAP1 SWAP2 ADD SLOAD PUSH1 0x1 PUSH1 0x1 PUSH1 0xA0 SHL SUB AND DUP4 MSTORE DUP3 ADD SWAP3 SWAP1 SWAP3 MSTORE PUSH1 0x40 ADD DUP2 KECCAK256 DUP1 SLOAD SWAP1 SWAP2 SWAP1 PUSH2 0x3495 SWAP1 DUP5 SWAP1 PUSH2 0x48DE JUMP JUMPDEST SWAP1 SWAP2 SSTORE POP POP JUMPDEST DUP1 PUSH2 0x34A5 DUP2 PUSH2 0x482A JUMP JUMPDEST SWAP2 POP POP PUSH2 0x33FA JUMP JUMPDEST POP PUSH1 0x40 SLOAD PUSH1 0xFF AND PUSH2 0x34C6 JUMPI PUSH1 0x40 DUP1 SLOAD PUSH1 0xFF NOT AND PUSH1 0x1 OR SWAP1 SSTORE JUMPDEST PUSH2 0x1669 PUSH2 0x3FFE JUMP JUMPDEST CALLER PUSH2 0x34D7 PUSH2 0x42DE JUMP JUMPDEST PUSH2 0x34DF PUSH2 0x42DE JUMP JUMPDEST PUSH1 0x0 DUP1 JUMPDEST PUSH1 0x5 DUP2 LT ISZERO PUSH2 0x3548 JUMPI PUSH1 0x1E PUSH1 0x0 PUSH1 0x44 DUP4 PUSH1 0x5 DUP2 LT PUSH2 0x3503 JUMPI PUSH2 0x3503 PUSH2 0x4971 JUMP JUMPDEST ADD SLOAD PUSH1 0x1 PUSH1 0x1 PUSH1 0xA0 SHL SUB AND DUP2 MSTORE PUSH1 0x20 DUP2 ADD SWAP2 SWAP1 SWAP2 MSTORE PUSH1 0x40 ADD PUSH1 0x0 KECCAK256 SLOAD DUP5 DUP3 PUSH1 0x5 DUP2 LT PUSH2 0x3531 JUMPI PUSH2 0x3531 PUSH2 0x4971 JUMP JUMPDEST PUSH1 0x20 MUL ADD MSTORE DUP1 PUSH2 0x3540 DUP2 PUSH2 0x482A JUMP JUMPDEST SWAP2 POP POP PUSH2 0x34E3 JUMP JUMPDEST POP PUSH1 0x0 JUMPDEST PUSH1 0x5 DUP2 LT ISZERO PUSH2 0x3598 JUMPI DUP5 PUSH1 0x1 PUSH1 0x1 PUSH1 0xA0 SHL SUB AND PUSH1 0x44 DUP3 PUSH1 0x5 DUP2 LT PUSH2 0x3572 JUMPI PUSH2 0x3572 PUSH2 0x4971 JUMP JUMPDEST ADD SLOAD PUSH1 0x1 PUSH1 0x1 PUSH1 0xA0 SHL SUB AND SUB PUSH2 0x3586 JUMPI DUP1 SWAP2 POP JUMPDEST DUP1 PUSH2 0x3590 DUP2 PUSH2 0x482A JUMP JUMPDEST SWAP2 POP POP PUSH2 0x354C JUMP JUMPDEST POP PUSH1 0x1 PUSH1 0x1 PUSH1 0xA0 SHL SUB DUP5 AND PUSH1 0x0 SWAP1 DUP2 MSTORE PUSH1 0x1E PUSH1 0x20 MSTORE PUSH1 0x40 SWAP1 KECCAK256 SLOAD DUP4 MLOAD LT DUP1 ISZERO PUSH2 0x35CC JUMPI POP PUSH2 0x35C8 PUSH1 0x1 PUSH1 0x5 PUSH2 0x48DE JUMP JUMPDEST DUP2 EQ ISZERO JUMPDEST ISZERO PUSH2 0x181D JUMPI DUP1 PUSH1 0x0 SUB PUSH2 0x35E6 JUMPI PUSH1 0x1 PUSH1 0x1 PUSH1 0xA0 SHL SUB DUP5 AND DUP3 MSTORE JUMPDEST PUSH1 0x0 PUSH2 0x35F3 DUP3 PUSH1 0x1 PUSH2 0x48F1 JUMP JUMPDEST SWAP1 POP JUMPDEST PUSH1 0x5 DUP2 LT ISZERO PUSH2 0x36BB JUMPI PUSH1 0x1 PUSH1 0x1 PUSH1 0xA0 SHL SUB DUP6 AND PUSH1 0x0 SWAP1 DUP2 MSTORE PUSH1 0x1E PUSH1 0x20 MSTORE PUSH1 0x40 SWAP1 KECCAK256 SLOAD DUP5 DUP3 PUSH1 0x5 DUP2 LT PUSH2 0x362A JUMPI PUSH2 0x362A PUSH2 0x4971 JUMP JUMPDEST PUSH1 0x20 MUL ADD MLOAD LT ISZERO PUSH2 0x36A9 JUMPI PUSH1 0x44 DUP2 PUSH1 0x5 DUP2 LT PUSH2 0x3648 JUMPI PUSH2 0x3648 PUSH2 0x4971 JUMP JUMPDEST ADD SLOAD PUSH1 0x1 PUSH1 0x1 PUSH1 0xA0 SHL SUB AND DUP4 PUSH2 0x365F PUSH1 0x1 DUP5 PUSH2 0x48DE JUMP JUMPDEST PUSH1 0x5 DUP2 LT PUSH2 0x366F JUMPI PUSH2 0x366F PUSH2 0x4971 JUMP JUMPDEST PUSH1 0x1 PUSH1 0x1 PUSH1 0xA0 SHL SUB SWAP1 SWAP3 AND PUSH1 0x20 SWAP3 SWAP1 SWAP3 MUL ADD MSTORE DUP5 DUP4 DUP3 PUSH1 0x5 DUP2 LT PUSH2 0x3695 JUMPI PUSH2 0x3695 PUSH2 0x4971 JUMP JUMPDEST PUSH1 0x1 PUSH1 0x1 PUSH1 0xA0 SHL SUB SWAP1 SWAP3 AND PUSH1 0x20 SWAP3 SWAP1 SWAP3 MUL ADD MSTORE JUMPDEST DUP1 PUSH2 0x36B3 DUP2 PUSH2 0x482A JUMP JUMPDEST SWAP2 POP POP PUSH2 0x35F6 JUMP JUMPDEST POP PUSH2 0x1E58 PUSH1 0x44 DUP4 PUSH1 0x5 PUSH2 0x4347 JUMP JUMPDEST PUSH1 0x0 DUP1 SLOAD PUSH1 0x1 PUSH1 0x1 PUSH1 0xA0 SHL SUB DUP4 DUP2 AND PUSH1 0x1 PUSH1 0x1 PUSH1 0xA0 SHL SUB NOT DUP4 AND DUP2 OR DUP5 SSTORE PUSH1 0x40 MLOAD SWAP2 SWAP1 SWAP3 AND SWAP3 DUP4 SWAP2 PUSH32 0x8BE0079C531659141344CD1FD0A4F28419497F9722A3DAAFE3B4186F6B6457E0 SWAP2 SWAP1 LOG3 POP POP JUMP JUMPDEST PUSH1 0x12 SLOAD PUSH1 0x15 SLOAD PUSH1 0x16 SLOAD PUSH1 0x40 MLOAD PUSH4 0x5D3B1D3 PUSH1 0xE4 SHL DUP2 MSTORE PUSH1 0x4 DUP2 ADD SWAP3 SWAP1 SWAP3 MSTORE PUSH1 0x1 PUSH1 0xA0 SHL DUP4 DIV PUSH8 0xFFFFFFFFFFFFFFFF AND PUSH1 0x24 DUP4 ADD MSTORE PUSH5 0x100000000 DUP2 DIV PUSH2 0xFFFF AND PUSH1 0x44 DUP4 ADD MSTORE PUSH4 0xFFFFFFFF DUP1 DUP3 AND PUSH1 0x64 DUP5 ADD MSTORE PUSH7 0x1000000000000 SWAP1 SWAP2 DIV AND PUSH1 0x84 DUP3 ADD MSTORE PUSH1 0x0 SWAP2 PUSH1 0x1 PUSH1 0x1 PUSH1 0xA0 SHL SUB AND SWAP1 PUSH4 0x5D3B1D30 SWAP1 PUSH1 0xA4 ADD PUSH1 0x20 PUSH1 0x40 MLOAD DUP1 DUP4 SUB DUP2 PUSH1 0x0 DUP8 GAS CALL ISZERO DUP1 ISZERO PUSH2 0x37B1 JUMPI RETURNDATASIZE PUSH1 0x0 DUP1 RETURNDATACOPY RETURNDATASIZE PUSH1 0x0 REVERT JUMPDEST POP POP POP POP PUSH1 0x40 MLOAD RETURNDATASIZE PUSH1 0x1F NOT PUSH1 0x1F DUP3 ADD AND DUP3 ADD DUP1 PUSH1 0x40 MSTORE POP DUP2 ADD SWAP1 PUSH2 0x37D5 SWAP2 SWAP1 PUSH2 0x49E9 JUMP JUMPDEST PUSH1 0x40 DUP1 MLOAD PUSH1 0x60 DUP2 ADD DUP3 MSTORE PUSH1 0x0 DUP1 DUP3 MSTORE PUSH1 0x1 PUSH1 0x20 DUP1 DUP5 ADD DUP3 DUP2 MSTORE DUP6 MLOAD DUP5 DUP2 MSTORE DUP1 DUP4 ADD DUP8 MSTORE DUP6 DUP8 ADD SWAP1 DUP2 MSTORE DUP8 DUP6 MSTORE PUSH1 0x17 DUP4 MSTORE SWAP6 SWAP1 SWAP4 KECCAK256 DUP5 MLOAD DUP2 SLOAD SWAP5 MLOAD PUSH2 0xFFFF NOT SWAP1 SWAP6 AND SWAP1 ISZERO ISZERO PUSH2 0xFF00 NOT AND OR PUSH2 0x100 SWAP5 ISZERO ISZERO SWAP5 SWAP1 SWAP5 MUL SWAP4 SWAP1 SWAP4 OR DUP4 SSTORE SWAP4 MLOAD DUP1 MLOAD SWAP6 SWAP7 POP SWAP3 SWAP5 SWAP2 SWAP4 PUSH2 0x384A SWAP4 SWAP2 DUP6 ADD SWAP3 SWAP2 ADD SWAP1 PUSH2 0x42FC JUMP JUMPDEST POP POP PUSH1 0x13 DUP1 SLOAD PUSH1 0x1 DUP2 ADD DUP3 SSTORE PUSH1 0x0 SWAP2 SWAP1 SWAP2 MSTORE PUSH32 0x66DE8FFDA797E3DE9C05E8FC57B3BF0EC28A930D40B0D285D93C06501CF6A090 ADD DUP3 SWAP1 SSTORE POP PUSH1 0x14 DUP2 SWAP1 SSTORE PUSH1 0x16 SLOAD PUSH1 0x40 DUP1 MLOAD DUP4 DUP2 MSTORE PUSH7 0x1000000000000 SWAP1 SWAP3 DIV PUSH4 0xFFFFFFFF AND PUSH1 0x20 DUP4 ADD MSTORE PUSH32 0xCC58B13AD3EAB50626C6A6300B1D139CD6EBB1688A7CCED9461C2F7E762665EE SWAP2 ADD PUSH1 0x40 MLOAD DUP1 SWAP2 SUB SWAP1 LOG1 SWAP1 JUMP JUMPDEST PUSH2 0x38DF DUP3 DUP3 PUSH2 0x1EF0 JUMP JUMPDEST PUSH2 0x1091 JUMPI PUSH1 0x40 MLOAD PUSH4 0xE2517D3F PUSH1 0xE0 SHL DUP2 MSTORE PUSH1 0x1 PUSH1 0x1 PUSH1 0xA0 SHL SUB DUP3 AND PUSH1 0x4 DUP3 ADD MSTORE PUSH1 0x24 DUP2 ADD DUP4 SWAP1 MSTORE PUSH1 0x44 ADD PUSH2 0xE58 JUMP JUMPDEST PUSH1 0x19 SLOAD PUSH1 0x0 SWAP1 PUSH1 0x1 PUSH1 0x1 PUSH1 0xA0 SHL SUB AND CALLER EQ DUP1 ISZERO SWAP1 PUSH2 0x392F JUMPI POP PUSH1 0x1B SLOAD PUSH1 0xFF AND ISZERO JUMPDEST DUP1 ISZERO PUSH2 0x3944 JUMPI POP PUSH1 0x19 SLOAD PUSH1 0x1 PUSH1 0xA8 SHL SWAP1 DIV PUSH1 0xFF AND JUMPDEST DUP1 ISZERO PUSH2 0x3967 JUMPI POP PUSH1 0x1A SLOAD PUSH1 0x41 SLOAD PUSH2 0x395A ADDRESS PUSH2 0x1E60 JUMP JUMPDEST PUSH2 0x3964 SWAP2 SWAP1 PUSH2 0x48DE JUMP JUMPDEST LT ISZERO JUMPDEST SWAP1 POP SWAP1 JUMP JUMPDEST PUSH1 0x1B DUP1 SLOAD PUSH1 0xFF NOT AND PUSH1 0x1 OR SWAP1 SSTORE PUSH1 0x41 SLOAD PUSH1 0x0 SWAP1 PUSH2 0x3988 ADDRESS PUSH2 0x1E60 JUMP JUMPDEST PUSH2 0x3992 SWAP2 SWAP1 PUSH2 0x48DE JUMP JUMPDEST PUSH1 0x40 DUP1 MLOAD PUSH1 0x2 DUP1 DUP3 MSTORE PUSH1 0x60 DUP3 ADD DUP4 MSTORE SWAP3 SWAP4 POP PUSH1 0x0 SWAP3 SWAP1 SWAP2 PUSH1 0x20 DUP4 ADD SWAP1 DUP1 CALLDATASIZE DUP4 CALLDATACOPY ADD SWAP1 POP POP SWAP1 POP ADDRESS DUP2 PUSH1 0x0 DUP2 MLOAD DUP2 LT PUSH2 0x39CC JUMPI PUSH2 0x39CC PUSH2 0x4971 JUMP JUMPDEST PUSH1 0x1 PUSH1 0x1 PUSH1 0xA0 SHL SUB SWAP3 DUP4 AND PUSH1 0x20 SWAP2 DUP3 MUL SWAP3 SWAP1 SWAP3 ADD DUP2 ADD SWAP2 SWAP1 SWAP2 MSTORE PUSH1 0x18 SLOAD PUSH1 0x40 DUP1 MLOAD PUSH4 0x15AB88C9 PUSH1 0xE3 SHL DUP2 MSTORE SWAP1 MLOAD SWAP2 SWAP1 SWAP4 AND SWAP3 PUSH4 0xAD5C4648 SWAP3 PUSH1 0x4 DUP1 DUP4 ADD SWAP4 SWAP2 SWAP3 DUP3 SWAP1 SUB ADD DUP2 DUP7 GAS STATICCALL ISZERO DUP1 ISZERO PUSH2 0x3A25 JUMPI RETURNDATASIZE PUSH1 0x0 DUP1 RETURNDATACOPY RETURNDATASIZE PUSH1 0x0 REVERT JUMPDEST POP POP POP POP PUSH1 0x40 MLOAD RETURNDATASIZE PUSH1 0x1F NOT PUSH1 0x1F DUP3 ADD AND DUP3 ADD DUP1 PUSH1 0x40 MSTORE POP DUP2 ADD SWAP1 PUSH2 0x3A49 SWAP2 SWAP1 PUSH2 0x4904 JUMP JUMPDEST DUP2 PUSH1 0x1 DUP2 MLOAD DUP2 LT PUSH2 0x3A5C JUMPI PUSH2 0x3A5C PUSH2 0x4971 JUMP JUMPDEST PUSH1 0x1 PUSH1 0x1 PUSH1 0xA0 SHL SUB SWAP3 DUP4 AND PUSH1 0x20 SWAP2 DUP3 MUL SWAP3 SWAP1 SWAP3 ADD ADD MSTORE PUSH1 0x18 SLOAD AND PUSH4 0x52AA4C22 DUP4 PUSH1 0x0 DUP5 ADDRESS DUP3 PUSH2 0x3A8D TIMESTAMP PUSH2 0x12C PUSH2 0x48F1 JUMP JUMPDEST PUSH1 0x40 MLOAD DUP8 PUSH4 0xFFFFFFFF AND PUSH1 0xE0 SHL DUP2 MSTORE PUSH1 0x4 ADD PUSH2 0x3AAE SWAP7 SWAP6 SWAP5 SWAP4 SWAP3 SWAP2 SWAP1 PUSH2 0x4A02 JUMP JUMPDEST PUSH1 0x0 PUSH1 0x40 MLOAD DUP1 DUP4 SUB DUP2 PUSH1 0x0 DUP8 DUP1 EXTCODESIZE ISZERO DUP1 ISZERO PUSH2 0x3AC8 JUMPI PUSH1 0x0 DUP1 REVERT JUMPDEST POP GAS CALL ISZERO DUP1 ISZERO PUSH2 0x3ADC JUMPI RETURNDATASIZE PUSH1 0x0 DUP1 RETURNDATACOPY RETURNDATASIZE PUSH1 0x0 REVERT JUMPDEST POP SELFBALANCE SWAP3 POP POP DUP2 ISZERO SWAP1 POP PUSH2 0x3B45 JUMPI PUSH1 0x10 SLOAD PUSH1 0x40 MLOAD PUSH1 0x0 SWAP2 PUSH1 0x1 PUSH1 0x1 PUSH1 0xA0 SHL SUB AND SWAP1 PUSH2 0x7530 SWAP1 DUP5 SWAP1 DUP5 DUP2 DUP2 DUP2 DUP6 DUP9 DUP9 CALL SWAP4 POP POP POP POP RETURNDATASIZE DUP1 PUSH1 0x0 DUP2 EQ PUSH2 0x3B3B JUMPI PUSH1 0x40 MLOAD SWAP2 POP PUSH1 0x1F NOT PUSH1 0x3F RETURNDATASIZE ADD AND DUP3 ADD PUSH1 0x40 MSTORE RETURNDATASIZE DUP3 MSTORE RETURNDATASIZE PUSH1 0x0 PUSH1 0x20 DUP5 ADD RETURNDATACOPY PUSH2 0x3B40 JUMP JUMPDEST PUSH1 0x60 SWAP2 POP JUMPDEST POP POP POP POP JUMPDEST POP POP PUSH1 0x1B DUP1 SLOAD PUSH1 0xFF NOT AND SWAP1 SSTORE POP JUMP JUMPDEST PUSH1 0x19 SLOAD PUSH1 0x0 SWAP1 DUP2 SWAP1 DUP2 SWAP1 DUP2 SWAP1 DUP2 SWAP1 PUSH1 0x1 PUSH1 0x1 PUSH1 0xA0 SHL SUB DUP10 DUP2 AND SWAP2 AND EQ DUP1 ISZERO PUSH2 0x3B8A JUMPI POP PUSH1 0x19 SLOAD PUSH1 0x1 PUSH1 0x1 PUSH1 0xA0 SHL SUB DUP9 DUP2 AND SWAP2 AND EQ ISZERO JUMPDEST ISZERO PUSH2 0x3D36 JUMPI PUSH1 0x1 PUSH1 0x1 PUSH1 0xA0 SHL SUB DUP8 AND PUSH1 0x0 SWAP1 DUP2 MSTORE PUSH1 0x23 PUSH1 0x20 MSTORE PUSH1 0x40 SWAP1 KECCAK256 SLOAD PUSH1 0x1 SUB PUSH2 0x3C3E JUMPI PUSH1 0x3 PUSH2 0x2710 PUSH1 0x34 SLOAD DUP9 PUSH2 0x3BC2 SWAP2 SWAP1 PUSH2 0x4877 JUMP JUMPDEST PUSH2 0x3BCC SWAP2 SWAP1 PUSH2 0x48A4 JUMP JUMPDEST PUSH2 0x3BD6 SWAP2 SWAP1 PUSH2 0x48A4 JUMP JUMPDEST PUSH1 0x1 PUSH1 0x1 PUSH1 0xA0 SHL SUB DUP1 DUP10 AND PUSH1 0x0 SWAP1 DUP2 MSTORE PUSH1 0x1D PUSH1 0x20 SWAP1 DUP2 MSTORE PUSH1 0x40 DUP1 DUP4 KECCAK256 SLOAD SWAP1 SWAP4 AND DUP3 MSTORE PUSH1 0x1F SWAP1 MSTORE SWAP1 DUP2 KECCAK256 DUP1 SLOAD SWAP3 SWAP7 POP DUP7 SWAP6 POP DUP6 SWAP5 POP DUP5 SWAP3 SWAP1 SWAP2 SWAP1 PUSH2 0x3C1A SWAP1 DUP5 SWAP1 PUSH2 0x48F1 JUMP JUMPDEST SWAP3 POP POP DUP2 SWAP1 SSTORE POP DUP3 PUSH1 0x41 PUSH1 0x0 DUP3 DUP3 SLOAD PUSH2 0x3C33 SWAP2 SWAP1 PUSH2 0x48F1 JUMP JUMPDEST SWAP1 SWAP2 SSTORE POP PUSH2 0x3F04 SWAP1 POP JUMP JUMPDEST PUSH1 0x1 PUSH1 0x1 PUSH1 0xA0 SHL SUB DUP8 AND PUSH1 0x0 SWAP1 DUP2 MSTORE PUSH1 0x23 PUSH1 0x20 MSTORE PUSH1 0x40 SWAP1 KECCAK256 SLOAD PUSH1 0x2 SUB PUSH2 0x3CED JUMPI PUSH1 0x3 PUSH2 0x2710 PUSH1 0x35 SLOAD DUP9 PUSH2 0x3C71 SWAP2 SWAP1 PUSH2 0x4877 JUMP JUMPDEST PUSH2 0x3C7B SWAP2 SWAP1 PUSH2 0x48A4 JUMP JUMPDEST PUSH2 0x3C85 SWAP2 SWAP1 PUSH2 0x48A4 JUMP JUMPDEST PUSH1 0x1 PUSH1 0x1 PUSH1 0xA0 SHL SUB DUP1 DUP10 AND PUSH1 0x0 SWAP1 DUP2 MSTORE PUSH1 0x1D PUSH1 0x20 SWAP1 DUP2 MSTORE PUSH1 0x40 DUP1 DUP4 KECCAK256 SLOAD SWAP1 SWAP4 AND DUP3 MSTORE PUSH1 0x1F SWAP1 MSTORE SWAP1 DUP2 KECCAK256 DUP1 SLOAD SWAP3 SWAP7 POP DUP7 SWAP6 POP DUP6 SWAP5 POP DUP5 SWAP3 SWAP1 SWAP2 SWAP1 PUSH2 0x3CC9 SWAP1 DUP5 SWAP1 PUSH2 0x48F1 JUMP JUMPDEST SWAP3 POP POP DUP2 SWAP1 SSTORE POP DUP3 PUSH1 0x41 PUSH1 0x0 DUP3 DUP3 SLOAD PUSH2 0x3CE2 SWAP2 SWAP1 PUSH2 0x48F1 JUMP JUMPDEST SWAP1 SWAP2 SSTORE POP PUSH2 0x3D31 SWAP1 POP JUMP JUMPDEST PUSH1 0x1 PUSH1 0x1 PUSH1 0xA0 SHL SUB DUP8 AND PUSH1 0x0 SWAP1 DUP2 MSTORE PUSH1 0x23 PUSH1 0x20 MSTORE PUSH1 0x40 SWAP1 KECCAK256 SLOAD PUSH1 0x3 SUB PUSH2 0x3D20 JUMPI PUSH1 0x3 PUSH2 0x2710 PUSH1 0x36 SLOAD DUP9 PUSH2 0x3C71 SWAP2 SWAP1 PUSH2 0x4877 JUMP JUMPDEST PUSH2 0x2710 PUSH1 0xC SLOAD DUP8 PUSH2 0x3BCC SWAP2 SWAP1 PUSH2 0x4877 JUMP JUMPDEST PUSH2 0x3F04 JUMP JUMPDEST PUSH1 0x19 SLOAD PUSH1 0x1 PUSH1 0x1 PUSH1 0xA0 SHL SUB DUP10 DUP2 AND SWAP2 AND EQ DUP1 ISZERO SWAP1 PUSH2 0x3D61 JUMPI POP PUSH1 0x19 SLOAD PUSH1 0x1 PUSH1 0x1 PUSH1 0xA0 SHL SUB DUP9 DUP2 AND SWAP2 AND EQ JUMPDEST ISZERO PUSH2 0x3F04 JUMPI PUSH1 0x40 SLOAD PUSH2 0x100 SWAP1 DIV PUSH1 0xFF AND ISZERO PUSH2 0x3D95 JUMPI PUSH2 0x2710 PUSH2 0x3D84 DUP8 PUSH1 0xA PUSH2 0x4877 JUMP JUMPDEST PUSH2 0x3D8E SWAP2 SWAP1 PUSH2 0x48A4 JUMP JUMPDEST SWAP4 POP PUSH2 0x3F04 JUMP JUMPDEST PUSH1 0x1 PUSH1 0x1 PUSH1 0xA0 SHL SUB DUP9 AND PUSH1 0x0 SWAP1 DUP2 MSTORE PUSH1 0x23 PUSH1 0x20 MSTORE PUSH1 0x40 SWAP1 KECCAK256 SLOAD PUSH1 0x1 SUB PUSH2 0x3E20 JUMPI PUSH1 0x3 PUSH2 0x2710 PUSH1 0x37 SLOAD DUP9 PUSH2 0x3DC8 SWAP2 SWAP1 PUSH2 0x4877 JUMP JUMPDEST PUSH2 0x3DD2 SWAP2 SWAP1 PUSH2 0x48A4 JUMP JUMPDEST PUSH2 0x3DDC SWAP2 SWAP1 PUSH2 0x48A4 JUMP JUMPDEST PUSH1 0x1 PUSH1 0x1 PUSH1 0xA0 SHL SUB DUP1 DUP11 AND PUSH1 0x0 SWAP1 DUP2 MSTORE PUSH1 0x1D PUSH1 0x20 SWAP1 DUP2 MSTORE PUSH1 0x40 DUP1 DUP4 KECCAK256 SLOAD SWAP1 SWAP4 AND DUP3 MSTORE PUSH1 0x1F SWAP1 MSTORE SWAP1 DUP2 KECCAK256 DUP1 SLOAD SWAP3 SWAP7 POP DUP7 SWAP6 POP DUP6 SWAP5 POP DUP5 SWAP3 SWAP1 SWAP2 SWAP1 PUSH2 0x3C1A SWAP1 DUP5 SWAP1 PUSH2 0x48F1 JUMP JUMPDEST PUSH1 0x1 PUSH1 0x1 PUSH1 0xA0 SHL SUB DUP9 AND PUSH1 0x0 SWAP1 DUP2 MSTORE PUSH1 0x23 PUSH1 0x20 MSTORE PUSH1 0x40 SWAP1 KECCAK256 SLOAD PUSH1 0x2 SUB PUSH2 0x3E53 JUMPI PUSH1 0x3 PUSH2 0x2710 PUSH1 0x38 SLOAD DUP9 PUSH2 0x3DC8 SWAP2 SWAP1 PUSH2 0x4877 JUMP JUMPDEST PUSH1 0x1 PUSH1 0x1 PUSH1 0xA0 SHL SUB DUP9 AND PUSH1 0x0 SWAP1 DUP2 MSTORE PUSH1 0x23 PUSH1 0x20 MSTORE PUSH1 0x40 SWAP1 KECCAK256 SLOAD PUSH1 0x3 SUB PUSH2 0x3E86 JUMPI PUSH1 0x3 PUSH2 0x2710 PUSH1 0x39 SLOAD DUP9 PUSH2 0x3DC8 SWAP2 SWAP1 PUSH2 0x4877 JUMP JUMPDEST PUSH2 0x2710 PUSH1 0xE SLOAD DUP8 PUSH2 0x3E97 SWAP2 SWAP1 PUSH2 0x4877 JUMP JUMPDEST PUSH2 0x3EA1 SWAP2 SWAP1 PUSH2 0x48A4 JUMP JUMPDEST PUSH1 0x1 PUSH1 0x1 PUSH1 0xA0 SHL SUB DUP1 DUP11 AND PUSH1 0x0 SWAP1 DUP2 MSTORE PUSH1 0x1D PUSH1 0x20 SWAP1 DUP2 MSTORE PUSH1 0x40 DUP1 DUP4 KECCAK256 SLOAD SWAP1 SWAP4 AND DUP3 MSTORE PUSH1 0x1F SWAP1 MSTORE SWAP1 DUP2 KECCAK256 DUP1 SLOAD SWAP3 SWAP7 POP DUP7 SWAP6 POP DUP6 SWAP5 POP DUP5 SWAP3 SWAP1 SWAP2 SWAP1 PUSH2 0x3EE5 SWAP1 DUP5 SWAP1 PUSH2 0x48F1 JUMP JUMPDEST SWAP3 POP POP DUP2 SWAP1 SSTORE POP DUP3 PUSH1 0x41 PUSH1 0x0 DUP3 DUP3 SLOAD PUSH2 0x3EFE SWAP2 SWAP1 PUSH2 0x48F1 JUMP JUMPDEST SWAP1 SWAP2 SSTORE POP POP JUMPDEST DUP2 PUSH2 0x3F0F DUP5 DUP7 PUSH2 0x48F1 JUMP JUMPDEST PUSH2 0x3F19 SWAP2 SWAP1 PUSH2 0x48F1 JUMP JUMPDEST SWAP1 POP DUP1 ISZERO PUSH2 0x3FE8 JUMPI PUSH2 0x3F2B DUP3 DUP3 PUSH2 0x48DE JUMP JUMPDEST ADDRESS PUSH1 0x0 SWAP1 DUP2 MSTORE PUSH1 0x7 PUSH1 0x20 MSTORE PUSH1 0x40 DUP2 KECCAK256 DUP1 SLOAD SWAP1 SWAP2 SWAP1 PUSH2 0x3F4A SWAP1 DUP5 SWAP1 PUSH2 0x48F1 JUMP JUMPDEST SWAP1 SWAP2 SSTORE POP POP PUSH1 0x21 SLOAD PUSH1 0x1 PUSH1 0x1 PUSH1 0xA0 SHL SUB AND PUSH1 0x0 SWAP1 DUP2 MSTORE PUSH1 0x7 PUSH1 0x20 MSTORE PUSH1 0x40 DUP2 KECCAK256 DUP1 SLOAD DUP5 SWAP3 SWAP1 PUSH2 0x3F79 SWAP1 DUP5 SWAP1 PUSH2 0x48F1 JUMP JUMPDEST SWAP1 SWAP2 SSTORE POP ADDRESS SWAP1 POP PUSH1 0x1 PUSH1 0x1 PUSH1 0xA0 SHL SUB DUP10 AND PUSH1 0x0 DUP1 MLOAD PUSH1 0x20 PUSH2 0x4A47 DUP4 CODECOPY DUP2 MLOAD SWAP2 MSTORE PUSH2 0x3FA3 DUP6 DUP6 PUSH2 0x48DE JUMP JUMPDEST PUSH1 0x40 MLOAD SWAP1 DUP2 MSTORE PUSH1 0x20 ADD PUSH1 0x40 MLOAD DUP1 SWAP2 SUB SWAP1 LOG3 PUSH1 0x21 SLOAD PUSH1 0x40 MLOAD DUP4 DUP2 MSTORE PUSH1 0x1 PUSH1 0x1 PUSH1 0xA0 SHL SUB SWAP2 DUP3 AND SWAP2 DUP11 AND SWAP1 PUSH1 0x0 DUP1 MLOAD PUSH1 0x20 PUSH2 0x4A47 DUP4 CODECOPY DUP2 MLOAD SWAP2 MSTORE SWAP1 PUSH1 0x20 ADD PUSH1 0x40 MLOAD DUP1 SWAP2 SUB SWAP1 LOG3 JUMPDEST PUSH2 0x3FF2 DUP2 DUP8 PUSH2 0x48DE JUMP JUMPDEST SWAP9 SWAP8 POP POP POP POP POP POP POP POP JUMP JUMPDEST PUSH1 0x5 SLOAD PUSH2 0x4031 PUSH1 0x5 SLOAD PUSH1 0x26 SLOAD PUSH1 0x3A SLOAD PUSH2 0x4017 SWAP2 SWAP1 PUSH2 0x4877 JUMP JUMPDEST PUSH2 0x4022 SWAP1 PUSH1 0x64 PUSH2 0x4877 JUMP JUMPDEST PUSH2 0x402C SWAP2 SWAP1 PUSH2 0x4877 JUMP JUMPDEST PUSH2 0x414C JUMP JUMPDEST PUSH1 0xB SLOAD PUSH2 0x403E SWAP2 SWAP1 PUSH2 0x48DE JUMP JUMPDEST PUSH2 0x4048 SWAP2 SWAP1 PUSH2 0x48A4 JUMP JUMPDEST PUSH1 0x34 SSTORE PUSH1 0x5 SLOAD PUSH1 0x26 SLOAD PUSH1 0x3B SLOAD PUSH2 0x4064 SWAP2 DUP4 SWAP2 PUSH2 0x4017 SWAP2 SWAP1 PUSH2 0x4877 JUMP JUMPDEST PUSH1 0xB SLOAD PUSH2 0x4071 SWAP2 SWAP1 PUSH2 0x48DE JUMP JUMPDEST PUSH2 0x407B SWAP2 SWAP1 PUSH2 0x48A4 JUMP JUMPDEST PUSH1 0x35 SSTORE PUSH1 0x5 SLOAD PUSH1 0x26 SLOAD PUSH1 0x3C SLOAD PUSH2 0x4097 SWAP2 DUP4 SWAP2 PUSH2 0x4017 SWAP2 SWAP1 PUSH2 0x4877 JUMP JUMPDEST PUSH1 0xB SLOAD PUSH2 0x40A4 SWAP2 SWAP1 PUSH2 0x48DE JUMP JUMPDEST PUSH2 0x40AE SWAP2 SWAP1 PUSH2 0x48A4 JUMP JUMPDEST PUSH1 0x36 SSTORE PUSH1 0x5 SLOAD PUSH1 0x26 SLOAD PUSH1 0x3D SLOAD PUSH2 0x40CA SWAP2 DUP4 SWAP2 PUSH2 0x4017 SWAP2 SWAP1 PUSH2 0x4877 JUMP JUMPDEST PUSH1 0xD SLOAD PUSH2 0x40D7 SWAP2 SWAP1 PUSH2 0x48DE JUMP JUMPDEST PUSH2 0x40E1 SWAP2 SWAP1 PUSH2 0x48A4 JUMP JUMPDEST PUSH1 0x37 SSTORE PUSH1 0x5 SLOAD PUSH1 0x26 SLOAD PUSH1 0x3E SLOAD PUSH2 0x40FD SWAP2 DUP4 SWAP2 PUSH2 0x4017 SWAP2 SWAP1 PUSH2 0x4877 JUMP JUMPDEST PUSH1 0xD SLOAD PUSH2 0x410A SWAP2 SWAP1 PUSH2 0x48DE JUMP JUMPDEST PUSH2 0x4114 SWAP2 SWAP1 PUSH2 0x48A4 JUMP JUMPDEST PUSH1 0x38 SSTORE PUSH1 0x5 SLOAD PUSH1 0x26 SLOAD PUSH1 0x3F SLOAD PUSH2 0x4130 SWAP2 DUP4 SWAP2 PUSH2 0x4017 SWAP2 SWAP1 PUSH2 0x4877 JUMP JUMPDEST PUSH1 0xD SLOAD PUSH2 0x413D SWAP2 SWAP1 PUSH2 0x48DE JUMP JUMPDEST PUSH2 0x4147 SWAP2 SWAP1 PUSH2 0x48A4 JUMP JUMPDEST PUSH1 0x39 SSTORE JUMP JUMPDEST PUSH1 0x0 DUP2 PUSH1 0x0 SUB PUSH2 0x415E JUMPI POP PUSH1 0x0 SWAP2 SWAP1 POP JUMP JUMPDEST PUSH1 0x0 PUSH1 0x1 PUSH2 0x416B DUP5 PUSH2 0x4234 JUMP JUMPDEST SWAP1 SHR PUSH1 0x1 SWAP1 SHL SWAP1 POP PUSH1 0x1 DUP2 DUP5 DUP2 PUSH2 0x4184 JUMPI PUSH2 0x4184 PUSH2 0x488E JUMP JUMPDEST DIV DUP3 ADD SWAP1 SHR SWAP1 POP PUSH1 0x1 DUP2 DUP5 DUP2 PUSH2 0x419C JUMPI PUSH2 0x419C PUSH2 0x488E JUMP JUMPDEST DIV DUP3 ADD SWAP1 SHR SWAP1 POP PUSH1 0x1 DUP2 DUP5 DUP2 PUSH2 0x41B4 JUMPI PUSH2 0x41B4 PUSH2 0x488E JUMP JUMPDEST DIV DUP3 ADD SWAP1 SHR SWAP1 POP PUSH1 0x1 DUP2 DUP5 DUP2 PUSH2 0x41CC JUMPI PUSH2 0x41CC PUSH2 0x488E JUMP JUMPDEST DIV DUP3 ADD SWAP1 SHR SWAP1 POP PUSH1 0x1 DUP2 DUP5 DUP2 PUSH2 0x41E4 JUMPI PUSH2 0x41E4 PUSH2 0x488E JUMP JUMPDEST DIV DUP3 ADD SWAP1 SHR SWAP1 POP PUSH1 0x1 DUP2 DUP5 DUP2 PUSH2 0x41FC JUMPI PUSH2 0x41FC PUSH2 0x488E JUMP JUMPDEST DIV DUP3 ADD SWAP1 SHR SWAP1 POP PUSH1 0x1 DUP2 DUP5 DUP2 PUSH2 0x4214 JUMPI PUSH2 0x4214 PUSH2 0x488E JUMP JUMPDEST DIV DUP3 ADD SWAP1 SHR SWAP1 POP PUSH2 0x29E5 DUP2 DUP3 DUP6 DUP2 PUSH2 0x422E JUMPI PUSH2 0x422E PUSH2 0x488E JUMP JUMPDEST DIV PUSH2 0x42C8 JUMP JUMPDEST PUSH1 0x0 DUP1 PUSH1 0x80 DUP4 SWAP1 SHR ISZERO PUSH2 0x4249 JUMPI PUSH1 0x80 SWAP3 DUP4 SHR SWAP3 ADD JUMPDEST PUSH1 0x40 DUP4 SWAP1 SHR ISZERO PUSH2 0x425B JUMPI PUSH1 0x40 SWAP3 DUP4 SHR SWAP3 ADD JUMPDEST PUSH1 0x20 DUP4 SWAP1 SHR ISZERO PUSH2 0x426D JUMPI PUSH1 0x20 SWAP3 DUP4 SHR SWAP3 ADD JUMPDEST PUSH1 0x10 DUP4 SWAP1 SHR ISZERO PUSH2 0x427F JUMPI PUSH1 0x10 SWAP3 DUP4 SHR SWAP3 ADD JUMPDEST PUSH1 0x8 DUP4 SWAP1 SHR ISZERO PUSH2 0x4291 JUMPI PUSH1 0x8 SWAP3 DUP4 SHR SWAP3 ADD JUMPDEST PUSH1 0x4 DUP4 SWAP1 SHR ISZERO PUSH2 0x42A3 JUMPI PUSH1 0x4 SWAP3 DUP4 SHR SWAP3 ADD JUMPDEST PUSH1 0x2 DUP4 SWAP1 SHR ISZERO PUSH2 0x42B5 JUMPI PUSH1 0x2 SWAP3 DUP4 SHR SWAP3 ADD JUMPDEST PUSH1 0x1 DUP4 SWAP1 SHR ISZERO PUSH2 0x11F0 JUMPI PUSH1 0x1 ADD SWAP3 SWAP2 POP POP JUMP JUMPDEST PUSH1 0x0 DUP2 DUP4 LT PUSH2 0x42D7 JUMPI DUP2 PUSH2 0x29E5 JUMP JUMPDEST POP SWAP1 SWAP2 SWAP1 POP JUMP JUMPDEST PUSH1 0x40 MLOAD DUP1 PUSH1 0xA0 ADD PUSH1 0x40 MSTORE DUP1 PUSH1 0x5 SWAP1 PUSH1 0x20 DUP3 MUL DUP1 CALLDATASIZE DUP4 CALLDATACOPY POP SWAP2 SWAP3 SWAP2 POP POP JUMP JUMPDEST DUP3 DUP1 SLOAD DUP3 DUP3 SSTORE SWAP1 PUSH1 0x0 MSTORE PUSH1 0x20 PUSH1 0x0 KECCAK256 SWAP1 DUP2 ADD SWAP3 DUP3 ISZERO PUSH2 0x4337 JUMPI SWAP2 PUSH1 0x20 MUL DUP3 ADD JUMPDEST DUP3 DUP2 GT ISZERO PUSH2 0x4337 JUMPI DUP3 MLOAD DUP3 SSTORE SWAP2 PUSH1 0x20 ADD SWAP2 SWAP1 PUSH1 0x1 ADD SWAP1 PUSH2 0x431C JUMP JUMPDEST POP PUSH2 0x4343 SWAP3 SWAP2 POP PUSH2 0x438F JUMP JUMPDEST POP SWAP1 JUMP JUMPDEST DUP3 PUSH1 0x5 DUP2 ADD SWAP3 DUP3 ISZERO PUSH2 0x4337 JUMPI SWAP2 PUSH1 0x20 MUL DUP3 ADD JUMPDEST DUP3 DUP2 GT ISZERO PUSH2 0x4337 JUMPI DUP3 MLOAD DUP3 SLOAD PUSH1 0x1 PUSH1 0x1 PUSH1 0xA0 SHL SUB NOT AND PUSH1 0x1 PUSH1 0x1 PUSH1 0xA0 SHL SUB SWAP1 SWAP2 AND OR DUP3 SSTORE PUSH1 0x20 SWAP1 SWAP3 ADD SWAP2 PUSH1 0x1 SWAP1 SWAP2 ADD SWAP1 PUSH2 0x435A JUMP JUMPDEST JUMPDEST DUP1 DUP3 GT ISZERO PUSH2 0x4343 JUMPI PUSH1 0x0 DUP2 SSTORE PUSH1 0x1 ADD PUSH2 0x4390 JUMP JUMPDEST PUSH1 0x1 PUSH1 0x1 PUSH1 0xA0 SHL SUB DUP2 AND DUP2 EQ PUSH2 0x1E5D JUMPI PUSH1 0x0 DUP1 REVERT JUMPDEST PUSH1 0x0 PUSH1 0x20 DUP3 DUP5 SUB SLT ISZERO PUSH2 0x43CB JUMPI PUSH1 0x0 DUP1 REVERT JUMPDEST DUP2 CALLDATALOAD PUSH2 0x29E5 DUP2 PUSH2 0x43A4 JUMP JUMPDEST PUSH1 0x0 PUSH1 0x20 DUP3 DUP5 SUB SLT ISZERO PUSH2 0x43E8 JUMPI PUSH1 0x0 DUP1 REVERT JUMPDEST DUP2 CALLDATALOAD PUSH1 0x1 PUSH1 0x1 PUSH1 0xE0 SHL SUB NOT DUP2 AND DUP2 EQ PUSH2 0x29E5 JUMPI PUSH1 0x0 DUP1 REVERT JUMPDEST PUSH1 0x0 PUSH1 0x20 DUP1 DUP4 MSTORE DUP4 MLOAD DUP1 DUP3 DUP6 ADD MSTORE PUSH1 0x0 JUMPDEST DUP2 DUP2 LT ISZERO PUSH2 0x442D JUMPI DUP6 DUP2 ADD DUP4 ADD MLOAD DUP6 DUP3 ADD PUSH1 0x40 ADD MSTORE DUP3 ADD PUSH2 0x4411 JUMP JUMPDEST POP PUSH1 0x0 PUSH1 0x40 DUP3 DUP7 ADD ADD MSTORE PUSH1 0x40 PUSH1 0x1F NOT PUSH1 0x1F DUP4 ADD AND DUP6 ADD ADD SWAP3 POP POP POP SWAP3 SWAP2 POP POP JUMP JUMPDEST PUSH1 0x0 DUP1 PUSH1 0x40 DUP4 DUP6 SUB SLT ISZERO PUSH2 0x4461 JUMPI PUSH1 0x0 DUP1 REVERT JUMPDEST DUP3 CALLDATALOAD PUSH2 0x446C DUP2 PUSH2 0x43A4 JUMP JUMPDEST SWAP5 PUSH1 0x20 SWAP4 SWAP1 SWAP4 ADD CALLDATALOAD SWAP4 POP POP POP JUMP JUMPDEST PUSH1 0x0 PUSH1 0x20 DUP3 DUP5 SUB SLT ISZERO PUSH2 0x448C JUMPI PUSH1 0x0 DUP1 REVERT JUMPDEST POP CALLDATALOAD SWAP2 SWAP1 POP JUMP JUMPDEST PUSH4 0x4E487B71 PUSH1 0xE0 SHL PUSH1 0x0 MSTORE PUSH1 0x41 PUSH1 0x4 MSTORE PUSH1 0x24 PUSH1 0x0 REVERT JUMPDEST PUSH1 0x40 MLOAD PUSH1 0x1F DUP3 ADD PUSH1 0x1F NOT AND DUP2 ADD PUSH8 0xFFFFFFFFFFFFFFFF DUP2 GT DUP3 DUP3 LT OR ISZERO PUSH2 0x44D2 JUMPI PUSH2 0x44D2 PUSH2 0x4493 JUMP JUMPDEST PUSH1 0x40 MSTORE SWAP2 SWAP1 POP JUMP JUMPDEST PUSH1 0x0 PUSH8 0xFFFFFFFFFFFFFFFF DUP3 GT ISZERO PUSH2 0x44F4 JUMPI PUSH2 0x44F4 PUSH2 0x4493 JUMP JUMPDEST POP PUSH1 0x5 SHL PUSH1 0x20 ADD SWAP1 JUMP JUMPDEST PUSH1 0x0 DUP1 PUSH1 0x40 DUP4 DUP6 SUB SLT ISZERO PUSH2 0x4511 JUMPI PUSH1 0x0 DUP1 REVERT JUMPDEST DUP3 CALLDATALOAD SWAP2 POP PUSH1 0x20 DUP1 DUP5 ADD CALLDATALOAD PUSH8 0xFFFFFFFFFFFFFFFF DUP2 GT ISZERO PUSH2 0x4530 JUMPI PUSH1 0x0 DUP1 REVERT JUMPDEST DUP5 ADD PUSH1 0x1F DUP2 ADD DUP7 SGT PUSH2 0x4541 JUMPI PUSH1 0x0 DUP1 REVERT JUMPDEST DUP1 CALLDATALOAD PUSH2 0x4554 PUSH2 0x454F DUP3 PUSH2 0x44DA JUMP JUMPDEST PUSH2 0x44A9 JUMP JUMPDEST DUP2 DUP2 MSTORE PUSH1 0x5 SWAP2 SWAP1 SWAP2 SHL DUP3 ADD DUP4 ADD SWAP1 DUP4 DUP2 ADD SWAP1 DUP9 DUP4 GT ISZERO PUSH2 0x4573 JUMPI PUSH1 0x0 DUP1 REVERT JUMPDEST SWAP3 DUP5 ADD SWAP3 JUMPDEST DUP3 DUP5 LT ISZERO PUSH2 0x4591 JUMPI DUP4 CALLDATALOAD DUP3 MSTORE SWAP3 DUP5 ADD SWAP3 SWAP1 DUP5 ADD SWAP1 PUSH2 0x4578 JUMP JUMPDEST DUP1 SWAP6 POP POP POP POP POP POP SWAP3 POP SWAP3 SWAP1 POP JUMP JUMPDEST DUP1 CALLDATALOAD DUP1 ISZERO ISZERO DUP2 EQ PUSH2 0x45B0 JUMPI PUSH1 0x0 DUP1 REVERT JUMPDEST SWAP2 SWAP1 POP JUMP JUMPDEST PUSH1 0x0 DUP1 PUSH1 0x40 DUP4 DUP6 SUB SLT ISZERO PUSH2 0x45C8 JUMPI PUSH1 0x0 DUP1 REVERT JUMPDEST DUP3 CALLDATALOAD PUSH2 0x45D3 DUP2 PUSH2 0x43A4 JUMP JUMPDEST SWAP2 POP PUSH2 0x45E1 PUSH1 0x20 DUP5 ADD PUSH2 0x45A0 JUMP JUMPDEST SWAP1 POP SWAP3 POP SWAP3 SWAP1 POP JUMP JUMPDEST PUSH1 0x0 DUP1 PUSH1 0x0 PUSH1 0x60 DUP5 DUP7 SUB SLT ISZERO PUSH2 0x45FF JUMPI PUSH1 0x0 DUP1 REVERT JUMPDEST DUP4 CALLDATALOAD PUSH2 0x460A DUP2 PUSH2 0x43A4 JUMP JUMPDEST SWAP3 POP PUSH1 0x20 DUP5 ADD CALLDATALOAD PUSH2 0x461A DUP2 PUSH2 0x43A4 JUMP JUMPDEST SWAP3 SWAP6 SWAP3 SWAP5 POP POP POP PUSH1 0x40 SWAP2 SWAP1 SWAP2 ADD CALLDATALOAD SWAP1 JUMP JUMPDEST PUSH1 0x0 DUP1 PUSH1 0x40 DUP4 DUP6 SUB SLT ISZERO PUSH2 0x463E JUMPI PUSH1 0x0 DUP1 REVERT JUMPDEST DUP3 CALLDATALOAD SWAP2 POP PUSH1 0x20 DUP4 ADD CALLDATALOAD PUSH2 0x4650 DUP2 PUSH2 0x43A4 JUMP JUMPDEST DUP1 SWAP2 POP POP SWAP3 POP SWAP3 SWAP1 POP JUMP JUMPDEST PUSH1 0x0 DUP2 MLOAD DUP1 DUP5 MSTORE PUSH1 0x20 DUP1 DUP6 ADD SWAP5 POP DUP1 DUP5 ADD PUSH1 0x0 JUMPDEST DUP4 DUP2 LT ISZERO PUSH2 0x4694 JUMPI DUP2 MLOAD PUSH1 0x1 PUSH1 0x1 PUSH1 0xA0 SHL SUB AND DUP8 MSTORE SWAP6 DUP3 ADD SWAP6 SWAP1 DUP3 ADD SWAP1 PUSH1 0x1 ADD PUSH2 0x466F JUMP JUMPDEST POP SWAP5 SWAP6 SWAP5 POP POP POP POP POP JUMP JUMPDEST PUSH1 0x20 DUP2 MSTORE PUSH1 0x0 PUSH2 0x29E5 PUSH1 0x20 DUP4 ADD DUP5 PUSH2 0x465B JUMP JUMPDEST PUSH1 0xA0 DUP2 ADD DUP2 DUP4 PUSH1 0x0 JUMPDEST PUSH1 0x5 DUP2 LT ISZERO PUSH2 0x46E3 JUMPI DUP2 MLOAD PUSH1 0x1 PUSH1 0x1 PUSH1 0xA0 SHL SUB AND DUP4 MSTORE PUSH1 0x20 SWAP3 DUP4 ADD SWAP3 SWAP1 SWAP2 ADD SWAP1 PUSH1 0x1 ADD PUSH2 0x46BB JUMP JUMPDEST POP POP POP SWAP3 SWAP2 POP POP JUMP JUMPDEST PUSH1 0x0 DUP1 PUSH1 0x40 DUP4 DUP6 SUB SLT ISZERO PUSH2 0x46FF JUMPI PUSH1 0x0 DUP1 REVERT JUMPDEST DUP3 CALLDATALOAD PUSH2 0x470A DUP2 PUSH2 0x43A4 JUMP JUMPDEST SWAP2 POP PUSH1 0x20 DUP4 ADD CALLDATALOAD PUSH2 0x4650 DUP2 PUSH2 0x43A4 JUMP JUMPDEST PUSH1 0x0 DUP1 PUSH1 0x40 DUP4 DUP6 SUB SLT ISZERO PUSH2 0x472D JUMPI PUSH1 0x0 DUP1 REVERT JUMPDEST PUSH2 0x446C DUP4 PUSH2 0x45A0 JUMP JUMPDEST PUSH1 0x0 PUSH1 0x20 DUP1 DUP4 DUP6 SUB SLT ISZERO PUSH2 0x4749 JUMPI PUSH1 0x0 DUP1 REVERT JUMPDEST DUP3 CALLDATALOAD PUSH8 0xFFFFFFFFFFFFFFFF DUP2 GT ISZERO PUSH2 0x4760 JUMPI PUSH1 0x0 DUP1 REVERT JUMPDEST DUP4 ADD PUSH1 0x1F DUP2 ADD DUP6 SGT PUSH2 0x4771 JUMPI PUSH1 0x0 DUP1 REVERT JUMPDEST DUP1 CALLDATALOAD PUSH2 0x477F PUSH2 0x454F DUP3 PUSH2 0x44DA JUMP JUMPDEST DUP2 DUP2 MSTORE PUSH1 0x5 SWAP2 SWAP1 SWAP2 SHL DUP3 ADD DUP4 ADD SWAP1 DUP4 DUP2 ADD SWAP1 DUP8 DUP4 GT ISZERO PUSH2 0x479E JUMPI PUSH1 0x0 DUP1 REVERT JUMPDEST SWAP3 DUP5 ADD SWAP3 JUMPDEST DUP3 DUP5 LT ISZERO PUSH2 0x47C5 JUMPI DUP4 CALLDATALOAD PUSH2 0x47B6 DUP2 PUSH2 0x43A4 JUMP JUMPDEST DUP3 MSTORE SWAP3 DUP5 ADD SWAP3 SWAP1 DUP5 ADD SWAP1 PUSH2 0x47A3 JUMP JUMPDEST SWAP8 SWAP7 POP POP POP POP POP POP POP JUMP JUMPDEST PUSH1 0x20 DUP1 DUP3 MSTORE PUSH1 0x24 SWAP1 DUP3 ADD MSTORE PUSH32 0x45706F6368206973206F7665722C207761697420666F7220746865206E657874 PUSH1 0x40 DUP3 ADD MSTORE PUSH4 0x206F6E65 PUSH1 0xE0 SHL PUSH1 0x60 DUP3 ADD MSTORE PUSH1 0x80 ADD SWAP1 JUMP JUMPDEST PUSH4 0x4E487B71 PUSH1 0xE0 SHL PUSH1 0x0 MSTORE PUSH1 0x11 PUSH1 0x4 MSTORE PUSH1 0x24 PUSH1 0x0 REVERT JUMPDEST PUSH1 0x0 PUSH1 0x1 DUP3 ADD PUSH2 0x483C JUMPI PUSH2 0x483C PUSH2 0x4814 JUMP JUMPDEST POP PUSH1 0x1 ADD SWAP1 JUMP JUMPDEST PUSH1 0x1 DUP2 DUP2 SHR SWAP1 DUP3 AND DUP1 PUSH2 0x4857 JUMPI PUSH1 0x7F DUP3 AND SWAP2 POP JUMPDEST PUSH1 0x20 DUP3 LT DUP2 SUB PUSH2 0x2A06 JUMPI PUSH4 0x4E487B71 PUSH1 0xE0 SHL PUSH1 0x0 MSTORE PUSH1 0x22 PUSH1 0x4 MSTORE PUSH1 0x24 PUSH1 0x0 REVERT JUMPDEST DUP1 DUP3 MUL DUP2 ISZERO DUP3 DUP3 DIV DUP5 EQ OR PUSH2 0x11F0 JUMPI PUSH2 0x11F0 PUSH2 0x4814 JUMP JUMPDEST PUSH4 0x4E487B71 PUSH1 0xE0 SHL PUSH1 0x0 MSTORE PUSH1 0x12 PUSH1 0x4 MSTORE PUSH1 0x24 PUSH1 0x0 REVERT JUMPDEST PUSH1 0x0 DUP3 PUSH2 0x48B3 JUMPI PUSH2 0x48B3 PUSH2 0x488E JUMP JUMPDEST POP DIV SWAP1 JUMP JUMPDEST PUSH1 0x20 DUP1 DUP3 MSTORE PUSH1 0xC SWAP1 DUP3 ADD MSTORE PUSH12 0x23B0B6B29034B99037BB32B9 PUSH1 0xA1 SHL PUSH1 0x40 DUP3 ADD MSTORE PUSH1 0x60 ADD SWAP1 JUMP JUMPDEST DUP2 DUP2 SUB DUP2 DUP2 GT ISZERO PUSH2 0x11F0 JUMPI PUSH2 0x11F0 PUSH2 0x4814 JUMP JUMPDEST DUP1 DUP3 ADD DUP1 DUP3 GT ISZERO PUSH2 0x11F0 JUMPI PUSH2 0x11F0 PUSH2 0x4814 JUMP JUMPDEST PUSH1 0x0 PUSH1 0x20 DUP3 DUP5 SUB SLT ISZERO PUSH2 0x4916 JUMPI PUSH1 0x0 DUP1 REVERT JUMPDEST DUP2 MLOAD PUSH2 0x29E5 DUP2 PUSH2 0x43A4 JUMP JUMPDEST PUSH1 0x20 DUP1 DUP3 MSTORE DUP3 SLOAD DUP3 DUP3 ADD DUP2 SWAP1 MSTORE PUSH1 0x0 DUP5 DUP2 MSTORE DUP3 DUP2 KECCAK256 SWAP1 SWAP3 SWAP2 PUSH1 0x40 DUP6 ADD SWAP1 DUP5 JUMPDEST DUP2 DUP2 LT ISZERO PUSH2 0x4965 JUMPI DUP4 SLOAD PUSH1 0x1 PUSH1 0x1 PUSH1 0xA0 SHL SUB AND DUP4 MSTORE PUSH1 0x1 SWAP4 DUP5 ADD SWAP4 SWAP3 DUP6 ADD SWAP3 ADD PUSH2 0x4940 JUMP JUMPDEST POP SWAP1 SWAP7 SWAP6 POP POP POP POP POP POP JUMP JUMPDEST PUSH4 0x4E487B71 PUSH1 0xE0 SHL PUSH1 0x0 MSTORE PUSH1 0x32 PUSH1 0x4 MSTORE PUSH1 0x24 PUSH1 0x0 REVERT JUMPDEST PUSH1 0x0 DUP3 PUSH2 0x4996 JUMPI PUSH2 0x4996 PUSH2 0x488E JUMP JUMPDEST POP MOD SWAP1 JUMP JUMPDEST PUSH1 0x0 PUSH1 0x40 DUP3 ADD DUP5 DUP4 MSTORE PUSH1 0x20 PUSH1 0x40 DUP2 DUP6 ADD MSTORE DUP2 DUP6 MLOAD DUP1 DUP5 MSTORE PUSH1 0x60 DUP7 ADD SWAP2 POP DUP3 DUP8 ADD SWAP4 POP PUSH1 0x0 JUMPDEST DUP2 DUP2 LT ISZERO PUSH2 0x49DC JUMPI DUP5 MLOAD DUP4 MSTORE SWAP4 DUP4 ADD SWAP4 SWAP2 DUP4 ADD SWAP2 PUSH1 0x1 ADD PUSH2 0x49C0 JUMP JUMPDEST POP SWAP1 SWAP8 SWAP7 POP POP POP POP POP POP POP JUMP JUMPDEST PUSH1 0x0 PUSH1 0x20 DUP3 DUP5 SUB SLT ISZERO PUSH2 0x49FB JUMPI PUSH1 0x0 DUP1 REVERT JUMPDEST POP MLOAD SWAP2 SWAP1 POP JUMP JUMPDEST DUP7 DUP2 MSTORE DUP6 PUSH1 0x20 DUP3 ADD MSTORE PUSH1 0xC0 PUSH1 0x40 DUP3 ADD MSTORE PUSH1 0x0 PUSH2 0x4A21 PUSH1 0xC0 DUP4 ADD DUP8 PUSH2 0x465B JUMP JUMPDEST PUSH1 0x1 PUSH1 0x1 PUSH1 0xA0 SHL SUB SWAP6 DUP7 AND PUSH1 0x60 DUP5 ADD MSTORE SWAP4 SWAP1 SWAP5 AND PUSH1 0x80 DUP3 ADD MSTORE PUSH1 0xA0 ADD MSTORE SWAP5 SWAP4 POP POP POP POP JUMP INVALID 0xDD CALLCODE MSTORE 0xAD SHL 0xE2 0xC8 SWAP12 PUSH10 0xC2B068FC378DAA952BA7 CALL PUSH4 0xC4A11628 CREATE2 GAS 0x4D CREATE2 0x23 0xB3 0xEF LOG4 SWAP9 SMOD KECCAK256 0x5C 0xE4 0xD3 SSTORE MULMOD 0x2E CREATE2 0xA8 LOG1 DUP16 JUMP 0xE8 SWAP2 EXTCODECOPY DELEGATECALL LOG2 ADD 0xFB 0xE2 DUP8 DUP3 JUMPDEST MULMOD JUMP SWAP4 0xC2 OR PUSH22 0xA264697066735822122092685B896FFC468CBDA0D2BF 0x22 PUSH23 0xB5516926A09F569CD9349CB9306D3F75378F64736F6C63 NUMBER STOP ADDMOD EQ STOP CALLER PUSH1 0x80 PUSH1 0x40 MSTORE PUSH11 0x14ADF4B7320334B9000000 PUSH1 0x3 SSTORE PUSH1 0x0 PUSH1 0x4 SSTORE CALLVALUE DUP1 ISZERO PUSH2 0x24 JUMPI PUSH1 0x0 DUP1 REVERT JUMPDEST POP PUSH1 0x40 MLOAD PUSH2 0x89A CODESIZE SUB DUP1 PUSH2 0x89A DUP4 CODECOPY DUP2 ADD PUSH1 0x40 DUP2 SWAP1 MSTORE PUSH2 0x43 SWAP2 PUSH2 0x118 JUMP JUMPDEST DUP1 PUSH1 0x1 PUSH1 0x1 PUSH1 0xA0 SHL SUB DUP2 AND PUSH2 0x72 JUMPI PUSH1 0x40 MLOAD PUSH4 0x1E4FBDF7 PUSH1 0xE0 SHL DUP2 MSTORE PUSH1 0x0 PUSH1 0x4 DUP3 ADD MSTORE PUSH1 0x24 ADD PUSH1 0x40 MLOAD DUP1 SWAP2 SUB SWAP1 REVERT JUMPDEST PUSH2 0x7B DUP2 PUSH2 0xAC JUMP JUMPDEST POP POP PUSH1 0x1 DUP1 SLOAD PUSH1 0x1 PUSH1 0x1 PUSH1 0xA0 SHL SUB SWAP1 SWAP3 AND PUSH1 0x1 PUSH1 0x1 PUSH1 0xA0 SHL SUB NOT SWAP3 DUP4 AND DUP2 OR SWAP1 SWAP2 SSTORE PUSH1 0x2 DUP1 SLOAD SWAP1 SWAP3 AND OR SWAP1 SSTORE PUSH2 0x14B JUMP JUMPDEST PUSH1 0x0 DUP1 SLOAD PUSH1 0x1 PUSH1 0x1 PUSH1 0xA0 SHL SUB DUP4 DUP2 AND PUSH1 0x1 PUSH1 0x1 PUSH1 0xA0 SHL SUB NOT DUP4 AND DUP2 OR DUP5 SSTORE PUSH1 0x40 MLOAD SWAP2 SWAP1 SWAP3 AND SWAP3 DUP4 SWAP2 PUSH32 0x8BE0079C531659141344CD1FD0A4F28419497F9722A3DAAFE3B4186F6B6457E0 SWAP2 SWAP1 LOG3 POP POP JUMP JUMPDEST DUP1 MLOAD PUSH1 0x1 PUSH1 0x1 PUSH1 0xA0 SHL SUB DUP2 AND DUP2 EQ PUSH2 0x113 JUMPI PUSH1 0x0 DUP1 REVERT JUMPDEST SWAP2 SWAP1 POP JUMP JUMPDEST PUSH1 0x0 DUP1 PUSH1 0x40 DUP4 DUP6 SUB SLT ISZERO PUSH2 0x12B JUMPI PUSH1 0x0 DUP1 REVERT JUMPDEST PUSH2 0x134 DUP4 PUSH2 0xFC JUMP JUMPDEST SWAP2 POP PUSH2 0x142 PUSH1 0x20 DUP5 ADD PUSH2 0xFC JUMP JUMPDEST SWAP1 POP SWAP3 POP SWAP3 SWAP1 POP JUMP JUMPDEST PUSH2 0x740 DUP1 PUSH2 0x15A PUSH1 0x0 CODECOPY PUSH1 0x0 RETURN INVALID PUSH1 0x80 PUSH1 0x40 MSTORE CALLVALUE DUP1 ISZERO PUSH2 0x10 JUMPI PUSH1 0x0 DUP1 REVERT JUMPDEST POP PUSH1 0x4 CALLDATASIZE LT PUSH2 0x88 JUMPI PUSH1 0x0 CALLDATALOAD PUSH1 0xE0 SHR DUP1 PUSH4 0xEFCA2EED GT PUSH2 0x5B JUMPI DUP1 PUSH4 0xEFCA2EED EQ PUSH2 0xDC JUMPI DUP1 PUSH4 0xF25ADDF5 EQ PUSH2 0xF3 JUMPI DUP1 PUSH4 0xF2FDE38B EQ PUSH2 0x106 JUMPI DUP1 PUSH4 0xFC0C546A EQ PUSH2 0x119 JUMPI PUSH1 0x0 DUP1 REVERT JUMPDEST DUP1 PUSH4 0x715018A6 EQ PUSH2 0x8D JUMPI DUP1 PUSH4 0x853828B6 EQ PUSH2 0x97 JUMPI DUP1 PUSH4 0x8DA5CB5B EQ PUSH2 0x9F JUMPI DUP1 PUSH4 0x9D76EA58 EQ PUSH2 0xC9 JUMPI JUMPDEST PUSH1 0x0 DUP1 REVERT JUMPDEST PUSH2 0x95 PUSH2 0x12C JUMP JUMPDEST STOP JUMPDEST PUSH2 0x95 PUSH2 0x140 JUMP JUMPDEST PUSH1 0x0 SLOAD PUSH1 0x1 PUSH1 0x1 PUSH1 0xA0 SHL SUB AND JUMPDEST PUSH1 0x40 MLOAD PUSH1 0x1 PUSH1 0x1 PUSH1 0xA0 SHL SUB SWAP1 SWAP2 AND DUP2 MSTORE PUSH1 0x20 ADD JUMPDEST PUSH1 0x40 MLOAD DUP1 SWAP2 SUB SWAP1 RETURN JUMPDEST PUSH1 0x2 SLOAD PUSH2 0xAC SWAP1 PUSH1 0x1 PUSH1 0x1 PUSH1 0xA0 SHL SUB AND DUP2 JUMP JUMPDEST PUSH2 0xE5 PUSH1 0x4 SLOAD DUP2 JUMP JUMPDEST PUSH1 0x40 MLOAD SWAP1 DUP2 MSTORE PUSH1 0x20 ADD PUSH2 0xC0 JUMP JUMPDEST PUSH2 0x95 PUSH2 0x101 CALLDATASIZE PUSH1 0x4 PUSH2 0x568 JUMP JUMPDEST PUSH2 0x230 JUMP JUMPDEST PUSH2 0x95 PUSH2 0x114 CALLDATASIZE PUSH1 0x4 PUSH2 0x62D JUMP JUMPDEST PUSH2 0x47E JUMP JUMPDEST PUSH1 0x1 SLOAD PUSH2 0xAC SWAP1 PUSH1 0x1 PUSH1 0x1 PUSH1 0xA0 SHL SUB AND DUP2 JUMP JUMPDEST PUSH2 0x134 PUSH2 0x4B9 JUMP JUMPDEST PUSH2 0x13E PUSH1 0x0 PUSH2 0x4E6 JUMP JUMPDEST JUMP JUMPDEST PUSH2 0x148 PUSH2 0x4B9 JUMP JUMPDEST PUSH1 0x1 SLOAD PUSH1 0x40 MLOAD PUSH4 0x70A08231 PUSH1 0xE0 SHL DUP2 MSTORE ADDRESS PUSH1 0x4 DUP3 ADD MSTORE PUSH1 0x1 PUSH1 0x1 PUSH1 0xA0 SHL SUB SWAP1 SWAP2 AND SWAP1 PUSH4 0xA9059CBB SWAP1 CALLER SWAP1 DUP4 SWAP1 PUSH4 0x70A08231 SWAP1 PUSH1 0x24 ADD PUSH1 0x20 PUSH1 0x40 MLOAD DUP1 DUP4 SUB DUP2 DUP7 GAS STATICCALL ISZERO DUP1 ISZERO PUSH2 0x19A JUMPI RETURNDATASIZE PUSH1 0x0 DUP1 RETURNDATACOPY RETURNDATASIZE PUSH1 0x0 REVERT JUMPDEST POP POP POP POP PUSH1 0x40 MLOAD RETURNDATASIZE PUSH1 0x1F NOT PUSH1 0x1F DUP3 ADD AND DUP3 ADD DUP1 PUSH1 0x40 MSTORE POP DUP2 ADD SWAP1 PUSH2 0x1BE SWAP2 SWAP1 PUSH2 0x64F JUMP JUMPDEST PUSH1 0x40 MLOAD PUSH1 0x1 PUSH1 0x1 PUSH1 0xE0 SHL SUB NOT PUSH1 0xE0 DUP6 SWAP1 SHL AND DUP2 MSTORE PUSH1 0x1 PUSH1 0x1 PUSH1 0xA0 SHL SUB SWAP1 SWAP3 AND PUSH1 0x4 DUP4 ADD MSTORE PUSH1 0x24 DUP3 ADD MSTORE PUSH1 0x44 ADD PUSH1 0x20 PUSH1 0x40 MLOAD DUP1 DUP4 SUB DUP2 PUSH1 0x0 DUP8 GAS CALL ISZERO DUP1 ISZERO PUSH2 0x209 JUMPI RETURNDATASIZE PUSH1 0x0 DUP1 RETURNDATACOPY RETURNDATASIZE PUSH1 0x0 REVERT JUMPDEST POP POP POP POP PUSH1 0x40 MLOAD RETURNDATASIZE PUSH1 0x1F NOT PUSH1 0x1F DUP3 ADD AND DUP3 ADD DUP1 PUSH1 0x40 MSTORE POP DUP2 ADD SWAP1 PUSH2 0x22D SWAP2 SWAP1 PUSH2 0x668 JUMP JUMPDEST POP JUMP JUMPDEST PUSH1 0x2 SLOAD PUSH1 0x1 PUSH1 0x1 PUSH1 0xA0 SHL SUB AND CALLER EQ PUSH2 0x2A2 JUMPI PUSH1 0x40 MLOAD PUSH3 0x461BCD PUSH1 0xE5 SHL DUP2 MSTORE PUSH1 0x20 PUSH1 0x4 DUP3 ADD MSTORE PUSH1 0x2A PUSH1 0x24 DUP3 ADD MSTORE PUSH32 0x4F6E6C7920746F6B656E20636F6E74726163742063616E2063616C6C20746869 PUSH1 0x44 DUP3 ADD MSTORE PUSH10 0x3990333AB731BA34B7B7 PUSH1 0xB1 SHL PUSH1 0x64 DUP3 ADD MSTORE PUSH1 0x84 ADD JUMPDEST PUSH1 0x40 MLOAD DUP1 SWAP2 SUB SWAP1 REVERT JUMPDEST PUSH1 0x3 SLOAD PUSH1 0x1 SLOAD PUSH1 0x40 MLOAD PUSH4 0x70A08231 PUSH1 0xE0 SHL DUP2 MSTORE ADDRESS PUSH1 0x4 DUP3 ADD MSTORE PUSH1 0x0 SWAP3 SWAP2 PUSH1 0x1 PUSH1 0x1 PUSH1 0xA0 SHL SUB AND SWAP1 PUSH4 0x70A08231 SWAP1 PUSH1 0x24 ADD PUSH1 0x20 PUSH1 0x40 MLOAD DUP1 DUP4 SUB DUP2 DUP7 GAS STATICCALL ISZERO DUP1 ISZERO PUSH2 0x2EF JUMPI RETURNDATASIZE PUSH1 0x0 DUP1 RETURNDATACOPY RETURNDATASIZE PUSH1 0x0 REVERT JUMPDEST POP POP POP POP PUSH1 0x40 MLOAD RETURNDATASIZE PUSH1 0x1F NOT PUSH1 0x1F DUP3 ADD AND DUP3 ADD DUP1 PUSH1 0x40 MSTORE POP DUP2 ADD SWAP1 PUSH2 0x313 SWAP2 SWAP1 PUSH2 0x64F JUMP JUMPDEST GT PUSH2 0x389 JUMPI PUSH1 0x1 SLOAD PUSH1 0x40 MLOAD PUSH4 0x70A08231 PUSH1 0xE0 SHL DUP2 MSTORE ADDRESS PUSH1 0x4 DUP3 ADD MSTORE PUSH1 0x1 PUSH1 0x1 PUSH1 0xA0 SHL SUB SWAP1 SWAP2 AND SWAP1 PUSH4 0x70A08231 SWAP1 PUSH1 0x24 ADD PUSH1 0x20 PUSH1 0x40 MLOAD DUP1 DUP4 SUB DUP2 DUP7 GAS STATICCALL ISZERO DUP1 ISZERO PUSH2 0x360 JUMPI RETURNDATASIZE PUSH1 0x0 DUP1 RETURNDATACOPY RETURNDATASIZE PUSH1 0x0 REVERT JUMPDEST POP POP POP POP PUSH1 0x40 MLOAD RETURNDATASIZE PUSH1 0x1F NOT PUSH1 0x1F DUP3 ADD AND DUP3 ADD DUP1 PUSH1 0x40 MSTORE POP DUP2 ADD SWAP1 PUSH2 0x384 SWAP2 SWAP1 PUSH2 0x64F JUMP JUMPDEST PUSH2 0x38D JUMP JUMPDEST PUSH1 0x3 SLOAD JUMPDEST SWAP1 POP DUP1 PUSH1 0x4 PUSH1 0x0 DUP3 DUP3 SLOAD PUSH2 0x3A1 SWAP2 SWAP1 PUSH2 0x6A0 JUMP JUMPDEST SWAP1 SWAP2 SSTORE POP POP DUP1 ISZERO PUSH2 0x47A JUMPI PUSH1 0x0 JUMPDEST DUP3 MLOAD DUP2 LT ISZERO PUSH2 0x478 JUMPI PUSH1 0x1 SLOAD DUP4 MLOAD PUSH1 0x1 PUSH1 0x1 PUSH1 0xA0 SHL SUB SWAP1 SWAP2 AND SWAP1 PUSH4 0xA9059CBB SWAP1 DUP6 SWAP1 DUP5 SWAP1 DUP2 LT PUSH2 0x3E1 JUMPI PUSH2 0x3E1 PUSH2 0x6B9 JUMP JUMPDEST PUSH1 0x20 MUL PUSH1 0x20 ADD ADD MLOAD DUP6 MLOAD DUP6 PUSH2 0x3F6 SWAP2 SWAP1 PUSH2 0x6CF JUMP JUMPDEST PUSH1 0x40 MLOAD PUSH1 0x1 PUSH1 0x1 PUSH1 0xE0 SHL SUB NOT PUSH1 0xE0 DUP6 SWAP1 SHL AND DUP2 MSTORE PUSH1 0x1 PUSH1 0x1 PUSH1 0xA0 SHL SUB SWAP1 SWAP3 AND PUSH1 0x4 DUP4 ADD MSTORE PUSH1 0x24 DUP3 ADD MSTORE PUSH1 0x44 ADD PUSH1 0x20 PUSH1 0x40 MLOAD DUP1 DUP4 SUB DUP2 PUSH1 0x0 DUP8 GAS CALL ISZERO DUP1 ISZERO PUSH2 0x441 JUMPI RETURNDATASIZE PUSH1 0x0 DUP1 RETURNDATACOPY RETURNDATASIZE PUSH1 0x0 REVERT JUMPDEST POP POP POP POP PUSH1 0x40 MLOAD RETURNDATASIZE PUSH1 0x1F NOT PUSH1 0x1F DUP3 ADD AND DUP3 ADD DUP1 PUSH1 0x40 MSTORE POP DUP2 ADD SWAP1 PUSH2 0x465 SWAP2 SWAP1 PUSH2 0x668 JUMP JUMPDEST POP DUP1 PUSH2 0x470 DUP2 PUSH2 0x6F1 JUMP JUMPDEST SWAP2 POP POP PUSH2 0x3AF JUMP JUMPDEST POP JUMPDEST POP POP JUMP JUMPDEST PUSH2 0x486 PUSH2 0x4B9 JUMP JUMPDEST PUSH1 0x1 PUSH1 0x1 PUSH1 0xA0 SHL SUB DUP2 AND PUSH2 0x4B0 JUMPI PUSH1 0x40 MLOAD PUSH4 0x1E4FBDF7 PUSH1 0xE0 SHL DUP2 MSTORE PUSH1 0x0 PUSH1 0x4 DUP3 ADD MSTORE PUSH1 0x24 ADD PUSH2 0x299 JUMP JUMPDEST PUSH2 0x22D DUP2 PUSH2 0x4E6 JUMP JUMPDEST PUSH1 0x0 SLOAD PUSH1 0x1 PUSH1 0x1 PUSH1 0xA0 SHL SUB AND CALLER EQ PUSH2 0x13E JUMPI PUSH1 0x40 MLOAD PUSH4 0x118CDAA7 PUSH1 0xE0 SHL DUP2 MSTORE CALLER PUSH1 0x4 DUP3 ADD MSTORE PUSH1 0x24 ADD PUSH2 0x299 JUMP JUMPDEST PUSH1 0x0 DUP1 SLOAD PUSH1 0x1 PUSH1 0x1 PUSH1 0xA0 SHL SUB DUP4 DUP2 AND PUSH1 0x1 PUSH1 0x1 PUSH1 0xA0 SHL SUB NOT DUP4 AND DUP2 OR DUP5 SSTORE PUSH1 0x40 MLOAD SWAP2 SWAP1 SWAP3 AND SWAP3 DUP4 SWAP2 PUSH32 0x8BE0079C531659141344CD1FD0A4F28419497F9722A3DAAFE3B4186F6B6457E0 SWAP2 SWAP1 LOG3 POP POP JUMP JUMPDEST PUSH4 0x4E487B71 PUSH1 0xE0 SHL PUSH1 0x0 MSTORE PUSH1 0x41 PUSH1 0x4 MSTORE PUSH1 0x24 PUSH1 0x0 REVERT JUMPDEST DUP1 CALLDATALOAD PUSH1 0x1 PUSH1 0x1 PUSH1 0xA0 SHL SUB DUP2 AND DUP2 EQ PUSH2 0x563 JUMPI PUSH1 0x0 DUP1 REVERT JUMPDEST SWAP2 SWAP1 POP JUMP JUMPDEST PUSH1 0x0 PUSH1 0x20 DUP1 DUP4 DUP6 SUB SLT ISZERO PUSH2 0x57B JUMPI PUSH1 0x0 DUP1 REVERT JUMPDEST DUP3 CALLDATALOAD PUSH8 0xFFFFFFFFFFFFFFFF DUP1 DUP3 GT ISZERO PUSH2 0x593 JUMPI PUSH1 0x0 DUP1 REVERT JUMPDEST DUP2 DUP6 ADD SWAP2 POP DUP6 PUSH1 0x1F DUP4 ADD SLT PUSH2 0x5A7 JUMPI PUSH1 0x0 DUP1 REVERT JUMPDEST DUP2 CALLDATALOAD DUP2 DUP2 GT ISZERO PUSH2 0x5B9 JUMPI PUSH2 0x5B9 PUSH2 0x536 JUMP JUMPDEST DUP1 PUSH1 0x5 SHL PUSH1 0x40 MLOAD PUSH1 0x1F NOT PUSH1 0x3F DUP4 ADD AND DUP2 ADD DUP2 DUP2 LT DUP6 DUP3 GT OR ISZERO PUSH2 0x5DE JUMPI PUSH2 0x5DE PUSH2 0x536 JUMP JUMPDEST PUSH1 0x40 MSTORE SWAP2 DUP3 MSTORE DUP5 DUP3 ADD SWAP3 POP DUP4 DUP2 ADD DUP6 ADD SWAP2 DUP9 DUP4 GT ISZERO PUSH2 0x5FC JUMPI PUSH1 0x0 DUP1 REVERT JUMPDEST SWAP4 DUP6 ADD SWAP4 JUMPDEST DUP3 DUP6 LT ISZERO PUSH2 0x621 JUMPI PUSH2 0x612 DUP6 PUSH2 0x54C JUMP JUMPDEST DUP5 MSTORE SWAP4 DUP6 ADD SWAP4 SWAP3 DUP6 ADD SWAP3 PUSH2 0x601 JUMP JUMPDEST SWAP9 SWAP8 POP POP POP POP POP POP POP POP JUMP JUMPDEST PUSH1 0x0 PUSH1 0x20 DUP3 DUP5 SUB SLT ISZERO PUSH2 0x63F JUMPI PUSH1 0x0 DUP1 REVERT JUMPDEST PUSH2 0x648 DUP3 PUSH2 0x54C JUMP JUMPDEST SWAP4 SWAP3 POP POP POP JUMP JUMPDEST PUSH1 0x0 PUSH1 0x20 DUP3 DUP5 SUB SLT ISZERO PUSH2 0x661 JUMPI PUSH1 0x0 DUP1 REVERT JUMPDEST POP MLOAD SWAP2 SWAP1 POP JUMP JUMPDEST PUSH1 0x0 PUSH1 0x20 DUP3 DUP5 SUB SLT ISZERO PUSH2 0x67A JUMPI PUSH1 0x0 DUP1 REVERT JUMPDEST DUP2 MLOAD DUP1 ISZERO ISZERO DUP2 EQ PUSH2 0x648 JUMPI PUSH1 0x0 DUP1 REVERT JUMPDEST PUSH4 0x4E487B71 PUSH1 0xE0 SHL PUSH1 0x0 MSTORE PUSH1 0x11 PUSH1 0x4 MSTORE PUSH1 0x24 PUSH1 0x0 REVERT JUMPDEST DUP1 DUP3 ADD DUP1 DUP3 GT ISZERO PUSH2 0x6B3 JUMPI PUSH2 0x6B3 PUSH2 0x68A JUMP JUMPDEST SWAP3 SWAP2 POP POP JUMP JUMPDEST PUSH4 0x4E487B71 PUSH1 0xE0 SHL PUSH1 0x0 MSTORE PUSH1 0x32 PUSH1 0x4 MSTORE PUSH1 0x24 PUSH1 0x0 REVERT JUMPDEST PUSH1 0x0 DUP3 PUSH2 0x6EC JUMPI PUSH4 0x4E487B71 PUSH1 0xE0 SHL PUSH1 0x0 MSTORE PUSH1 0x12 PUSH1 0x4 MSTORE PUSH1 0x24 PUSH1 0x0 REVERT JUMPDEST POP DIV SWAP1 JUMP JUMPDEST PUSH1 0x0 PUSH1 0x1 DUP3 ADD PUSH2 0x703 JUMPI PUSH2 0x703 PUSH2 0x68A JUMP JUMPDEST POP PUSH1 0x1 ADD SWAP1 JUMP INVALID LOG2 PUSH5 0x6970667358 0x22 SLT KECCAK256 PUSH12 0x527E644D8C38E6CFF6F7F273 0x21 PUSH13 0xE647251A24EE1560183363F1BF DUP4 DUP5 DUP8 PUSH6 0x64736F6C6343 STOP ADDMOD EQ STOP CALLER "},"methodIdentifiers":{"ADMIN_ROLE()":"75b238fc","DEFAULT_ADMIN_ROLE()":"a217fddf","MarketingWallet()":"2598cdb2","allowance(address,address)":"dd62ed3e","amountOfAllInfection()":"c3ec8897","amountOfInfection(address)":"0f44e894","approve(address,uint256)":"095ea7b3","approveMax(address)":"571ac8b0","balanceOf(address)":"70a08231","buyCapsule()":"d3a9ffc4","capsuleCount()":"05dc0394","capsuleCurrentCount()":"1bd8ebe1","capsulePrice()":"5bc04469","claim()":"4e71d92d","decimals()":"313ce567","endGame()":"6cbc2ded","epochId()":"aa9bbc0c","epochs(uint256)":"c6b61e4c","getBestInfectors()":"c26d68f9","getGotLuckyVaccine()":"6789c92c","getHasOpenedCapsule(address)":"02b2553e","getHasUpgrade(address)":"014c58a3","getIsBuyer(address)":"fd6e28cf","getRequestFullfilled(address)":"1781e17c","getRoleAdmin(bytes32)":"248a9ca3","grantRole(bytes32,address)":"2f2ff15d","hasRole(bytes32,address)":"91d14854","infect(address)":"96eb64a9","infectOG(address[])":"f5415cbb","infected(address)":"636ee0db","infecter(address)":"3eca5343","initializePair()":"4fab9e4c","isGameOver()":"0e04a7d8","isGameStarted()":"c315432a","isTradingEnabled()":"064a59d0","lastRequestId()":"fc2a88c3","name()":"06fdde03","openCapsule(address)":"007f27ae","owner()":"8da5cb5b","pair()":"a8aa1b31","pendingRewards(address)":"31d7a262","rawFulfillRandomWords(uint256,uint256[])":"1fe543e3","renounceOwnership()":"715018a6","renounceRole(bytes32,address)":"36568abe","requestIds(uint256)":"8796ba8c","revokeRole(bytes32,address)":"d547741f","router()":"f887ea40","setCapsulePrice(uint256)":"1299d7f7","setFeesWallet(address)":"43d4f92b","setIsFeeExempt(address,bool)":"658d4b7f","setIsTradingEnabled()":"1ce78ac8","setIsWalletLimitExempt(address,bool)":"2198cf6c","setMaxWallet()":"d02c6394","setProbabilityMaxRange(uint256)":"fd39ef78","setSpecialVaccineSupply(uint256)":"f25c7ea4","setSwapBackSettings(bool,uint256)":"df20fd49","setSwapPair(address)":"73a432bb","startNewEpoch()":"3aab0a62","supportsInterface(bytes4)":"01ffc9a7","swapEnabled()":"6ddd1713","symbol()":"95d89b41","totalAllRewards()":"5119c971","totalRewards(address)":"ab7573dd","totalSupply()":"18160ddd","transfer(address,uint256)":"a9059cbb","transferFrom(address,address,uint256)":"23b872dd","transferOwnership(address)":"f2fde38b","upgradeVaccine()":"196228c0","userCurrentVaccine(address)":"54d41b5b","userHasBoughtVaccine(address)":"8c5799ce","vaccineFourSupply()":"4726319f","vault()":"fbfa77cf"}}}}}