{
  "_format": "hh-sol-artifact-1",
  "contractName": "RewardPool",
  "sourceName": "contracts/RewardPool.sol",
  "abi": [
    {
      "inputs": [
        {
          "internalType": "address",
          "name": "_token",
          "type": "address"
        }
      ],
      "stateMutability": "nonpayable",
      "type": "constructor"
    },
    {
      "anonymous": false,
      "inputs": [
        {
          "indexed": true,
          "internalType": "address",
          "name": "previousOwner",
          "type": "address"
        },
        {
          "indexed": true,
          "internalType": "address",
          "name": "newOwner",
          "type": "address"
        }
      ],
      "name": "OwnershipTransferred",
      "type": "event"
    },
    {
      "inputs": [
        {
          "internalType": "address[]",
          "name": "holders",
          "type": "address[]"
        }
      ],
      "name": "distributeShares",
      "outputs": [],
      "stateMutability": "nonpayable",
      "type": "function"
    },
    {
      "inputs": [],
      "name": "owner",
      "outputs": [
        {
          "internalType": "address",
          "name": "",
          "type": "address"
        }
      ],
      "stateMutability": "view",
      "type": "function"
    },
    {
      "inputs": [],
      "name": "renounceOwnership",
      "outputs": [],
      "stateMutability": "nonpayable",
      "type": "function"
    },
    {
      "inputs": [],
      "name": "token",
      "outputs": [
        {
          "internalType": "contract IERC20",
          "name": "",
          "type": "address"
        }
      ],
      "stateMutability": "view",
      "type": "function"
    },
    {
      "inputs": [],
      "name": "tokenAddress",
      "outputs": [
        {
          "internalType": "address",
          "name": "",
          "type": "address"
        }
      ],
      "stateMutability": "view",
      "type": "function"
    },
    {
      "inputs": [
        {
          "internalType": "address",
          "name": "newOwner",
          "type": "address"
        }
      ],
      "name": "transferOwnership",
      "outputs": [],
      "stateMutability": "nonpayable",
      "type": "function"
    },
    {
      "inputs": [],
      "name": "withdrawAll",
      "outputs": [],
      "stateMutability": "nonpayable",
      "type": "function"
    }
  ],
  "bytecode": "0x608060405234801561001057600080fd5b506040516107c53803806107c583398101604081905261002f916100b7565b61003833610067565b600180546001600160a01b039092166001600160a01b03199283168117909155600280549092161790556100e7565b600080546001600160a01b038381166001600160a01b0319831681178455604051919092169283917f8be0079c531659141344cd1fd0a4f28419497f9722a3daafe3b4186f6b6457e09190a35050565b6000602082840312156100c957600080fd5b81516001600160a01b03811681146100e057600080fd5b9392505050565b6106cf806100f66000396000f3fe608060405234801561001057600080fd5b506004361061007d5760003560e01c80639d76ea581161005b5780639d76ea58146100bd578063f25addf5146100d0578063f2fde38b146100e3578063fc0c546a146100f657600080fd5b8063715018a614610082578063853828b61461008c5780638da5cb5b14610094575b600080fd5b61008a610109565b005b61008a61011d565b6000546001600160a01b03165b6040516001600160a01b03909116815260200160405180910390f35b6002546100a1906001600160a01b031681565b61008a6100de366004610518565b61020d565b61008a6100f13660046105dd565b6103c6565b6001546100a1906001600160a01b031681565b61011161043c565b61011b6000610496565b565b61012561043c565b6001546040516370a0823160e01b81523060048201526001600160a01b039091169063a9059cbb90339083906370a0823190602401602060405180830381865afa158015610177573d6000803e3d6000fd5b505050506040513d601f19601f8201168201806040525081019061019b91906105ff565b6040516001600160e01b031960e085901b1681526001600160a01b03909216600483015260248201526044016020604051808303816000875af11580156101e6573d6000803e3d6000fd5b505050506040513d601f19601f8201168201806040525081019061020a9190610618565b50565b6002546001600160a01b0316331461027f5760405162461bcd60e51b815260206004820152602a60248201527f4f6e6c7920746f6b656e20636f6e74726163742063616e2063616c6c207468696044820152693990333ab731ba34b7b760b11b60648201526084015b60405180910390fd5b6001546040516370a0823160e01b81523060048201526000916001600160a01b0316906370a0823190602401602060405180830381865afa1580156102c8573d6000803e3d6000fd5b505050506040513d601f19601f820116820180604052508101906102ec91906105ff565b905080156103c25760005b82518110156103c05760015483516001600160a01b039091169063a9059cbb908590849081106103295761032961063a565b602002602001015185518561033e9190610650565b6040516001600160e01b031960e085901b1681526001600160a01b03909216600483015260248201526044016020604051808303816000875af1158015610389573d6000803e3d6000fd5b505050506040513d601f19601f820116820180604052508101906103ad9190610618565b50806103b881610672565b9150506102f7565b505b5050565b6103ce61043c565b6001600160a01b0381166104335760405162461bcd60e51b815260206004820152602660248201527f4f776e61626c653a206e6577206f776e657220697320746865207a65726f206160448201526564647265737360d01b6064820152608401610276565b61020a81610496565b6000546001600160a01b0316331461011b5760405162461bcd60e51b815260206004820181905260248201527f4f776e61626c653a2063616c6c6572206973206e6f7420746865206f776e65726044820152606401610276565b600080546001600160a01b038381166001600160a01b0319831681178455604051919092169283917f8be0079c531659141344cd1fd0a4f28419497f9722a3daafe3b4186f6b6457e09190a35050565b634e487b7160e01b600052604160045260246000fd5b80356001600160a01b038116811461051357600080fd5b919050565b6000602080838503121561052b57600080fd5b823567ffffffffffffffff8082111561054357600080fd5b818501915085601f83011261055757600080fd5b813581811115610569576105696104e6565b8060051b604051601f19603f8301168101818110858211171561058e5761058e6104e6565b6040529182528482019250838101850191888311156105ac57600080fd5b938501935b828510156105d1576105c2856104fc565b845293850193928501926105b1565b98975050505050505050565b6000602082840312156105ef57600080fd5b6105f8826104fc565b9392505050565b60006020828403121561061157600080fd5b5051919050565b60006020828403121561062a57600080fd5b815180151581146105f857600080fd5b634e487b7160e01b600052603260045260246000fd5b60008261066d57634e487b7160e01b600052601260045260246000fd5b500490565b60006001820161069257634e487b7160e01b600052601160045260246000fd5b506001019056fea26469706673582212207dc82d851ba85261adbaa7eb47d57ae891dbe3dbc59ef5b5e4d9114163cb8f7b64736f6c63430008140033",
  "linkReferences": {},
  "deployedLinkReferences": {}
}