{
  "_format": "hh-sol-artifact-1",
  "contractName": "RewardPool",
  "sourceName": "contracts/RewardPool.sol",
  "abi": [
    {
      "inputs": [
        {
          "internalType": "address",
          "name": "_token",
          "type": "address"
        }
      ],
      "stateMutability": "nonpayable",
      "type": "constructor"
    },
    {
      "anonymous": false,
      "inputs": [
        {
          "indexed": true,
          "internalType": "address",
          "name": "previousOwner",
          "type": "address"
        },
        {
          "indexed": true,
          "internalType": "address",
          "name": "newOwner",
          "type": "address"
        }
      ],
      "name": "OwnershipTransferred",
      "type": "event"
    },
    {
      "inputs": [
        {
          "internalType": "address[]",
          "name": "holders",
          "type": "address[]"
        }
      ],
      "name": "distributeShares",
      "outputs": [],
      "stateMutability": "nonpayable",
      "type": "function"
    },
    {
      "inputs": [],
      "name": "owner",
      "outputs": [
        {
          "internalType": "address",
          "name": "",
          "type": "address"
        }
      ],
      "stateMutability": "view",
      "type": "function"
    },
    {
      "inputs": [],
      "name": "renounceOwnership",
      "outputs": [],
      "stateMutability": "nonpayable",
      "type": "function"
    },
    {
      "inputs": [],
      "name": "token",
      "outputs": [
        {
          "internalType": "contract IERC20",
          "name": "",
          "type": "address"
        }
      ],
      "stateMutability": "view",
      "type": "function"
    },
    {
      "inputs": [],
      "name": "tokenAddress",
      "outputs": [
        {
          "internalType": "address",
          "name": "",
          "type": "address"
        }
      ],
      "stateMutability": "view",
      "type": "function"
    },
    {
      "inputs": [],
      "name": "totalDistributed",
      "outputs": [
        {
          "internalType": "uint256",
          "name": "",
          "type": "uint256"
        }
      ],
      "stateMutability": "view",
      "type": "function"
    },
    {
      "inputs": [
        {
          "internalType": "address",
          "name": "newOwner",
          "type": "address"
        }
      ],
      "name": "transferOwnership",
      "outputs": [],
      "stateMutability": "nonpayable",
      "type": "function"
    },
    {
      "inputs": [],
      "name": "withdrawAll",
      "outputs": [],
      "stateMutability": "nonpayable",
      "type": "function"
    }
  ],
  "bytecode": "0x60806040526103e86019600160009054906101000a900473ffffffffffffffffffffffffffffffffffffffff1673ffffffffffffffffffffffffffffffffffffffff166318160ddd6040518163ffffffff1660e01b8152600401602060405180830381865afa15801562000077573d6000803e3d6000fd5b505050506040513d601f19601f820116820180604052508101906200009d9190620002a5565b620000a9919062000306565b620000b5919062000380565b6003556000600455348015620000ca57600080fd5b506040516200134d3803806200134d8339818101604052810190620000f091906200041d565b62000110620001046200019960201b60201c565b620001a160201b60201c565b80600160006101000a81548173ffffffffffffffffffffffffffffffffffffffff021916908373ffffffffffffffffffffffffffffffffffffffff16021790555080600260006101000a81548173ffffffffffffffffffffffffffffffffffffffff021916908373ffffffffffffffffffffffffffffffffffffffff160217905550506200044f565b600033905090565b60008060009054906101000a900473ffffffffffffffffffffffffffffffffffffffff169050816000806101000a81548173ffffffffffffffffffffffffffffffffffffffff021916908373ffffffffffffffffffffffffffffffffffffffff1602179055508173ffffffffffffffffffffffffffffffffffffffff168173ffffffffffffffffffffffffffffffffffffffff167f8be0079c531659141344cd1fd0a4f28419497f9722a3daafe3b4186f6b6457e060405160405180910390a35050565b600080fd5b6000819050919050565b6200027f816200026a565b81146200028b57600080fd5b50565b6000815190506200029f8162000274565b92915050565b600060208284031215620002be57620002bd62000265565b5b6000620002ce848285016200028e565b91505092915050565b7f4e487b7100000000000000000000000000000000000000000000000000000000600052601160045260246000fd5b600062000313826200026a565b915062000320836200026a565b925082820262000330816200026a565b915082820484148315176200034a5762000349620002d7565b5b5092915050565b7f4e487b7100000000000000000000000000000000000000000000000000000000600052601260045260246000fd5b60006200038d826200026a565b91506200039a836200026a565b925082620003ad57620003ac62000351565b5b828204905092915050565b600073ffffffffffffffffffffffffffffffffffffffff82169050919050565b6000620003e582620003b8565b9050919050565b620003f781620003d8565b81146200040357600080fd5b50565b6000815190506200041781620003ec565b92915050565b60006020828403121562000436576200043562000265565b5b6000620004468482850162000406565b91505092915050565b610eee806200045f6000396000f3fe608060405234801561001057600080fd5b50600436106100885760003560e01c8063efca2eed1161005b578063efca2eed146100dd578063f25addf5146100fb578063f2fde38b14610117578063fc0c546a1461013357610088565b8063715018a61461008d578063853828b6146100975780638da5cb5b146100a15780639d76ea58146100bf575b600080fd5b610095610151565b005b61009f610165565b005b6100a96102ab565b6040516100b6919061081e565b60405180910390f35b6100c76102d4565b6040516100d4919061081e565b60405180910390f35b6100e56102fa565b6040516100f29190610852565b60405180910390f35b61011560048036038101906101109190610a06565b610300565b005b610131600480360381019061012c9190610a4f565b6105ea565b005b61013b61066d565b6040516101489190610adb565b60405180910390f35b610159610693565b6101636000610711565b565b61016d610693565b600160009054906101000a900473ffffffffffffffffffffffffffffffffffffffff1673ffffffffffffffffffffffffffffffffffffffff1663a9059cbb33600160009054906101000a900473ffffffffffffffffffffffffffffffffffffffff1673ffffffffffffffffffffffffffffffffffffffff166370a08231306040518263ffffffff1660e01b8152600401610207919061081e565b602060405180830381865afa158015610224573d6000803e3d6000fd5b505050506040513d601f19601f820116820180604052508101906102489190610b22565b6040518363ffffffff1660e01b8152600401610265929190610b4f565b6020604051808303816000875af1158015610284573d6000803e3d6000fd5b505050506040513d601f19601f820116820180604052508101906102a89190610bb0565b50565b60008060009054906101000a900473ffffffffffffffffffffffffffffffffffffffff16905090565b600260009054906101000a900473ffffffffffffffffffffffffffffffffffffffff1681565b60045481565b600260009054906101000a900473ffffffffffffffffffffffffffffffffffffffff1673ffffffffffffffffffffffffffffffffffffffff163373ffffffffffffffffffffffffffffffffffffffff1614610390576040517f08c379a000000000000000000000000000000000000000000000000000000000815260040161038790610c60565b60405180910390fd5b6000600354600160009054906101000a900473ffffffffffffffffffffffffffffffffffffffff1673ffffffffffffffffffffffffffffffffffffffff166370a08231306040518263ffffffff1660e01b81526004016103f0919061081e565b602060405180830381865afa15801561040d573d6000803e3d6000fd5b505050506040513d601f19601f820116820180604052508101906104319190610b22565b116104d757600160009054906101000a900473ffffffffffffffffffffffffffffffffffffffff1673ffffffffffffffffffffffffffffffffffffffff166370a08231306040518263ffffffff1660e01b8152600401610491919061081e565b602060405180830381865afa1580156104ae573d6000803e3d6000fd5b505050506040513d601f19601f820116820180604052508101906104d29190610b22565b6104db565b6003545b905080600460008282546104ef9190610caf565b92505081905550600081146105e65760005b82518110156105e457600160009054906101000a900473ffffffffffffffffffffffffffffffffffffffff1673ffffffffffffffffffffffffffffffffffffffff1663a9059cbb84838151811061055b5761055a610ce3565b5b60200260200101518551856105709190610d41565b6040518363ffffffff1660e01b815260040161058d929190610b4f565b6020604051808303816000875af11580156105ac573d6000803e3d6000fd5b505050506040513d601f19601f820116820180604052508101906105d09190610bb0565b5080806105dc90610d72565b915050610501565b505b5050565b6105f2610693565b600073ffffffffffffffffffffffffffffffffffffffff168173ffffffffffffffffffffffffffffffffffffffff1603610661576040517f08c379a000000000000000000000000000000000000000000000000000000000815260040161065890610e2c565b60405180910390fd5b61066a81610711565b50565b600160009054906101000a900473ffffffffffffffffffffffffffffffffffffffff1681565b61069b6107d5565b73ffffffffffffffffffffffffffffffffffffffff166106b96102ab565b73ffffffffffffffffffffffffffffffffffffffff161461070f576040517f08c379a000000000000000000000000000000000000000000000000000000000815260040161070690610e98565b60405180910390fd5b565b60008060009054906101000a900473ffffffffffffffffffffffffffffffffffffffff169050816000806101000a81548173ffffffffffffffffffffffffffffffffffffffff021916908373ffffffffffffffffffffffffffffffffffffffff1602179055508173ffffffffffffffffffffffffffffffffffffffff168173ffffffffffffffffffffffffffffffffffffffff167f8be0079c531659141344cd1fd0a4f28419497f9722a3daafe3b4186f6b6457e060405160405180910390a35050565b600033905090565b600073ffffffffffffffffffffffffffffffffffffffff82169050919050565b6000610808826107dd565b9050919050565b610818816107fd565b82525050565b6000602082019050610833600083018461080f565b92915050565b6000819050919050565b61084c81610839565b82525050565b60006020820190506108676000830184610843565b92915050565b6000604051905090565b600080fd5b600080fd5b600080fd5b6000601f19601f8301169050919050565b7f4e487b7100000000000000000000000000000000000000000000000000000000600052604160045260246000fd5b6108cf82610886565b810181811067ffffffffffffffff821117156108ee576108ed610897565b5b80604052505050565b600061090161086d565b905061090d82826108c6565b919050565b600067ffffffffffffffff82111561092d5761092c610897565b5b602082029050602081019050919050565b600080fd5b61094c816107fd565b811461095757600080fd5b50565b60008135905061096981610943565b92915050565b600061098261097d84610912565b6108f7565b905080838252602082019050602084028301858111156109a5576109a461093e565b5b835b818110156109ce57806109ba888261095a565b8452602084019350506020810190506109a7565b5050509392505050565b600082601f8301126109ed576109ec610881565b5b81356109fd84826020860161096f565b91505092915050565b600060208284031215610a1c57610a1b610877565b5b600082013567ffffffffffffffff811115610a3a57610a3961087c565b5b610a46848285016109d8565b91505092915050565b600060208284031215610a6557610a64610877565b5b6000610a738482850161095a565b91505092915050565b6000819050919050565b6000610aa1610a9c610a97846107dd565b610a7c565b6107dd565b9050919050565b6000610ab382610a86565b9050919050565b6000610ac582610aa8565b9050919050565b610ad581610aba565b82525050565b6000602082019050610af06000830184610acc565b92915050565b610aff81610839565b8114610b0a57600080fd5b50565b600081519050610b1c81610af6565b92915050565b600060208284031215610b3857610b37610877565b5b6000610b4684828501610b0d565b91505092915050565b6000604082019050610b64600083018561080f565b610b716020830184610843565b9392505050565b60008115159050919050565b610b8d81610b78565b8114610b9857600080fd5b50565b600081519050610baa81610b84565b92915050565b600060208284031215610bc657610bc5610877565b5b6000610bd484828501610b9b565b91505092915050565b600082825260208201905092915050565b7f4f6e6c7920746f6b656e20636f6e74726163742063616e2063616c6c2074686960008201527f732066756e6374696f6e00000000000000000000000000000000000000000000602082015250565b6000610c4a602a83610bdd565b9150610c5582610bee565b604082019050919050565b60006020820190508181036000830152610c7981610c3d565b9050919050565b7f4e487b7100000000000000000000000000000000000000000000000000000000600052601160045260246000fd5b6000610cba82610839565b9150610cc583610839565b9250828201905080821115610cdd57610cdc610c80565b5b92915050565b7f4e487b7100000000000000000000000000000000000000000000000000000000600052603260045260246000fd5b7f4e487b7100000000000000000000000000000000000000000000000000000000600052601260045260246000fd5b6000610d4c82610839565b9150610d5783610839565b925082610d6757610d66610d12565b5b828204905092915050565b6000610d7d82610839565b91507fffffffffffffffffffffffffffffffffffffffffffffffffffffffffffffffff8203610daf57610dae610c80565b5b600182019050919050565b7f4f776e61626c653a206e6577206f776e657220697320746865207a65726f206160008201527f6464726573730000000000000000000000000000000000000000000000000000602082015250565b6000610e16602683610bdd565b9150610e2182610dba565b604082019050919050565b60006020820190508181036000830152610e4581610e09565b9050919050565b7f4f776e61626c653a2063616c6c6572206973206e6f7420746865206f776e6572600082015250565b6000610e82602083610bdd565b9150610e8d82610e4c565b602082019050919050565b60006020820190508181036000830152610eb181610e75565b905091905056fea26469706673582212202b60765d4dd1eea65e6388a0c672cbe9eb93aba747bcd6ee35dd5ef6d90ad85364736f6c63430008140033",
  "linkReferences": {},
  "deployedLinkReferences": {}
}