{
  "_format": "hh-sol-artifact-1",
  "contractName": "BLI",
  "sourceName": "contracts/BLIArbi.sol",
  "abi": [
    {
      "inputs": [
        {
          "internalType": "address",
          "name": "initialOwner",
          "type": "address"
        }
      ],
      "stateMutability": "nonpayable",
      "type": "constructor"
    },
    {
      "inputs": [],
      "name": "AccessControlBadConfirmation",
      "type": "error"
    },
    {
      "inputs": [
        {
          "internalType": "address",
          "name": "account",
          "type": "address"
        },
        {
          "internalType": "bytes32",
          "name": "neededRole",
          "type": "bytes32"
        }
      ],
      "name": "AccessControlUnauthorizedAccount",
      "type": "error"
    },
    {
      "inputs": [
        {
          "internalType": "address",
          "name": "have",
          "type": "address"
        },
        {
          "internalType": "address",
          "name": "want",
          "type": "address"
        }
      ],
      "name": "OnlyCoordinatorCanFulfill",
      "type": "error"
    },
    {
      "inputs": [
        {
          "internalType": "address",
          "name": "owner",
          "type": "address"
        }
      ],
      "name": "OwnableInvalidOwner",
      "type": "error"
    },
    {
      "inputs": [
        {
          "internalType": "address",
          "name": "account",
          "type": "address"
        }
      ],
      "name": "OwnableUnauthorizedAccount",
      "type": "error"
    },
    {
      "anonymous": false,
      "inputs": [
        {
          "indexed": true,
          "internalType": "address",
          "name": "owner",
          "type": "address"
        },
        {
          "indexed": true,
          "internalType": "address",
          "name": "spender",
          "type": "address"
        },
        {
          "indexed": false,
          "internalType": "uint256",
          "name": "value",
          "type": "uint256"
        }
      ],
      "name": "Approval",
      "type": "event"
    },
    {
      "anonymous": false,
      "inputs": [
        {
          "indexed": false,
          "internalType": "uint256",
          "name": "amountETH",
          "type": "uint256"
        },
        {
          "indexed": false,
          "internalType": "uint256",
          "name": "amountBOG",
          "type": "uint256"
        }
      ],
      "name": "AutoLiquify",
      "type": "event"
    },
    {
      "anonymous": false,
      "inputs": [
        {
          "indexed": true,
          "internalType": "address",
          "name": "user",
          "type": "address"
        },
        {
          "indexed": false,
          "internalType": "uint256",
          "name": "id",
          "type": "uint256"
        }
      ],
      "name": "CapsuleBought",
      "type": "event"
    },
    {
      "anonymous": false,
      "inputs": [
        {
          "indexed": true,
          "internalType": "address",
          "name": "user",
          "type": "address"
        },
        {
          "indexed": false,
          "internalType": "uint256",
          "name": "vaccine",
          "type": "uint256"
        },
        {
          "indexed": false,
          "internalType": "bool",
          "name": "vaccine4",
          "type": "bool"
        }
      ],
      "name": "CapsuleOpened",
      "type": "event"
    },
    {
      "anonymous": false,
      "inputs": [
        {
          "indexed": false,
          "internalType": "uint256",
          "name": "epochId",
          "type": "uint256"
        }
      ],
      "name": "NewEpochStarted",
      "type": "event"
    },
    {
      "anonymous": false,
      "inputs": [
        {
          "indexed": true,
          "internalType": "address",
          "name": "previousOwner",
          "type": "address"
        },
        {
          "indexed": true,
          "internalType": "address",
          "name": "newOwner",
          "type": "address"
        }
      ],
      "name": "OwnershipTransferred",
      "type": "event"
    },
    {
      "anonymous": false,
      "inputs": [
        {
          "indexed": false,
          "internalType": "uint256",
          "name": "requestId",
          "type": "uint256"
        },
        {
          "indexed": false,
          "internalType": "uint256[]",
          "name": "randomWords",
          "type": "uint256[]"
        }
      ],
      "name": "RequestFulfilled",
      "type": "event"
    },
    {
      "anonymous": false,
      "inputs": [
        {
          "indexed": false,
          "internalType": "uint256",
          "name": "requestId",
          "type": "uint256"
        },
        {
          "indexed": false,
          "internalType": "uint32",
          "name": "numWords",
          "type": "uint32"
        }
      ],
      "name": "RequestSent",
      "type": "event"
    },
    {
      "anonymous": false,
      "inputs": [
        {
          "indexed": true,
          "internalType": "bytes32",
          "name": "role",
          "type": "bytes32"
        },
        {
          "indexed": true,
          "internalType": "bytes32",
          "name": "previousAdminRole",
          "type": "bytes32"
        },
        {
          "indexed": true,
          "internalType": "bytes32",
          "name": "newAdminRole",
          "type": "bytes32"
        }
      ],
      "name": "RoleAdminChanged",
      "type": "event"
    },
    {
      "anonymous": false,
      "inputs": [
        {
          "indexed": true,
          "internalType": "bytes32",
          "name": "role",
          "type": "bytes32"
        },
        {
          "indexed": true,
          "internalType": "address",
          "name": "account",
          "type": "address"
        },
        {
          "indexed": true,
          "internalType": "address",
          "name": "sender",
          "type": "address"
        }
      ],
      "name": "RoleGranted",
      "type": "event"
    },
    {
      "anonymous": false,
      "inputs": [
        {
          "indexed": true,
          "internalType": "bytes32",
          "name": "role",
          "type": "bytes32"
        },
        {
          "indexed": true,
          "internalType": "address",
          "name": "account",
          "type": "address"
        },
        {
          "indexed": true,
          "internalType": "address",
          "name": "sender",
          "type": "address"
        }
      ],
      "name": "RoleRevoked",
      "type": "event"
    },
    {
      "anonymous": false,
      "inputs": [
        {
          "indexed": true,
          "internalType": "address",
          "name": "from",
          "type": "address"
        },
        {
          "indexed": true,
          "internalType": "address",
          "name": "to",
          "type": "address"
        },
        {
          "indexed": false,
          "internalType": "uint256",
          "name": "value",
          "type": "uint256"
        }
      ],
      "name": "Transfer",
      "type": "event"
    },
    {
      "anonymous": false,
      "inputs": [
        {
          "indexed": true,
          "internalType": "address",
          "name": "user",
          "type": "address"
        },
        {
          "indexed": false,
          "internalType": "uint256",
          "name": "amount",
          "type": "uint256"
        }
      ],
      "name": "_claim",
      "type": "event"
    },
    {
      "inputs": [],
      "name": "ADMIN_ROLE",
      "outputs": [
        {
          "internalType": "bytes32",
          "name": "",
          "type": "bytes32"
        }
      ],
      "stateMutability": "view",
      "type": "function"
    },
    {
      "inputs": [],
      "name": "DEFAULT_ADMIN_ROLE",
      "outputs": [
        {
          "internalType": "bytes32",
          "name": "",
          "type": "bytes32"
        }
      ],
      "stateMutability": "view",
      "type": "function"
    },
    {
      "inputs": [],
      "name": "MarketingWallet",
      "outputs": [
        {
          "internalType": "address",
          "name": "",
          "type": "address"
        }
      ],
      "stateMutability": "view",
      "type": "function"
    },
    {
      "inputs": [
        {
          "internalType": "address",
          "name": "holder",
          "type": "address"
        },
        {
          "internalType": "address",
          "name": "spender",
          "type": "address"
        }
      ],
      "name": "allowance",
      "outputs": [
        {
          "internalType": "uint256",
          "name": "",
          "type": "uint256"
        }
      ],
      "stateMutability": "view",
      "type": "function"
    },
    {
      "inputs": [],
      "name": "amountOfAllInfection",
      "outputs": [
        {
          "internalType": "uint256",
          "name": "",
          "type": "uint256"
        }
      ],
      "stateMutability": "view",
      "type": "function"
    },
    {
      "inputs": [
        {
          "internalType": "address",
          "name": "",
          "type": "address"
        }
      ],
      "name": "amountOfInfection",
      "outputs": [
        {
          "internalType": "uint256",
          "name": "",
          "type": "uint256"
        }
      ],
      "stateMutability": "view",
      "type": "function"
    },
    {
      "inputs": [
        {
          "internalType": "address",
          "name": "spender",
          "type": "address"
        },
        {
          "internalType": "uint256",
          "name": "amount",
          "type": "uint256"
        }
      ],
      "name": "approve",
      "outputs": [
        {
          "internalType": "bool",
          "name": "",
          "type": "bool"
        }
      ],
      "stateMutability": "nonpayable",
      "type": "function"
    },
    {
      "inputs": [
        {
          "internalType": "address",
          "name": "spender",
          "type": "address"
        }
      ],
      "name": "approveMax",
      "outputs": [
        {
          "internalType": "bool",
          "name": "",
          "type": "bool"
        }
      ],
      "stateMutability": "nonpayable",
      "type": "function"
    },
    {
      "inputs": [
        {
          "internalType": "address",
          "name": "account",
          "type": "address"
        }
      ],
      "name": "balanceOf",
      "outputs": [
        {
          "internalType": "uint256",
          "name": "",
          "type": "uint256"
        }
      ],
      "stateMutability": "view",
      "type": "function"
    },
    {
      "inputs": [],
      "name": "buyCapsule",
      "outputs": [],
      "stateMutability": "nonpayable",
      "type": "function"
    },
    {
      "inputs": [],
      "name": "capsuleCount",
      "outputs": [
        {
          "internalType": "uint256",
          "name": "",
          "type": "uint256"
        }
      ],
      "stateMutability": "view",
      "type": "function"
    },
    {
      "inputs": [],
      "name": "capsuleCurrentCount",
      "outputs": [
        {
          "internalType": "uint256",
          "name": "",
          "type": "uint256"
        }
      ],
      "stateMutability": "view",
      "type": "function"
    },
    {
      "inputs": [],
      "name": "capsulePrice",
      "outputs": [
        {
          "internalType": "uint256",
          "name": "",
          "type": "uint256"
        }
      ],
      "stateMutability": "view",
      "type": "function"
    },
    {
      "inputs": [],
      "name": "claim",
      "outputs": [],
      "stateMutability": "nonpayable",
      "type": "function"
    },
    {
      "inputs": [],
      "name": "decimals",
      "outputs": [
        {
          "internalType": "uint8",
          "name": "",
          "type": "uint8"
        }
      ],
      "stateMutability": "pure",
      "type": "function"
    },
    {
      "inputs": [],
      "name": "endGame",
      "outputs": [],
      "stateMutability": "nonpayable",
      "type": "function"
    },
    {
      "inputs": [],
      "name": "epochId",
      "outputs": [
        {
          "internalType": "uint256",
          "name": "",
          "type": "uint256"
        }
      ],
      "stateMutability": "view",
      "type": "function"
    },
    {
      "inputs": [
        {
          "internalType": "uint256",
          "name": "",
          "type": "uint256"
        }
      ],
      "name": "epochs",
      "outputs": [
        {
          "internalType": "uint256",
          "name": "id",
          "type": "uint256"
        },
        {
          "internalType": "uint256",
          "name": "startTime",
          "type": "uint256"
        },
        {
          "internalType": "uint256",
          "name": "endTime",
          "type": "uint256"
        }
      ],
      "stateMutability": "view",
      "type": "function"
    },
    {
      "inputs": [],
      "name": "getBestInfectors",
      "outputs": [
        {
          "internalType": "address[5]",
          "name": "",
          "type": "address[5]"
        }
      ],
      "stateMutability": "view",
      "type": "function"
    },
    {
      "inputs": [],
      "name": "getGotLuckyVaccine",
      "outputs": [
        {
          "internalType": "address[]",
          "name": "",
          "type": "address[]"
        }
      ],
      "stateMutability": "view",
      "type": "function"
    },
    {
      "inputs": [
        {
          "internalType": "address",
          "name": "user",
          "type": "address"
        }
      ],
      "name": "getHasOpenedCapsule",
      "outputs": [
        {
          "internalType": "bool",
          "name": "",
          "type": "bool"
        }
      ],
      "stateMutability": "view",
      "type": "function"
    },
    {
      "inputs": [
        {
          "internalType": "address",
          "name": "user",
          "type": "address"
        }
      ],
      "name": "getHasUpgrade",
      "outputs": [
        {
          "internalType": "bool",
          "name": "",
          "type": "bool"
        }
      ],
      "stateMutability": "view",
      "type": "function"
    },
    {
      "inputs": [
        {
          "internalType": "address",
          "name": "user",
          "type": "address"
        }
      ],
      "name": "getIsBuyer",
      "outputs": [
        {
          "internalType": "bool",
          "name": "",
          "type": "bool"
        }
      ],
      "stateMutability": "view",
      "type": "function"
    },
    {
      "inputs": [
        {
          "internalType": "address",
          "name": "user",
          "type": "address"
        }
      ],
      "name": "getRequestFullfilled",
      "outputs": [
        {
          "internalType": "bool",
          "name": "",
          "type": "bool"
        }
      ],
      "stateMutability": "view",
      "type": "function"
    },
    {
      "inputs": [
        {
          "internalType": "bytes32",
          "name": "role",
          "type": "bytes32"
        }
      ],
      "name": "getRoleAdmin",
      "outputs": [
        {
          "internalType": "bytes32",
          "name": "",
          "type": "bytes32"
        }
      ],
      "stateMutability": "view",
      "type": "function"
    },
    {
      "inputs": [
        {
          "internalType": "bytes32",
          "name": "role",
          "type": "bytes32"
        },
        {
          "internalType": "address",
          "name": "account",
          "type": "address"
        }
      ],
      "name": "grantRole",
      "outputs": [],
      "stateMutability": "nonpayable",
      "type": "function"
    },
    {
      "inputs": [
        {
          "internalType": "bytes32",
          "name": "role",
          "type": "bytes32"
        },
        {
          "internalType": "address",
          "name": "account",
          "type": "address"
        }
      ],
      "name": "hasRole",
      "outputs": [
        {
          "internalType": "bool",
          "name": "",
          "type": "bool"
        }
      ],
      "stateMutability": "view",
      "type": "function"
    },
    {
      "inputs": [
        {
          "internalType": "address",
          "name": "_toInfect",
          "type": "address"
        }
      ],
      "name": "infect",
      "outputs": [],
      "stateMutability": "nonpayable",
      "type": "function"
    },
    {
      "inputs": [
        {
          "internalType": "address[]",
          "name": "_toInfect",
          "type": "address[]"
        }
      ],
      "name": "infectOG",
      "outputs": [],
      "stateMutability": "nonpayable",
      "type": "function"
    },
    {
      "inputs": [
        {
          "internalType": "address",
          "name": "",
          "type": "address"
        }
      ],
      "name": "infected",
      "outputs": [
        {
          "internalType": "bool",
          "name": "",
          "type": "bool"
        }
      ],
      "stateMutability": "view",
      "type": "function"
    },
    {
      "inputs": [
        {
          "internalType": "address",
          "name": "",
          "type": "address"
        }
      ],
      "name": "infecter",
      "outputs": [
        {
          "internalType": "address",
          "name": "",
          "type": "address"
        }
      ],
      "stateMutability": "view",
      "type": "function"
    },
    {
      "inputs": [],
      "name": "initializePair",
      "outputs": [],
      "stateMutability": "nonpayable",
      "type": "function"
    },
    {
      "inputs": [],
      "name": "isGameOver",
      "outputs": [
        {
          "internalType": "bool",
          "name": "",
          "type": "bool"
        }
      ],
      "stateMutability": "view",
      "type": "function"
    },
    {
      "inputs": [],
      "name": "isGameStarted",
      "outputs": [
        {
          "internalType": "bool",
          "name": "",
          "type": "bool"
        }
      ],
      "stateMutability": "view",
      "type": "function"
    },
    {
      "inputs": [],
      "name": "isTradingEnabled",
      "outputs": [
        {
          "internalType": "bool",
          "name": "",
          "type": "bool"
        }
      ],
      "stateMutability": "view",
      "type": "function"
    },
    {
      "inputs": [],
      "name": "lastRequestId",
      "outputs": [
        {
          "internalType": "uint256",
          "name": "",
          "type": "uint256"
        }
      ],
      "stateMutability": "view",
      "type": "function"
    },
    {
      "inputs": [],
      "name": "name",
      "outputs": [
        {
          "internalType": "string",
          "name": "",
          "type": "string"
        }
      ],
      "stateMutability": "view",
      "type": "function"
    },
    {
      "inputs": [
        {
          "internalType": "address",
          "name": "user",
          "type": "address"
        }
      ],
      "name": "openCapsule",
      "outputs": [],
      "stateMutability": "nonpayable",
      "type": "function"
    },
    {
      "inputs": [],
      "name": "owner",
      "outputs": [
        {
          "internalType": "address",
          "name": "",
          "type": "address"
        }
      ],
      "stateMutability": "view",
      "type": "function"
    },
    {
      "inputs": [],
      "name": "pair",
      "outputs": [
        {
          "internalType": "address",
          "name": "",
          "type": "address"
        }
      ],
      "stateMutability": "view",
      "type": "function"
    },
    {
      "inputs": [
        {
          "internalType": "address",
          "name": "",
          "type": "address"
        }
      ],
      "name": "pendingRewards",
      "outputs": [
        {
          "internalType": "uint256",
          "name": "",
          "type": "uint256"
        }
      ],
      "stateMutability": "view",
      "type": "function"
    },
    {
      "inputs": [
        {
          "internalType": "uint256",
          "name": "requestId",
          "type": "uint256"
        },
        {
          "internalType": "uint256[]",
          "name": "randomWords",
          "type": "uint256[]"
        }
      ],
      "name": "rawFulfillRandomWords",
      "outputs": [],
      "stateMutability": "nonpayable",
      "type": "function"
    },
    {
      "inputs": [],
      "name": "renounceOwnership",
      "outputs": [],
      "stateMutability": "nonpayable",
      "type": "function"
    },
    {
      "inputs": [
        {
          "internalType": "bytes32",
          "name": "role",
          "type": "bytes32"
        },
        {
          "internalType": "address",
          "name": "callerConfirmation",
          "type": "address"
        }
      ],
      "name": "renounceRole",
      "outputs": [],
      "stateMutability": "nonpayable",
      "type": "function"
    },
    {
      "inputs": [
        {
          "internalType": "uint256",
          "name": "",
          "type": "uint256"
        }
      ],
      "name": "requestIds",
      "outputs": [
        {
          "internalType": "uint256",
          "name": "",
          "type": "uint256"
        }
      ],
      "stateMutability": "view",
      "type": "function"
    },
    {
      "inputs": [
        {
          "internalType": "bytes32",
          "name": "role",
          "type": "bytes32"
        },
        {
          "internalType": "address",
          "name": "account",
          "type": "address"
        }
      ],
      "name": "revokeRole",
      "outputs": [],
      "stateMutability": "nonpayable",
      "type": "function"
    },
    {
      "inputs": [],
      "name": "router",
      "outputs": [
        {
          "internalType": "contract ICamelotRouter",
          "name": "",
          "type": "address"
        }
      ],
      "stateMutability": "view",
      "type": "function"
    },
    {
      "inputs": [
        {
          "internalType": "uint256",
          "name": "_price",
          "type": "uint256"
        }
      ],
      "name": "setCapsulePrice",
      "outputs": [],
      "stateMutability": "nonpayable",
      "type": "function"
    },
    {
      "inputs": [
        {
          "internalType": "address",
          "name": "_MarketingWallet",
          "type": "address"
        }
      ],
      "name": "setFeesWallet",
      "outputs": [],
      "stateMutability": "nonpayable",
      "type": "function"
    },
    {
      "inputs": [
        {
          "internalType": "address",
          "name": "holder",
          "type": "address"
        },
        {
          "internalType": "bool",
          "name": "exempt",
          "type": "bool"
        }
      ],
      "name": "setIsFeeExempt",
      "outputs": [],
      "stateMutability": "nonpayable",
      "type": "function"
    },
    {
      "inputs": [],
      "name": "setIsTradingEnabled",
      "outputs": [],
      "stateMutability": "nonpayable",
      "type": "function"
    },
    {
      "inputs": [
        {
          "internalType": "address",
          "name": "holder",
          "type": "address"
        },
        {
          "internalType": "bool",
          "name": "exempt",
          "type": "bool"
        }
      ],
      "name": "setIsWalletLimitExempt",
      "outputs": [],
      "stateMutability": "nonpayable",
      "type": "function"
    },
    {
      "inputs": [
        {
          "internalType": "bytes32",
          "name": "_keyHash",
          "type": "bytes32"
        }
      ],
      "name": "setKeyHash",
      "outputs": [],
      "stateMutability": "nonpayable",
      "type": "function"
    },
    {
      "inputs": [],
      "name": "setMaxWallet",
      "outputs": [],
      "stateMutability": "nonpayable",
      "type": "function"
    },
    {
      "inputs": [
        {
          "internalType": "uint256",
          "name": "_range",
          "type": "uint256"
        }
      ],
      "name": "setProbabilityMaxRange",
      "outputs": [],
      "stateMutability": "nonpayable",
      "type": "function"
    },
    {
      "inputs": [
        {
          "internalType": "uint256",
          "name": "_amount",
          "type": "uint256"
        }
      ],
      "name": "setSpecialVaccineSupply",
      "outputs": [],
      "stateMutability": "nonpayable",
      "type": "function"
    },
    {
      "inputs": [
        {
          "internalType": "bool",
          "name": "_enabled",
          "type": "bool"
        },
        {
          "internalType": "uint256",
          "name": "_amount",
          "type": "uint256"
        }
      ],
      "name": "setSwapBackSettings",
      "outputs": [],
      "stateMutability": "nonpayable",
      "type": "function"
    },
    {
      "inputs": [
        {
          "internalType": "address",
          "name": "pairaddr",
          "type": "address"
        }
      ],
      "name": "setSwapPair",
      "outputs": [],
      "stateMutability": "nonpayable",
      "type": "function"
    },
    {
      "inputs": [],
      "name": "startNewEpoch",
      "outputs": [],
      "stateMutability": "nonpayable",
      "type": "function"
    },
    {
      "inputs": [
        {
          "internalType": "bytes4",
          "name": "interfaceId",
          "type": "bytes4"
        }
      ],
      "name": "supportsInterface",
      "outputs": [
        {
          "internalType": "bool",
          "name": "",
          "type": "bool"
        }
      ],
      "stateMutability": "view",
      "type": "function"
    },
    {
      "inputs": [],
      "name": "swapEnabled",
      "outputs": [
        {
          "internalType": "bool",
          "name": "",
          "type": "bool"
        }
      ],
      "stateMutability": "view",
      "type": "function"
    },
    {
      "inputs": [],
      "name": "symbol",
      "outputs": [
        {
          "internalType": "string",
          "name": "",
          "type": "string"
        }
      ],
      "stateMutability": "view",
      "type": "function"
    },
    {
      "inputs": [],
      "name": "totalAllRewards",
      "outputs": [
        {
          "internalType": "uint256",
          "name": "",
          "type": "uint256"
        }
      ],
      "stateMutability": "view",
      "type": "function"
    },
    {
      "inputs": [
        {
          "internalType": "address",
          "name": "",
          "type": "address"
        }
      ],
      "name": "totalRewards",
      "outputs": [
        {
          "internalType": "uint256",
          "name": "",
          "type": "uint256"
        }
      ],
      "stateMutability": "view",
      "type": "function"
    },
    {
      "inputs": [],
      "name": "totalSupply",
      "outputs": [
        {
          "internalType": "uint256",
          "name": "",
          "type": "uint256"
        }
      ],
      "stateMutability": "view",
      "type": "function"
    },
    {
      "inputs": [
        {
          "internalType": "address",
          "name": "recipient",
          "type": "address"
        },
        {
          "internalType": "uint256",
          "name": "amount",
          "type": "uint256"
        }
      ],
      "name": "transfer",
      "outputs": [
        {
          "internalType": "bool",
          "name": "",
          "type": "bool"
        }
      ],
      "stateMutability": "nonpayable",
      "type": "function"
    },
    {
      "inputs": [
        {
          "internalType": "address",
          "name": "sender",
          "type": "address"
        },
        {
          "internalType": "address",
          "name": "recipient",
          "type": "address"
        },
        {
          "internalType": "uint256",
          "name": "amount",
          "type": "uint256"
        }
      ],
      "name": "transferFrom",
      "outputs": [
        {
          "internalType": "bool",
          "name": "",
          "type": "bool"
        }
      ],
      "stateMutability": "nonpayable",
      "type": "function"
    },
    {
      "inputs": [
        {
          "internalType": "address",
          "name": "newOwner",
          "type": "address"
        }
      ],
      "name": "transferOwnership",
      "outputs": [],
      "stateMutability": "nonpayable",
      "type": "function"
    },
    {
      "inputs": [],
      "name": "upgradeVaccine",
      "outputs": [],
      "stateMutability": "nonpayable",
      "type": "function"
    },
    {
      "inputs": [
        {
          "internalType": "address",
          "name": "",
          "type": "address"
        }
      ],
      "name": "userCurrentVaccine",
      "outputs": [
        {
          "internalType": "uint256",
          "name": "",
          "type": "uint256"
        }
      ],
      "stateMutability": "view",
      "type": "function"
    },
    {
      "inputs": [
        {
          "internalType": "address",
          "name": "",
          "type": "address"
        }
      ],
      "name": "userHasBoughtVaccine",
      "outputs": [
        {
          "internalType": "bool",
          "name": "",
          "type": "bool"
        }
      ],
      "stateMutability": "view",
      "type": "function"
    },
    {
      "inputs": [],
      "name": "vaccineFourSupply",
      "outputs": [
        {
          "internalType": "uint256",
          "name": "",
          "type": "uint256"
        }
      ],
      "stateMutability": "view",
      "type": "function"
    },
    {
      "inputs": [],
      "name": "vault",
      "outputs": [
        {
          "internalType": "contract Vault",
          "name": "",
          "type": "address"
        }
      ],
      "stateMutability": "view",
      "type": "function"
    },
    {
      "stateMutability": "payable",
      "type": "receive"
    }
  ],
  "bytecode": "0x60e0604052600e60a09081526d109b1a59da1d08141c9bda9958dd60921b60c0526002906200002f908262000775565b5060408051808201909152600380825262424c4960e81b60208301529062000058908262000775565b50620000676012600a62000954565b6200007790633b9aca006200096c565b60045569d3c21bcecceda10000006005556103e8600454600a6200009c91906200096c565b620000a8919062000986565b600655600554620000bc906102586200096c565b600b5560c8600c55600554620000d5906103846200096c565b600d5561012c600e5560108054733e98da13e184ea1467639bf642f804144539694d6001600160a01b031991821617909155601180547341034678d6c633d8a95c75e1138a360a28ba15d19216919091179055601280546001600160e01b031916746d41034678d6c633d8a95c75e1138a360a28ba15d11790557f08ba8f62ff6c40a58877a106147661db43bc58dabfb814793847a839aa03367f601555601680546001600160501b03191666010002000186a01790556019805461ffff60a01b19169055600454620001ac906103e89062000986565b620001b99060036200096c565b601a5560646022556000602655600060285560006029556934f086f3b33b68400000602a556000602b556000602c556000602d556000602e556000602f55600060305560006031556000603255600a60335560055460e56200021c91906200096c565b603a5560055462000230906101656200096c565b603b5560055462000244906102026200096c565b603c5560055462000258906102bc6200096c565b603d556005546200026c906103926200096c565b603e5560055462000280906104856200096c565b603f556040805461ffff191690553480156200029b57600080fd5b5060405162005d9138038062005d91833981016040819052620002be91620009a9565b6011546001600160a01b039081169082908116620002f657604051631e4fbdf760e01b81526000600482015260240160405180910390fd5b6200030181620005db565b506001600160a01b0316608052601880546001600160a01b03191673c873fecbd354f5a56e00e710b90ef4201db2448d90811790915530600090815260086020908152604080832093835292905290812060001990556200036390826200062b565b50620003907fa49807205ce4d355092ef5a8a18f56e8913cf4a201fbe287825b095693c21775826200062b565b503081604051620003a190620006c2565b6001600160a01b03928316815291166020820152604001604051809103906000f080158015620003d5573d6000803e3d6000fd5b50602180546001600160a01b0319166001600160a01b03928316178155336000818152600960209081526040808320805460ff199081166001908117909255308086528386208054831684179055601080548a1687528487208054841685179055878752600a8652848720805484168517905580548a16875284872080548416851790557f20677881080440a9b3c87e826370bb5d9c2f74efd4dede686d52d77a6a09f8bb805484168517905597548916865283862080548316841790558086528386208054831684179055601980548a16875284872080548416851790557f12d72ea8e76b561437db32297fad751a60be1b76e594c67d9366e4cd38a6621d8054841685179055878752601c8652848720805484168517905597548916865283862080548316841790557fa48bd8e7b1565515cde2859b6cc48308ba05b5325bcf90fb096b9ac0b8087dfc8054831684179055855282852080548216831790559554909616835280832080548616871790557ff79dbced412724f11ac82795a8b72517df4379a1dfd463f61834ebcb1ea973ca80549095169095179093556004549181526007909252918120805490919062000594908490620009d4565b909155505060045460405190815233906000907fddf252ad1be2c89b69c2b068fc378daa952ba7f163c4a11628f55a4df523b3ef9060200160405180910390a350620009ea565b600080546001600160a01b038381166001600160a01b0319831681178455604051919092169283917f8be0079c531659141344cd1fd0a4f28419497f9722a3daafe3b4186f6b6457e09190a35050565b60008281526001602090815260408083206001600160a01b038516845290915281205460ff16620006b85760008381526001602081815260408084206001600160a01b0387168086529252808420805460ff19169093179092559051339286917f2f8788117e7eff1d82e926ec794901d17c78024a50270940304540a733656f0d9190a4506001620006bc565b5060005b92915050565b61089a80620054f783390190565b634e487b7160e01b600052604160045260246000fd5b600181811c90821680620006fb57607f821691505b6020821081036200071c57634e487b7160e01b600052602260045260246000fd5b50919050565b601f8211156200077057600081815260208120601f850160051c810160208610156200074b5750805b601f850160051c820191505b818110156200076c5782815560010162000757565b5050505b505050565b81516001600160401b03811115620007915762000791620006d0565b620007a981620007a28454620006e6565b8462000722565b602080601f831160018114620007e15760008415620007c85750858301515b600019600386901b1c1916600185901b1785556200076c565b600085815260208120601f198616915b828110156200081257888601518255948401946001909101908401620007f1565b5085821015620008315787850151600019600388901b60f8161c191681555b5050505050600190811b01905550565b634e487b7160e01b600052601160045260246000fd5b600181815b80851115620008985781600019048211156200087c576200087c62000841565b808516156200088a57918102915b93841c93908002906200085c565b509250929050565b600082620008b157506001620006bc565b81620008c057506000620006bc565b8160018114620008d95760028114620008e45762000904565b6001915050620006bc565b60ff841115620008f857620008f862000841565b50506001821b620006bc565b5060208310610133831016604e8410600b841016171562000929575081810a620006bc565b62000935838362000857565b80600019048211156200094c576200094c62000841565b029392505050565b60006200096560ff841683620008a0565b9392505050565b8082028115828204841417620006bc57620006bc62000841565b600082620009a457634e487b7160e01b600052601260045260246000fd5b500490565b600060208284031215620009bc57600080fd5b81516001600160a01b03811681146200096557600080fd5b80820180821115620006bc57620006bc62000841565b608051614aea62000a0d6000396000818161166e01526116b00152614aea6000f3fe6080604052600436106104295760003560e01c8063658d4b7f11610229578063aa9bbc0c1161012e578063dd62ed3e116100b6578063f887ea401161007a578063f887ea4014610d7d578063fbfa77cf14610d9d578063fc2a88c314610dbd578063fd39ef7814610dd3578063fd6e28cf14610df357600080fd5b8063dd62ed3e14610cb7578063df20fd4914610cfd578063f25c7ea414610d1d578063f2fde38b14610d3d578063f5415cbb14610d5d57600080fd5b8063c3ec8897116100fd578063c3ec889714610c00578063c6b61e4c14610c16578063d02c639414610c6d578063d3a9ffc414610c82578063d547741f14610c9757600080fd5b8063aa9bbc0c14610b81578063ab7573dd14610b97578063c26d68f914610bc4578063c315432a14610be657600080fd5b80638c5799ce116101b157806396eb64a91161018057806396eb64a914610aec5780639854471014610b0c578063a217fddf14610b2c578063a8aa1b3114610b41578063a9059cbb14610b6157600080fd5b80638c5799ce14610a695780638da5cb5b14610a9957806391d1485414610ab757806395d89b4114610ad757600080fd5b806370a08231116101f857806370a08231146109d2578063715018a6146109f257806373a432bb14610a0757806375b238fc14610a275780638796ba8c14610a4957600080fd5b8063658d4b7f1461095a5780636789c92c1461097a5780636cbc2ded1461099c5780636ddd1713146109b157600080fd5b806323b872dd1161032f57806343d4f92b116102b75780635119c971116102865780635119c971146108b157806354d41b5b146108c7578063571ac8b0146108f45780635bc0446914610914578063636ee0db1461092a57600080fd5b806343d4f92b146108515780634726319f146108715780634e71d92d146108875780634fab9e4c1461089c57600080fd5b8063313ce567116102fe578063313ce5671461079d57806331d7a262146107b957806336568abe146107e65780633aab0a62146108065780633eca53431461081b57600080fd5b806323b872dd146106f4578063248a9ca3146107145780632598cdb2146107455780632f2ff15d1461077d57600080fd5b80630f44e894116103b2578063196228c011610381578063196228c0146106745780631bd8ebe1146106895780631ce78ac81461069f5780631fe543e3146106b45780632198cf6c146106d457600080fd5b80630f44e894146105c85780631299d7f7146105f45780631781e17c1461061457806318160ddd1461065f57600080fd5b806305dc0394116103f957806305dc039414610522578063064a59d01461054657806306fdde0314610567578063095ea7b3146105895780630e04a7d8146105a957600080fd5b80627f27ae14610435578063014c58a31461045757806301ffc9a7146104b757806302b2553e146104d757600080fd5b3661043057005b600080fd5b34801561044157600080fd5b506104556104503660046143e7565b610e3e565b005b34801561046357600080fd5b506104a26104723660046143e7565b60265460009081526027602090815260408083206001600160a01b03909416835260049093019052205460ff1690565b60405190151581526020015b60405180910390f35b3480156104c357600080fd5b506104a26104d2366004614404565b6111b7565b3480156104e357600080fd5b506104a26104f23660046143e7565b60265460009081526027602090815260408083206001600160a01b03909416835260059093019052205460ff1690565b34801561052e57600080fd5b5061053860295481565b6040519081526020016104ae565b34801561055257600080fd5b506019546104a290600160a01b900460ff1681565b34801561057357600080fd5b5061057c6111ee565b6040516104ae919061442e565b34801561059557600080fd5b506104a26105a436600461447c565b611280565b3480156105b557600080fd5b506040546104a290610100900460ff1681565b3480156105d457600080fd5b506105386105e33660046143e7565b602080526000908152604090205481565b34801561060057600080fd5b5061045561060f3660046144a8565b6112ec565b34801561062057600080fd5b506104a261062f3660046143e7565b60265460009081526027602090815260408083206001600160a01b03909416835260089093019052205460ff1690565b34801561066b57600080fd5b50600454610538565b34801561068057600080fd5b5061045561130a565b34801561069557600080fd5b5061053860285481565b3480156106ab57600080fd5b5061045561162d565b3480156106c057600080fd5b506104556106cf36600461452c565b611663565b3480156106e057600080fd5b506104556106ef3660046145e3565b6116e7565b34801561070057600080fd5b506104a261070f366004614618565b61171a565b34801561072057600080fd5b5061053861072f3660046144a8565b6000908152600160208190526040909120015490565b34801561075157600080fd5b50601054610765906001600160a01b031681565b6040516001600160a01b0390911681526020016104ae565b34801561078957600080fd5b50610455610798366004614659565b6117ef565b3480156107a957600080fd5b50604051601281526020016104ae565b3480156107c557600080fd5b506105386107d43660046143e7565b601f6020526000908152604090205481565b3480156107f257600080fd5b50610455610801366004614659565b61181b565b34801561081257600080fd5b50610455611853565b34801561082757600080fd5b506107656108363660046143e7565b601d602052600090815260409020546001600160a01b031681565b34801561085d57600080fd5b5061045561086c3660046143e7565b6118d9565b34801561087d57600080fd5b5061053860335481565b34801561089357600080fd5b5061045561193a565b3480156108a857600080fd5b50610455611b3c565b3480156108bd57600080fd5b5061053860425481565b3480156108d357600080fd5b506105386108e23660046143e7565b60236020526000908152604090205481565b34801561090057600080fd5b506104a261090f3660046143e7565b611c4b565b34801561092057600080fd5b50610538602a5481565b34801561093657600080fd5b506104a26109453660046143e7565b601c6020526000908152604090205460ff1681565b34801561096657600080fd5b506104556109753660046145e3565b611c59565b34801561098657600080fd5b5061098f611c8c565b6040516104ae91906146cd565b3480156109a857600080fd5b50610455611cfb565b3480156109bd57600080fd5b506019546104a290600160a81b900460ff1681565b3480156109de57600080fd5b506105386109ed3660046143e7565b611e58565b3480156109fe57600080fd5b50610455611e73565b348015610a1357600080fd5b50610455610a223660046143e7565b611e85565b348015610a3357600080fd5b50610538600080516020614a9583398151915281565b348015610a5557600080fd5b50610538610a643660046144a8565b611ec7565b348015610a7557600080fd5b506104a2610a843660046143e7565b60246020526000908152604090205460ff1681565b348015610aa557600080fd5b506000546001600160a01b0316610765565b348015610ac357600080fd5b506104a2610ad2366004614659565b611ee8565b348015610ae357600080fd5b5061057c611f13565b348015610af857600080fd5b50610455610b073660046143e7565b611f22565b348015610b1857600080fd5b50610455610b273660046144a8565b6120b3565b348015610b3857600080fd5b50610538600081565b348015610b4d57600080fd5b50601954610765906001600160a01b031681565b348015610b6d57600080fd5b506104a2610b7c36600461447c565b6120d1565b348015610b8d57600080fd5b5061053860265481565b348015610ba357600080fd5b50610538610bb23660046143e7565b601e6020526000908152604090205481565b348015610bd057600080fd5b50610bd9612103565b6040516104ae91906146e0565b348015610bf257600080fd5b506040546104a29060ff1681565b348015610c0c57600080fd5b5061053860435481565b348015610c2257600080fd5b50610c52610c313660046144a8565b60276020526000908152604090208054600182015460029092015490919083565b604080519384526020840192909252908201526060016104ae565b348015610c7957600080fd5b50610455612142565b348015610c8e57600080fd5b50610455612152565b348015610ca357600080fd5b50610455610cb2366004614659565b612516565b348015610cc357600080fd5b50610538610cd236600461471a565b6001600160a01b03918216600090815260086020908152604080832093909416825291909152205490565b348015610d0957600080fd5b50610455610d18366004614748565b61253c565b348015610d2957600080fd5b50610455610d383660046144a8565b6125b7565b348015610d4957600080fd5b50610455610d583660046143e7565b61263b565b348015610d6957600080fd5b50610455610d78366004614764565b612676565b348015610d8957600080fd5b50601854610765906001600160a01b031681565b348015610da957600080fd5b50602154610765906001600160a01b031681565b348015610dc957600080fd5b5061053860145481565b348015610ddf57600080fd5b50610455610dee3660046144a8565b6128d7565b348015610dff57600080fd5b506104a2610e0e3660046143e7565b60265460009081526027602090815260408083206001600160a01b03909416835260039093019052205460ff1690565b6001600160a01b0381163314610e8c5760405162461bcd60e51b815260206004820152600e60248201526d139bdd08185d5d1a1bdc9a5e995960921b60448201526064015b60405180910390fd5b60265460009081526027602090815260408083203384526007019091528120549003610f115760405162461bcd60e51b815260206004820152602e60248201527f596f7520686176656e277420626f7567687420612063617073756c652064757260448201526d0d2dcce40e8d0d2e640cae0dec6d60931b6064820152608401610e83565b602654600090815260276020908152604080832033845260050190915290205460ff1615610f8c5760405162461bcd60e51b815260206004820152602260248201527f596f7527766520616c7265616479206f70656e656420796f75722063617073756044820152616c6560f01b6064820152608401610e83565b602654600090815260276020908152604080832033845260080190915290205460ff1615156001146110105760405162461bcd60e51b815260206004820152602760248201527f596f75722072657175657374206861736e2774206265656e2066756c6c66696c6044820152661b1959081e595d60ca1b6064820152608401610e83565b6026546000908152602760209081526040808320338452600701909152812054611039906128f5565b90506001811015801561104d575060288111155b1561108d57602f805490600061106283614814565b9091555050602b805490600061107783614814565b91905055506110898260016000612a3a565b5050565b6029811015801561109f5750604b8111155b156110db57603080549060006110b483614814565b9091555050602c80549060006110c983614814565b91905055506110898260026000612a3a565b604c81101580156110ed575060618111155b15611129576031805490600061110283614814565b9091555050602d805490600061111783614814565b91905055506110898260036000612a3a565b6062811015801561113c57506022548111155b15611089576032805490600061115183614814565b9091555050602e805490600061116683614814565b909155505060265460009081526027602090815260408220600901805460018082018355918452919092200180546001600160a01b0319166001600160a01b03851617905561108990839080612a3a565b60006001600160e01b03198216637965db0b60e01b14806111e857506301ffc9a760e01b6001600160e01b03198316145b92915050565b6060600280546111fd9061482d565b80601f01602080910402602001604051908101604052809291908181526020018280546112299061482d565b80156112765780601f1061124b57610100808354040283529160200191611276565b820191906000526020600020905b81548152906001019060200180831161125957829003601f168201915b5050505050905090565b3360008181526008602090815260408083206001600160a01b038716808552925280832085905551919290917f8c5be1e5ebec7d5bd14f71427d1e84f3dd0314c0f7b2291e5b200ac8c7c3b925906112db9086815260200190565b60405180910390a350600192915050565b600080516020614a9583398151915261130481612b36565b50602a55565b60006103e8602a546102ee61131f9190614861565b611329919061488e565b602654600090815260276020908152604080832033845260030190915290205490915060ff16156113b85760405162461bcd60e51b815260206004820152603360248201527f596f752068617665206f6e6c79206f6e6520616374696f6e207065722065706f6044820152726368203a20627579206f72207570677261646560681b6064820152608401610e83565b602654600090815260276020908152604080832033845260040190915290205460ff16156114475760405162461bcd60e51b815260206004820152603660248201527f596f7527766520616c726561647920757067726164656420796f7572207661636044820152750c6d2dcca40c8eae4d2dcce40e8d0d2e640cae0dec6d60531b6064820152608401610e83565b33600090815260236020526040902054158015906114745750336000908152602360205260409020546003115b6114cc5760405162461bcd60e51b815260206004820152602360248201527f596f7520646f6e2774206861766520612076616363696e6520746f207570677260448201526261646560e81b6064820152608401610e83565b806114d633611e58565b10156115365760405162461bcd60e51b815260206004820152602960248201527f4e6f7420656e6f75676820746f6b656e7320746f207570677261646520796f75604482015268722076616363696e6560b81b6064820152608401610e83565b60265460009081526027602052604090206002015442106115695760405162461bcd60e51b8152600401610e83906148a2565b604054610100900460ff16156115915760405162461bcd60e51b8152600401610e83906148e6565b60265460009081526027602090815260408083203384526004019091528120805460ff191660011790556103e86115c9836032614861565b6115d3919061488e565b6021549091506000906115fa9033906001600160a01b03166115f5858761490c565b612b40565b9050611607333084612b40565b5033600090815260236020526040812080549161162383614814565b9190505550505050565b611635612be8565b6019805461ffff60a01b191661010160a01b179081905560ff600160a01b909104161561166157426049555b565b336001600160a01b037f000000000000000000000000000000000000000000000000000000000000000016146116dd5760405163073e64fd60e21b81523360048201526001600160a01b037f0000000000000000000000000000000000000000000000000000000000000000166024820152604401610e83565b6110898282612c15565b6116ef612be8565b6001600160a01b03919091166000908152600a60205260409020805460ff1916911515919091179055565b6001600160a01b038316600090815260086020908152604080832033845290915281205482111561179e5760405162461bcd60e51b815260206004820152602860248201527f45524332303a207472616e7366657220616d6f756e74206578636565647320616044820152676c6c6f77616e636560c01b6064820152608401610e83565b6117a9848484612d1b565b506001600160a01b0384166000908152600860209081526040808320338085529252909120546117e59186916117e090869061490c565b61311a565b5060019392505050565b6000828152600160208190526040909120015461180b81612b36565b611815838361323e565b50505050565b6001600160a01b03811633146118445760405163334bd91960e11b815260040160405180910390fd5b61184e82826132b7565b505050565b600080516020614a9583398151915261186b81612b36565b604054610100900460ff16156118935760405162461bcd60e51b8152600401610e83906148e6565b61189b613324565b7fa7ef457c4bdaa5cf9805314ebb0d85316230de6508df8ba03db8e27901cc147d6026546040516118ce91815260200190565b60405180910390a150565b6118e1612be8565b601080546001600160a01b0319166001600160a01b0392831690811782556000908152600960209081526040808320805460ff19908116600190811790925594549095168352600a909152902080549091169091179055565b3332146119715760405162461bcd60e51b815260206004820152600560248201526432b93937b960d91b6044820152606401610e83565b336000908152601f60205260409020546119c25760405162461bcd60e51b81526020600482015260126024820152716e6f2070656e64696e67207265776172647360701b6044820152606401610e83565b336000908152601f6020908152604082208054908390556001835260279091527fb6915e519d5f9dd23c62986e48578ddfa8cde5c92608222904fd87ad04df4fff54909190421015611a34576064611a1b836019614861565b611a25919061488e565b9050611a31818361490c565b91505b8015611a5457602154611a529030906001600160a01b031683612b40565b505b6000611a61303385612b40565b905080611aa25760405162461bcd60e51b815260206004820152600f60248201526e1d1c985b9cd9995c8819985a5b1959608a1b6044820152606401610e83565b336000908152601e602052604081208054859290611ac190849061491f565b925050819055508260426000828254611ada919061491f565b925050819055508260416000828254611af3919061490c565b90915550611b0190506134fc565b60405183815233907f620fc7379f7c67f4289f23e24a7f28f721792b0e898e2af03581b2e73e604a53906020015b60405180910390a2505050565b611b44612be8565b604a5460ff1615611b8d5760405162461bcd60e51b8152602060048201526013602482015272105b1c9958591e481a5b9a5d1a585b1a5e9959606a1b6044820152606401610e83565b6040516364e329cb60e11b81527382af49447d8a07e3bd95bd0d56f35241523fbab16004820152306024820152736eccab422d763ac031210895c81787e87b43a6529063c9c65396906044016020604051808303816000875af1158015611bf8573d6000803e3d6000fd5b505050506040513d601f19601f82011682018060405250810190611c1c9190614932565b601980546001600160a01b0319166001600160a01b0392909216919091179055604a805460ff19166001179055565b60006111e882600019611280565b611c61612be8565b6001600160a01b03919091166000908152600960205260409020805460ff1916911515919091179055565b60265460009081526027602090815260409182902060090180548351818402810184019094528084526060939283018282801561127657602002820191906000526020600020905b81546001600160a01b03168152600190910190602001808311611cd4575050505050905090565b600080516020614a95833981519152611d1381612b36565b604954611d239062093a8061491f565b421015611d675760405162461bcd60e51b815260206004820152601260248201527143616e277420656e64207468652067616d6560701b6044820152606401610e83565b604054610100900460ff1615611db65760405162461bcd60e51b815260206004820152601460248201527323b0b6b29034b99030b63932b0b23c9037bb32b960611b6044820152606401610e83565b6040805461ff00191661010017815560265460009081526027602052206009015415611e555760215460265460009081526027602052604090819020905163f25addf560e01b81526001600160a01b039092169163f25addf591611e229160099091019060040161494f565b600060405180830381600087803b158015611e3c57600080fd5b505af1158015611e50573d6000803e3d6000fd5b505050505b50565b6001600160a01b031660009081526007602052604090205490565b611e7b612be8565b61166160006136f7565b611e8d612be8565b601980546001600160a01b039092166001600160a01b0319909216821790556000908152600a60205260409020805460ff19166001179055565b60138181548110611ed757600080fd5b600091825260209091200154905081565b60009182526001602090815260408084206001600160a01b0393909316845291905290205460ff1690565b6060600380546111fd9061482d565b6001600160a01b0381166000908152601c602052604090205460ff1615611f7e5760405162461bcd60e51b815260206004820152601060248201526f105b1c9958591e481a5b999958dd195960821b6044820152606401610e83565b6001611f8933611e58565b1015611fd75760405162461bcd60e51b815260206004820152601b60248201527f4e6f7420656e6f75676820746f6b656e7320746f20696e6665637400000000006044820152606401610e83565b336000908152601c602052604090205460ff1615156001146120315760405162461bcd60e51b8152602060048201526013602482015272165bdd49dc99481b9bdd081a5b999958dd1959606a1b6044820152606401610e83565b6001600160a01b0381166000908152601d6020908152604080832080546001600160a01b03191633908117909155601c8352818420805460ff191660011790558352908052812080549161208483614814565b90915550506043805490600061209983614814565b9190505550600061184e3383670de0b6b3a7640000612b40565b600080516020614a958339815191526120cb81612b36565b50601555565b6019546000906001600160a01b031633036120f8576120f1338484612d1b565b90506111e8565b6120f1338484612b40565b61210b61430c565b6040805160a0810191829052604480546001600160a01b031682529091600590604560208501808311611cd4575050505050905090565b61214a612be8565b600454600655565b602a54336000908152601c602052604090205460ff166121ab5760405162461bcd60e51b8152602060048201526014602482015273165bdd48185c99481b9bdd081a5b999958dd195960621b6044820152606401610e83565b60405460ff166121fd5760405162461bcd60e51b815260206004820152601760248201527f47616d65206973206e6f742073746172746564207965740000000000000000006044820152606401610e83565b604054610100900460ff16156122255760405162461bcd60e51b8152600401610e83906148e6565b8061222f33611e58565b10156122885760405162461bcd60e51b815260206004820152602260248201527f4e6f7420656e6f75676820746f6b656e7320746f2062757920612063617073756044820152616c6560f01b6064820152608401610e83565b60265460009081526027602052604090206002015442106122bb5760405162461bcd60e51b8152600401610e83906148a2565b602654600090815260276020908152604080832033845260030190915290205460ff16156123455760405162461bcd60e51b815260206004820152603160248201527f596f7527766520616c726561647920626f7567687420612063617073756c65206044820152700c8eae4d2dcce40e8d0d2e640cae0dec6d607b1b6064820152608401610e83565b602654600090815260276020908152604080832033845260040190915290205460ff16156123d15760405162461bcd60e51b815260206004820152603360248201527f596f75206f6e6c792068617665206f6e6520616374696f6e207065722065706f6044820152726368203a20627579206f72207570677261646560681b6064820152608401610e83565b602980549060006123e183614814565b9091555050602880549060006123f683614814565b909155505060265460009081526027602090815260408083203384526003019091528120805460ff191660011790556103e86124338360c8614861565b61243d919061488e565b90508060046000828254612451919061490c565b9091555061246490503361dead83612b40565b506021546000906124849033906001600160a01b03166115f5858761490c565b90506000612490613747565b602680546000908152602760208181526040808420868552600601825280842080546001600160a01b03191633908117909155945484529181528183208484526007018152918190208490555183815292935090917f56e18f08766f396148d5b13331a86d9ce4ea3d9c08821cf829ccf881a6fff8bf910160405180910390a250505050565b6000828152600160208190526040909120015461253281612b36565b61181583836132b7565b612544612be8565b60018110156125955760405162461bcd60e51b815260206004820152601f60248201527f43616e27742073657420537761705468726573686f6c6420746f205a45524f006044820152606401610e83565b60198054921515600160a81b0260ff60a81b1990931692909217909155601a55565b600080516020614a958339815191526125cf81612b36565b602e548210156126355760405162461bcd60e51b815260206004820152602b60248201527f43616e2774207265647563652076616363696e6520737570706c79206475726960448201526a0dcce40c2dc40cae0dec6d60ab1b6064820152608401610e83565b50603355565b612643612be8565b6001600160a01b03811661266d57604051631e4fbdf760e01b815260006004820152602401610e83565b611e55816136f7565b61267e612be8565b60005b815181101561108957601c60008383815181106126a0576126a061499f565b6020908102919091018101516001600160a01b031682528101919091526040016000205460ff16156127075760405162461bcd60e51b815260206004820152601060248201526f105b1c9958591e481a5b999958dd195960821b6044820152606401610e83565b600161271233611e58565b10156127605760405162461bcd60e51b815260206004820152601b60248201527f6e6f7420656e6f75676820746f6b656e7320746f20696e6665637400000000006044820152606401610e83565b336000908152601c602052604090205460ff1615156001146127b35760405162461bcd60e51b815260206004820152600c60248201526b1b9bdd081a5b999958dd195960a21b6044820152606401610e83565b33601d60008484815181106127ca576127ca61499f565b60200260200101516001600160a01b03166001600160a01b0316815260200190815260200160002060006101000a8154816001600160a01b0302191690836001600160a01b031602179055506001601c600084848151811061282e5761282e61499f565b6020908102919091018101516001600160a01b031682528181019290925260409081016000908120805460ff191694151594909417909355338352908052812080549161287a83614814565b90915550506043805490600061288f83614814565b919050555060006128c2338484815181106128ac576128ac61499f565b6020026020010151670de0b6b3a7640000612b40565b508190506128cf81614814565b915050612681565b600080516020614a958339815191526128ef81612b36565b50602255565b600081815260176020526040812054610100900460ff1661294c5760405162461bcd60e51b81526020600482015260116024820152701c995c5d595cdd081b9bdd08199bdd5b99607a1b6044820152606401610e83565b60008281526017602090815260408083208151606081018352815460ff80821615158352610100909104161515818501526001820180548451818702810187018652818152929593948601938301828280156129c757602002820191906000526020600020905b8154815260200190600101908083116129b3575b5050505050815250509050603354602e5410612a1a57606181604001516000815181106129f6576129f661499f565b6020026020010151612a0891906149b5565b612a1390600161491f565b9392505050565b60225481604001516000815181106129f6576129f661499f565b50919050565b6001600160a01b03831660009081526024602052604090205460ff16612abe576025805460018082019092557f401968ff42a154441da5f6c4c935ac46b8671f0e062baaa62a7545ba53bb6e4c0180546001600160a01b0319166001600160a01b0386169081179091556000908152602460205260409020805460ff191690911790555b6001600160a01b0383166000818152602360209081526040808320869055602654835260278252808320848452600501825291829020805460ff191660011790558151858152841515918101919091527fc05909672b3730633581d6cf7b807382b3572d7805ace294b8d4b3558c5cc7ff9101611b2f565b611e558133613903565b6001600160a01b038316600090815260076020526040812054612b6490839061490c565b6001600160a01b038086166000908152600760205260408082209390935590851681522054612b9490839061491f565b6001600160a01b038085166000818152600760205260409081902093909355915190861690600080516020614a7583398151915290612bd69086815260200190565b60405180910390a35060019392505050565b6000546001600160a01b031633146116615760405163118cdaa760e01b8152336004820152602401610e83565b600082815260176020526040902054610100900460ff16612c6c5760405162461bcd60e51b81526020600482015260116024820152701c995c5d595cdd081b9bdd08199bdd5b99607a1b6044820152606401610e83565b6000828152601760209081526040909120805460ff1916600190811782558351612c9d93929091019184019061432a565b506026546000908152602760209081526040808320858452600681018352818420546001600160a01b0316845260080190915290819020805460ff19166001179055517ffe2e2d779dba245964d4e3ef9b994be63856fd568bf7d3ca9e224755cb1bd54d90612d0f90849084906149c9565b60405180910390a15050565b6001600160a01b03831660009081526009602052604081205460ff1680612d5a57506001600160a01b03831660009081526009602052604090205460ff165b80612d6e5750601954600160a01b900460ff165b612dba5760405162461bcd60e51b815260206004820152601b60248201527f4e6f7420617574686f72697a656420746f2074726164652079657400000000006044820152606401610e83565b6019546001600160a01b03848116911614612e26576001600160a01b0383166000908152601c602052604090205460ff16612e265760405162461bcd60e51b815260206004820152600c60248201526b139bdd081a5b999958dd195960a21b6044820152606401610e83565b604054610100900460ff168015612e4b57506019546001600160a01b03848116911614155b15612edc57612e68600080516020614a9583398151915285611ee8565b80612e865750612e86600080516020614a9583398151915284611ee8565b612edc5760405162461bcd60e51b815260206004820152602160248201527f47616d65206973206f7665722c206f6e6c792061646d696e732063616e2062756044820152607960f81b6064820152608401610e83565b6000546001600160a01b03858116911614801590612f0857506000546001600160a01b03848116911614155b8015612f1f57506001600160a01b03831661dead14155b15612fe5576019546001600160a01b03848116911614612fe5576001600160a01b0383166000908152600a602052604090205460ff1680612f8557506006546001600160a01b038416600090815260076020526040902054612f8290849061491f565b11155b612fe55760405162461bcd60e51b815260206004820152602b60248201527f5472616e7366657220616d6f756e74206578636565647320746865204d61785760448201526a30b63632ba1039b4bd329760a91b6064820152608401610e83565b612fed61393c565b801561300657506019546001600160a01b038481169116145b156130135761301361399a565b6001600160a01b03841660009081526007602052604090205461303790839061490c565b6001600160a01b038516600090815260076020908152604080832093909355600990529081205460ff1615158061308857506001600160a01b03841660009081526009602052604090205460ff1615155b61309c57613097858585613b82565b61309e565b825b6001600160a01b0385166000908152600760205260409020549091506130c590829061491f565b6001600160a01b038086166000818152600760205260409081902093909355915190871690600080516020614a75833981519152906131079085815260200190565b60405180910390a3506001949350505050565b6001600160a01b03831661317c5760405162461bcd60e51b8152602060048201526024808201527f45524332303a20617070726f76652066726f6d20746865207a65726f206164646044820152637265737360e01b6064820152608401610e83565b6001600160a01b0382166131dd5760405162461bcd60e51b815260206004820152602260248201527f45524332303a20617070726f766520746f20746865207a65726f206164647265604482015261737360f01b6064820152608401610e83565b6001600160a01b0383811660008181526008602090815260408083209487168084529482529182902085905590518481527f8c5be1e5ebec7d5bd14f71427d1e84f3dd0314c0f7b2291e5b200ac8c7c3b925910160405180910390a3505050565b600061324a8383611ee8565b6132af5760008381526001602081815260408084206001600160a01b0387168086529252808420805460ff19169093179092559051339286917f2f8788117e7eff1d82e926ec794901d17c78024a50270940304540a733656f0d9190a45060016111e8565b5060006111e8565b60006132c38383611ee8565b156132af5760008381526001602090815260408083206001600160a01b0386168085529252808320805460ff1916905551339286917ff6391f5c32d9c69d2a47ea670b442974b53935d1edc7fd64eb21e047a839171b9190a45060016111e8565b602654600090815260276020526040902060090154156133b75760215460265460009081526027602052604090819020905163f25addf560e01b81526001600160a01b039092169163f25addf5916133849160099091019060040161494f565b600060405180830381600087803b15801561339e57600080fd5b505af11580156133b2573d6000803e3d6000fd5b505050505b602680549060006133c783614814565b909155505060265460008181526027602052604090209081554260019091018190556133f6906201437061491f565b602654600090815260276020526040812060020191909155602b819055602c819055602d819055602e81905560288190555b6025548110156134db576000602360006025848154811061344b5761344b61499f565b60009182526020808320909101546001600160a01b0316835282019290925260400190205411156134c9576001602360006025848154811061348f5761348f61499f565b60009182526020808320909101546001600160a01b03168352820192909252604001812080549091906134c390849061490c565b90915550505b806134d381614814565b915050613428565b5060405460ff166134f4576040805460ff191660011790555b61166161402c565b3361350561430c565b61350d61430c565b6000805b600581101561357657601e6000604483600581106135315761353161499f565b01546001600160a01b0316815260208101919091526040016000205484826005811061355f5761355f61499f565b60200201528061356e81614814565b915050613511565b5060005b60058110156135c657846001600160a01b0316604482600581106135a0576135a061499f565b01546001600160a01b0316036135b4578091505b806135be81614814565b91505061357a565b506001600160a01b0384166000908152601e602052604090205483511080156135fa57506135f66001600561490c565b8114155b156118155780600003613614576001600160a01b03841682525b600061362182600161491f565b90505b60058110156136e9576001600160a01b0385166000908152601e60205260409020548482600581106136585761365861499f565b602002015110156136d757604481600581106136765761367661499f565b01546001600160a01b03168361368d60018461490c565b6005811061369d5761369d61499f565b6001600160a01b039092166020929092020152848382600581106136c3576136c361499f565b6001600160a01b0390921660209290920201525b806136e181614814565b915050613624565b50611e506044836005614375565b600080546001600160a01b038381166001600160a01b0319831681178455604051919092169283917f8be0079c531659141344cd1fd0a4f28419497f9722a3daafe3b4186f6b6457e09190a35050565b6012546015546016546040516305d3b1d360e41b81526004810192909252600160a01b830467ffffffffffffffff166024830152640100000000810461ffff16604483015263ffffffff808216606484015266010000000000009091041660848201526000916001600160a01b031690635d3b1d309060a4016020604051808303816000875af11580156137df573d6000803e3d6000fd5b505050506040513d601f19601f820116820180604052508101906138039190614a17565b6040805160608101825260008082526001602080840182815285518481528083018752858701908152878552601783529590932084518154945161ffff1990951690151561ff00191617610100941515949094029390931783559351805195965092949193613878939185019291019061432a565b5050601380546001810182556000919091527f66de8ffda797e3de9c05e8fc57b3bf0ec28a930d40b0d285d93c06501cf6a0900182905550601481905560165460408051838152660100000000000090920463ffffffff1660208301527fcc58b13ad3eab50626c6a6300b1d139cd6ebb1688a7cced9461c2f7e762665ee910160405180910390a190565b61390d8282611ee8565b6110895760405163e2517d3f60e01b81526001600160a01b038216600482015260248101839052604401610e83565b6019546000906001600160a01b0316331480159061395d5750601b5460ff16155b80156139725750601954600160a81b900460ff165b80156139955750601a5460415461398830611e58565b613992919061490c565b10155b905090565b601b805460ff191660011790556041546000906139b630611e58565b6139c0919061490c565b604080516002808252606082018352929350600092909160208301908036833701905050905030816000815181106139fa576139fa61499f565b6001600160a01b03928316602091820292909201810191909152601854604080516315ab88c960e31b81529051919093169263ad5c46489260048083019391928290030181865afa158015613a53573d6000803e3d6000fd5b505050506040513d601f19601f82011682018060405250810190613a779190614932565b81600181518110613a8a57613a8a61499f565b6001600160a01b039283166020918202929092010152601854166352aa4c22836000843082613abb4261012c61491f565b6040518763ffffffff1660e01b8152600401613adc96959493929190614a30565b600060405180830381600087803b158015613af657600080fd5b505af1158015613b0a573d6000803e3d6000fd5b504792505081159050613b73576010546040516000916001600160a01b03169061753090849084818181858888f193505050503d8060008114613b69576040519150601f19603f3d011682016040523d82523d6000602084013e613b6e565b606091505b505050505b5050601b805460ff1916905550565b60195460009081908190819081906001600160a01b038981169116148015613bb857506019546001600160a01b03888116911614155b15613d64576001600160a01b038716600090815260236020526040902054600103613c6c57600361271060345488613bf09190614861565b613bfa919061488e565b613c04919061488e565b6001600160a01b038089166000908152601d60209081526040808320549093168252601f905290812080549296508695508594508492909190613c4890849061491f565b925050819055508260416000828254613c61919061491f565b90915550613f329050565b6001600160a01b038716600090815260236020526040902054600203613d1b57600361271060355488613c9f9190614861565b613ca9919061488e565b613cb3919061488e565b6001600160a01b038089166000908152601d60209081526040808320549093168252601f905290812080549296508695508594508492909190613cf790849061491f565b925050819055508260416000828254613d10919061491f565b90915550613d5f9050565b6001600160a01b038716600090815260236020526040902054600303613d4e57600361271060365488613c9f9190614861565b612710600c5487613bfa9190614861565b613f32565b6019546001600160a01b03898116911614801590613d8f57506019546001600160a01b038881169116145b15613f3257604054610100900460ff1615613dc357612710613db287600a614861565b613dbc919061488e565b9350613f32565b6001600160a01b038816600090815260236020526040902054600103613e4e57600361271060375488613df69190614861565b613e00919061488e565b613e0a919061488e565b6001600160a01b03808a166000908152601d60209081526040808320549093168252601f905290812080549296508695508594508492909190613c4890849061491f565b6001600160a01b038816600090815260236020526040902054600203613e8157600361271060385488613df69190614861565b6001600160a01b038816600090815260236020526040902054600303613eb457600361271060395488613df69190614861565b612710600e5487613ec59190614861565b613ecf919061488e565b6001600160a01b03808a166000908152601d60209081526040808320549093168252601f905290812080549296508695508594508492909190613f1390849061491f565b925050819055508260416000828254613f2c919061491f565b90915550505b81613f3d848661491f565b613f47919061491f565b9050801561401657613f59828261490c565b3060009081526007602052604081208054909190613f7890849061491f565b90915550506021546001600160a01b031660009081526007602052604081208054849290613fa790849061491f565b909155503090506001600160a01b038916600080516020614a75833981519152613fd1858561490c565b60405190815260200160405180910390a36021546040518381526001600160a01b03918216918a1690600080516020614a758339815191529060200160405180910390a35b614020818761490c565b98975050505050505050565b60055461405f600554602654603a546140459190614861565b614050906064614861565b61405a9190614861565b61417a565b600b5461406c919061490c565b614076919061488e565b603455600554602654603b546140929183916140459190614861565b600b5461409f919061490c565b6140a9919061488e565b603555600554602654603c546140c59183916140459190614861565b600b546140d2919061490c565b6140dc919061488e565b603655600554602654603d546140f89183916140459190614861565b600d54614105919061490c565b61410f919061488e565b603755600554602654603e5461412b9183916140459190614861565b600d54614138919061490c565b614142919061488e565b603855600554602654603f5461415e9183916140459190614861565b600d5461416b919061490c565b614175919061488e565b603955565b60008160000361418c57506000919050565b6000600161419984614262565b901c6001901b905060018184816141b2576141b2614878565b048201901c905060018184816141ca576141ca614878565b048201901c905060018184816141e2576141e2614878565b048201901c905060018184816141fa576141fa614878565b048201901c9050600181848161421257614212614878565b048201901c9050600181848161422a5761422a614878565b048201901c9050600181848161424257614242614878565b048201901c9050612a138182858161425c5761425c614878565b046142f6565b600080608083901c1561427757608092831c92015b604083901c1561428957604092831c92015b602083901c1561429b57602092831c92015b601083901c156142ad57601092831c92015b600883901c156142bf57600892831c92015b600483901c156142d157600492831c92015b600283901c156142e357600292831c92015b600183901c156111e85760010192915050565b60008183106143055781612a13565b5090919050565b6040518060a001604052806005906020820280368337509192915050565b828054828255906000526020600020908101928215614365579160200282015b8281111561436557825182559160200191906001019061434a565b506143719291506143bd565b5090565b8260058101928215614365579160200282015b8281111561436557825182546001600160a01b0319166001600160a01b03909116178255602090920191600190910190614388565b5b8082111561437157600081556001016143be565b6001600160a01b0381168114611e5557600080fd5b6000602082840312156143f957600080fd5b8135612a13816143d2565b60006020828403121561441657600080fd5b81356001600160e01b031981168114612a1357600080fd5b600060208083528351808285015260005b8181101561445b5785810183015185820160400152820161443f565b506000604082860101526040601f19601f8301168501019250505092915050565b6000806040838503121561448f57600080fd5b823561449a816143d2565b946020939093013593505050565b6000602082840312156144ba57600080fd5b5035919050565b634e487b7160e01b600052604160045260246000fd5b604051601f8201601f1916810167ffffffffffffffff81118282101715614500576145006144c1565b604052919050565b600067ffffffffffffffff821115614522576145226144c1565b5060051b60200190565b6000806040838503121561453f57600080fd5b8235915060208084013567ffffffffffffffff81111561455e57600080fd5b8401601f8101861361456f57600080fd5b803561458261457d82614508565b6144d7565b81815260059190911b820183019083810190888311156145a157600080fd5b928401925b828410156145bf578335825292840192908401906145a6565b80955050505050509250929050565b803580151581146145de57600080fd5b919050565b600080604083850312156145f657600080fd5b8235614601816143d2565b915061460f602084016145ce565b90509250929050565b60008060006060848603121561462d57600080fd5b8335614638816143d2565b92506020840135614648816143d2565b929592945050506040919091013590565b6000806040838503121561466c57600080fd5b82359150602083013561467e816143d2565b809150509250929050565b600081518084526020808501945080840160005b838110156146c25781516001600160a01b03168752958201959082019060010161469d565b509495945050505050565b602081526000612a136020830184614689565b60a08101818360005b60058110156147115781516001600160a01b03168352602092830192909101906001016146e9565b50505092915050565b6000806040838503121561472d57600080fd5b8235614738816143d2565b9150602083013561467e816143d2565b6000806040838503121561475b57600080fd5b61449a836145ce565b6000602080838503121561477757600080fd5b823567ffffffffffffffff81111561478e57600080fd5b8301601f8101851361479f57600080fd5b80356147ad61457d82614508565b81815260059190911b820183019083810190878311156147cc57600080fd5b928401925b828410156147f35783356147e4816143d2565b825292840192908401906147d1565b979650505050505050565b634e487b7160e01b600052601160045260246000fd5b600060018201614826576148266147fe565b5060010190565b600181811c9082168061484157607f821691505b602082108103612a3457634e487b7160e01b600052602260045260246000fd5b80820281158282048414176111e8576111e86147fe565b634e487b7160e01b600052601260045260246000fd5b60008261489d5761489d614878565b500490565b60208082526024908201527f45706f6368206973206f7665722c207761697420666f7220746865206e657874604082015263206f6e6560e01b606082015260800190565b6020808252600c908201526b23b0b6b29034b99037bb32b960a11b604082015260600190565b818103818111156111e8576111e86147fe565b808201808211156111e8576111e86147fe565b60006020828403121561494457600080fd5b8151612a13816143d2565b6020808252825482820181905260008481528281209092916040850190845b818110156149935783546001600160a01b03168352600193840193928501920161496e565b50909695505050505050565b634e487b7160e01b600052603260045260246000fd5b6000826149c4576149c4614878565b500690565b6000604082018483526020604081850152818551808452606086019150828701935060005b81811015614a0a578451835293830193918301916001016149ee565b5090979650505050505050565b600060208284031215614a2957600080fd5b5051919050565b86815285602082015260c060408201526000614a4f60c0830187614689565b6001600160a01b03958616606084015293909416608082015260a0015294935050505056feddf252ad1be2c89b69c2b068fc378daa952ba7f163c4a11628f55a4df523b3efa49807205ce4d355092ef5a8a18f56e8913cf4a201fbe287825b095693c21775a26469706673582212209d40148a6549dc687071006585cc1ec17d5f571e1fc7be377992c950337953a164736f6c6343000814003360806040526a14adf4b7320334b9000000600355600060045534801561002457600080fd5b5060405161089a38038061089a83398101604081905261004391610118565b806001600160a01b03811661007257604051631e4fbdf760e01b81526000600482015260240160405180910390fd5b61007b816100ac565b5050600180546001600160a01b039092166001600160a01b031992831681179091556002805490921617905561014b565b600080546001600160a01b038381166001600160a01b0319831681178455604051919092169283917f8be0079c531659141344cd1fd0a4f28419497f9722a3daafe3b4186f6b6457e09190a35050565b80516001600160a01b038116811461011357600080fd5b919050565b6000806040838503121561012b57600080fd5b610134836100fc565b9150610142602084016100fc565b90509250929050565b6107408061015a6000396000f3fe608060405234801561001057600080fd5b50600436106100885760003560e01c8063efca2eed1161005b578063efca2eed146100dc578063f25addf5146100f3578063f2fde38b14610106578063fc0c546a1461011957600080fd5b8063715018a61461008d578063853828b6146100975780638da5cb5b1461009f5780639d76ea58146100c9575b600080fd5b61009561012c565b005b610095610140565b6000546001600160a01b03165b6040516001600160a01b0390911681526020015b60405180910390f35b6002546100ac906001600160a01b031681565b6100e560045481565b6040519081526020016100c0565b610095610101366004610568565b610230565b61009561011436600461062d565b61047e565b6001546100ac906001600160a01b031681565b6101346104b9565b61013e60006104e6565b565b6101486104b9565b6001546040516370a0823160e01b81523060048201526001600160a01b039091169063a9059cbb90339083906370a0823190602401602060405180830381865afa15801561019a573d6000803e3d6000fd5b505050506040513d601f19601f820116820180604052508101906101be919061064f565b6040516001600160e01b031960e085901b1681526001600160a01b03909216600483015260248201526044016020604051808303816000875af1158015610209573d6000803e3d6000fd5b505050506040513d601f19601f8201168201806040525081019061022d9190610668565b50565b6002546001600160a01b031633146102a25760405162461bcd60e51b815260206004820152602a60248201527f4f6e6c7920746f6b656e20636f6e74726163742063616e2063616c6c207468696044820152693990333ab731ba34b7b760b11b60648201526084015b60405180910390fd5b6003546001546040516370a0823160e01b8152306004820152600092916001600160a01b0316906370a0823190602401602060405180830381865afa1580156102ef573d6000803e3d6000fd5b505050506040513d601f19601f82011682018060405250810190610313919061064f565b11610389576001546040516370a0823160e01b81523060048201526001600160a01b03909116906370a0823190602401602060405180830381865afa158015610360573d6000803e3d6000fd5b505050506040513d601f19601f82011682018060405250810190610384919061064f565b61038d565b6003545b905080600460008282546103a191906106a0565b9091555050801561047a5760005b82518110156104785760015483516001600160a01b039091169063a9059cbb908590849081106103e1576103e16106b9565b60200260200101518551856103f691906106cf565b6040516001600160e01b031960e085901b1681526001600160a01b03909216600483015260248201526044016020604051808303816000875af1158015610441573d6000803e3d6000fd5b505050506040513d601f19601f820116820180604052508101906104659190610668565b5080610470816106f1565b9150506103af565b505b5050565b6104866104b9565b6001600160a01b0381166104b057604051631e4fbdf760e01b815260006004820152602401610299565b61022d816104e6565b6000546001600160a01b0316331461013e5760405163118cdaa760e01b8152336004820152602401610299565b600080546001600160a01b038381166001600160a01b0319831681178455604051919092169283917f8be0079c531659141344cd1fd0a4f28419497f9722a3daafe3b4186f6b6457e09190a35050565b634e487b7160e01b600052604160045260246000fd5b80356001600160a01b038116811461056357600080fd5b919050565b6000602080838503121561057b57600080fd5b823567ffffffffffffffff8082111561059357600080fd5b818501915085601f8301126105a757600080fd5b8135818111156105b9576105b9610536565b8060051b604051601f19603f830116810181811085821117156105de576105de610536565b6040529182528482019250838101850191888311156105fc57600080fd5b938501935b82851015610621576106128561054c565b84529385019392850192610601565b98975050505050505050565b60006020828403121561063f57600080fd5b6106488261054c565b9392505050565b60006020828403121561066157600080fd5b5051919050565b60006020828403121561067a57600080fd5b8151801515811461064857600080fd5b634e487b7160e01b600052601160045260246000fd5b808201808211156106b3576106b361068a565b92915050565b634e487b7160e01b600052603260045260246000fd5b6000826106ec57634e487b7160e01b600052601260045260246000fd5b500490565b6000600182016107035761070361068a565b506001019056fea26469706673582212206b527e644d8c38e6cff6f7f273216ce647251a24ee1560183363f1bf8384876564736f6c63430008140033",
  "linkReferences": {},
  "deployedLinkReferences": {}
}