{
  "_format": "hh-sol-artifact-1",
  "contractName": "BLI",
  "sourceName": "contracts/BLI.sol",
  "abi": [
    {
      "inputs": [
        {
          "internalType": "address",
          "name": "initialOwner",
          "type": "address"
        }
      ],
      "stateMutability": "nonpayable",
      "type": "constructor"
    },
    {
      "inputs": [],
      "name": "AccessControlBadConfirmation",
      "type": "error"
    },
    {
      "inputs": [
        {
          "internalType": "address",
          "name": "account",
          "type": "address"
        },
        {
          "internalType": "bytes32",
          "name": "neededRole",
          "type": "bytes32"
        }
      ],
      "name": "AccessControlUnauthorizedAccount",
      "type": "error"
    },
    {
      "inputs": [
        {
          "internalType": "address",
          "name": "have",
          "type": "address"
        },
        {
          "internalType": "address",
          "name": "want",
          "type": "address"
        }
      ],
      "name": "OnlyCoordinatorCanFulfill",
      "type": "error"
    },
    {
      "inputs": [
        {
          "internalType": "address",
          "name": "owner",
          "type": "address"
        }
      ],
      "name": "OwnableInvalidOwner",
      "type": "error"
    },
    {
      "inputs": [
        {
          "internalType": "address",
          "name": "account",
          "type": "address"
        }
      ],
      "name": "OwnableUnauthorizedAccount",
      "type": "error"
    },
    {
      "anonymous": false,
      "inputs": [
        {
          "indexed": true,
          "internalType": "address",
          "name": "owner",
          "type": "address"
        },
        {
          "indexed": true,
          "internalType": "address",
          "name": "spender",
          "type": "address"
        },
        {
          "indexed": false,
          "internalType": "uint256",
          "name": "value",
          "type": "uint256"
        }
      ],
      "name": "Approval",
      "type": "event"
    },
    {
      "anonymous": false,
      "inputs": [
        {
          "indexed": false,
          "internalType": "uint256",
          "name": "amountETH",
          "type": "uint256"
        },
        {
          "indexed": false,
          "internalType": "uint256",
          "name": "amountBOG",
          "type": "uint256"
        }
      ],
      "name": "AutoLiquify",
      "type": "event"
    },
    {
      "anonymous": false,
      "inputs": [
        {
          "indexed": true,
          "internalType": "address",
          "name": "user",
          "type": "address"
        },
        {
          "indexed": false,
          "internalType": "uint256",
          "name": "id",
          "type": "uint256"
        }
      ],
      "name": "CapsuleBought",
      "type": "event"
    },
    {
      "anonymous": false,
      "inputs": [
        {
          "indexed": true,
          "internalType": "address",
          "name": "user",
          "type": "address"
        },
        {
          "indexed": false,
          "internalType": "uint256",
          "name": "vaccine",
          "type": "uint256"
        },
        {
          "indexed": false,
          "internalType": "bool",
          "name": "vaccine4",
          "type": "bool"
        }
      ],
      "name": "CapsuleOpened",
      "type": "event"
    },
    {
      "anonymous": false,
      "inputs": [
        {
          "indexed": false,
          "internalType": "uint256",
          "name": "epochId",
          "type": "uint256"
        }
      ],
      "name": "NewEpochStarted",
      "type": "event"
    },
    {
      "anonymous": false,
      "inputs": [
        {
          "indexed": true,
          "internalType": "address",
          "name": "previousOwner",
          "type": "address"
        },
        {
          "indexed": true,
          "internalType": "address",
          "name": "newOwner",
          "type": "address"
        }
      ],
      "name": "OwnershipTransferred",
      "type": "event"
    },
    {
      "anonymous": false,
      "inputs": [
        {
          "indexed": false,
          "internalType": "uint256",
          "name": "requestId",
          "type": "uint256"
        },
        {
          "indexed": false,
          "internalType": "uint256[]",
          "name": "randomWords",
          "type": "uint256[]"
        }
      ],
      "name": "RequestFulfilled",
      "type": "event"
    },
    {
      "anonymous": false,
      "inputs": [
        {
          "indexed": false,
          "internalType": "uint256",
          "name": "requestId",
          "type": "uint256"
        },
        {
          "indexed": false,
          "internalType": "uint32",
          "name": "numWords",
          "type": "uint32"
        }
      ],
      "name": "RequestSent",
      "type": "event"
    },
    {
      "anonymous": false,
      "inputs": [
        {
          "indexed": true,
          "internalType": "bytes32",
          "name": "role",
          "type": "bytes32"
        },
        {
          "indexed": true,
          "internalType": "bytes32",
          "name": "previousAdminRole",
          "type": "bytes32"
        },
        {
          "indexed": true,
          "internalType": "bytes32",
          "name": "newAdminRole",
          "type": "bytes32"
        }
      ],
      "name": "RoleAdminChanged",
      "type": "event"
    },
    {
      "anonymous": false,
      "inputs": [
        {
          "indexed": true,
          "internalType": "bytes32",
          "name": "role",
          "type": "bytes32"
        },
        {
          "indexed": true,
          "internalType": "address",
          "name": "account",
          "type": "address"
        },
        {
          "indexed": true,
          "internalType": "address",
          "name": "sender",
          "type": "address"
        }
      ],
      "name": "RoleGranted",
      "type": "event"
    },
    {
      "anonymous": false,
      "inputs": [
        {
          "indexed": true,
          "internalType": "bytes32",
          "name": "role",
          "type": "bytes32"
        },
        {
          "indexed": true,
          "internalType": "address",
          "name": "account",
          "type": "address"
        },
        {
          "indexed": true,
          "internalType": "address",
          "name": "sender",
          "type": "address"
        }
      ],
      "name": "RoleRevoked",
      "type": "event"
    },
    {
      "anonymous": false,
      "inputs": [
        {
          "indexed": true,
          "internalType": "address",
          "name": "from",
          "type": "address"
        },
        {
          "indexed": true,
          "internalType": "address",
          "name": "to",
          "type": "address"
        },
        {
          "indexed": false,
          "internalType": "uint256",
          "name": "value",
          "type": "uint256"
        }
      ],
      "name": "Transfer",
      "type": "event"
    },
    {
      "anonymous": false,
      "inputs": [
        {
          "indexed": true,
          "internalType": "address",
          "name": "user",
          "type": "address"
        },
        {
          "indexed": false,
          "internalType": "uint256",
          "name": "amount",
          "type": "uint256"
        }
      ],
      "name": "_claim",
      "type": "event"
    },
    {
      "inputs": [],
      "name": "ADMIN_ROLE",
      "outputs": [
        {
          "internalType": "bytes32",
          "name": "",
          "type": "bytes32"
        }
      ],
      "stateMutability": "view",
      "type": "function"
    },
    {
      "inputs": [],
      "name": "DEFAULT_ADMIN_ROLE",
      "outputs": [
        {
          "internalType": "bytes32",
          "name": "",
          "type": "bytes32"
        }
      ],
      "stateMutability": "view",
      "type": "function"
    },
    {
      "inputs": [],
      "name": "MarketingWallet",
      "outputs": [
        {
          "internalType": "address",
          "name": "",
          "type": "address"
        }
      ],
      "stateMutability": "view",
      "type": "function"
    },
    {
      "inputs": [
        {
          "internalType": "address",
          "name": "holder",
          "type": "address"
        },
        {
          "internalType": "address",
          "name": "spender",
          "type": "address"
        }
      ],
      "name": "allowance",
      "outputs": [
        {
          "internalType": "uint256",
          "name": "",
          "type": "uint256"
        }
      ],
      "stateMutability": "view",
      "type": "function"
    },
    {
      "inputs": [],
      "name": "amountOfAllInfection",
      "outputs": [
        {
          "internalType": "uint256",
          "name": "",
          "type": "uint256"
        }
      ],
      "stateMutability": "view",
      "type": "function"
    },
    {
      "inputs": [
        {
          "internalType": "address",
          "name": "",
          "type": "address"
        }
      ],
      "name": "amountOfInfection",
      "outputs": [
        {
          "internalType": "uint256",
          "name": "",
          "type": "uint256"
        }
      ],
      "stateMutability": "view",
      "type": "function"
    },
    {
      "inputs": [
        {
          "internalType": "address",
          "name": "spender",
          "type": "address"
        },
        {
          "internalType": "uint256",
          "name": "amount",
          "type": "uint256"
        }
      ],
      "name": "approve",
      "outputs": [
        {
          "internalType": "bool",
          "name": "",
          "type": "bool"
        }
      ],
      "stateMutability": "nonpayable",
      "type": "function"
    },
    {
      "inputs": [
        {
          "internalType": "address",
          "name": "spender",
          "type": "address"
        }
      ],
      "name": "approveMax",
      "outputs": [
        {
          "internalType": "bool",
          "name": "",
          "type": "bool"
        }
      ],
      "stateMutability": "nonpayable",
      "type": "function"
    },
    {
      "inputs": [
        {
          "internalType": "address",
          "name": "account",
          "type": "address"
        }
      ],
      "name": "balanceOf",
      "outputs": [
        {
          "internalType": "uint256",
          "name": "",
          "type": "uint256"
        }
      ],
      "stateMutability": "view",
      "type": "function"
    },
    {
      "inputs": [],
      "name": "buyCapsule",
      "outputs": [],
      "stateMutability": "nonpayable",
      "type": "function"
    },
    {
      "inputs": [],
      "name": "capsuleCount",
      "outputs": [
        {
          "internalType": "uint256",
          "name": "",
          "type": "uint256"
        }
      ],
      "stateMutability": "view",
      "type": "function"
    },
    {
      "inputs": [],
      "name": "capsuleCurrentCount",
      "outputs": [
        {
          "internalType": "uint256",
          "name": "",
          "type": "uint256"
        }
      ],
      "stateMutability": "view",
      "type": "function"
    },
    {
      "inputs": [],
      "name": "capsulePrice",
      "outputs": [
        {
          "internalType": "uint256",
          "name": "",
          "type": "uint256"
        }
      ],
      "stateMutability": "view",
      "type": "function"
    },
    {
      "inputs": [],
      "name": "claim",
      "outputs": [],
      "stateMutability": "nonpayable",
      "type": "function"
    },
    {
      "inputs": [],
      "name": "decimals",
      "outputs": [
        {
          "internalType": "uint8",
          "name": "",
          "type": "uint8"
        }
      ],
      "stateMutability": "pure",
      "type": "function"
    },
    {
      "inputs": [],
      "name": "endGame",
      "outputs": [],
      "stateMutability": "nonpayable",
      "type": "function"
    },
    {
      "inputs": [],
      "name": "epochId",
      "outputs": [
        {
          "internalType": "uint256",
          "name": "",
          "type": "uint256"
        }
      ],
      "stateMutability": "view",
      "type": "function"
    },
    {
      "inputs": [
        {
          "internalType": "uint256",
          "name": "",
          "type": "uint256"
        }
      ],
      "name": "epochs",
      "outputs": [
        {
          "internalType": "uint256",
          "name": "id",
          "type": "uint256"
        },
        {
          "internalType": "uint256",
          "name": "startTime",
          "type": "uint256"
        },
        {
          "internalType": "uint256",
          "name": "endTime",
          "type": "uint256"
        }
      ],
      "stateMutability": "view",
      "type": "function"
    },
    {
      "inputs": [],
      "name": "getBestInfectors",
      "outputs": [
        {
          "internalType": "address[5]",
          "name": "",
          "type": "address[5]"
        }
      ],
      "stateMutability": "view",
      "type": "function"
    },
    {
      "inputs": [],
      "name": "getGotLuckyVaccine",
      "outputs": [
        {
          "internalType": "address[]",
          "name": "",
          "type": "address[]"
        }
      ],
      "stateMutability": "view",
      "type": "function"
    },
    {
      "inputs": [
        {
          "internalType": "address",
          "name": "user",
          "type": "address"
        }
      ],
      "name": "getHasOpenedCapsule",
      "outputs": [
        {
          "internalType": "bool",
          "name": "",
          "type": "bool"
        }
      ],
      "stateMutability": "view",
      "type": "function"
    },
    {
      "inputs": [
        {
          "internalType": "address",
          "name": "user",
          "type": "address"
        }
      ],
      "name": "getHasUpgrade",
      "outputs": [
        {
          "internalType": "bool",
          "name": "",
          "type": "bool"
        }
      ],
      "stateMutability": "view",
      "type": "function"
    },
    {
      "inputs": [
        {
          "internalType": "address",
          "name": "user",
          "type": "address"
        }
      ],
      "name": "getIsBuyer",
      "outputs": [
        {
          "internalType": "bool",
          "name": "",
          "type": "bool"
        }
      ],
      "stateMutability": "view",
      "type": "function"
    },
    {
      "inputs": [
        {
          "internalType": "address",
          "name": "user",
          "type": "address"
        }
      ],
      "name": "getRequestFullfilled",
      "outputs": [
        {
          "internalType": "bool",
          "name": "",
          "type": "bool"
        }
      ],
      "stateMutability": "view",
      "type": "function"
    },
    {
      "inputs": [
        {
          "internalType": "bytes32",
          "name": "role",
          "type": "bytes32"
        }
      ],
      "name": "getRoleAdmin",
      "outputs": [
        {
          "internalType": "bytes32",
          "name": "",
          "type": "bytes32"
        }
      ],
      "stateMutability": "view",
      "type": "function"
    },
    {
      "inputs": [
        {
          "internalType": "bytes32",
          "name": "role",
          "type": "bytes32"
        },
        {
          "internalType": "address",
          "name": "account",
          "type": "address"
        }
      ],
      "name": "grantRole",
      "outputs": [],
      "stateMutability": "nonpayable",
      "type": "function"
    },
    {
      "inputs": [
        {
          "internalType": "bytes32",
          "name": "role",
          "type": "bytes32"
        },
        {
          "internalType": "address",
          "name": "account",
          "type": "address"
        }
      ],
      "name": "hasRole",
      "outputs": [
        {
          "internalType": "bool",
          "name": "",
          "type": "bool"
        }
      ],
      "stateMutability": "view",
      "type": "function"
    },
    {
      "inputs": [
        {
          "internalType": "address",
          "name": "_toInfect",
          "type": "address"
        }
      ],
      "name": "infect",
      "outputs": [],
      "stateMutability": "nonpayable",
      "type": "function"
    },
    {
      "inputs": [
        {
          "internalType": "address[]",
          "name": "_toInfect",
          "type": "address[]"
        }
      ],
      "name": "infectOG",
      "outputs": [],
      "stateMutability": "nonpayable",
      "type": "function"
    },
    {
      "inputs": [
        {
          "internalType": "address",
          "name": "",
          "type": "address"
        }
      ],
      "name": "infected",
      "outputs": [
        {
          "internalType": "bool",
          "name": "",
          "type": "bool"
        }
      ],
      "stateMutability": "view",
      "type": "function"
    },
    {
      "inputs": [
        {
          "internalType": "address",
          "name": "",
          "type": "address"
        }
      ],
      "name": "infecter",
      "outputs": [
        {
          "internalType": "address",
          "name": "",
          "type": "address"
        }
      ],
      "stateMutability": "view",
      "type": "function"
    },
    {
      "inputs": [],
      "name": "isGameOver",
      "outputs": [
        {
          "internalType": "bool",
          "name": "",
          "type": "bool"
        }
      ],
      "stateMutability": "view",
      "type": "function"
    },
    {
      "inputs": [],
      "name": "isGameStarted",
      "outputs": [
        {
          "internalType": "bool",
          "name": "",
          "type": "bool"
        }
      ],
      "stateMutability": "view",
      "type": "function"
    },
    {
      "inputs": [],
      "name": "isTradingEnabled",
      "outputs": [
        {
          "internalType": "bool",
          "name": "",
          "type": "bool"
        }
      ],
      "stateMutability": "view",
      "type": "function"
    },
    {
      "inputs": [],
      "name": "lastRequestId",
      "outputs": [
        {
          "internalType": "uint256",
          "name": "",
          "type": "uint256"
        }
      ],
      "stateMutability": "view",
      "type": "function"
    },
    {
      "inputs": [],
      "name": "name",
      "outputs": [
        {
          "internalType": "string",
          "name": "",
          "type": "string"
        }
      ],
      "stateMutability": "view",
      "type": "function"
    },
    {
      "inputs": [
        {
          "internalType": "address",
          "name": "user",
          "type": "address"
        }
      ],
      "name": "openCapsule",
      "outputs": [],
      "stateMutability": "nonpayable",
      "type": "function"
    },
    {
      "inputs": [],
      "name": "owner",
      "outputs": [
        {
          "internalType": "address",
          "name": "",
          "type": "address"
        }
      ],
      "stateMutability": "view",
      "type": "function"
    },
    {
      "inputs": [],
      "name": "pair",
      "outputs": [
        {
          "internalType": "address",
          "name": "",
          "type": "address"
        }
      ],
      "stateMutability": "view",
      "type": "function"
    },
    {
      "inputs": [
        {
          "internalType": "address",
          "name": "",
          "type": "address"
        }
      ],
      "name": "pendingRewards",
      "outputs": [
        {
          "internalType": "uint256",
          "name": "",
          "type": "uint256"
        }
      ],
      "stateMutability": "view",
      "type": "function"
    },
    {
      "inputs": [
        {
          "internalType": "uint256",
          "name": "requestId",
          "type": "uint256"
        },
        {
          "internalType": "uint256[]",
          "name": "randomWords",
          "type": "uint256[]"
        }
      ],
      "name": "rawFulfillRandomWords",
      "outputs": [],
      "stateMutability": "nonpayable",
      "type": "function"
    },
    {
      "inputs": [],
      "name": "renounceOwnership",
      "outputs": [],
      "stateMutability": "nonpayable",
      "type": "function"
    },
    {
      "inputs": [
        {
          "internalType": "bytes32",
          "name": "role",
          "type": "bytes32"
        },
        {
          "internalType": "address",
          "name": "callerConfirmation",
          "type": "address"
        }
      ],
      "name": "renounceRole",
      "outputs": [],
      "stateMutability": "nonpayable",
      "type": "function"
    },
    {
      "inputs": [
        {
          "internalType": "uint256",
          "name": "",
          "type": "uint256"
        }
      ],
      "name": "requestIds",
      "outputs": [
        {
          "internalType": "uint256",
          "name": "",
          "type": "uint256"
        }
      ],
      "stateMutability": "view",
      "type": "function"
    },
    {
      "inputs": [
        {
          "internalType": "bytes32",
          "name": "role",
          "type": "bytes32"
        },
        {
          "internalType": "address",
          "name": "account",
          "type": "address"
        }
      ],
      "name": "revokeRole",
      "outputs": [],
      "stateMutability": "nonpayable",
      "type": "function"
    },
    {
      "inputs": [],
      "name": "router",
      "outputs": [
        {
          "internalType": "contract IUniswapV2Router02",
          "name": "",
          "type": "address"
        }
      ],
      "stateMutability": "view",
      "type": "function"
    },
    {
      "inputs": [
        {
          "internalType": "uint256",
          "name": "_price",
          "type": "uint256"
        }
      ],
      "name": "setCapsulePrice",
      "outputs": [],
      "stateMutability": "nonpayable",
      "type": "function"
    },
    {
      "inputs": [
        {
          "internalType": "address",
          "name": "_MarketingWallet",
          "type": "address"
        }
      ],
      "name": "setFeesWallet",
      "outputs": [],
      "stateMutability": "nonpayable",
      "type": "function"
    },
    {
      "inputs": [
        {
          "internalType": "address",
          "name": "holder",
          "type": "address"
        },
        {
          "internalType": "bool",
          "name": "exempt",
          "type": "bool"
        }
      ],
      "name": "setIsFeeExempt",
      "outputs": [],
      "stateMutability": "nonpayable",
      "type": "function"
    },
    {
      "inputs": [],
      "name": "setIsTradingEnabled",
      "outputs": [],
      "stateMutability": "nonpayable",
      "type": "function"
    },
    {
      "inputs": [
        {
          "internalType": "address",
          "name": "holder",
          "type": "address"
        },
        {
          "internalType": "bool",
          "name": "exempt",
          "type": "bool"
        }
      ],
      "name": "setIsWalletLimitExempt",
      "outputs": [],
      "stateMutability": "nonpayable",
      "type": "function"
    },
    {
      "inputs": [],
      "name": "setMaxWallet",
      "outputs": [],
      "stateMutability": "nonpayable",
      "type": "function"
    },
    {
      "inputs": [
        {
          "internalType": "uint256",
          "name": "_range",
          "type": "uint256"
        }
      ],
      "name": "setProbabilityMaxRange",
      "outputs": [],
      "stateMutability": "nonpayable",
      "type": "function"
    },
    {
      "inputs": [
        {
          "internalType": "uint256",
          "name": "_amount",
          "type": "uint256"
        }
      ],
      "name": "setSpecialVaccineSupply",
      "outputs": [],
      "stateMutability": "nonpayable",
      "type": "function"
    },
    {
      "inputs": [
        {
          "internalType": "bool",
          "name": "_enabled",
          "type": "bool"
        },
        {
          "internalType": "uint256",
          "name": "_amount",
          "type": "uint256"
        }
      ],
      "name": "setSwapBackSettings",
      "outputs": [],
      "stateMutability": "nonpayable",
      "type": "function"
    },
    {
      "inputs": [
        {
          "internalType": "address",
          "name": "pairaddr",
          "type": "address"
        }
      ],
      "name": "setSwapPair",
      "outputs": [],
      "stateMutability": "nonpayable",
      "type": "function"
    },
    {
      "inputs": [],
      "name": "startNewEpoch",
      "outputs": [],
      "stateMutability": "nonpayable",
      "type": "function"
    },
    {
      "inputs": [
        {
          "internalType": "bytes4",
          "name": "interfaceId",
          "type": "bytes4"
        }
      ],
      "name": "supportsInterface",
      "outputs": [
        {
          "internalType": "bool",
          "name": "",
          "type": "bool"
        }
      ],
      "stateMutability": "view",
      "type": "function"
    },
    {
      "inputs": [],
      "name": "swapEnabled",
      "outputs": [
        {
          "internalType": "bool",
          "name": "",
          "type": "bool"
        }
      ],
      "stateMutability": "view",
      "type": "function"
    },
    {
      "inputs": [],
      "name": "symbol",
      "outputs": [
        {
          "internalType": "string",
          "name": "",
          "type": "string"
        }
      ],
      "stateMutability": "view",
      "type": "function"
    },
    {
      "inputs": [],
      "name": "totalAllRewards",
      "outputs": [
        {
          "internalType": "uint256",
          "name": "",
          "type": "uint256"
        }
      ],
      "stateMutability": "view",
      "type": "function"
    },
    {
      "inputs": [
        {
          "internalType": "address",
          "name": "",
          "type": "address"
        }
      ],
      "name": "totalRewards",
      "outputs": [
        {
          "internalType": "uint256",
          "name": "",
          "type": "uint256"
        }
      ],
      "stateMutability": "view",
      "type": "function"
    },
    {
      "inputs": [],
      "name": "totalSupply",
      "outputs": [
        {
          "internalType": "uint256",
          "name": "",
          "type": "uint256"
        }
      ],
      "stateMutability": "view",
      "type": "function"
    },
    {
      "inputs": [
        {
          "internalType": "address",
          "name": "recipient",
          "type": "address"
        },
        {
          "internalType": "uint256",
          "name": "amount",
          "type": "uint256"
        }
      ],
      "name": "transfer",
      "outputs": [
        {
          "internalType": "bool",
          "name": "",
          "type": "bool"
        }
      ],
      "stateMutability": "nonpayable",
      "type": "function"
    },
    {
      "inputs": [
        {
          "internalType": "address",
          "name": "sender",
          "type": "address"
        },
        {
          "internalType": "address",
          "name": "recipient",
          "type": "address"
        },
        {
          "internalType": "uint256",
          "name": "amount",
          "type": "uint256"
        }
      ],
      "name": "transferFrom",
      "outputs": [
        {
          "internalType": "bool",
          "name": "",
          "type": "bool"
        }
      ],
      "stateMutability": "nonpayable",
      "type": "function"
    },
    {
      "inputs": [
        {
          "internalType": "address",
          "name": "newOwner",
          "type": "address"
        }
      ],
      "name": "transferOwnership",
      "outputs": [],
      "stateMutability": "nonpayable",
      "type": "function"
    },
    {
      "inputs": [],
      "name": "upgradeVaccine",
      "outputs": [],
      "stateMutability": "nonpayable",
      "type": "function"
    },
    {
      "inputs": [
        {
          "internalType": "address",
          "name": "",
          "type": "address"
        }
      ],
      "name": "userCurrentVaccine",
      "outputs": [
        {
          "internalType": "uint256",
          "name": "",
          "type": "uint256"
        }
      ],
      "stateMutability": "view",
      "type": "function"
    },
    {
      "inputs": [
        {
          "internalType": "address",
          "name": "",
          "type": "address"
        }
      ],
      "name": "userHasBoughtVaccine",
      "outputs": [
        {
          "internalType": "bool",
          "name": "",
          "type": "bool"
        }
      ],
      "stateMutability": "view",
      "type": "function"
    },
    {
      "inputs": [],
      "name": "vaccineFourSupply",
      "outputs": [
        {
          "internalType": "uint256",
          "name": "",
          "type": "uint256"
        }
      ],
      "stateMutability": "view",
      "type": "function"
    },
    {
      "inputs": [],
      "name": "vault",
      "outputs": [
        {
          "internalType": "contract Vault",
          "name": "",
          "type": "address"
        }
      ],
      "stateMutability": "view",
      "type": "function"
    },
    {
      "stateMutability": "payable",
      "type": "receive"
    }
  ],
  "bytecode": "0x60e0604052600e60a09081526d109b1a59da1d08141c9bda9958dd60921b60c0526002906200002f9082620008cf565b5060408051808201909152600380825262424c4960e81b602083015290620000589082620008cf565b50620000676012600a62000aa4565b6200007790633b9aca0062000abb565b60045569d3c21bcecceda10000006005556103e8600454600a6200009c919062000abb565b620000a8919062000ad5565b600655600554620000bc9061025862000abb565b600b5560c8600c55600554620000d59061038462000abb565b600d5561012c600e5560108054733e98da13e184ea1467639bf642f804144539694d6001600160a01b03199182161790915560118054732ca8e0c643bde4c2e08ab1fa0da3401adad7734d9216919091179055601280546001600160e01b0319167537f32ca8e0c643bde4c2e08ab1fa0da3401adad7734d1790557f79d3d8832d904592c0bf9818b621522c988bb8b0c05cdc3b15aea1b6e8db0c15601555601680546001600160501b03191666010003000186a01790556019805461ffff60a01b19169055600454620001ad906103e89062000ad5565b620001ba90600362000abb565b601a5560646022555f6026555f6028555f6029556934f086f3b33b68400000602a555f602b555f602c555f602d555f602e555f602f555f6030555f6031555f603255600a60335560055460e562000212919062000abb565b603a55600554620002269061016562000abb565b603b556005546200023a9061020262000abb565b603c556005546200024e906102bc62000abb565b603d55600554620002629061039262000abb565b603e55600554620002769061048562000abb565b603f556040805461ffff1916905534801562000290575f80fd5b5060405162005bc538038062005bc5833981016040819052620002b39162000af5565b6011546001600160a01b039081169082908116620002ea57604051631e4fbdf760e01b81525f600482015260240160405180910390fd5b620002f5816200073e565b506001600160a01b0316608052601880546001600160a01b031916737a250d5630b4cf539739df2c5dacb4c659f2488d9081179091556040805163c45a015560e01b8152905163c45a0155916004808201926020929091908290030181865afa15801562000365573d5f803e3d5ffd5b505050506040513d601f19601f820116820180604052508101906200038b919062000af5565b6001600160a01b031663c9c6539660185f9054906101000a90046001600160a01b03166001600160a01b031663ad5c46486040518163ffffffff1660e01b8152600401602060405180830381865afa158015620003ea573d5f803e3d5ffd5b505050506040513d601f19601f8201168201806040525081019062000410919062000af5565b6040516001600160e01b031960e084901b1681526001600160a01b0390911660048201523060248201526044016020604051808303815f875af11580156200045a573d5f803e3d5ffd5b505050506040513d601f19601f8201168201806040525081019062000480919062000af5565b601980546001600160a01b0319166001600160a01b03928316179055305f90815260086020908152604080832060185490941683529290529081205f199055620004cb90826200078d565b50620004f87fa49807205ce4d355092ef5a8a18f56e8913cf4a201fbe287825b095693c21775826200078d565b503081604051620005099062000821565b6001600160a01b03928316815291166020820152604001604051809103905ff0801580156200053a573d5f803e3d5ffd5b50602180546001600160a01b0319166001600160a01b03928316178155335f818152600960209081526040808320805460ff199081166001908117909255308086528386208054831684179055601080548a1687528487208054841685179055878752600a8652848720805484168517905580548a16875284872080548416851790557f20677881080440a9b3c87e826370bb5d9c2f74efd4dede686d52d77a6a09f8bb805484168517905597548916865283862080548316841790558086528386208054831684179055601980548a16875284872080548416851790557fc90215bb1b0ac6bfa50a3c02c4b559c695b6a8e828048a88e327592fc55c5d2c8054841685179055878752601c8652848720805484168517905597548916865283862080548316841790557fa48bd8e7b1565515cde2859b6cc48308ba05b5325bcf90fb096b9ac0b8087dfc8054831684179055855282852080548216831790559554909616835280832080548616871790557fb1e2e88b6a3e9d36c6d6d48756ca9ed8312cfcb5a15208f81170ade3bd2b4a95805490951690951790935560045491815260079092529181208054909190620006f890849062000b1d565b909155505060045460405190815233905f907fddf252ad1be2c89b69c2b068fc378daa952ba7f163c4a11628f55a4df523b3ef9060200160405180910390a35062000b33565b5f80546001600160a01b038381166001600160a01b0319831681178455604051919092169283917f8be0079c531659141344cd1fd0a4f28419497f9722a3daafe3b4186f6b6457e09190a35050565b5f8281526001602090815260408083206001600160a01b038516845290915281205460ff1662000818575f8381526001602081815260408084206001600160a01b0387168086529252808420805460ff19169093179092559051339286917f2f8788117e7eff1d82e926ec794901d17c78024a50270940304540a733656f0d9190a45060016200081b565b505f5b92915050565b610862806200536383390190565b634e487b7160e01b5f52604160045260245ffd5b600181811c908216806200085857607f821691505b6020821081036200087757634e487b7160e01b5f52602260045260245ffd5b50919050565b601f821115620008ca575f81815260208120601f850160051c81016020861015620008a55750805b601f850160051c820191505b81811015620008c657828155600101620008b1565b5050505b505050565b81516001600160401b03811115620008eb57620008eb6200082f565b6200090381620008fc845462000843565b846200087d565b602080601f83116001811462000939575f8415620009215750858301515b5f19600386901b1c1916600185901b178555620008c6565b5f85815260208120601f198616915b82811015620009695788860151825594840194600190910190840162000948565b50858210156200098757878501515f19600388901b60f8161c191681555b5050505050600190811b01905550565b634e487b7160e01b5f52601160045260245ffd5b600181815b80851115620009eb57815f1904821115620009cf57620009cf62000997565b80851615620009dd57918102915b93841c9390800290620009b0565b509250929050565b5f8262000a03575060016200081b565b8162000a1157505f6200081b565b816001811462000a2a576002811462000a355762000a55565b60019150506200081b565b60ff84111562000a495762000a4962000997565b50506001821b6200081b565b5060208310610133831016604e8410600b841016171562000a7a575081810a6200081b565b62000a868383620009ab565b805f190482111562000a9c5762000a9c62000997565b029392505050565b5f62000ab460ff841683620009f3565b9392505050565b80820281158282048414176200081b576200081b62000997565b5f8262000af057634e487b7160e01b5f52601260045260245ffd5b500490565b5f6020828403121562000b06575f80fd5b81516001600160a01b038116811462000ab4575f80fd5b808201808211156200081b576200081b62000997565b60805161481062000b535f395f81816115cd015261160f01526148105ff3fe608060405260043610610402575f3560e01c8063658d4b7f11610215578063ab7573dd1161011e578063df20fd49116100a8578063f887ea4011610078578063f887ea4014610cce578063fbfa77cf14610ced578063fc2a88c314610d0c578063fd39ef7814610d21578063fd6e28cf14610d40575f80fd5b8063df20fd4914610c52578063f25c7ea414610c71578063f2fde38b14610c90578063f5415cbb14610caf575f80fd5b8063c6b61e4c116100ee578063c6b61e4c14610b72578063d02c639414610bc7578063d3a9ffc414610bdb578063d547741f14610bef578063dd62ed3e14610c0e575f80fd5b8063ab7573dd14610af8578063c26d68f914610b23578063c315432a14610b44578063c3ec889714610b5d575f80fd5b80638c5799ce1161019f57806396eb64a91161016f57806396eb64a914610a73578063a217fddf14610a92578063a8aa1b3114610aa5578063a9059cbb14610ac4578063aa9bbc0c14610ae3575f80fd5b80638c5799ce146109f65780638da5cb5b14610a2457806391d1485414610a4057806395d89b4114610a5f575f80fd5b806370a08231116101e557806370a0823114610965578063715018a61461098457806373a432bb1461099857806375b238fc146109b75780638796ba8c146109d7575f80fd5b8063658d4b7f146108f15780636789c92c146109105780636cbc2ded146109315780636ddd171314610945575f80fd5b80632198cf6c116103175780633eca5343116102a15780635119c971116102715780635119c9711461084f57806354d41b5b14610864578063571ac8b01461088f5780635bc04469146108ae578063636ee0db146108c3575f80fd5b80633eca5343146107d357806343d4f92b146108075780634726319f146108265780634e71d92d1461083b575f80fd5b80632f2ff15d116102e75780632f2ff15d1461073b578063313ce5671461075a57806331d7a2621461077557806336568abe146107a05780633aab0a62146107bf575f80fd5b80632198cf6c1461069757806323b872dd146106b6578063248a9ca3146106d55780632598cdb214610704575f80fd5b80630e04a7d81161039857806318160ddd1161036857806318160ddd14610627578063196228c01461063b5780631bd8ebe11461064f5780631ce78ac8146106645780631fe543e314610678575f80fd5b80630e04a7d8146105775780630f44e894146105955780631299d7f7146105bf5780631781e17c146105de575f80fd5b806305dc0394116103d357806305dc0394146104f4578063064a59d01461051757806306fdde0314610537578063095ea7b314610558575f80fd5b80627f27ae1461040d578063014c58a31461042e57806301ffc9a71461048c57806302b2553e146104ab575f80fd5b3661040957005b5f80fd5b348015610418575f80fd5b5061042c610427366004614151565b610d89565b005b348015610439575f80fd5b50610477610448366004614151565b6026545f9081526027602090815260408083206001600160a01b03909416835260049093019052205460ff1690565b60405190151581526020015b60405180910390f35b348015610497575f80fd5b506104776104a636600461416c565b611124565b3480156104b6575f80fd5b506104776104c5366004614151565b6026545f9081526027602090815260408083206001600160a01b03909416835260059093019052205460ff1690565b3480156104ff575f80fd5b5061050960295481565b604051908152602001610483565b348015610522575f80fd5b5060195461047790600160a01b900460ff1681565b348015610542575f80fd5b5061054b61115a565b6040516104839190614193565b348015610563575f80fd5b506104776105723660046141de565b6111ea565b348015610582575f80fd5b5060405461047790610100900460ff1681565b3480156105a0575f80fd5b506105096105af366004614151565b602080525f908152604090205481565b3480156105ca575f80fd5b5061042c6105d9366004614208565b611255565b3480156105e9575f80fd5b506104776105f8366004614151565b6026545f9081526027602090815260408083206001600160a01b03909416835260089093019052205460ff1690565b348015610632575f80fd5b50600454610509565b348015610646575f80fd5b5061042c611272565b34801561065a575f80fd5b5061050960285481565b34801561066f575f80fd5b5061042c61158c565b348015610683575f80fd5b5061042c610692366004614287565b6115c2565b3480156106a2575f80fd5b5061042c6106b1366004614338565b611646565b3480156106c1575f80fd5b506104776106d036600461436b565b611678565b3480156106e0575f80fd5b506105096106ef366004614208565b5f908152600160208190526040909120015490565b34801561070f575f80fd5b50601054610723906001600160a01b031681565b6040516001600160a01b039091168152602001610483565b348015610746575f80fd5b5061042c6107553660046143a9565b61174b565b348015610765575f80fd5b5060405160128152602001610483565b348015610780575f80fd5b5061050961078f366004614151565b601f6020525f908152604090205481565b3480156107ab575f80fd5b5061042c6107ba3660046143a9565b611776565b3480156107ca575f80fd5b5061042c6117ae565b3480156107de575f80fd5b506107236107ed366004614151565b601d6020525f90815260409020546001600160a01b031681565b348015610812575f80fd5b5061042c610821366004614151565b611833565b348015610831575f80fd5b5061050960335481565b348015610846575f80fd5b5061042c611893565b34801561085a575f80fd5b5061050960425481565b34801561086f575f80fd5b5061050961087e366004614151565b60236020525f908152604090205481565b34801561089a575f80fd5b506104776108a9366004614151565b611a8f565b3480156108b9575f80fd5b50610509602a5481565b3480156108ce575f80fd5b506104776108dd366004614151565b601c6020525f908152604090205460ff1681565b3480156108fc575f80fd5b5061042c61090b366004614338565b611a9b565b34801561091b575f80fd5b50610924611acd565b6040516104839190614419565b34801561093c575f80fd5b5061042c611b39565b348015610950575f80fd5b5060195461047790600160a81b900460ff1681565b348015610970575f80fd5b5061050961097f366004614151565b611c8e565b34801561098f575f80fd5b5061042c611ca8565b3480156109a3575f80fd5b5061042c6109b2366004614151565b611cb9565b3480156109c2575f80fd5b506105095f805160206147bb83398151915281565b3480156109e2575f80fd5b506105096109f1366004614208565b611cfa565b348015610a01575f80fd5b50610477610a10366004614151565b60246020525f908152604090205460ff1681565b348015610a2f575f80fd5b505f546001600160a01b0316610723565b348015610a4b575f80fd5b50610477610a5a3660046143a9565b611d19565b348015610a6a575f80fd5b5061054b611d43565b348015610a7e575f80fd5b5061042c610a8d366004614151565b611d52565b348015610a9d575f80fd5b506105095f81565b348015610ab0575f80fd5b50601954610723906001600160a01b031681565b348015610acf575f80fd5b50610477610ade3660046141de565b611ede565b348015610aee575f80fd5b5061050960265481565b348015610b03575f80fd5b50610509610b12366004614151565b601e6020525f908152604090205481565b348015610b2e575f80fd5b50610b37611f0f565b604051610483919061442b565b348015610b4f575f80fd5b506040546104779060ff1681565b348015610b68575f80fd5b5061050960435481565b348015610b7d575f80fd5b50610bac610b8c366004614208565b60276020525f908152604090208054600182015460029092015490919083565b60408051938452602084019290925290820152606001610483565b348015610bd2575f80fd5b5061042c611f4e565b348015610be6575f80fd5b5061042c611f5e565b348015610bfa575f80fd5b5061042c610c093660046143a9565b612300565b348015610c19575f80fd5b50610509610c28366004614464565b6001600160a01b039182165f90815260086020908152604080832093909416825291909152205490565b348015610c5d575f80fd5b5061042c610c6c366004614490565b612325565b348015610c7c575f80fd5b5061042c610c8b366004614208565b6123a0565b348015610c9b575f80fd5b5061042c610caa366004614151565b612423565b348015610cba575f80fd5b5061042c610cc93660046144aa565b61245d565b348015610cd9575f80fd5b50601854610723906001600160a01b031681565b348015610cf8575f80fd5b50602154610723906001600160a01b031681565b348015610d17575f80fd5b5061050960145481565b348015610d2c575f80fd5b5061042c610d3b366004614208565b6126b3565b348015610d4b575f80fd5b50610477610d5a366004614151565b6026545f9081526027602090815260408083206001600160a01b03909416835260039093019052205460ff1690565b6001600160a01b0381163314610dd75760405162461bcd60e51b815260206004820152600e60248201526d139bdd08185d5d1a1bdc9a5e995960921b60448201526064015b60405180910390fd5b6026545f908152602760205260409020600201544210610e095760405162461bcd60e51b8152600401610dce9061453f565b6026545f9081526027602090815260408083203384526007019091528120549003610e8d5760405162461bcd60e51b815260206004820152602e60248201527f596f7520686176656e277420626f7567687420612063617073756c652064757260448201526d0d2dcce40e8d0d2e640cae0dec6d60931b6064820152608401610dce565b6026545f90815260276020908152604080832033845260050190915290205460ff1615610f075760405162461bcd60e51b815260206004820152602260248201527f596f7527766520616c7265616479206f70656e656420796f75722063617073756044820152616c6560f01b6064820152608401610dce565b6026545f90815260276020908152604080832033845260080190915290205460ff161515600114610f8a5760405162461bcd60e51b815260206004820152602760248201527f596f75722072657175657374206861736e2774206265656e2066756c6c66696c6044820152661b1959081e595d60ca1b6064820152608401610dce565b6026545f908152602760209081526040808320338452600701909152812054610fb2906126d0565b905060018110158015610fc6575060288111155b1561100357602f8054905f610fda83614597565b9091555050602b8054905f610fee83614597565b9190505550610fff8260015f61280f565b5050565b602981101580156110155750604b8111155b1561104e5760308054905f61102983614597565b9091555050602c8054905f61103d83614597565b9190505550610fff8260025f61280f565b604c8110158015611060575060618111155b156110995760318054905f61107483614597565b9091555050602d8054905f61108883614597565b9190505550610fff8260035f61280f565b606281101580156110ac57506022548111155b15610fff5760328054905f6110c083614597565b9091555050602e8054905f6110d483614597565b90915550506026545f9081526027602090815260408220600901805460018082018355918452919092200180546001600160a01b0319166001600160a01b038516179055610fff9083908061280f565b5f6001600160e01b03198216637965db0b60e01b148061115457506301ffc9a760e01b6001600160e01b03198316145b92915050565b606060028054611169906145af565b80601f0160208091040260200160405190810160405280929190818152602001828054611195906145af565b80156111e05780601f106111b7576101008083540402835291602001916111e0565b820191905f5260205f20905b8154815290600101906020018083116111c357829003601f168201915b5050505050905090565b335f8181526008602090815260408083206001600160a01b038716808552925280832085905551919290917f8c5be1e5ebec7d5bd14f71427d1e84f3dd0314c0f7b2291e5b200ac8c7c3b925906112449086815260200190565b60405180910390a350600192915050565b5f805160206147bb83398151915261126c81612908565b50602a55565b5f6103e8602a546102ee61128691906145e1565b611290919061460c565b6026545f90815260276020908152604080832033845260030190915290205490915060ff161561131e5760405162461bcd60e51b815260206004820152603360248201527f596f752068617665206f6e6c79206f6e6520616374696f6e207065722065706f6044820152726368203a20627579206f72207570677261646560681b6064820152608401610dce565b6026545f90815260276020908152604080832033845260040190915290205460ff16156113ac5760405162461bcd60e51b815260206004820152603660248201527f596f7527766520616c726561647920757067726164656420796f7572207661636044820152750c6d2dcca40c8eae4d2dcce40e8d0d2e640cae0dec6d60531b6064820152608401610dce565b335f90815260236020526040902054158015906113d75750335f908152602360205260409020546003115b61142f5760405162461bcd60e51b815260206004820152602360248201527f596f7520646f6e2774206861766520612076616363696e6520746f207570677260448201526261646560e81b6064820152608401610dce565b8061143933611c8e565b10156114995760405162461bcd60e51b815260206004820152602960248201527f4e6f7420656e6f75676820746f6b656e7320746f207570677261646520796f75604482015268722076616363696e6560b81b6064820152608401610dce565b6026545f9081526027602052604090206002015442106114cb5760405162461bcd60e51b8152600401610dce9061453f565b604054610100900460ff16156114f35760405162461bcd60e51b8152600401610dce9061461f565b6026545f9081526027602090815260408083203384526004019091528120805460ff191660011790556103e861152a8360326145e1565b611534919061460c565b6021549091505f9061155a9033906001600160a01b03166115558587614645565b612912565b9050611567333084612912565b50335f90815260236020526040812080549161158283614597565b9190505550505050565b6115946129b6565b6019805461ffff60a01b191661010160a01b179081905560ff600160a01b90910416156115c057426049555b565b336001600160a01b037f0000000000000000000000000000000000000000000000000000000000000000161461163c5760405163073e64fd60e21b81523360048201526001600160a01b037f0000000000000000000000000000000000000000000000000000000000000000166024820152604401610dce565b610fff82826129e2565b61164e6129b6565b6001600160a01b03919091165f908152600a60205260409020805460ff1916911515919091179055565b6001600160a01b0383165f9081526008602090815260408083203384529091528120548211156116fb5760405162461bcd60e51b815260206004820152602860248201527f45524332303a207472616e7366657220616d6f756e74206578636565647320616044820152676c6c6f77616e636560c01b6064820152608401610dce565b611706848484612ae5565b506001600160a01b0384165f9081526008602090815260408083203380855292529091205461174191869161173c908690614645565b612ed5565b5060019392505050565b5f828152600160208190526040909120015461176681612908565b6117708383612ff8565b50505050565b6001600160a01b038116331461179f5760405163334bd91960e11b815260040160405180910390fd5b6117a9828261306e565b505050565b5f805160206147bb8339815191526117c581612908565b604054610100900460ff16156117ed5760405162461bcd60e51b8152600401610dce9061461f565b6117f56130d9565b7fa7ef457c4bdaa5cf9805314ebb0d85316230de6508df8ba03db8e27901cc147d60265460405161182891815260200190565b60405180910390a150565b61183b6129b6565b601080546001600160a01b0319166001600160a01b0392831690811782555f908152600960209081526040808320805460ff19908116600190811790925594549095168352600a909152902080549091169091179055565b3332146118ca5760405162461bcd60e51b815260206004820152600560248201526432b93937b960d91b6044820152606401610dce565b335f908152601f602052604090205461191a5760405162461bcd60e51b81526020600482015260126024820152716e6f2070656e64696e67207265776172647360701b6044820152606401610dce565b335f908152601f6020908152604082208054908390556001835260279091527fb6915e519d5f9dd23c62986e48578ddfa8cde5c92608222904fd87ad04df4fff5490919042101561198b5760646119728360196145e1565b61197c919061460c565b90506119888183614645565b91505b80156119ab576021546119a99030906001600160a01b031683612912565b505b5f6119b7303385612912565b9050806119f85760405162461bcd60e51b815260206004820152600f60248201526e1d1c985b9cd9995c8819985a5b1959608a1b6044820152606401610dce565b335f908152601e602052604081208054859290611a16908490614658565b925050819055508260425f828254611a2e9190614658565b925050819055508260415f828254611a469190614645565b90915550611a5490506132a2565b60405183815233907f620fc7379f7c67f4289f23e24a7f28f721792b0e898e2af03581b2e73e604a53906020015b60405180910390a2505050565b5f611154825f196111ea565b611aa36129b6565b6001600160a01b03919091165f908152600960205260409020805460ff1916911515919091179055565b6026545f908152602760209081526040918290206009018054835181840281018401909452808452606093928301828280156111e057602002820191905f5260205f20905b81546001600160a01b03168152600190910190602001808311611b12575050505050905090565b5f805160206147bb833981519152611b5081612908565b604954611b609062093a80614658565b421015611ba45760405162461bcd60e51b815260206004820152601260248201527143616e277420656e64207468652067616d6560701b6044820152606401610dce565b604054610100900460ff1615611bf35760405162461bcd60e51b815260206004820152601460248201527323b0b6b29034b99030b63932b0b23c9037bb32b960611b6044820152606401610dce565b6040805461ff0019166101001781556026545f9081526027602052206009015415611c8b576021546026545f9081526027602052604090819020905163f25addf560e01b81526001600160a01b039092169163f25addf591611c5d9160099091019060040161466b565b5f604051808303815f87803b158015611c74575f80fd5b505af1158015611c86573d5f803e3d5ffd5b505050505b50565b6001600160a01b03165f9081526007602052604090205490565b611cb06129b6565b6115c05f613495565b611cc16129b6565b601980546001600160a01b039092166001600160a01b0319909216821790555f908152600a60205260409020805460ff19166001179055565b60138181548110611d09575f80fd5b5f91825260209091200154905081565b5f9182526001602090815260408084206001600160a01b0393909316845291905290205460ff1690565b606060038054611169906145af565b6001600160a01b0381165f908152601c602052604090205460ff1615611dad5760405162461bcd60e51b815260206004820152601060248201526f105b1c9958591e481a5b999958dd195960821b6044820152606401610dce565b6001611db833611c8e565b1015611e065760405162461bcd60e51b815260206004820152601b60248201527f4e6f7420656e6f75676820746f6b656e7320746f20696e6665637400000000006044820152606401610dce565b335f908152601c602052604090205460ff161515600114611e5f5760405162461bcd60e51b8152602060048201526013602482015272165bdd49dc99481b9bdd081a5b999958dd1959606a1b6044820152606401610dce565b6001600160a01b0381165f908152601d6020908152604080832080546001600160a01b03191633908117909155601c8352818420805460ff1916600117905583529080528120805491611eb183614597565b909155505060438054905f611ec583614597565b91905055505f6117a93383670de0b6b3a7640000612912565b6019545f906001600160a01b03163303611f0457611efd338484612ae5565b9050611154565b611efd338484612912565b611f1761407a565b6040805160a0810191829052604480546001600160a01b031682529091600590604560208501808311611b12575050505050905090565b611f566129b6565b600454600655565b602a54335f908152601c602052604090205460ff16611fb65760405162461bcd60e51b8152602060048201526014602482015273165bdd48185c99481b9bdd081a5b999958dd195960621b6044820152606401610dce565b60405460ff166120085760405162461bcd60e51b815260206004820152601760248201527f47616d65206973206e6f742073746172746564207965740000000000000000006044820152606401610dce565b604054610100900460ff16156120305760405162461bcd60e51b8152600401610dce9061461f565b8061203a33611c8e565b10156120935760405162461bcd60e51b815260206004820152602260248201527f4e6f7420656e6f75676820746f6b656e7320746f2062757920612063617073756044820152616c6560f01b6064820152608401610dce565b6026545f9081526027602052604090206002015442106120c55760405162461bcd60e51b8152600401610dce9061453f565b6026545f90815260276020908152604080832033845260030190915290205460ff161561214e5760405162461bcd60e51b815260206004820152603160248201527f596f7527766520616c726561647920626f7567687420612063617073756c65206044820152700c8eae4d2dcce40e8d0d2e640cae0dec6d607b1b6064820152608401610dce565b6026545f90815260276020908152604080832033845260040190915290205460ff16156121d95760405162461bcd60e51b815260206004820152603360248201527f596f75206f6e6c792068617665206f6e6520616374696f6e207065722065706f6044820152726368203a20627579206f72207570677261646560681b6064820152608401610dce565b60298054905f6121e883614597565b909155505060288054905f6121fc83614597565b90915550506026545f9081526027602090815260408083203384526003019091528120805460ff191660011790556103e86122388360c86145e1565b612242919061460c565b90506122513361dead83612912565b506021545f906122709033906001600160a01b03166115558587614645565b90505f61227b6134e4565b602680545f908152602760208181526040808420868552600601825280842080546001600160a01b03191633908117909155945484529181528183208484526007018152918190208490555183815292935090917f56e18f08766f396148d5b13331a86d9ce4ea3d9c08821cf829ccf881a6fff8bf910160405180910390a250505050565b5f828152600160208190526040909120015461231b81612908565b611770838361306e565b61232d6129b6565b600181101561237e5760405162461bcd60e51b815260206004820152601f60248201527f43616e27742073657420537761705468726573686f6c6420746f205a45524f006044820152606401610dce565b60198054921515600160a81b0260ff60a81b1990931692909217909155601a55565b5f805160206147bb8339815191526123b781612908565b602e5482101561241d5760405162461bcd60e51b815260206004820152602b60248201527f43616e2774207265647563652076616363696e6520737570706c79206475726960448201526a0dcce40c2dc40cae0dec6d60ab1b6064820152608401610dce565b50603355565b61242b6129b6565b6001600160a01b03811661245457604051631e4fbdf760e01b81525f6004820152602401610dce565b611c8b81613495565b6124656129b6565b5f5b8151811015610fff57601c5f838381518110612485576124856146ba565b6020908102919091018101516001600160a01b031682528101919091526040015f205460ff16156124eb5760405162461bcd60e51b815260206004820152601060248201526f105b1c9958591e481a5b999958dd195960821b6044820152606401610dce565b60016124f633611c8e565b10156125445760405162461bcd60e51b815260206004820152601b60248201527f6e6f7420656e6f75676820746f6b656e7320746f20696e6665637400000000006044820152606401610dce565b335f908152601c602052604090205460ff1615156001146125965760405162461bcd60e51b815260206004820152600c60248201526b1b9bdd081a5b999958dd195960a21b6044820152606401610dce565b33601d5f8484815181106125ac576125ac6146ba565b60200260200101516001600160a01b03166001600160a01b031681526020019081526020015f205f6101000a8154816001600160a01b0302191690836001600160a01b031602179055506001601c5f84848151811061260d5761260d6146ba565b6020908102919091018101516001600160a01b031682528181019290925260409081015f908120805460ff191694151594909417909355338352908052812080549161265883614597565b909155505060438054905f61266c83614597565b91905055505f61269e33848481518110612688576126886146ba565b6020026020010151670de0b6b3a7640000612912565b508190506126ab81614597565b915050612467565b5f805160206147bb8339815191526126ca81612908565b50602255565b5f81815260176020526040812054610100900460ff166127265760405162461bcd60e51b81526020600482015260116024820152701c995c5d595cdd081b9bdd08199bdd5b99607a1b6044820152606401610dce565b5f8281526017602090815260408083208151606081018352815460ff808216151583526101009091041615158185015260018201805484518187028101870186528181529295939486019383018282801561279e57602002820191905f5260205f20905b81548152602001906001019080831161278a575b5050505050815250509050603354602e54106127f057606181604001515f815181106127cc576127cc6146ba565b60200260200101516127de91906146ce565b6127e9906001614658565b9392505050565b60225481604001515f815181106127cc576127cc6146ba565b50919050565b6001600160a01b0383165f9081526024602052604090205460ff16612891576025805460018082019092557f401968ff42a154441da5f6c4c935ac46b8671f0e062baaa62a7545ba53bb6e4c0180546001600160a01b0319166001600160a01b0386169081179091555f908152602460205260409020805460ff191690911790555b6001600160a01b0383165f818152602360209081526040808320869055602654835260278252808320848452600501825291829020805460ff191660011790558151858152841515918101919091527fc05909672b3730633581d6cf7b807382b3572d7805ace294b8d4b3558c5cc7ff9101611a82565b611c8b813361369a565b6001600160a01b0383165f90815260076020526040812054612935908390614645565b6001600160a01b038086165f908152600760205260408082209390935590851681522054612964908390614658565b6001600160a01b038085165f8181526007602052604090819020939093559151908616905f8051602061479b833981519152906129a49086815260200190565b60405180910390a35060019392505050565b5f546001600160a01b031633146115c05760405163118cdaa760e01b8152336004820152602401610dce565b5f82815260176020526040902054610100900460ff16612a385760405162461bcd60e51b81526020600482015260116024820152701c995c5d595cdd081b9bdd08199bdd5b99607a1b6044820152606401610dce565b5f828152601760209081526040909120805460ff1916600190811782558351612a68939290910191840190614098565b506026545f908152602760209081526040808320858452600681018352818420546001600160a01b0316845260080190915290819020805460ff19166001179055517ffe2e2d779dba245964d4e3ef9b994be63856fd568bf7d3ca9e224755cb1bd54d90612ad990849084906146e1565b60405180910390a15050565b6001600160a01b0383165f9081526009602052604081205460ff1680612b2257506001600160a01b0383165f9081526009602052604090205460ff165b80612b365750601954600160a01b900460ff165b612b825760405162461bcd60e51b815260206004820152601b60248201527f4e6f7420617574686f72697a656420746f2074726164652079657400000000006044820152606401610dce565b6019546001600160a01b03848116911614612bed576001600160a01b0383165f908152601c602052604090205460ff16612bed5760405162461bcd60e51b815260206004820152600c60248201526b139bdd081a5b999958dd195960a21b6044820152606401610dce565b604054610100900460ff168015612c1257506019546001600160a01b03848116911614155b15612ca157612c2e5f805160206147bb83398151915285611d19565b80612c4b5750612c4b5f805160206147bb83398151915284611d19565b612ca15760405162461bcd60e51b815260206004820152602160248201527f47616d65206973206f7665722c206f6e6c792061646d696e732063616e2062756044820152607960f81b6064820152608401610dce565b5f546001600160a01b03858116911614801590612ccb57505f546001600160a01b03848116911614155b8015612ce257506001600160a01b03831661dead14155b15612da6576019546001600160a01b03848116911614612da6576001600160a01b0383165f908152600a602052604090205460ff1680612d4657506006546001600160a01b0384165f90815260076020526040902054612d43908490614658565b11155b612da65760405162461bcd60e51b815260206004820152602b60248201527f5472616e7366657220616d6f756e74206578636565647320746865204d61785760448201526a30b63632ba1039b4bd329760a91b6064820152608401610dce565b612dae6136d3565b8015612dc757506019546001600160a01b038481169116145b15612dd457612dd4613730565b6001600160a01b0384165f90815260076020526040902054612df7908390614645565b6001600160a01b0385165f90815260076020908152604080832093909355600990529081205460ff16151580612e4657506001600160a01b0384165f9081526009602052604090205460ff1615155b612e5a57612e55858585613908565b612e5c565b825b6001600160a01b0385165f90815260076020526040902054909150612e82908290614658565b6001600160a01b038086165f8181526007602052604090819020939093559151908716905f8051602061479b83398151915290612ec29085815260200190565b60405180910390a3506001949350505050565b6001600160a01b038316612f375760405162461bcd60e51b8152602060048201526024808201527f45524332303a20617070726f76652066726f6d20746865207a65726f206164646044820152637265737360e01b6064820152608401610dce565b6001600160a01b038216612f985760405162461bcd60e51b815260206004820152602260248201527f45524332303a20617070726f766520746f20746865207a65726f206164647265604482015261737360f01b6064820152608401610dce565b6001600160a01b038381165f8181526008602090815260408083209487168084529482529182902085905590518481527f8c5be1e5ebec7d5bd14f71427d1e84f3dd0314c0f7b2291e5b200ac8c7c3b925910160405180910390a3505050565b5f6130038383611d19565b613067575f8381526001602081815260408084206001600160a01b0387168086529252808420805460ff19169093179092559051339286917f2f8788117e7eff1d82e926ec794901d17c78024a50270940304540a733656f0d9190a4506001611154565b505f611154565b5f6130798383611d19565b15613067575f8381526001602090815260408083206001600160a01b0386168085529252808320805460ff1916905551339286917ff6391f5c32d9c69d2a47ea670b442974b53935d1edc7fd64eb21e047a839171b9190a4506001611154565b6026545f9081526027602052604090206009015415613165576021546026545f9081526027602052604090819020905163f25addf560e01b81526001600160a01b039092169163f25addf5916131379160099091019060040161466b565b5f604051808303815f87803b15801561314e575f80fd5b505af1158015613160573d5f803e3d5ffd5b505050505b60268054905f61317483614597565b90915550506026545f8181526027602052604090209081554260019091018190556131a29062014370614658565b6026545f90815260276020526040812060020191909155602b819055602c819055602d819055602e81905560288190555b602554811015613281575f60235f602584815481106131f4576131f46146ba565b5f9182526020808320909101546001600160a01b03168352820192909252604001902054111561326f57600160235f60258481548110613236576132366146ba565b5f9182526020808320909101546001600160a01b0316835282019290925260400181208054909190613269908490614645565b90915550505b8061327981614597565b9150506131d3565b5060405460ff1661329a576040805460ff191660011790555b6115c0613da0565b336132ab61407a565b6132b361407a565b5f805b600581101561331957601e5f604483600581106132d5576132d56146ba565b01546001600160a01b0316815260208101919091526040015f2054848260058110613302576133026146ba565b60200201528061331181614597565b9150506132b6565b505f5b600581101561336857846001600160a01b031660448260058110613342576133426146ba565b01546001600160a01b031603613356578091505b8061336081614597565b91505061331c565b506001600160a01b0384165f908152601e6020526040902054835110801561339b575061339760016005614645565b8114155b1561177057805f036133b4576001600160a01b03841682525b5f6133c0826001614658565b90505b6005811015613487576001600160a01b0385165f908152601e60205260409020548482600581106133f6576133f66146ba565b602002015110156134755760448160058110613414576134146146ba565b01546001600160a01b03168361342b600184614645565b6005811061343b5761343b6146ba565b6001600160a01b03909216602092909202015284838260058110613461576134616146ba565b6001600160a01b0390921660209290920201525b8061347f81614597565b9150506133c3565b50611c8660448360056140e1565b5f80546001600160a01b038381166001600160a01b0319831681178455604051919092169283917f8be0079c531659141344cd1fd0a4f28419497f9722a3daafe3b4186f6b6457e09190a35050565b6012546015546016546040516305d3b1d360e41b81526004810192909252600160a01b830467ffffffffffffffff166024830152640100000000810461ffff16604483015263ffffffff808216606484015266010000000000009091041660848201525f916001600160a01b031690635d3b1d309060a4016020604051808303815f875af1158015613578573d5f803e3d5ffd5b505050506040513d601f19601f8201168201806040525081019061359c919061472d565b604080516060810182525f8082526001602080840182815285518481528083018752858701908152878552601783529590932084518154945161ffff1990951690151561ff001916176101009415159490940293909317835593518051959650929491936136109391850192910190614098565b5050601380546001810182555f919091527f66de8ffda797e3de9c05e8fc57b3bf0ec28a930d40b0d285d93c06501cf6a0900182905550601481905560165460408051838152660100000000000090920463ffffffff1660208301527fcc58b13ad3eab50626c6a6300b1d139cd6ebb1688a7cced9461c2f7e762665ee910160405180910390a190565b6136a48282611d19565b610fff5760405163e2517d3f60e01b81526001600160a01b038216600482015260248101839052604401610dce565b6019545f906001600160a01b031633148015906136f35750601b5460ff16155b80156137085750601954600160a81b900460ff165b801561372b5750601a5460415461371e30611c8e565b6137289190614645565b10155b905090565b601b805460ff191660011790556041545f9061374b30611c8e565b6137559190614645565b6040805160028082526060820183529293505f92909160208301908036833701905050905030815f8151811061378d5761378d6146ba565b6001600160a01b03928316602091820292909201810191909152601854604080516315ab88c960e31b81529051919093169263ad5c46489260048083019391928290030181865afa1580156137e4573d5f803e3d5ffd5b505050506040513d601f19601f820116820180604052508101906138089190614744565b8160018151811061381b5761381b6146ba565b6001600160a01b0392831660209182029290920101526018541663791ac947835f843061384a4261012c614658565b6040518663ffffffff1660e01b815260040161386a95949392919061475f565b5f604051808303815f87803b158015613881575f80fd5b505af1158015613893573d5f803e3d5ffd5b5047925050811590506138f9576010546040515f916001600160a01b03169061753090849084818181858888f193505050503d805f81146138ef576040519150601f19603f3d011682016040523d82523d5f602084013e6138f4565b606091505b505050505b5050601b805460ff1916905550565b6019545f9081908190819081906001600160a01b03898116911614801561393d57506019546001600160a01b03888116911614155b15613ae2576001600160a01b0387165f908152602360205260409020546001036139ee5760036127106034548861397491906145e1565b61397e919061460c565b613988919061460c565b6001600160a01b038089165f908152601d60209081526040808320549093168252601f9052908120805492965086955085945084929091906139cb908490614658565b925050819055508260415f8282546139e39190614658565b90915550613caa9050565b6001600160a01b0387165f90815260236020526040902054600203613a9a57600361271060355488613a2091906145e1565b613a2a919061460c565b613a34919061460c565b6001600160a01b038089165f908152601d60209081526040808320549093168252601f905290812080549296508695508594508492909190613a77908490614658565b925050819055508260415f828254613a8f9190614658565b90915550613add9050565b6001600160a01b0387165f90815260236020526040902054600303613acc57600361271060365488613a2091906145e1565b612710600c548761397e91906145e1565b613caa565b6019546001600160a01b03898116911614801590613b0d57506019546001600160a01b038881169116145b15613caa57604054610100900460ff1615613b4157612710613b3087600a6145e1565b613b3a919061460c565b9350613caa565b6001600160a01b0388165f90815260236020526040902054600103613bca57600361271060375488613b7391906145e1565b613b7d919061460c565b613b87919061460c565b6001600160a01b03808a165f908152601d60209081526040808320549093168252601f9052908120805492965086955085945084929091906139cb908490614658565b6001600160a01b0388165f90815260236020526040902054600203613bfc57600361271060385488613b7391906145e1565b6001600160a01b0388165f90815260236020526040902054600303613c2e57600361271060395488613b7391906145e1565b612710600e5487613c3f91906145e1565b613c49919061460c565b6001600160a01b03808a165f908152601d60209081526040808320549093168252601f905290812080549296508695508594508492909190613c8c908490614658565b925050819055508260415f828254613ca49190614658565b90915550505b81613cb58486614658565b613cbf9190614658565b90508015613d8a57613cd18282614645565b305f9081526007602052604081208054909190613cef908490614658565b90915550506021546001600160a01b03165f9081526007602052604081208054849290613d1d908490614658565b909155503090506001600160a01b0389165f8051602061479b833981519152613d468585614645565b60405190815260200160405180910390a36021546040518381526001600160a01b03918216918a16905f8051602061479b8339815191529060200160405180910390a35b613d948187614645565b98975050505050505050565b600554613dd3600554602654603a54613db991906145e1565b613dc49060646145e1565b613dce91906145e1565b613eee565b600b54613de09190614645565b613dea919061460c565b603455600554602654603b54613e06918391613db991906145e1565b600b54613e139190614645565b613e1d919061460c565b603555600554602654603c54613e39918391613db991906145e1565b600b54613e469190614645565b613e50919061460c565b603655600554602654603d54613e6c918391613db991906145e1565b600d54613e799190614645565b613e83919061460c565b603755600554602654603e54613e9f918391613db991906145e1565b600d54613eac9190614645565b613eb6919061460c565b603855600554602654603f54613ed2918391613db991906145e1565b600d54613edf9190614645565b613ee9919061460c565b603955565b5f815f03613efd57505f919050565b5f6001613f0984613fd2565b901c6001901b90506001818481613f2257613f226145f8565b048201901c90506001818481613f3a57613f3a6145f8565b048201901c90506001818481613f5257613f526145f8565b048201901c90506001818481613f6a57613f6a6145f8565b048201901c90506001818481613f8257613f826145f8565b048201901c90506001818481613f9a57613f9a6145f8565b048201901c90506001818481613fb257613fb26145f8565b048201901c90506127e981828581613fcc57613fcc6145f8565b04614065565b5f80608083901c15613fe657608092831c92015b604083901c15613ff857604092831c92015b602083901c1561400a57602092831c92015b601083901c1561401c57601092831c92015b600883901c1561402e57600892831c92015b600483901c1561404057600492831c92015b600283901c1561405257600292831c92015b600183901c156111545760010192915050565b5f81831061407357816127e9565b5090919050565b6040518060a001604052806005906020820280368337509192915050565b828054828255905f5260205f209081019282156140d1579160200282015b828111156140d15782518255916020019190600101906140b6565b506140dd929150614129565b5090565b82600581019282156140d1579160200282015b828111156140d157825182546001600160a01b0319166001600160a01b039091161782556020909201916001909101906140f4565b5b808211156140dd575f815560010161412a565b6001600160a01b0381168114611c8b575f80fd5b5f60208284031215614161575f80fd5b81356127e98161413d565b5f6020828403121561417c575f80fd5b81356001600160e01b0319811681146127e9575f80fd5b5f6020808352835180828501525f5b818110156141be578581018301518582016040015282016141a2565b505f604082860101526040601f19601f8301168501019250505092915050565b5f80604083850312156141ef575f80fd5b82356141fa8161413d565b946020939093013593505050565b5f60208284031215614218575f80fd5b5035919050565b634e487b7160e01b5f52604160045260245ffd5b604051601f8201601f1916810167ffffffffffffffff8111828210171561425c5761425c61421f565b604052919050565b5f67ffffffffffffffff82111561427d5761427d61421f565b5060051b60200190565b5f8060408385031215614298575f80fd5b8235915060208084013567ffffffffffffffff8111156142b6575f80fd5b8401601f810186136142c6575f80fd5b80356142d96142d482614264565b614233565b81815260059190911b820183019083810190888311156142f7575f80fd5b928401925b82841015614315578335825292840192908401906142fc565b80955050505050509250929050565b80358015158114614333575f80fd5b919050565b5f8060408385031215614349575f80fd5b82356143548161413d565b915061436260208401614324565b90509250929050565b5f805f6060848603121561437d575f80fd5b83356143888161413d565b925060208401356143988161413d565b929592945050506040919091013590565b5f80604083850312156143ba575f80fd5b8235915060208301356143cc8161413d565b809150509250929050565b5f8151808452602080850194508084015f5b8381101561440e5781516001600160a01b0316875295820195908201906001016143e9565b509495945050505050565b602081525f6127e960208301846143d7565b60a0810181835f5b600581101561445b5781516001600160a01b0316835260209283019290910190600101614433565b50505092915050565b5f8060408385031215614475575f80fd5b82356144808161413d565b915060208301356143cc8161413d565b5f80604083850312156144a1575f80fd5b6141fa83614324565b5f60208083850312156144bb575f80fd5b823567ffffffffffffffff8111156144d1575f80fd5b8301601f810185136144e1575f80fd5b80356144ef6142d482614264565b81815260059190911b8201830190838101908783111561450d575f80fd5b928401925b828410156145345783356145258161413d565b82529284019290840190614512565b979650505050505050565b60208082526024908201527f45706f6368206973206f7665722c207761697420666f7220746865206e657874604082015263206f6e6560e01b606082015260800190565b634e487b7160e01b5f52601160045260245ffd5b5f600182016145a8576145a8614583565b5060010190565b600181811c908216806145c357607f821691505b60208210810361280957634e487b7160e01b5f52602260045260245ffd5b808202811582820484141761115457611154614583565b634e487b7160e01b5f52601260045260245ffd5b5f8261461a5761461a6145f8565b500490565b6020808252600c908201526b23b0b6b29034b99037bb32b960a11b604082015260600190565b8181038181111561115457611154614583565b8082018082111561115457611154614583565b602080825282548282018190525f8481528281209092916040850190845b818110156146ae5783546001600160a01b031683526001938401939285019201614689565b50909695505050505050565b634e487b7160e01b5f52603260045260245ffd5b5f826146dc576146dc6145f8565b500690565b5f60408201848352602060408185015281855180845260608601915082870193505f5b8181101561472057845183529383019391830191600101614704565b5090979650505050505050565b5f6020828403121561473d575f80fd5b5051919050565b5f60208284031215614754575f80fd5b81516127e98161413d565b85815284602082015260a060408201525f61477d60a08301866143d7565b6001600160a01b039490941660608301525060800152939250505056feddf252ad1be2c89b69c2b068fc378daa952ba7f163c4a11628f55a4df523b3efa49807205ce4d355092ef5a8a18f56e8913cf4a201fbe287825b095693c21775a2646970667358221220682a83256c627a6d583130ea63c7757475d5d34c523e09a00ef1158a3d66e40464736f6c6343000814003360806040526a14adf4b7320334b90000006003555f600455348015610022575f80fd5b5060405161086238038061086283398101604081905261004191610113565b806001600160a01b03811661006f57604051631e4fbdf760e01b81525f600482015260240160405180910390fd5b610078816100a9565b5050600180546001600160a01b039092166001600160a01b0319928316811790915560028054909216179055610144565b5f80546001600160a01b038381166001600160a01b0319831681178455604051919092169283917f8be0079c531659141344cd1fd0a4f28419497f9722a3daafe3b4186f6b6457e09190a35050565b80516001600160a01b038116811461010e575f80fd5b919050565b5f8060408385031215610124575f80fd5b61012d836100f8565b915061013b602084016100f8565b90509250929050565b610711806101515f395ff3fe608060405234801561000f575f80fd5b5060043610610085575f3560e01c8063efca2eed11610058578063efca2eed146100d7578063f25addf5146100ee578063f2fde38b14610101578063fc0c546a14610114575f80fd5b8063715018a614610089578063853828b6146100935780638da5cb5b1461009b5780639d76ea58146100c4575b5f80fd5b610091610127565b005b61009161013a565b5f546001600160a01b03165b6040516001600160a01b0390911681526020015b60405180910390f35b6002546100a7906001600160a01b031681565b6100e060045481565b6040519081526020016100bb565b6100916100fc36600461054d565b610225565b61009161010f36600461060d565b610469565b6001546100a7906001600160a01b031681565b61012f6104a3565b6101385f6104cf565b565b6101426104a3565b6001546040516370a0823160e01b81523060048201526001600160a01b039091169063a9059cbb90339083906370a0823190602401602060405180830381865afa158015610192573d5f803e3d5ffd5b505050506040513d601f19601f820116820180604052508101906101b6919061062d565b6040516001600160e01b031960e085901b1681526001600160a01b03909216600483015260248201526044016020604051808303815f875af11580156101fe573d5f803e3d5ffd5b505050506040513d601f19601f820116820180604052508101906102229190610644565b50565b6002546001600160a01b031633146102975760405162461bcd60e51b815260206004820152602a60248201527f4f6e6c7920746f6b656e20636f6e74726163742063616e2063616c6c207468696044820152693990333ab731ba34b7b760b11b60648201526084015b60405180910390fd5b6003546001546040516370a0823160e01b81523060048201525f92916001600160a01b0316906370a0823190602401602060405180830381865afa1580156102e1573d5f803e3d5ffd5b505050506040513d601f19601f82011682018060405250810190610305919061062d565b11610379576001546040516370a0823160e01b81523060048201526001600160a01b03909116906370a0823190602401602060405180830381865afa158015610350573d5f803e3d5ffd5b505050506040513d601f19601f82011682018060405250810190610374919061062d565b61037d565b6003545b90508060045f8282546103909190610677565b90915550508015610465575f5b82518110156104635760015483516001600160a01b039091169063a9059cbb908590849081106103cf576103cf610690565b60200260200101518551856103e491906106a4565b6040516001600160e01b031960e085901b1681526001600160a01b03909216600483015260248201526044016020604051808303815f875af115801561042c573d5f803e3d5ffd5b505050506040513d601f19601f820116820180604052508101906104509190610644565b508061045b816106c3565b91505061039d565b505b5050565b6104716104a3565b6001600160a01b03811661049a57604051631e4fbdf760e01b81525f600482015260240161028e565b610222816104cf565b5f546001600160a01b031633146101385760405163118cdaa760e01b815233600482015260240161028e565b5f80546001600160a01b038381166001600160a01b0319831681178455604051919092169283917f8be0079c531659141344cd1fd0a4f28419497f9722a3daafe3b4186f6b6457e09190a35050565b634e487b7160e01b5f52604160045260245ffd5b80356001600160a01b0381168114610548575f80fd5b919050565b5f602080838503121561055e575f80fd5b823567ffffffffffffffff80821115610575575f80fd5b818501915085601f830112610588575f80fd5b81358181111561059a5761059a61051e565b8060051b604051601f19603f830116810181811085821117156105bf576105bf61051e565b6040529182528482019250838101850191888311156105dc575f80fd5b938501935b82851015610601576105f285610532565b845293850193928501926105e1565b98975050505050505050565b5f6020828403121561061d575f80fd5b61062682610532565b9392505050565b5f6020828403121561063d575f80fd5b5051919050565b5f60208284031215610654575f80fd5b81518015158114610626575f80fd5b634e487b7160e01b5f52601160045260245ffd5b8082018082111561068a5761068a610663565b92915050565b634e487b7160e01b5f52603260045260245ffd5b5f826106be57634e487b7160e01b5f52601260045260245ffd5b500490565b5f600182016106d4576106d4610663565b506001019056fea26469706673582212209596fb2184b3e5fd9ec0e374a2de8665596861283d9e757a0e907f78d40e5df164736f6c63430008140033",
  "linkReferences": {},
  "deployedLinkReferences": {}
}