{
  "_format": "hh-sol-artifact-1",
  "contractName": "BLI",
  "sourceName": "contracts/BLI.sol",
  "abi": [
    {
      "inputs": [
        {
          "internalType": "address",
          "name": "initialOwner",
          "type": "address"
        }
      ],
      "stateMutability": "nonpayable",
      "type": "constructor"
    },
    {
      "inputs": [],
      "name": "AccessControlBadConfirmation",
      "type": "error"
    },
    {
      "inputs": [
        {
          "internalType": "address",
          "name": "account",
          "type": "address"
        },
        {
          "internalType": "bytes32",
          "name": "neededRole",
          "type": "bytes32"
        }
      ],
      "name": "AccessControlUnauthorizedAccount",
      "type": "error"
    },
    {
      "inputs": [
        {
          "internalType": "address",
          "name": "have",
          "type": "address"
        },
        {
          "internalType": "address",
          "name": "want",
          "type": "address"
        }
      ],
      "name": "OnlyCoordinatorCanFulfill",
      "type": "error"
    },
    {
      "inputs": [
        {
          "internalType": "address",
          "name": "owner",
          "type": "address"
        }
      ],
      "name": "OwnableInvalidOwner",
      "type": "error"
    },
    {
      "inputs": [
        {
          "internalType": "address",
          "name": "account",
          "type": "address"
        }
      ],
      "name": "OwnableUnauthorizedAccount",
      "type": "error"
    },
    {
      "anonymous": false,
      "inputs": [
        {
          "indexed": true,
          "internalType": "address",
          "name": "owner",
          "type": "address"
        },
        {
          "indexed": true,
          "internalType": "address",
          "name": "spender",
          "type": "address"
        },
        {
          "indexed": false,
          "internalType": "uint256",
          "name": "value",
          "type": "uint256"
        }
      ],
      "name": "Approval",
      "type": "event"
    },
    {
      "anonymous": false,
      "inputs": [
        {
          "indexed": false,
          "internalType": "uint256",
          "name": "amountETH",
          "type": "uint256"
        },
        {
          "indexed": false,
          "internalType": "uint256",
          "name": "amountBOG",
          "type": "uint256"
        }
      ],
      "name": "AutoLiquify",
      "type": "event"
    },
    {
      "anonymous": false,
      "inputs": [
        {
          "indexed": true,
          "internalType": "address",
          "name": "user",
          "type": "address"
        },
        {
          "indexed": false,
          "internalType": "uint256",
          "name": "id",
          "type": "uint256"
        }
      ],
      "name": "CapsuleBought",
      "type": "event"
    },
    {
      "anonymous": false,
      "inputs": [
        {
          "indexed": true,
          "internalType": "address",
          "name": "user",
          "type": "address"
        },
        {
          "indexed": false,
          "internalType": "uint256",
          "name": "vaccine",
          "type": "uint256"
        },
        {
          "indexed": false,
          "internalType": "bool",
          "name": "vaccine4",
          "type": "bool"
        }
      ],
      "name": "CapsuleOpened",
      "type": "event"
    },
    {
      "anonymous": false,
      "inputs": [
        {
          "indexed": false,
          "internalType": "uint256",
          "name": "epochId",
          "type": "uint256"
        }
      ],
      "name": "NewEpochStarted",
      "type": "event"
    },
    {
      "anonymous": false,
      "inputs": [
        {
          "indexed": true,
          "internalType": "address",
          "name": "previousOwner",
          "type": "address"
        },
        {
          "indexed": true,
          "internalType": "address",
          "name": "newOwner",
          "type": "address"
        }
      ],
      "name": "OwnershipTransferred",
      "type": "event"
    },
    {
      "anonymous": false,
      "inputs": [
        {
          "indexed": false,
          "internalType": "uint256",
          "name": "requestId",
          "type": "uint256"
        },
        {
          "indexed": false,
          "internalType": "uint256[]",
          "name": "randomWords",
          "type": "uint256[]"
        }
      ],
      "name": "RequestFulfilled",
      "type": "event"
    },
    {
      "anonymous": false,
      "inputs": [
        {
          "indexed": false,
          "internalType": "uint256",
          "name": "requestId",
          "type": "uint256"
        },
        {
          "indexed": false,
          "internalType": "uint32",
          "name": "numWords",
          "type": "uint32"
        }
      ],
      "name": "RequestSent",
      "type": "event"
    },
    {
      "anonymous": false,
      "inputs": [
        {
          "indexed": true,
          "internalType": "bytes32",
          "name": "role",
          "type": "bytes32"
        },
        {
          "indexed": true,
          "internalType": "bytes32",
          "name": "previousAdminRole",
          "type": "bytes32"
        },
        {
          "indexed": true,
          "internalType": "bytes32",
          "name": "newAdminRole",
          "type": "bytes32"
        }
      ],
      "name": "RoleAdminChanged",
      "type": "event"
    },
    {
      "anonymous": false,
      "inputs": [
        {
          "indexed": true,
          "internalType": "bytes32",
          "name": "role",
          "type": "bytes32"
        },
        {
          "indexed": true,
          "internalType": "address",
          "name": "account",
          "type": "address"
        },
        {
          "indexed": true,
          "internalType": "address",
          "name": "sender",
          "type": "address"
        }
      ],
      "name": "RoleGranted",
      "type": "event"
    },
    {
      "anonymous": false,
      "inputs": [
        {
          "indexed": true,
          "internalType": "bytes32",
          "name": "role",
          "type": "bytes32"
        },
        {
          "indexed": true,
          "internalType": "address",
          "name": "account",
          "type": "address"
        },
        {
          "indexed": true,
          "internalType": "address",
          "name": "sender",
          "type": "address"
        }
      ],
      "name": "RoleRevoked",
      "type": "event"
    },
    {
      "anonymous": false,
      "inputs": [
        {
          "indexed": true,
          "internalType": "address",
          "name": "from",
          "type": "address"
        },
        {
          "indexed": true,
          "internalType": "address",
          "name": "to",
          "type": "address"
        },
        {
          "indexed": false,
          "internalType": "uint256",
          "name": "value",
          "type": "uint256"
        }
      ],
      "name": "Transfer",
      "type": "event"
    },
    {
      "anonymous": false,
      "inputs": [
        {
          "indexed": true,
          "internalType": "address",
          "name": "user",
          "type": "address"
        },
        {
          "indexed": false,
          "internalType": "uint256",
          "name": "amount",
          "type": "uint256"
        }
      ],
      "name": "_claim",
      "type": "event"
    },
    {
      "inputs": [],
      "name": "ADMIN_ROLE",
      "outputs": [
        {
          "internalType": "bytes32",
          "name": "",
          "type": "bytes32"
        }
      ],
      "stateMutability": "view",
      "type": "function"
    },
    {
      "inputs": [],
      "name": "DEFAULT_ADMIN_ROLE",
      "outputs": [
        {
          "internalType": "bytes32",
          "name": "",
          "type": "bytes32"
        }
      ],
      "stateMutability": "view",
      "type": "function"
    },
    {
      "inputs": [],
      "name": "MarketingWallet",
      "outputs": [
        {
          "internalType": "address",
          "name": "",
          "type": "address"
        }
      ],
      "stateMutability": "view",
      "type": "function"
    },
    {
      "inputs": [
        {
          "internalType": "address",
          "name": "holder",
          "type": "address"
        },
        {
          "internalType": "address",
          "name": "spender",
          "type": "address"
        }
      ],
      "name": "allowance",
      "outputs": [
        {
          "internalType": "uint256",
          "name": "",
          "type": "uint256"
        }
      ],
      "stateMutability": "view",
      "type": "function"
    },
    {
      "inputs": [],
      "name": "amountOfAllInfection",
      "outputs": [
        {
          "internalType": "uint256",
          "name": "",
          "type": "uint256"
        }
      ],
      "stateMutability": "view",
      "type": "function"
    },
    {
      "inputs": [
        {
          "internalType": "address",
          "name": "",
          "type": "address"
        }
      ],
      "name": "amountOfInfection",
      "outputs": [
        {
          "internalType": "uint256",
          "name": "",
          "type": "uint256"
        }
      ],
      "stateMutability": "view",
      "type": "function"
    },
    {
      "inputs": [
        {
          "internalType": "address",
          "name": "spender",
          "type": "address"
        },
        {
          "internalType": "uint256",
          "name": "amount",
          "type": "uint256"
        }
      ],
      "name": "approve",
      "outputs": [
        {
          "internalType": "bool",
          "name": "",
          "type": "bool"
        }
      ],
      "stateMutability": "nonpayable",
      "type": "function"
    },
    {
      "inputs": [
        {
          "internalType": "address",
          "name": "spender",
          "type": "address"
        }
      ],
      "name": "approveMax",
      "outputs": [
        {
          "internalType": "bool",
          "name": "",
          "type": "bool"
        }
      ],
      "stateMutability": "nonpayable",
      "type": "function"
    },
    {
      "inputs": [
        {
          "internalType": "address",
          "name": "account",
          "type": "address"
        }
      ],
      "name": "balanceOf",
      "outputs": [
        {
          "internalType": "uint256",
          "name": "",
          "type": "uint256"
        }
      ],
      "stateMutability": "view",
      "type": "function"
    },
    {
      "inputs": [],
      "name": "buyCapsule",
      "outputs": [],
      "stateMutability": "nonpayable",
      "type": "function"
    },
    {
      "inputs": [],
      "name": "capsuleCount",
      "outputs": [
        {
          "internalType": "uint256",
          "name": "",
          "type": "uint256"
        }
      ],
      "stateMutability": "view",
      "type": "function"
    },
    {
      "inputs": [],
      "name": "capsuleCurrentCount",
      "outputs": [
        {
          "internalType": "uint256",
          "name": "",
          "type": "uint256"
        }
      ],
      "stateMutability": "view",
      "type": "function"
    },
    {
      "inputs": [],
      "name": "capsulePrice",
      "outputs": [
        {
          "internalType": "uint256",
          "name": "",
          "type": "uint256"
        }
      ],
      "stateMutability": "view",
      "type": "function"
    },
    {
      "inputs": [],
      "name": "claim",
      "outputs": [],
      "stateMutability": "nonpayable",
      "type": "function"
    },
    {
      "inputs": [],
      "name": "decimals",
      "outputs": [
        {
          "internalType": "uint8",
          "name": "",
          "type": "uint8"
        }
      ],
      "stateMutability": "pure",
      "type": "function"
    },
    {
      "inputs": [],
      "name": "endGame",
      "outputs": [],
      "stateMutability": "nonpayable",
      "type": "function"
    },
    {
      "inputs": [],
      "name": "epochId",
      "outputs": [
        {
          "internalType": "uint256",
          "name": "",
          "type": "uint256"
        }
      ],
      "stateMutability": "view",
      "type": "function"
    },
    {
      "inputs": [
        {
          "internalType": "uint256",
          "name": "",
          "type": "uint256"
        }
      ],
      "name": "epochs",
      "outputs": [
        {
          "internalType": "uint256",
          "name": "id",
          "type": "uint256"
        },
        {
          "internalType": "uint256",
          "name": "startTime",
          "type": "uint256"
        },
        {
          "internalType": "uint256",
          "name": "endTime",
          "type": "uint256"
        }
      ],
      "stateMutability": "view",
      "type": "function"
    },
    {
      "inputs": [],
      "name": "getBestInfectors",
      "outputs": [
        {
          "internalType": "address[5]",
          "name": "",
          "type": "address[5]"
        }
      ],
      "stateMutability": "view",
      "type": "function"
    },
    {
      "inputs": [],
      "name": "getGotLuckyVaccine",
      "outputs": [
        {
          "internalType": "address[]",
          "name": "",
          "type": "address[]"
        }
      ],
      "stateMutability": "view",
      "type": "function"
    },
    {
      "inputs": [
        {
          "internalType": "address",
          "name": "user",
          "type": "address"
        }
      ],
      "name": "getHasOpenedCapsule",
      "outputs": [
        {
          "internalType": "bool",
          "name": "",
          "type": "bool"
        }
      ],
      "stateMutability": "view",
      "type": "function"
    },
    {
      "inputs": [
        {
          "internalType": "address",
          "name": "user",
          "type": "address"
        }
      ],
      "name": "getHasUpgrade",
      "outputs": [
        {
          "internalType": "bool",
          "name": "",
          "type": "bool"
        }
      ],
      "stateMutability": "view",
      "type": "function"
    },
    {
      "inputs": [
        {
          "internalType": "address",
          "name": "user",
          "type": "address"
        }
      ],
      "name": "getIsBuyer",
      "outputs": [
        {
          "internalType": "bool",
          "name": "",
          "type": "bool"
        }
      ],
      "stateMutability": "view",
      "type": "function"
    },
    {
      "inputs": [
        {
          "internalType": "address",
          "name": "user",
          "type": "address"
        }
      ],
      "name": "getRequestFullfilled",
      "outputs": [
        {
          "internalType": "bool",
          "name": "",
          "type": "bool"
        }
      ],
      "stateMutability": "view",
      "type": "function"
    },
    {
      "inputs": [
        {
          "internalType": "bytes32",
          "name": "role",
          "type": "bytes32"
        }
      ],
      "name": "getRoleAdmin",
      "outputs": [
        {
          "internalType": "bytes32",
          "name": "",
          "type": "bytes32"
        }
      ],
      "stateMutability": "view",
      "type": "function"
    },
    {
      "inputs": [
        {
          "internalType": "bytes32",
          "name": "role",
          "type": "bytes32"
        },
        {
          "internalType": "address",
          "name": "account",
          "type": "address"
        }
      ],
      "name": "grantRole",
      "outputs": [],
      "stateMutability": "nonpayable",
      "type": "function"
    },
    {
      "inputs": [
        {
          "internalType": "bytes32",
          "name": "role",
          "type": "bytes32"
        },
        {
          "internalType": "address",
          "name": "account",
          "type": "address"
        }
      ],
      "name": "hasRole",
      "outputs": [
        {
          "internalType": "bool",
          "name": "",
          "type": "bool"
        }
      ],
      "stateMutability": "view",
      "type": "function"
    },
    {
      "inputs": [
        {
          "internalType": "address",
          "name": "_toInfect",
          "type": "address"
        }
      ],
      "name": "infect",
      "outputs": [],
      "stateMutability": "nonpayable",
      "type": "function"
    },
    {
      "inputs": [
        {
          "internalType": "address[]",
          "name": "_toInfect",
          "type": "address[]"
        }
      ],
      "name": "infectOG",
      "outputs": [],
      "stateMutability": "nonpayable",
      "type": "function"
    },
    {
      "inputs": [
        {
          "internalType": "address",
          "name": "",
          "type": "address"
        }
      ],
      "name": "infected",
      "outputs": [
        {
          "internalType": "bool",
          "name": "",
          "type": "bool"
        }
      ],
      "stateMutability": "view",
      "type": "function"
    },
    {
      "inputs": [
        {
          "internalType": "address",
          "name": "",
          "type": "address"
        }
      ],
      "name": "infecter",
      "outputs": [
        {
          "internalType": "address",
          "name": "",
          "type": "address"
        }
      ],
      "stateMutability": "view",
      "type": "function"
    },
    {
      "inputs": [],
      "name": "isGameOver",
      "outputs": [
        {
          "internalType": "bool",
          "name": "",
          "type": "bool"
        }
      ],
      "stateMutability": "view",
      "type": "function"
    },
    {
      "inputs": [],
      "name": "isGameStarted",
      "outputs": [
        {
          "internalType": "bool",
          "name": "",
          "type": "bool"
        }
      ],
      "stateMutability": "view",
      "type": "function"
    },
    {
      "inputs": [],
      "name": "isTradingEnabled",
      "outputs": [
        {
          "internalType": "bool",
          "name": "",
          "type": "bool"
        }
      ],
      "stateMutability": "view",
      "type": "function"
    },
    {
      "inputs": [],
      "name": "lastRequestId",
      "outputs": [
        {
          "internalType": "uint256",
          "name": "",
          "type": "uint256"
        }
      ],
      "stateMutability": "view",
      "type": "function"
    },
    {
      "inputs": [],
      "name": "name",
      "outputs": [
        {
          "internalType": "string",
          "name": "",
          "type": "string"
        }
      ],
      "stateMutability": "view",
      "type": "function"
    },
    {
      "inputs": [
        {
          "internalType": "address",
          "name": "user",
          "type": "address"
        }
      ],
      "name": "openCapsule",
      "outputs": [],
      "stateMutability": "nonpayable",
      "type": "function"
    },
    {
      "inputs": [],
      "name": "owner",
      "outputs": [
        {
          "internalType": "address",
          "name": "",
          "type": "address"
        }
      ],
      "stateMutability": "view",
      "type": "function"
    },
    {
      "inputs": [],
      "name": "pair",
      "outputs": [
        {
          "internalType": "address",
          "name": "",
          "type": "address"
        }
      ],
      "stateMutability": "view",
      "type": "function"
    },
    {
      "inputs": [
        {
          "internalType": "address",
          "name": "",
          "type": "address"
        }
      ],
      "name": "pendingRewards",
      "outputs": [
        {
          "internalType": "uint256",
          "name": "",
          "type": "uint256"
        }
      ],
      "stateMutability": "view",
      "type": "function"
    },
    {
      "inputs": [
        {
          "internalType": "uint256",
          "name": "requestId",
          "type": "uint256"
        },
        {
          "internalType": "uint256[]",
          "name": "randomWords",
          "type": "uint256[]"
        }
      ],
      "name": "rawFulfillRandomWords",
      "outputs": [],
      "stateMutability": "nonpayable",
      "type": "function"
    },
    {
      "inputs": [],
      "name": "renounceOwnership",
      "outputs": [],
      "stateMutability": "nonpayable",
      "type": "function"
    },
    {
      "inputs": [
        {
          "internalType": "bytes32",
          "name": "role",
          "type": "bytes32"
        },
        {
          "internalType": "address",
          "name": "callerConfirmation",
          "type": "address"
        }
      ],
      "name": "renounceRole",
      "outputs": [],
      "stateMutability": "nonpayable",
      "type": "function"
    },
    {
      "inputs": [
        {
          "internalType": "uint256",
          "name": "",
          "type": "uint256"
        }
      ],
      "name": "requestIds",
      "outputs": [
        {
          "internalType": "uint256",
          "name": "",
          "type": "uint256"
        }
      ],
      "stateMutability": "view",
      "type": "function"
    },
    {
      "inputs": [
        {
          "internalType": "bytes32",
          "name": "role",
          "type": "bytes32"
        },
        {
          "internalType": "address",
          "name": "account",
          "type": "address"
        }
      ],
      "name": "revokeRole",
      "outputs": [],
      "stateMutability": "nonpayable",
      "type": "function"
    },
    {
      "inputs": [],
      "name": "rewardPool",
      "outputs": [
        {
          "internalType": "contract RewardPool",
          "name": "",
          "type": "address"
        }
      ],
      "stateMutability": "view",
      "type": "function"
    },
    {
      "inputs": [],
      "name": "router",
      "outputs": [
        {
          "internalType": "contract IUniswapV2Router02",
          "name": "",
          "type": "address"
        }
      ],
      "stateMutability": "view",
      "type": "function"
    },
    {
      "inputs": [
        {
          "internalType": "uint256",
          "name": "_price",
          "type": "uint256"
        }
      ],
      "name": "setCapsulePrice",
      "outputs": [],
      "stateMutability": "nonpayable",
      "type": "function"
    },
    {
      "inputs": [
        {
          "internalType": "address",
          "name": "_MarketingWallet",
          "type": "address"
        }
      ],
      "name": "setFeesWallet",
      "outputs": [],
      "stateMutability": "nonpayable",
      "type": "function"
    },
    {
      "inputs": [
        {
          "internalType": "address",
          "name": "holder",
          "type": "address"
        },
        {
          "internalType": "bool",
          "name": "exempt",
          "type": "bool"
        }
      ],
      "name": "setIsFeeExempt",
      "outputs": [],
      "stateMutability": "nonpayable",
      "type": "function"
    },
    {
      "inputs": [],
      "name": "setIsTradingEnabled",
      "outputs": [],
      "stateMutability": "nonpayable",
      "type": "function"
    },
    {
      "inputs": [
        {
          "internalType": "address",
          "name": "holder",
          "type": "address"
        },
        {
          "internalType": "bool",
          "name": "exempt",
          "type": "bool"
        }
      ],
      "name": "setIsWalletLimitExempt",
      "outputs": [],
      "stateMutability": "nonpayable",
      "type": "function"
    },
    {
      "inputs": [],
      "name": "setMaxWallet",
      "outputs": [],
      "stateMutability": "nonpayable",
      "type": "function"
    },
    {
      "inputs": [
        {
          "internalType": "uint256",
          "name": "_range",
          "type": "uint256"
        }
      ],
      "name": "setProbabilityMaxRange",
      "outputs": [],
      "stateMutability": "nonpayable",
      "type": "function"
    },
    {
      "inputs": [
        {
          "internalType": "uint256",
          "name": "_amount",
          "type": "uint256"
        }
      ],
      "name": "setSpecialVaccineSupply",
      "outputs": [],
      "stateMutability": "nonpayable",
      "type": "function"
    },
    {
      "inputs": [
        {
          "internalType": "bool",
          "name": "_enabled",
          "type": "bool"
        },
        {
          "internalType": "uint256",
          "name": "_amount",
          "type": "uint256"
        }
      ],
      "name": "setSwapBackSettings",
      "outputs": [],
      "stateMutability": "nonpayable",
      "type": "function"
    },
    {
      "inputs": [
        {
          "internalType": "address",
          "name": "pairaddr",
          "type": "address"
        }
      ],
      "name": "setSwapPair",
      "outputs": [],
      "stateMutability": "nonpayable",
      "type": "function"
    },
    {
      "inputs": [],
      "name": "startNewEpoch",
      "outputs": [],
      "stateMutability": "nonpayable",
      "type": "function"
    },
    {
      "inputs": [
        {
          "internalType": "bytes4",
          "name": "interfaceId",
          "type": "bytes4"
        }
      ],
      "name": "supportsInterface",
      "outputs": [
        {
          "internalType": "bool",
          "name": "",
          "type": "bool"
        }
      ],
      "stateMutability": "view",
      "type": "function"
    },
    {
      "inputs": [],
      "name": "swapEnabled",
      "outputs": [
        {
          "internalType": "bool",
          "name": "",
          "type": "bool"
        }
      ],
      "stateMutability": "view",
      "type": "function"
    },
    {
      "inputs": [],
      "name": "symbol",
      "outputs": [
        {
          "internalType": "string",
          "name": "",
          "type": "string"
        }
      ],
      "stateMutability": "view",
      "type": "function"
    },
    {
      "inputs": [],
      "name": "totalAllRewards",
      "outputs": [
        {
          "internalType": "uint256",
          "name": "",
          "type": "uint256"
        }
      ],
      "stateMutability": "view",
      "type": "function"
    },
    {
      "inputs": [
        {
          "internalType": "address",
          "name": "",
          "type": "address"
        }
      ],
      "name": "totalRewards",
      "outputs": [
        {
          "internalType": "uint256",
          "name": "",
          "type": "uint256"
        }
      ],
      "stateMutability": "view",
      "type": "function"
    },
    {
      "inputs": [],
      "name": "totalSupply",
      "outputs": [
        {
          "internalType": "uint256",
          "name": "",
          "type": "uint256"
        }
      ],
      "stateMutability": "view",
      "type": "function"
    },
    {
      "inputs": [
        {
          "internalType": "address",
          "name": "recipient",
          "type": "address"
        },
        {
          "internalType": "uint256",
          "name": "amount",
          "type": "uint256"
        }
      ],
      "name": "transfer",
      "outputs": [
        {
          "internalType": "bool",
          "name": "",
          "type": "bool"
        }
      ],
      "stateMutability": "nonpayable",
      "type": "function"
    },
    {
      "inputs": [
        {
          "internalType": "address",
          "name": "sender",
          "type": "address"
        },
        {
          "internalType": "address",
          "name": "recipient",
          "type": "address"
        },
        {
          "internalType": "uint256",
          "name": "amount",
          "type": "uint256"
        }
      ],
      "name": "transferFrom",
      "outputs": [
        {
          "internalType": "bool",
          "name": "",
          "type": "bool"
        }
      ],
      "stateMutability": "nonpayable",
      "type": "function"
    },
    {
      "inputs": [
        {
          "internalType": "address",
          "name": "newOwner",
          "type": "address"
        }
      ],
      "name": "transferOwnership",
      "outputs": [],
      "stateMutability": "nonpayable",
      "type": "function"
    },
    {
      "inputs": [],
      "name": "upgradeVaccine",
      "outputs": [],
      "stateMutability": "nonpayable",
      "type": "function"
    },
    {
      "inputs": [
        {
          "internalType": "address",
          "name": "",
          "type": "address"
        }
      ],
      "name": "userCurrentVaccine",
      "outputs": [
        {
          "internalType": "uint256",
          "name": "",
          "type": "uint256"
        }
      ],
      "stateMutability": "view",
      "type": "function"
    },
    {
      "inputs": [
        {
          "internalType": "address",
          "name": "",
          "type": "address"
        }
      ],
      "name": "userHasBoughtVaccine",
      "outputs": [
        {
          "internalType": "bool",
          "name": "",
          "type": "bool"
        }
      ],
      "stateMutability": "view",
      "type": "function"
    },
    {
      "inputs": [],
      "name": "vaccineFourSupply",
      "outputs": [
        {
          "internalType": "uint256",
          "name": "",
          "type": "uint256"
        }
      ],
      "stateMutability": "view",
      "type": "function"
    },
    {
      "stateMutability": "payable",
      "type": "receive"
    }
  ],
  "bytecode": "0x60e0604052600e60a09081526d109b1a59da1d08141c9bda9958dd60921b60c0526002906200002f9082620008cf565b5060408051808201909152600380825262424c4960e81b602083015290620000589082620008cf565b50620000676012600a62000aa4565b6200007790633b9aca0062000abb565b60045569d3c21bcecceda10000006005556103e8600454600a6200009c919062000abb565b620000a8919062000ad5565b600655600554620000bc9061025862000abb565b600b5560c8600c55600554620000d59061038462000abb565b600d5561012c600e5560108054733e98da13e184ea1467639bf642f804144539694d6001600160a01b03199182161790915560118054732ca8e0c643bde4c2e08ab1fa0da3401adad7734d9216919091179055601280546001600160e01b0319167537f32ca8e0c643bde4c2e08ab1fa0da3401adad7734d1790557f79d3d8832d904592c0bf9818b621522c988bb8b0c05cdc3b15aea1b6e8db0c15601555601680546001600160501b03191666010003000186a01790556019805461ffff60a01b19169055600454620001ad906103e89062000ad5565b620001ba90600362000abb565b601a5560646022555f6026555f6028555f6029556934f086f3b33b68400000602a555f602b555f602c555f602d555f602e555f602f555f6030555f6031555f603255600a60335560055460e562000212919062000abb565b603a55600554620002269061016562000abb565b603b556005546200023a9061020262000abb565b603c556005546200024e906102bc62000abb565b603d55600554620002629061039262000abb565b603e55600554620002769061048562000abb565b603f556040805461ffff1916905534801562000290575f80fd5b5060405162005ba838038062005ba8833981016040819052620002b39162000af5565b6011546001600160a01b039081169082908116620002ea57604051631e4fbdf760e01b81525f600482015260240160405180910390fd5b620002f5816200073e565b506001600160a01b0316608052601880546001600160a01b031916737a250d5630b4cf539739df2c5dacb4c659f2488d9081179091556040805163c45a015560e01b8152905163c45a0155916004808201926020929091908290030181865afa15801562000365573d5f803e3d5ffd5b505050506040513d601f19601f820116820180604052508101906200038b919062000af5565b6001600160a01b031663c9c6539660185f9054906101000a90046001600160a01b03166001600160a01b031663ad5c46486040518163ffffffff1660e01b8152600401602060405180830381865afa158015620003ea573d5f803e3d5ffd5b505050506040513d601f19601f8201168201806040525081019062000410919062000af5565b6040516001600160e01b031960e084901b1681526001600160a01b0390911660048201523060248201526044016020604051808303815f875af11580156200045a573d5f803e3d5ffd5b505050506040513d601f19601f8201168201806040525081019062000480919062000af5565b601980546001600160a01b0319166001600160a01b03928316179055305f90815260086020908152604080832060185490941683529290529081205f199055620004cb90826200078d565b50620004f87fa49807205ce4d355092ef5a8a18f56e8913cf4a201fbe287825b095693c21775826200078d565b503081604051620005099062000821565b6001600160a01b03928316815291166020820152604001604051809103905ff0801580156200053a573d5f803e3d5ffd5b50602180546001600160a01b0319166001600160a01b03928316178155335f818152600960209081526040808320805460ff199081166001908117909255308086528386208054831684179055601080548a1687528487208054841685179055878752600a8652848720805484168517905580548a16875284872080548416851790557f20677881080440a9b3c87e826370bb5d9c2f74efd4dede686d52d77a6a09f8bb805484168517905597548916865283862080548316841790558086528386208054831684179055601980548a16875284872080548416851790557fc90215bb1b0ac6bfa50a3c02c4b559c695b6a8e828048a88e327592fc55c5d2c8054841685179055878752601c8652848720805484168517905597548916865283862080548316841790557fa48bd8e7b1565515cde2859b6cc48308ba05b5325bcf90fb096b9ac0b8087dfc8054831684179055855282852080548216831790559554909616835280832080548616871790557fb1e2e88b6a3e9d36c6d6d48756ca9ed8312cfcb5a15208f81170ade3bd2b4a95805490951690951790935560045491815260079092529181208054909190620006f890849062000b1d565b909155505060045460405190815233905f907fddf252ad1be2c89b69c2b068fc378daa952ba7f163c4a11628f55a4df523b3ef9060200160405180910390a35062000b33565b5f80546001600160a01b038381166001600160a01b0319831681178455604051919092169283917f8be0079c531659141344cd1fd0a4f28419497f9722a3daafe3b4186f6b6457e09190a35050565b5f8281526001602090815260408083206001600160a01b038516845290915281205460ff1662000818575f8381526001602081815260408084206001600160a01b0387168086529252808420805460ff19169093179092559051339286917f2f8788117e7eff1d82e926ec794901d17c78024a50270940304540a733656f0d9190a45060016200081b565b505f5b92915050565b610862806200534683390190565b634e487b7160e01b5f52604160045260245ffd5b600181811c908216806200085857607f821691505b6020821081036200087757634e487b7160e01b5f52602260045260245ffd5b50919050565b601f821115620008ca575f81815260208120601f850160051c81016020861015620008a55750805b601f850160051c820191505b81811015620008c657828155600101620008b1565b5050505b505050565b81516001600160401b03811115620008eb57620008eb6200082f565b6200090381620008fc845462000843565b846200087d565b602080601f83116001811462000939575f8415620009215750858301515b5f19600386901b1c1916600185901b178555620008c6565b5f85815260208120601f198616915b82811015620009695788860151825594840194600190910190840162000948565b50858210156200098757878501515f19600388901b60f8161c191681555b5050505050600190811b01905550565b634e487b7160e01b5f52601160045260245ffd5b600181815b80851115620009eb57815f1904821115620009cf57620009cf62000997565b80851615620009dd57918102915b93841c9390800290620009b0565b509250929050565b5f8262000a03575060016200081b565b8162000a1157505f6200081b565b816001811462000a2a576002811462000a355762000a55565b60019150506200081b565b60ff84111562000a495762000a4962000997565b50506001821b6200081b565b5060208310610133831016604e8410600b841016171562000a7a575081810a6200081b565b62000a868383620009ab565b805f190482111562000a9c5762000a9c62000997565b029392505050565b5f62000ab460ff841683620009f3565b9392505050565b80820281158282048414176200081b576200081b62000997565b5f8262000af057634e487b7160e01b5f52601260045260245ffd5b500490565b5f6020828403121562000b06575f80fd5b81516001600160a01b038116811462000ab4575f80fd5b808201808211156200081b576200081b62000997565b6080516147f362000b535f395f81816115cd015261160f01526147f35ff3fe608060405260043610610402575f3560e01c8063658d4b7f11610215578063aa9bbc0c1161011e578063dd62ed3e116100a8578063f5415cbb11610078578063f5415cbb14610cce578063f887ea4014610ced578063fc2a88c314610d0c578063fd39ef7814610d21578063fd6e28cf14610d40575f80fd5b8063dd62ed3e14610c2d578063df20fd4914610c71578063f25c7ea414610c90578063f2fde38b14610caf575f80fd5b8063c3ec8897116100ee578063c3ec889714610b7c578063c6b61e4c14610b91578063d02c639414610be6578063d3a9ffc414610bfa578063d547741f14610c0e575f80fd5b8063aa9bbc0c14610b02578063ab7573dd14610b17578063c26d68f914610b42578063c315432a14610b63575f80fd5b80638796ba8c1161019f57806395d89b411161016f57806395d89b4114610a7e57806396eb64a914610a92578063a217fddf14610ab1578063a8aa1b3114610ac4578063a9059cbb14610ae3575f80fd5b80638796ba8c146109f65780638c5799ce14610a155780638da5cb5b14610a4357806391d1485414610a5f575f80fd5b80636ddd1713116101e55780636ddd17131461096457806370a0823114610984578063715018a6146109a357806373a432bb146109b757806375b238fc146109d6575f80fd5b8063658d4b7f146108f157806366666aa9146109105780636789c92c1461092f5780636cbc2ded14610950575f80fd5b80632198cf6c116103175780633eca5343116102a15780635119c971116102715780635119c9711461084f57806354d41b5b14610864578063571ac8b01461088f5780635bc04469146108ae578063636ee0db146108c3575f80fd5b80633eca5343146107d357806343d4f92b146108075780634726319f146108265780634e71d92d1461083b575f80fd5b80632f2ff15d116102e75780632f2ff15d1461073b578063313ce5671461075a57806331d7a2621461077557806336568abe146107a05780633aab0a62146107bf575f80fd5b80632198cf6c1461069757806323b872dd146106b6578063248a9ca3146106d55780632598cdb214610704575f80fd5b80630e04a7d81161039857806318160ddd1161036857806318160ddd14610627578063196228c01461063b5780631bd8ebe11461064f5780631ce78ac8146106645780631fe543e314610678575f80fd5b80630e04a7d8146105775780630f44e894146105955780631299d7f7146105bf5780631781e17c146105de575f80fd5b806305dc0394116103d357806305dc0394146104f4578063064a59d01461051757806306fdde0314610537578063095ea7b314610558575f80fd5b80627f27ae1461040d578063014c58a31461042e57806301ffc9a71461048c57806302b2553e146104ab575f80fd5b3661040957005b5f80fd5b348015610418575f80fd5b5061042c610427366004614134565b610d89565b005b348015610439575f80fd5b50610477610448366004614134565b6026545f9081526027602090815260408083206001600160a01b03909416835260049093019052205460ff1690565b60405190151581526020015b60405180910390f35b348015610497575f80fd5b506104776104a636600461414f565b611124565b3480156104b6575f80fd5b506104776104c5366004614134565b6026545f9081526027602090815260408083206001600160a01b03909416835260059093019052205460ff1690565b3480156104ff575f80fd5b5061050960295481565b604051908152602001610483565b348015610522575f80fd5b5060195461047790600160a01b900460ff1681565b348015610542575f80fd5b5061054b61115a565b6040516104839190614176565b348015610563575f80fd5b506104776105723660046141c1565b6111ea565b348015610582575f80fd5b5060405461047790610100900460ff1681565b3480156105a0575f80fd5b506105096105af366004614134565b602080525f908152604090205481565b3480156105ca575f80fd5b5061042c6105d93660046141eb565b611255565b3480156105e9575f80fd5b506104776105f8366004614134565b6026545f9081526027602090815260408083206001600160a01b03909416835260089093019052205460ff1690565b348015610632575f80fd5b50600454610509565b348015610646575f80fd5b5061042c611272565b34801561065a575f80fd5b5061050960285481565b34801561066f575f80fd5b5061042c61158c565b348015610683575f80fd5b5061042c61069236600461426a565b6115c2565b3480156106a2575f80fd5b5061042c6106b136600461431b565b611646565b3480156106c1575f80fd5b506104776106d036600461434e565b611678565b3480156106e0575f80fd5b506105096106ef3660046141eb565b5f908152600160208190526040909120015490565b34801561070f575f80fd5b50601054610723906001600160a01b031681565b6040516001600160a01b039091168152602001610483565b348015610746575f80fd5b5061042c61075536600461438c565b61174b565b348015610765575f80fd5b5060405160128152602001610483565b348015610780575f80fd5b5061050961078f366004614134565b601f6020525f908152604090205481565b3480156107ab575f80fd5b5061042c6107ba36600461438c565b611776565b3480156107ca575f80fd5b5061042c6117ae565b3480156107de575f80fd5b506107236107ed366004614134565b601d6020525f90815260409020546001600160a01b031681565b348015610812575f80fd5b5061042c610821366004614134565b611833565b348015610831575f80fd5b5061050960335481565b348015610846575f80fd5b5061042c611893565b34801561085a575f80fd5b5061050960425481565b34801561086f575f80fd5b5061050961087e366004614134565b60236020525f908152604090205481565b34801561089a575f80fd5b506104776108a9366004614134565b611a72565b3480156108b9575f80fd5b50610509602a5481565b3480156108ce575f80fd5b506104776108dd366004614134565b601c6020525f908152604090205460ff1681565b3480156108fc575f80fd5b5061042c61090b36600461431b565b611a7e565b34801561091b575f80fd5b50602154610723906001600160a01b031681565b34801561093a575f80fd5b50610943611ab0565b60405161048391906143fc565b34801561095b575f80fd5b5061042c611b1c565b34801561096f575f80fd5b5060195461047790600160a81b900460ff1681565b34801561098f575f80fd5b5061050961099e366004614134565b611c71565b3480156109ae575f80fd5b5061042c611c8b565b3480156109c2575f80fd5b5061042c6109d1366004614134565b611c9c565b3480156109e1575f80fd5b506105095f8051602061479e83398151915281565b348015610a01575f80fd5b50610509610a103660046141eb565b611cdd565b348015610a20575f80fd5b50610477610a2f366004614134565b60246020525f908152604090205460ff1681565b348015610a4e575f80fd5b505f546001600160a01b0316610723565b348015610a6a575f80fd5b50610477610a7936600461438c565b611cfc565b348015610a89575f80fd5b5061054b611d26565b348015610a9d575f80fd5b5061042c610aac366004614134565b611d35565b348015610abc575f80fd5b506105095f81565b348015610acf575f80fd5b50601954610723906001600160a01b031681565b348015610aee575f80fd5b50610477610afd3660046141c1565b611ec1565b348015610b0d575f80fd5b5061050960265481565b348015610b22575f80fd5b50610509610b31366004614134565b601e6020525f908152604090205481565b348015610b4d575f80fd5b50610b56611ef2565b604051610483919061440e565b348015610b6e575f80fd5b506040546104779060ff1681565b348015610b87575f80fd5b5061050960435481565b348015610b9c575f80fd5b50610bcb610bab3660046141eb565b60276020525f908152604090208054600182015460029092015490919083565b60408051938452602084019290925290820152606001610483565b348015610bf1575f80fd5b5061042c611f31565b348015610c05575f80fd5b5061042c611f41565b348015610c19575f80fd5b5061042c610c2836600461438c565b6122e3565b348015610c38575f80fd5b50610509610c47366004614447565b6001600160a01b039182165f90815260086020908152604080832093909416825291909152205490565b348015610c7c575f80fd5b5061042c610c8b366004614473565b612308565b348015610c9b575f80fd5b5061042c610caa3660046141eb565b612383565b348015610cba575f80fd5b5061042c610cc9366004614134565b612406565b348015610cd9575f80fd5b5061042c610ce836600461448d565b612440565b348015610cf8575f80fd5b50601854610723906001600160a01b031681565b348015610d17575f80fd5b5061050960145481565b348015610d2c575f80fd5b5061042c610d3b3660046141eb565b612696565b348015610d4b575f80fd5b50610477610d5a366004614134565b6026545f9081526027602090815260408083206001600160a01b03909416835260039093019052205460ff1690565b6001600160a01b0381163314610dd75760405162461bcd60e51b815260206004820152600e60248201526d139bdd08185d5d1a1bdc9a5e995960921b60448201526064015b60405180910390fd5b6026545f908152602760205260409020600201544210610e095760405162461bcd60e51b8152600401610dce90614522565b6026545f9081526027602090815260408083203384526007019091528120549003610e8d5760405162461bcd60e51b815260206004820152602e60248201527f596f7520686176656e277420626f7567687420612063617073756c652064757260448201526d0d2dcce40e8d0d2e640cae0dec6d60931b6064820152608401610dce565b6026545f90815260276020908152604080832033845260050190915290205460ff1615610f075760405162461bcd60e51b815260206004820152602260248201527f596f7527766520616c7265616479206f70656e656420796f75722063617073756044820152616c6560f01b6064820152608401610dce565b6026545f90815260276020908152604080832033845260080190915290205460ff161515600114610f8a5760405162461bcd60e51b815260206004820152602760248201527f596f75722072657175657374206861736e2774206265656e2066756c6c66696c6044820152661b1959081e595d60ca1b6064820152608401610dce565b6026545f908152602760209081526040808320338452600701909152812054610fb2906126b3565b905060018110158015610fc6575060288111155b1561100357602f8054905f610fda8361457a565b9091555050602b8054905f610fee8361457a565b9190505550610fff8260015f6127f2565b5050565b602981101580156110155750604b8111155b1561104e5760308054905f6110298361457a565b9091555050602c8054905f61103d8361457a565b9190505550610fff8260025f6127f2565b604c8110158015611060575060618111155b156110995760318054905f6110748361457a565b9091555050602d8054905f6110888361457a565b9190505550610fff8260035f6127f2565b606281101580156110ac57506022548111155b15610fff5760328054905f6110c08361457a565b9091555050602e8054905f6110d48361457a565b90915550506026545f9081526027602090815260408220600901805460018082018355918452919092200180546001600160a01b0319166001600160a01b038516179055610fff908390806127f2565b5f6001600160e01b03198216637965db0b60e01b148061115457506301ffc9a760e01b6001600160e01b03198316145b92915050565b60606002805461116990614592565b80601f016020809104026020016040519081016040528092919081815260200182805461119590614592565b80156111e05780601f106111b7576101008083540402835291602001916111e0565b820191905f5260205f20905b8154815290600101906020018083116111c357829003601f168201915b5050505050905090565b335f8181526008602090815260408083206001600160a01b038716808552925280832085905551919290917f8c5be1e5ebec7d5bd14f71427d1e84f3dd0314c0f7b2291e5b200ac8c7c3b925906112449086815260200190565b60405180910390a350600192915050565b5f8051602061479e83398151915261126c816128eb565b50602a55565b5f6103e8602a546102ee61128691906145c4565b61129091906145ef565b6026545f90815260276020908152604080832033845260030190915290205490915060ff161561131e5760405162461bcd60e51b815260206004820152603360248201527f596f752068617665206f6e6c79206f6e6520616374696f6e207065722065706f6044820152726368203a20627579206f72207570677261646560681b6064820152608401610dce565b6026545f90815260276020908152604080832033845260040190915290205460ff16156113ac5760405162461bcd60e51b815260206004820152603660248201527f596f7527766520616c726561647920757067726164656420796f7572207661636044820152750c6d2dcca40c8eae4d2dcce40e8d0d2e640cae0dec6d60531b6064820152608401610dce565b335f90815260236020526040902054158015906113d75750335f908152602360205260409020546003115b61142f5760405162461bcd60e51b815260206004820152602360248201527f596f7520646f6e2774206861766520612076616363696e6520746f207570677260448201526261646560e81b6064820152608401610dce565b8061143933611c71565b10156114995760405162461bcd60e51b815260206004820152602960248201527f4e6f7420656e6f75676820746f6b656e7320746f207570677261646520796f75604482015268722076616363696e6560b81b6064820152608401610dce565b6026545f9081526027602052604090206002015442106114cb5760405162461bcd60e51b8152600401610dce90614522565b604054610100900460ff16156114f35760405162461bcd60e51b8152600401610dce90614602565b6026545f9081526027602090815260408083203384526004019091528120805460ff191660011790556103e861152a8360326145c4565b61153491906145ef565b6021549091505f9061155a9033906001600160a01b03166115558587614628565b6128f5565b90506115673330846128f5565b50335f9081526023602052604081208054916115828361457a565b9190505550505050565b611594612999565b6019805461ffff60a01b191661010160a01b179081905560ff600160a01b90910416156115c057426049555b565b336001600160a01b037f0000000000000000000000000000000000000000000000000000000000000000161461163c5760405163073e64fd60e21b81523360048201526001600160a01b037f0000000000000000000000000000000000000000000000000000000000000000166024820152604401610dce565b610fff82826129c5565b61164e612999565b6001600160a01b03919091165f908152600a60205260409020805460ff1916911515919091179055565b6001600160a01b0383165f9081526008602090815260408083203384529091528120548211156116fb5760405162461bcd60e51b815260206004820152602860248201527f45524332303a207472616e7366657220616d6f756e74206578636565647320616044820152676c6c6f77616e636560c01b6064820152608401610dce565b611706848484612ac8565b506001600160a01b0384165f9081526008602090815260408083203380855292529091205461174191869161173c908690614628565b612eb8565b5060019392505050565b5f8281526001602081905260409091200154611766816128eb565b6117708383612fdb565b50505050565b6001600160a01b038116331461179f5760405163334bd91960e11b815260040160405180910390fd5b6117a98282613051565b505050565b5f8051602061479e8339815191526117c5816128eb565b604054610100900460ff16156117ed5760405162461bcd60e51b8152600401610dce90614602565b6117f56130bc565b7fa7ef457c4bdaa5cf9805314ebb0d85316230de6508df8ba03db8e27901cc147d60265460405161182891815260200190565b60405180910390a150565b61183b612999565b601080546001600160a01b0319166001600160a01b0392831690811782555f908152600960209081526040808320805460ff19908116600190811790925594549095168352600a909152902080549091169091179055565b3332146118ca5760405162461bcd60e51b815260206004820152600560248201526432b93937b960d91b6044820152606401610dce565b335f908152601f602052604090205461191a5760405162461bcd60e51b81526020600482015260126024820152716e6f2070656e64696e67207265776172647360701b6044820152606401610dce565b335f908152601f60205260408120805490829055604954909190611941906201518061463b565b42101561196e5760646119558360196145c4565b61195f91906145ef565b905061196b8183614628565b91505b801561198e5760215461198c9030906001600160a01b0316836128f5565b505b5f61199a3033856128f5565b9050806119db5760405162461bcd60e51b815260206004820152600f60248201526e1d1c985b9cd9995c8819985a5b1959608a1b6044820152606401610dce565b335f908152601e6020526040812080548592906119f990849061463b565b925050819055508260425f828254611a11919061463b565b925050819055508260415f828254611a299190614628565b90915550611a379050613285565b60405183815233907f620fc7379f7c67f4289f23e24a7f28f721792b0e898e2af03581b2e73e604a53906020015b60405180910390a2505050565b5f611154825f196111ea565b611a86612999565b6001600160a01b03919091165f908152600960205260409020805460ff1916911515919091179055565b6026545f908152602760209081526040918290206009018054835181840281018401909452808452606093928301828280156111e057602002820191905f5260205f20905b81546001600160a01b03168152600190910190602001808311611af5575050505050905090565b5f8051602061479e833981519152611b33816128eb565b604954611b439062093a8061463b565b421015611b875760405162461bcd60e51b815260206004820152601260248201527143616e277420656e64207468652067616d6560701b6044820152606401610dce565b604054610100900460ff1615611bd65760405162461bcd60e51b815260206004820152601460248201527323b0b6b29034b99030b63932b0b23c9037bb32b960611b6044820152606401610dce565b6040805461ff0019166101001781556026545f9081526027602052206009015415611c6e576021546026545f9081526027602052604090819020905163f25addf560e01b81526001600160a01b039092169163f25addf591611c409160099091019060040161464e565b5f604051808303815f87803b158015611c57575f80fd5b505af1158015611c69573d5f803e3d5ffd5b505050505b50565b6001600160a01b03165f9081526007602052604090205490565b611c93612999565b6115c05f613478565b611ca4612999565b601980546001600160a01b039092166001600160a01b0319909216821790555f908152600a60205260409020805460ff19166001179055565b60138181548110611cec575f80fd5b5f91825260209091200154905081565b5f9182526001602090815260408084206001600160a01b0393909316845291905290205460ff1690565b60606003805461116990614592565b6001600160a01b0381165f908152601c602052604090205460ff1615611d905760405162461bcd60e51b815260206004820152601060248201526f105b1c9958591e481a5b999958dd195960821b6044820152606401610dce565b6001611d9b33611c71565b1015611de95760405162461bcd60e51b815260206004820152601b60248201527f4e6f7420656e6f75676820746f6b656e7320746f20696e6665637400000000006044820152606401610dce565b335f908152601c602052604090205460ff161515600114611e425760405162461bcd60e51b8152602060048201526013602482015272165bdd49dc99481b9bdd081a5b999958dd1959606a1b6044820152606401610dce565b6001600160a01b0381165f908152601d6020908152604080832080546001600160a01b03191633908117909155601c8352818420805460ff1916600117905583529080528120805491611e948361457a565b909155505060438054905f611ea88361457a565b91905055505f6117a93383670de0b6b3a76400006128f5565b6019545f906001600160a01b03163303611ee757611ee0338484612ac8565b9050611154565b611ee03384846128f5565b611efa61405d565b6040805160a0810191829052604480546001600160a01b031682529091600590604560208501808311611af5575050505050905090565b611f39612999565b600454600655565b602a54335f908152601c602052604090205460ff16611f995760405162461bcd60e51b8152602060048201526014602482015273165bdd48185c99481b9bdd081a5b999958dd195960621b6044820152606401610dce565b60405460ff16611feb5760405162461bcd60e51b815260206004820152601760248201527f47616d65206973206e6f742073746172746564207965740000000000000000006044820152606401610dce565b604054610100900460ff16156120135760405162461bcd60e51b8152600401610dce90614602565b8061201d33611c71565b10156120765760405162461bcd60e51b815260206004820152602260248201527f4e6f7420656e6f75676820746f6b656e7320746f2062757920612063617073756044820152616c6560f01b6064820152608401610dce565b6026545f9081526027602052604090206002015442106120a85760405162461bcd60e51b8152600401610dce90614522565b6026545f90815260276020908152604080832033845260030190915290205460ff16156121315760405162461bcd60e51b815260206004820152603160248201527f596f7527766520616c726561647920626f7567687420612063617073756c65206044820152700c8eae4d2dcce40e8d0d2e640cae0dec6d607b1b6064820152608401610dce565b6026545f90815260276020908152604080832033845260040190915290205460ff16156121bc5760405162461bcd60e51b815260206004820152603360248201527f596f75206f6e6c792068617665206f6e6520616374696f6e207065722065706f6044820152726368203a20627579206f72207570677261646560681b6064820152608401610dce565b60298054905f6121cb8361457a565b909155505060288054905f6121df8361457a565b90915550506026545f9081526027602090815260408083203384526003019091528120805460ff191660011790556103e861221b8360c86145c4565b61222591906145ef565b90506122343361dead836128f5565b506021545f906122539033906001600160a01b03166115558587614628565b90505f61225e6134c7565b602680545f908152602760208181526040808420868552600601825280842080546001600160a01b03191633908117909155945484529181528183208484526007018152918190208490555183815292935090917f56e18f08766f396148d5b13331a86d9ce4ea3d9c08821cf829ccf881a6fff8bf910160405180910390a250505050565b5f82815260016020819052604090912001546122fe816128eb565b6117708383613051565b612310612999565b60018110156123615760405162461bcd60e51b815260206004820152601f60248201527f43616e27742073657420537761705468726573686f6c6420746f205a45524f006044820152606401610dce565b60198054921515600160a81b0260ff60a81b1990931692909217909155601a55565b5f8051602061479e83398151915261239a816128eb565b602e548210156124005760405162461bcd60e51b815260206004820152602b60248201527f43616e2774207265647563652076616363696e6520737570706c79206475726960448201526a0dcce40c2dc40cae0dec6d60ab1b6064820152608401610dce565b50603355565b61240e612999565b6001600160a01b03811661243757604051631e4fbdf760e01b81525f6004820152602401610dce565b611c6e81613478565b612448612999565b5f5b8151811015610fff57601c5f8383815181106124685761246861469d565b6020908102919091018101516001600160a01b031682528101919091526040015f205460ff16156124ce5760405162461bcd60e51b815260206004820152601060248201526f105b1c9958591e481a5b999958dd195960821b6044820152606401610dce565b60016124d933611c71565b10156125275760405162461bcd60e51b815260206004820152601b60248201527f6e6f7420656e6f75676820746f6b656e7320746f20696e6665637400000000006044820152606401610dce565b335f908152601c602052604090205460ff1615156001146125795760405162461bcd60e51b815260206004820152600c60248201526b1b9bdd081a5b999958dd195960a21b6044820152606401610dce565b33601d5f84848151811061258f5761258f61469d565b60200260200101516001600160a01b03166001600160a01b031681526020019081526020015f205f6101000a8154816001600160a01b0302191690836001600160a01b031602179055506001601c5f8484815181106125f0576125f061469d565b6020908102919091018101516001600160a01b031682528181019290925260409081015f908120805460ff191694151594909417909355338352908052812080549161263b8361457a565b909155505060438054905f61264f8361457a565b91905055505f6126813384848151811061266b5761266b61469d565b6020026020010151670de0b6b3a76400006128f5565b5081905061268e8161457a565b91505061244a565b5f8051602061479e8339815191526126ad816128eb565b50602255565b5f81815260176020526040812054610100900460ff166127095760405162461bcd60e51b81526020600482015260116024820152701c995c5d595cdd081b9bdd08199bdd5b99607a1b6044820152606401610dce565b5f8281526017602090815260408083208151606081018352815460ff808216151583526101009091041615158185015260018201805484518187028101870186528181529295939486019383018282801561278157602002820191905f5260205f20905b81548152602001906001019080831161276d575b5050505050815250509050603354602e54106127d357606181604001515f815181106127af576127af61469d565b60200260200101516127c191906146b1565b6127cc90600161463b565b9392505050565b60225481604001515f815181106127af576127af61469d565b50919050565b6001600160a01b0383165f9081526024602052604090205460ff16612874576025805460018082019092557f401968ff42a154441da5f6c4c935ac46b8671f0e062baaa62a7545ba53bb6e4c0180546001600160a01b0319166001600160a01b0386169081179091555f908152602460205260409020805460ff191690911790555b6001600160a01b0383165f818152602360209081526040808320869055602654835260278252808320848452600501825291829020805460ff191660011790558151858152841515918101919091527fc05909672b3730633581d6cf7b807382b3572d7805ace294b8d4b3558c5cc7ff9101611a65565b611c6e813361367d565b6001600160a01b0383165f90815260076020526040812054612918908390614628565b6001600160a01b038086165f90815260076020526040808220939093559085168152205461294790839061463b565b6001600160a01b038085165f8181526007602052604090819020939093559151908616905f8051602061477e833981519152906129879086815260200190565b60405180910390a35060019392505050565b5f546001600160a01b031633146115c05760405163118cdaa760e01b8152336004820152602401610dce565b5f82815260176020526040902054610100900460ff16612a1b5760405162461bcd60e51b81526020600482015260116024820152701c995c5d595cdd081b9bdd08199bdd5b99607a1b6044820152606401610dce565b5f828152601760209081526040909120805460ff1916600190811782558351612a4b93929091019184019061407b565b506026545f908152602760209081526040808320858452600681018352818420546001600160a01b0316845260080190915290819020805460ff19166001179055517ffe2e2d779dba245964d4e3ef9b994be63856fd568bf7d3ca9e224755cb1bd54d90612abc90849084906146c4565b60405180910390a15050565b6001600160a01b0383165f9081526009602052604081205460ff1680612b0557506001600160a01b0383165f9081526009602052604090205460ff165b80612b195750601954600160a01b900460ff165b612b655760405162461bcd60e51b815260206004820152601b60248201527f4e6f7420617574686f72697a656420746f2074726164652079657400000000006044820152606401610dce565b6019546001600160a01b03848116911614612bd0576001600160a01b0383165f908152601c602052604090205460ff16612bd05760405162461bcd60e51b815260206004820152600c60248201526b139bdd081a5b999958dd195960a21b6044820152606401610dce565b604054610100900460ff168015612bf557506019546001600160a01b03848116911614155b15612c8457612c115f8051602061479e83398151915285611cfc565b80612c2e5750612c2e5f8051602061479e83398151915284611cfc565b612c845760405162461bcd60e51b815260206004820152602160248201527f47616d65206973206f7665722c206f6e6c792061646d696e732063616e2062756044820152607960f81b6064820152608401610dce565b5f546001600160a01b03858116911614801590612cae57505f546001600160a01b03848116911614155b8015612cc557506001600160a01b03831661dead14155b15612d89576019546001600160a01b03848116911614612d89576001600160a01b0383165f908152600a602052604090205460ff1680612d2957506006546001600160a01b0384165f90815260076020526040902054612d2690849061463b565b11155b612d895760405162461bcd60e51b815260206004820152602b60248201527f5472616e7366657220616d6f756e74206578636565647320746865204d61785760448201526a30b63632ba1039b4bd329760a91b6064820152608401610dce565b612d916136b6565b8015612daa57506019546001600160a01b038481169116145b15612db757612db7613713565b6001600160a01b0384165f90815260076020526040902054612dda908390614628565b6001600160a01b0385165f90815260076020908152604080832093909355600990529081205460ff16151580612e2957506001600160a01b0384165f9081526009602052604090205460ff1615155b612e3d57612e388585856138eb565b612e3f565b825b6001600160a01b0385165f90815260076020526040902054909150612e6590829061463b565b6001600160a01b038086165f8181526007602052604090819020939093559151908716905f8051602061477e83398151915290612ea59085815260200190565b60405180910390a3506001949350505050565b6001600160a01b038316612f1a5760405162461bcd60e51b8152602060048201526024808201527f45524332303a20617070726f76652066726f6d20746865207a65726f206164646044820152637265737360e01b6064820152608401610dce565b6001600160a01b038216612f7b5760405162461bcd60e51b815260206004820152602260248201527f45524332303a20617070726f766520746f20746865207a65726f206164647265604482015261737360f01b6064820152608401610dce565b6001600160a01b038381165f8181526008602090815260408083209487168084529482529182902085905590518481527f8c5be1e5ebec7d5bd14f71427d1e84f3dd0314c0f7b2291e5b200ac8c7c3b925910160405180910390a3505050565b5f612fe68383611cfc565b61304a575f8381526001602081815260408084206001600160a01b0387168086529252808420805460ff19169093179092559051339286917f2f8788117e7eff1d82e926ec794901d17c78024a50270940304540a733656f0d9190a4506001611154565b505f611154565b5f61305c8383611cfc565b1561304a575f8381526001602090815260408083206001600160a01b0386168085529252808320805460ff1916905551339286917ff6391f5c32d9c69d2a47ea670b442974b53935d1edc7fd64eb21e047a839171b9190a4506001611154565b6026545f9081526027602052604090206009015415613148576021546026545f9081526027602052604090819020905163f25addf560e01b81526001600160a01b039092169163f25addf59161311a9160099091019060040161464e565b5f604051808303815f87803b158015613131575f80fd5b505af1158015613143573d5f803e3d5ffd5b505050505b60268054905f6131578361457a565b90915550506026545f818152602760205260409020908155426001909101819055613185906201437061463b565b6026545f90815260276020526040812060020191909155602b819055602c819055602d819055602e81905560288190555b602554811015613264575f60235f602584815481106131d7576131d761469d565b5f9182526020808320909101546001600160a01b03168352820192909252604001902054111561325257600160235f602584815481106132195761321961469d565b5f9182526020808320909101546001600160a01b031683528201929092526040018120805490919061324c908490614628565b90915550505b8061325c8161457a565b9150506131b6565b5060405460ff1661327d576040805460ff191660011790555b6115c0613d83565b3361328e61405d565b61329661405d565b5f805b60058110156132fc57601e5f604483600581106132b8576132b861469d565b01546001600160a01b0316815260208101919091526040015f20548482600581106132e5576132e561469d565b6020020152806132f48161457a565b915050613299565b505f5b600581101561334b57846001600160a01b0316604482600581106133255761332561469d565b01546001600160a01b031603613339578091505b806133438161457a565b9150506132ff565b506001600160a01b0384165f908152601e6020526040902054835110801561337e575061337a60016005614628565b8114155b1561177057805f03613397576001600160a01b03841682525b5f6133a382600161463b565b90505b600581101561346a576001600160a01b0385165f908152601e60205260409020548482600581106133d9576133d961469d565b6020020151101561345857604481600581106133f7576133f761469d565b01546001600160a01b03168361340e600184614628565b6005811061341e5761341e61469d565b6001600160a01b039092166020929092020152848382600581106134445761344461469d565b6001600160a01b0390921660209290920201525b806134628161457a565b9150506133a6565b50611c6960448360056140c4565b5f80546001600160a01b038381166001600160a01b0319831681178455604051919092169283917f8be0079c531659141344cd1fd0a4f28419497f9722a3daafe3b4186f6b6457e09190a35050565b6012546015546016546040516305d3b1d360e41b81526004810192909252600160a01b830467ffffffffffffffff166024830152640100000000810461ffff16604483015263ffffffff808216606484015266010000000000009091041660848201525f916001600160a01b031690635d3b1d309060a4016020604051808303815f875af115801561355b573d5f803e3d5ffd5b505050506040513d601f19601f8201168201806040525081019061357f9190614710565b604080516060810182525f8082526001602080840182815285518481528083018752858701908152878552601783529590932084518154945161ffff1990951690151561ff001916176101009415159490940293909317835593518051959650929491936135f3939185019291019061407b565b5050601380546001810182555f919091527f66de8ffda797e3de9c05e8fc57b3bf0ec28a930d40b0d285d93c06501cf6a0900182905550601481905560165460408051838152660100000000000090920463ffffffff1660208301527fcc58b13ad3eab50626c6a6300b1d139cd6ebb1688a7cced9461c2f7e762665ee910160405180910390a190565b6136878282611cfc565b610fff5760405163e2517d3f60e01b81526001600160a01b038216600482015260248101839052604401610dce565b6019545f906001600160a01b031633148015906136d65750601b5460ff16155b80156136eb5750601954600160a81b900460ff165b801561370e5750601a5460415461370130611c71565b61370b9190614628565b10155b905090565b601b805460ff191660011790556041545f9061372e30611c71565b6137389190614628565b6040805160028082526060820183529293505f92909160208301908036833701905050905030815f815181106137705761377061469d565b6001600160a01b03928316602091820292909201810191909152601854604080516315ab88c960e31b81529051919093169263ad5c46489260048083019391928290030181865afa1580156137c7573d5f803e3d5ffd5b505050506040513d601f19601f820116820180604052508101906137eb9190614727565b816001815181106137fe576137fe61469d565b6001600160a01b0392831660209182029290920101526018541663791ac947835f843061382d4261012c61463b565b6040518663ffffffff1660e01b815260040161384d959493929190614742565b5f604051808303815f87803b158015613864575f80fd5b505af1158015613876573d5f803e3d5ffd5b5047925050811590506138dc576010546040515f916001600160a01b03169061753090849084818181858888f193505050503d805f81146138d2576040519150601f19603f3d011682016040523d82523d5f602084013e6138d7565b606091505b505050505b5050601b805460ff1916905550565b6019545f9081908190819081906001600160a01b03898116911614801561392057506019546001600160a01b03888116911614155b15613ac5576001600160a01b0387165f908152602360205260409020546001036139d15760036127106034548861395791906145c4565b61396191906145ef565b61396b91906145ef565b6001600160a01b038089165f908152601d60209081526040808320549093168252601f9052908120805492965086955085945084929091906139ae90849061463b565b925050819055508260415f8282546139c6919061463b565b90915550613c8d9050565b6001600160a01b0387165f90815260236020526040902054600203613a7d57600361271060355488613a0391906145c4565b613a0d91906145ef565b613a1791906145ef565b6001600160a01b038089165f908152601d60209081526040808320549093168252601f905290812080549296508695508594508492909190613a5a90849061463b565b925050819055508260415f828254613a72919061463b565b90915550613ac09050565b6001600160a01b0387165f90815260236020526040902054600303613aaf57600361271060365488613a0391906145c4565b612710600c548761396191906145c4565b613c8d565b6019546001600160a01b03898116911614801590613af057506019546001600160a01b038881169116145b15613c8d57604054610100900460ff1615613b2457612710613b1387600a6145c4565b613b1d91906145ef565b9350613c8d565b6001600160a01b0388165f90815260236020526040902054600103613bad57600361271060375488613b5691906145c4565b613b6091906145ef565b613b6a91906145ef565b6001600160a01b03808a165f908152601d60209081526040808320549093168252601f9052908120805492965086955085945084929091906139ae90849061463b565b6001600160a01b0388165f90815260236020526040902054600203613bdf57600361271060385488613b5691906145c4565b6001600160a01b0388165f90815260236020526040902054600303613c1157600361271060395488613b5691906145c4565b612710600e5487613c2291906145c4565b613c2c91906145ef565b6001600160a01b03808a165f908152601d60209081526040808320549093168252601f905290812080549296508695508594508492909190613c6f90849061463b565b925050819055508260415f828254613c87919061463b565b90915550505b81613c98848661463b565b613ca2919061463b565b90508015613d6d57613cb48282614628565b305f9081526007602052604081208054909190613cd290849061463b565b90915550506021546001600160a01b03165f9081526007602052604081208054849290613d0090849061463b565b909155503090506001600160a01b0389165f8051602061477e833981519152613d298585614628565b60405190815260200160405180910390a36021546040518381526001600160a01b03918216918a16905f8051602061477e8339815191529060200160405180910390a35b613d778187614628565b98975050505050505050565b600554613db6600554602654603a54613d9c91906145c4565b613da79060646145c4565b613db191906145c4565b613ed1565b600b54613dc39190614628565b613dcd91906145ef565b603455600554602654603b54613de9918391613d9c91906145c4565b600b54613df69190614628565b613e0091906145ef565b603555600554602654603c54613e1c918391613d9c91906145c4565b600b54613e299190614628565b613e3391906145ef565b603655600554602654603d54613e4f918391613d9c91906145c4565b600d54613e5c9190614628565b613e6691906145ef565b603755600554602654603e54613e82918391613d9c91906145c4565b600d54613e8f9190614628565b613e9991906145ef565b603855600554602654603f54613eb5918391613d9c91906145c4565b600d54613ec29190614628565b613ecc91906145ef565b603955565b5f815f03613ee057505f919050565b5f6001613eec84613fb5565b901c6001901b90506001818481613f0557613f056145db565b048201901c90506001818481613f1d57613f1d6145db565b048201901c90506001818481613f3557613f356145db565b048201901c90506001818481613f4d57613f4d6145db565b048201901c90506001818481613f6557613f656145db565b048201901c90506001818481613f7d57613f7d6145db565b048201901c90506001818481613f9557613f956145db565b048201901c90506127cc81828581613faf57613faf6145db565b04614048565b5f80608083901c15613fc957608092831c92015b604083901c15613fdb57604092831c92015b602083901c15613fed57602092831c92015b601083901c15613fff57601092831c92015b600883901c1561401157600892831c92015b600483901c1561402357600492831c92015b600283901c1561403557600292831c92015b600183901c156111545760010192915050565b5f81831061405657816127cc565b5090919050565b6040518060a001604052806005906020820280368337509192915050565b828054828255905f5260205f209081019282156140b4579160200282015b828111156140b4578251825591602001919060010190614099565b506140c092915061410c565b5090565b82600581019282156140b4579160200282015b828111156140b457825182546001600160a01b0319166001600160a01b039091161782556020909201916001909101906140d7565b5b808211156140c0575f815560010161410d565b6001600160a01b0381168114611c6e575f80fd5b5f60208284031215614144575f80fd5b81356127cc81614120565b5f6020828403121561415f575f80fd5b81356001600160e01b0319811681146127cc575f80fd5b5f6020808352835180828501525f5b818110156141a157858101830151858201604001528201614185565b505f604082860101526040601f19601f8301168501019250505092915050565b5f80604083850312156141d2575f80fd5b82356141dd81614120565b946020939093013593505050565b5f602082840312156141fb575f80fd5b5035919050565b634e487b7160e01b5f52604160045260245ffd5b604051601f8201601f1916810167ffffffffffffffff8111828210171561423f5761423f614202565b604052919050565b5f67ffffffffffffffff82111561426057614260614202565b5060051b60200190565b5f806040838503121561427b575f80fd5b8235915060208084013567ffffffffffffffff811115614299575f80fd5b8401601f810186136142a9575f80fd5b80356142bc6142b782614247565b614216565b81815260059190911b820183019083810190888311156142da575f80fd5b928401925b828410156142f8578335825292840192908401906142df565b80955050505050509250929050565b80358015158114614316575f80fd5b919050565b5f806040838503121561432c575f80fd5b823561433781614120565b915061434560208401614307565b90509250929050565b5f805f60608486031215614360575f80fd5b833561436b81614120565b9250602084013561437b81614120565b929592945050506040919091013590565b5f806040838503121561439d575f80fd5b8235915060208301356143af81614120565b809150509250929050565b5f8151808452602080850194508084015f5b838110156143f15781516001600160a01b0316875295820195908201906001016143cc565b509495945050505050565b602081525f6127cc60208301846143ba565b60a0810181835f5b600581101561443e5781516001600160a01b0316835260209283019290910190600101614416565b50505092915050565b5f8060408385031215614458575f80fd5b823561446381614120565b915060208301356143af81614120565b5f8060408385031215614484575f80fd5b6141dd83614307565b5f602080838503121561449e575f80fd5b823567ffffffffffffffff8111156144b4575f80fd5b8301601f810185136144c4575f80fd5b80356144d26142b782614247565b81815260059190911b820183019083810190878311156144f0575f80fd5b928401925b8284101561451757833561450881614120565b825292840192908401906144f5565b979650505050505050565b60208082526024908201527f45706f6368206973206f7665722c207761697420666f7220746865206e657874604082015263206f6e6560e01b606082015260800190565b634e487b7160e01b5f52601160045260245ffd5b5f6001820161458b5761458b614566565b5060010190565b600181811c908216806145a657607f821691505b6020821081036127ec57634e487b7160e01b5f52602260045260245ffd5b808202811582820484141761115457611154614566565b634e487b7160e01b5f52601260045260245ffd5b5f826145fd576145fd6145db565b500490565b6020808252600c908201526b23b0b6b29034b99037bb32b960a11b604082015260600190565b8181038181111561115457611154614566565b8082018082111561115457611154614566565b602080825282548282018190525f8481528281209092916040850190845b818110156146915783546001600160a01b03168352600193840193928501920161466c565b50909695505050505050565b634e487b7160e01b5f52603260045260245ffd5b5f826146bf576146bf6145db565b500690565b5f60408201848352602060408185015281855180845260608601915082870193505f5b81811015614703578451835293830193918301916001016146e7565b5090979650505050505050565b5f60208284031215614720575f80fd5b5051919050565b5f60208284031215614737575f80fd5b81516127cc81614120565b85815284602082015260a060408201525f61476060a08301866143ba565b6001600160a01b039490941660608301525060800152939250505056feddf252ad1be2c89b69c2b068fc378daa952ba7f163c4a11628f55a4df523b3efa49807205ce4d355092ef5a8a18f56e8913cf4a201fbe287825b095693c21775a26469706673582212208c278110625d65fdacf2218b2b0c52648e7913cf14c392640b38a2646b2e41fe64736f6c6343000814003360806040526a14adf4b7320334b90000006003555f600455348015610022575f80fd5b5060405161086238038061086283398101604081905261004191610113565b806001600160a01b03811661006f57604051631e4fbdf760e01b81525f600482015260240160405180910390fd5b610078816100a9565b5050600180546001600160a01b039092166001600160a01b0319928316811790915560028054909216179055610144565b5f80546001600160a01b038381166001600160a01b0319831681178455604051919092169283917f8be0079c531659141344cd1fd0a4f28419497f9722a3daafe3b4186f6b6457e09190a35050565b80516001600160a01b038116811461010e575f80fd5b919050565b5f8060408385031215610124575f80fd5b61012d836100f8565b915061013b602084016100f8565b90509250929050565b610711806101515f395ff3fe608060405234801561000f575f80fd5b5060043610610085575f3560e01c8063efca2eed11610058578063efca2eed146100d7578063f25addf5146100ee578063f2fde38b14610101578063fc0c546a14610114575f80fd5b8063715018a614610089578063853828b6146100935780638da5cb5b1461009b5780639d76ea58146100c4575b5f80fd5b610091610127565b005b61009161013a565b5f546001600160a01b03165b6040516001600160a01b0390911681526020015b60405180910390f35b6002546100a7906001600160a01b031681565b6100e060045481565b6040519081526020016100bb565b6100916100fc36600461054d565b610225565b61009161010f36600461060d565b610469565b6001546100a7906001600160a01b031681565b61012f6104a3565b6101385f6104cf565b565b6101426104a3565b6001546040516370a0823160e01b81523060048201526001600160a01b039091169063a9059cbb90339083906370a0823190602401602060405180830381865afa158015610192573d5f803e3d5ffd5b505050506040513d601f19601f820116820180604052508101906101b6919061062d565b6040516001600160e01b031960e085901b1681526001600160a01b03909216600483015260248201526044016020604051808303815f875af11580156101fe573d5f803e3d5ffd5b505050506040513d601f19601f820116820180604052508101906102229190610644565b50565b6002546001600160a01b031633146102975760405162461bcd60e51b815260206004820152602a60248201527f4f6e6c7920746f6b656e20636f6e74726163742063616e2063616c6c207468696044820152693990333ab731ba34b7b760b11b60648201526084015b60405180910390fd5b6003546001546040516370a0823160e01b81523060048201525f92916001600160a01b0316906370a0823190602401602060405180830381865afa1580156102e1573d5f803e3d5ffd5b505050506040513d601f19601f82011682018060405250810190610305919061062d565b11610379576001546040516370a0823160e01b81523060048201526001600160a01b03909116906370a0823190602401602060405180830381865afa158015610350573d5f803e3d5ffd5b505050506040513d601f19601f82011682018060405250810190610374919061062d565b61037d565b6003545b90508060045f8282546103909190610677565b90915550508015610465575f5b82518110156104635760015483516001600160a01b039091169063a9059cbb908590849081106103cf576103cf610690565b60200260200101518551856103e491906106a4565b6040516001600160e01b031960e085901b1681526001600160a01b03909216600483015260248201526044016020604051808303815f875af115801561042c573d5f803e3d5ffd5b505050506040513d601f19601f820116820180604052508101906104509190610644565b508061045b816106c3565b91505061039d565b505b5050565b6104716104a3565b6001600160a01b03811661049a57604051631e4fbdf760e01b81525f600482015260240161028e565b610222816104cf565b5f546001600160a01b031633146101385760405163118cdaa760e01b815233600482015260240161028e565b5f80546001600160a01b038381166001600160a01b0319831681178455604051919092169283917f8be0079c531659141344cd1fd0a4f28419497f9722a3daafe3b4186f6b6457e09190a35050565b634e487b7160e01b5f52604160045260245ffd5b80356001600160a01b0381168114610548575f80fd5b919050565b5f602080838503121561055e575f80fd5b823567ffffffffffffffff80821115610575575f80fd5b818501915085601f830112610588575f80fd5b81358181111561059a5761059a61051e565b8060051b604051601f19603f830116810181811085821117156105bf576105bf61051e565b6040529182528482019250838101850191888311156105dc575f80fd5b938501935b82851015610601576105f285610532565b845293850193928501926105e1565b98975050505050505050565b5f6020828403121561061d575f80fd5b61062682610532565b9392505050565b5f6020828403121561063d575f80fd5b5051919050565b5f60208284031215610654575f80fd5b81518015158114610626575f80fd5b634e487b7160e01b5f52601160045260245ffd5b8082018082111561068a5761068a610663565b92915050565b634e487b7160e01b5f52603260045260245ffd5b5f826106be57634e487b7160e01b5f52601260045260245ffd5b500490565b5f600182016106d4576106d4610663565b506001019056fea26469706673582212201d7f012b7b8d4044cd76cbdd9262dff591ba59b8a1656b95a0023bb3508005df64736f6c63430008140033",
  "linkReferences": {},
  "deployedLinkReferences": {}
}