{
  "_format": "hh-sol-artifact-1",
  "contractName": "BLI",
  "sourceName": "contracts/BLI.sol",
  "abi": [
    {
      "inputs": [
        {
          "internalType": "address",
          "name": "initialOwner",
          "type": "address"
        }
      ],
      "stateMutability": "nonpayable",
      "type": "constructor"
    },
    {
      "inputs": [],
      "name": "AccessControlBadConfirmation",
      "type": "error"
    },
    {
      "inputs": [
        {
          "internalType": "address",
          "name": "account",
          "type": "address"
        },
        {
          "internalType": "bytes32",
          "name": "neededRole",
          "type": "bytes32"
        }
      ],
      "name": "AccessControlUnauthorizedAccount",
      "type": "error"
    },
    {
      "inputs": [
        {
          "internalType": "address",
          "name": "have",
          "type": "address"
        },
        {
          "internalType": "address",
          "name": "want",
          "type": "address"
        }
      ],
      "name": "OnlyCoordinatorCanFulfill",
      "type": "error"
    },
    {
      "inputs": [
        {
          "internalType": "address",
          "name": "owner",
          "type": "address"
        }
      ],
      "name": "OwnableInvalidOwner",
      "type": "error"
    },
    {
      "inputs": [
        {
          "internalType": "address",
          "name": "account",
          "type": "address"
        }
      ],
      "name": "OwnableUnauthorizedAccount",
      "type": "error"
    },
    {
      "anonymous": false,
      "inputs": [
        {
          "indexed": true,
          "internalType": "address",
          "name": "owner",
          "type": "address"
        },
        {
          "indexed": true,
          "internalType": "address",
          "name": "spender",
          "type": "address"
        },
        {
          "indexed": false,
          "internalType": "uint256",
          "name": "value",
          "type": "uint256"
        }
      ],
      "name": "Approval",
      "type": "event"
    },
    {
      "anonymous": false,
      "inputs": [
        {
          "indexed": false,
          "internalType": "uint256",
          "name": "amountETH",
          "type": "uint256"
        },
        {
          "indexed": false,
          "internalType": "uint256",
          "name": "amountBOG",
          "type": "uint256"
        }
      ],
      "name": "AutoLiquify",
      "type": "event"
    },
    {
      "anonymous": false,
      "inputs": [
        {
          "indexed": true,
          "internalType": "address",
          "name": "user",
          "type": "address"
        },
        {
          "indexed": false,
          "internalType": "uint256",
          "name": "id",
          "type": "uint256"
        }
      ],
      "name": "CapsuleBought",
      "type": "event"
    },
    {
      "anonymous": false,
      "inputs": [
        {
          "indexed": true,
          "internalType": "address",
          "name": "user",
          "type": "address"
        },
        {
          "indexed": false,
          "internalType": "uint256",
          "name": "vaccine",
          "type": "uint256"
        },
        {
          "indexed": false,
          "internalType": "bool",
          "name": "vaccine4",
          "type": "bool"
        }
      ],
      "name": "CapsuleOpened",
      "type": "event"
    },
    {
      "anonymous": false,
      "inputs": [
        {
          "indexed": false,
          "internalType": "uint256",
          "name": "epochId",
          "type": "uint256"
        }
      ],
      "name": "NewEpochStarted",
      "type": "event"
    },
    {
      "anonymous": false,
      "inputs": [
        {
          "indexed": true,
          "internalType": "address",
          "name": "previousOwner",
          "type": "address"
        },
        {
          "indexed": true,
          "internalType": "address",
          "name": "newOwner",
          "type": "address"
        }
      ],
      "name": "OwnershipTransferred",
      "type": "event"
    },
    {
      "anonymous": false,
      "inputs": [
        {
          "indexed": false,
          "internalType": "uint256",
          "name": "requestId",
          "type": "uint256"
        },
        {
          "indexed": false,
          "internalType": "uint256[]",
          "name": "randomWords",
          "type": "uint256[]"
        }
      ],
      "name": "RequestFulfilled",
      "type": "event"
    },
    {
      "anonymous": false,
      "inputs": [
        {
          "indexed": false,
          "internalType": "uint256",
          "name": "requestId",
          "type": "uint256"
        },
        {
          "indexed": false,
          "internalType": "uint32",
          "name": "numWords",
          "type": "uint32"
        }
      ],
      "name": "RequestSent",
      "type": "event"
    },
    {
      "anonymous": false,
      "inputs": [
        {
          "indexed": true,
          "internalType": "bytes32",
          "name": "role",
          "type": "bytes32"
        },
        {
          "indexed": true,
          "internalType": "bytes32",
          "name": "previousAdminRole",
          "type": "bytes32"
        },
        {
          "indexed": true,
          "internalType": "bytes32",
          "name": "newAdminRole",
          "type": "bytes32"
        }
      ],
      "name": "RoleAdminChanged",
      "type": "event"
    },
    {
      "anonymous": false,
      "inputs": [
        {
          "indexed": true,
          "internalType": "bytes32",
          "name": "role",
          "type": "bytes32"
        },
        {
          "indexed": true,
          "internalType": "address",
          "name": "account",
          "type": "address"
        },
        {
          "indexed": true,
          "internalType": "address",
          "name": "sender",
          "type": "address"
        }
      ],
      "name": "RoleGranted",
      "type": "event"
    },
    {
      "anonymous": false,
      "inputs": [
        {
          "indexed": true,
          "internalType": "bytes32",
          "name": "role",
          "type": "bytes32"
        },
        {
          "indexed": true,
          "internalType": "address",
          "name": "account",
          "type": "address"
        },
        {
          "indexed": true,
          "internalType": "address",
          "name": "sender",
          "type": "address"
        }
      ],
      "name": "RoleRevoked",
      "type": "event"
    },
    {
      "anonymous": false,
      "inputs": [
        {
          "indexed": true,
          "internalType": "address",
          "name": "from",
          "type": "address"
        },
        {
          "indexed": true,
          "internalType": "address",
          "name": "to",
          "type": "address"
        },
        {
          "indexed": false,
          "internalType": "uint256",
          "name": "value",
          "type": "uint256"
        }
      ],
      "name": "Transfer",
      "type": "event"
    },
    {
      "anonymous": false,
      "inputs": [
        {
          "indexed": true,
          "internalType": "address",
          "name": "user",
          "type": "address"
        },
        {
          "indexed": false,
          "internalType": "uint256",
          "name": "amount",
          "type": "uint256"
        }
      ],
      "name": "_claim",
      "type": "event"
    },
    {
      "inputs": [],
      "name": "ADMIN_ROLE",
      "outputs": [
        {
          "internalType": "bytes32",
          "name": "",
          "type": "bytes32"
        }
      ],
      "stateMutability": "view",
      "type": "function"
    },
    {
      "inputs": [],
      "name": "DEFAULT_ADMIN_ROLE",
      "outputs": [
        {
          "internalType": "bytes32",
          "name": "",
          "type": "bytes32"
        }
      ],
      "stateMutability": "view",
      "type": "function"
    },
    {
      "inputs": [],
      "name": "MarketingWallet",
      "outputs": [
        {
          "internalType": "address",
          "name": "",
          "type": "address"
        }
      ],
      "stateMutability": "view",
      "type": "function"
    },
    {
      "inputs": [
        {
          "internalType": "address",
          "name": "holder",
          "type": "address"
        },
        {
          "internalType": "address",
          "name": "spender",
          "type": "address"
        }
      ],
      "name": "allowance",
      "outputs": [
        {
          "internalType": "uint256",
          "name": "",
          "type": "uint256"
        }
      ],
      "stateMutability": "view",
      "type": "function"
    },
    {
      "inputs": [],
      "name": "amountOfAllInfection",
      "outputs": [
        {
          "internalType": "uint256",
          "name": "",
          "type": "uint256"
        }
      ],
      "stateMutability": "view",
      "type": "function"
    },
    {
      "inputs": [
        {
          "internalType": "address",
          "name": "",
          "type": "address"
        }
      ],
      "name": "amountOfInfection",
      "outputs": [
        {
          "internalType": "uint256",
          "name": "",
          "type": "uint256"
        }
      ],
      "stateMutability": "view",
      "type": "function"
    },
    {
      "inputs": [
        {
          "internalType": "address",
          "name": "spender",
          "type": "address"
        },
        {
          "internalType": "uint256",
          "name": "amount",
          "type": "uint256"
        }
      ],
      "name": "approve",
      "outputs": [
        {
          "internalType": "bool",
          "name": "",
          "type": "bool"
        }
      ],
      "stateMutability": "nonpayable",
      "type": "function"
    },
    {
      "inputs": [
        {
          "internalType": "address",
          "name": "spender",
          "type": "address"
        }
      ],
      "name": "approveMax",
      "outputs": [
        {
          "internalType": "bool",
          "name": "",
          "type": "bool"
        }
      ],
      "stateMutability": "nonpayable",
      "type": "function"
    },
    {
      "inputs": [
        {
          "internalType": "address",
          "name": "account",
          "type": "address"
        }
      ],
      "name": "balanceOf",
      "outputs": [
        {
          "internalType": "uint256",
          "name": "",
          "type": "uint256"
        }
      ],
      "stateMutability": "view",
      "type": "function"
    },
    {
      "inputs": [],
      "name": "buyCapsule",
      "outputs": [],
      "stateMutability": "nonpayable",
      "type": "function"
    },
    {
      "inputs": [],
      "name": "capsuleCount",
      "outputs": [
        {
          "internalType": "uint256",
          "name": "",
          "type": "uint256"
        }
      ],
      "stateMutability": "view",
      "type": "function"
    },
    {
      "inputs": [],
      "name": "capsuleCurrentCount",
      "outputs": [
        {
          "internalType": "uint256",
          "name": "",
          "type": "uint256"
        }
      ],
      "stateMutability": "view",
      "type": "function"
    },
    {
      "inputs": [],
      "name": "capsulePrice",
      "outputs": [
        {
          "internalType": "uint256",
          "name": "",
          "type": "uint256"
        }
      ],
      "stateMutability": "view",
      "type": "function"
    },
    {
      "inputs": [],
      "name": "claim",
      "outputs": [],
      "stateMutability": "nonpayable",
      "type": "function"
    },
    {
      "inputs": [],
      "name": "decimals",
      "outputs": [
        {
          "internalType": "uint8",
          "name": "",
          "type": "uint8"
        }
      ],
      "stateMutability": "pure",
      "type": "function"
    },
    {
      "inputs": [],
      "name": "endGame",
      "outputs": [],
      "stateMutability": "nonpayable",
      "type": "function"
    },
    {
      "inputs": [],
      "name": "epochId",
      "outputs": [
        {
          "internalType": "uint256",
          "name": "",
          "type": "uint256"
        }
      ],
      "stateMutability": "view",
      "type": "function"
    },
    {
      "inputs": [
        {
          "internalType": "uint256",
          "name": "",
          "type": "uint256"
        }
      ],
      "name": "epochs",
      "outputs": [
        {
          "internalType": "uint256",
          "name": "id",
          "type": "uint256"
        },
        {
          "internalType": "uint256",
          "name": "startTime",
          "type": "uint256"
        },
        {
          "internalType": "uint256",
          "name": "endTime",
          "type": "uint256"
        }
      ],
      "stateMutability": "view",
      "type": "function"
    },
    {
      "inputs": [],
      "name": "getBestInfectors",
      "outputs": [
        {
          "internalType": "address[5]",
          "name": "",
          "type": "address[5]"
        }
      ],
      "stateMutability": "view",
      "type": "function"
    },
    {
      "inputs": [],
      "name": "getGotLuckyVaccine",
      "outputs": [
        {
          "internalType": "address[]",
          "name": "",
          "type": "address[]"
        }
      ],
      "stateMutability": "view",
      "type": "function"
    },
    {
      "inputs": [
        {
          "internalType": "address",
          "name": "user",
          "type": "address"
        }
      ],
      "name": "getHasOpenedCapsule",
      "outputs": [
        {
          "internalType": "bool",
          "name": "",
          "type": "bool"
        }
      ],
      "stateMutability": "view",
      "type": "function"
    },
    {
      "inputs": [
        {
          "internalType": "address",
          "name": "user",
          "type": "address"
        }
      ],
      "name": "getHasUpgrade",
      "outputs": [
        {
          "internalType": "bool",
          "name": "",
          "type": "bool"
        }
      ],
      "stateMutability": "view",
      "type": "function"
    },
    {
      "inputs": [
        {
          "internalType": "address",
          "name": "user",
          "type": "address"
        }
      ],
      "name": "getIsBuyer",
      "outputs": [
        {
          "internalType": "bool",
          "name": "",
          "type": "bool"
        }
      ],
      "stateMutability": "view",
      "type": "function"
    },
    {
      "inputs": [
        {
          "internalType": "address",
          "name": "user",
          "type": "address"
        }
      ],
      "name": "getRequestFullfilled",
      "outputs": [
        {
          "internalType": "bool",
          "name": "",
          "type": "bool"
        }
      ],
      "stateMutability": "view",
      "type": "function"
    },
    {
      "inputs": [
        {
          "internalType": "bytes32",
          "name": "role",
          "type": "bytes32"
        }
      ],
      "name": "getRoleAdmin",
      "outputs": [
        {
          "internalType": "bytes32",
          "name": "",
          "type": "bytes32"
        }
      ],
      "stateMutability": "view",
      "type": "function"
    },
    {
      "inputs": [
        {
          "internalType": "bytes32",
          "name": "role",
          "type": "bytes32"
        },
        {
          "internalType": "address",
          "name": "account",
          "type": "address"
        }
      ],
      "name": "grantRole",
      "outputs": [],
      "stateMutability": "nonpayable",
      "type": "function"
    },
    {
      "inputs": [
        {
          "internalType": "bytes32",
          "name": "role",
          "type": "bytes32"
        },
        {
          "internalType": "address",
          "name": "account",
          "type": "address"
        }
      ],
      "name": "hasRole",
      "outputs": [
        {
          "internalType": "bool",
          "name": "",
          "type": "bool"
        }
      ],
      "stateMutability": "view",
      "type": "function"
    },
    {
      "inputs": [
        {
          "internalType": "address",
          "name": "_toInfect",
          "type": "address"
        }
      ],
      "name": "infect",
      "outputs": [],
      "stateMutability": "nonpayable",
      "type": "function"
    },
    {
      "inputs": [
        {
          "internalType": "address[]",
          "name": "_toInfect",
          "type": "address[]"
        }
      ],
      "name": "infectOG",
      "outputs": [],
      "stateMutability": "nonpayable",
      "type": "function"
    },
    {
      "inputs": [
        {
          "internalType": "address",
          "name": "",
          "type": "address"
        }
      ],
      "name": "infected",
      "outputs": [
        {
          "internalType": "bool",
          "name": "",
          "type": "bool"
        }
      ],
      "stateMutability": "view",
      "type": "function"
    },
    {
      "inputs": [
        {
          "internalType": "address",
          "name": "",
          "type": "address"
        }
      ],
      "name": "infecter",
      "outputs": [
        {
          "internalType": "address",
          "name": "",
          "type": "address"
        }
      ],
      "stateMutability": "view",
      "type": "function"
    },
    {
      "inputs": [],
      "name": "isGameOver",
      "outputs": [
        {
          "internalType": "bool",
          "name": "",
          "type": "bool"
        }
      ],
      "stateMutability": "view",
      "type": "function"
    },
    {
      "inputs": [],
      "name": "isGameStarted",
      "outputs": [
        {
          "internalType": "bool",
          "name": "",
          "type": "bool"
        }
      ],
      "stateMutability": "view",
      "type": "function"
    },
    {
      "inputs": [],
      "name": "isTradingEnabled",
      "outputs": [
        {
          "internalType": "bool",
          "name": "",
          "type": "bool"
        }
      ],
      "stateMutability": "view",
      "type": "function"
    },
    {
      "inputs": [],
      "name": "lastRequestId",
      "outputs": [
        {
          "internalType": "uint256",
          "name": "",
          "type": "uint256"
        }
      ],
      "stateMutability": "view",
      "type": "function"
    },
    {
      "inputs": [],
      "name": "name",
      "outputs": [
        {
          "internalType": "string",
          "name": "",
          "type": "string"
        }
      ],
      "stateMutability": "view",
      "type": "function"
    },
    {
      "inputs": [
        {
          "internalType": "address",
          "name": "user",
          "type": "address"
        }
      ],
      "name": "openCapsule",
      "outputs": [],
      "stateMutability": "nonpayable",
      "type": "function"
    },
    {
      "inputs": [],
      "name": "owner",
      "outputs": [
        {
          "internalType": "address",
          "name": "",
          "type": "address"
        }
      ],
      "stateMutability": "view",
      "type": "function"
    },
    {
      "inputs": [],
      "name": "pair",
      "outputs": [
        {
          "internalType": "address",
          "name": "",
          "type": "address"
        }
      ],
      "stateMutability": "view",
      "type": "function"
    },
    {
      "inputs": [
        {
          "internalType": "address",
          "name": "",
          "type": "address"
        }
      ],
      "name": "pendingRewards",
      "outputs": [
        {
          "internalType": "uint256",
          "name": "",
          "type": "uint256"
        }
      ],
      "stateMutability": "view",
      "type": "function"
    },
    {
      "inputs": [
        {
          "internalType": "uint256",
          "name": "requestId",
          "type": "uint256"
        },
        {
          "internalType": "uint256[]",
          "name": "randomWords",
          "type": "uint256[]"
        }
      ],
      "name": "rawFulfillRandomWords",
      "outputs": [],
      "stateMutability": "nonpayable",
      "type": "function"
    },
    {
      "inputs": [],
      "name": "renounceOwnership",
      "outputs": [],
      "stateMutability": "nonpayable",
      "type": "function"
    },
    {
      "inputs": [
        {
          "internalType": "bytes32",
          "name": "role",
          "type": "bytes32"
        },
        {
          "internalType": "address",
          "name": "callerConfirmation",
          "type": "address"
        }
      ],
      "name": "renounceRole",
      "outputs": [],
      "stateMutability": "nonpayable",
      "type": "function"
    },
    {
      "inputs": [
        {
          "internalType": "uint256",
          "name": "",
          "type": "uint256"
        }
      ],
      "name": "requestIds",
      "outputs": [
        {
          "internalType": "uint256",
          "name": "",
          "type": "uint256"
        }
      ],
      "stateMutability": "view",
      "type": "function"
    },
    {
      "inputs": [
        {
          "internalType": "bytes32",
          "name": "role",
          "type": "bytes32"
        },
        {
          "internalType": "address",
          "name": "account",
          "type": "address"
        }
      ],
      "name": "revokeRole",
      "outputs": [],
      "stateMutability": "nonpayable",
      "type": "function"
    },
    {
      "inputs": [],
      "name": "rewardPool",
      "outputs": [
        {
          "internalType": "contract RewardPool",
          "name": "",
          "type": "address"
        }
      ],
      "stateMutability": "view",
      "type": "function"
    },
    {
      "inputs": [],
      "name": "router",
      "outputs": [
        {
          "internalType": "contract IUniswapV2Router02",
          "name": "",
          "type": "address"
        }
      ],
      "stateMutability": "view",
      "type": "function"
    },
    {
      "inputs": [
        {
          "internalType": "uint256",
          "name": "_price",
          "type": "uint256"
        }
      ],
      "name": "setCapsulePrice",
      "outputs": [],
      "stateMutability": "nonpayable",
      "type": "function"
    },
    {
      "inputs": [
        {
          "internalType": "address",
          "name": "_MarketingWallet",
          "type": "address"
        }
      ],
      "name": "setFeesWallet",
      "outputs": [],
      "stateMutability": "nonpayable",
      "type": "function"
    },
    {
      "inputs": [
        {
          "internalType": "address",
          "name": "holder",
          "type": "address"
        },
        {
          "internalType": "bool",
          "name": "exempt",
          "type": "bool"
        }
      ],
      "name": "setIsFeeExempt",
      "outputs": [],
      "stateMutability": "nonpayable",
      "type": "function"
    },
    {
      "inputs": [],
      "name": "setIsTradingEnabled",
      "outputs": [],
      "stateMutability": "nonpayable",
      "type": "function"
    },
    {
      "inputs": [
        {
          "internalType": "address",
          "name": "holder",
          "type": "address"
        },
        {
          "internalType": "bool",
          "name": "exempt",
          "type": "bool"
        }
      ],
      "name": "setIsWalletLimitExempt",
      "outputs": [],
      "stateMutability": "nonpayable",
      "type": "function"
    },
    {
      "inputs": [],
      "name": "setMaxWallet",
      "outputs": [],
      "stateMutability": "nonpayable",
      "type": "function"
    },
    {
      "inputs": [
        {
          "internalType": "uint256",
          "name": "_range",
          "type": "uint256"
        }
      ],
      "name": "setProbabilityMaxRange",
      "outputs": [],
      "stateMutability": "nonpayable",
      "type": "function"
    },
    {
      "inputs": [
        {
          "internalType": "uint256",
          "name": "_amount",
          "type": "uint256"
        }
      ],
      "name": "setSpecialVaccineSupply",
      "outputs": [],
      "stateMutability": "nonpayable",
      "type": "function"
    },
    {
      "inputs": [
        {
          "internalType": "bool",
          "name": "_enabled",
          "type": "bool"
        },
        {
          "internalType": "uint256",
          "name": "_amount",
          "type": "uint256"
        }
      ],
      "name": "setSwapBackSettings",
      "outputs": [],
      "stateMutability": "nonpayable",
      "type": "function"
    },
    {
      "inputs": [
        {
          "internalType": "address",
          "name": "pairaddr",
          "type": "address"
        }
      ],
      "name": "setSwapPair",
      "outputs": [],
      "stateMutability": "nonpayable",
      "type": "function"
    },
    {
      "inputs": [],
      "name": "startNewEpoch",
      "outputs": [],
      "stateMutability": "nonpayable",
      "type": "function"
    },
    {
      "inputs": [
        {
          "internalType": "bytes4",
          "name": "interfaceId",
          "type": "bytes4"
        }
      ],
      "name": "supportsInterface",
      "outputs": [
        {
          "internalType": "bool",
          "name": "",
          "type": "bool"
        }
      ],
      "stateMutability": "view",
      "type": "function"
    },
    {
      "inputs": [],
      "name": "swapEnabled",
      "outputs": [
        {
          "internalType": "bool",
          "name": "",
          "type": "bool"
        }
      ],
      "stateMutability": "view",
      "type": "function"
    },
    {
      "inputs": [],
      "name": "symbol",
      "outputs": [
        {
          "internalType": "string",
          "name": "",
          "type": "string"
        }
      ],
      "stateMutability": "view",
      "type": "function"
    },
    {
      "inputs": [],
      "name": "totalAllRewards",
      "outputs": [
        {
          "internalType": "uint256",
          "name": "",
          "type": "uint256"
        }
      ],
      "stateMutability": "view",
      "type": "function"
    },
    {
      "inputs": [
        {
          "internalType": "address",
          "name": "",
          "type": "address"
        }
      ],
      "name": "totalRewards",
      "outputs": [
        {
          "internalType": "uint256",
          "name": "",
          "type": "uint256"
        }
      ],
      "stateMutability": "view",
      "type": "function"
    },
    {
      "inputs": [],
      "name": "totalSupply",
      "outputs": [
        {
          "internalType": "uint256",
          "name": "",
          "type": "uint256"
        }
      ],
      "stateMutability": "view",
      "type": "function"
    },
    {
      "inputs": [
        {
          "internalType": "address",
          "name": "recipient",
          "type": "address"
        },
        {
          "internalType": "uint256",
          "name": "amount",
          "type": "uint256"
        }
      ],
      "name": "transfer",
      "outputs": [
        {
          "internalType": "bool",
          "name": "",
          "type": "bool"
        }
      ],
      "stateMutability": "nonpayable",
      "type": "function"
    },
    {
      "inputs": [
        {
          "internalType": "address",
          "name": "sender",
          "type": "address"
        },
        {
          "internalType": "address",
          "name": "recipient",
          "type": "address"
        },
        {
          "internalType": "uint256",
          "name": "amount",
          "type": "uint256"
        }
      ],
      "name": "transferFrom",
      "outputs": [
        {
          "internalType": "bool",
          "name": "",
          "type": "bool"
        }
      ],
      "stateMutability": "nonpayable",
      "type": "function"
    },
    {
      "inputs": [
        {
          "internalType": "address",
          "name": "newOwner",
          "type": "address"
        }
      ],
      "name": "transferOwnership",
      "outputs": [],
      "stateMutability": "nonpayable",
      "type": "function"
    },
    {
      "inputs": [],
      "name": "upgradeVaccine",
      "outputs": [],
      "stateMutability": "nonpayable",
      "type": "function"
    },
    {
      "inputs": [
        {
          "internalType": "address",
          "name": "",
          "type": "address"
        }
      ],
      "name": "userCurrentVaccine",
      "outputs": [
        {
          "internalType": "uint256",
          "name": "",
          "type": "uint256"
        }
      ],
      "stateMutability": "view",
      "type": "function"
    },
    {
      "inputs": [
        {
          "internalType": "address",
          "name": "",
          "type": "address"
        }
      ],
      "name": "userHasBoughtVaccine",
      "outputs": [
        {
          "internalType": "bool",
          "name": "",
          "type": "bool"
        }
      ],
      "stateMutability": "view",
      "type": "function"
    },
    {
      "inputs": [],
      "name": "vaccineFourSupply",
      "outputs": [
        {
          "internalType": "uint256",
          "name": "",
          "type": "uint256"
        }
      ],
      "stateMutability": "view",
      "type": "function"
    },
    {
      "stateMutability": "payable",
      "type": "receive"
    }
  ],
  "bytecode": "0x60e0604052600e60a09081526d109b1a59da1d08141c9bda9958dd60921b60c0526002906200002f9082620008d7565b5060408051808201909152600380825262424c4960e81b602083015290620000589082620008d7565b50620000676012600a62000aac565b6200007790633b9aca0062000ac3565b60045569d3c21bcecceda10000006005556103e8600454600a6200009c919062000ac3565b620000a8919062000add565b600655600554620000bc9061025862000ac3565b600b5560c8600c55600554620000d59061038462000ac3565b600d5561012c600e5560108054733e98da13e184ea1467639bf642f804144539694d6001600160a01b03199182161790915560118054732ca8e0c643bde4c2e08ab1fa0da3401adad7734d9216919091179055601280546001600160e01b0319167537f32ca8e0c643bde4c2e08ab1fa0da3401adad7734d1790557f79d3d8832d904592c0bf9818b621522c988bb8b0c05cdc3b15aea1b6e8db0c15601555601680546001600160501b03191666010003000186a01790556019805461ffff60a01b19169055600454620001ad906103e89062000add565b620001ba90600362000ac3565b601a5560646022555f6026555f6028555f6029556934f086f3b33b68400000602a555f602b555f602c555f602d555f602e555f602f555f6030555f6031555f603255600a60335560055460e562000212919062000ac3565b603a55600554620002269061016562000ac3565b603b556005546200023a9061020262000ac3565b603c556005546200024e906102bc62000ac3565b603d55600554620002629061039262000ac3565b603e55600554620002769061048562000ac3565b603f556040805461ffff1916905534801562000290575f80fd5b506040516200599738038062005997833981016040819052620002b39162000afd565b6011546001600160a01b039081169082908116620002ea57604051631e4fbdf760e01b81525f600482015260240160405180910390fd5b620002f58162000746565b506001600160a01b0316608052601880546001600160a01b031916737a250d5630b4cf539739df2c5dacb4c659f2488d9081179091556040805163c45a015560e01b8152905163c45a0155916004808201926020929091908290030181865afa15801562000365573d5f803e3d5ffd5b505050506040513d601f19601f820116820180604052508101906200038b919062000afd565b6001600160a01b031663c9c6539660185f9054906101000a90046001600160a01b03166001600160a01b031663ad5c46486040518163ffffffff1660e01b8152600401602060405180830381865afa158015620003ea573d5f803e3d5ffd5b505050506040513d601f19601f8201168201806040525081019062000410919062000afd565b6040516001600160e01b031960e084901b1681526001600160a01b0390911660048201523060248201526044016020604051808303815f875af11580156200045a573d5f803e3d5ffd5b505050506040513d601f19601f8201168201806040525081019062000480919062000afd565b601980546001600160a01b0319166001600160a01b03928316179055305f90815260086020908152604080832060185490941683529290529081205f199055620004cb908262000795565b50620004f87fa49807205ce4d355092ef5a8a18f56e8913cf4a201fbe287825b095693c217758262000795565b503081604051620005099062000829565b6001600160a01b03928316815291166020820152604001604051809103905ff0801580156200053a573d5f803e3d5ffd5b50602180546001600160a01b0319166001600160a01b03928316179055335f818152600960209081526040808320805460ff19908116600190811790925530808652838620805483168417905560108054891687528487208054841685179055878752600a8652848720805484168517905580548916875284872080548416851790557f20677881080440a9b3c87e826370bb5d9c2f74efd4dede686d52d77a6a09f8bb80548416851790558187528487208054841685179055601980548a16885285882080548516861790557fc90215bb1b0ac6bfa50a3c02c4b559c695b6a8e828048a88e327592fc55c5d2c8054851686179055888852601c8752858820805485168617905590548916875284872080548416851790557fa48bd8e7b1565515cde2859b6cc48308ba05b5325bcf90fb096b9ac0b8087dfc8054841685179055908652838620805483168417905554909616845281842080548716821790557fb1e2e88b6a3e9d36c6d6d48756ca9ed8312cfcb5a15208f81170ade3bd2b4a9580549096161790945560045492825260079052918220805491929091620006e590849062000b25565b909155505060045433905f907fddf252ad1be2c89b69c2b068fc378daa952ba7f163c4a11628f55a4df523b3ef9060649062000722908262000ac3565b6200072e919062000add565b60405190815260200160405180910390a35062000b3b565b5f80546001600160a01b038381166001600160a01b0319831681178455604051919092169283917f8be0079c531659141344cd1fd0a4f28419497f9722a3daafe3b4186f6b6457e09190a35050565b5f8281526001602090815260408083206001600160a01b038516845290915281205460ff1662000820575f8381526001602081815260408084206001600160a01b0387168086529252808420805460ff19169093179092559051339286917f2f8788117e7eff1d82e926ec794901d17c78024a50270940304540a733656f0d9190a450600162000823565b505f5b92915050565b610862806200513583390190565b634e487b7160e01b5f52604160045260245ffd5b600181811c908216806200086057607f821691505b6020821081036200087f57634e487b7160e01b5f52602260045260245ffd5b50919050565b601f821115620008d2575f81815260208120601f850160051c81016020861015620008ad5750805b601f850160051c820191505b81811015620008ce57828155600101620008b9565b5050505b505050565b81516001600160401b03811115620008f357620008f362000837565b6200090b816200090484546200084b565b8462000885565b602080601f83116001811462000941575f8415620009295750858301515b5f19600386901b1c1916600185901b178555620008ce565b5f85815260208120601f198616915b82811015620009715788860151825594840194600190910190840162000950565b50858210156200098f57878501515f19600388901b60f8161c191681555b5050505050600190811b01905550565b634e487b7160e01b5f52601160045260245ffd5b600181815b80851115620009f357815f1904821115620009d757620009d76200099f565b80851615620009e557918102915b93841c9390800290620009b8565b509250929050565b5f8262000a0b5750600162000823565b8162000a1957505f62000823565b816001811462000a32576002811462000a3d5762000a5d565b600191505062000823565b60ff84111562000a515762000a516200099f565b50506001821b62000823565b5060208310610133831016604e8410600b841016171562000a82575081810a62000823565b62000a8e8383620009b3565b805f190482111562000aa45762000aa46200099f565b029392505050565b5f62000abc60ff841683620009fb565b9392505050565b80820281158282048414176200082357620008236200099f565b5f8262000af857634e487b7160e01b5f52601260045260245ffd5b500490565b5f6020828403121562000b0e575f80fd5b81516001600160a01b038116811462000abc575f80fd5b808201808211156200082357620008236200099f565b6080516145da62000b5b5f395f81816115a501526115e701526145da5ff3fe608060405260043610610402575f3560e01c8063658d4b7f11610215578063aa9bbc0c1161011e578063dd62ed3e116100a8578063f5415cbb11610078578063f5415cbb14610cce578063f887ea4014610ced578063fc2a88c314610d0c578063fd39ef7814610d21578063fd6e28cf14610d40575f80fd5b8063dd62ed3e14610c2d578063df20fd4914610c71578063f25c7ea414610c90578063f2fde38b14610caf575f80fd5b8063c3ec8897116100ee578063c3ec889714610b7c578063c6b61e4c14610b91578063d02c639414610be6578063d3a9ffc414610bfa578063d547741f14610c0e575f80fd5b8063aa9bbc0c14610b02578063ab7573dd14610b17578063c26d68f914610b42578063c315432a14610b63575f80fd5b80638796ba8c1161019f57806395d89b411161016f57806395d89b4114610a7e57806396eb64a914610a92578063a217fddf14610ab1578063a8aa1b3114610ac4578063a9059cbb14610ae3575f80fd5b80638796ba8c146109f65780638c5799ce14610a155780638da5cb5b14610a4357806391d1485414610a5f575f80fd5b80636ddd1713116101e55780636ddd17131461096457806370a0823114610984578063715018a6146109a357806373a432bb146109b757806375b238fc146109d6575f80fd5b8063658d4b7f146108f157806366666aa9146109105780636789c92c1461092f5780636cbc2ded14610950575f80fd5b80632198cf6c116103175780633eca5343116102a15780635119c971116102715780635119c9711461084f57806354d41b5b14610864578063571ac8b01461088f5780635bc04469146108ae578063636ee0db146108c3575f80fd5b80633eca5343146107d357806343d4f92b146108075780634726319f146108265780634e71d92d1461083b575f80fd5b80632f2ff15d116102e75780632f2ff15d1461073b578063313ce5671461075a57806331d7a2621461077557806336568abe146107a05780633aab0a62146107bf575f80fd5b80632198cf6c1461069757806323b872dd146106b6578063248a9ca3146106d55780632598cdb214610704575f80fd5b80630e04a7d81161039857806318160ddd1161036857806318160ddd14610627578063196228c01461063b5780631bd8ebe11461064f5780631ce78ac8146106645780631fe543e314610678575f80fd5b80630e04a7d8146105775780630f44e894146105955780631299d7f7146105bf5780631781e17c146105de575f80fd5b806305dc0394116103d357806305dc0394146104f4578063064a59d01461051757806306fdde0314610537578063095ea7b314610558575f80fd5b80627f27ae1461040d578063014c58a31461042e57806301ffc9a71461048c57806302b2553e146104ab575f80fd5b3661040957005b5f80fd5b348015610418575f80fd5b5061042c610427366004613f41565b610d89565b005b348015610439575f80fd5b50610477610448366004613f41565b6026545f9081526027602090815260408083206001600160a01b03909416835260049093019052205460ff1690565b60405190151581526020015b60405180910390f35b348015610497575f80fd5b506104776104a6366004613f5c565b611124565b3480156104b6575f80fd5b506104776104c5366004613f41565b6026545f9081526027602090815260408083206001600160a01b03909416835260059093019052205460ff1690565b3480156104ff575f80fd5b5061050960295481565b604051908152602001610483565b348015610522575f80fd5b5060195461047790600160a01b900460ff1681565b348015610542575f80fd5b5061054b61115a565b6040516104839190613f83565b348015610563575f80fd5b50610477610572366004613fce565b6111ea565b348015610582575f80fd5b5060405461047790610100900460ff1681565b3480156105a0575f80fd5b506105096105af366004613f41565b602080525f908152604090205481565b3480156105ca575f80fd5b5061042c6105d9366004613ff8565b611255565b3480156105e9575f80fd5b506104776105f8366004613f41565b6026545f9081526027602090815260408083206001600160a01b03909416835260089093019052205460ff1690565b348015610632575f80fd5b50600454610509565b348015610646575f80fd5b5061042c611272565b34801561065a575f80fd5b5061050960285481565b34801561066f575f80fd5b5061042c611564565b348015610683575f80fd5b5061042c610692366004614077565b61159a565b3480156106a2575f80fd5b5061042c6106b1366004614128565b61161e565b3480156106c1575f80fd5b506104776106d036600461415b565b611650565b3480156106e0575f80fd5b506105096106ef366004613ff8565b5f908152600160208190526040909120015490565b34801561070f575f80fd5b50601054610723906001600160a01b031681565b6040516001600160a01b039091168152602001610483565b348015610746575f80fd5b5061042c610755366004614199565b611723565b348015610765575f80fd5b5060405160128152602001610483565b348015610780575f80fd5b5061050961078f366004613f41565b601f6020525f908152604090205481565b3480156107ab575f80fd5b5061042c6107ba366004614199565b61174e565b3480156107ca575f80fd5b5061042c611786565b3480156107de575f80fd5b506107236107ed366004613f41565b601d6020525f90815260409020546001600160a01b031681565b348015610812575f80fd5b5061042c610821366004613f41565b6117e3565b348015610831575f80fd5b5061050960335481565b348015610846575f80fd5b5061042c611843565b34801561085a575f80fd5b5061050960425481565b34801561086f575f80fd5b5061050961087e366004613f41565b60236020525f908152604090205481565b34801561089a575f80fd5b506104776108a9366004613f41565b611a22565b3480156108b9575f80fd5b50610509602a5481565b3480156108ce575f80fd5b506104776108dd366004613f41565b601c6020525f908152604090205460ff1681565b3480156108fc575f80fd5b5061042c61090b366004614128565b611a2e565b34801561091b575f80fd5b50602154610723906001600160a01b031681565b34801561093a575f80fd5b50610943611a60565b6040516104839190614209565b34801561095b575f80fd5b5061042c611acc565b34801561096f575f80fd5b5060195461047790600160a81b900460ff1681565b34801561098f575f80fd5b5061050961099e366004613f41565b611b49565b3480156109ae575f80fd5b5061042c611b63565b3480156109c2575f80fd5b5061042c6109d1366004613f41565b611b74565b3480156109e1575f80fd5b506105095f8051602061458583398151915281565b348015610a01575f80fd5b50610509610a10366004613ff8565b611bb5565b348015610a20575f80fd5b50610477610a2f366004613f41565b60246020525f908152604090205460ff1681565b348015610a4e575f80fd5b505f546001600160a01b0316610723565b348015610a6a575f80fd5b50610477610a79366004614199565b611bd4565b348015610a89575f80fd5b5061054b611bfe565b348015610a9d575f80fd5b5061042c610aac366004613f41565b611c0d565b348015610abc575f80fd5b506105095f81565b348015610acf575f80fd5b50601954610723906001600160a01b031681565b348015610aee575f80fd5b50610477610afd366004613fce565b611d99565b348015610b0d575f80fd5b5061050960265481565b348015610b22575f80fd5b50610509610b31366004613f41565b601e6020525f908152604090205481565b348015610b4d575f80fd5b50610b56611dca565b604051610483919061421b565b348015610b6e575f80fd5b506040546104779060ff1681565b348015610b87575f80fd5b5061050960435481565b348015610b9c575f80fd5b50610bcb610bab366004613ff8565b60276020525f908152604090208054600182015460029092015490919083565b60408051938452602084019290925290820152606001610483565b348015610bf1575f80fd5b5061042c611e09565b348015610c05575f80fd5b5061042c611e19565b348015610c19575f80fd5b5061042c610c28366004614199565b61218a565b348015610c38575f80fd5b50610509610c47366004614254565b6001600160a01b039182165f90815260086020908152604080832093909416825291909152205490565b348015610c7c575f80fd5b5061042c610c8b366004614280565b6121af565b348015610c9b575f80fd5b5061042c610caa366004613ff8565b61222a565b348015610cba575f80fd5b5061042c610cc9366004613f41565b6122ad565b348015610cd9575f80fd5b5061042c610ce836600461429a565b6122ea565b348015610cf8575f80fd5b50601854610723906001600160a01b031681565b348015610d17575f80fd5b5061050960145481565b348015610d2c575f80fd5b5061042c610d3b366004613ff8565b612540565b348015610d4b575f80fd5b50610477610d5a366004613f41565b6026545f9081526027602090815260408083206001600160a01b03909416835260039093019052205460ff1690565b6001600160a01b0381163314610dd75760405162461bcd60e51b815260206004820152600e60248201526d139bdd08185d5d1a1bdc9a5e995960921b60448201526064015b60405180910390fd5b6026545f908152602760205260409020600201544210610e095760405162461bcd60e51b8152600401610dce9061432f565b6026545f9081526027602090815260408083203384526007019091528120549003610e8d5760405162461bcd60e51b815260206004820152602e60248201527f596f7520686176656e277420626f7567687420612063617073756c652064757260448201526d0d2dcce40e8d0d2e640cae0dec6d60931b6064820152608401610dce565b6026545f90815260276020908152604080832033845260050190915290205460ff1615610f075760405162461bcd60e51b815260206004820152602260248201527f596f7527766520616c7265616479206f70656e656420796f75722063617073756044820152616c6560f01b6064820152608401610dce565b6026545f90815260276020908152604080832033845260080190915290205460ff161515600114610f8a5760405162461bcd60e51b815260206004820152602760248201527f596f75722072657175657374206861736e2774206265656e2066756c6c66696c6044820152661b1959081e595d60ca1b6064820152608401610dce565b6026545f908152602760209081526040808320338452600701909152812054610fb29061255d565b905060018110158015610fc6575060288111155b1561100357602f8054905f610fda83614387565b9091555050602b8054905f610fee83614387565b9190505550610fff8260015f61269c565b5050565b602981101580156110155750604b8111155b1561104e5760308054905f61102983614387565b9091555050602c8054905f61103d83614387565b9190505550610fff8260025f61269c565b604c8110158015611060575060618111155b156110995760318054905f61107483614387565b9091555050602d8054905f61108883614387565b9190505550610fff8260035f61269c565b606281101580156110ac57506022548111155b15610fff5760328054905f6110c083614387565b9091555050602e8054905f6110d483614387565b90915550506026545f9081526027602090815260408220600901805460018082018355918452919092200180546001600160a01b0319166001600160a01b038516179055610fff9083908061269c565b5f6001600160e01b03198216637965db0b60e01b148061115457506301ffc9a760e01b6001600160e01b03198316145b92915050565b6060600280546111699061439f565b80601f01602080910402602001604051908101604052809291908181526020018280546111959061439f565b80156111e05780601f106111b7576101008083540402835291602001916111e0565b820191905f5260205f20905b8154815290600101906020018083116111c357829003601f168201915b5050505050905090565b335f8181526008602090815260408083206001600160a01b038716808552925280832085905551919290917f8c5be1e5ebec7d5bd14f71427d1e84f3dd0314c0f7b2291e5b200ac8c7c3b925906112449086815260200190565b60405180910390a350600192915050565b5f8051602061458583398151915261126c81612795565b50602a55565b5f6103e8602a546102ee61128691906143d1565b61129091906143fc565b6026545f90815260276020908152604080832033845260030190915290205490915060ff161561131e5760405162461bcd60e51b815260206004820152603360248201527f596f752068617665206f6e6c79206f6e6520616374696f6e207065722065706f6044820152726368203a20627579206f72207570677261646560681b6064820152608401610dce565b6026545f90815260276020908152604080832033845260040190915290205460ff16156113ac5760405162461bcd60e51b815260206004820152603660248201527f596f7527766520616c726561647920757067726164656420796f7572207661636044820152750c6d2dcca40c8eae4d2dcce40e8d0d2e640cae0dec6d60531b6064820152608401610dce565b335f90815260236020526040902054158015906113d75750335f908152602360205260409020546003115b61142f5760405162461bcd60e51b815260206004820152602360248201527f596f7520646f6e2774206861766520612076616363696e6520746f207570677260448201526261646560e81b6064820152608401610dce565b8061143933611b49565b10156114995760405162461bcd60e51b815260206004820152602960248201527f4e6f7420656e6f75676820746f6b656e7320746f207570677261646520796f75604482015268722076616363696e6560b81b6064820152608401610dce565b6026545f9081526027602052604090206002015442106114cb5760405162461bcd60e51b8152600401610dce9061432f565b6026545f9081526027602090815260408083203384526004019091528120805460ff191660011790556103e86115028360326143d1565b61150c91906143fc565b6021549091505f906115329033906001600160a01b031661152d858761440f565b61279f565b905061153f33308461279f565b50335f90815260236020526040812080549161155a83614387565b9190505550505050565b61156c612843565b6019805461ffff60a01b191661010160a01b179081905560ff600160a01b909104161561159857426049555b565b336001600160a01b037f000000000000000000000000000000000000000000000000000000000000000016146116145760405163073e64fd60e21b81523360048201526001600160a01b037f0000000000000000000000000000000000000000000000000000000000000000166024820152604401610dce565b610fff828261286f565b611626612843565b6001600160a01b03919091165f908152600a60205260409020805460ff1916911515919091179055565b6001600160a01b0383165f9081526008602090815260408083203384529091528120548211156116d35760405162461bcd60e51b815260206004820152602860248201527f45524332303a207472616e7366657220616d6f756e74206578636565647320616044820152676c6c6f77616e636560c01b6064820152608401610dce565b6116de848484612972565b506001600160a01b0384165f9081526008602090815260408083203380855292529091205461171991869161171490869061440f565b612cae565b5060019392505050565b5f828152600160208190526040909120015461173e81612795565b6117488383612dd1565b50505050565b6001600160a01b03811633146117775760405163334bd91960e11b815260040160405180910390fd5b6117818282612e47565b505050565b5f8051602061458583398151915261179d81612795565b6117a5612eb2565b7fa7ef457c4bdaa5cf9805314ebb0d85316230de6508df8ba03db8e27901cc147d6026546040516117d891815260200190565b60405180910390a150565b6117eb612843565b601080546001600160a01b0319166001600160a01b0392831690811782555f908152600960209081526040808320805460ff19908116600190811790925594549095168352600a909152902080549091169091179055565b33321461187a5760405162461bcd60e51b815260206004820152600560248201526432b93937b960d91b6044820152606401610dce565b335f908152601f60205260409020546118ca5760405162461bcd60e51b81526020600482015260126024820152716e6f2070656e64696e67207265776172647360701b6044820152606401610dce565b335f908152601f602052604081208054908290556049549091906118f19062015180614422565b42101561191e5760646119058360196143d1565b61190f91906143fc565b905061191b818361440f565b91505b801561193e5760215461193c9030906001600160a01b03168361279f565b505b5f61194a30338561279f565b90508061198b5760405162461bcd60e51b815260206004820152600f60248201526e1d1c985b9cd9995c8819985a5b1959608a1b6044820152606401610dce565b335f908152601e6020526040812080548592906119a9908490614422565b925050819055508260425f8282546119c19190614422565b925050819055508260415f8282546119d9919061440f565b909155506119e7905061307b565b60405183815233907f620fc7379f7c67f4289f23e24a7f28f721792b0e898e2af03581b2e73e604a53906020015b60405180910390a2505050565b5f611154825f196111ea565b611a36612843565b6001600160a01b03919091165f908152600960205260409020805460ff1916911515919091179055565b6026545f908152602760209081526040918290206009018054835181840281018401909452808452606093928301828280156111e057602002820191905f5260205f20905b81546001600160a01b03168152600190910190602001808311611aa5575050505050905090565b5f80516020614585833981519152611ae381612795565b604954611af39062093a80614422565b421015611b375760405162461bcd60e51b815260206004820152601260248201527143616e277420656e64207468652067616d6560701b6044820152606401610dce565b506040805461ff001916610100179055565b6001600160a01b03165f9081526007602052604090205490565b611b6b612843565b6115985f613275565b611b7c612843565b601980546001600160a01b039092166001600160a01b0319909216821790555f908152600a60205260409020805460ff19166001179055565b60138181548110611bc4575f80fd5b5f91825260209091200154905081565b5f9182526001602090815260408084206001600160a01b0393909316845291905290205460ff1690565b6060600380546111699061439f565b6001600160a01b0381165f908152601c602052604090205460ff1615611c685760405162461bcd60e51b815260206004820152601060248201526f105b1c9958591e481a5b999958dd195960821b6044820152606401610dce565b6001611c7333611b49565b1015611cc15760405162461bcd60e51b815260206004820152601b60248201527f4e6f7420656e6f75676820746f6b656e7320746f20696e6665637400000000006044820152606401610dce565b335f908152601c602052604090205460ff161515600114611d1a5760405162461bcd60e51b8152602060048201526013602482015272165bdd49dc99481b9bdd081a5b999958dd1959606a1b6044820152606401610dce565b6001600160a01b0381165f908152601d6020908152604080832080546001600160a01b03191633908117909155601c8352818420805460ff1916600117905583529080528120805491611d6c83614387565b909155505060438054905f611d8083614387565b91905055505f6117813383670de0b6b3a764000061279f565b6019545f906001600160a01b03163303611dbf57611db8338484612972565b9050611154565b611db833848461279f565b611dd2613e6a565b6040805160a0810191829052604480546001600160a01b031682529091600590604560208501808311611aa5575050505050905090565b611e11612843565b600454600655565b602a54335f908152601c602052604090205460ff16611e715760405162461bcd60e51b8152602060048201526014602482015273165bdd48185c99481b9bdd081a5b999958dd195960621b6044820152606401610dce565b60405460ff16611eba5760405162461bcd60e51b815260206004820152601460248201527311d85b59481a185cc81b9bdd081cdd185c9d195960621b6044820152606401610dce565b80611ec433611b49565b1015611f1d5760405162461bcd60e51b815260206004820152602260248201527f4e6f7420656e6f75676820746f6b656e7320746f2062757920612063617073756044820152616c6560f01b6064820152608401610dce565b6026545f908152602760205260409020600201544210611f4f5760405162461bcd60e51b8152600401610dce9061432f565b6026545f90815260276020908152604080832033845260030190915290205460ff1615611fd85760405162461bcd60e51b815260206004820152603160248201527f596f7527766520616c726561647920626f7567687420612063617073756c65206044820152700c8eae4d2dcce40e8d0d2e640cae0dec6d607b1b6064820152608401610dce565b6026545f90815260276020908152604080832033845260040190915290205460ff16156120635760405162461bcd60e51b815260206004820152603360248201527f596f75206f6e6c792068617665206f6e6520616374696f6e207065722065706f6044820152726368203a20627579206f72207570677261646560681b6064820152608401610dce565b60298054905f61207283614387565b909155505060288054905f61208683614387565b90915550506026545f9081526027602090815260408083203384526003019091528120805460ff191660011790556103e86120c28360c86143d1565b6120cc91906143fc565b90506120db3361dead8361279f565b506021545f906120fa9033906001600160a01b031661152d858761440f565b90505f6121056132c4565b602680545f908152602760208181526040808420868552600601825280842080546001600160a01b03191633908117909155945484529181528183208484526007018152918190208490555183815292935090917f56e18f08766f396148d5b13331a86d9ce4ea3d9c08821cf829ccf881a6fff8bf910160405180910390a250505050565b5f82815260016020819052604090912001546121a581612795565b6117488383612e47565b6121b7612843565b60018110156122085760405162461bcd60e51b815260206004820152601f60248201527f43616e27742073657420537761705468726573686f6c6420746f205a45524f006044820152606401610dce565b60198054921515600160a81b0260ff60a81b1990931692909217909155601a55565b5f8051602061458583398151915261224181612795565b602e548210156122a75760405162461bcd60e51b815260206004820152602b60248201527f43616e2774207265647563652076616363696e6520737570706c79206475726960448201526a0dcce40c2dc40cae0dec6d60ab1b6064820152608401610dce565b50603355565b6122b5612843565b6001600160a01b0381166122de57604051631e4fbdf760e01b81525f6004820152602401610dce565b6122e781613275565b50565b6122f2612843565b5f5b8151811015610fff57601c5f83838151811061231257612312614435565b6020908102919091018101516001600160a01b031682528101919091526040015f205460ff16156123785760405162461bcd60e51b815260206004820152601060248201526f105b1c9958591e481a5b999958dd195960821b6044820152606401610dce565b600161238333611b49565b10156123d15760405162461bcd60e51b815260206004820152601b60248201527f6e6f7420656e6f75676820746f6b656e7320746f20696e6665637400000000006044820152606401610dce565b335f908152601c602052604090205460ff1615156001146124235760405162461bcd60e51b815260206004820152600c60248201526b1b9bdd081a5b999958dd195960a21b6044820152606401610dce565b33601d5f84848151811061243957612439614435565b60200260200101516001600160a01b03166001600160a01b031681526020019081526020015f205f6101000a8154816001600160a01b0302191690836001600160a01b031602179055506001601c5f84848151811061249a5761249a614435565b6020908102919091018101516001600160a01b031682528181019290925260409081015f908120805460ff19169415159490941790935533835290805281208054916124e583614387565b909155505060438054905f6124f983614387565b91905055505f61252b3384848151811061251557612515614435565b6020026020010151670de0b6b3a764000061279f565b5081905061253881614387565b9150506122f4565b5f8051602061458583398151915261255781612795565b50602255565b5f81815260176020526040812054610100900460ff166125b35760405162461bcd60e51b81526020600482015260116024820152701c995c5d595cdd081b9bdd08199bdd5b99607a1b6044820152606401610dce565b5f8281526017602090815260408083208151606081018352815460ff808216151583526101009091041615158185015260018201805484518187028101870186528181529295939486019383018282801561262b57602002820191905f5260205f20905b815481526020019060010190808311612617575b5050505050815250509050603354602e541061267d57606181604001515f8151811061265957612659614435565b602002602001015161266b9190614449565b612676906001614422565b9392505050565b60225481604001515f8151811061265957612659614435565b50919050565b6001600160a01b0383165f9081526024602052604090205460ff1661271e576025805460018082019092557f401968ff42a154441da5f6c4c935ac46b8671f0e062baaa62a7545ba53bb6e4c0180546001600160a01b0319166001600160a01b0386169081179091555f908152602460205260409020805460ff191690911790555b6001600160a01b0383165f818152602360209081526040808320869055602654835260278252808320848452600501825291829020805460ff191660011790558151858152841515918101919091527fc05909672b3730633581d6cf7b807382b3572d7805ace294b8d4b3558c5cc7ff9101611a15565b6122e7813361347a565b6001600160a01b0383165f908152600760205260408120546127c290839061440f565b6001600160a01b038086165f9081526007602052604080822093909355908516815220546127f1908390614422565b6001600160a01b038085165f8181526007602052604090819020939093559151908616905f80516020614565833981519152906128319086815260200190565b60405180910390a35060019392505050565b5f546001600160a01b031633146115985760405163118cdaa760e01b8152336004820152602401610dce565b5f82815260176020526040902054610100900460ff166128c55760405162461bcd60e51b81526020600482015260116024820152701c995c5d595cdd081b9bdd08199bdd5b99607a1b6044820152606401610dce565b5f828152601760209081526040909120805460ff19166001908117825583516128f5939290910191840190613e88565b506026545f908152602760209081526040808320858452600681018352818420546001600160a01b0316845260080190915290819020805460ff19166001179055517ffe2e2d779dba245964d4e3ef9b994be63856fd568bf7d3ca9e224755cb1bd54d90612966908490849061445c565b60405180910390a15050565b6001600160a01b0383165f9081526009602052604081205460ff16806129af57506001600160a01b0383165f9081526009602052604090205460ff165b806129c35750601954600160a01b900460ff165b612a0f5760405162461bcd60e51b815260206004820152601b60248201527f4e6f7420617574686f72697a656420746f2074726164652079657400000000006044820152606401610dce565b6019546001600160a01b03848116911614612a7a576001600160a01b0383165f908152601c602052604090205460ff16612a7a5760405162461bcd60e51b815260206004820152600c60248201526b139bdd081a5b999958dd195960a21b6044820152606401610dce565b5f546001600160a01b03858116911614801590612aa457505f546001600160a01b03848116911614155b8015612abb57506001600160a01b03831661dead14155b15612b7f576019546001600160a01b03848116911614612b7f576001600160a01b0383165f908152600a602052604090205460ff1680612b1f57506006546001600160a01b0384165f90815260076020526040902054612b1c908490614422565b11155b612b7f5760405162461bcd60e51b815260206004820152602b60248201527f5472616e7366657220616d6f756e74206578636565647320746865204d61785760448201526a30b63632ba1039b4bd329760a91b6064820152608401610dce565b612b876134b3565b8015612ba057506019546001600160a01b038481169116145b15612bad57612bad613510565b6001600160a01b0384165f90815260076020526040902054612bd090839061440f565b6001600160a01b0385165f90815260076020908152604080832093909355600990529081205460ff16151580612c1f57506001600160a01b0384165f9081526009602052604090205460ff1615155b612c3357612c2e8585856136e8565b612c35565b825b6001600160a01b0385165f90815260076020526040902054909150612c5b908290614422565b6001600160a01b038086165f8181526007602052604090819020939093559151908716905f8051602061456583398151915290612c9b9085815260200190565b60405180910390a3506001949350505050565b6001600160a01b038316612d105760405162461bcd60e51b8152602060048201526024808201527f45524332303a20617070726f76652066726f6d20746865207a65726f206164646044820152637265737360e01b6064820152608401610dce565b6001600160a01b038216612d715760405162461bcd60e51b815260206004820152602260248201527f45524332303a20617070726f766520746f20746865207a65726f206164647265604482015261737360f01b6064820152608401610dce565b6001600160a01b038381165f8181526008602090815260408083209487168084529482529182902085905590518481527f8c5be1e5ebec7d5bd14f71427d1e84f3dd0314c0f7b2291e5b200ac8c7c3b925910160405180910390a3505050565b5f612ddc8383611bd4565b612e40575f8381526001602081815260408084206001600160a01b0387168086529252808420805460ff19169093179092559051339286917f2f8788117e7eff1d82e926ec794901d17c78024a50270940304540a733656f0d9190a4506001611154565b505f611154565b5f612e528383611bd4565b15612e40575f8381526001602090815260408083206001600160a01b0386168085529252808320805460ff1916905551339286917ff6391f5c32d9c69d2a47ea670b442974b53935d1edc7fd64eb21e047a839171b9190a4506001611154565b6026545f9081526027602052604090206009015415612f3e576021546026545f9081526027602052604090819020905163f25addf560e01b81526001600160a01b039092169163f25addf591612f10916009909101906004016144a8565b5f604051808303815f87803b158015612f27575f80fd5b505af1158015612f39573d5f803e3d5ffd5b505050505b60268054905f612f4d83614387565b90915550506026545f818152602760205260409020908155426001909101819055612f7b9062014370614422565b6026545f90815260276020526040812060020191909155602b819055602c819055602d819055602e81905560288190555b60255481101561305a575f60235f60258481548110612fcd57612fcd614435565b5f9182526020808320909101546001600160a01b03168352820192909252604001902054111561304857600160235f6025848154811061300f5761300f614435565b5f9182526020808320909101546001600160a01b031683528201929092526040018120805490919061304290849061440f565b90915550505b8061305281614387565b915050612fac565b5060405460ff16613073576040805460ff191660011790555b611598613b90565b33613084613e6a565b61308c613e6a565b5f805b60058110156130f257601e5f604483600581106130ae576130ae614435565b01546001600160a01b0316815260208101919091526040015f20548482600581106130db576130db614435565b6020020152806130ea81614387565b91505061308f565b505f5b600581101561314157846001600160a01b03166044826005811061311b5761311b614435565b01546001600160a01b03160361312f578091505b8061313981614387565b9150506130f5565b506001600160a01b0384165f908152601e6020526040902054835110801561317457506131706001600561440f565b8114155b1561174857805f0361318d576001600160a01b03841682525b5f613199826001614422565b90505b6005811015613260576001600160a01b0385165f908152601e60205260409020548482600581106131cf576131cf614435565b6020020151101561324e57604481600581106131ed576131ed614435565b01546001600160a01b03168361320460018461440f565b6005811061321457613214614435565b6001600160a01b0390921660209290920201528483826005811061323a5761323a614435565b6001600160a01b0390921660209290920201525b8061325881614387565b91505061319c565b5061326e6044836005613ed1565b5050505050565b5f80546001600160a01b038381166001600160a01b0319831681178455604051919092169283917f8be0079c531659141344cd1fd0a4f28419497f9722a3daafe3b4186f6b6457e09190a35050565b6012546015546016546040516305d3b1d360e41b81526004810192909252600160a01b830467ffffffffffffffff166024830152640100000000810461ffff16604483015263ffffffff808216606484015266010000000000009091041660848201525f916001600160a01b031690635d3b1d309060a4016020604051808303815f875af1158015613358573d5f803e3d5ffd5b505050506040513d601f19601f8201168201806040525081019061337c91906144f7565b604080516060810182525f8082526001602080840182815285518481528083018752858701908152878552601783529590932084518154945161ffff1990951690151561ff001916176101009415159490940293909317835593518051959650929491936133f09391850192910190613e88565b5050601380546001810182555f919091527f66de8ffda797e3de9c05e8fc57b3bf0ec28a930d40b0d285d93c06501cf6a0900182905550601481905560165460408051838152660100000000000090920463ffffffff1660208301527fcc58b13ad3eab50626c6a6300b1d139cd6ebb1688a7cced9461c2f7e762665ee910160405180910390a190565b6134848282611bd4565b610fff5760405163e2517d3f60e01b81526001600160a01b038216600482015260248101839052604401610dce565b6019545f906001600160a01b031633148015906134d35750601b5460ff16155b80156134e85750601954600160a81b900460ff165b801561350b5750601a546041546134fe30611b49565b613508919061440f565b10155b905090565b601b805460ff191660011790556041545f9061352b30611b49565b613535919061440f565b6040805160028082526060820183529293505f92909160208301908036833701905050905030815f8151811061356d5761356d614435565b6001600160a01b03928316602091820292909201810191909152601854604080516315ab88c960e31b81529051919093169263ad5c46489260048083019391928290030181865afa1580156135c4573d5f803e3d5ffd5b505050506040513d601f19601f820116820180604052508101906135e8919061450e565b816001815181106135fb576135fb614435565b6001600160a01b0392831660209182029290920101526018541663791ac947835f843061362a4261012c614422565b6040518663ffffffff1660e01b815260040161364a959493929190614529565b5f604051808303815f87803b158015613661575f80fd5b505af1158015613673573d5f803e3d5ffd5b5047925050811590506136d9576010546040515f916001600160a01b03169061753090849084818181858888f193505050503d805f81146136cf576040519150601f19603f3d011682016040523d82523d5f602084013e6136d4565b606091505b505050505b5050601b805460ff1916905550565b6019545f9081908190819081906001600160a01b03898116911614801561371d57506019546001600160a01b03888116911614155b156138e357604054610100900460ff161561375257612710613741876126ac6143d1565b61374b91906143fc565b9350613a9a565b6001600160a01b0387165f908152602360205260409020546001036137fe5760036127106034548861378491906143d1565b61378e91906143fc565b61379891906143fc565b6001600160a01b038089165f908152601d60209081526040808320549093168252601f9052908120805492965086955085945084929091906137db908490614422565b925050819055508260415f8282546137f39190614422565b909155506138de9050565b6001600160a01b0387165f908152602360205260409020546002036138305760036127106035548861378491906143d1565b6001600160a01b0387165f908152602360205260409020546003036138625760036127106036548861378491906143d1565b612710600c548761387391906143d1565b61387d91906143fc565b6001600160a01b038089165f908152601d60209081526040808320549093168252601f9052908120805492965086955085945084929091906138c0908490614422565b925050819055508260415f8282546138d89190614422565b90915550505b613a9a565b6019546001600160a01b0389811691161480159061390e57506019546001600160a01b038881169116145b15613a9a57604054610100900460ff16156139315761271061374187600a6143d1565b6001600160a01b0388165f908152602360205260409020546001036139ba5760036127106037548861396391906143d1565b61396d91906143fc565b61397791906143fc565b6001600160a01b03808a165f908152601d60209081526040808320549093168252601f9052908120805492965086955085945084929091906138c0908490614422565b6001600160a01b0388165f908152602360205260409020546002036139ec5760036127106038548861396391906143d1565b6001600160a01b0388165f90815260236020526040902054600303613a1e5760036127106039548861396391906143d1565b612710600e5487613a2f91906143d1565b613a3991906143fc565b6001600160a01b03808a165f908152601d60209081526040808320549093168252601f905290812080549296508695508594508492909190613a7c908490614422565b925050819055508260415f828254613a949190614422565b90915550505b81613aa58486614422565b613aaf9190614422565b90508015613b7a57613ac1828261440f565b305f9081526007602052604081208054909190613adf908490614422565b90915550506021546001600160a01b03165f9081526007602052604081208054849290613b0d908490614422565b909155503090506001600160a01b0389165f80516020614565833981519152613b36858561440f565b60405190815260200160405180910390a36021546040518381526001600160a01b03918216918a16905f805160206145658339815191529060200160405180910390a35b613b84818761440f565b98975050505050505050565b600554613bc3600554602654603a54613ba991906143d1565b613bb49060646143d1565b613bbe91906143d1565b613cde565b600b54613bd0919061440f565b613bda91906143fc565b603455600554602654603b54613bf6918391613ba991906143d1565b600b54613c03919061440f565b613c0d91906143fc565b603555600554602654603c54613c29918391613ba991906143d1565b600b54613c36919061440f565b613c4091906143fc565b603655600554602654603d54613c5c918391613ba991906143d1565b600d54613c69919061440f565b613c7391906143fc565b603755600554602654603e54613c8f918391613ba991906143d1565b600d54613c9c919061440f565b613ca691906143fc565b603855600554602654603f54613cc2918391613ba991906143d1565b600d54613ccf919061440f565b613cd991906143fc565b603955565b5f815f03613ced57505f919050565b5f6001613cf984613dc2565b901c6001901b90506001818481613d1257613d126143e8565b048201901c90506001818481613d2a57613d2a6143e8565b048201901c90506001818481613d4257613d426143e8565b048201901c90506001818481613d5a57613d5a6143e8565b048201901c90506001818481613d7257613d726143e8565b048201901c90506001818481613d8a57613d8a6143e8565b048201901c90506001818481613da257613da26143e8565b048201901c905061267681828581613dbc57613dbc6143e8565b04613e55565b5f80608083901c15613dd657608092831c92015b604083901c15613de857604092831c92015b602083901c15613dfa57602092831c92015b601083901c15613e0c57601092831c92015b600883901c15613e1e57600892831c92015b600483901c15613e3057600492831c92015b600283901c15613e4257600292831c92015b600183901c156111545760010192915050565b5f818310613e635781612676565b5090919050565b6040518060a001604052806005906020820280368337509192915050565b828054828255905f5260205f20908101928215613ec1579160200282015b82811115613ec1578251825591602001919060010190613ea6565b50613ecd929150613f19565b5090565b8260058101928215613ec1579160200282015b82811115613ec157825182546001600160a01b0319166001600160a01b03909116178255602090920191600190910190613ee4565b5b80821115613ecd575f8155600101613f1a565b6001600160a01b03811681146122e7575f80fd5b5f60208284031215613f51575f80fd5b813561267681613f2d565b5f60208284031215613f6c575f80fd5b81356001600160e01b031981168114612676575f80fd5b5f6020808352835180828501525f5b81811015613fae57858101830151858201604001528201613f92565b505f604082860101526040601f19601f8301168501019250505092915050565b5f8060408385031215613fdf575f80fd5b8235613fea81613f2d565b946020939093013593505050565b5f60208284031215614008575f80fd5b5035919050565b634e487b7160e01b5f52604160045260245ffd5b604051601f8201601f1916810167ffffffffffffffff8111828210171561404c5761404c61400f565b604052919050565b5f67ffffffffffffffff82111561406d5761406d61400f565b5060051b60200190565b5f8060408385031215614088575f80fd5b8235915060208084013567ffffffffffffffff8111156140a6575f80fd5b8401601f810186136140b6575f80fd5b80356140c96140c482614054565b614023565b81815260059190911b820183019083810190888311156140e7575f80fd5b928401925b82841015614105578335825292840192908401906140ec565b80955050505050509250929050565b80358015158114614123575f80fd5b919050565b5f8060408385031215614139575f80fd5b823561414481613f2d565b915061415260208401614114565b90509250929050565b5f805f6060848603121561416d575f80fd5b833561417881613f2d565b9250602084013561418881613f2d565b929592945050506040919091013590565b5f80604083850312156141aa575f80fd5b8235915060208301356141bc81613f2d565b809150509250929050565b5f8151808452602080850194508084015f5b838110156141fe5781516001600160a01b0316875295820195908201906001016141d9565b509495945050505050565b602081525f61267660208301846141c7565b60a0810181835f5b600581101561424b5781516001600160a01b0316835260209283019290910190600101614223565b50505092915050565b5f8060408385031215614265575f80fd5b823561427081613f2d565b915060208301356141bc81613f2d565b5f8060408385031215614291575f80fd5b613fea83614114565b5f60208083850312156142ab575f80fd5b823567ffffffffffffffff8111156142c1575f80fd5b8301601f810185136142d1575f80fd5b80356142df6140c482614054565b81815260059190911b820183019083810190878311156142fd575f80fd5b928401925b8284101561432457833561431581613f2d565b82529284019290840190614302565b979650505050505050565b60208082526024908201527f45706f6368206973206f7665722c207761697420666f7220746865206e657874604082015263206f6e6560e01b606082015260800190565b634e487b7160e01b5f52601160045260245ffd5b5f6001820161439857614398614373565b5060010190565b600181811c908216806143b357607f821691505b60208210810361269657634e487b7160e01b5f52602260045260245ffd5b808202811582820484141761115457611154614373565b634e487b7160e01b5f52601260045260245ffd5b5f8261440a5761440a6143e8565b500490565b8181038181111561115457611154614373565b8082018082111561115457611154614373565b634e487b7160e01b5f52603260045260245ffd5b5f82614457576144576143e8565b500690565b5f60408201848352602060408185015281855180845260608601915082870193505f5b8181101561449b5784518352938301939183019160010161447f565b5090979650505050505050565b602080825282548282018190525f8481528281209092916040850190845b818110156144eb5783546001600160a01b0316835260019384019392850192016144c6565b50909695505050505050565b5f60208284031215614507575f80fd5b5051919050565b5f6020828403121561451e575f80fd5b815161267681613f2d565b85815284602082015260a060408201525f61454760a08301866141c7565b6001600160a01b039490941660608301525060800152939250505056feddf252ad1be2c89b69c2b068fc378daa952ba7f163c4a11628f55a4df523b3efa49807205ce4d355092ef5a8a18f56e8913cf4a201fbe287825b095693c21775a26469706673582212206bbc733ad4d9b1f52ca78f461e68bbc83b22ba1541c302869bd0dbf976cee61264736f6c6343000814003360806040526a14adf4b7320334b90000006003555f600455348015610022575f80fd5b5060405161086238038061086283398101604081905261004191610113565b806001600160a01b03811661006f57604051631e4fbdf760e01b81525f600482015260240160405180910390fd5b610078816100a9565b5050600180546001600160a01b039092166001600160a01b0319928316811790915560028054909216179055610144565b5f80546001600160a01b038381166001600160a01b0319831681178455604051919092169283917f8be0079c531659141344cd1fd0a4f28419497f9722a3daafe3b4186f6b6457e09190a35050565b80516001600160a01b038116811461010e575f80fd5b919050565b5f8060408385031215610124575f80fd5b61012d836100f8565b915061013b602084016100f8565b90509250929050565b610711806101515f395ff3fe608060405234801561000f575f80fd5b5060043610610085575f3560e01c8063efca2eed11610058578063efca2eed146100d7578063f25addf5146100ee578063f2fde38b14610101578063fc0c546a14610114575f80fd5b8063715018a614610089578063853828b6146100935780638da5cb5b1461009b5780639d76ea58146100c4575b5f80fd5b610091610127565b005b61009161013a565b5f546001600160a01b03165b6040516001600160a01b0390911681526020015b60405180910390f35b6002546100a7906001600160a01b031681565b6100e060045481565b6040519081526020016100bb565b6100916100fc36600461054d565b610225565b61009161010f36600461060d565b610469565b6001546100a7906001600160a01b031681565b61012f6104a3565b6101385f6104cf565b565b6101426104a3565b6001546040516370a0823160e01b81523060048201526001600160a01b039091169063a9059cbb90339083906370a0823190602401602060405180830381865afa158015610192573d5f803e3d5ffd5b505050506040513d601f19601f820116820180604052508101906101b6919061062d565b6040516001600160e01b031960e085901b1681526001600160a01b03909216600483015260248201526044016020604051808303815f875af11580156101fe573d5f803e3d5ffd5b505050506040513d601f19601f820116820180604052508101906102229190610644565b50565b6002546001600160a01b031633146102975760405162461bcd60e51b815260206004820152602a60248201527f4f6e6c7920746f6b656e20636f6e74726163742063616e2063616c6c207468696044820152693990333ab731ba34b7b760b11b60648201526084015b60405180910390fd5b6003546001546040516370a0823160e01b81523060048201525f92916001600160a01b0316906370a0823190602401602060405180830381865afa1580156102e1573d5f803e3d5ffd5b505050506040513d601f19601f82011682018060405250810190610305919061062d565b11610379576001546040516370a0823160e01b81523060048201526001600160a01b03909116906370a0823190602401602060405180830381865afa158015610350573d5f803e3d5ffd5b505050506040513d601f19601f82011682018060405250810190610374919061062d565b61037d565b6003545b90508060045f8282546103909190610677565b90915550508015610465575f5b82518110156104635760015483516001600160a01b039091169063a9059cbb908590849081106103cf576103cf610690565b60200260200101518551856103e491906106a4565b6040516001600160e01b031960e085901b1681526001600160a01b03909216600483015260248201526044016020604051808303815f875af115801561042c573d5f803e3d5ffd5b505050506040513d601f19601f820116820180604052508101906104509190610644565b508061045b816106c3565b91505061039d565b505b5050565b6104716104a3565b6001600160a01b03811661049a57604051631e4fbdf760e01b81525f600482015260240161028e565b610222816104cf565b5f546001600160a01b031633146101385760405163118cdaa760e01b815233600482015260240161028e565b5f80546001600160a01b038381166001600160a01b0319831681178455604051919092169283917f8be0079c531659141344cd1fd0a4f28419497f9722a3daafe3b4186f6b6457e09190a35050565b634e487b7160e01b5f52604160045260245ffd5b80356001600160a01b0381168114610548575f80fd5b919050565b5f602080838503121561055e575f80fd5b823567ffffffffffffffff80821115610575575f80fd5b818501915085601f830112610588575f80fd5b81358181111561059a5761059a61051e565b8060051b604051601f19603f830116810181811085821117156105bf576105bf61051e565b6040529182528482019250838101850191888311156105dc575f80fd5b938501935b82851015610601576105f285610532565b845293850193928501926105e1565b98975050505050505050565b5f6020828403121561061d575f80fd5b61062682610532565b9392505050565b5f6020828403121561063d575f80fd5b5051919050565b5f60208284031215610654575f80fd5b81518015158114610626575f80fd5b634e487b7160e01b5f52601160045260245ffd5b8082018082111561068a5761068a610663565b92915050565b634e487b7160e01b5f52603260045260245ffd5b5f826106be57634e487b7160e01b5f52601260045260245ffd5b500490565b5f600182016106d4576106d4610663565b506001019056fea26469706673582212201d7f012b7b8d4044cd76cbdd9262dff591ba59b8a1656b95a0023bb3508005df64736f6c63430008140033",
  "linkReferences": {},
  "deployedLinkReferences": {}
}