{
  "_format": "hh-sol-artifact-1",
  "contractName": "BLI",
  "sourceName": "contracts/BLI.sol",
  "abi": [
    {
      "inputs": [
        {
          "internalType": "address",
          "name": "initialOwner",
          "type": "address"
        }
      ],
      "stateMutability": "nonpayable",
      "type": "constructor"
    },
    {
      "inputs": [],
      "name": "AccessControlBadConfirmation",
      "type": "error"
    },
    {
      "inputs": [
        {
          "internalType": "address",
          "name": "account",
          "type": "address"
        },
        {
          "internalType": "bytes32",
          "name": "neededRole",
          "type": "bytes32"
        }
      ],
      "name": "AccessControlUnauthorizedAccount",
      "type": "error"
    },
    {
      "inputs": [
        {
          "internalType": "address",
          "name": "have",
          "type": "address"
        },
        {
          "internalType": "address",
          "name": "want",
          "type": "address"
        }
      ],
      "name": "OnlyCoordinatorCanFulfill",
      "type": "error"
    },
    {
      "inputs": [
        {
          "internalType": "address",
          "name": "owner",
          "type": "address"
        }
      ],
      "name": "OwnableInvalidOwner",
      "type": "error"
    },
    {
      "inputs": [
        {
          "internalType": "address",
          "name": "account",
          "type": "address"
        }
      ],
      "name": "OwnableUnauthorizedAccount",
      "type": "error"
    },
    {
      "anonymous": false,
      "inputs": [
        {
          "indexed": true,
          "internalType": "address",
          "name": "owner",
          "type": "address"
        },
        {
          "indexed": true,
          "internalType": "address",
          "name": "spender",
          "type": "address"
        },
        {
          "indexed": false,
          "internalType": "uint256",
          "name": "value",
          "type": "uint256"
        }
      ],
      "name": "Approval",
      "type": "event"
    },
    {
      "anonymous": false,
      "inputs": [
        {
          "indexed": false,
          "internalType": "uint256",
          "name": "amountETH",
          "type": "uint256"
        },
        {
          "indexed": false,
          "internalType": "uint256",
          "name": "amountBOG",
          "type": "uint256"
        }
      ],
      "name": "AutoLiquify",
      "type": "event"
    },
    {
      "anonymous": false,
      "inputs": [
        {
          "indexed": true,
          "internalType": "address",
          "name": "user",
          "type": "address"
        },
        {
          "indexed": false,
          "internalType": "uint256",
          "name": "id",
          "type": "uint256"
        }
      ],
      "name": "CapsuleBought",
      "type": "event"
    },
    {
      "anonymous": false,
      "inputs": [
        {
          "indexed": true,
          "internalType": "address",
          "name": "user",
          "type": "address"
        },
        {
          "indexed": false,
          "internalType": "uint256",
          "name": "vaccine",
          "type": "uint256"
        },
        {
          "indexed": false,
          "internalType": "bool",
          "name": "vaccine4",
          "type": "bool"
        }
      ],
      "name": "CapsuleOpened",
      "type": "event"
    },
    {
      "anonymous": false,
      "inputs": [
        {
          "indexed": false,
          "internalType": "uint256",
          "name": "epochId",
          "type": "uint256"
        }
      ],
      "name": "NewEpochStarted",
      "type": "event"
    },
    {
      "anonymous": false,
      "inputs": [
        {
          "indexed": true,
          "internalType": "address",
          "name": "previousOwner",
          "type": "address"
        },
        {
          "indexed": true,
          "internalType": "address",
          "name": "newOwner",
          "type": "address"
        }
      ],
      "name": "OwnershipTransferred",
      "type": "event"
    },
    {
      "anonymous": false,
      "inputs": [
        {
          "indexed": false,
          "internalType": "uint256",
          "name": "requestId",
          "type": "uint256"
        },
        {
          "indexed": false,
          "internalType": "uint256[]",
          "name": "randomWords",
          "type": "uint256[]"
        }
      ],
      "name": "RequestFulfilled",
      "type": "event"
    },
    {
      "anonymous": false,
      "inputs": [
        {
          "indexed": false,
          "internalType": "uint256",
          "name": "requestId",
          "type": "uint256"
        },
        {
          "indexed": false,
          "internalType": "uint32",
          "name": "numWords",
          "type": "uint32"
        }
      ],
      "name": "RequestSent",
      "type": "event"
    },
    {
      "anonymous": false,
      "inputs": [
        {
          "indexed": true,
          "internalType": "bytes32",
          "name": "role",
          "type": "bytes32"
        },
        {
          "indexed": true,
          "internalType": "bytes32",
          "name": "previousAdminRole",
          "type": "bytes32"
        },
        {
          "indexed": true,
          "internalType": "bytes32",
          "name": "newAdminRole",
          "type": "bytes32"
        }
      ],
      "name": "RoleAdminChanged",
      "type": "event"
    },
    {
      "anonymous": false,
      "inputs": [
        {
          "indexed": true,
          "internalType": "bytes32",
          "name": "role",
          "type": "bytes32"
        },
        {
          "indexed": true,
          "internalType": "address",
          "name": "account",
          "type": "address"
        },
        {
          "indexed": true,
          "internalType": "address",
          "name": "sender",
          "type": "address"
        }
      ],
      "name": "RoleGranted",
      "type": "event"
    },
    {
      "anonymous": false,
      "inputs": [
        {
          "indexed": true,
          "internalType": "bytes32",
          "name": "role",
          "type": "bytes32"
        },
        {
          "indexed": true,
          "internalType": "address",
          "name": "account",
          "type": "address"
        },
        {
          "indexed": true,
          "internalType": "address",
          "name": "sender",
          "type": "address"
        }
      ],
      "name": "RoleRevoked",
      "type": "event"
    },
    {
      "anonymous": false,
      "inputs": [
        {
          "indexed": true,
          "internalType": "address",
          "name": "from",
          "type": "address"
        },
        {
          "indexed": true,
          "internalType": "address",
          "name": "to",
          "type": "address"
        },
        {
          "indexed": false,
          "internalType": "uint256",
          "name": "value",
          "type": "uint256"
        }
      ],
      "name": "Transfer",
      "type": "event"
    },
    {
      "anonymous": false,
      "inputs": [
        {
          "indexed": true,
          "internalType": "address",
          "name": "user",
          "type": "address"
        },
        {
          "indexed": false,
          "internalType": "uint256",
          "name": "amount",
          "type": "uint256"
        }
      ],
      "name": "_claim",
      "type": "event"
    },
    {
      "inputs": [],
      "name": "ADMIN_ROLE",
      "outputs": [
        {
          "internalType": "bytes32",
          "name": "",
          "type": "bytes32"
        }
      ],
      "stateMutability": "view",
      "type": "function"
    },
    {
      "inputs": [],
      "name": "DEFAULT_ADMIN_ROLE",
      "outputs": [
        {
          "internalType": "bytes32",
          "name": "",
          "type": "bytes32"
        }
      ],
      "stateMutability": "view",
      "type": "function"
    },
    {
      "inputs": [],
      "name": "MarketingWallet",
      "outputs": [
        {
          "internalType": "address",
          "name": "",
          "type": "address"
        }
      ],
      "stateMutability": "view",
      "type": "function"
    },
    {
      "inputs": [
        {
          "internalType": "address",
          "name": "holder",
          "type": "address"
        },
        {
          "internalType": "address",
          "name": "spender",
          "type": "address"
        }
      ],
      "name": "allowance",
      "outputs": [
        {
          "internalType": "uint256",
          "name": "",
          "type": "uint256"
        }
      ],
      "stateMutability": "view",
      "type": "function"
    },
    {
      "inputs": [],
      "name": "amountOfAllInfection",
      "outputs": [
        {
          "internalType": "uint256",
          "name": "",
          "type": "uint256"
        }
      ],
      "stateMutability": "view",
      "type": "function"
    },
    {
      "inputs": [
        {
          "internalType": "address",
          "name": "",
          "type": "address"
        }
      ],
      "name": "amountOfInfection",
      "outputs": [
        {
          "internalType": "uint256",
          "name": "",
          "type": "uint256"
        }
      ],
      "stateMutability": "view",
      "type": "function"
    },
    {
      "inputs": [
        {
          "internalType": "address",
          "name": "spender",
          "type": "address"
        },
        {
          "internalType": "uint256",
          "name": "amount",
          "type": "uint256"
        }
      ],
      "name": "approve",
      "outputs": [
        {
          "internalType": "bool",
          "name": "",
          "type": "bool"
        }
      ],
      "stateMutability": "nonpayable",
      "type": "function"
    },
    {
      "inputs": [
        {
          "internalType": "address",
          "name": "spender",
          "type": "address"
        }
      ],
      "name": "approveMax",
      "outputs": [
        {
          "internalType": "bool",
          "name": "",
          "type": "bool"
        }
      ],
      "stateMutability": "nonpayable",
      "type": "function"
    },
    {
      "inputs": [
        {
          "internalType": "address",
          "name": "account",
          "type": "address"
        }
      ],
      "name": "balanceOf",
      "outputs": [
        {
          "internalType": "uint256",
          "name": "",
          "type": "uint256"
        }
      ],
      "stateMutability": "view",
      "type": "function"
    },
    {
      "inputs": [],
      "name": "buyCapsule",
      "outputs": [],
      "stateMutability": "nonpayable",
      "type": "function"
    },
    {
      "inputs": [],
      "name": "capsuleCount",
      "outputs": [
        {
          "internalType": "uint256",
          "name": "",
          "type": "uint256"
        }
      ],
      "stateMutability": "view",
      "type": "function"
    },
    {
      "inputs": [],
      "name": "capsuleCurrentCount",
      "outputs": [
        {
          "internalType": "uint256",
          "name": "",
          "type": "uint256"
        }
      ],
      "stateMutability": "view",
      "type": "function"
    },
    {
      "inputs": [],
      "name": "capsulePrice",
      "outputs": [
        {
          "internalType": "uint256",
          "name": "",
          "type": "uint256"
        }
      ],
      "stateMutability": "view",
      "type": "function"
    },
    {
      "inputs": [],
      "name": "claim",
      "outputs": [],
      "stateMutability": "nonpayable",
      "type": "function"
    },
    {
      "inputs": [],
      "name": "decimals",
      "outputs": [
        {
          "internalType": "uint8",
          "name": "",
          "type": "uint8"
        }
      ],
      "stateMutability": "pure",
      "type": "function"
    },
    {
      "inputs": [],
      "name": "endGame",
      "outputs": [],
      "stateMutability": "nonpayable",
      "type": "function"
    },
    {
      "inputs": [],
      "name": "epochId",
      "outputs": [
        {
          "internalType": "uint256",
          "name": "",
          "type": "uint256"
        }
      ],
      "stateMutability": "view",
      "type": "function"
    },
    {
      "inputs": [
        {
          "internalType": "uint256",
          "name": "",
          "type": "uint256"
        }
      ],
      "name": "epochs",
      "outputs": [
        {
          "internalType": "uint256",
          "name": "id",
          "type": "uint256"
        },
        {
          "internalType": "uint256",
          "name": "startTime",
          "type": "uint256"
        },
        {
          "internalType": "uint256",
          "name": "endTime",
          "type": "uint256"
        }
      ],
      "stateMutability": "view",
      "type": "function"
    },
    {
      "inputs": [],
      "name": "getBestInfectors",
      "outputs": [
        {
          "internalType": "address[5]",
          "name": "",
          "type": "address[5]"
        }
      ],
      "stateMutability": "view",
      "type": "function"
    },
    {
      "inputs": [],
      "name": "getGotLuckyVaccine",
      "outputs": [
        {
          "internalType": "address[]",
          "name": "",
          "type": "address[]"
        }
      ],
      "stateMutability": "view",
      "type": "function"
    },
    {
      "inputs": [
        {
          "internalType": "address",
          "name": "user",
          "type": "address"
        }
      ],
      "name": "getHasOpenedCapsule",
      "outputs": [
        {
          "internalType": "bool",
          "name": "",
          "type": "bool"
        }
      ],
      "stateMutability": "view",
      "type": "function"
    },
    {
      "inputs": [
        {
          "internalType": "address",
          "name": "user",
          "type": "address"
        }
      ],
      "name": "getHasUpgrade",
      "outputs": [
        {
          "internalType": "bool",
          "name": "",
          "type": "bool"
        }
      ],
      "stateMutability": "view",
      "type": "function"
    },
    {
      "inputs": [
        {
          "internalType": "address",
          "name": "user",
          "type": "address"
        }
      ],
      "name": "getIsBuyer",
      "outputs": [
        {
          "internalType": "bool",
          "name": "",
          "type": "bool"
        }
      ],
      "stateMutability": "view",
      "type": "function"
    },
    {
      "inputs": [
        {
          "internalType": "address",
          "name": "user",
          "type": "address"
        }
      ],
      "name": "getRequestFullfilled",
      "outputs": [
        {
          "internalType": "bool",
          "name": "",
          "type": "bool"
        }
      ],
      "stateMutability": "view",
      "type": "function"
    },
    {
      "inputs": [
        {
          "internalType": "bytes32",
          "name": "role",
          "type": "bytes32"
        }
      ],
      "name": "getRoleAdmin",
      "outputs": [
        {
          "internalType": "bytes32",
          "name": "",
          "type": "bytes32"
        }
      ],
      "stateMutability": "view",
      "type": "function"
    },
    {
      "inputs": [
        {
          "internalType": "bytes32",
          "name": "role",
          "type": "bytes32"
        },
        {
          "internalType": "address",
          "name": "account",
          "type": "address"
        }
      ],
      "name": "grantRole",
      "outputs": [],
      "stateMutability": "nonpayable",
      "type": "function"
    },
    {
      "inputs": [
        {
          "internalType": "bytes32",
          "name": "role",
          "type": "bytes32"
        },
        {
          "internalType": "address",
          "name": "account",
          "type": "address"
        }
      ],
      "name": "hasRole",
      "outputs": [
        {
          "internalType": "bool",
          "name": "",
          "type": "bool"
        }
      ],
      "stateMutability": "view",
      "type": "function"
    },
    {
      "inputs": [
        {
          "internalType": "address",
          "name": "_toInfect",
          "type": "address"
        }
      ],
      "name": "infect",
      "outputs": [],
      "stateMutability": "nonpayable",
      "type": "function"
    },
    {
      "inputs": [
        {
          "internalType": "address[]",
          "name": "_toInfect",
          "type": "address[]"
        }
      ],
      "name": "infectOG",
      "outputs": [],
      "stateMutability": "nonpayable",
      "type": "function"
    },
    {
      "inputs": [
        {
          "internalType": "address",
          "name": "",
          "type": "address"
        }
      ],
      "name": "infected",
      "outputs": [
        {
          "internalType": "bool",
          "name": "",
          "type": "bool"
        }
      ],
      "stateMutability": "view",
      "type": "function"
    },
    {
      "inputs": [
        {
          "internalType": "address",
          "name": "",
          "type": "address"
        }
      ],
      "name": "infecter",
      "outputs": [
        {
          "internalType": "address",
          "name": "",
          "type": "address"
        }
      ],
      "stateMutability": "view",
      "type": "function"
    },
    {
      "inputs": [],
      "name": "isGameOver",
      "outputs": [
        {
          "internalType": "bool",
          "name": "",
          "type": "bool"
        }
      ],
      "stateMutability": "view",
      "type": "function"
    },
    {
      "inputs": [],
      "name": "isGameStarted",
      "outputs": [
        {
          "internalType": "bool",
          "name": "",
          "type": "bool"
        }
      ],
      "stateMutability": "view",
      "type": "function"
    },
    {
      "inputs": [],
      "name": "isTradingEnabled",
      "outputs": [
        {
          "internalType": "bool",
          "name": "",
          "type": "bool"
        }
      ],
      "stateMutability": "view",
      "type": "function"
    },
    {
      "inputs": [],
      "name": "lastRequestId",
      "outputs": [
        {
          "internalType": "uint256",
          "name": "",
          "type": "uint256"
        }
      ],
      "stateMutability": "view",
      "type": "function"
    },
    {
      "inputs": [],
      "name": "name",
      "outputs": [
        {
          "internalType": "string",
          "name": "",
          "type": "string"
        }
      ],
      "stateMutability": "view",
      "type": "function"
    },
    {
      "inputs": [
        {
          "internalType": "address",
          "name": "user",
          "type": "address"
        }
      ],
      "name": "openCapsule",
      "outputs": [],
      "stateMutability": "nonpayable",
      "type": "function"
    },
    {
      "inputs": [],
      "name": "owner",
      "outputs": [
        {
          "internalType": "address",
          "name": "",
          "type": "address"
        }
      ],
      "stateMutability": "view",
      "type": "function"
    },
    {
      "inputs": [],
      "name": "pair",
      "outputs": [
        {
          "internalType": "address",
          "name": "",
          "type": "address"
        }
      ],
      "stateMutability": "view",
      "type": "function"
    },
    {
      "inputs": [
        {
          "internalType": "address",
          "name": "",
          "type": "address"
        }
      ],
      "name": "pendingRewards",
      "outputs": [
        {
          "internalType": "uint256",
          "name": "",
          "type": "uint256"
        }
      ],
      "stateMutability": "view",
      "type": "function"
    },
    {
      "inputs": [
        {
          "internalType": "uint256",
          "name": "requestId",
          "type": "uint256"
        },
        {
          "internalType": "uint256[]",
          "name": "randomWords",
          "type": "uint256[]"
        }
      ],
      "name": "rawFulfillRandomWords",
      "outputs": [],
      "stateMutability": "nonpayable",
      "type": "function"
    },
    {
      "inputs": [],
      "name": "renounceOwnership",
      "outputs": [],
      "stateMutability": "nonpayable",
      "type": "function"
    },
    {
      "inputs": [
        {
          "internalType": "bytes32",
          "name": "role",
          "type": "bytes32"
        },
        {
          "internalType": "address",
          "name": "callerConfirmation",
          "type": "address"
        }
      ],
      "name": "renounceRole",
      "outputs": [],
      "stateMutability": "nonpayable",
      "type": "function"
    },
    {
      "inputs": [
        {
          "internalType": "uint256",
          "name": "",
          "type": "uint256"
        }
      ],
      "name": "requestIds",
      "outputs": [
        {
          "internalType": "uint256",
          "name": "",
          "type": "uint256"
        }
      ],
      "stateMutability": "view",
      "type": "function"
    },
    {
      "inputs": [
        {
          "internalType": "bytes32",
          "name": "role",
          "type": "bytes32"
        },
        {
          "internalType": "address",
          "name": "account",
          "type": "address"
        }
      ],
      "name": "revokeRole",
      "outputs": [],
      "stateMutability": "nonpayable",
      "type": "function"
    },
    {
      "inputs": [],
      "name": "router",
      "outputs": [
        {
          "internalType": "contract IUniswapV2Router02",
          "name": "",
          "type": "address"
        }
      ],
      "stateMutability": "view",
      "type": "function"
    },
    {
      "inputs": [
        {
          "internalType": "uint256",
          "name": "_price",
          "type": "uint256"
        }
      ],
      "name": "setCapsulePrice",
      "outputs": [],
      "stateMutability": "nonpayable",
      "type": "function"
    },
    {
      "inputs": [
        {
          "internalType": "address",
          "name": "_MarketingWallet",
          "type": "address"
        }
      ],
      "name": "setFeesWallet",
      "outputs": [],
      "stateMutability": "nonpayable",
      "type": "function"
    },
    {
      "inputs": [
        {
          "internalType": "address",
          "name": "holder",
          "type": "address"
        },
        {
          "internalType": "bool",
          "name": "exempt",
          "type": "bool"
        }
      ],
      "name": "setIsFeeExempt",
      "outputs": [],
      "stateMutability": "nonpayable",
      "type": "function"
    },
    {
      "inputs": [],
      "name": "setIsTradingEnabled",
      "outputs": [],
      "stateMutability": "nonpayable",
      "type": "function"
    },
    {
      "inputs": [
        {
          "internalType": "address",
          "name": "holder",
          "type": "address"
        },
        {
          "internalType": "bool",
          "name": "exempt",
          "type": "bool"
        }
      ],
      "name": "setIsWalletLimitExempt",
      "outputs": [],
      "stateMutability": "nonpayable",
      "type": "function"
    },
    {
      "inputs": [],
      "name": "setMaxWallet",
      "outputs": [],
      "stateMutability": "nonpayable",
      "type": "function"
    },
    {
      "inputs": [
        {
          "internalType": "uint256",
          "name": "_range",
          "type": "uint256"
        }
      ],
      "name": "setProbabilityMaxRange",
      "outputs": [],
      "stateMutability": "nonpayable",
      "type": "function"
    },
    {
      "inputs": [
        {
          "internalType": "uint256",
          "name": "_amount",
          "type": "uint256"
        }
      ],
      "name": "setSpecialVaccineSupply",
      "outputs": [],
      "stateMutability": "nonpayable",
      "type": "function"
    },
    {
      "inputs": [
        {
          "internalType": "bool",
          "name": "_enabled",
          "type": "bool"
        },
        {
          "internalType": "uint256",
          "name": "_amount",
          "type": "uint256"
        }
      ],
      "name": "setSwapBackSettings",
      "outputs": [],
      "stateMutability": "nonpayable",
      "type": "function"
    },
    {
      "inputs": [
        {
          "internalType": "address",
          "name": "pairaddr",
          "type": "address"
        }
      ],
      "name": "setSwapPair",
      "outputs": [],
      "stateMutability": "nonpayable",
      "type": "function"
    },
    {
      "inputs": [],
      "name": "startNewEpoch",
      "outputs": [],
      "stateMutability": "nonpayable",
      "type": "function"
    },
    {
      "inputs": [
        {
          "internalType": "bytes4",
          "name": "interfaceId",
          "type": "bytes4"
        }
      ],
      "name": "supportsInterface",
      "outputs": [
        {
          "internalType": "bool",
          "name": "",
          "type": "bool"
        }
      ],
      "stateMutability": "view",
      "type": "function"
    },
    {
      "inputs": [],
      "name": "swapEnabled",
      "outputs": [
        {
          "internalType": "bool",
          "name": "",
          "type": "bool"
        }
      ],
      "stateMutability": "view",
      "type": "function"
    },
    {
      "inputs": [],
      "name": "symbol",
      "outputs": [
        {
          "internalType": "string",
          "name": "",
          "type": "string"
        }
      ],
      "stateMutability": "view",
      "type": "function"
    },
    {
      "inputs": [],
      "name": "totalAllRewards",
      "outputs": [
        {
          "internalType": "uint256",
          "name": "",
          "type": "uint256"
        }
      ],
      "stateMutability": "view",
      "type": "function"
    },
    {
      "inputs": [
        {
          "internalType": "address",
          "name": "",
          "type": "address"
        }
      ],
      "name": "totalRewards",
      "outputs": [
        {
          "internalType": "uint256",
          "name": "",
          "type": "uint256"
        }
      ],
      "stateMutability": "view",
      "type": "function"
    },
    {
      "inputs": [],
      "name": "totalSupply",
      "outputs": [
        {
          "internalType": "uint256",
          "name": "",
          "type": "uint256"
        }
      ],
      "stateMutability": "view",
      "type": "function"
    },
    {
      "inputs": [
        {
          "internalType": "address",
          "name": "recipient",
          "type": "address"
        },
        {
          "internalType": "uint256",
          "name": "amount",
          "type": "uint256"
        }
      ],
      "name": "transfer",
      "outputs": [
        {
          "internalType": "bool",
          "name": "",
          "type": "bool"
        }
      ],
      "stateMutability": "nonpayable",
      "type": "function"
    },
    {
      "inputs": [
        {
          "internalType": "address",
          "name": "sender",
          "type": "address"
        },
        {
          "internalType": "address",
          "name": "recipient",
          "type": "address"
        },
        {
          "internalType": "uint256",
          "name": "amount",
          "type": "uint256"
        }
      ],
      "name": "transferFrom",
      "outputs": [
        {
          "internalType": "bool",
          "name": "",
          "type": "bool"
        }
      ],
      "stateMutability": "nonpayable",
      "type": "function"
    },
    {
      "inputs": [
        {
          "internalType": "address",
          "name": "newOwner",
          "type": "address"
        }
      ],
      "name": "transferOwnership",
      "outputs": [],
      "stateMutability": "nonpayable",
      "type": "function"
    },
    {
      "inputs": [],
      "name": "upgradeVaccine",
      "outputs": [],
      "stateMutability": "nonpayable",
      "type": "function"
    },
    {
      "inputs": [
        {
          "internalType": "address",
          "name": "",
          "type": "address"
        }
      ],
      "name": "userCurrentVaccine",
      "outputs": [
        {
          "internalType": "uint256",
          "name": "",
          "type": "uint256"
        }
      ],
      "stateMutability": "view",
      "type": "function"
    },
    {
      "inputs": [
        {
          "internalType": "address",
          "name": "",
          "type": "address"
        }
      ],
      "name": "userHasBoughtVaccine",
      "outputs": [
        {
          "internalType": "bool",
          "name": "",
          "type": "bool"
        }
      ],
      "stateMutability": "view",
      "type": "function"
    },
    {
      "inputs": [],
      "name": "vaccineFourSupply",
      "outputs": [
        {
          "internalType": "uint256",
          "name": "",
          "type": "uint256"
        }
      ],
      "stateMutability": "view",
      "type": "function"
    },
    {
      "inputs": [],
      "name": "vault",
      "outputs": [
        {
          "internalType": "contract Vault",
          "name": "",
          "type": "address"
        }
      ],
      "stateMutability": "view",
      "type": "function"
    },
    {
      "stateMutability": "payable",
      "type": "receive"
    }
  ],
  "bytecode": "0x60e0604052600e60a09081526d109b1a59da1d08141c9bda9958dd60921b60c0526002906200002f9082620008f4565b5060408051808201909152600380825262424c4960e81b602083015290620000589082620008f4565b50620000676012600a62000ad3565b6200007790633b9aca0062000aeb565b60045569d3c21bcecceda10000006005556103e8600454600a6200009c919062000aeb565b620000a8919062000b05565b600655600554620000bc9061025862000aeb565b600b5560c8600c55600554620000d59061038462000aeb565b600d5561012c600e5560108054733e98da13e184ea1467639bf642f804144539694d6001600160a01b03199182161790915560118054732ca8e0c643bde4c2e08ab1fa0da3401adad7734d9216919091179055601280546001600160e01b0319167537f32ca8e0c643bde4c2e08ab1fa0da3401adad7734d1790557f79d3d8832d904592c0bf9818b621522c988bb8b0c05cdc3b15aea1b6e8db0c15601555601680546001600160501b03191666010003000186a01790556019805461ffff60a01b19169055600454620001ad906103e89062000b05565b620001ba90600362000aeb565b601a5560646022556000602655600060285560006029556934f086f3b33b68400000602a556000602b556000602c556000602d556000602e556000602f55600060305560006031556000603255600a60335560055460e56200021d919062000aeb565b603a55600554620002319061016562000aeb565b603b55600554620002459061020262000aeb565b603c5560055462000259906102bc62000aeb565b603d556005546200026d9061039262000aeb565b603e55600554620002819061048562000aeb565b603f556040805461ffff191690553480156200029c57600080fd5b5060405162005da938038062005da9833981016040819052620002bf9162000b28565b6011546001600160a01b039081169082908116620002f757604051631e4fbdf760e01b81526000600482015260240160405180910390fd5b62000302816200075a565b506001600160a01b0316608052601880546001600160a01b031916737a250d5630b4cf539739df2c5dacb4c659f2488d9081179091556040805163c45a015560e01b8152905163c45a0155916004808201926020929091908290030181865afa15801562000374573d6000803e3d6000fd5b505050506040513d601f19601f820116820180604052508101906200039a919062000b28565b6001600160a01b031663c9c65396601860009054906101000a90046001600160a01b03166001600160a01b031663ad5c46486040518163ffffffff1660e01b8152600401602060405180830381865afa158015620003fc573d6000803e3d6000fd5b505050506040513d601f19601f8201168201806040525081019062000422919062000b28565b6040516001600160e01b031960e084901b1681526001600160a01b0390911660048201523060248201526044016020604051808303816000875af11580156200046f573d6000803e3d6000fd5b505050506040513d601f19601f8201168201806040525081019062000495919062000b28565b601980546001600160a01b0319166001600160a01b0392831617905530600090815260086020908152604080832060185490941683529290529081206000199055620004e29082620007aa565b506200050f7fa49807205ce4d355092ef5a8a18f56e8913cf4a201fbe287825b095693c2177582620007aa565b503081604051620005209062000841565b6001600160a01b03928316815291166020820152604001604051809103906000f08015801562000554573d6000803e3d6000fd5b50602180546001600160a01b0319166001600160a01b03928316178155336000818152600960209081526040808320805460ff199081166001908117909255308086528386208054831684179055601080548a1687528487208054841685179055878752600a8652848720805484168517905580548a16875284872080548416851790557f20677881080440a9b3c87e826370bb5d9c2f74efd4dede686d52d77a6a09f8bb805484168517905597548916865283862080548316841790558086528386208054831684179055601980548a16875284872080548416851790557fc90215bb1b0ac6bfa50a3c02c4b559c695b6a8e828048a88e327592fc55c5d2c8054841685179055878752601c8652848720805484168517905597548916865283862080548316841790557fa48bd8e7b1565515cde2859b6cc48308ba05b5325bcf90fb096b9ac0b8087dfc8054831684179055855282852080548216831790559554909616835280832080548616871790557fb1e2e88b6a3e9d36c6d6d48756ca9ed8312cfcb5a15208f81170ade3bd2b4a958054909516909517909355600454918152600790925291812080549091906200071390849062000b53565b909155505060045460405190815233906000907fddf252ad1be2c89b69c2b068fc378daa952ba7f163c4a11628f55a4df523b3ef9060200160405180910390a35062000b69565b600080546001600160a01b038381166001600160a01b0319831681178455604051919092169283917f8be0079c531659141344cd1fd0a4f28419497f9722a3daafe3b4186f6b6457e09190a35050565b60008281526001602090815260408083206001600160a01b038516845290915281205460ff16620008375760008381526001602081815260408084206001600160a01b0387168086529252808420805460ff19169093179092559051339286917f2f8788117e7eff1d82e926ec794901d17c78024a50270940304540a733656f0d9190a45060016200083b565b5060005b92915050565b61089a806200550f83390190565b634e487b7160e01b600052604160045260246000fd5b600181811c908216806200087a57607f821691505b6020821081036200089b57634e487b7160e01b600052602260045260246000fd5b50919050565b601f821115620008ef57600081815260208120601f850160051c81016020861015620008ca5750805b601f850160051c820191505b81811015620008eb57828155600101620008d6565b5050505b505050565b81516001600160401b038111156200091057620009106200084f565b620009288162000921845462000865565b84620008a1565b602080601f831160018114620009605760008415620009475750858301515b600019600386901b1c1916600185901b178555620008eb565b600085815260208120601f198616915b82811015620009915788860151825594840194600190910190840162000970565b5085821015620009b05787850151600019600388901b60f8161c191681555b5050505050600190811b01905550565b634e487b7160e01b600052601160045260246000fd5b600181815b8085111562000a17578160001904821115620009fb57620009fb620009c0565b8085161562000a0957918102915b93841c9390800290620009db565b509250929050565b60008262000a30575060016200083b565b8162000a3f575060006200083b565b816001811462000a58576002811462000a635762000a83565b60019150506200083b565b60ff84111562000a775762000a77620009c0565b50506001821b6200083b565b5060208310610133831016604e8410600b841016171562000aa8575081810a6200083b565b62000ab48383620009d6565b806000190482111562000acb5762000acb620009c0565b029392505050565b600062000ae460ff84168362000a1f565b9392505050565b80820281158282048414176200083b576200083b620009c0565b60008262000b2357634e487b7160e01b600052601260045260246000fd5b500490565b60006020828403121562000b3b57600080fd5b81516001600160a01b038116811462000ae457600080fd5b808201808211156200083b576200083b620009c0565b60805161498362000b8c60003960008181611656015261169801526149836000f3fe6080604052600436106104135760003560e01c8063658d4b7f1161021e578063ab7573dd11610123578063df20fd49116100ab578063f887ea401161007a578063f887ea4014610d32578063fbfa77cf14610d52578063fc2a88c314610d72578063fd39ef7814610d88578063fd6e28cf14610da857600080fd5b8063df20fd4914610cb2578063f25c7ea414610cd2578063f2fde38b14610cf2578063f5415cbb14610d1257600080fd5b8063c6b61e4c116100f2578063c6b61e4c14610bcb578063d02c639414610c22578063d3a9ffc414610c37578063d547741f14610c4c578063dd62ed3e14610c6c57600080fd5b8063ab7573dd14610b4c578063c26d68f914610b79578063c315432a14610b9b578063c3ec889714610bb557600080fd5b80638c5799ce116101a657806396eb64a91161017557806396eb64a914610ac1578063a217fddf14610ae1578063a8aa1b3114610af6578063a9059cbb14610b16578063aa9bbc0c14610b3657600080fd5b80638c5799ce14610a3e5780638da5cb5b14610a6e57806391d1485414610a8c57806395d89b4114610aac57600080fd5b806370a08231116101ed57806370a08231146109a7578063715018a6146109c757806373a432bb146109dc57806375b238fc146109fc5780638796ba8c14610a1e57600080fd5b8063658d4b7f1461092f5780636789c92c1461094f5780636cbc2ded146109715780636ddd17131461098657600080fd5b80632198cf6c116103245780633eca5343116102ac5780635119c9711161027b5780635119c9711461088657806354d41b5b1461089c578063571ac8b0146108c95780635bc04469146108e9578063636ee0db146108ff57600080fd5b80633eca53431461080557806343d4f92b1461083b5780634726319f1461085b5780634e71d92d1461087157600080fd5b80632f2ff15d116102f35780632f2ff15d14610767578063313ce5671461078757806331d7a262146107a357806336568abe146107d05780633aab0a62146107f057600080fd5b80632198cf6c146106be57806323b872dd146106de578063248a9ca3146106fe5780632598cdb21461072f57600080fd5b80630e04a7d8116103a757806318160ddd1161037657806318160ddd14610649578063196228c01461065e5780631bd8ebe1146106735780631ce78ac8146106895780631fe543e31461069e57600080fd5b80630e04a7d8146105935780630f44e894146105b25780631299d7f7146105de5780631781e17c146105fe57600080fd5b806305dc0394116103e357806305dc03941461050c578063064a59d01461053057806306fdde0314610551578063095ea7b31461057357600080fd5b80627f27ae1461041f578063014c58a31461044157806301ffc9a7146104a157806302b2553e146104c157600080fd5b3661041a57005b600080fd5b34801561042b57600080fd5b5061043f61043a366004614288565b610df3565b005b34801561044d57600080fd5b5061048c61045c366004614288565b60265460009081526027602090815260408083206001600160a01b03909416835260049093019052205460ff1690565b60405190151581526020015b60405180910390f35b3480156104ad57600080fd5b5061048c6104bc3660046142a5565b61119f565b3480156104cd57600080fd5b5061048c6104dc366004614288565b60265460009081526027602090815260408083206001600160a01b03909416835260059093019052205460ff1690565b34801561051857600080fd5b5061052260295481565b604051908152602001610498565b34801561053c57600080fd5b5060195461048c90600160a01b900460ff1681565b34801561055d57600080fd5b506105666111d6565b60405161049891906142cf565b34801561057f57600080fd5b5061048c61058e36600461431d565b611268565b34801561059f57600080fd5b5060405461048c90610100900460ff1681565b3480156105be57600080fd5b506105226105cd366004614288565b602080526000908152604090205481565b3480156105ea57600080fd5b5061043f6105f9366004614349565b6112d4565b34801561060a57600080fd5b5061048c610619366004614288565b60265460009081526027602090815260408083206001600160a01b03909416835260089093019052205460ff1690565b34801561065557600080fd5b50600454610522565b34801561066a57600080fd5b5061043f6112f2565b34801561067f57600080fd5b5061052260285481565b34801561069557600080fd5b5061043f611615565b3480156106aa57600080fd5b5061043f6106b93660046143cd565b61164b565b3480156106ca57600080fd5b5061043f6106d9366004614484565b6116cf565b3480156106ea57600080fd5b5061048c6106f93660046144b9565b611702565b34801561070a57600080fd5b50610522610719366004614349565b6000908152600160208190526040909120015490565b34801561073b57600080fd5b5060105461074f906001600160a01b031681565b6040516001600160a01b039091168152602001610498565b34801561077357600080fd5b5061043f6107823660046144fa565b6117d7565b34801561079357600080fd5b5060405160128152602001610498565b3480156107af57600080fd5b506105226107be366004614288565b601f6020526000908152604090205481565b3480156107dc57600080fd5b5061043f6107eb3660046144fa565b611803565b3480156107fc57600080fd5b5061043f61183b565b34801561081157600080fd5b5061074f610820366004614288565b601d602052600090815260409020546001600160a01b031681565b34801561084757600080fd5b5061043f610856366004614288565b6118c1565b34801561086757600080fd5b5061052260335481565b34801561087d57600080fd5b5061043f611922565b34801561089257600080fd5b5061052260425481565b3480156108a857600080fd5b506105226108b7366004614288565b60236020526000908152604090205481565b3480156108d557600080fd5b5061048c6108e4366004614288565b611b24565b3480156108f557600080fd5b50610522602a5481565b34801561090b57600080fd5b5061048c61091a366004614288565b601c6020526000908152604090205460ff1681565b34801561093b57600080fd5b5061043f61094a366004614484565b611b32565b34801561095b57600080fd5b50610964611b65565b604051610498919061456e565b34801561097d57600080fd5b5061043f611bd4565b34801561099257600080fd5b5060195461048c90600160a81b900460ff1681565b3480156109b357600080fd5b506105226109c2366004614288565b611d31565b3480156109d357600080fd5b5061043f611d4c565b3480156109e857600080fd5b5061043f6109f7366004614288565b611d5e565b348015610a0857600080fd5b5061052260008051602061492e83398151915281565b348015610a2a57600080fd5b50610522610a39366004614349565b611da0565b348015610a4a57600080fd5b5061048c610a59366004614288565b60246020526000908152604090205460ff1681565b348015610a7a57600080fd5b506000546001600160a01b031661074f565b348015610a9857600080fd5b5061048c610aa73660046144fa565b611dc1565b348015610ab857600080fd5b50610566611dec565b348015610acd57600080fd5b5061043f610adc366004614288565b611dfb565b348015610aed57600080fd5b50610522600081565b348015610b0257600080fd5b5060195461074f906001600160a01b031681565b348015610b2257600080fd5b5061048c610b3136600461431d565b611f8c565b348015610b4257600080fd5b5061052260265481565b348015610b5857600080fd5b50610522610b67366004614288565b601e6020526000908152604090205481565b348015610b8557600080fd5b50610b8e611fbe565b6040516104989190614581565b348015610ba757600080fd5b5060405461048c9060ff1681565b348015610bc157600080fd5b5061052260435481565b348015610bd757600080fd5b50610c07610be6366004614349565b60276020526000908152604090208054600182015460029092015490919083565b60408051938452602084019290925290820152606001610498565b348015610c2e57600080fd5b5061043f611ffd565b348015610c4357600080fd5b5061043f61200d565b348015610c5857600080fd5b5061043f610c673660046144fa565b6123b9565b348015610c7857600080fd5b50610522610c873660046145bb565b6001600160a01b03918216600090815260086020908152604080832093909416825291909152205490565b348015610cbe57600080fd5b5061043f610ccd3660046145e9565b6123df565b348015610cde57600080fd5b5061043f610ced366004614349565b61245a565b348015610cfe57600080fd5b5061043f610d0d366004614288565b6124de565b348015610d1e57600080fd5b5061043f610d2d366004614605565b612519565b348015610d3e57600080fd5b5060185461074f906001600160a01b031681565b348015610d5e57600080fd5b5060215461074f906001600160a01b031681565b348015610d7e57600080fd5b5061052260145481565b348015610d9457600080fd5b5061043f610da3366004614349565b61277a565b348015610db457600080fd5b5061048c610dc3366004614288565b60265460009081526027602090815260408083206001600160a01b03909416835260039093019052205460ff1690565b6001600160a01b0381163314610e415760405162461bcd60e51b815260206004820152600e60248201526d139bdd08185d5d1a1bdc9a5e995960921b60448201526064015b60405180910390fd5b6026546000908152602760205260409020600201544210610e745760405162461bcd60e51b8152600401610e389061469f565b60265460009081526027602090815260408083203384526007019091528120549003610ef95760405162461bcd60e51b815260206004820152602e60248201527f596f7520686176656e277420626f7567687420612063617073756c652064757260448201526d0d2dcce40e8d0d2e640cae0dec6d60931b6064820152608401610e38565b602654600090815260276020908152604080832033845260050190915290205460ff1615610f745760405162461bcd60e51b815260206004820152602260248201527f596f7527766520616c7265616479206f70656e656420796f75722063617073756044820152616c6560f01b6064820152608401610e38565b602654600090815260276020908152604080832033845260080190915290205460ff161515600114610ff85760405162461bcd60e51b815260206004820152602760248201527f596f75722072657175657374206861736e2774206265656e2066756c6c66696c6044820152661b1959081e595d60ca1b6064820152608401610e38565b602654600090815260276020908152604080832033845260070190915281205461102190612798565b905060018110158015611035575060288111155b1561107557602f805490600061104a836146f9565b9091555050602b805490600061105f836146f9565b919050555061107182600160006128dd565b5050565b602981101580156110875750604b8111155b156110c3576030805490600061109c836146f9565b9091555050602c80549060006110b1836146f9565b919050555061107182600260006128dd565b604c81101580156110d5575060618111155b1561111157603180549060006110ea836146f9565b9091555050602d80549060006110ff836146f9565b919050555061107182600360006128dd565b6062811015801561112457506022548111155b156110715760328054906000611139836146f9565b9091555050602e805490600061114e836146f9565b909155505060265460009081526027602090815260408220600901805460018082018355918452919092200180546001600160a01b0319166001600160a01b038516179055611071908390806128dd565b60006001600160e01b03198216637965db0b60e01b14806111d057506301ffc9a760e01b6001600160e01b03198316145b92915050565b6060600280546111e590614712565b80601f016020809104026020016040519081016040528092919081815260200182805461121190614712565b801561125e5780601f106112335761010080835404028352916020019161125e565b820191906000526020600020905b81548152906001019060200180831161124157829003601f168201915b5050505050905090565b3360008181526008602090815260408083206001600160a01b038716808552925280832085905551919290917f8c5be1e5ebec7d5bd14f71427d1e84f3dd0314c0f7b2291e5b200ac8c7c3b925906112c39086815260200190565b60405180910390a350600192915050565b60008051602061492e8339815191526112ec816129d9565b50602a55565b60006103e8602a546102ee6113079190614746565b6113119190614773565b602654600090815260276020908152604080832033845260030190915290205490915060ff16156113a05760405162461bcd60e51b815260206004820152603360248201527f596f752068617665206f6e6c79206f6e6520616374696f6e207065722065706f6044820152726368203a20627579206f72207570677261646560681b6064820152608401610e38565b602654600090815260276020908152604080832033845260040190915290205460ff161561142f5760405162461bcd60e51b815260206004820152603660248201527f596f7527766520616c726561647920757067726164656420796f7572207661636044820152750c6d2dcca40c8eae4d2dcce40e8d0d2e640cae0dec6d60531b6064820152608401610e38565b336000908152602360205260409020541580159061145c5750336000908152602360205260409020546003115b6114b45760405162461bcd60e51b815260206004820152602360248201527f596f7520646f6e2774206861766520612076616363696e6520746f207570677260448201526261646560e81b6064820152608401610e38565b806114be33611d31565b101561151e5760405162461bcd60e51b815260206004820152602960248201527f4e6f7420656e6f75676820746f6b656e7320746f207570677261646520796f75604482015268722076616363696e6560b81b6064820152608401610e38565b60265460009081526027602052604090206002015442106115515760405162461bcd60e51b8152600401610e389061469f565b604054610100900460ff16156115795760405162461bcd60e51b8152600401610e3890614787565b60265460009081526027602090815260408083203384526004019091528120805460ff191660011790556103e86115b1836032614746565b6115bb9190614773565b6021549091506000906115e29033906001600160a01b03166115dd85876147ad565b6129e3565b90506115ef3330846129e3565b5033600090815260236020526040812080549161160b836146f9565b9190505550505050565b61161d612a8b565b6019805461ffff60a01b191661010160a01b179081905560ff600160a01b909104161561164957426049555b565b336001600160a01b037f000000000000000000000000000000000000000000000000000000000000000016146116c55760405163073e64fd60e21b81523360048201526001600160a01b037f0000000000000000000000000000000000000000000000000000000000000000166024820152604401610e38565b6110718282612ab8565b6116d7612a8b565b6001600160a01b03919091166000908152600a60205260409020805460ff1916911515919091179055565b6001600160a01b03831660009081526008602090815260408083203384529091528120548211156117865760405162461bcd60e51b815260206004820152602860248201527f45524332303a207472616e7366657220616d6f756e74206578636565647320616044820152676c6c6f77616e636560c01b6064820152608401610e38565b611791848484612bbe565b506001600160a01b0384166000908152600860209081526040808320338085529252909120546117cd9186916117c89086906147ad565b612fbd565b5060019392505050565b600082815260016020819052604090912001546117f3816129d9565b6117fd83836130e1565b50505050565b6001600160a01b038116331461182c5760405163334bd91960e11b815260040160405180910390fd5b611836828261315a565b505050565b60008051602061492e833981519152611853816129d9565b604054610100900460ff161561187b5760405162461bcd60e51b8152600401610e3890614787565b6118836131c7565b7fa7ef457c4bdaa5cf9805314ebb0d85316230de6508df8ba03db8e27901cc147d6026546040516118b691815260200190565b60405180910390a150565b6118c9612a8b565b601080546001600160a01b0319166001600160a01b0392831690811782556000908152600960209081526040808320805460ff19908116600190811790925594549095168352600a909152902080549091169091179055565b3332146119595760405162461bcd60e51b815260206004820152600560248201526432b93937b960d91b6044820152606401610e38565b336000908152601f60205260409020546119aa5760405162461bcd60e51b81526020600482015260126024820152716e6f2070656e64696e67207265776172647360701b6044820152606401610e38565b336000908152601f6020908152604082208054908390556001835260279091527fb6915e519d5f9dd23c62986e48578ddfa8cde5c92608222904fd87ad04df4fff54909190421015611a1c576064611a03836019614746565b611a0d9190614773565b9050611a1981836147ad565b91505b8015611a3c57602154611a3a9030906001600160a01b0316836129e3565b505b6000611a493033856129e3565b905080611a8a5760405162461bcd60e51b815260206004820152600f60248201526e1d1c985b9cd9995c8819985a5b1959608a1b6044820152606401610e38565b336000908152601e602052604081208054859290611aa99084906147c0565b925050819055508260426000828254611ac291906147c0565b925050819055508260416000828254611adb91906147ad565b90915550611ae9905061339f565b60405183815233907f620fc7379f7c67f4289f23e24a7f28f721792b0e898e2af03581b2e73e604a53906020015b60405180910390a2505050565b60006111d082600019611268565b611b3a612a8b565b6001600160a01b03919091166000908152600960205260409020805460ff1916911515919091179055565b60265460009081526027602090815260409182902060090180548351818402810184019094528084526060939283018282801561125e57602002820191906000526020600020905b81546001600160a01b03168152600190910190602001808311611bad575050505050905090565b60008051602061492e833981519152611bec816129d9565b604954611bfc9062093a806147c0565b421015611c405760405162461bcd60e51b815260206004820152601260248201527143616e277420656e64207468652067616d6560701b6044820152606401610e38565b604054610100900460ff1615611c8f5760405162461bcd60e51b815260206004820152601460248201527323b0b6b29034b99030b63932b0b23c9037bb32b960611b6044820152606401610e38565b6040805461ff00191661010017815560265460009081526027602052206009015415611d2e5760215460265460009081526027602052604090819020905163f25addf560e01b81526001600160a01b039092169163f25addf591611cfb916009909101906004016147d3565b600060405180830381600087803b158015611d1557600080fd5b505af1158015611d29573d6000803e3d6000fd5b505050505b50565b6001600160a01b031660009081526007602052604090205490565b611d54612a8b565b611649600061359a565b611d66612a8b565b601980546001600160a01b039092166001600160a01b0319909216821790556000908152600a60205260409020805460ff19166001179055565b60138181548110611db057600080fd5b600091825260209091200154905081565b60009182526001602090815260408084206001600160a01b0393909316845291905290205460ff1690565b6060600380546111e590614712565b6001600160a01b0381166000908152601c602052604090205460ff1615611e575760405162461bcd60e51b815260206004820152601060248201526f105b1c9958591e481a5b999958dd195960821b6044820152606401610e38565b6001611e6233611d31565b1015611eb05760405162461bcd60e51b815260206004820152601b60248201527f4e6f7420656e6f75676820746f6b656e7320746f20696e6665637400000000006044820152606401610e38565b336000908152601c602052604090205460ff161515600114611f0a5760405162461bcd60e51b8152602060048201526013602482015272165bdd49dc99481b9bdd081a5b999958dd1959606a1b6044820152606401610e38565b6001600160a01b0381166000908152601d6020908152604080832080546001600160a01b03191633908117909155601c8352818420805460ff1916600117905583529080528120805491611f5d836146f9565b909155505060438054906000611f72836146f9565b919050555060006118363383670de0b6b3a76400006129e3565b6019546000906001600160a01b03163303611fb357611fac338484612bbe565b90506111d0565b611fac3384846129e3565b611fc66141ad565b6040805160a0810191829052604480546001600160a01b031682529091600590604560208501808311611bad575050505050905090565b612005612a8b565b600454600655565b602a54336000908152601c602052604090205460ff166120665760405162461bcd60e51b8152602060048201526014602482015273165bdd48185c99481b9bdd081a5b999958dd195960621b6044820152606401610e38565b60405460ff166120b85760405162461bcd60e51b815260206004820152601760248201527f47616d65206973206e6f742073746172746564207965740000000000000000006044820152606401610e38565b604054610100900460ff16156120e05760405162461bcd60e51b8152600401610e3890614787565b806120ea33611d31565b10156121435760405162461bcd60e51b815260206004820152602260248201527f4e6f7420656e6f75676820746f6b656e7320746f2062757920612063617073756044820152616c6560f01b6064820152608401610e38565b60265460009081526027602052604090206002015442106121765760405162461bcd60e51b8152600401610e389061469f565b602654600090815260276020908152604080832033845260030190915290205460ff16156122005760405162461bcd60e51b815260206004820152603160248201527f596f7527766520616c726561647920626f7567687420612063617073756c65206044820152700c8eae4d2dcce40e8d0d2e640cae0dec6d607b1b6064820152608401610e38565b602654600090815260276020908152604080832033845260040190915290205460ff161561228c5760405162461bcd60e51b815260206004820152603360248201527f596f75206f6e6c792068617665206f6e6520616374696f6e207065722065706f6044820152726368203a20627579206f72207570677261646560681b6064820152608401610e38565b6029805490600061229c836146f9565b9091555050602880549060006122b1836146f9565b909155505060265460009081526027602090815260408083203384526003019091528120805460ff191660011790556103e86122ee8360c8614746565b6122f89190614773565b90506123073361dead836129e3565b506021546000906123279033906001600160a01b03166115dd85876147ad565b905060006123336135ea565b602680546000908152602760208181526040808420868552600601825280842080546001600160a01b03191633908117909155945484529181528183208484526007018152918190208490555183815292935090917f56e18f08766f396148d5b13331a86d9ce4ea3d9c08821cf829ccf881a6fff8bf910160405180910390a250505050565b600082815260016020819052604090912001546123d5816129d9565b6117fd838361315a565b6123e7612a8b565b60018110156124385760405162461bcd60e51b815260206004820152601f60248201527f43616e27742073657420537761705468726573686f6c6420746f205a45524f006044820152606401610e38565b60198054921515600160a81b0260ff60a81b1990931692909217909155601a55565b60008051602061492e833981519152612472816129d9565b602e548210156124d85760405162461bcd60e51b815260206004820152602b60248201527f43616e2774207265647563652076616363696e6520737570706c79206475726960448201526a0dcce40c2dc40cae0dec6d60ab1b6064820152608401610e38565b50603355565b6124e6612a8b565b6001600160a01b03811661251057604051631e4fbdf760e01b815260006004820152602401610e38565b611d2e8161359a565b612521612a8b565b60005b815181101561107157601c600083838151811061254357612543614823565b6020908102919091018101516001600160a01b031682528101919091526040016000205460ff16156125aa5760405162461bcd60e51b815260206004820152601060248201526f105b1c9958591e481a5b999958dd195960821b6044820152606401610e38565b60016125b533611d31565b10156126035760405162461bcd60e51b815260206004820152601b60248201527f6e6f7420656e6f75676820746f6b656e7320746f20696e6665637400000000006044820152606401610e38565b336000908152601c602052604090205460ff1615156001146126565760405162461bcd60e51b815260206004820152600c60248201526b1b9bdd081a5b999958dd195960a21b6044820152606401610e38565b33601d600084848151811061266d5761266d614823565b60200260200101516001600160a01b03166001600160a01b0316815260200190815260200160002060006101000a8154816001600160a01b0302191690836001600160a01b031602179055506001601c60008484815181106126d1576126d1614823565b6020908102919091018101516001600160a01b031682528181019290925260409081016000908120805460ff191694151594909417909355338352908052812080549161271d836146f9565b909155505060438054906000612732836146f9565b919050555060006127653384848151811061274f5761274f614823565b6020026020010151670de0b6b3a76400006129e3565b50819050612772816146f9565b915050612524565b60008051602061492e833981519152612792816129d9565b50602255565b600081815260176020526040812054610100900460ff166127ef5760405162461bcd60e51b81526020600482015260116024820152701c995c5d595cdd081b9bdd08199bdd5b99607a1b6044820152606401610e38565b60008281526017602090815260408083208151606081018352815460ff808216151583526101009091041615158185015260018201805484518187028101870186528181529295939486019383018282801561286a57602002820191906000526020600020905b815481526020019060010190808311612856575b5050505050815250509050603354602e54106128bd576061816040015160008151811061289957612899614823565b60200260200101516128ab9190614839565b6128b69060016147c0565b9392505050565b602254816040015160008151811061289957612899614823565b50919050565b6001600160a01b03831660009081526024602052604090205460ff16612961576025805460018082019092557f401968ff42a154441da5f6c4c935ac46b8671f0e062baaa62a7545ba53bb6e4c0180546001600160a01b0319166001600160a01b0386169081179091556000908152602460205260409020805460ff191690911790555b6001600160a01b0383166000818152602360209081526040808320869055602654835260278252808320848452600501825291829020805460ff191660011790558151858152841515918101919091527fc05909672b3730633581d6cf7b807382b3572d7805ace294b8d4b3558c5cc7ff9101611b17565b611d2e81336137a6565b6001600160a01b038316600090815260076020526040812054612a079083906147ad565b6001600160a01b038086166000908152600760205260408082209390935590851681522054612a379083906147c0565b6001600160a01b03808516600081815260076020526040908190209390935591519086169060008051602061490e83398151915290612a799086815260200190565b60405180910390a35060019392505050565b6000546001600160a01b031633146116495760405163118cdaa760e01b8152336004820152602401610e38565b600082815260176020526040902054610100900460ff16612b0f5760405162461bcd60e51b81526020600482015260116024820152701c995c5d595cdd081b9bdd08199bdd5b99607a1b6044820152606401610e38565b6000828152601760209081526040909120805460ff1916600190811782558351612b409392909101918401906141cb565b506026546000908152602760209081526040808320858452600681018352818420546001600160a01b0316845260080190915290819020805460ff19166001179055517ffe2e2d779dba245964d4e3ef9b994be63856fd568bf7d3ca9e224755cb1bd54d90612bb2908490849061484d565b60405180910390a15050565b6001600160a01b03831660009081526009602052604081205460ff1680612bfd57506001600160a01b03831660009081526009602052604090205460ff165b80612c115750601954600160a01b900460ff165b612c5d5760405162461bcd60e51b815260206004820152601b60248201527f4e6f7420617574686f72697a656420746f2074726164652079657400000000006044820152606401610e38565b6019546001600160a01b03848116911614612cc9576001600160a01b0383166000908152601c602052604090205460ff16612cc95760405162461bcd60e51b815260206004820152600c60248201526b139bdd081a5b999958dd195960a21b6044820152606401610e38565b604054610100900460ff168015612cee57506019546001600160a01b03848116911614155b15612d7f57612d0b60008051602061492e83398151915285611dc1565b80612d295750612d2960008051602061492e83398151915284611dc1565b612d7f5760405162461bcd60e51b815260206004820152602160248201527f47616d65206973206f7665722c206f6e6c792061646d696e732063616e2062756044820152607960f81b6064820152608401610e38565b6000546001600160a01b03858116911614801590612dab57506000546001600160a01b03848116911614155b8015612dc257506001600160a01b03831661dead14155b15612e88576019546001600160a01b03848116911614612e88576001600160a01b0383166000908152600a602052604090205460ff1680612e2857506006546001600160a01b038416600090815260076020526040902054612e259084906147c0565b11155b612e885760405162461bcd60e51b815260206004820152602b60248201527f5472616e7366657220616d6f756e74206578636565647320746865204d61785760448201526a30b63632ba1039b4bd329760a91b6064820152608401610e38565b612e906137df565b8015612ea957506019546001600160a01b038481169116145b15612eb657612eb661383d565b6001600160a01b038416600090815260076020526040902054612eda9083906147ad565b6001600160a01b038516600090815260076020908152604080832093909355600990529081205460ff16151580612f2b57506001600160a01b03841660009081526009602052604090205460ff1615155b612f3f57612f3a858585613a23565b612f41565b825b6001600160a01b038516600090815260076020526040902054909150612f689082906147c0565b6001600160a01b03808616600081815260076020526040908190209390935591519087169060008051602061490e83398151915290612faa9085815260200190565b60405180910390a3506001949350505050565b6001600160a01b03831661301f5760405162461bcd60e51b8152602060048201526024808201527f45524332303a20617070726f76652066726f6d20746865207a65726f206164646044820152637265737360e01b6064820152608401610e38565b6001600160a01b0382166130805760405162461bcd60e51b815260206004820152602260248201527f45524332303a20617070726f766520746f20746865207a65726f206164647265604482015261737360f01b6064820152608401610e38565b6001600160a01b0383811660008181526008602090815260408083209487168084529482529182902085905590518481527f8c5be1e5ebec7d5bd14f71427d1e84f3dd0314c0f7b2291e5b200ac8c7c3b925910160405180910390a3505050565b60006130ed8383611dc1565b6131525760008381526001602081815260408084206001600160a01b0387168086529252808420805460ff19169093179092559051339286917f2f8788117e7eff1d82e926ec794901d17c78024a50270940304540a733656f0d9190a45060016111d0565b5060006111d0565b60006131668383611dc1565b156131525760008381526001602090815260408083206001600160a01b0386168085529252808320805460ff1916905551339286917ff6391f5c32d9c69d2a47ea670b442974b53935d1edc7fd64eb21e047a839171b9190a45060016111d0565b6026546000908152602760205260409020600901541561325a5760215460265460009081526027602052604090819020905163f25addf560e01b81526001600160a01b039092169163f25addf591613227916009909101906004016147d3565b600060405180830381600087803b15801561324157600080fd5b505af1158015613255573d6000803e3d6000fd5b505050505b6026805490600061326a836146f9565b9091555050602654600081815260276020526040902090815542600190910181905561329990620143706147c0565b602654600090815260276020526040812060020191909155602b819055602c819055602d819055602e81905560288190555b60255481101561337e57600060236000602584815481106132ee576132ee614823565b60009182526020808320909101546001600160a01b03168352820192909252604001902054111561336c576001602360006025848154811061333257613332614823565b60009182526020808320909101546001600160a01b03168352820192909252604001812080549091906133669084906147ad565b90915550505b80613376816146f9565b9150506132cb565b5060405460ff16613397576040805460ff191660011790555b611649613ecd565b336133a86141ad565b6133b06141ad565b6000805b600581101561341957601e6000604483600581106133d4576133d4614823565b01546001600160a01b0316815260208101919091526040016000205484826005811061340257613402614823565b602002015280613411816146f9565b9150506133b4565b5060005b600581101561346957846001600160a01b03166044826005811061344357613443614823565b01546001600160a01b031603613457578091505b80613461816146f9565b91505061341d565b506001600160a01b0384166000908152601e6020526040902054835110801561349d5750613499600160056147ad565b8114155b156117fd57806000036134b7576001600160a01b03841682525b60006134c48260016147c0565b90505b600581101561358c576001600160a01b0385166000908152601e60205260409020548482600581106134fb576134fb614823565b6020020151101561357a576044816005811061351957613519614823565b01546001600160a01b0316836135306001846147ad565b6005811061354057613540614823565b6001600160a01b0390921660209290920201528483826005811061356657613566614823565b6001600160a01b0390921660209290920201525b80613584816146f9565b9150506134c7565b50611d296044836005614216565b600080546001600160a01b038381166001600160a01b0319831681178455604051919092169283917f8be0079c531659141344cd1fd0a4f28419497f9722a3daafe3b4186f6b6457e09190a35050565b6012546015546016546040516305d3b1d360e41b81526004810192909252600160a01b830467ffffffffffffffff166024830152640100000000810461ffff16604483015263ffffffff808216606484015266010000000000009091041660848201526000916001600160a01b031690635d3b1d309060a4016020604051808303816000875af1158015613682573d6000803e3d6000fd5b505050506040513d601f19601f820116820180604052508101906136a6919061489b565b6040805160608101825260008082526001602080840182815285518481528083018752858701908152878552601783529590932084518154945161ffff1990951690151561ff0019161761010094151594909402939093178355935180519596509294919361371b93918501929101906141cb565b5050601380546001810182556000919091527f66de8ffda797e3de9c05e8fc57b3bf0ec28a930d40b0d285d93c06501cf6a0900182905550601481905560165460408051838152660100000000000090920463ffffffff1660208301527fcc58b13ad3eab50626c6a6300b1d139cd6ebb1688a7cced9461c2f7e762665ee910160405180910390a190565b6137b08282611dc1565b6110715760405163e2517d3f60e01b81526001600160a01b038216600482015260248101839052604401610e38565b6019546000906001600160a01b031633148015906138005750601b5460ff16155b80156138155750601954600160a81b900460ff165b80156138385750601a5460415461382b30611d31565b61383591906147ad565b10155b905090565b601b805460ff1916600117905560415460009061385930611d31565b61386391906147ad565b6040805160028082526060820183529293506000929091602083019080368337019050509050308160008151811061389d5761389d614823565b6001600160a01b03928316602091820292909201810191909152601854604080516315ab88c960e31b81529051919093169263ad5c46489260048083019391928290030181865afa1580156138f6573d6000803e3d6000fd5b505050506040513d601f19601f8201168201806040525081019061391a91906148b4565b8160018151811061392d5761392d614823565b6001600160a01b0392831660209182029290920101526018541663791ac947836000843061395d4261012c6147c0565b6040518663ffffffff1660e01b815260040161397d9594939291906148d1565b600060405180830381600087803b15801561399757600080fd5b505af11580156139ab573d6000803e3d6000fd5b504792505081159050613a14576010546040516000916001600160a01b03169061753090849084818181858888f193505050503d8060008114613a0a576040519150601f19603f3d011682016040523d82523d6000602084013e613a0f565b606091505b505050505b5050601b805460ff1916905550565b60195460009081908190819081906001600160a01b038981169116148015613a5957506019546001600160a01b03888116911614155b15613c05576001600160a01b038716600090815260236020526040902054600103613b0d57600361271060345488613a919190614746565b613a9b9190614773565b613aa59190614773565b6001600160a01b038089166000908152601d60209081526040808320549093168252601f905290812080549296508695508594508492909190613ae99084906147c0565b925050819055508260416000828254613b0291906147c0565b90915550613dd39050565b6001600160a01b038716600090815260236020526040902054600203613bbc57600361271060355488613b409190614746565b613b4a9190614773565b613b549190614773565b6001600160a01b038089166000908152601d60209081526040808320549093168252601f905290812080549296508695508594508492909190613b989084906147c0565b925050819055508260416000828254613bb191906147c0565b90915550613c009050565b6001600160a01b038716600090815260236020526040902054600303613bef57600361271060365488613b409190614746565b612710600c5487613a9b9190614746565b613dd3565b6019546001600160a01b03898116911614801590613c3057506019546001600160a01b038881169116145b15613dd357604054610100900460ff1615613c6457612710613c5387600a614746565b613c5d9190614773565b9350613dd3565b6001600160a01b038816600090815260236020526040902054600103613cef57600361271060375488613c979190614746565b613ca19190614773565b613cab9190614773565b6001600160a01b03808a166000908152601d60209081526040808320549093168252601f905290812080549296508695508594508492909190613ae99084906147c0565b6001600160a01b038816600090815260236020526040902054600203613d2257600361271060385488613c979190614746565b6001600160a01b038816600090815260236020526040902054600303613d5557600361271060395488613c979190614746565b612710600e5487613d669190614746565b613d709190614773565b6001600160a01b03808a166000908152601d60209081526040808320549093168252601f905290812080549296508695508594508492909190613db49084906147c0565b925050819055508260416000828254613dcd91906147c0565b90915550505b81613dde84866147c0565b613de891906147c0565b90508015613eb757613dfa82826147ad565b3060009081526007602052604081208054909190613e199084906147c0565b90915550506021546001600160a01b031660009081526007602052604081208054849290613e489084906147c0565b909155503090506001600160a01b03891660008051602061490e833981519152613e7285856147ad565b60405190815260200160405180910390a36021546040518381526001600160a01b03918216918a169060008051602061490e8339815191529060200160405180910390a35b613ec181876147ad565b98975050505050505050565b600554613f00600554602654603a54613ee69190614746565b613ef1906064614746565b613efb9190614746565b61401b565b600b54613f0d91906147ad565b613f179190614773565b603455600554602654603b54613f33918391613ee69190614746565b600b54613f4091906147ad565b613f4a9190614773565b603555600554602654603c54613f66918391613ee69190614746565b600b54613f7391906147ad565b613f7d9190614773565b603655600554602654603d54613f99918391613ee69190614746565b600d54613fa691906147ad565b613fb09190614773565b603755600554602654603e54613fcc918391613ee69190614746565b600d54613fd991906147ad565b613fe39190614773565b603855600554602654603f54613fff918391613ee69190614746565b600d5461400c91906147ad565b6140169190614773565b603955565b60008160000361402d57506000919050565b6000600161403a84614103565b901c6001901b905060018184816140535761405361475d565b048201901c9050600181848161406b5761406b61475d565b048201901c905060018184816140835761408361475d565b048201901c9050600181848161409b5761409b61475d565b048201901c905060018184816140b3576140b361475d565b048201901c905060018184816140cb576140cb61475d565b048201901c905060018184816140e3576140e361475d565b048201901c90506128b6818285816140fd576140fd61475d565b04614197565b600080608083901c1561411857608092831c92015b604083901c1561412a57604092831c92015b602083901c1561413c57602092831c92015b601083901c1561414e57601092831c92015b600883901c1561416057600892831c92015b600483901c1561417257600492831c92015b600283901c1561418457600292831c92015b600183901c156111d05760010192915050565b60008183106141a657816128b6565b5090919050565b6040518060a001604052806005906020820280368337509192915050565b828054828255906000526020600020908101928215614206579160200282015b828111156142065782518255916020019190600101906141eb565b5061421292915061425e565b5090565b8260058101928215614206579160200282015b8281111561420657825182546001600160a01b0319166001600160a01b03909116178255602090920191600190910190614229565b5b80821115614212576000815560010161425f565b6001600160a01b0381168114611d2e57600080fd5b60006020828403121561429a57600080fd5b81356128b681614273565b6000602082840312156142b757600080fd5b81356001600160e01b0319811681146128b657600080fd5b600060208083528351808285015260005b818110156142fc578581018301518582016040015282016142e0565b506000604082860101526040601f19601f8301168501019250505092915050565b6000806040838503121561433057600080fd5b823561433b81614273565b946020939093013593505050565b60006020828403121561435b57600080fd5b5035919050565b634e487b7160e01b600052604160045260246000fd5b604051601f8201601f1916810167ffffffffffffffff811182821017156143a1576143a1614362565b604052919050565b600067ffffffffffffffff8211156143c3576143c3614362565b5060051b60200190565b600080604083850312156143e057600080fd5b8235915060208084013567ffffffffffffffff8111156143ff57600080fd5b8401601f8101861361441057600080fd5b803561442361441e826143a9565b614378565b81815260059190911b8201830190838101908883111561444257600080fd5b928401925b8284101561446057833582529284019290840190614447565b80955050505050509250929050565b8035801515811461447f57600080fd5b919050565b6000806040838503121561449757600080fd5b82356144a281614273565b91506144b06020840161446f565b90509250929050565b6000806000606084860312156144ce57600080fd5b83356144d981614273565b925060208401356144e981614273565b929592945050506040919091013590565b6000806040838503121561450d57600080fd5b82359150602083013561451f81614273565b809150509250929050565b600081518084526020808501945080840160005b838110156145635781516001600160a01b03168752958201959082019060010161453e565b509495945050505050565b6020815260006128b6602083018461452a565b60a08101818360005b60058110156145b25781516001600160a01b031683526020928301929091019060010161458a565b50505092915050565b600080604083850312156145ce57600080fd5b82356145d981614273565b9150602083013561451f81614273565b600080604083850312156145fc57600080fd5b61433b8361446f565b6000602080838503121561461857600080fd5b823567ffffffffffffffff81111561462f57600080fd5b8301601f8101851361464057600080fd5b803561464e61441e826143a9565b81815260059190911b8201830190838101908783111561466d57600080fd5b928401925b8284101561469457833561468581614273565b82529284019290840190614672565b979650505050505050565b60208082526024908201527f45706f6368206973206f7665722c207761697420666f7220746865206e657874604082015263206f6e6560e01b606082015260800190565b634e487b7160e01b600052601160045260246000fd5b60006001820161470b5761470b6146e3565b5060010190565b600181811c9082168061472657607f821691505b6020821081036128d757634e487b7160e01b600052602260045260246000fd5b80820281158282048414176111d0576111d06146e3565b634e487b7160e01b600052601260045260246000fd5b6000826147825761478261475d565b500490565b6020808252600c908201526b23b0b6b29034b99037bb32b960a11b604082015260600190565b818103818111156111d0576111d06146e3565b808201808211156111d0576111d06146e3565b6020808252825482820181905260008481528281209092916040850190845b818110156148175783546001600160a01b0316835260019384019392850192016147f2565b50909695505050505050565b634e487b7160e01b600052603260045260246000fd5b6000826148485761484861475d565b500690565b6000604082018483526020604081850152818551808452606086019150828701935060005b8181101561488e57845183529383019391830191600101614872565b5090979650505050505050565b6000602082840312156148ad57600080fd5b5051919050565b6000602082840312156148c657600080fd5b81516128b681614273565b85815284602082015260a0604082015260006148f060a083018661452a565b6001600160a01b039490941660608301525060800152939250505056feddf252ad1be2c89b69c2b068fc378daa952ba7f163c4a11628f55a4df523b3efa49807205ce4d355092ef5a8a18f56e8913cf4a201fbe287825b095693c21775a2646970667358221220d437adc71080f17027a9707751809a3c0184b52e89f1f648fcf0d889e4c48a0a64736f6c6343000814003360806040526a14adf4b7320334b9000000600355600060045534801561002457600080fd5b5060405161089a38038061089a83398101604081905261004391610118565b806001600160a01b03811661007257604051631e4fbdf760e01b81526000600482015260240160405180910390fd5b61007b816100ac565b5050600180546001600160a01b039092166001600160a01b031992831681179091556002805490921617905561014b565b600080546001600160a01b038381166001600160a01b0319831681178455604051919092169283917f8be0079c531659141344cd1fd0a4f28419497f9722a3daafe3b4186f6b6457e09190a35050565b80516001600160a01b038116811461011357600080fd5b919050565b6000806040838503121561012b57600080fd5b610134836100fc565b9150610142602084016100fc565b90509250929050565b6107408061015a6000396000f3fe608060405234801561001057600080fd5b50600436106100885760003560e01c8063efca2eed1161005b578063efca2eed146100dc578063f25addf5146100f3578063f2fde38b14610106578063fc0c546a1461011957600080fd5b8063715018a61461008d578063853828b6146100975780638da5cb5b1461009f5780639d76ea58146100c9575b600080fd5b61009561012c565b005b610095610140565b6000546001600160a01b03165b6040516001600160a01b0390911681526020015b60405180910390f35b6002546100ac906001600160a01b031681565b6100e560045481565b6040519081526020016100c0565b610095610101366004610568565b610230565b61009561011436600461062d565b61047e565b6001546100ac906001600160a01b031681565b6101346104b9565b61013e60006104e6565b565b6101486104b9565b6001546040516370a0823160e01b81523060048201526001600160a01b039091169063a9059cbb90339083906370a0823190602401602060405180830381865afa15801561019a573d6000803e3d6000fd5b505050506040513d601f19601f820116820180604052508101906101be919061064f565b6040516001600160e01b031960e085901b1681526001600160a01b03909216600483015260248201526044016020604051808303816000875af1158015610209573d6000803e3d6000fd5b505050506040513d601f19601f8201168201806040525081019061022d9190610668565b50565b6002546001600160a01b031633146102a25760405162461bcd60e51b815260206004820152602a60248201527f4f6e6c7920746f6b656e20636f6e74726163742063616e2063616c6c207468696044820152693990333ab731ba34b7b760b11b60648201526084015b60405180910390fd5b6003546001546040516370a0823160e01b8152306004820152600092916001600160a01b0316906370a0823190602401602060405180830381865afa1580156102ef573d6000803e3d6000fd5b505050506040513d601f19601f82011682018060405250810190610313919061064f565b11610389576001546040516370a0823160e01b81523060048201526001600160a01b03909116906370a0823190602401602060405180830381865afa158015610360573d6000803e3d6000fd5b505050506040513d601f19601f82011682018060405250810190610384919061064f565b61038d565b6003545b905080600460008282546103a191906106a0565b9091555050801561047a5760005b82518110156104785760015483516001600160a01b039091169063a9059cbb908590849081106103e1576103e16106b9565b60200260200101518551856103f691906106cf565b6040516001600160e01b031960e085901b1681526001600160a01b03909216600483015260248201526044016020604051808303816000875af1158015610441573d6000803e3d6000fd5b505050506040513d601f19601f820116820180604052508101906104659190610668565b5080610470816106f1565b9150506103af565b505b5050565b6104866104b9565b6001600160a01b0381166104b057604051631e4fbdf760e01b815260006004820152602401610299565b61022d816104e6565b6000546001600160a01b0316331461013e5760405163118cdaa760e01b8152336004820152602401610299565b600080546001600160a01b038381166001600160a01b0319831681178455604051919092169283917f8be0079c531659141344cd1fd0a4f28419497f9722a3daafe3b4186f6b6457e09190a35050565b634e487b7160e01b600052604160045260246000fd5b80356001600160a01b038116811461056357600080fd5b919050565b6000602080838503121561057b57600080fd5b823567ffffffffffffffff8082111561059357600080fd5b818501915085601f8301126105a757600080fd5b8135818111156105b9576105b9610536565b8060051b604051601f19603f830116810181811085821117156105de576105de610536565b6040529182528482019250838101850191888311156105fc57600080fd5b938501935b82851015610621576106128561054c565b84529385019392850192610601565b98975050505050505050565b60006020828403121561063f57600080fd5b6106488261054c565b9392505050565b60006020828403121561066157600080fd5b5051919050565b60006020828403121561067a57600080fd5b8151801515811461064857600080fd5b634e487b7160e01b600052601160045260246000fd5b808201808211156106b3576106b361068a565b92915050565b634e487b7160e01b600052603260045260246000fd5b6000826106ec57634e487b7160e01b600052601260045260246000fd5b500490565b6000600182016107035761070361068a565b506001019056fea26469706673582212206b527e644d8c38e6cff6f7f273216ce647251a24ee1560183363f1bf8384876564736f6c63430008140033",
  "linkReferences": {},
  "deployedLinkReferences": {}
}