{
  "_format": "hh-sol-artifact-1",
  "contractName": "SARSCOV2",
  "sourceName": "contracts/Covid.sol",
  "abi": [
    {
      "inputs": [],
      "stateMutability": "nonpayable",
      "type": "constructor"
    },
    {
      "inputs": [
        {
          "internalType": "address",
          "name": "have",
          "type": "address"
        },
        {
          "internalType": "address",
          "name": "want",
          "type": "address"
        }
      ],
      "name": "OnlyCoordinatorCanFulfill",
      "type": "error"
    },
    {
      "inputs": [],
      "name": "ReentrancyGuardReentrantCall",
      "type": "error"
    },
    {
      "anonymous": false,
      "inputs": [
        {
          "indexed": true,
          "internalType": "address",
          "name": "owner",
          "type": "address"
        },
        {
          "indexed": true,
          "internalType": "address",
          "name": "spender",
          "type": "address"
        },
        {
          "indexed": false,
          "internalType": "uint256",
          "name": "value",
          "type": "uint256"
        }
      ],
      "name": "Approval",
      "type": "event"
    },
    {
      "anonymous": false,
      "inputs": [
        {
          "indexed": false,
          "internalType": "uint256",
          "name": "amountETH",
          "type": "uint256"
        },
        {
          "indexed": false,
          "internalType": "uint256",
          "name": "amountBOG",
          "type": "uint256"
        }
      ],
      "name": "AutoLiquify",
      "type": "event"
    },
    {
      "anonymous": false,
      "inputs": [
        {
          "indexed": true,
          "internalType": "address",
          "name": "user",
          "type": "address"
        },
        {
          "indexed": false,
          "internalType": "uint256",
          "name": "id",
          "type": "uint256"
        }
      ],
      "name": "CapsuleBought",
      "type": "event"
    },
    {
      "anonymous": false,
      "inputs": [
        {
          "indexed": true,
          "internalType": "address",
          "name": "user",
          "type": "address"
        },
        {
          "indexed": false,
          "internalType": "uint256",
          "name": "vaccine",
          "type": "uint256"
        },
        {
          "indexed": false,
          "internalType": "bool",
          "name": "vaccine4",
          "type": "bool"
        }
      ],
      "name": "CapsuleOpened",
      "type": "event"
    },
    {
      "anonymous": false,
      "inputs": [
        {
          "indexed": false,
          "internalType": "uint256",
          "name": "epochId",
          "type": "uint256"
        }
      ],
      "name": "NewEpochStarted",
      "type": "event"
    },
    {
      "anonymous": false,
      "inputs": [
        {
          "indexed": true,
          "internalType": "address",
          "name": "previousOwner",
          "type": "address"
        },
        {
          "indexed": true,
          "internalType": "address",
          "name": "newOwner",
          "type": "address"
        }
      ],
      "name": "OwnershipTransferred",
      "type": "event"
    },
    {
      "anonymous": false,
      "inputs": [
        {
          "indexed": false,
          "internalType": "uint256",
          "name": "requestId",
          "type": "uint256"
        },
        {
          "indexed": false,
          "internalType": "uint256[]",
          "name": "randomWords",
          "type": "uint256[]"
        }
      ],
      "name": "RequestFulfilled",
      "type": "event"
    },
    {
      "anonymous": false,
      "inputs": [
        {
          "indexed": false,
          "internalType": "uint256",
          "name": "requestId",
          "type": "uint256"
        },
        {
          "indexed": false,
          "internalType": "uint32",
          "name": "numWords",
          "type": "uint32"
        }
      ],
      "name": "RequestSent",
      "type": "event"
    },
    {
      "anonymous": false,
      "inputs": [
        {
          "indexed": true,
          "internalType": "bytes32",
          "name": "role",
          "type": "bytes32"
        },
        {
          "indexed": true,
          "internalType": "bytes32",
          "name": "previousAdminRole",
          "type": "bytes32"
        },
        {
          "indexed": true,
          "internalType": "bytes32",
          "name": "newAdminRole",
          "type": "bytes32"
        }
      ],
      "name": "RoleAdminChanged",
      "type": "event"
    },
    {
      "anonymous": false,
      "inputs": [
        {
          "indexed": true,
          "internalType": "bytes32",
          "name": "role",
          "type": "bytes32"
        },
        {
          "indexed": true,
          "internalType": "address",
          "name": "account",
          "type": "address"
        },
        {
          "indexed": true,
          "internalType": "address",
          "name": "sender",
          "type": "address"
        }
      ],
      "name": "RoleGranted",
      "type": "event"
    },
    {
      "anonymous": false,
      "inputs": [
        {
          "indexed": true,
          "internalType": "bytes32",
          "name": "role",
          "type": "bytes32"
        },
        {
          "indexed": true,
          "internalType": "address",
          "name": "account",
          "type": "address"
        },
        {
          "indexed": true,
          "internalType": "address",
          "name": "sender",
          "type": "address"
        }
      ],
      "name": "RoleRevoked",
      "type": "event"
    },
    {
      "anonymous": false,
      "inputs": [
        {
          "indexed": true,
          "internalType": "address",
          "name": "from",
          "type": "address"
        },
        {
          "indexed": true,
          "internalType": "address",
          "name": "to",
          "type": "address"
        },
        {
          "indexed": false,
          "internalType": "uint256",
          "name": "value",
          "type": "uint256"
        }
      ],
      "name": "Transfer",
      "type": "event"
    },
    {
      "anonymous": false,
      "inputs": [
        {
          "indexed": true,
          "internalType": "address",
          "name": "user",
          "type": "address"
        },
        {
          "indexed": false,
          "internalType": "uint256",
          "name": "amount",
          "type": "uint256"
        }
      ],
      "name": "_claim",
      "type": "event"
    },
    {
      "anonymous": false,
      "inputs": [
        {
          "indexed": true,
          "internalType": "address",
          "name": "user",
          "type": "address"
        },
        {
          "indexed": false,
          "internalType": "uint256",
          "name": "amount",
          "type": "uint256"
        }
      ],
      "name": "_claimPresale",
      "type": "event"
    },
    {
      "anonymous": false,
      "inputs": [
        {
          "indexed": true,
          "internalType": "address",
          "name": "user",
          "type": "address"
        },
        {
          "indexed": false,
          "internalType": "uint256",
          "name": "amount",
          "type": "uint256"
        }
      ],
      "name": "_depositETH",
      "type": "event"
    },
    {
      "inputs": [],
      "name": "ADMIN_ROLE",
      "outputs": [
        {
          "internalType": "bytes32",
          "name": "",
          "type": "bytes32"
        }
      ],
      "stateMutability": "view",
      "type": "function"
    },
    {
      "inputs": [],
      "name": "DEFAULT_ADMIN_ROLE",
      "outputs": [
        {
          "internalType": "bytes32",
          "name": "",
          "type": "bytes32"
        }
      ],
      "stateMutability": "view",
      "type": "function"
    },
    {
      "inputs": [],
      "name": "MarketingWallet",
      "outputs": [
        {
          "internalType": "address",
          "name": "",
          "type": "address"
        }
      ],
      "stateMutability": "view",
      "type": "function"
    },
    {
      "inputs": [],
      "name": "_maxWalletSize",
      "outputs": [
        {
          "internalType": "uint256",
          "name": "",
          "type": "uint256"
        }
      ],
      "stateMutability": "view",
      "type": "function"
    },
    {
      "inputs": [
        {
          "internalType": "address",
          "name": "holder",
          "type": "address"
        },
        {
          "internalType": "address",
          "name": "spender",
          "type": "address"
        }
      ],
      "name": "allowance",
      "outputs": [
        {
          "internalType": "uint256",
          "name": "",
          "type": "uint256"
        }
      ],
      "stateMutability": "view",
      "type": "function"
    },
    {
      "inputs": [],
      "name": "amountOfAllInfection",
      "outputs": [
        {
          "internalType": "uint256",
          "name": "",
          "type": "uint256"
        }
      ],
      "stateMutability": "view",
      "type": "function"
    },
    {
      "inputs": [
        {
          "internalType": "address",
          "name": "",
          "type": "address"
        }
      ],
      "name": "amountOfInfection",
      "outputs": [
        {
          "internalType": "uint256",
          "name": "",
          "type": "uint256"
        }
      ],
      "stateMutability": "view",
      "type": "function"
    },
    {
      "inputs": [
        {
          "internalType": "address",
          "name": "spender",
          "type": "address"
        },
        {
          "internalType": "uint256",
          "name": "amount",
          "type": "uint256"
        }
      ],
      "name": "approve",
      "outputs": [
        {
          "internalType": "bool",
          "name": "",
          "type": "bool"
        }
      ],
      "stateMutability": "nonpayable",
      "type": "function"
    },
    {
      "inputs": [
        {
          "internalType": "address",
          "name": "spender",
          "type": "address"
        }
      ],
      "name": "approveMax",
      "outputs": [
        {
          "internalType": "bool",
          "name": "",
          "type": "bool"
        }
      ],
      "stateMutability": "nonpayable",
      "type": "function"
    },
    {
      "inputs": [],
      "name": "autoLiquidityReceiver",
      "outputs": [
        {
          "internalType": "address",
          "name": "",
          "type": "address"
        }
      ],
      "stateMutability": "view",
      "type": "function"
    },
    {
      "inputs": [
        {
          "internalType": "address",
          "name": "account",
          "type": "address"
        }
      ],
      "name": "balanceOf",
      "outputs": [
        {
          "internalType": "uint256",
          "name": "",
          "type": "uint256"
        }
      ],
      "stateMutability": "view",
      "type": "function"
    },
    {
      "inputs": [],
      "name": "buyCapsule",
      "outputs": [],
      "stateMutability": "nonpayable",
      "type": "function"
    },
    {
      "inputs": [],
      "name": "capsuleCount",
      "outputs": [
        {
          "internalType": "uint256",
          "name": "",
          "type": "uint256"
        }
      ],
      "stateMutability": "view",
      "type": "function"
    },
    {
      "inputs": [],
      "name": "capsuleCurrentCount",
      "outputs": [
        {
          "internalType": "uint256",
          "name": "",
          "type": "uint256"
        }
      ],
      "stateMutability": "view",
      "type": "function"
    },
    {
      "inputs": [],
      "name": "capsulePrice",
      "outputs": [
        {
          "internalType": "uint256",
          "name": "",
          "type": "uint256"
        }
      ],
      "stateMutability": "view",
      "type": "function"
    },
    {
      "inputs": [],
      "name": "claim",
      "outputs": [],
      "stateMutability": "nonpayable",
      "type": "function"
    },
    {
      "inputs": [],
      "name": "decimals",
      "outputs": [
        {
          "internalType": "uint8",
          "name": "",
          "type": "uint8"
        }
      ],
      "stateMutability": "pure",
      "type": "function"
    },
    {
      "inputs": [],
      "name": "endGame",
      "outputs": [],
      "stateMutability": "nonpayable",
      "type": "function"
    },
    {
      "inputs": [],
      "name": "epochId",
      "outputs": [
        {
          "internalType": "uint256",
          "name": "",
          "type": "uint256"
        }
      ],
      "stateMutability": "view",
      "type": "function"
    },
    {
      "inputs": [
        {
          "internalType": "uint256",
          "name": "",
          "type": "uint256"
        }
      ],
      "name": "epochs",
      "outputs": [
        {
          "internalType": "uint256",
          "name": "id",
          "type": "uint256"
        },
        {
          "internalType": "uint256",
          "name": "startTime",
          "type": "uint256"
        },
        {
          "internalType": "uint256",
          "name": "endTime",
          "type": "uint256"
        }
      ],
      "stateMutability": "view",
      "type": "function"
    },
    {
      "inputs": [],
      "name": "getBestInfectors",
      "outputs": [
        {
          "internalType": "address[5]",
          "name": "",
          "type": "address[5]"
        }
      ],
      "stateMutability": "view",
      "type": "function"
    },
    {
      "inputs": [],
      "name": "getGotLuckyVaccine",
      "outputs": [
        {
          "internalType": "address[]",
          "name": "",
          "type": "address[]"
        }
      ],
      "stateMutability": "view",
      "type": "function"
    },
    {
      "inputs": [
        {
          "internalType": "address",
          "name": "user",
          "type": "address"
        }
      ],
      "name": "getHasOpenedCapsule",
      "outputs": [
        {
          "internalType": "bool",
          "name": "",
          "type": "bool"
        }
      ],
      "stateMutability": "view",
      "type": "function"
    },
    {
      "inputs": [
        {
          "internalType": "address",
          "name": "user",
          "type": "address"
        }
      ],
      "name": "getHasUpgrade",
      "outputs": [
        {
          "internalType": "bool",
          "name": "",
          "type": "bool"
        }
      ],
      "stateMutability": "view",
      "type": "function"
    },
    {
      "inputs": [
        {
          "internalType": "address",
          "name": "user",
          "type": "address"
        }
      ],
      "name": "getIsBuyer",
      "outputs": [
        {
          "internalType": "bool",
          "name": "",
          "type": "bool"
        }
      ],
      "stateMutability": "view",
      "type": "function"
    },
    {
      "inputs": [
        {
          "internalType": "address",
          "name": "user",
          "type": "address"
        }
      ],
      "name": "getRequestFullfilled",
      "outputs": [
        {
          "internalType": "bool",
          "name": "",
          "type": "bool"
        }
      ],
      "stateMutability": "view",
      "type": "function"
    },
    {
      "inputs": [
        {
          "internalType": "bytes32",
          "name": "role",
          "type": "bytes32"
        }
      ],
      "name": "getRoleAdmin",
      "outputs": [
        {
          "internalType": "bytes32",
          "name": "",
          "type": "bytes32"
        }
      ],
      "stateMutability": "view",
      "type": "function"
    },
    {
      "inputs": [
        {
          "internalType": "bytes32",
          "name": "role",
          "type": "bytes32"
        },
        {
          "internalType": "address",
          "name": "account",
          "type": "address"
        }
      ],
      "name": "grantRole",
      "outputs": [],
      "stateMutability": "nonpayable",
      "type": "function"
    },
    {
      "inputs": [
        {
          "internalType": "bytes32",
          "name": "role",
          "type": "bytes32"
        },
        {
          "internalType": "address",
          "name": "account",
          "type": "address"
        }
      ],
      "name": "hasRole",
      "outputs": [
        {
          "internalType": "bool",
          "name": "",
          "type": "bool"
        }
      ],
      "stateMutability": "view",
      "type": "function"
    },
    {
      "inputs": [
        {
          "internalType": "address",
          "name": "_toInfect",
          "type": "address"
        }
      ],
      "name": "infect",
      "outputs": [],
      "stateMutability": "nonpayable",
      "type": "function"
    },
    {
      "inputs": [
        {
          "internalType": "address[]",
          "name": "_toInfect",
          "type": "address[]"
        }
      ],
      "name": "infectOG",
      "outputs": [],
      "stateMutability": "nonpayable",
      "type": "function"
    },
    {
      "inputs": [
        {
          "internalType": "address",
          "name": "",
          "type": "address"
        }
      ],
      "name": "infected",
      "outputs": [
        {
          "internalType": "bool",
          "name": "",
          "type": "bool"
        }
      ],
      "stateMutability": "view",
      "type": "function"
    },
    {
      "inputs": [
        {
          "internalType": "address",
          "name": "",
          "type": "address"
        }
      ],
      "name": "infecter",
      "outputs": [
        {
          "internalType": "address",
          "name": "",
          "type": "address"
        }
      ],
      "stateMutability": "view",
      "type": "function"
    },
    {
      "inputs": [],
      "name": "isGameOver",
      "outputs": [
        {
          "internalType": "bool",
          "name": "",
          "type": "bool"
        }
      ],
      "stateMutability": "view",
      "type": "function"
    },
    {
      "inputs": [],
      "name": "isGameStarted",
      "outputs": [
        {
          "internalType": "bool",
          "name": "",
          "type": "bool"
        }
      ],
      "stateMutability": "view",
      "type": "function"
    },
    {
      "inputs": [],
      "name": "isTradingEnabled",
      "outputs": [
        {
          "internalType": "bool",
          "name": "",
          "type": "bool"
        }
      ],
      "stateMutability": "view",
      "type": "function"
    },
    {
      "inputs": [],
      "name": "lastRequestId",
      "outputs": [
        {
          "internalType": "uint256",
          "name": "",
          "type": "uint256"
        }
      ],
      "stateMutability": "view",
      "type": "function"
    },
    {
      "inputs": [],
      "name": "name",
      "outputs": [
        {
          "internalType": "string",
          "name": "",
          "type": "string"
        }
      ],
      "stateMutability": "view",
      "type": "function"
    },
    {
      "inputs": [
        {
          "internalType": "address",
          "name": "user",
          "type": "address"
        }
      ],
      "name": "openCapsule",
      "outputs": [],
      "stateMutability": "nonpayable",
      "type": "function"
    },
    {
      "inputs": [],
      "name": "owner",
      "outputs": [
        {
          "internalType": "address",
          "name": "",
          "type": "address"
        }
      ],
      "stateMutability": "view",
      "type": "function"
    },
    {
      "inputs": [],
      "name": "pair",
      "outputs": [
        {
          "internalType": "address",
          "name": "",
          "type": "address"
        }
      ],
      "stateMutability": "view",
      "type": "function"
    },
    {
      "inputs": [
        {
          "internalType": "address",
          "name": "",
          "type": "address"
        }
      ],
      "name": "pendingRewards",
      "outputs": [
        {
          "internalType": "uint256",
          "name": "",
          "type": "uint256"
        }
      ],
      "stateMutability": "view",
      "type": "function"
    },
    {
      "inputs": [
        {
          "internalType": "uint256",
          "name": "requestId",
          "type": "uint256"
        },
        {
          "internalType": "uint256[]",
          "name": "randomWords",
          "type": "uint256[]"
        }
      ],
      "name": "rawFulfillRandomWords",
      "outputs": [],
      "stateMutability": "nonpayable",
      "type": "function"
    },
    {
      "inputs": [],
      "name": "renounceOwnership",
      "outputs": [],
      "stateMutability": "nonpayable",
      "type": "function"
    },
    {
      "inputs": [
        {
          "internalType": "bytes32",
          "name": "role",
          "type": "bytes32"
        },
        {
          "internalType": "address",
          "name": "account",
          "type": "address"
        }
      ],
      "name": "renounceRole",
      "outputs": [],
      "stateMutability": "nonpayable",
      "type": "function"
    },
    {
      "inputs": [
        {
          "internalType": "uint256",
          "name": "",
          "type": "uint256"
        }
      ],
      "name": "requestIds",
      "outputs": [
        {
          "internalType": "uint256",
          "name": "",
          "type": "uint256"
        }
      ],
      "stateMutability": "view",
      "type": "function"
    },
    {
      "inputs": [
        {
          "internalType": "bytes32",
          "name": "role",
          "type": "bytes32"
        },
        {
          "internalType": "address",
          "name": "account",
          "type": "address"
        }
      ],
      "name": "revokeRole",
      "outputs": [],
      "stateMutability": "nonpayable",
      "type": "function"
    },
    {
      "inputs": [],
      "name": "rewardPool",
      "outputs": [
        {
          "internalType": "contract RewardPool",
          "name": "",
          "type": "address"
        }
      ],
      "stateMutability": "view",
      "type": "function"
    },
    {
      "inputs": [],
      "name": "router",
      "outputs": [
        {
          "internalType": "contract IUniswapV2Router02",
          "name": "",
          "type": "address"
        }
      ],
      "stateMutability": "view",
      "type": "function"
    },
    {
      "inputs": [
        {
          "internalType": "address",
          "name": "_MarketingWallet",
          "type": "address"
        }
      ],
      "name": "setFeesWallet",
      "outputs": [],
      "stateMutability": "nonpayable",
      "type": "function"
    },
    {
      "inputs": [
        {
          "internalType": "address",
          "name": "holder",
          "type": "address"
        },
        {
          "internalType": "bool",
          "name": "exempt",
          "type": "bool"
        }
      ],
      "name": "setIsFeeExempt",
      "outputs": [],
      "stateMutability": "nonpayable",
      "type": "function"
    },
    {
      "inputs": [],
      "name": "setIsTradingEnabled",
      "outputs": [],
      "stateMutability": "nonpayable",
      "type": "function"
    },
    {
      "inputs": [
        {
          "internalType": "address",
          "name": "holder",
          "type": "address"
        },
        {
          "internalType": "bool",
          "name": "exempt",
          "type": "bool"
        }
      ],
      "name": "setIsWalletLimitExempt",
      "outputs": [],
      "stateMutability": "nonpayable",
      "type": "function"
    },
    {
      "inputs": [],
      "name": "setMaxWallet",
      "outputs": [],
      "stateMutability": "nonpayable",
      "type": "function"
    },
    {
      "inputs": [
        {
          "internalType": "uint256",
          "name": "_range",
          "type": "uint256"
        }
      ],
      "name": "setProbabilityMaxRange",
      "outputs": [],
      "stateMutability": "nonpayable",
      "type": "function"
    },
    {
      "inputs": [
        {
          "internalType": "uint256",
          "name": "_amount",
          "type": "uint256"
        }
      ],
      "name": "setSpecialVaccineSupply",
      "outputs": [],
      "stateMutability": "nonpayable",
      "type": "function"
    },
    {
      "inputs": [
        {
          "internalType": "bool",
          "name": "_enabled",
          "type": "bool"
        },
        {
          "internalType": "uint256",
          "name": "_amount",
          "type": "uint256"
        }
      ],
      "name": "setSwapBackSettings",
      "outputs": [],
      "stateMutability": "nonpayable",
      "type": "function"
    },
    {
      "inputs": [
        {
          "internalType": "address",
          "name": "pairaddr",
          "type": "address"
        }
      ],
      "name": "setSwapPair",
      "outputs": [],
      "stateMutability": "nonpayable",
      "type": "function"
    },
    {
      "inputs": [],
      "name": "startNewEpoch",
      "outputs": [],
      "stateMutability": "nonpayable",
      "type": "function"
    },
    {
      "inputs": [
        {
          "internalType": "bytes4",
          "name": "interfaceId",
          "type": "bytes4"
        }
      ],
      "name": "supportsInterface",
      "outputs": [
        {
          "internalType": "bool",
          "name": "",
          "type": "bool"
        }
      ],
      "stateMutability": "view",
      "type": "function"
    },
    {
      "inputs": [],
      "name": "swapEnabled",
      "outputs": [
        {
          "internalType": "bool",
          "name": "",
          "type": "bool"
        }
      ],
      "stateMutability": "view",
      "type": "function"
    },
    {
      "inputs": [],
      "name": "swapThreshold",
      "outputs": [
        {
          "internalType": "uint256",
          "name": "",
          "type": "uint256"
        }
      ],
      "stateMutability": "view",
      "type": "function"
    },
    {
      "inputs": [],
      "name": "symbol",
      "outputs": [
        {
          "internalType": "string",
          "name": "",
          "type": "string"
        }
      ],
      "stateMutability": "view",
      "type": "function"
    },
    {
      "inputs": [],
      "name": "totalAllRewards",
      "outputs": [
        {
          "internalType": "uint256",
          "name": "",
          "type": "uint256"
        }
      ],
      "stateMutability": "view",
      "type": "function"
    },
    {
      "inputs": [
        {
          "internalType": "address",
          "name": "",
          "type": "address"
        }
      ],
      "name": "totalRewards",
      "outputs": [
        {
          "internalType": "uint256",
          "name": "",
          "type": "uint256"
        }
      ],
      "stateMutability": "view",
      "type": "function"
    },
    {
      "inputs": [],
      "name": "totalSupply",
      "outputs": [
        {
          "internalType": "uint256",
          "name": "",
          "type": "uint256"
        }
      ],
      "stateMutability": "view",
      "type": "function"
    },
    {
      "inputs": [
        {
          "internalType": "address",
          "name": "recipient",
          "type": "address"
        },
        {
          "internalType": "uint256",
          "name": "amount",
          "type": "uint256"
        }
      ],
      "name": "transfer",
      "outputs": [
        {
          "internalType": "bool",
          "name": "",
          "type": "bool"
        }
      ],
      "stateMutability": "nonpayable",
      "type": "function"
    },
    {
      "inputs": [
        {
          "internalType": "address",
          "name": "sender",
          "type": "address"
        },
        {
          "internalType": "address",
          "name": "recipient",
          "type": "address"
        },
        {
          "internalType": "uint256",
          "name": "amount",
          "type": "uint256"
        }
      ],
      "name": "transferFrom",
      "outputs": [
        {
          "internalType": "bool",
          "name": "",
          "type": "bool"
        }
      ],
      "stateMutability": "nonpayable",
      "type": "function"
    },
    {
      "inputs": [
        {
          "internalType": "address",
          "name": "newOwner",
          "type": "address"
        }
      ],
      "name": "transferOwnership",
      "outputs": [],
      "stateMutability": "nonpayable",
      "type": "function"
    },
    {
      "inputs": [],
      "name": "upgradeVaccine",
      "outputs": [],
      "stateMutability": "nonpayable",
      "type": "function"
    },
    {
      "inputs": [
        {
          "internalType": "address",
          "name": "",
          "type": "address"
        }
      ],
      "name": "userCurrentVaccine",
      "outputs": [
        {
          "internalType": "uint256",
          "name": "",
          "type": "uint256"
        }
      ],
      "stateMutability": "view",
      "type": "function"
    },
    {
      "inputs": [
        {
          "internalType": "address",
          "name": "",
          "type": "address"
        }
      ],
      "name": "userHasBoughtVaccine",
      "outputs": [
        {
          "internalType": "bool",
          "name": "",
          "type": "bool"
        }
      ],
      "stateMutability": "view",
      "type": "function"
    },
    {
      "inputs": [],
      "name": "vaccineFourSupply",
      "outputs": [
        {
          "internalType": "uint256",
          "name": "",
          "type": "uint256"
        }
      ],
      "stateMutability": "view",
      "type": "function"
    },
    {
      "stateMutability": "payable",
      "type": "receive"
    }
  ],
  "bytecode": "0x60a06040526040518060400160405280600a81526020017f534152532d434f562d3200000000000000000000000000000000000000000000815250600390816200004a919062001439565b506040518060400160405280600581526020017f434f5649440000000000000000000000000000000000000000000000000000008152506004908162000091919062001439565b506012600a620000a29190620016b0565b633b9aca00620000b3919062001701565b60055569d3c21bcecceda10000006006556103e8600a600554620000d8919062001701565b620000e491906200177b565b600755600654610258620000f9919062001701565b600c5560c8600d5560065461038462000113919062001701565b600e5561012c600f55733e98da13e184ea1467639bf642f804144539694d601160006101000a81548173ffffffffffffffffffffffffffffffffffffffff021916908373ffffffffffffffffffffffffffffffffffffffff160217905550732ca8e0c643bde4c2e08ab1fa0da3401adad7734d601260006101000a81548173ffffffffffffffffffffffffffffffffffffffff021916908373ffffffffffffffffffffffffffffffffffffffff160217905550601260009054906101000a900473ffffffffffffffffffffffffffffffffffffffff16601360006101000a81548173ffffffffffffffffffffffffffffffffffffffff021916908373ffffffffffffffffffffffffffffffffffffffff1602179055506137f3601360146101000a81548167ffffffffffffffff021916908367ffffffffffffffff1602179055507f79d3d8832d904592c0bf9818b621522c988bb8b0c05cdc3b15aea1b6e8db0c1560001b601655620186a0601760006101000a81548163ffffffff021916908363ffffffff1602179055506003601760046101000a81548161ffff021916908361ffff1602179055506001601760066101000a81548163ffffffff021916908363ffffffff1602179055506000601a60146101000a81548160ff0219169083151502179055506000601a60156101000a81548160ff02191690831515021790555060036103e86005546200032991906200177b565b62000335919062001701565b601b556064602355600060275560006029556000602a556934f086f3b33b68400000602b556000602c556000602d556000602e556000602f556000603055600060315560006032556000603355600a60345560065460e562000398919062001701565b603b55600654610165620003ad919062001701565b603c55600654610202620003c2919062001701565b603d556006546102bc620003d7919062001701565b603e55600654610392620003ec919062001701565b603f5560065461048562000401919062001701565b6040556000604160006101000a81548160ff0219169083151502179055506000604160016101000a81548160ff0219169083151502179055503480156200044757600080fd5b50601260009054906101000a900473ffffffffffffffffffffffffffffffffffffffff166200048b6200047f62000f7260201b60201c565b62000f7a60201b60201c565b8073ffffffffffffffffffffffffffffffffffffffff1660808173ffffffffffffffffffffffffffffffffffffffff16815250505060018081905550737a250d5630b4cf539739df2c5dacb4c659f2488d601960006101000a81548173ffffffffffffffffffffffffffffffffffffffff021916908373ffffffffffffffffffffffffffffffffffffffff160217905550601960009054906101000a900473ffffffffffffffffffffffffffffffffffffffff1673ffffffffffffffffffffffffffffffffffffffff1663c45a01556040518163ffffffff1660e01b8152600401602060405180830381865afa1580156200058a573d6000803e3d6000fd5b505050506040513d601f19601f82011682018060405250810190620005b091906200181d565b73ffffffffffffffffffffffffffffffffffffffff1663c9c65396601960009054906101000a900473ffffffffffffffffffffffffffffffffffffffff1673ffffffffffffffffffffffffffffffffffffffff1663ad5c46486040518163ffffffff1660e01b8152600401602060405180830381865afa15801562000639573d6000803e3d6000fd5b505050506040513d601f19601f820116820180604052508101906200065f91906200181d565b306040518363ffffffff1660e01b81526004016200067f92919062001860565b6020604051808303816000875af11580156200069f573d6000803e3d6000fd5b505050506040513d601f19601f82011682018060405250810190620006c591906200181d565b601a60006101000a81548173ffffffffffffffffffffffffffffffffffffffff021916908373ffffffffffffffffffffffffffffffffffffffff1602179055507fffffffffffffffffffffffffffffffffffffffffffffffffffffffffffffffff600960003073ffffffffffffffffffffffffffffffffffffffff1673ffffffffffffffffffffffffffffffffffffffff1681526020019081526020016000206000601960009054906101000a900473ffffffffffffffffffffffffffffffffffffffff1673ffffffffffffffffffffffffffffffffffffffff1673ffffffffffffffffffffffffffffffffffffffff16815260200190815260200160002081905550620007dd6000801b336200103e60201b60201c565b6200080f7fa49807205ce4d355092ef5a8a18f56e8913cf4a201fbe287825b095693c21775336200103e60201b60201c565b306040516200081e90620011b1565b6200082a91906200188d565b604051809103906000f08015801562000847573d6000803e3d6000fd5b50602260006101000a81548173ffffffffffffffffffffffffffffffffffffffff021916908373ffffffffffffffffffffffffffffffffffffffff1602179055506001600a60003373ffffffffffffffffffffffffffffffffffffffff1673ffffffffffffffffffffffffffffffffffffffff16815260200190815260200160002060006101000a81548160ff0219169083151502179055506001600a60003073ffffffffffffffffffffffffffffffffffffffff1673ffffffffffffffffffffffffffffffffffffffff16815260200190815260200160002060006101000a81548160ff0219169083151502179055506001600a6000601160009054906101000a900473ffffffffffffffffffffffffffffffffffffffff1673ffffffffffffffffffffffffffffffffffffffff1673ffffffffffffffffffffffffffffffffffffffff16815260200190815260200160002060006101000a81548160ff0219169083151502179055506001600b60003373ffffffffffffffffffffffffffffffffffffffff1673ffffffffffffffffffffffffffffffffffffffff16815260200190815260200160002060006101000a81548160ff0219169083151502179055506001600b6000601160009054906101000a900473ffffffffffffffffffffffffffffffffffffffff1673ffffffffffffffffffffffffffffffffffffffff1673ffffffffffffffffffffffffffffffffffffffff16815260200190815260200160002060006101000a81548160ff0219169083151502179055506001600b600061dead73ffffffffffffffffffffffffffffffffffffffff1673ffffffffffffffffffffffffffffffffffffffff16815260200190815260200160002060006101000a81548160ff0219169083151502179055506001600b60003073ffffffffffffffffffffffffffffffffffffffff1673ffffffffffffffffffffffffffffffffffffffff16815260200190815260200160002060006101000a81548160ff0219169083151502179055506001600b6000601a60009054906101000a900473ffffffffffffffffffffffffffffffffffffffff1673ffffffffffffffffffffffffffffffffffffffff1673ffffffffffffffffffffffffffffffffffffffff16815260200190815260200160002060006101000a81548160ff0219169083151502179055506001600b6000737a250d5630b4cf539739df2c5dacb4c659f2488d73ffffffffffffffffffffffffffffffffffffffff1673ffffffffffffffffffffffffffffffffffffffff16815260200190815260200160002060006101000a81548160ff0219169083151502179055506001601d60003373ffffffffffffffffffffffffffffffffffffffff1673ffffffffffffffffffffffffffffffffffffffff16815260200190815260200160002060006101000a81548160ff0219169083151502179055506001601d6000601160009054906101000a900473ffffffffffffffffffffffffffffffffffffffff1673ffffffffffffffffffffffffffffffffffffffff1673ffffffffffffffffffffffffffffffffffffffff16815260200190815260200160002060006101000a81548160ff0219169083151502179055506001601d600061dead73ffffffffffffffffffffffffffffffffffffffff1673ffffffffffffffffffffffffffffffffffffffff16815260200190815260200160002060006101000a81548160ff0219169083151502179055506001601d60003073ffffffffffffffffffffffffffffffffffffffff1673ffffffffffffffffffffffffffffffffffffffff16815260200190815260200160002060006101000a81548160ff0219169083151502179055506001601d6000601a60009054906101000a900473ffffffffffffffffffffffffffffffffffffffff1673ffffffffffffffffffffffffffffffffffffffff1673ffffffffffffffffffffffffffffffffffffffff16815260200190815260200160002060006101000a81548160ff0219169083151502179055506001601d6000737a250d5630b4cf539739df2c5dacb4c659f2488d73ffffffffffffffffffffffffffffffffffffffff1673ffffffffffffffffffffffffffffffffffffffff16815260200190815260200160002060006101000a81548160ff02191690831515021790555060648060055462000e98919062001701565b62000ea491906200177b565b600860003373ffffffffffffffffffffffffffffffffffffffff1673ffffffffffffffffffffffffffffffffffffffff168152602001908152602001600020819055503373ffffffffffffffffffffffffffffffffffffffff16600073ffffffffffffffffffffffffffffffffffffffff167fddf252ad1be2c89b69c2b068fc378daa952ba7f163c4a11628f55a4df523b3ef60648060055462000f49919062001701565b62000f5591906200177b565b60405162000f649190620018bb565b60405180910390a3620018d8565b600033905090565b60008060009054906101000a900473ffffffffffffffffffffffffffffffffffffffff169050816000806101000a81548173ffffffffffffffffffffffffffffffffffffffff021916908373ffffffffffffffffffffffffffffffffffffffff1602179055508173ffffffffffffffffffffffffffffffffffffffff168173ffffffffffffffffffffffffffffffffffffffff167f8be0079c531659141344cd1fd0a4f28419497f9722a3daafe3b4186f6b6457e060405160405180910390a35050565b6200105082826200105460201b60201c565b5050565b6200106682826200114660201b60201c565b620011425760016002600084815260200190815260200160002060000160008373ffffffffffffffffffffffffffffffffffffffff1673ffffffffffffffffffffffffffffffffffffffff16815260200190815260200160002060006101000a81548160ff021916908315150217905550620010e762000f7260201b60201c565b73ffffffffffffffffffffffffffffffffffffffff168173ffffffffffffffffffffffffffffffffffffffff16837f2f8788117e7eff1d82e926ec794901d17c78024a50270940304540a733656f0d60405160405180910390a45b5050565b60006002600084815260200190815260200160002060000160008373ffffffffffffffffffffffffffffffffffffffff1673ffffffffffffffffffffffffffffffffffffffff16815260200190815260200160002060009054906101000a900460ff16905092915050565b61134d806200af5c83390190565b600081519050919050565b7f4e487b7100000000000000000000000000000000000000000000000000000000600052604160045260246000fd5b7f4e487b7100000000000000000000000000000000000000000000000000000000600052602260045260246000fd5b600060028204905060018216806200124157607f821691505b602082108103620012575762001256620011f9565b5b50919050565b60008190508160005260206000209050919050565b60006020601f8301049050919050565b600082821b905092915050565b600060088302620012c17fffffffffffffffffffffffffffffffffffffffffffffffffffffffffffffffff8262001282565b620012cd868362001282565b95508019841693508086168417925050509392505050565b6000819050919050565b6000819050919050565b60006200131a620013146200130e84620012e5565b620012ef565b620012e5565b9050919050565b6000819050919050565b6200133683620012f9565b6200134e620013458262001321565b8484546200128f565b825550505050565b600090565b6200136562001356565b620013728184846200132b565b505050565b5b818110156200139a576200138e6000826200135b565b60018101905062001378565b5050565b601f821115620013e957620013b3816200125d565b620013be8462001272565b81016020851015620013ce578190505b620013e6620013dd8562001272565b83018262001377565b50505b505050565b600082821c905092915050565b60006200140e60001984600802620013ee565b1980831691505092915050565b6000620014298383620013fb565b9150826002028217905092915050565b6200144482620011bf565b67ffffffffffffffff81111562001460576200145f620011ca565b5b6200146c825462001228565b620014798282856200139e565b600060209050601f831160018114620014b157600084156200149c578287015190505b620014a885826200141b565b86555062001518565b601f198416620014c1866200125d565b60005b82811015620014eb57848901518255600182019150602085019450602081019050620014c4565b868310156200150b578489015162001507601f891682620013fb565b8355505b6001600288020188555050505b505050505050565b7f4e487b7100000000000000000000000000000000000000000000000000000000600052601160045260246000fd5b60008160011c9050919050565b6000808291508390505b6001851115620015ae5780860481111562001586576200158562001520565b5b6001851615620015965780820291505b8081029050620015a6856200154f565b945062001566565b94509492505050565b600082620015c957600190506200169c565b81620015d957600090506200169c565b8160018114620015f25760028114620015fd5762001633565b60019150506200169c565b60ff84111562001612576200161162001520565b5b8360020a9150848211156200162c576200162b62001520565b5b506200169c565b5060208310610133831016604e8410600b84101617156200166d5782820a90508381111562001667576200166662001520565b5b6200169c565b6200167c84848460016200155c565b9250905081840481111562001696576200169562001520565b5b81810290505b9392505050565b600060ff82169050919050565b6000620016bd82620012e5565b9150620016ca83620016a3565b9250620016f97fffffffffffffffffffffffffffffffffffffffffffffffffffffffffffffffff8484620015b7565b905092915050565b60006200170e82620012e5565b91506200171b83620012e5565b92508282026200172b81620012e5565b9150828204841483151762001745576200174462001520565b5b5092915050565b7f4e487b7100000000000000000000000000000000000000000000000000000000600052601260045260246000fd5b60006200178882620012e5565b91506200179583620012e5565b925082620017a857620017a76200174c565b5b828204905092915050565b600080fd5b600073ffffffffffffffffffffffffffffffffffffffff82169050919050565b6000620017e582620017b8565b9050919050565b620017f781620017d8565b81146200180357600080fd5b50565b6000815190506200181781620017ec565b92915050565b600060208284031215620018365762001835620017b3565b5b6000620018468482850162001806565b91505092915050565b6200185a81620017d8565b82525050565b60006040820190506200187760008301856200184f565b6200188660208301846200184f565b9392505050565b6000602082019050620018a460008301846200184f565b92915050565b620018b581620012e5565b82525050565b6000602082019050620018d26000830184620018aa565b92915050565b608051619661620018fb60003960008181611e4a0152611e9e01526196616000f3fe6080604052600436106104295760003560e01c806366666aa911610229578063aa9bbc0c1161012e578063d547741f116100b6578063f5415cbb1161007a578063f5415cbb14611063578063f887ea401461108c578063fc2a88c3146110b7578063fd39ef78146110e2578063fd6e28cf1461110b57610430565b8063d547741f14610f82578063dd62ed3e14610fab578063df20fd4914610fe8578063f25c7ea414611011578063f2fde38b1461103a57610430565b8063c3ec8897116100fd578063c3ec889714610ebf578063c6b61e4c14610eea578063ca33e64c14610f29578063d02c639414610f54578063d3a9ffc414610f6b57610430565b8063aa9bbc0c14610e01578063ab7573dd14610e2c578063c26d68f914610e69578063c315432a14610e9457610430565b80638c5799ce116101b157806395d89b411161018057806395d89b4114610d1a57806396eb64a914610d45578063a217fddf14610d6e578063a8aa1b3114610d99578063a9059cbb14610dc457610430565b80638c5799ce14610c4a5780638da5cb5b14610c875780638f9a55c014610cb257806391d1485414610cdd57610430565b806370a08231116101f857806370a0823114610b65578063715018a614610ba257806373a432bb14610bb957806375b238fc14610be25780638796ba8c14610c0d57610430565b806366666aa914610acd5780636789c92c14610af85780636cbc2ded14610b235780636ddd171314610b3a57610430565b806323b872dd1161032f57806343d4f92b116102b757806354d41b5b1161028657806354d41b5b146109c2578063571ac8b0146109ff5780635bc0446914610a3c578063636ee0db14610a67578063658d4b7f14610aa457610430565b806343d4f92b1461092c5780634726319f146109555780634e71d92d146109805780635119c9711461099757610430565b8063313ce567116102fe578063313ce5671461084757806331d7a2621461087257806336568abe146108af5780633aab0a62146108d85780633eca5343146108ef57610430565b806323b872dd14610779578063248a9ca3146107b65780632598cdb2146107f35780632f2ff15d1461081e57610430565b80630e04a7d8116103b2578063196228c011610381578063196228c0146106ce5780631bd8ebe1146106e55780631ce78ac8146107105780631fe543e3146107275780632198cf6c1461075057610430565b80630e04a7d8146105fe5780630f44e894146106295780631781e17c1461066657806318160ddd146106a357610430565b80630445b667116103f95780630445b6671461051557806305dc039414610540578063064a59d01461056b57806306fdde0314610596578063095ea7b3146105c157610430565b80627f27ae14610435578063014c58a31461045e57806301ffc9a71461049b57806302b2553e146104d857610430565b3661043057005b600080fd5b34801561044157600080fd5b5061045c6004803603810190610457919061725f565b611148565b005b34801561046a57600080fd5b506104856004803603810190610480919061725f565b61163c565b60405161049291906172a7565b60405180910390f35b3480156104a757600080fd5b506104c260048036038101906104bd919061731a565b6116a8565b6040516104cf91906172a7565b60405180910390f35b3480156104e457600080fd5b506104ff60048036038101906104fa919061725f565b611722565b60405161050c91906172a7565b60405180910390f35b34801561052157600080fd5b5061052a61178e565b6040516105379190617360565b60405180910390f35b34801561054c57600080fd5b50610555611794565b6040516105629190617360565b60405180910390f35b34801561057757600080fd5b5061058061179a565b60405161058d91906172a7565b60405180910390f35b3480156105a257600080fd5b506105ab6117ad565b6040516105b8919061740b565b60405180910390f35b3480156105cd57600080fd5b506105e860048036038101906105e39190617459565b61183f565b6040516105f591906172a7565b60405180910390f35b34801561060a57600080fd5b50610613611931565b60405161062091906172a7565b60405180910390f35b34801561063557600080fd5b50610650600480360381019061064b919061725f565b611944565b60405161065d9190617360565b60405180910390f35b34801561067257600080fd5b5061068d6004803603810190610688919061725f565b61195c565b60405161069a91906172a7565b60405180910390f35b3480156106af57600080fd5b506106b86119c8565b6040516106c59190617360565b60405180910390f35b3480156106da57600080fd5b506106e36119d2565b005b3480156106f157600080fd5b506106fa611de5565b6040516107079190617360565b60405180910390f35b34801561071c57600080fd5b50610725611deb565b005b34801561073357600080fd5b5061074e600480360381019061074991906175e1565b611e48565b005b34801561075c57600080fd5b5061077760048036038101906107729190617669565b611f08565b005b34801561078557600080fd5b506107a0600480360381019061079b91906176a9565b611f6b565b6040516107ad91906172a7565b60405180910390f35b3480156107c257600080fd5b506107dd60048036038101906107d89190617732565b6120ea565b6040516107ea919061776e565b60405180910390f35b3480156107ff57600080fd5b5061080861210a565b6040516108159190617798565b60405180910390f35b34801561082a57600080fd5b50610845600480360381019061084091906177b3565b612130565b005b34801561085357600080fd5b5061085c612151565b604051610869919061780f565b60405180910390f35b34801561087e57600080fd5b506108996004803603810190610894919061725f565b61215a565b6040516108a69190617360565b60405180910390f35b3480156108bb57600080fd5b506108d660048036038101906108d191906177b3565b612171565b005b3480156108e457600080fd5b506108ed6121f4565b005b3480156108fb57600080fd5b506109166004803603810190610911919061725f565b6122a0565b6040516109239190617798565b60405180910390f35b34801561093857600080fd5b50610953600480360381019061094e919061725f565b6122d3565b005b34801561096157600080fd5b5061096a612413565b6040516109779190617360565b60405180910390f35b34801561098c57600080fd5b50610995612419565b005b3480156109a357600080fd5b506109ac61273f565b6040516109b99190617360565b60405180910390f35b3480156109ce57600080fd5b506109e960048036038101906109e4919061725f565b612745565b6040516109f69190617360565b60405180910390f35b348015610a0b57600080fd5b50610a266004803603810190610a21919061725f565b61275d565b604051610a3391906172a7565b60405180910390f35b348015610a4857600080fd5b50610a51612790565b604051610a5e9190617360565b60405180910390f35b348015610a7357600080fd5b50610a8e6004803603810190610a89919061725f565b612796565b604051610a9b91906172a7565b60405180910390f35b348015610ab057600080fd5b50610acb6004803603810190610ac69190617669565b6127b6565b005b348015610ad957600080fd5b50610ae2612819565b604051610aef9190617889565b60405180910390f35b348015610b0457600080fd5b50610b0d61283f565b604051610b1a9190617962565b60405180910390f35b348015610b2f57600080fd5b50610b386128e3565b005b348015610b4657600080fd5b50610b4f6129bc565b604051610b5c91906172a7565b60405180910390f35b348015610b7157600080fd5b50610b8c6004803603810190610b87919061725f565b6129cf565b604051610b999190617360565b60405180910390f35b348015610bae57600080fd5b50610bb7612a18565b005b348015610bc557600080fd5b50610be06004803603810190610bdb919061725f565b612a2c565b005b348015610bee57600080fd5b50610bf7612af2565b604051610c04919061776e565b60405180910390f35b348015610c1957600080fd5b50610c346004803603810190610c2f9190617984565b612b16565b604051610c419190617360565b60405180910390f35b348015610c5657600080fd5b50610c716004803603810190610c6c919061725f565b612b3a565b604051610c7e91906172a7565b60405180910390f35b348015610c9357600080fd5b50610c9c612b5a565b604051610ca99190617798565b60405180910390f35b348015610cbe57600080fd5b50610cc7612b83565b604051610cd49190617360565b60405180910390f35b348015610ce957600080fd5b50610d046004803603810190610cff91906177b3565b612b89565b604051610d1191906172a7565b60405180910390f35b348015610d2657600080fd5b50610d2f612bf4565b604051610d3c919061740b565b60405180910390f35b348015610d5157600080fd5b50610d6c6004803603810190610d67919061725f565b612c86565b005b348015610d7a57600080fd5b50610d83612f50565b604051610d90919061776e565b60405180910390f35b348015610da557600080fd5b50610dae612f57565b604051610dbb9190617798565b60405180910390f35b348015610dd057600080fd5b50610deb6004803603810190610de69190617459565b612f7d565b604051610df891906172a7565b60405180910390f35b348015610e0d57600080fd5b50610e16612ffa565b604051610e239190617360565b60405180910390f35b348015610e3857600080fd5b50610e536004803603810190610e4e919061725f565b613000565b604051610e609190617360565b60405180910390f35b348015610e7557600080fd5b50610e7e613018565b604051610e8b9190617a35565b60405180910390f35b348015610ea057600080fd5b50610ea9613099565b604051610eb691906172a7565b60405180910390f35b348015610ecb57600080fd5b50610ed46130ac565b604051610ee19190617360565b60405180910390f35b348015610ef657600080fd5b50610f116004803603810190610f0c9190617984565b6130b2565b604051610f2093929190617a50565b60405180910390f35b348015610f3557600080fd5b50610f3e6130dc565b604051610f4b9190617798565b60405180910390f35b348015610f6057600080fd5b50610f69613102565b005b348015610f7757600080fd5b50610f80613115565b005b348015610f8e57600080fd5b50610fa96004803603810190610fa491906177b3565b613610565b005b348015610fb757600080fd5b50610fd26004803603810190610fcd9190617a87565b613631565b604051610fdf9190617360565b60405180910390f35b348015610ff457600080fd5b5061100f600480360381019061100a9190617ac7565b6136b8565b005b34801561101d57600080fd5b5061103860048036038101906110339190617984565b613729565b005b34801561104657600080fd5b50611061600480360381019061105c919061725f565b6137e1565b005b34801561106f57600080fd5b5061108a60048036038101906110859190617bca565b613864565b005b34801561109857600080fd5b506110a1613bbe565b6040516110ae9190617c34565b60405180910390f35b3480156110c357600080fd5b506110cc613be4565b6040516110d99190617360565b60405180910390f35b3480156110ee57600080fd5b5061110960048036038101906111049190617984565b613bea565b005b34801561111757600080fd5b50611132600480360381019061112d919061725f565b613c5d565b60405161113f91906172a7565b60405180910390f35b3373ffffffffffffffffffffffffffffffffffffffff168173ffffffffffffffffffffffffffffffffffffffff16146111b6576040517f08c379a00000000000000000000000000000000000000000000000000000000081526004016111ad90617c9b565b60405180910390fd5b426028600060275481526020019081526020016000206002015411611210576040517f08c379a000000000000000000000000000000000000000000000000000000000815260040161120790617d2d565b60405180910390fd5b600060286000602754815260200190815260200160002060070160003373ffffffffffffffffffffffffffffffffffffffff1673ffffffffffffffffffffffffffffffffffffffff16815260200190815260200160002054036112a8576040517f08c379a000000000000000000000000000000000000000000000000000000000815260040161129f90617dbf565b60405180910390fd5b6000151560286000602754815260200190815260200160002060050160003373ffffffffffffffffffffffffffffffffffffffff1673ffffffffffffffffffffffffffffffffffffffff16815260200190815260200160002060009054906101000a900460ff16151514611351576040517f08c379a000000000000000000000000000000000000000000000000000000000815260040161134890617e51565b60405180910390fd5b6001151560286000602754815260200190815260200160002060080160003373ffffffffffffffffffffffffffffffffffffffff1673ffffffffffffffffffffffffffffffffffffffff16815260200190815260200160002060009054906101000a900460ff161515146113fa576040517f08c379a00000000000000000000000000000000000000000000000000000000081526004016113f190617ee3565b60405180910390fd5b600061145a60286000602754815260200190815260200160002060070160003373ffffffffffffffffffffffffffffffffffffffff1673ffffffffffffffffffffffffffffffffffffffff16815260200190815260200160002054613cc9565b90506001811015801561146e575060288111155b156114b5576030600081548092919061148690617f32565b9190505550602c600081548092919061149e90617f32565b91905055506114b08260016000613e6b565b611638565b602981101580156114c75750604b8111155b1561150e57603160008154809291906114df90617f32565b9190505550602d60008154809291906114f790617f32565b91905055506115098260026000613e6b565b611637565b604c8110158015611520575060618111155b15611567576032600081548092919061153890617f32565b9190505550602e600081548092919061155090617f32565b91905055506115628260036000613e6b565b611636565b6062811015801561157a57506023548111155b15611635576033600081548092919061159290617f32565b9190505550602f60008154809291906115aa90617f32565b9190505550602860006027548152602001908152602001600020600901829080600181540180825580915050600190039060005260206000200160009091909190916101000a81548173ffffffffffffffffffffffffffffffffffffffff021916908373ffffffffffffffffffffffffffffffffffffffff16021790555061163482600180613e6b565b5b5b5b5b5050565b600060286000602754815260200190815260200160002060040160008373ffffffffffffffffffffffffffffffffffffffff1673ffffffffffffffffffffffffffffffffffffffff16815260200190815260200160002060009054906101000a900460ff169050919050565b60007f7965db0b000000000000000000000000000000000000000000000000000000007bffffffffffffffffffffffffffffffffffffffffffffffffffffffff1916827bffffffffffffffffffffffffffffffffffffffffffffffffffffffff1916148061171b575061171a8261407f565b5b9050919050565b600060286000602754815260200190815260200160002060050160008373ffffffffffffffffffffffffffffffffffffffff1673ffffffffffffffffffffffffffffffffffffffff16815260200190815260200160002060009054906101000a900460ff169050919050565b601b5481565b602a5481565b601a60149054906101000a900460ff1681565b6060600380546117bc90617fa9565b80601f01602080910402602001604051908101604052809291908181526020018280546117e890617fa9565b80156118355780601f1061180a57610100808354040283529160200191611835565b820191906000526020600020905b81548152906001019060200180831161181857829003601f168201915b5050505050905090565b600081600960003373ffffffffffffffffffffffffffffffffffffffff1673ffffffffffffffffffffffffffffffffffffffff16815260200190815260200160002060008573ffffffffffffffffffffffffffffffffffffffff1673ffffffffffffffffffffffffffffffffffffffff168152602001908152602001600020819055508273ffffffffffffffffffffffffffffffffffffffff163373ffffffffffffffffffffffffffffffffffffffff167f8c5be1e5ebec7d5bd14f71427d1e84f3dd0314c0f7b2291e5b200ac8c7c3b9258460405161191f9190617360565b60405180910390a36001905092915050565b604160019054906101000a900460ff1681565b60216020528060005260406000206000915090505481565b600060286000602754815260200190815260200160002060080160008373ffffffffffffffffffffffffffffffffffffffff1673ffffffffffffffffffffffffffffffffffffffff16815260200190815260200160002060009054906101000a900460ff169050919050565b6000600554905090565b60006103e86102ee602b546119e79190617fda565b6119f1919061804b565b90506000151560286000602754815260200190815260200160002060030160003373ffffffffffffffffffffffffffffffffffffffff1673ffffffffffffffffffffffffffffffffffffffff16815260200190815260200160002060009054906101000a900460ff16151514611a9c576040517f08c379a0000000000000000000000000000000000000000000000000000000008152600401611a93906180ee565b60405180910390fd5b6000151560286000602754815260200190815260200160002060040160003373ffffffffffffffffffffffffffffffffffffffff1673ffffffffffffffffffffffffffffffffffffffff16815260200190815260200160002060009054906101000a900460ff16151514611b45576040517f08c379a0000000000000000000000000000000000000000000000000000000008152600401611b3c90618180565b60405180910390fd5b6000602460003373ffffffffffffffffffffffffffffffffffffffff1673ffffffffffffffffffffffffffffffffffffffff16815260200190815260200160002054118015611bd357506003602460003373ffffffffffffffffffffffffffffffffffffffff1673ffffffffffffffffffffffffffffffffffffffff16815260200190815260200160002054105b611c12576040517f08c379a0000000000000000000000000000000000000000000000000000000008152600401611c0990618212565b60405180910390fd5b80611c1c336129cf565b1015611c5d576040517f08c379a0000000000000000000000000000000000000000000000000000000008152600401611c54906182a4565b60405180910390fd5b426028600060275481526020019081526020016000206002015411611cb7576040517f08c379a0000000000000000000000000000000000000000000000000000000008152600401611cae90617d2d565b60405180910390fd5b600160286000602754815260200190815260200160002060040160003373ffffffffffffffffffffffffffffffffffffffff1673ffffffffffffffffffffffffffffffffffffffff16815260200190815260200160002060006101000a81548160ff02191690831515021790555060006103e8603283611d379190617fda565b611d41919061804b565b90506000611d7d33602260009054906101000a900473ffffffffffffffffffffffffffffffffffffffff168486611d7891906182c4565b6140e9565b9050611d8a3330846140e9565b50602460003373ffffffffffffffffffffffffffffffffffffffff1673ffffffffffffffffffffffffffffffffffffffff1681526020019081526020016000206000815480929190611ddb90617f32565b9190505550505050565b60295481565b611df3614277565b6001601a60146101000a81548160ff0219169083151502179055506001601a60156101000a81548160ff021916908315150217905550601a60149054906101000a900460ff1615611e465742604a819055505b565b7f000000000000000000000000000000000000000000000000000000000000000073ffffffffffffffffffffffffffffffffffffffff163373ffffffffffffffffffffffffffffffffffffffff1614611efa57337f00000000000000000000000000000000000000000000000000000000000000006040517f1cf993f4000000000000000000000000000000000000000000000000000000008152600401611ef19291906182f8565b60405180910390fd5b611f0482826142f5565b5050565b611f10614277565b80600b60008473ffffffffffffffffffffffffffffffffffffffff1673ffffffffffffffffffffffffffffffffffffffff16815260200190815260200160002060006101000a81548160ff0219169083151502179055505050565b600081600960008673ffffffffffffffffffffffffffffffffffffffff1673ffffffffffffffffffffffffffffffffffffffff1681526020019081526020016000206000611fb76144a6565b73ffffffffffffffffffffffffffffffffffffffff1673ffffffffffffffffffffffffffffffffffffffff168152602001908152602001600020541015612033576040517f08c379a000000000000000000000000000000000000000000000000000000000815260040161202a90618393565b60405180910390fd5b61203e8484846144ae565b506120df8461204b6144a6565b84600960008973ffffffffffffffffffffffffffffffffffffffff1673ffffffffffffffffffffffffffffffffffffffff16815260200190815260200160002060006120956144a6565b73ffffffffffffffffffffffffffffffffffffffff1673ffffffffffffffffffffffffffffffffffffffff168152602001908152602001600020546120da91906182c4565b614aa9565b600190509392505050565b600060026000838152602001908152602001600020600101549050919050565b601160009054906101000a900473ffffffffffffffffffffffffffffffffffffffff1681565b612139826120ea565b61214281614c72565b61214c8383614c86565b505050565b60006012905090565b602080528060005260406000206000915090505481565b6121796144a6565b73ffffffffffffffffffffffffffffffffffffffff168173ffffffffffffffffffffffffffffffffffffffff16146121e6576040517f08c379a00000000000000000000000000000000000000000000000000000000081526004016121dd90618425565b60405180910390fd5b6121f08282614d67565b5050565b61221e7fa49807205ce4d355092ef5a8a18f56e8913cf4a201fbe287825b095693c2177533612b89565b61225d576040517f08c379a000000000000000000000000000000000000000000000000000000000815260040161225490617c9b565b60405180910390fd5b612265614e49565b7fa7ef457c4bdaa5cf9805314ebb0d85316230de6508df8ba03db8e27901cc147d6027546040516122969190617360565b60405180910390a1565b601e6020528060005260406000206000915054906101000a900473ffffffffffffffffffffffffffffffffffffffff1681565b6122db614277565b80601160006101000a81548173ffffffffffffffffffffffffffffffffffffffff021916908373ffffffffffffffffffffffffffffffffffffffff1602179055506001600a6000601160009054906101000a900473ffffffffffffffffffffffffffffffffffffffff1673ffffffffffffffffffffffffffffffffffffffff1673ffffffffffffffffffffffffffffffffffffffff16815260200190815260200160002060006101000a81548160ff0219169083151502179055506001600b6000601160009054906101000a900473ffffffffffffffffffffffffffffffffffffffff1673ffffffffffffffffffffffffffffffffffffffff1673ffffffffffffffffffffffffffffffffffffffff16815260200190815260200160002060006101000a81548160ff02191690831515021790555050565b60345481565b3273ffffffffffffffffffffffffffffffffffffffff163373ffffffffffffffffffffffffffffffffffffffff1614612487576040517f08c379a000000000000000000000000000000000000000000000000000000000815260040161247e90618491565b60405180910390fd5b6000602060003373ffffffffffffffffffffffffffffffffffffffff1673ffffffffffffffffffffffffffffffffffffffff1681526020019081526020016000205411612509576040517f08c379a0000000000000000000000000000000000000000000000000000000008152600401612500906184fd565b60405180910390fd5b6000602060003373ffffffffffffffffffffffffffffffffffffffff1673ffffffffffffffffffffffffffffffffffffffff168152602001908152602001600020549050600080602060003373ffffffffffffffffffffffffffffffffffffffff1673ffffffffffffffffffffffffffffffffffffffff1681526020019081526020016000208190555062015180604a546125a4919061851d565b4210156125d55760646019836125ba9190617fda565b6125c4919061804b565b905080826125d291906182c4565b91505b600081111561260d5761260b30602260009054906101000a900473ffffffffffffffffffffffffffffffffffffffff16836140e9565b505b600061261a3033856140e9565b90508061265c576040517f08c379a00000000000000000000000000000000000000000000000000000000081526004016126539061859d565b60405180910390fd5b82601f60003373ffffffffffffffffffffffffffffffffffffffff1673ffffffffffffffffffffffffffffffffffffffff16815260200190815260200160002060008282546126ab919061851d565b9250508190555082604360008282546126c4919061851d565b9250508190555082604260008282546126dd91906182c4565b925050819055506126ec615133565b3373ffffffffffffffffffffffffffffffffffffffff167f620fc7379f7c67f4289f23e24a7f28f721792b0e898e2af03581b2e73e604a53846040516127329190617360565b60405180910390a2505050565b60435481565b60246020528060005260406000206000915090505481565b6000612789827fffffffffffffffffffffffffffffffffffffffffffffffffffffffffffffffff61183f565b9050919050565b602b5481565b601d6020528060005260406000206000915054906101000a900460ff1681565b6127be614277565b80600a60008473ffffffffffffffffffffffffffffffffffffffff1673ffffffffffffffffffffffffffffffffffffffff16815260200190815260200160002060006101000a81548160ff0219169083151502179055505050565b602260009054906101000a900473ffffffffffffffffffffffffffffffffffffffff1681565b60606028600060275481526020019081526020016000206009018054806020026020016040519081016040528092919081815260200182805480156128d957602002820191906000526020600020905b8160009054906101000a900473ffffffffffffffffffffffffffffffffffffffff1673ffffffffffffffffffffffffffffffffffffffff168152602001906001019080831161288f575b5050505050905090565b61290d7fa49807205ce4d355092ef5a8a18f56e8913cf4a201fbe287825b095693c2177533612b89565b61294c576040517f08c379a000000000000000000000000000000000000000000000000000000000815260040161294390617c9b565b60405180910390fd5b62093a80604a5461295d919061851d565b42101561299f576040517f08c379a000000000000000000000000000000000000000000000000000000000815260040161299690618609565b60405180910390fd5b6001604160016101000a81548160ff021916908315150217905550565b601a60159054906101000a900460ff1681565b6000600860008373ffffffffffffffffffffffffffffffffffffffff1673ffffffffffffffffffffffffffffffffffffffff168152602001908152602001600020549050919050565b612a20614277565b612a2a60006154d1565b565b612a34614277565b80601a60006101000a81548173ffffffffffffffffffffffffffffffffffffffff021916908373ffffffffffffffffffffffffffffffffffffffff1602179055506001600b6000601a60009054906101000a900473ffffffffffffffffffffffffffffffffffffffff1673ffffffffffffffffffffffffffffffffffffffff1673ffffffffffffffffffffffffffffffffffffffff16815260200190815260200160002060006101000a81548160ff02191690831515021790555050565b7fa49807205ce4d355092ef5a8a18f56e8913cf4a201fbe287825b095693c2177581565b60148181548110612b2657600080fd5b906000526020600020016000915090505481565b60256020528060005260406000206000915054906101000a900460ff1681565b60008060009054906101000a900473ffffffffffffffffffffffffffffffffffffffff16905090565b60075481565b60006002600084815260200190815260200160002060000160008373ffffffffffffffffffffffffffffffffffffffff1673ffffffffffffffffffffffffffffffffffffffff16815260200190815260200160002060009054906101000a900460ff16905092915050565b606060048054612c0390617fa9565b80601f0160208091040260200160405190810160405280929190818152602001828054612c2f90617fa9565b8015612c7c5780601f10612c5157610100808354040283529160200191612c7c565b820191906000526020600020905b815481529060010190602001808311612c5f57829003601f168201915b5050505050905090565b601d60008273ffffffffffffffffffffffffffffffffffffffff1673ffffffffffffffffffffffffffffffffffffffff16815260200190815260200160002060009054906101000a900460ff1615612d13576040517f08c379a0000000000000000000000000000000000000000000000000000000008152600401612d0a90618675565b60405180910390fd5b6001612d1e336129cf565b1015612d5f576040517f08c379a0000000000000000000000000000000000000000000000000000000008152600401612d56906186e1565b60405180910390fd5b60011515601d60003373ffffffffffffffffffffffffffffffffffffffff1673ffffffffffffffffffffffffffffffffffffffff16815260200190815260200160002060009054906101000a900460ff16151514612df2576040517f08c379a0000000000000000000000000000000000000000000000000000000008152600401612de99061874d565b60405180910390fd5b33601e60008373ffffffffffffffffffffffffffffffffffffffff1673ffffffffffffffffffffffffffffffffffffffff16815260200190815260200160002060006101000a81548173ffffffffffffffffffffffffffffffffffffffff021916908373ffffffffffffffffffffffffffffffffffffffff1602179055506001601d60008373ffffffffffffffffffffffffffffffffffffffff1673ffffffffffffffffffffffffffffffffffffffff16815260200190815260200160002060006101000a81548160ff021916908315150217905550602160003373ffffffffffffffffffffffffffffffffffffffff1673ffffffffffffffffffffffffffffffffffffffff1681526020019081526020016000206000815480929190612f1890617f32565b919050555060446000815480929190612f3090617f32565b91905055506000612f4a3383670de0b6b3a76400006140e9565b90505050565b6000801b81565b601a60009054906101000a900473ffffffffffffffffffffffffffffffffffffffff1681565b6000601a60009054906101000a900473ffffffffffffffffffffffffffffffffffffffff1673ffffffffffffffffffffffffffffffffffffffff163373ffffffffffffffffffffffffffffffffffffffff1603612fe657612fdf3384846144ae565b9050612ff4565b612ff13384846140e9565b90505b92915050565b60275481565b601f6020528060005260406000206000915090505481565b6130206170c2565b604560058060200260405190810160405280929190826005801561308f576020028201915b8160009054906101000a900473ffffffffffffffffffffffffffffffffffffffff1673ffffffffffffffffffffffffffffffffffffffff1681526020019060010190808311613045575b5050505050905090565b604160009054906101000a900460ff1681565b60445481565b60286020528060005260406000206000915090508060000154908060010154908060020154905083565b601060009054906101000a900473ffffffffffffffffffffffffffffffffffffffff1681565b61310a614277565b600554600781905550565b6000602b549050601d60003373ffffffffffffffffffffffffffffffffffffffff1673ffffffffffffffffffffffffffffffffffffffff16815260200190815260200160002060009054906101000a900460ff166131a8576040517f08c379a000000000000000000000000000000000000000000000000000000000815260040161319f906187b9565b60405180910390fd5b604160009054906101000a900460ff166131f7576040517f08c379a00000000000000000000000000000000000000000000000000000000081526004016131ee90618825565b60405180910390fd5b80613201336129cf565b1015613242576040517f08c379a0000000000000000000000000000000000000000000000000000000008152600401613239906188b7565b60405180910390fd5b42602860006027548152602001908152602001600020600201541161329c576040517f08c379a000000000000000000000000000000000000000000000000000000000815260040161329390617d2d565b60405180910390fd5b60286000602754815260200190815260200160002060030160003373ffffffffffffffffffffffffffffffffffffffff1673ffffffffffffffffffffffffffffffffffffffff16815260200190815260200160002060009054906101000a900460ff161561333f576040517f08c379a000000000000000000000000000000000000000000000000000000000815260040161333690618949565b60405180910390fd5b6000151560286000602754815260200190815260200160002060040160003373ffffffffffffffffffffffffffffffffffffffff1673ffffffffffffffffffffffffffffffffffffffff16815260200190815260200160002060009054906101000a900460ff161515146133e8576040517f08c379a00000000000000000000000000000000000000000000000000000000081526004016133df906189db565b60405180910390fd5b602a60008154809291906133fb90617f32565b91905055506029600081548092919061341390617f32565b9190505550600160286000602754815260200190815260200160002060030160003373ffffffffffffffffffffffffffffffffffffffff1673ffffffffffffffffffffffffffffffffffffffff16815260200190815260200160002060006101000a81548160ff02191690831515021790555060006103e860c8836134989190617fda565b6134a2919061804b565b90506134b13361dead836140e9565b5060006134ec33602260009054906101000a900473ffffffffffffffffffffffffffffffffffffffff1684866134e791906182c4565b6140e9565b905060006134f8615595565b905033602860006027548152602001908152602001600020600601600083815260200190815260200160002060006101000a81548173ffffffffffffffffffffffffffffffffffffffff021916908373ffffffffffffffffffffffffffffffffffffffff1602179055508060286000602754815260200190815260200160002060070160003373ffffffffffffffffffffffffffffffffffffffff1673ffffffffffffffffffffffffffffffffffffffff168152602001908152602001600020819055503373ffffffffffffffffffffffffffffffffffffffff167f56e18f08766f396148d5b13331a86d9ce4ea3d9c08821cf829ccf881a6fff8bf826040516136029190617360565b60405180910390a250505050565b613619826120ea565b61362281614c72565b61362c8383614d67565b505050565b6000600960008473ffffffffffffffffffffffffffffffffffffffff1673ffffffffffffffffffffffffffffffffffffffff16815260200190815260200160002060008373ffffffffffffffffffffffffffffffffffffffff1673ffffffffffffffffffffffffffffffffffffffff16815260200190815260200160002054905092915050565b6136c0614277565b6001811015613704576040517f08c379a00000000000000000000000000000000000000000000000000000000081526004016136fb90618a47565b60405180910390fd5b81601a60156101000a81548160ff02191690831515021790555080601b819055505050565b6137537fa49807205ce4d355092ef5a8a18f56e8913cf4a201fbe287825b095693c2177533612b89565b613792576040517f08c379a000000000000000000000000000000000000000000000000000000000815260040161378990617c9b565b60405180910390fd5b602f548110156137d7576040517f08c379a00000000000000000000000000000000000000000000000000000000081526004016137ce90618ad9565b60405180910390fd5b8060348190555050565b6137e9614277565b600073ffffffffffffffffffffffffffffffffffffffff168173ffffffffffffffffffffffffffffffffffffffff1603613858576040517f08c379a000000000000000000000000000000000000000000000000000000000815260040161384f90618b6b565b60405180910390fd5b613861816154d1565b50565b61386c614277565b60005b8151811015613bba57601d600083838151811061388f5761388e618b8b565b5b602002602001015173ffffffffffffffffffffffffffffffffffffffff1673ffffffffffffffffffffffffffffffffffffffff16815260200190815260200160002060009054906101000a900460ff161561391f576040517f08c379a000000000000000000000000000000000000000000000000000000000815260040161391690618675565b60405180910390fd5b600161392a336129cf565b101561396b576040517f08c379a000000000000000000000000000000000000000000000000000000000815260040161396290618c06565b60405180910390fd5b60011515601d60003373ffffffffffffffffffffffffffffffffffffffff1673ffffffffffffffffffffffffffffffffffffffff16815260200190815260200160002060009054906101000a900460ff161515146139fe576040517f08c379a00000000000000000000000000000000000000000000000000000000081526004016139f590618c72565b60405180910390fd5b33601e6000848481518110613a1657613a15618b8b565b5b602002602001015173ffffffffffffffffffffffffffffffffffffffff1673ffffffffffffffffffffffffffffffffffffffff16815260200190815260200160002060006101000a81548173ffffffffffffffffffffffffffffffffffffffff021916908373ffffffffffffffffffffffffffffffffffffffff1602179055506001601d6000848481518110613aaf57613aae618b8b565b5b602002602001015173ffffffffffffffffffffffffffffffffffffffff1673ffffffffffffffffffffffffffffffffffffffff16815260200190815260200160002060006101000a81548160ff021916908315150217905550602160003373ffffffffffffffffffffffffffffffffffffffff1673ffffffffffffffffffffffffffffffffffffffff1681526020019081526020016000206000815480929190613b5890617f32565b919050555060446000815480929190613b7090617f32565b91905055506000613ba433848481518110613b8e57613b8d618b8b565b5b6020026020010151670de0b6b3a76400006140e9565b9050508080613bb290617f32565b91505061386f565b5050565b601960009054906101000a900473ffffffffffffffffffffffffffffffffffffffff1681565b60155481565b613c147fa49807205ce4d355092ef5a8a18f56e8913cf4a201fbe287825b095693c2177533612b89565b613c53576040517f08c379a0000000000000000000000000000000000000000000000000000000008152600401613c4a90617c9b565b60405180910390fd5b8060238190555050565b600060286000602754815260200190815260200160002060030160008373ffffffffffffffffffffffffffffffffffffffff1673ffffffffffffffffffffffffffffffffffffffff16815260200190815260200160002060009054906101000a900460ff169050919050565b60006018600083815260200190815260200160002060000160019054906101000a900460ff16613d2e576040517f08c379a0000000000000000000000000000000000000000000000000000000008152600401613d2590618cde565b60405180910390fd5b6000601860008481526020019081526020016000206040518060600160405290816000820160009054906101000a900460ff161515151581526020016000820160019054906101000a900460ff1615151515815260200160018201805480602002602001604051908101604052809291908181526020018280548015613dd357602002820191906000526020600020905b815481526020019060010190808311613dbf575b5050505050815250509050603454602f5410613e2957600160618260400151600081518110613e0557613e04618b8b565b5b6020026020010151613e179190618cfe565b613e21919061851d565b915050613e66565b60016023548260400151600081518110613e4657613e45618b8b565b5b6020026020010151613e589190618cfe565b613e62919061851d565b9150505b919050565b602560008473ffffffffffffffffffffffffffffffffffffffff1673ffffffffffffffffffffffffffffffffffffffff16815260200190815260200160002060009054906101000a900460ff16613f78576026839080600181540180825580915050600190039060005260206000200160009091909190916101000a81548173ffffffffffffffffffffffffffffffffffffffff021916908373ffffffffffffffffffffffffffffffffffffffff1602179055506001602560008573ffffffffffffffffffffffffffffffffffffffff1673ffffffffffffffffffffffffffffffffffffffff16815260200190815260200160002060006101000a81548160ff0219169083151502179055505b81602460008573ffffffffffffffffffffffffffffffffffffffff1673ffffffffffffffffffffffffffffffffffffffff16815260200190815260200160002081905550600160286000602754815260200190815260200160002060050160008573ffffffffffffffffffffffffffffffffffffffff1673ffffffffffffffffffffffffffffffffffffffff16815260200190815260200160002060006101000a81548160ff0219169083151502179055508273ffffffffffffffffffffffffffffffffffffffff167fc05909672b3730633581d6cf7b807382b3572d7805ace294b8d4b3558c5cc7ff8383604051614072929190618d2f565b60405180910390a2505050565b60007f01ffc9a7000000000000000000000000000000000000000000000000000000007bffffffffffffffffffffffffffffffffffffffffffffffffffffffff1916827bffffffffffffffffffffffffffffffffffffffffffffffffffffffff1916149050919050565b600081600860008673ffffffffffffffffffffffffffffffffffffffff1673ffffffffffffffffffffffffffffffffffffffff1681526020019081526020016000205461413691906182c4565b600860008673ffffffffffffffffffffffffffffffffffffffff1673ffffffffffffffffffffffffffffffffffffffff1681526020019081526020016000208190555081600860008573ffffffffffffffffffffffffffffffffffffffff1673ffffffffffffffffffffffffffffffffffffffff168152602001908152602001600020546141c4919061851d565b600860008573ffffffffffffffffffffffffffffffffffffffff1673ffffffffffffffffffffffffffffffffffffffff168152602001908152602001600020819055508273ffffffffffffffffffffffffffffffffffffffff168473ffffffffffffffffffffffffffffffffffffffff167fddf252ad1be2c89b69c2b068fc378daa952ba7f163c4a11628f55a4df523b3ef846040516142649190617360565b60405180910390a3600190509392505050565b61427f6144a6565b73ffffffffffffffffffffffffffffffffffffffff1661429d612b5a565b73ffffffffffffffffffffffffffffffffffffffff16146142f3576040517f08c379a00000000000000000000000000000000000000000000000000000000081526004016142ea90618da4565b60405180910390fd5b565b6018600083815260200190815260200160002060000160019054906101000a900460ff16614358576040517f08c379a000000000000000000000000000000000000000000000000000000000815260040161434f90618cde565b60405180910390fd5b60016018600084815260200190815260200160002060000160006101000a81548160ff021916908315150217905550806018600084815260200190815260200160002060010190805190602001906143b19291906170e4565b5060016028600060275481526020019081526020016000206008016000602860006027548152602001908152602001600020600601600086815260200190815260200160002060009054906101000a900473ffffffffffffffffffffffffffffffffffffffff1673ffffffffffffffffffffffffffffffffffffffff1673ffffffffffffffffffffffffffffffffffffffff16815260200190815260200160002060006101000a81548160ff0219169083151502179055507ffe2e2d779dba245964d4e3ef9b994be63856fd568bf7d3ca9e224755cb1bd54d828260405161449a929190618e82565b60405180910390a15050565b600033905090565b6000600a60008573ffffffffffffffffffffffffffffffffffffffff1673ffffffffffffffffffffffffffffffffffffffff16815260200190815260200160002060009054906101000a900460ff16806145515750600a60008473ffffffffffffffffffffffffffffffffffffffff1673ffffffffffffffffffffffffffffffffffffffff16815260200190815260200160002060009054906101000a900460ff165b806145685750601a60149054906101000a900460ff165b6145a7576040517f08c379a000000000000000000000000000000000000000000000000000000000815260040161459e90618efe565b60405180910390fd5b601a60009054906101000a900473ffffffffffffffffffffffffffffffffffffffff1673ffffffffffffffffffffffffffffffffffffffff168373ffffffffffffffffffffffffffffffffffffffff161461468957601d60008473ffffffffffffffffffffffffffffffffffffffff1673ffffffffffffffffffffffffffffffffffffffff16815260200190815260200160002060009054906101000a900460ff16614688576040517f08c379a000000000000000000000000000000000000000000000000000000000815260040161467f90618f6a565b60405180910390fd5b5b614691612b5a565b73ffffffffffffffffffffffffffffffffffffffff168473ffffffffffffffffffffffffffffffffffffffff16141580156146ff57506146cf612b5a565b73ffffffffffffffffffffffffffffffffffffffff168373ffffffffffffffffffffffffffffffffffffffff1614155b8015614739575061dead73ffffffffffffffffffffffffffffffffffffffff168373ffffffffffffffffffffffffffffffffffffffff1614155b1561487857601a60009054906101000a900473ffffffffffffffffffffffffffffffffffffffff1673ffffffffffffffffffffffffffffffffffffffff168373ffffffffffffffffffffffffffffffffffffffff161461487757600b60008473ffffffffffffffffffffffffffffffffffffffff1673ffffffffffffffffffffffffffffffffffffffff16815260200190815260200160002060009054906101000a900460ff1680614837575060075482600860008673ffffffffffffffffffffffffffffffffffffffff1673ffffffffffffffffffffffffffffffffffffffff16815260200190815260200160002054614834919061851d565b11155b614876576040517f08c379a000000000000000000000000000000000000000000000000000000000815260040161486d90618ffc565b60405180910390fd5b5b5b6148806157e6565b80156148d95750601a60009054906101000a900473ffffffffffffffffffffffffffffffffffffffff1673ffffffffffffffffffffffffffffffffffffffff168373ffffffffffffffffffffffffffffffffffffffff16145b156148e7576148e6615893565b5b81600860008673ffffffffffffffffffffffffffffffffffffffff1673ffffffffffffffffffffffffffffffffffffffff1681526020019081526020016000205461493291906182c4565b600860008673ffffffffffffffffffffffffffffffffffffffff1673ffffffffffffffffffffffffffffffffffffffff16815260200190815260200160002081905550600061498085615bac565b1580614992575061499084615bac565b155b6149a6576149a1858585615c03565b6149a8565b825b905080600860008673ffffffffffffffffffffffffffffffffffffffff1673ffffffffffffffffffffffffffffffffffffffff168152602001908152602001600020546149f5919061851d565b600860008673ffffffffffffffffffffffffffffffffffffffff1673ffffffffffffffffffffffffffffffffffffffff168152602001908152602001600020819055508373ffffffffffffffffffffffffffffffffffffffff168573ffffffffffffffffffffffffffffffffffffffff167fddf252ad1be2c89b69c2b068fc378daa952ba7f163c4a11628f55a4df523b3ef83604051614a959190617360565b60405180910390a360019150509392505050565b600073ffffffffffffffffffffffffffffffffffffffff168373ffffffffffffffffffffffffffffffffffffffff1603614b18576040517f08c379a0000000000000000000000000000000000000000000000000000000008152600401614b0f9061908e565b60405180910390fd5b600073ffffffffffffffffffffffffffffffffffffffff168273ffffffffffffffffffffffffffffffffffffffff1603614b87576040517f08c379a0000000000000000000000000000000000000000000000000000000008152600401614b7e90619120565b60405180910390fd5b80600960008573ffffffffffffffffffffffffffffffffffffffff1673ffffffffffffffffffffffffffffffffffffffff16815260200190815260200160002060008473ffffffffffffffffffffffffffffffffffffffff1673ffffffffffffffffffffffffffffffffffffffff168152602001908152602001600020819055508173ffffffffffffffffffffffffffffffffffffffff168373ffffffffffffffffffffffffffffffffffffffff167f8c5be1e5ebec7d5bd14f71427d1e84f3dd0314c0f7b2291e5b200ac8c7c3b92583604051614c659190617360565b60405180910390a3505050565b614c8381614c7e6144a6565b6169b9565b50565b614c908282612b89565b614d635760016002600084815260200190815260200160002060000160008373ffffffffffffffffffffffffffffffffffffffff1673ffffffffffffffffffffffffffffffffffffffff16815260200190815260200160002060006101000a81548160ff021916908315150217905550614d086144a6565b73ffffffffffffffffffffffffffffffffffffffff168173ffffffffffffffffffffffffffffffffffffffff16837f2f8788117e7eff1d82e926ec794901d17c78024a50270940304540a733656f0d60405160405180910390a45b5050565b614d718282612b89565b15614e455760006002600084815260200190815260200160002060000160008373ffffffffffffffffffffffffffffffffffffffff1673ffffffffffffffffffffffffffffffffffffffff16815260200190815260200160002060006101000a81548160ff021916908315150217905550614dea6144a6565b73ffffffffffffffffffffffffffffffffffffffff168173ffffffffffffffffffffffffffffffffffffffff16837ff6391f5c32d9c69d2a47ea670b442974b53935d1edc7fd64eb21e047a839171b60405160405180910390a45b5050565b6000602860006027548152602001908152602001600020600901805490501115614f1257602260009054906101000a900473ffffffffffffffffffffffffffffffffffffffff1673ffffffffffffffffffffffffffffffffffffffff1663f25addf56028600060275481526020019081526020016000206009016040518263ffffffff1660e01b8152600401614edf919061922c565b600060405180830381600087803b158015614ef957600080fd5b505af1158015614f0d573d6000803e3d6000fd5b505050505b60276000815480929190614f2590617f32565b91905055506027546028600060275481526020019081526020016000206000018190555042602860006027548152602001908152602001600020600101819055506201437042614f75919061851d565b602860006027548152602001908152602001600020600201819055506000602c819055506000602d819055506000602e819055506000602f81905550600060298190555060005b6026805490508110156150f85760006024600060268481548110614fe357614fe2618b8b565b5b9060005260206000200160009054906101000a900473ffffffffffffffffffffffffffffffffffffffff1673ffffffffffffffffffffffffffffffffffffffff1673ffffffffffffffffffffffffffffffffffffffff1681526020019081526020016000205411156150e5576001602460006026848154811061506957615068618b8b565b5b9060005260206000200160009054906101000a900473ffffffffffffffffffffffffffffffffffffffff1673ffffffffffffffffffffffffffffffffffffffff1673ffffffffffffffffffffffffffffffffffffffff16815260200190815260200160002060008282546150dd91906182c4565b925050819055505b80806150f090617f32565b915050614fbc565b50604160009054906101000a900460ff16615129576001604160006101000a81548160ff0219169083151502179055505b615131616a3e565b565b6000339050615140617131565b6151486170c2565b6000805b60058110156151f957601f60006045836005811061516d5761516c618b8b565b5b0160009054906101000a900473ffffffffffffffffffffffffffffffffffffffff1673ffffffffffffffffffffffffffffffffffffffff1673ffffffffffffffffffffffffffffffffffffffff168152602001908152602001600020548482600581106151dd576151dc618b8b565b5b60200201818152505080806151f190617f32565b91505061514c565b5060005b6005811015615285578473ffffffffffffffffffffffffffffffffffffffff166045826005811061523157615230618b8b565b5b0160009054906101000a900473ffffffffffffffffffffffffffffffffffffffff1673ffffffffffffffffffffffffffffffffffffffff1603615272578091505b808061527d90617f32565b9150506151fd565b50601f60008573ffffffffffffffffffffffffffffffffffffffff1673ffffffffffffffffffffffffffffffffffffffff16815260200190815260200160002054836000600581106152da576152d9618b8b565b5b60200201511080156152f95750600160056152f591906182c4565b8114155b156154cb576000810361535357838260006005811061531b5761531a618b8b565b5b602002019073ffffffffffffffffffffffffffffffffffffffff16908173ffffffffffffffffffffffffffffffffffffffff16815250505b6000600182615362919061851d565b90505b60058110156154b757601f60008673ffffffffffffffffffffffffffffffffffffffff1673ffffffffffffffffffffffffffffffffffffffff168152602001908152602001600020548482600581106153c1576153c0618b8b565b5b602002015110156154a457604581600581106153e0576153df618b8b565b5b0160009054906101000a900473ffffffffffffffffffffffffffffffffffffffff168360018361541091906182c4565b6005811061542157615420618b8b565b5b602002019073ffffffffffffffffffffffffffffffffffffffff16908173ffffffffffffffffffffffffffffffffffffffff16815250508483826005811061546c5761546b618b8b565b5b602002019073ffffffffffffffffffffffffffffffffffffffff16908173ffffffffffffffffffffffffffffffffffffffff16815250505b80806154af90617f32565b915050615365565b508160459060056154c9929190617153565b505b50505050565b60008060009054906101000a900473ffffffffffffffffffffffffffffffffffffffff169050816000806101000a81548173ffffffffffffffffffffffffffffffffffffffff021916908373ffffffffffffffffffffffffffffffffffffffff1602179055508173ffffffffffffffffffffffffffffffffffffffff168173ffffffffffffffffffffffffffffffffffffffff167f8be0079c531659141344cd1fd0a4f28419497f9722a3daafe3b4186f6b6457e060405160405180910390a35050565b6000601360009054906101000a900473ffffffffffffffffffffffffffffffffffffffff1673ffffffffffffffffffffffffffffffffffffffff16635d3b1d30601654601360149054906101000a900467ffffffffffffffff16601760049054906101000a900461ffff16601760009054906101000a900463ffffffff16601760069054906101000a900463ffffffff166040518663ffffffff1660e01b81526004016156469594939291906192ad565b6020604051808303816000875af1158015615665573d6000803e3d6000fd5b505050506040513d601f19601f820116820180604052508101906156899190619315565b90506040518060600160405280600015158152602001600115158152602001600067ffffffffffffffff8111156156c3576156c261749e565b5b6040519080825280602002602001820160405280156156f15781602001602082028036833780820191505090505b508152506018600083815260200190815260200160002060008201518160000160006101000a81548160ff02191690831515021790555060208201518160000160016101000a81548160ff02191690831515021790555060408201518160010190805190602001906157649291906170e4565b509050506014819080600181540180825580915050600190039060005260206000200160009091909190915055806015819055507fcc58b13ad3eab50626c6a6300b1d139cd6ebb1688a7cced9461c2f7e762665ee81601760069054906101000a900463ffffffff166040516157db929190619342565b60405180910390a190565b6000601a60009054906101000a900473ffffffffffffffffffffffffffffffffffffffff1673ffffffffffffffffffffffffffffffffffffffff163373ffffffffffffffffffffffffffffffffffffffff16141580156158535750601c60009054906101000a900460ff16155b801561586b5750601a60159054906101000a900460ff165b801561588e5750601b54604254615881306129cf565b61588b91906182c4565b10155b905090565b6001601c60006101000a81548160ff02191690831515021790555060006042546158bc306129cf565b6158c691906182c4565b90506000600267ffffffffffffffff8111156158e5576158e461749e565b5b6040519080825280602002602001820160405280156159135781602001602082028036833780820191505090505b509050308160008151811061592b5761592a618b8b565b5b602002602001019073ffffffffffffffffffffffffffffffffffffffff16908173ffffffffffffffffffffffffffffffffffffffff1681525050601960009054906101000a900473ffffffffffffffffffffffffffffffffffffffff1673ffffffffffffffffffffffffffffffffffffffff1663ad5c46486040518163ffffffff1660e01b8152600401602060405180830381865afa1580156159d2573d6000803e3d6000fd5b505050506040513d601f19601f820116820180604052508101906159f69190619380565b81600181518110615a0a57615a09618b8b565b5b602002602001019073ffffffffffffffffffffffffffffffffffffffff16908173ffffffffffffffffffffffffffffffffffffffff1681525050601960009054906101000a900473ffffffffffffffffffffffffffffffffffffffff1673ffffffffffffffffffffffffffffffffffffffff1663791ac947836000843061012c42615a95919061851d565b6040518663ffffffff1660e01b8152600401615ab59594939291906193e8565b600060405180830381600087803b158015615acf57600080fd5b505af1158015615ae3573d6000803e3d6000fd5b5050505060004790506000811115615b8c576000601160009054906101000a900473ffffffffffffffffffffffffffffffffffffffff1673ffffffffffffffffffffffffffffffffffffffff168261753090604051615b4190619473565b600060405180830381858888f193505050503d8060008114615b7f576040519150601f19603f3d011682016040523d82523d6000602084013e615b84565b606091505b505080915050505b5050506000601c60006101000a81548160ff021916908315150217905550565b6000600a60008373ffffffffffffffffffffffffffffffffffffffff1673ffffffffffffffffffffffffffffffffffffffff16815260200190815260200160002060009054906101000a900460ff16159050919050565b600080600090506000806000601a60009054906101000a900473ffffffffffffffffffffffffffffffffffffffff1673ffffffffffffffffffffffffffffffffffffffff168873ffffffffffffffffffffffffffffffffffffffff16148015615cba5750601a60009054906101000a900473ffffffffffffffffffffffffffffffffffffffff1673ffffffffffffffffffffffffffffffffffffffff168773ffffffffffffffffffffffffffffffffffffffff1614155b156161e057604160019054906101000a900460ff1615615cf6576127106126ac87615ce59190617fda565b615cef919061804b565b93506161db565b6001602460008973ffffffffffffffffffffffffffffffffffffffff1673ffffffffffffffffffffffffffffffffffffffff1681526020019081526020016000205403615e4657615d6b600361271060355489615d539190617fda565b615d5d919061804b565b616c5090919063ffffffff16565b93508392508391508260206000601e60008b73ffffffffffffffffffffffffffffffffffffffff1673ffffffffffffffffffffffffffffffffffffffff16815260200190815260200160002060009054906101000a900473ffffffffffffffffffffffffffffffffffffffff1673ffffffffffffffffffffffffffffffffffffffff1673ffffffffffffffffffffffffffffffffffffffff1681526020019081526020016000206000828254615e21919061851d565b925050819055508260426000828254615e3a919061851d565b925050819055506161da565b6002602460008973ffffffffffffffffffffffffffffffffffffffff1673ffffffffffffffffffffffffffffffffffffffff1681526020019081526020016000205403615f9657615ebb600361271060365489615ea39190617fda565b615ead919061804b565b616c5090919063ffffffff16565b93508392508391508260206000601e60008b73ffffffffffffffffffffffffffffffffffffffff1673ffffffffffffffffffffffffffffffffffffffff16815260200190815260200160002060009054906101000a900473ffffffffffffffffffffffffffffffffffffffff1673ffffffffffffffffffffffffffffffffffffffff1673ffffffffffffffffffffffffffffffffffffffff1681526020019081526020016000206000828254615f71919061851d565b925050819055508260426000828254615f8a919061851d565b925050819055506161d9565b6003602460008973ffffffffffffffffffffffffffffffffffffffff1673ffffffffffffffffffffffffffffffffffffffff16815260200190815260200160002054036160e65761600b600361271060375489615ff39190617fda565b615ffd919061804b565b616c5090919063ffffffff16565b93508392508391508260206000601e60008b73ffffffffffffffffffffffffffffffffffffffff1673ffffffffffffffffffffffffffffffffffffffff16815260200190815260200160002060009054906101000a900473ffffffffffffffffffffffffffffffffffffffff1673ffffffffffffffffffffffffffffffffffffffff1673ffffffffffffffffffffffffffffffffffffffff16815260200190815260200160002060008282546160c1919061851d565b9250508190555082604260008282546160da919061851d565b925050819055506161d8565b612710600d54876160f79190617fda565b616101919061804b565b93508391508392508260206000601e60008b73ffffffffffffffffffffffffffffffffffffffff1673ffffffffffffffffffffffffffffffffffffffff16815260200190815260200160002060009054906101000a900473ffffffffffffffffffffffffffffffffffffffff1673ffffffffffffffffffffffffffffffffffffffff1673ffffffffffffffffffffffffffffffffffffffff16815260200190815260200160002060008282546161b7919061851d565b9250508190555082604260008282546161d0919061851d565b925050819055505b5b5b5b6167ad565b601a60009054906101000a900473ffffffffffffffffffffffffffffffffffffffff1673ffffffffffffffffffffffffffffffffffffffff168873ffffffffffffffffffffffffffffffffffffffff161415801561628b5750601a60009054906101000a900473ffffffffffffffffffffffffffffffffffffffff1673ffffffffffffffffffffffffffffffffffffffff168773ffffffffffffffffffffffffffffffffffffffff16145b156167ac57604160019054906101000a900460ff16156162c657612710600a876162b59190617fda565b6162bf919061804b565b93506167ab565b6001602460008a73ffffffffffffffffffffffffffffffffffffffff1673ffffffffffffffffffffffffffffffffffffffff16815260200190815260200160002054036164165761633b6003612710603854896163239190617fda565b61632d919061804b565b616c5090919063ffffffff16565b93508392508391508260206000601e60008c73ffffffffffffffffffffffffffffffffffffffff1673ffffffffffffffffffffffffffffffffffffffff16815260200190815260200160002060009054906101000a900473ffffffffffffffffffffffffffffffffffffffff1673ffffffffffffffffffffffffffffffffffffffff1673ffffffffffffffffffffffffffffffffffffffff16815260200190815260200160002060008282546163f1919061851d565b92505081905550826042600082825461640a919061851d565b925050819055506167aa565b6002602460008a73ffffffffffffffffffffffffffffffffffffffff1673ffffffffffffffffffffffffffffffffffffffff16815260200190815260200160002054036165665761648b6003612710603954896164739190617fda565b61647d919061804b565b616c5090919063ffffffff16565b93508392508391508260206000601e60008c73ffffffffffffffffffffffffffffffffffffffff1673ffffffffffffffffffffffffffffffffffffffff16815260200190815260200160002060009054906101000a900473ffffffffffffffffffffffffffffffffffffffff1673ffffffffffffffffffffffffffffffffffffffff1673ffffffffffffffffffffffffffffffffffffffff1681526020019081526020016000206000828254616541919061851d565b92505081905550826042600082825461655a919061851d565b925050819055506167a9565b6003602460008a73ffffffffffffffffffffffffffffffffffffffff1673ffffffffffffffffffffffffffffffffffffffff16815260200190815260200160002054036166b6576165db6003612710603a54896165c39190617fda565b6165cd919061804b565b616c5090919063ffffffff16565b93508392508391508260206000601e60008c73ffffffffffffffffffffffffffffffffffffffff1673ffffffffffffffffffffffffffffffffffffffff16815260200190815260200160002060009054906101000a900473ffffffffffffffffffffffffffffffffffffffff1673ffffffffffffffffffffffffffffffffffffffff1673ffffffffffffffffffffffffffffffffffffffff1681526020019081526020016000206000828254616691919061851d565b9250508190555082604260008282546166aa919061851d565b925050819055506167a8565b612710600f54876166c79190617fda565b6166d1919061804b565b93508392508391508260206000601e60008c73ffffffffffffffffffffffffffffffffffffffff1673ffffffffffffffffffffffffffffffffffffffff16815260200190815260200160002060009054906101000a900473ffffffffffffffffffffffffffffffffffffffff1673ffffffffffffffffffffffffffffffffffffffff1673ffffffffffffffffffffffffffffffffffffffff1681526020019081526020016000206000828254616787919061851d565b9250508190555082604260008282546167a0919061851d565b925050819055505b5b5b5b5b5b8183856167ba919061851d565b6167c4919061851d565b905060008111156169a05781816167db91906182c4565b600860003073ffffffffffffffffffffffffffffffffffffffff1673ffffffffffffffffffffffffffffffffffffffff1681526020019081526020016000206000828254616829919061851d565b925050819055508160086000602260009054906101000a900473ffffffffffffffffffffffffffffffffffffffff1673ffffffffffffffffffffffffffffffffffffffff1673ffffffffffffffffffffffffffffffffffffffff16815260200190815260200160002060008282546168a1919061851d565b925050819055503073ffffffffffffffffffffffffffffffffffffffff168873ffffffffffffffffffffffffffffffffffffffff167fddf252ad1be2c89b69c2b068fc378daa952ba7f163c4a11628f55a4df523b3ef848461690391906182c4565b6040516169109190617360565b60405180910390a3602260009054906101000a900473ffffffffffffffffffffffffffffffffffffffff1673ffffffffffffffffffffffffffffffffffffffff168873ffffffffffffffffffffffffffffffffffffffff167fddf252ad1be2c89b69c2b068fc378daa952ba7f163c4a11628f55a4df523b3ef846040516169979190617360565b60405180910390a35b80866169ac91906182c4565b9450505050509392505050565b6169c38282612b89565b616a3a576169d081616c66565b6169de8360001c6020616c93565b6040516020016169ef92919061955c565b6040516020818303038152906040526040517f08c379a0000000000000000000000000000000000000000000000000000000008152600401616a31919061740b565b60405180910390fd5b5050565b616a90600654616a756006546064602754603b54616a5c9190617fda565b616a669190617fda565b616a709190617fda565b616ecf565b600c54616a8291906182c4565b616c5090919063ffffffff16565b603581905550616ae8600654616acd6006546064602754603c54616ab49190617fda565b616abe9190617fda565b616ac89190617fda565b616ecf565b600c54616ada91906182c4565b616c5090919063ffffffff16565b603681905550616b40600654616b256006546064602754603d54616b0c9190617fda565b616b169190617fda565b616b209190617fda565b616ecf565b600c54616b3291906182c4565b616c5090919063ffffffff16565b603781905550616b98600654616b7d6006546064602754603e54616b649190617fda565b616b6e9190617fda565b616b789190617fda565b616ecf565b600e54616b8a91906182c4565b616c5090919063ffffffff16565b603881905550616bf0600654616bd56006546064602754603f54616bbc9190617fda565b616bc69190617fda565b616bd09190617fda565b616ecf565b600e54616be291906182c4565b616c5090919063ffffffff16565b603981905550616c48600654616c2d6006546064602754604054616c149190617fda565b616c1e9190617fda565b616c289190617fda565b616ecf565b600e54616c3a91906182c4565b616c5090919063ffffffff16565b603a81905550565b60008183616c5e919061804b565b905092915050565b6060616c8c8273ffffffffffffffffffffffffffffffffffffffff16601460ff16616c93565b9050919050565b606060006002836002616ca69190617fda565b616cb0919061851d565b67ffffffffffffffff811115616cc957616cc861749e565b5b6040519080825280601f01601f191660200182016040528015616cfb5781602001600182028036833780820191505090505b5090507f300000000000000000000000000000000000000000000000000000000000000081600081518110616d3357616d32618b8b565b5b60200101907effffffffffffffffffffffffffffffffffffffffffffffffffffffffffffff1916908160001a9053507f780000000000000000000000000000000000000000000000000000000000000081600181518110616d9757616d96618b8b565b5b60200101907effffffffffffffffffffffffffffffffffffffffffffffffffffffffffffff1916908160001a90535060006001846002616dd79190617fda565b616de1919061851d565b90505b6001811115616e81577f3031323334353637383961626364656600000000000000000000000000000000600f861660108110616e2357616e22618b8b565b5b1a60f81b828281518110616e3a57616e39618b8b565b5b60200101907effffffffffffffffffffffffffffffffffffffffffffffffffffffffffffff1916908160001a905350600485901c945080616e7a90619596565b9050616de4565b5060008414616ec5576040517f08c379a0000000000000000000000000000000000000000000000000000000008152600401616ebc9061960b565b60405180910390fd5b8091505092915050565b6000808203616ee15760009050616fc3565b60006001616eee84616fc8565b901c6001901b90506001818481616f0857616f0761801c565b5b048201901c90506001818481616f2157616f2061801c565b5b048201901c90506001818481616f3a57616f3961801c565b5b048201901c90506001818481616f5357616f5261801c565b5b048201901c90506001818481616f6c57616f6b61801c565b5b048201901c90506001818481616f8557616f8461801c565b5b048201901c90506001818481616f9e57616f9d61801c565b5b048201901c9050616fbf81828581616fb957616fb861801c565b5b046170a9565b9150505b919050565b600080600090506000608084901c1115616fea57608083901c92506080810190505b6000604084901c111561700557604083901c92506040810190505b6000602084901c111561702057602083901c92506020810190505b6000601084901c111561703b57601083901c92506010810190505b6000600884901c111561705657600883901c92506008810190505b6000600484901c111561707157600483901c92506004810190505b6000600284901c111561708c57600283901c92506002810190505b6000600184901c11156170a0576001810190505b80915050919050565b60008183106170b857816170ba565b825b905092915050565b6040518060a00160405280600590602082028036833780820191505090505090565b828054828255906000526020600020908101928215617120579160200282015b8281111561711f578251825591602001919060010190617104565b5b50905061712d91906171d0565b5090565b6040518060a00160405280600590602082028036833780820191505090505090565b82600581019282156171bf579160200282015b828111156171be5782518260006101000a81548173ffffffffffffffffffffffffffffffffffffffff021916908373ffffffffffffffffffffffffffffffffffffffff16021790555091602001919060010190617166565b5b5090506171cc91906171d0565b5090565b5b808211156171e95760008160009055506001016171d1565b5090565b6000604051905090565b600080fd5b600080fd5b600073ffffffffffffffffffffffffffffffffffffffff82169050919050565b600061722c82617201565b9050919050565b61723c81617221565b811461724757600080fd5b50565b60008135905061725981617233565b92915050565b600060208284031215617275576172746171f7565b5b60006172838482850161724a565b91505092915050565b60008115159050919050565b6172a18161728c565b82525050565b60006020820190506172bc6000830184617298565b92915050565b60007fffffffff0000000000000000000000000000000000000000000000000000000082169050919050565b6172f7816172c2565b811461730257600080fd5b50565b600081359050617314816172ee565b92915050565b6000602082840312156173305761732f6171f7565b5b600061733e84828501617305565b91505092915050565b6000819050919050565b61735a81617347565b82525050565b60006020820190506173756000830184617351565b92915050565b600081519050919050565b600082825260208201905092915050565b60005b838110156173b557808201518184015260208101905061739a565b60008484015250505050565b6000601f19601f8301169050919050565b60006173dd8261737b565b6173e78185617386565b93506173f7818560208601617397565b617400816173c1565b840191505092915050565b6000602082019050818103600083015261742581846173d2565b905092915050565b61743681617347565b811461744157600080fd5b50565b6000813590506174538161742d565b92915050565b600080604083850312156174705761746f6171f7565b5b600061747e8582860161724a565b925050602061748f85828601617444565b9150509250929050565b600080fd5b7f4e487b7100000000000000000000000000000000000000000000000000000000600052604160045260246000fd5b6174d6826173c1565b810181811067ffffffffffffffff821117156174f5576174f461749e565b5b80604052505050565b60006175086171ed565b905061751482826174cd565b919050565b600067ffffffffffffffff8211156175345761753361749e565b5b602082029050602081019050919050565b600080fd5b600061755d61755884617519565b6174fe565b905080838252602082019050602084028301858111156175805761757f617545565b5b835b818110156175a957806175958882617444565b845260208401935050602081019050617582565b5050509392505050565b600082601f8301126175c8576175c7617499565b5b81356175d884826020860161754a565b91505092915050565b600080604083850312156175f8576175f76171f7565b5b600061760685828601617444565b925050602083013567ffffffffffffffff811115617627576176266171fc565b5b617633858286016175b3565b9150509250929050565b6176468161728c565b811461765157600080fd5b50565b6000813590506176638161763d565b92915050565b600080604083850312156176805761767f6171f7565b5b600061768e8582860161724a565b925050602061769f85828601617654565b9150509250929050565b6000806000606084860312156176c2576176c16171f7565b5b60006176d08682870161724a565b93505060206176e18682870161724a565b92505060406176f286828701617444565b9150509250925092565b6000819050919050565b61770f816176fc565b811461771a57600080fd5b50565b60008135905061772c81617706565b92915050565b600060208284031215617748576177476171f7565b5b60006177568482850161771d565b91505092915050565b617768816176fc565b82525050565b6000602082019050617783600083018461775f565b92915050565b61779281617221565b82525050565b60006020820190506177ad6000830184617789565b92915050565b600080604083850312156177ca576177c96171f7565b5b60006177d88582860161771d565b92505060206177e98582860161724a565b9150509250929050565b600060ff82169050919050565b617809816177f3565b82525050565b60006020820190506178246000830184617800565b92915050565b6000819050919050565b600061784f61784a61784584617201565b61782a565b617201565b9050919050565b600061786182617834565b9050919050565b600061787382617856565b9050919050565b61788381617868565b82525050565b600060208201905061789e600083018461787a565b92915050565b600081519050919050565b600082825260208201905092915050565b6000819050602082019050919050565b6178d981617221565b82525050565b60006178eb83836178d0565b60208301905092915050565b6000602082019050919050565b600061790f826178a4565b61791981856178af565b9350617924836178c0565b8060005b8381101561795557815161793c88826178df565b9750617947836178f7565b925050600181019050617928565b5085935050505092915050565b6000602082019050818103600083015261797c8184617904565b905092915050565b60006020828403121561799a576179996171f7565b5b60006179a884828501617444565b91505092915050565b600060059050919050565b600081905092915050565b6000819050919050565b6000602082019050919050565b6179e7816179b1565b6179f181846179bc565b92506179fc826179c7565b8060005b83811015617a2d578151617a1487826178df565b9650617a1f836179d1565b925050600181019050617a00565b505050505050565b600060a082019050617a4a60008301846179de565b92915050565b6000606082019050617a656000830186617351565b617a726020830185617351565b617a7f6040830184617351565b949350505050565b60008060408385031215617a9e57617a9d6171f7565b5b6000617aac8582860161724a565b9250506020617abd8582860161724a565b9150509250929050565b60008060408385031215617ade57617add6171f7565b5b6000617aec85828601617654565b9250506020617afd85828601617444565b9150509250929050565b600067ffffffffffffffff821115617b2257617b2161749e565b5b602082029050602081019050919050565b6000617b46617b4184617b07565b6174fe565b90508083825260208201905060208402830185811115617b6957617b68617545565b5b835b81811015617b925780617b7e888261724a565b845260208401935050602081019050617b6b565b5050509392505050565b600082601f830112617bb157617bb0617499565b5b8135617bc1848260208601617b33565b91505092915050565b600060208284031215617be057617bdf6171f7565b5b600082013567ffffffffffffffff811115617bfe57617bfd6171fc565b5b617c0a84828501617b9c565b91505092915050565b6000617c1e82617856565b9050919050565b617c2e81617c13565b82525050565b6000602082019050617c496000830184617c25565b92915050565b7f4e6f7420617574686f72697a6564000000000000000000000000000000000000600082015250565b6000617c85600e83617386565b9150617c9082617c4f565b602082019050919050565b60006020820190508181036000830152617cb481617c78565b9050919050565b7f45706f6368206973206f7665722c207761697420666f7220746865206e65787460008201527f206f6e6500000000000000000000000000000000000000000000000000000000602082015250565b6000617d17602483617386565b9150617d2282617cbb565b604082019050919050565b60006020820190508181036000830152617d4681617d0a565b9050919050565b7f596f7520686176656e277420626f7567687420612063617073756c652064757260008201527f696e6720746869732065706f6368000000000000000000000000000000000000602082015250565b6000617da9602e83617386565b9150617db482617d4d565b604082019050919050565b60006020820190508181036000830152617dd881617d9c565b9050919050565b7f596f7527766520616c7265616479206f70656e656420796f757220636170737560008201527f6c65000000000000000000000000000000000000000000000000000000000000602082015250565b6000617e3b602283617386565b9150617e4682617ddf565b604082019050919050565b60006020820190508181036000830152617e6a81617e2e565b9050919050565b7f596f75722072657175657374206861736e2774206265656e2066756c6c66696c60008201527f6c65642079657400000000000000000000000000000000000000000000000000602082015250565b6000617ecd602783617386565b9150617ed882617e71565b604082019050919050565b60006020820190508181036000830152617efc81617ec0565b9050919050565b7f4e487b7100000000000000000000000000000000000000000000000000000000600052601160045260246000fd5b6000617f3d82617347565b91507fffffffffffffffffffffffffffffffffffffffffffffffffffffffffffffffff8203617f6f57617f6e617f03565b5b600182019050919050565b7f4e487b7100000000000000000000000000000000000000000000000000000000600052602260045260246000fd5b60006002820490506001821680617fc157607f821691505b602082108103617fd457617fd3617f7a565b5b50919050565b6000617fe582617347565b9150617ff083617347565b9250828202617ffe81617347565b9150828204841483151761801557618014617f03565b5b5092915050565b7f4e487b7100000000000000000000000000000000000000000000000000000000600052601260045260246000fd5b600061805682617347565b915061806183617347565b9250826180715761807061801c565b5b828204905092915050565b7f596f752068617665206f6e6c79206f6e6520616374696f6e207065722065706f60008201527f6368203a20627579206f72207570677261646500000000000000000000000000602082015250565b60006180d8603383617386565b91506180e38261807c565b604082019050919050565b60006020820190508181036000830152618107816180cb565b9050919050565b7f596f7527766520616c726561647920757067726164656420796f75722076616360008201527f63696e6520647572696e6720746869732065706f636800000000000000000000602082015250565b600061816a603683617386565b91506181758261810e565b604082019050919050565b600060208201905081810360008301526181998161815d565b9050919050565b7f596f7520646f6e2774206861766520612076616363696e6520746f207570677260008201527f6164650000000000000000000000000000000000000000000000000000000000602082015250565b60006181fc602383617386565b9150618207826181a0565b604082019050919050565b6000602082019050818103600083015261822b816181ef565b9050919050565b7f4e6f7420656e6f75676820746f6b656e7320746f207570677261646520796f7560008201527f722076616363696e650000000000000000000000000000000000000000000000602082015250565b600061828e602983617386565b915061829982618232565b604082019050919050565b600060208201905081810360008301526182bd81618281565b9050919050565b60006182cf82617347565b91506182da83617347565b92508282039050818111156182f2576182f1617f03565b5b92915050565b600060408201905061830d6000830185617789565b61831a6020830184617789565b9392505050565b7f45524332303a207472616e7366657220616d6f756e742065786365656473206160008201527f6c6c6f77616e6365000000000000000000000000000000000000000000000000602082015250565b600061837d602883617386565b915061838882618321565b604082019050919050565b600060208201905081810360008301526183ac81618370565b9050919050565b7f416363657373436f6e74726f6c3a2063616e206f6e6c792072656e6f756e636560008201527f20726f6c657320666f722073656c660000000000000000000000000000000000602082015250565b600061840f602f83617386565b915061841a826183b3565b604082019050919050565b6000602082019050818103600083015261843e81618402565b9050919050565b7f6572726f72000000000000000000000000000000000000000000000000000000600082015250565b600061847b600583617386565b915061848682618445565b602082019050919050565b600060208201905081810360008301526184aa8161846e565b9050919050565b7f6e6f2070656e64696e6720726577617264730000000000000000000000000000600082015250565b60006184e7601283617386565b91506184f2826184b1565b602082019050919050565b60006020820190508181036000830152618516816184da565b9050919050565b600061852882617347565b915061853383617347565b925082820190508082111561854b5761854a617f03565b5b92915050565b7f7472616e73666572206661696c65640000000000000000000000000000000000600082015250565b6000618587600f83617386565b915061859282618551565b602082019050919050565b600060208201905081810360008301526185b68161857a565b9050919050565b7f43616e277420656e64207468652067616d650000000000000000000000000000600082015250565b60006185f3601283617386565b91506185fe826185bd565b602082019050919050565b60006020820190508181036000830152618622816185e6565b9050919050565b7f416c726561647920696e66656374656400000000000000000000000000000000600082015250565b600061865f601083617386565b915061866a82618629565b602082019050919050565b6000602082019050818103600083015261868e81618652565b9050919050565b7f4e6f7420656e6f75676820746f6b656e7320746f20696e666563740000000000600082015250565b60006186cb601b83617386565b91506186d682618695565b602082019050919050565b600060208201905081810360008301526186fa816186be565b9050919050565b7f596f75277265206e6f7420696e66656374656400000000000000000000000000600082015250565b6000618737601383617386565b915061874282618701565b602082019050919050565b600060208201905081810360008301526187668161872a565b9050919050565b7f596f7520617265206e6f7420696e666563746564000000000000000000000000600082015250565b60006187a3601483617386565b91506187ae8261876d565b602082019050919050565b600060208201905081810360008301526187d281618796565b9050919050565b7f47616d6520686173206e6f742073746172746564000000000000000000000000600082015250565b600061880f601483617386565b915061881a826187d9565b602082019050919050565b6000602082019050818103600083015261883e81618802565b9050919050565b7f4e6f7420656e6f75676820746f6b656e7320746f20627579206120636170737560008201527f6c65000000000000000000000000000000000000000000000000000000000000602082015250565b60006188a1602283617386565b91506188ac82618845565b604082019050919050565b600060208201905081810360008301526188d081618894565b9050919050565b7f596f7527766520616c726561647920626f7567687420612063617073756c652060008201527f647572696e6720746869732065706f6368000000000000000000000000000000602082015250565b6000618933603183617386565b915061893e826188d7565b604082019050919050565b6000602082019050818103600083015261896281618926565b9050919050565b7f596f75206f6e6c792068617665206f6e6520616374696f6e207065722065706f60008201527f6368203a20627579206f72207570677261646500000000000000000000000000602082015250565b60006189c5603383617386565b91506189d082618969565b604082019050919050565b600060208201905081810360008301526189f4816189b8565b9050919050565b7f43616e27742073657420537761705468726573686f6c6420746f205a45524f00600082015250565b6000618a31601f83617386565b9150618a3c826189fb565b602082019050919050565b60006020820190508181036000830152618a6081618a24565b9050919050565b7f43616e2774207265647563652076616363696e6520737570706c79206475726960008201527f6e6720616e2065706f6368000000000000000000000000000000000000000000602082015250565b6000618ac3602b83617386565b9150618ace82618a67565b604082019050919050565b60006020820190508181036000830152618af281618ab6565b9050919050565b7f4f776e61626c653a206e6577206f776e657220697320746865207a65726f206160008201527f6464726573730000000000000000000000000000000000000000000000000000602082015250565b6000618b55602683617386565b9150618b6082618af9565b604082019050919050565b60006020820190508181036000830152618b8481618b48565b9050919050565b7f4e487b7100000000000000000000000000000000000000000000000000000000600052603260045260246000fd5b7f6e6f7420656e6f75676820746f6b656e7320746f20696e666563740000000000600082015250565b6000618bf0601b83617386565b9150618bfb82618bba565b602082019050919050565b60006020820190508181036000830152618c1f81618be3565b9050919050565b7f6e6f7420696e6665637465640000000000000000000000000000000000000000600082015250565b6000618c5c600c83617386565b9150618c6782618c26565b602082019050919050565b60006020820190508181036000830152618c8b81618c4f565b9050919050565b7f72657175657374206e6f7420666f756e64000000000000000000000000000000600082015250565b6000618cc8601183617386565b9150618cd382618c92565b602082019050919050565b60006020820190508181036000830152618cf781618cbb565b9050919050565b6000618d0982617347565b9150618d1483617347565b925082618d2457618d2361801c565b5b828206905092915050565b6000604082019050618d446000830185617351565b618d516020830184617298565b9392505050565b7f4f776e61626c653a2063616c6c6572206973206e6f7420746865206f776e6572600082015250565b6000618d8e602083617386565b9150618d9982618d58565b602082019050919050565b60006020820190508181036000830152618dbd81618d81565b9050919050565b600081519050919050565b600082825260208201905092915050565b6000819050602082019050919050565b618df981617347565b82525050565b6000618e0b8383618df0565b60208301905092915050565b6000602082019050919050565b6000618e2f82618dc4565b618e398185618dcf565b9350618e4483618de0565b8060005b83811015618e75578151618e5c8882618dff565b9750618e6783618e17565b925050600181019050618e48565b5085935050505092915050565b6000604082019050618e976000830185617351565b8181036020830152618ea98184618e24565b90509392505050565b7f4e6f7420617574686f72697a656420746f207472616465207965740000000000600082015250565b6000618ee8601b83617386565b9150618ef382618eb2565b602082019050919050565b60006020820190508181036000830152618f1781618edb565b9050919050565b7f4e6f7420696e6665637465640000000000000000000000000000000000000000600082015250565b6000618f54600c83617386565b9150618f5f82618f1e565b602082019050919050565b60006020820190508181036000830152618f8381618f47565b9050919050565b7f5472616e7366657220616d6f756e74206578636565647320746865204d61785760008201527f616c6c65742073697a652e000000000000000000000000000000000000000000602082015250565b6000618fe6602b83617386565b9150618ff182618f8a565b604082019050919050565b6000602082019050818103600083015261901581618fd9565b9050919050565b7f45524332303a20617070726f76652066726f6d20746865207a65726f2061646460008201527f7265737300000000000000000000000000000000000000000000000000000000602082015250565b6000619078602483617386565b91506190838261901c565b604082019050919050565b600060208201905081810360008301526190a78161906b565b9050919050565b7f45524332303a20617070726f766520746f20746865207a65726f20616464726560008201527f7373000000000000000000000000000000000000000000000000000000000000602082015250565b600061910a602283617386565b9150619115826190ae565b604082019050919050565b60006020820190508181036000830152619139816190fd565b9050919050565b600081549050919050565b60008190508160005260206000209050919050565b60008160001c9050919050565b600073ffffffffffffffffffffffffffffffffffffffff82169050919050565b60006191a061919b83619160565b61916d565b9050919050565b60006191b3825461918d565b9050919050565b6000600182019050919050565b60006191d282619140565b6191dc81856178af565b93506191e78361914b565b8060005b8381101561921f576191fc826191a7565b61920688826178df565b9750619211836191ba565b9250506001810190506191eb565b5085935050505092915050565b6000602082019050818103600083015261924681846191c7565b905092915050565b600067ffffffffffffffff82169050919050565b61926b8161924e565b82525050565b600061ffff82169050919050565b61928881619271565b82525050565b600063ffffffff82169050919050565b6192a78161928e565b82525050565b600060a0820190506192c2600083018861775f565b6192cf6020830187619262565b6192dc604083018661927f565b6192e9606083018561929e565b6192f6608083018461929e565b9695505050505050565b60008151905061930f8161742d565b92915050565b60006020828403121561932b5761932a6171f7565b5b600061933984828501619300565b91505092915050565b60006040820190506193576000830185617351565b619364602083018461929e565b9392505050565b60008151905061937a81617233565b92915050565b600060208284031215619396576193956171f7565b5b60006193a48482850161936b565b91505092915050565b6000819050919050565b60006193d26193cd6193c8846193ad565b61782a565b617347565b9050919050565b6193e2816193b7565b82525050565b600060a0820190506193fd6000830188617351565b61940a60208301876193d9565b818103604083015261941c8186617904565b905061942b6060830185617789565b6194386080830184617351565b9695505050505050565b600081905092915050565b50565b600061945d600083619442565b91506194688261944d565b600082019050919050565b600061947e82619450565b9150819050919050565b600081905092915050565b7f416363657373436f6e74726f6c3a206163636f756e7420000000000000000000600082015250565b60006194c9601783619488565b91506194d482619493565b601782019050919050565b60006194ea8261737b565b6194f48185619488565b9350619504818560208601617397565b80840191505092915050565b7f206973206d697373696e6720726f6c6520000000000000000000000000000000600082015250565b6000619546601183619488565b915061955182619510565b601182019050919050565b6000619567826194bc565b915061957382856194df565b915061957e82619539565b915061958a82846194df565b91508190509392505050565b60006195a182617347565b9150600082036195b4576195b3617f03565b5b600182039050919050565b7f537472696e67733a20686578206c656e67746820696e73756666696369656e74600082015250565b60006195f5602083617386565b9150619600826195bf565b602082019050919050565b60006020820190508181036000830152619624816195e8565b905091905056fea26469706673582212208c8c49b33f7e38e813d44600a261625a125aa6364705c3824a8d97f1c9fb147364736f6c6343000814003360806040526103e86019600160009054906101000a900473ffffffffffffffffffffffffffffffffffffffff1673ffffffffffffffffffffffffffffffffffffffff166318160ddd6040518163ffffffff1660e01b8152600401602060405180830381865afa15801562000077573d6000803e3d6000fd5b505050506040513d601f19601f820116820180604052508101906200009d9190620002a5565b620000a9919062000306565b620000b5919062000380565b6003556000600455348015620000ca57600080fd5b506040516200134d3803806200134d8339818101604052810190620000f091906200041d565b62000110620001046200019960201b60201c565b620001a160201b60201c565b80600160006101000a81548173ffffffffffffffffffffffffffffffffffffffff021916908373ffffffffffffffffffffffffffffffffffffffff16021790555080600260006101000a81548173ffffffffffffffffffffffffffffffffffffffff021916908373ffffffffffffffffffffffffffffffffffffffff160217905550506200044f565b600033905090565b60008060009054906101000a900473ffffffffffffffffffffffffffffffffffffffff169050816000806101000a81548173ffffffffffffffffffffffffffffffffffffffff021916908373ffffffffffffffffffffffffffffffffffffffff1602179055508173ffffffffffffffffffffffffffffffffffffffff168173ffffffffffffffffffffffffffffffffffffffff167f8be0079c531659141344cd1fd0a4f28419497f9722a3daafe3b4186f6b6457e060405160405180910390a35050565b600080fd5b6000819050919050565b6200027f816200026a565b81146200028b57600080fd5b50565b6000815190506200029f8162000274565b92915050565b600060208284031215620002be57620002bd62000265565b5b6000620002ce848285016200028e565b91505092915050565b7f4e487b7100000000000000000000000000000000000000000000000000000000600052601160045260246000fd5b600062000313826200026a565b915062000320836200026a565b925082820262000330816200026a565b915082820484148315176200034a5762000349620002d7565b5b5092915050565b7f4e487b7100000000000000000000000000000000000000000000000000000000600052601260045260246000fd5b60006200038d826200026a565b91506200039a836200026a565b925082620003ad57620003ac62000351565b5b828204905092915050565b600073ffffffffffffffffffffffffffffffffffffffff82169050919050565b6000620003e582620003b8565b9050919050565b620003f781620003d8565b81146200040357600080fd5b50565b6000815190506200041781620003ec565b92915050565b60006020828403121562000436576200043562000265565b5b6000620004468482850162000406565b91505092915050565b610eee806200045f6000396000f3fe608060405234801561001057600080fd5b50600436106100885760003560e01c8063efca2eed1161005b578063efca2eed146100dd578063f25addf5146100fb578063f2fde38b14610117578063fc0c546a1461013357610088565b8063715018a61461008d578063853828b6146100975780638da5cb5b146100a15780639d76ea58146100bf575b600080fd5b610095610151565b005b61009f610165565b005b6100a96102ab565b6040516100b6919061081e565b60405180910390f35b6100c76102d4565b6040516100d4919061081e565b60405180910390f35b6100e56102fa565b6040516100f29190610852565b60405180910390f35b61011560048036038101906101109190610a06565b610300565b005b610131600480360381019061012c9190610a4f565b6105ea565b005b61013b61066d565b6040516101489190610adb565b60405180910390f35b610159610693565b6101636000610711565b565b61016d610693565b600160009054906101000a900473ffffffffffffffffffffffffffffffffffffffff1673ffffffffffffffffffffffffffffffffffffffff1663a9059cbb33600160009054906101000a900473ffffffffffffffffffffffffffffffffffffffff1673ffffffffffffffffffffffffffffffffffffffff166370a08231306040518263ffffffff1660e01b8152600401610207919061081e565b602060405180830381865afa158015610224573d6000803e3d6000fd5b505050506040513d601f19601f820116820180604052508101906102489190610b22565b6040518363ffffffff1660e01b8152600401610265929190610b4f565b6020604051808303816000875af1158015610284573d6000803e3d6000fd5b505050506040513d601f19601f820116820180604052508101906102a89190610bb0565b50565b60008060009054906101000a900473ffffffffffffffffffffffffffffffffffffffff16905090565b600260009054906101000a900473ffffffffffffffffffffffffffffffffffffffff1681565b60045481565b600260009054906101000a900473ffffffffffffffffffffffffffffffffffffffff1673ffffffffffffffffffffffffffffffffffffffff163373ffffffffffffffffffffffffffffffffffffffff1614610390576040517f08c379a000000000000000000000000000000000000000000000000000000000815260040161038790610c60565b60405180910390fd5b6000600354600160009054906101000a900473ffffffffffffffffffffffffffffffffffffffff1673ffffffffffffffffffffffffffffffffffffffff166370a08231306040518263ffffffff1660e01b81526004016103f0919061081e565b602060405180830381865afa15801561040d573d6000803e3d6000fd5b505050506040513d601f19601f820116820180604052508101906104319190610b22565b116104d757600160009054906101000a900473ffffffffffffffffffffffffffffffffffffffff1673ffffffffffffffffffffffffffffffffffffffff166370a08231306040518263ffffffff1660e01b8152600401610491919061081e565b602060405180830381865afa1580156104ae573d6000803e3d6000fd5b505050506040513d601f19601f820116820180604052508101906104d29190610b22565b6104db565b6003545b905080600460008282546104ef9190610caf565b92505081905550600081146105e65760005b82518110156105e457600160009054906101000a900473ffffffffffffffffffffffffffffffffffffffff1673ffffffffffffffffffffffffffffffffffffffff1663a9059cbb84838151811061055b5761055a610ce3565b5b60200260200101518551856105709190610d41565b6040518363ffffffff1660e01b815260040161058d929190610b4f565b6020604051808303816000875af11580156105ac573d6000803e3d6000fd5b505050506040513d601f19601f820116820180604052508101906105d09190610bb0565b5080806105dc90610d72565b915050610501565b505b5050565b6105f2610693565b600073ffffffffffffffffffffffffffffffffffffffff168173ffffffffffffffffffffffffffffffffffffffff1603610661576040517f08c379a000000000000000000000000000000000000000000000000000000000815260040161065890610e2c565b60405180910390fd5b61066a81610711565b50565b600160009054906101000a900473ffffffffffffffffffffffffffffffffffffffff1681565b61069b6107d5565b73ffffffffffffffffffffffffffffffffffffffff166106b96102ab565b73ffffffffffffffffffffffffffffffffffffffff161461070f576040517f08c379a000000000000000000000000000000000000000000000000000000000815260040161070690610e98565b60405180910390fd5b565b60008060009054906101000a900473ffffffffffffffffffffffffffffffffffffffff169050816000806101000a81548173ffffffffffffffffffffffffffffffffffffffff021916908373ffffffffffffffffffffffffffffffffffffffff1602179055508173ffffffffffffffffffffffffffffffffffffffff168173ffffffffffffffffffffffffffffffffffffffff167f8be0079c531659141344cd1fd0a4f28419497f9722a3daafe3b4186f6b6457e060405160405180910390a35050565b600033905090565b600073ffffffffffffffffffffffffffffffffffffffff82169050919050565b6000610808826107dd565b9050919050565b610818816107fd565b82525050565b6000602082019050610833600083018461080f565b92915050565b6000819050919050565b61084c81610839565b82525050565b60006020820190506108676000830184610843565b92915050565b6000604051905090565b600080fd5b600080fd5b600080fd5b6000601f19601f8301169050919050565b7f4e487b7100000000000000000000000000000000000000000000000000000000600052604160045260246000fd5b6108cf82610886565b810181811067ffffffffffffffff821117156108ee576108ed610897565b5b80604052505050565b600061090161086d565b905061090d82826108c6565b919050565b600067ffffffffffffffff82111561092d5761092c610897565b5b602082029050602081019050919050565b600080fd5b61094c816107fd565b811461095757600080fd5b50565b60008135905061096981610943565b92915050565b600061098261097d84610912565b6108f7565b905080838252602082019050602084028301858111156109a5576109a461093e565b5b835b818110156109ce57806109ba888261095a565b8452602084019350506020810190506109a7565b5050509392505050565b600082601f8301126109ed576109ec610881565b5b81356109fd84826020860161096f565b91505092915050565b600060208284031215610a1c57610a1b610877565b5b600082013567ffffffffffffffff811115610a3a57610a3961087c565b5b610a46848285016109d8565b91505092915050565b600060208284031215610a6557610a64610877565b5b6000610a738482850161095a565b91505092915050565b6000819050919050565b6000610aa1610a9c610a97846107dd565b610a7c565b6107dd565b9050919050565b6000610ab382610a86565b9050919050565b6000610ac582610aa8565b9050919050565b610ad581610aba565b82525050565b6000602082019050610af06000830184610acc565b92915050565b610aff81610839565b8114610b0a57600080fd5b50565b600081519050610b1c81610af6565b92915050565b600060208284031215610b3857610b37610877565b5b6000610b4684828501610b0d565b91505092915050565b6000604082019050610b64600083018561080f565b610b716020830184610843565b9392505050565b60008115159050919050565b610b8d81610b78565b8114610b9857600080fd5b50565b600081519050610baa81610b84565b92915050565b600060208284031215610bc657610bc5610877565b5b6000610bd484828501610b9b565b91505092915050565b600082825260208201905092915050565b7f4f6e6c7920746f6b656e20636f6e74726163742063616e2063616c6c2074686960008201527f732066756e6374696f6e00000000000000000000000000000000000000000000602082015250565b6000610c4a602a83610bdd565b9150610c5582610bee565b604082019050919050565b60006020820190508181036000830152610c7981610c3d565b9050919050565b7f4e487b7100000000000000000000000000000000000000000000000000000000600052601160045260246000fd5b6000610cba82610839565b9150610cc583610839565b9250828201905080821115610cdd57610cdc610c80565b5b92915050565b7f4e487b7100000000000000000000000000000000000000000000000000000000600052603260045260246000fd5b7f4e487b7100000000000000000000000000000000000000000000000000000000600052601260045260246000fd5b6000610d4c82610839565b9150610d5783610839565b925082610d6757610d66610d12565b5b828204905092915050565b6000610d7d82610839565b91507fffffffffffffffffffffffffffffffffffffffffffffffffffffffffffffffff8203610daf57610dae610c80565b5b600182019050919050565b7f4f776e61626c653a206e6577206f776e657220697320746865207a65726f206160008201527f6464726573730000000000000000000000000000000000000000000000000000602082015250565b6000610e16602683610bdd565b9150610e2182610dba565b604082019050919050565b60006020820190508181036000830152610e4581610e09565b9050919050565b7f4f776e61626c653a2063616c6c6572206973206e6f7420746865206f776e6572600082015250565b6000610e82602083610bdd565b9150610e8d82610e4c565b602082019050919050565b60006020820190508181036000830152610eb181610e75565b905091905056fea26469706673582212202b60765d4dd1eea65e6388a0c672cbe9eb93aba747bcd6ee35dd5ef6d90ad85364736f6c63430008140033",
  "linkReferences": {},
  "deployedLinkReferences": {}
}